:100000000C9477030C9494030C9494030C94940331
:100010000C9494030C9494030C9494030C94940304
:100020000C9494030C9494030C94E12C0C94B42D34
:100030000C948A230C9494030C9494030C949403CE
:100040000C9494030C9494030C9494030C949403D4
:100050000C9494030C94EB230C9494030C9494034D
:100060000C9494030C9494030C9494030C949403B4
:100070000C9494030C9494030C9494030C949403A4
:100080000C9494030C9494030C9494030C94940394
:100090000C9494030C9494030C9494030C94940384
:1000A0000C9494030C9494030C9494030000F0A11A
:1000B00029002B00E000E100E20000001E00140017
:1000C00004001D00000000001F001A0016001B00A5
:1000D0000000E30020000800070006000000E50023
:1000E000210015000900190002510000220017002C
:1000F0000A0005000000000000002C0400001E01A2
:1001000000000000660C035400001F010000000006
:1001100023001C000B001100000000002400180048
:100120000D0010000151000025000C000E003600EB
:1001300000002C00260012000F0037000000E7002E
:1001400027001300330038000000000000002A00E0
:100150002800E500E6000000003001000100010079
:100160000100000000001E002B0000000000010044
:1001700000001F003500000000000100000020000A
:1001800031002900000001000000210034000000BF
:1001900000000100000022002A0000000000010011
:1001A000000010140000000000000100000000002A
:1001B000000000000000010000002300000000001B
:1001C00000000100000024002D00000001000100DB
:1001D000000025002E0001000100010000002600A3
:1001E0002F00010001000100000027003000010085
:1001F00001000100010001000100010001000000F8
:100200000000000000000000005C00003A00AA00AE
:1002100000000000000001003B00A90000000000F9
:10022000000001003C00A8000000000000000100E8
:100230003D00000000000000000001003E00000042
:1002400000000000000001000000000000000000AD
:10025000000001000000000000000000000001009C
:100260003F000000F2000000000001004000F40028
:10027000F1000000000001004100F500F000000066
:100280000000010042000000F30000000000010037
:100290004300440045000000000001000000000091
:1002A000000000000000000000000000000000004E
:1002B000000000000000000000000000000000003E
:1002C0000000000016140000000000000000000004
:1002D00000000614000005000000000000000000FF
:1002E00000000000000017140A14000000000000C5
:1002F00000000000000000000000000000000051AD
:1003000000000000000000000000000000000000ED
:1003100000000000000000000000000000000000DD
:1003200000000C14000000000000000000000000AD
:100330000F1400000000000000000000000000009A
:1003400000000000000000000000000000000000AD
:1003500000047F3F1F643214643214783C1E1E1464
:100360000A052223252628292A2C2D2F3032333521
:1003700036383A3B3D3E4042434547494A4C4E5051
:1003800051535557595A5C5E6062646668696B6D7B
:100390006F71737577797B7D7F81838587898A8C7F
:1003A0008E90929496989A9C9E9FA1A3A5A7A8AA86
:1003B000ACAEAFB1B3B4B6B8B9BBBCBEBFC1C2C3BB
:1003C000C5C6C7C9CACBCCCDCED0D1D2D2D3D4D555
:1003D000D6D7D7D8D9D9DADADBDBDBDCDCDCDCDC7E
:1003E000DDDDDDDDDCDCDCDCDCDBDBDBDADAD9D956
:1003F000D8D7D7D6D5D4D3D2D2D1D0CECDCCCBCAE4
:10040000C9C7C6C5C3C2C1BFBEBCBBB9B8B6B4B309
:10041000B1AFAEACAAA8A7A5A3A19F9E9C9A98969F
:100420009492908E8C8A89878583817F7D7B797772
:100430007573716F6D6B6968666462605E5C5A5952
:1004400057555351504E4C4A4947454342403E3D13
:100450003B3A3836353332302F2D2C2A29282625A1
:100460002322FFAA7F554000010101010101010182
:100470000102020202020202020203030303030357
:100480000303040404040404040505050505060625
:1004900006060607070707070808080809090909E3
:1004A0000A0A0A0B0B0B0C0C0C0D0D0D0E0E0E0F89
:1004B0000F0F101011111112121313141415151619
:1004C000161717181819191A1A1B1B1C1D1D1E1E8A
:1004D0001F202021222223242425262627282929DB
:1004E0002A2B2C2D2D2E2F30313232333435363706
:1004F00038393A3B3C3D3E3F404142434445464704
:1005000048494A4C4D4E4F50515354555658595ADC
:100510005B5D5E5F616264656668696B6C6D6F7080
:1005200072737577787A7B7D7E8082838587888AEF
:100530008C8E8F91939596989A9C9EA0A2A3A5A726
:10054000A9ABADAFB1B3B5B7BABCBEC0C2C4C6C922
:10055000CBCDCFD1D4D6D8DBDDDFE2E4E7E9EBEEDB
:10056000F0F3F5F8FAFDFF04033000000016034530
:1005700000720067006F0044006F007800200045A3
:10058000005A00000016034500720067006F004427
:10059000006F007800200045005A000000040309A5
:1005A0000409023B00020100A0FA09040000010353
:1005B000010100092111010001224000070581030A
:1005C00008000A09040100010300000009211101CB
:1005D000000122C0000705820320000A1201100159
:1005E00000000008EDFE07130100010203010501F0
:1005F0000902A10185020901A100050919012905C6
:10060000150025019505750181029501750381018C
:100610000501093009311581257F9502750881068C
:1006200009381581257F950175088106050C0A3862
:10063000021581257F950175088106C0C005010955
:1006400080A10185031A81002A8300160100260378
:1006500000950175108100C0050C0901A1018504F8
:100660001A01002A9C02160100269C0295017510B1
:100670008100C005010906A1018505050719E029CA
:10068000E715002501950875018102050719002964
:10069000EF1500250195F075018102050819012962
:1006A00005950575019102950175039101C005013C
:1006B0000906A101050719E029E71500250195089C
:1006C000750181029501750881010507190029FF4F
:1006D000150026FF009506750881000508190129F7
:1006E00005950575019102950175039101C01124CD
:1006F0001FBECFEFDAE0DEBFCDBF12E0A0E0B1E079
:10070000ECE6F3E602C005900D92AC35B107D9F7DF
:1007100023E0ACE5B2E001C01D92A83EB207E1F7CC
:100720000E94172A0C942B310C94000080B38C701B
:1007300080BB81B3836F81BB089584B1807F84B90E
:1007400085B1807F85B98AB1837F8AB98BB1837F78
:100750008BB93E9846980895CF93C82F873070F58F
:100760008091060190910701892B99F564E670E06C
:1007700080E40E94F6139093070180930601892B71
:10078000D1F464E670E082E10E9452149093070174
:1007900080930601892B79F481E090E001C0880FF5
:1007A000CA95EAF764E670E080950E94521490932F
:1007B000070180930601CF910C94A5148B30C9F0EA
:1007C00050F4893081F08A3089F0883049F0209ADD
:1007D0002898CF9108958C3079F4539A5B98F9CF8B
:1007E000219A2998F6CF229A2A98F3CF239A2B9808
:1007F000F0CF529A5A98EDCF3E9A4698EACFCF93CF
:10080000DF93873058F58091060190910701C0E091
:10081000892B71F464E670E081E40E94F6139093F2
:10082000070180930601892B39F0C0E00E94A514CE
:100830008C2FDF91CF91089584E690E00E9481147F
:10084000EC0197FF05C09093070180930601EDCF5F
:10085000C0951092070110920601E8CFCFB12FB1D9
:10086000269526952C73C3702C2BC22FC095E0CFF4
:100870000C949C060E94EA0590E0909307018093F7
:1008800006010E949D030E949603EDE5F2E0ABE6AF
:10089000B2E011921D9282E0EB36F807D1F78EE0BC
:1008A0000E941F0A0C948D070E94EA0590E0909325
:1008B0000701809306010E949D030E949603EDE5C7
:1008C000F2E0119282E0EB36F807D9F70895FF9233
:1008D0000F931F93CF93DF9300D00F92CDB7DEB766
:1008E0008091060190910701892B91F080915C0223
:1008F0008F5F80935C0281110BC00E94EA0590E03B
:100900009093070180930601892B11F40E947F05C3
:100910000BE612E01A821B828A81895F89838A81B1
:100920000E94AC0389810E94AC038A810E94FF036C
:10093000F80191918F01F12C891721F03197808373
:10094000FF24F39489810E94FF03F801968189179F
:1009500009F1868381E08F29FB81F82BFB830E94BC
:100960009D038A818F5F8A838730B1F62B814EE0A9
:100970006DE572E08BE692E00E94A20A0E94970762
:1009800081E00F900F900F90DF91CF911F910F9109
:10099000FF90089580E0DFCFE82FF0E0E35AFD4FAD
:1009A0008081089508959C01CB016BB1542F50951F
:1009B00056236BB1462B6FB7F894820F931F2817FD
:1009C000390711F46FBF0895F90171919F01E8E0B3
:1009D0004BB9000000C077FF5BB9770F000000C083
:1009E00000C000C05BB900C0EA9591F7E8CF9C0158
:1009F0009AB1942B9AB9660F771F660F771FC901BA
:100A00000E94D3048FE391E00197F1F700C000004A
:100A1000089540E80C94F704CF93DF9380918E0300
:100A200080FD37C0E3E9F3E0118210821282138265
:100A3000349683E0EF3CF807B9F70E94F01364E6C0
:100A400070E084E80E94F613C3E9D3E064E670E046
:100A500088810E94521464E670E089810E945214D9
:100A600064E670E08A810E94521464E670E08B8133
:100A70000E945214249683E0CF3CD80739F70E9495
:100A8000A5146FE070E083E993E0DF91CF910C94BF
:100A90000905C3E9D3E0CE010E94340C249683E01B
:100AA000CF3CD807C1F7C9CF259A2D9A0895269A29
:100AB0002E9A0895279A2F9A089556985E98089529
:100AC00025982D98089526982E98089527982F9860
:100AD00008950E945D050E9460050E9463050C94C4
:100AE000660590E0909389008093880090938B0036
:100AF00080938A0090938D0080938C0008950E94CB
:100B000069058FEF0E9471050E9454052FEF80E761
:100B100092E0215080409040E1F700C000000E9428
:100B200057052FEF80E792E0215080409040E1F799
:100B300000C000000E945A052FEF80E792E021508C
:100B400080409040E1F700C000000E9460052FEF58
:100B500080E792E0215080409040E1F700C0000023
:100B60000E9463052FEF80E792E021508040904083
:100B7000E1F700C000000E9466050C94690589EA4F
:100B80008093800089E08093810024982C983F987E
:100B90008AB18F7C8AB96E98479A8BB180638BB982
:100BA000769A0E941C22609385037093860380933B
:100BB00087039093880367702FEF629FC001112411
:100BC00095958795959587950E9471050E947F055B
:100BD0000C949B0680E290E09093070180930601BD
:100BE0008091790281110EC00E94F01381E0809300
:100BF00079022FEF83ED90E3215080409040E1F7A0
:100C000000C0000064E670E080E40E94F613909358
:100C1000070180930601892B09F04EC064E670E05D
:100C200080E00E9452149093070180930601892B63
:100C300009F042C064E670E080E00E945214909394
:100C4000070180930601892BB9F564E670E08FE314
:100C50000E9452149093070180930601892B61F53D
:100C60000E94A51464E670E080E40E94F61390935D
:100C7000070180930601892BF9F464E670E08CE0AB
:100C80000E9452149093070180930601892BA1F4CE
:100C900064E670E080E00E94521490930701809314
:100CA0000601892B49F464E670E08FE30E94521438
:100CB00090930701809306010E94A514809106017C
:100CC0000895CF93DF9300D000D0CDB7DEB7109258
:100CD000850310928603109287031092880384E0A4
:100CE0008061809385038091850390918603A09114
:100CF0008703B091880389839A83AB83BC83BC014B
:100D0000CD010E9420220F900F900F900F90DF9145
:100D1000CF910C942C22FC01611106C082818823A2
:100D200031F085EE0E944B1690E080E0089585EE4C
:100D30000E94D316F9CF0895CF93DF9300D000D04F
:100D4000CDB7DEB78091240390912503A0912603AF
:100D5000B091270389839A83AB83BC83BC01CD0107
:100D60000E94A32189830E945D050E9460050E9464
:100D700063050E9466059981923061F0933091F08D
:100D80009130C1F40F900F900F900F90DF91CF91A1
:100D90000C9454050F900F900F900F90DF91CF910E
:100DA0000C9457050F900F900F900F90DF91CF91FB
:100DB0000C945A050F900F900F900F90DF91CF91E8
:100DC0000895CF93DF939C01FB019A9581159F4174
:100DD00060F5E901CC27D170D901AA27B270B90119
:100DE00066277470A9014427587034FF10C080E151
:100DF000CD2B09F480E0AB2B09F08062672B09F062
:100E00008064452B09F08068DF91CF91099481E0DF
:100E1000CD2B09F480E0AB2B09F08260672B09F041
:100E20008460452B89F38860EFCFDF91CF910895DF
:100E3000CF93DF93EC01805E9109089720F061E584
:100E40007AE1209711F46CE377E1CE010E94E1068C
:100E50008C2FDF91CF910C944B16CF93DF93EC0145
:100E60000E94D316CE01805E9109089720F068E5B4
:100E70007AE1209711F463E477E1CE01DF91CF911D
:100E80000C94E106CF93DF93D82FC92F0E94180747
:100E90008D2F9C2FDF91CF910C942D0781E0089529
:100EA00081E008950C9450071F93CF93DF9300D0F7
:100EB00000D00F92CDB7DEB749835A836B83209160
:100EC000B20289819A8121111BC06623A9F00E9478
:100ED0005120182F682F89819A810E94F81F6981FB
:100EE0007A81812F0F900F900F900F900F90DF91CC
:100EF000CF911F910C940E080E942720182FEFCF3E
:100F00000E94512069817A81EDCFFC01408151819D
:100F10006281738184810C9454070E94EE218111B7
:100F200002C00E9488220E94F70A0C94BF050C940C
:100F30003804282F2F7041F0822F90E02A3010F4CF
:100F40004D9608950697089587E290E008950895D4
:100F50000C94A70781E008950C94AA07CF93C82F9B
:100F60000E94A8078C2FCF910C94AC0708950E9483
:100F7000751A0E94B6072FEF84E39CE02150804051
:100F80009040E1F700C000000C940F240F931F93D2
:100F9000CF93DF93EC010E9485078C01BE010E9474
:100FA0005207882389F1BE01C8010E946C0B882377
:100FB00059F1BE01C8010E94AF12882329F1BE0178
:100FC000C8010E94F3128823F9F0BE01C8010E94F3
:100FD000C6138823C9F0BE01C8010E94D21188231C
:100FE00099F08A81882339F001158CE5180751F0B2
:100FF0000E3D1C4579F0CE01DF91CF911F910F91ED
:101000000C944E070E94B70780E0DF91CF911F91AB
:101010000F9108950E948822F7CF0895972F70E0CE
:1010200026E0929F600D711D1124FB0194E5899FBC
:10103000E00DF11D1124EE0FFF1FE055FF4F8591CC
:1010400094910895FC01EE0FFF1FE455FF4F859129
:1010500094910895CF93DF930E940E080E94440953
:10106000EC01811521E5920708F045C0811530E5B6
:10107000930708F0CAC0883E910508F5803E9105A7
:10108000B0F5883A910570F4853A910508F0A2C050
:101090008130910561F10497813A910540F1D0E0EA
:1010A000C0E025C08F3B910508F497C0805C910992
:1010B00080329105A0F70E942208EC0118C081152A
:1010C000904370F4C11580E2D80708F091C0CF3F7B
:1010D000D10509F060F4C03FD10508F3D06507C021
:1010E000C11590E4D90708F486C0DF70D06ACE013C
:1010F000DF91CF910895811526E5920760F581155E
:1011000035E5930708F0B3C0811544E59407F0F482
:10111000C11583E5D80708F096C0C11592E5D90737
:1011200008F48CC0CE018370992721E030E002C022
:10113000220F331F8A95E2F7C695C69540E2C49FF9
:10114000E0011124C22BD32BDC68D1CFD82FCC27C0
:10115000C46FD06ACCCFC1158CE5D80740F5C11556
:101160009BE5D90708F08DC0C11529E5D20750F4D9
:10117000C11538E5D30708F492CFDC2FCC27C06F18
:10118000D06AB5CFCE0199558F3F910511F008F087
:1011900086CF8C2F8F700E94DC0934E0D695C795DE
:1011A0003A95E1F7CF70DC2FC82FD069A0CFCE01E0
:1011B00090568115904208F072CF8D2F8F710E944A
:1011C000DC0990E0982F882788279F719C012C2BA1
:1011D000E90155C0A497D0648ACFC85AD0E0CC0F9B
:1011E000DD1FCF52DE4F0990D881C02DD4647FCF50
:1011F000CE019F7060CFCE019927D3FF03C0EC01D1
:10120000D86C75CFEC01D06C72CF74E09695879551
:101210007A95E1F783702C2F26952695237090E21E
:10122000299F90011124382B8C2F8370C1E0D0E0CE
:1012300002C0CC0FDD1F8A95E2F784CFDC2FCC27CC
:10124000C16FD06A54CFCE018370992721E030E07E
:1012500002C0220F331F8A95E2F7C695C69540E279
:10126000C49FE0011124C22BD32BDA6840CF0E9427
:10127000DC09C82FD0E0DC2FCC27CC27DF71D0626F
:1012800036CFDD27D06633CF803E910599F1C8F483
:101290008133910509F476C048F48932910509F447
:1012A0006AC08A32910509F474C0089589339105A2
:1012B000D1F082389105B9F08533910509F454C015
:1012C0000895843E910599F138F4823E9105F9F034
:1012D000833E910509F10895863E910599F1873E77
:1012E0009105B9F108952091D5032370A1F080EE06
:1012F00090E008952091D50320FD52C03091D6038F
:1013000030FF09C024FF4FC090E080E004C020916E
:10131000D50322FDF7CF08952091D50322FD46C0C5
:101320003091D60330FDE3CF24FFF5CFEDCF2091F0
:10133000D60321FFF0CF8091D50384FDE5CF87EE62
:1013400090E008952091D50323FFE5CF24FDDCCF65
:10135000F6CF2091D50323FD2CC03091D60331FF69
:10136000E3CF84EE90E008952091D50325FFD3CFFD
:1013700089E290E008952091D50325FFCCCF85E345
:1013800090E008952091D50326FFC5CF8AE290E032
:1013900008952091D50326FFBECF81E390E0089504
:1013A00089E390E0089583EE90E0089582EE90E066
:1013B000089586EE90E008959091D50392FF06C0BF
:1013C000282F28712830F9F4877F846093FF06C0A6
:1013D000282F28712831F1F4877E84612091D6036B
:1013E00020FF06C0382F38713830D9F4877F8160EC
:1013F00021FF06C0282F28712831D1F4877E816112
:1014000094FD877E0895282F24712430F9F68B7F70
:101410008860DCCF282F2471243101F78B7E88610E
:10142000DDCF382F3171313019F78E7F8860E0CFF2
:10143000282F2171213121F78E7E8861E1CFCF9352
:10144000C82F90E00E94AE2F80937B0290937C0285
:10145000282FFC019BEF8E2F821B8C1710F0CF9151
:1014600008959193F8CF0F931F93CF93DF9310922A
:101470007A0250917B02E52FF0917C0240E0A62F8A
:10148000B0E07BEFCAEFD0E09E2F951B981738F0A5
:1014900040937A02DF91CF911F910F91089590812F
:1014A0009B3F61F0292F30E0691750F08D01021B3E
:1014B000130B98012E31310554F070833196E4CF2F
:1014C0008E01021B130B98012A0F3B1FF3CF41E043
:1014D000F5CFCF92DF92EF92FF920F931F93CF93AE
:1014E000DF936B0110927D02E0907B02F0907C0212
:1014F00050917A02FC0190E080E030E0841768F0BF
:1015000050937A0230937D02DF91CF911F910F911A
:10151000FF90EF90DF90CF900895E601C80FD91F9C
:1015200061917881761751F08701080F191FD80152
:101530007C917B3F29F42C93688351E00196DECFA8
:1015400031E0FCCFDF92EF92FF920F931F93CF9386
:10155000DF93182F092FF62EE72EC42FD22F0E94CB
:10156000BA236AEF70E00E94742FD82E80917A021D
:10157000882329F16D2D8C2F0E94330ADD2379F009
:101580002D2D4C2F6F2D7E2D812F902FDF91CF9100
:101590001F910F91FF90EF90DF900C94690A80915A
:1015A0007A02882369F380917D028111E9CFDF916E
:1015B000CF911F910F91FF90EF90DF900895D1117F
:1015C000DFCFF1CFCF93DF93EC01FB0197FF0BC08F
:1015D0008281882341F00E940D0BCE019F770E94EB
:1015E0004F0B0E94380B81E0DF91CF9108958CE082
:1015F00090E00E94E33090E0B0E0A0E080938903A7
:1016000090938A03A0938B03B0938C030895609109
:1016100089038CE090E00C94F7300E94EE208093D8
:101620008D030E940221809189038230A9F030F459
:1016300081110DC082EE0E944B1602C0843099F0D9
:101640008FE39CE90197F1F700C00000089588E15D
:1016500093E00E944207F4CF82EE0E944B1687E58A
:101660000E942917EDCF86EE0E94291788E1F8CF56
:1016700080918903823019F030F481110AC082EE22
:101680000E94D31602C0843041F080918D030C94E7
:10169000FF208CE20E942917F8CF88E2FBCF0F933E
:1016A0001F93CF93DF938C01CCE0D0E0C8010C2EC8
:1016B00002C0969587950A94E2F78F700E94990769
:1016C0000E9429172497CC3F8FEFD80779F7DF9135
:1016D000CF911F910F9108950F931F93CF93DF9395
:1016E000EC018B01FB018281882371F0C33EFCE594
:1016F000DF0719F188F4C13EECE5DE07C9F081E0AF
:10170000C23EFCE5DF0789F0B801CE01DF91CF9141
:101710001F910F910C94E20AC43E8CE5D80779F032
:1017200084E0C53EECE5DE0779F78093890302C0CB
:10173000109289030E94070BE7CF82E0F6CF83E087
:10174000F4CFAF92BF92CF92DF92EF92FF920F93BE
:101750001F93CF93DF93362F472FE82FF0E0E959FF
:10176000FB4F71110EC06491762F862FDF91CF91C0
:101770001F910F91FF90EF90DF90CF90BF90AF90AF
:101780000895C72FD0E0249186E0689F700111244E
:101790000FEF10E0C701B8010E94742F832F90E073
:1017A000880F991F35E5369FF001379FF00D112402
:1017B0008E1B9F0B982F990F980FF801EC1BFD0BB8
:1017C0002E9FD0012F9FB00D1124EB2F949FA001CD
:1017D0001124452F55276801C41AD50AA601249F54
:1017E0006001259FD00C11248D2D5801A91AB10834
:1017F000AC9EA001AD9E500DBC9E500D1124452FF6
:101800005527041B150B209FA001219F500D11246B
:1018100063307105D9F09CEFE91693E0F90668F49E
:1018200061307105B9F062307105C1F09FEFE916C2
:10183000F10448F48B2FE52F06C06430710589F060
:1018400066307105B9F36E2F722F90CFED2D822F78
:101850002B2FF9CFE22F2D2D8B2FF5CF852FE22FB8
:10186000F7CF822F252FEFCFFC019281208131818C
:10187000892F291708F4822F381708F4832F8383C0
:10188000381B3183281B2083981B92830895089569
:10189000CF93DF93982F762F842FE901692F0E9431
:1018A000A10B798368838A831B82DF91CF9108958E
:1018B0000F931F93CF93DF93EC0110E000E0909122
:1018C0000A019017110609F06CF40E940C058C8136
:1018D00090E00196817099278C83DF91CF911F91C1
:1018E0000F91089520918102200F312F311D220F79
:1018F000331F220F331F2D563C4F4C8160919003B4
:1019000080918F0396959017110651F04CF0442367
:1019100049F0409191030E94480C0F5F1F4FCFCFB9
:101920004423B9F340E0F7CF0F931F93CF93DF9396
:101930008C01FC01848195810196817099279583A2
:101940008483C0E0D5E580910A01C81730F0DF91AB
:10195000CF911F910F910C940C05209181022C0FB7
:101960003327331F220F331F220F331F2D563C4FB7
:101970008C2F8695F80144815581840F952F911DF8
:10198000817040919103609190038D9F802D11246F
:101990000E94480CCF5FD7CF0F931F93CF938091B6
:1019A000810290910B0124E0829FF0011124ED56F9
:1019B000FC4F891730F1C0E060910A01C61740F171
:1019C0000E940C052091080180917F02820F809374
:1019D0007F0290910901920F90930901191654F416
:1019E000082E000C990B40910A014150550B8417A9
:1019F00095071CF0219520930801CF911F910F911D
:101A0000089511821082128213828F5F3496D1CF93
:101A10000C2F10E070E0C8010E94882FE091810235
:101A2000E80F80917F02082E000C990B24E0E29FC2
:101A3000F001112408171907ACF080910901082E54
:101A4000000C990B801791076CF09F012D563C4FAD
:101A5000409191036091900380918F030E94480C04
:101A6000CF5FAACFED56FC4F1182108212821382F3
:101A7000F7CFBF92CF92DF92EF92FF920F931F9317
:101A8000CF93DF93FC018281EE24EA9480FD02C0B3
:101A9000EE24E394F12C80910A01F816C0F00E9424
:101AA0000C058091800291E0E91254C0811102C0BE
:101AB00080910A01815080938002DF91CF911F9124
:101AC0000F91FF90EF90DF90CF90BF900895C0915D
:101AD00081020F2D10E0C00FD12FD11DCC0FDD1FC3
:101AE000CC0FDD1FCD56DC4F198218821A821B8263
:101AF00024E0C22ED12CB12C809180028B0D80313C
:101B00001CF16FE00E94662F892F082E000C990BA4
:101B10000817190791F4809191038C9DA0018D9D68
:101B2000500D112455954795559547959E01609107
:101B3000900380918F030E94480CBE0CF1E0CF1AF5
:101B4000D108D1F6F394A7CF87FFDFCF90910A0198
:101B5000890FDBCF90E0019660910A0170E00E944E
:101B6000882FA9CFEF92FF921F93CF93DF93EC01C1
:101B700010E0EE24EA94F12C60910A01161770F03F
:101B80000E940C059A818C8190FF24C08F5F8C830A
:101B9000DF91CF911F91FF90EF90089520918102E6
:101BA000210F3327331F220F331F220F331F2D56D0
:101BB0003C4F70E0C7010E94882F962F8C81409186
:101BC000910360919003199F800D11240E94480C8D
:101BD0001F5FD2CF8150DBCF80918E03982F9E7FE5
:101BE00029F48170826080938E0308958A34E8F32B
:101BF00081708864F8CF88E090E00C94EB300F930C
:101C00001F93CF93DF938B01D82FC92F0E94EC0D28
:101C1000A8016D2F7C2F88E090E0DF91CF911F917C
:101C20000F910C940931CF93DF9300D000D0CDB742
:101C3000DEB7EEE8F3E083E0808311828FEF8283EA
:101C40008383148280819181A281B38189839A8365
:101C5000AB83BC83BC01CD010F900F900F900F9010
:101C6000DF91CF910C94FF0D80918E0380FF02C015
:101C70008695089580E00895CF93DF9300D000D03B
:101C8000CDB7DEB7EEE8F3E080818E7F8083808180
:101C90009181A281B38189839A83AB83BC83BC0188
:101CA000CD010E94FF0D10928A029FEFA0E7B2E0E3
:101CB0009150A040B040E1F700C000000F900F909D
:101CC0000F900F90DF91CF910C940C05EEE8F3E0AC
:101CD00080818E7F808310928A022FEF80E792E0CE
:101CE000215080409040E1F700C000000C940C05AA
:101CF000CF93DF9300D000D0CDB7DEB780919203B1
:101D0000833018F48F5F8093920380918E039091BB
:101D10008F03A0919003B091910389839A83AB8341
:101D2000BC83BC01CD010F900F900F900F90DF91FD
:101D3000CF910C94FF0DCF93DF9300D000D0CDB79F
:101D4000DEB780919203882319F08150809392032B
:101D500080918E0390918F03A0919003B091910395
:101D600089839A83AB83BC83BC01CD010F900F9014
:101D70000F900F90DF91CF910C94FF0D90918E03F7
:101D800090FF15C09091810220910B0134E0939F48
:101D9000F0011124ED56FC4F921710F00C940C0535
:101DA00081836083428313829F5F3496F5CF0895C9
:101DB000CF93DF9300D000D0CDB7DEB790918E03E4
:101DC00090FF0AC09E012F5F3F4F0E94480C4B813D
:101DD00069818A810E94BE0E0F900F900F900F9024
:101DE000DF91CF910895CF93DF93EC01EC81F0E088
:101DF000EE59FC4F4491EEE8F3E0628181810E944C
:101E0000D80E8C818F5F8C83DF91CF910895CF9313
:101E1000DF93EC01EEE8F3E0438162818C810E9464
:101E2000D80E8C818F5F8C83DF91CF910895AF9214
:101E3000BF92CF92DF92EF92FF920F931F93CF93B7
:101E4000DF93CDB7DEB728970FB6F894DEBF0FBE8D
:101E5000CDBF182FF62E042FE22E90918E0390FF07
:101E60002BC0E92FE695AE2FB0E0A150BE4F8C916C
:101E7000809389029E7F923081F59E012F5F3F4FB4
:101E8000812F0E94480C4B8169818A810E94BE0E7D
:101E900010938F03F092900300939103EE2061F072
:101EA00080918E0390918F03A0919003B091910344
:101EB000BC01CD010E94FF0D28960FB6F894DEBF3D
:101EC0000FBECDBFDF91CF911F910F91FF90EF908B
:101ED000DF90CF90BF90AF900895823019F40091B9
:101EE0009103D6CF863019F410918F03D1CF89306A
:101EF000D9F3893169F6E9518E2F8170D82EE69594
:101F0000F0E0EE59FB4FA590B490C12CBB2460913A
:101F10000A01C61618F00E940C05BACFEC2DF0E0AD
:101F2000CA9CC001CB9C900D112470E00E94742FBC
:101F3000812FD11012C0860F209181022E0F3F2FCA
:101F4000311D220F331F220F331F2D563C4F402FC0
:101F50006F2D0E94480CC394DACF861BEDCF282F3B
:101F6000EEE8F3E0818143816281845F0C94170F76
:101F700081E00C94AF0F282FEEE8F3E081814381DC
:101F800062818C500C94170F81E00C94BB0F282FAA
:101F9000EEE8F3E062813FEF630F08F46FEF4381F7
:101FA00081810C94170F81E00C94C70F282FEEE865
:101FB000F3E062813FEF631B08F460E043818181BD
:101FC0000C94170F81E00C94D60F282FEEE8F3E065
:101FD00043813CE0430F08F44FEF628181810C9410
:101FE000170F81E00C94E50F282FEEE8F3E0438112
:101FF0003CE0431B08F440E0628181810C94170FA0
:1020000081E00C94F40F20E00C94170F0F931F93B2
:10201000CF93DF9300D000D0CDB7DEB78C01809195
:102020007E0281110AC09E012F5F3F4F4FEF6FEF7D
:102030000E94480C8A8180937E02F801648161309D
:1020400049F06230F9F080917E0240E0662331F081
:1020500040E01AC060917E0240E080E00E94BE0E27
:10206000F801848190E0019663E070E00E94882F7F
:1020700084830F900F900F900F90DF91CF911F915D
:102080000F91089540917E0280E060E0E7CF60917B
:102090008E03669570E04BE050E08CE091E00E948A
:1020A000D630892B19F481E080938A020E94BA23EA
:1020B00090938302809382020895CF93DF9300D0A0
:1020C00000D0CDB7DEB790918E0390FF41C09170E4
:1020D000811134C0926090938E03662381F08091C9
:1020E0008E0390918F03A0919003B0919103898307
:1020F0009A83AB83BC83BC01CD010E94FF0D60912C
:102100008E03669570E04BE050E08CE091E00E9419
:10211000D630892BD1F010928A0281E0809385021B
:10212000409191036091900380918F030F900F90E5
:102130000F900F90DF91CF910C940310853210F027
:102140009864C9CF880F982BC6CF0E944710E5CF5F
:102150000F900F900F900F90DF91CF910895682FFF
:1021600080918E0386958F5F853208F081E00C9414
:102170005D1081E00C94AF10682F90918E039695BE
:102180008FEF890F913009F484E20C945D1081E0A7
:102190000C94BC1061E00C945D10EEE8F3E08081DB
:1021A0008160808386950C94CA1080918E0380FD97
:1021B0000C943C0E0C94CD1060E00C945D1080915A
:1021C000880281112EC00E94EE21811104C00E945C
:1021D00088220E94130E0E94FB0D60938E03709361
:1021E0008F0380939003909391036E7F61F40E941C
:1021F000130E0E94FB0D60938E0370938F038093E8
:102200009003909391030E94EC0D10928A028091AA
:102210008E0380FF03C086950E94DC1081E08093CE
:1022200088020895EEE8F3E08081816080838695DE
:102230000C94DC1010928A0208950F931F93CF9391
:10224000DF9380918A02882309F48DC080918902EE
:10225000E0918E03E695E81BE09384028230C9F595
:10226000F0E0E25AFC4FE491CE2FD0E003EF1EE005
:1022700080918502882389F0109285020E94BA23FA
:102280009E0120953095280F391F309383022093AB
:1022900082021092870210928602809182029091AF
:1022A00083020E94C6238C179D0708F45CC0E0914E
:1022B0008202F0918302CE0FDF1FD0938302C0937E
:1022C000820282E892E0F801DF91CF911F910F9195
:1022D0000994863049F4F0E0E55AFC4FE491CE2FA2
:1022E000D0E007E01FE0C4CF893051F4E695F0E07C
:1022F000E85AFC4FE491CE2FD0E002EB1DE0B8CFBE
:102300008F3051F4E695F0E0EB5AFC4FE491CE2F7C
:10231000D0E009E31DE0ACCF853149F4F0E0EE5A9E
:10232000FC4FE491CE2FD0E00CEC1CE0A1CFC8EE26
:10233000D3E004E91CE0883109F49ACF833239F400
:10234000E0E5F3E0C591D49106E010E191CFC4EF50
:10235000D1E008E51CE0843209F48ACFC0EDD7E073
:1023600007E41CE085CFDF91CF911F910F91089575
:10237000FA0181110994FB01FDCFCF93DF93C82FA0
:10238000D62F0E94340E8C1740F00E94340E8D1709
:1023900020F4DF91CF910C94B9108C2FDF91CF9165
:1023A0000C94CA100F931F93CF938C01FB01C28131
:1023B000CC2309F465C00E94EE208272F801E25C31
:1023C000FC45E431F10538F4E35DFE4C0C949C2FA0
:1023D0000E94D510C0E08C2FCF911F910F910895CE
:1023E00047EC50E169EB70E10E94B811F3CF49EB83
:1023F00050E167EC70E1F8CF44EC5FE068EB7FE020
:10240000F3CF48EB5FE064EC7FE0EECF42EE5FE0BD
:1024100063ED7FE0E9CF43ED5FE062EE7FE0E4CF84
:1024200040E050E161EF7FE0DFCF41EF5FE060E04F
:1024300070E1DACF4BE95EE068E77EE0D5CF48E7B0
:102440005EE06BE97EE0D0CF81E00E94CA10C2CF8F
:1024500065E082E00E94BD11BDCF68E086E0FACF62
:102460006EE089E0F7CF64E18FE0F4CF67E185E1CA
:10247000F1CF88E1EACF62E289E1ECCF83E2E5CFF8
:10248000C1E0A9CF0F931F93CF93DF93C62FD42F13
:10249000022FFC0182818823C9F060938D020E9483
:1024A000BA2390938C0280938B0280E28C0F883049
:1024B00008F050C0C77081E001C0880FCA95EAF7E4
:1024C000DF91CF911F910F910C943C1710918D02C9
:1024D000161335C080918B0290918C020E94C62306
:1024E000883C910560F5C0E2CD0F1D17B9F080E280
:1024F000810F883040F4177081E001C0880F1A9571
:10250000EAF70E944317C83048F481E09D2F977086
:1025100001C0880F9A95EAF70E943C17802F0E940D
:102520002917C830B8F4D77081E001C0880FDA9558
:10253000EAF7DF91CF911F910F910C94431780E23E
:102540008C0F883038F4C77081E001C0880FCA95BD
:10255000EAF7EFCFDF91CF911F910F9108959C0182
:10256000CB01233F4CE5340769F190F4283DFCE5AD
:102570003F0721F1293D4CE5340781F1273D3C45DA
:10258000B1F0FC018281882361F110928D020895DF
:10259000253FFCE53F07D1F0263F4CE53407D1F05D
:1025A000243F3C4571F727E245EE64EE03C026E286
:1025B00041EE61EE0E94421280E0089527E245EE6E
:1025C00065EEF8CF26E241EE60EEF4CF26E241EE72
:1025D00062EEF0CF27E245EE66EEECCF28E241E076
:1025E000EFCF81E00895CF93DF93EC01FB0182816F
:1025F000882309F4C9C0C631FCE5DF07E0F4C23026
:102600009CE5D907F0F00E9401229093D6038093B5
:10261000D503C631ECE5DE0720F5C230FCE5DF0767
:1026200098F48091D5039091D6030E940F220E94C6
:10263000751A80E006C09E012A5F3C4529303105AD
:1026400010F3DF91CF910895FE01E350FC45809196
:10265000D5038160E331F10588F4EF5BFE4C0C9407
:102660009C2FCA5FDC45C930D105D8F6CC5ADE4C68
:10267000FE010C949C2F8091D50382608093D5033A
:10268000D0CF8091D5038460F9CF8091D503886045
:10269000F5CF8091D60381608093D603C2CF80911D
:1026A000D6038260F9CF8091D5038061E7CF809116
:1026B000D5038062E3CF8091D5038064DFCF0E9491
:1026C000751A8091D5038068D9CF8091D5038C602D
:1026D000D5CF8091D6038360DFCF8091D5038E7FE5
:1026E000CDCF8091D5038D7FC9CF8091D5038B7FCE
:1026F000C5CF8091D503877FC1CF8091D6038E7FD0
:10270000CBCF8091D6038D7FC7CF8091D5038F7EAD
:10271000B5CF8091D5038F7DB1CF8091D5038F7BCD
:10272000ADCF0E94751A8091D5038F77A7CF809186
:10273000D503837FA3CF8091D6038C7FADCF8091CB
:10274000D50382FB992790F921E0922790FB82F92B
:1027500090FB83F993CF8091D603982F9095917039
:102760008E7F892B90FB81F997CF0E94751A9091EB
:10277000D503892F97FB87F9805880CF81E00E948D
:102780008A224FCF80E0FBCF81E05BCFCF93DF93F6
:10279000EB0186319C4511F50E94EE209A81992328
:1027A00099F08A7A91E009F490E090938E02811179
:1027B00009C089E20E94C9200E94402180E0DF9187
:1027C000CF91089585E3F6CF80918E02811104C0E8
:1027D00089E20E94D020F0CF85E3FBCF81E0EFCFEC
:1027E0001092B9008CE08093B8000895EF92FF92A8
:1027F0000F931F93CF93DF93182FEB011092BC0020
:1028000084EA8093BC000E94BA237C018091BC00C2
:1028100087FF27C08091B900887F883029F0809198
:10282000B900887F8031D9F51093BB0084E880938C
:10283000BC000E94BA238C018091BC0087FF24C099
:102840002091B900287F90E080E02831B1F081E04C
:1028500090E0203411F490E080E091958195910909
:102860000CC0CF3FDC0791F20E94BA238E199F095A
:102870008C179D0758F28EEF9FEFDF91CF911F913C
:102880000F91FF90EF900895CF3FDC07A9F20E94CF
:10289000BA23801B910B8C179D0770F2ECCF8FEF42
:1028A0009FEFEBCF0F931F93CF93DF93EB018093B9
:1028B000BB0084E88093BC000E94BA238C01809105
:1028C000BC0087FF11C02091B900287F81E090E013
:1028D000283211F490E080E0919581959109DF9183
:1028E000CF911F910F910895CF3FDC0741F30E94D4
:1028F000BA23801B910B8C179D0708F38EEF9FEF77
:10290000EECF0F931F93CF93DF93EC0184E8809376
:10291000BC000E94BA238C018091BC0087FF08C0D4
:102920008091BB0090E0DF91CF911F910F910895AE
:10293000CF3FDC0789F30E94BA23801B910B8C17D1
:102940009D0750F38EEF9FEFEECF84E98093BC009C
:10295000089590939402809393020895E0919302D6
:10296000F0919402309721F00190F081E02D0994CC
:1029700080E00895DC01E0919302F0919402309799
:1029800099F080912801882351F08091D50387FF29
:1029900006C08C9111968C93119785E08C930280E0
:1029A000F381E02DCD0109940895DC01E0919302BB
:1029B000F0919402309739F082E08C930480F58195
:1029C000E02DCD0109940895209191023091920259
:1029D0002817390771F09093920280939102E09149
:1029E0009302F0919402309721F00680F781E02D58
:1029F0000994089520918F02309190022817390789
:102A000071F09093900280938F02E0919302F09185
:102A10009402309721F00084F185E02D0994089507
:102A200085B7806885BF85B7806885BF089508959C
:102A300008950C94171508950C941B150E941015F9
:102A40000E9418150C94191581E008950E94B12375
:102A50000E943A040E9441240E94DF100C941C152D
:102A6000AF92BF92CF92DF92EF92FF920F931F939C
:102A7000CF93DF9300D000D00F92CDB7DEB70E9486
:102A800067040E942415882309F460C086E9A82EF3
:102A900082E0B82E10E000E0C02E802F0E94CC040F
:102AA000F82EF501D1905F01D81609F449C0809144
:102AB000510381FD0E94D20480E0EE24E394DF24E0
:102AC0009D2D9E21C1F18983CA82FE2081E009F4F7
:102AD00080E08B830E94BA238160782F9D838C8352
:102AE00049815A816B818D810E940216F801EA5654
:102AF000FD4F8081E826E0820E941D110E94E025A2
:102B00000E94AE1490919502891789F10E94AE142B
:102B1000809395020F900F900F900F900F90DF9180
:102B2000CF911F910F91FF90EF90DF90CF90BF90CA
:102B3000AF900C94AE078F5FEE0C863009F0C0CFDB
:102B40000F5F1F4F0E30110509F0A6CF8FEF89835D
:102B50008A831B820E94BA238160782F9D838C8395
:102B600049815A816B818D810E940216C5CF0F90D9
:102B70000F900F900F900F90DF91CF911F910F91B9
:102B8000FF90EF90DF90CF90BF90AF900895CF93DC
:102B9000DF93DC019C91692F70E021E030E0A90116
:102BA00002C0440F551F9A95E2F7CA0111964C9145
:102BB000119750E0EA01CC55DD4F288112963C91E7
:102BC00012973323C9F03091B4023323C1F096E059
:102BD000949FF001959FF00D1124E60FF71FEE0F63
:102BE000FF1FE75DFE4F408151814D935C93822B27
:102BF0008883DF91CF910895322F3823E6CF8095D7
:102C00008223F6CFCF93DF93CDB7DEB72B970FB6E6
:102C1000F894DEBF0FBECDBF4F83588769877A8790
:102C20008B878A859B85892B21F0CA0189238F3F59
:102C3000D9F41E8285E0FE013796DE0111960190DF
:102C40000D928A95E1F749815A816B817C818D8152
:102C50009E810E940E1D2B960FB6F894DEBF0FBE0C
:102C6000CDBFDF91CF910895CE0107960E94C71581
:102C7000E0CFFC01808191810E94932092959F700A
:102C8000963041F48091B40291E089278093B40298
:102C90009093B3020895CF93C82F882309F481C07D
:102CA0008238C1F40E94AE1481FD7BC089E30E948A
:102CB000C9200E9440212FEF31EE84E021503040A6
:102CC0008040E1F700C0000089E30E94D020CF914E
:102CD0000C9440218338A1F40E94AE1480FD61C0A1
:102CE00083E50E94C9200E9440219FEF21EE34E03D
:102CF000915020403040E1F700C0000083E5E5CF6F
:102D00008438A1F40E94AE1482FD4BC087E40E9477
:102D1000C9200E9440218FEF91EE24E08150904025
:102D20002040E1F700C0000087E4CFCF8CEF8C0F8C
:102D3000813A48F48C2F0E94EE27811132C08C2FEB
:102D40000E94C920C4CF80E28C0F883048F4C7703D
:102D500081E001C0880FCA95EAF70E94F120B7CF41
:102D60008BE58C0F833038F42C2F2452330BC901A0
:102D7000CF910C94E414E8E5EC0FE73150F4F0E067
:102D8000EE0FFF1FEC5DFD4F80819181CF910C9480
:102D9000FA14C03F30F08C2F0E94EE24CF910C9497
:102DA000D525CF910895882309F452C0823871F453
:102DB0000E94AE1481FF4CC089E30E94C9200E948A
:102DC000402189E30E94D0200C944021833859F49B
:102DD0000E94AE1480FF3CC083E50E94C9200E947F
:102DE000402183E5EFCF843859F40E94AE1482FF6E
:102DF0002FC087E40E94C9200E94402187E4E2CFCF
:102E00009CEF980F913AF0F290E2980F983050F4BE
:102E1000877091E001C0990F8A95EAF7892F0E9487
:102E2000F720D2CF9BE5980F933020F490E080E01C
:102E30000C94E41498E5980F973120F490E080E02A
:102E40000C94FA14803F20F00E9456250C94D5254E
:102E50000895CF93C82F0E944B16C93349F42FEF22
:102E600087EE93E0215080409040E1F700C00000E1
:102E70008C2FCF910C94D316882321F00E94F1203F
:102E80000C9440210895882321F00E94F7200C948F
:102E900040210895AF92BF92CF92DF92EF92FF92BE
:102EA0000F931F93CF93DF9300D000D00F92CDB735
:102EB000DEB76C016D837983FC01058102950F708B
:102EC000128111110E9413210E94E720E82E88230D
:102ED00071F01123B1F08D81805E883090F082E036
:102EE0000E948B210E94E72091E0E82EE926A9802C
:102EF000A2949FE0A922B12CF501E35AFE4C0C9458
:102F00009C2FE12CF4CF09810F70F981F07F11F033
:102F10000295007F1123B1F0002361F08D81805E66
:102F2000883018F02D81211109C0802F0E94F120D6
:102F30000E9440218D810E944B1615C0802F0E9457
:102F40000521F6CF8D810E94D316002361F08D817B
:102F5000805E883018F04D81411133C0802F0E946F
:102F6000F7200E944021F8E0AF1AB10824E0A21631
:102F7000B10420F40E94AE140E94AE07EE2009F4C2
:102F800056C20E94E32080FD52C2F60112820E94C6
:102F9000DD200E94E81EC6010E94271A0E94DD2043
:102FA0000F900F900F900F900F90DF91CF911F9186
:102FB0000F91FF90EF90DF90CF90BF90AF900C9467
:102FC000191F802F0E940B21CCCF59815F70F52EE5
:102FD0006981607F603219F0F29480EFF8227D8180
:102FE000772339F0713019F1112359F1002321F1C0
:102FF000A1CF112381F0011106C00E9427218F2942
:103000000E943C17B0CF0130C1F70E9427218F29C1
:103010000E942D21A8CF011106C00E9436218F2DBC
:103020000E944317A0CF013009F49DCFF6CF1123A2
:1030300029F0023008F097CF8F2DE2CF011193CF06
:10304000EECF002361F38D81893349F49FEFE7EEE2
:10305000F3E09150E040F040E1F700C000008D81C6
:103060000E94D31680CF898186958695837069F0FA
:10307000813009F078CF8D8199819370111102C050
:1030800090E080E00E94FA146ECF8D819981937058
:10309000111102C090E080E00E94E41464CF11237B
:1030A00011F12D81253F99F0263FB9F0243F49F4D5
:1030B0008091CF039091D00381609093D00380934F
:1030C000CF038D810E94EE240E94D5254CCF8091A4
:1030D000CF039091D0038260F0CF8091CF03909185
:1030E000D0038460EACF4D81453F89F0463FA9F087
:1030F000443F49F48091CF039091D0038E7F909309
:10310000D0038093CF038D810E945625DDCF80911F
:10311000CF039091D0038D7FF2CF8091CF03909118
:10312000D0038B7FECCF8981837009F050C01111DF
:103130001ACF4D81429546954770440F440F8D81BB
:103140008F7090E0B0E0A0E0042E04C0880F991FBB
:10315000AA1FBB1F0A94D2F75D8100E010E098011E
:1031600054FF0FC00FE010E020E030E004C0000F7B
:10317000111F221F331F4A95D2F7009510952095F5
:10318000309569816695669563706D83B901A80174
:10319000482B592B6A2B7B2B49835A836B837C8367
:1031A0005D8169817A818B819C81523051F05330ED
:1031B00059F0513019F00E945E1ED5CE0E94361E85
:1031C000D2CE0E94861ECFCE0E94341ECCCE8695D3
:1031D000112311F089818170882309F4C4CE4D81B7
:1031E000429546954770440F440F8D818F7090E053
:1031F000B0E0A0E0042E04C0880F991FAA1FBB1FD7
:103200000A94D2F76D8100E010E0980164FF0FC0CE
:103210000FE010E020E030E004C0000F111F221F7B
:10322000331F4A95D2F700951095209530957981F6
:103230007695769573707D83B901A801482B592B3B
:103240006A2B7B2B49835A836B837C835D816981E5
:103250007A818B819C81523051F0533059F051303A
:1032600019F00E94A71F7FCE0E947F1F7CCE0E9474
:10327000CF1F79CE0E94B21E76CE69816F706983AE
:10328000112329F0862F0E94E81E8D81B9CE8D81F1
:103290000E94431789810E94191F65CE7D81723F6C
:1032A00099F160F4703FE1F0713F39F1112309F4B5
:1032B00044C001113FCE89818F7123C08D81833F2E
:1032C00041F1843F99F7112371F199819F7199839D
:1032D000892F0E94E81E63E089810E94762143CEF7
:1032E000112339F001113FCE89818F710E944E1F49
:1032F0003ACE023008F037CEF7CF89818F71112393
:1033000051F20E94E81E2FCE89818F711123C9F3DB
:10331000C2CF112329F089818F710E94C31E23CE51
:103320000E94BE1E20CE81E00E948B21023008F454
:103330001ACE82E00E948B2116CE002361F0ED812F
:10334000E93309F08CCEFFEF27EE43E0F150204047
:103350004040E1F782CE89818F719DCF49814F70C6
:103360006D81C6010E948B060E94A81DFCCD5D8167
:10337000533F71F1D8F4513FD9F1523F59F1503FC9
:10338000F1F08091B302002309F446C0882341F094
:103390008091B40291E089278093B4021092B30225
:1033A0008D81112389F10E944B1616C06D81643FF7
:1033B000D1F0653F31F711110FC081E006C0112334
:1033C00059F08091B40291E089278093B40204C03F
:1033D00081E018271093B40249814F706D81C601B6
:1033E0000E940D08C0CD1111F7CF1092B402F4CF96
:1033F000112339F08091B302882319F31092B3029C
:10340000EBCF0023F1F2E8CF0E94D31686E0F6015D
:1034100011928A95E9F7E0CF8823F1F21111DCCF00
:103420008091B40291E089278093B402E7CF0F9096
:103430000F900F900F900F90DF91CF911F910F91F0
:10344000FF90EF90DF90CF90BF90AF9008950F93D3
:103450001F93CF93DF93EC018B819C81892B29F003
:103460008881998189238F3F29F4DF91CF911F9122
:103470000F910895CE010E94C6078823B1F3688199
:1034800079818A810E949F208C010E94F71F0E94EF
:10349000331EB801CE01DF91CF911F910F910C9493
:1034A0004A17882321F00E9405210C944021089599
:1034B000882321F00E940B210C94402108950E9442
:1034C00013210E9424210E9440210E9477260E94FD
:1034D000D52590E080E00E94E41490E080E00C9418
:1034E000FA140E94D7200C945F1A0E9402210C94B7
:1034F000711A282F892F82958F70903C80F48A3022
:10350000B0F4843020F4823090F480E00895863066
:10351000E1F781E0283E88F0213FB9F70EC08C30FA
:1035200011F08F3091F793FB882780F9089581E09F
:10353000203F39F018F4283E40F70895243F29F73A
:10354000FCCF08950E9493200C94791ACF93DF93B7
:1035500000D000D00F92CDB7DEB70F900F900F9034
:103560000F900F90DF91CF910895CF93DF9300D00C
:1035700000D000D0CDB7DEB726960FB6F894DEBFE8
:103580000FBECDBFDF91CF9108951F93CF93DF93EF
:10359000E091B50216E08091B6028E1304C0DF916F
:1035A000CF911F910895CE2FD0E01E9FF0011124DE
:1035B000E954FD4F408151816281738184819581FD
:1035C0000E94B51AFE013196E770E5CF4091E702FF
:1035D0005091E8026091E9027091EA028091EB0259
:1035E0009091EC020C94B51A1F93CF93DF938091C6
:1035F000EC02807FC1F48091E9028823A1F08091E0
:10360000B502C091B6026091E7027091E802409164
:10361000EA025091EB02D62FD723DA01A095B0959C
:1036200016E0C81304C0DF91CF911F91089590E078
:103630004115510511F0DF3F31F401968770F1CF4C
:103640002A0F3B1F17C0189FF001199FF00D11247E
:10365000E954FD4F21812713F0CF20812613EDCFB0
:1036600022812111EACF238134812417350740F3C9
:10367000241B350B283C310500F72091EC022F70FC
:1036800020612093EC0226E0289FF001299FF00D95
:103690001124E454FD4F80818F708061808387EE18
:1036A00092E00E94271ADF91CF911F910C94C51AC6
:1036B0009F92AF92BF92CF92DF92EF92FF920F93C1
:1036C0001F93CF93DF93CDB7DEB72B970FB6F89448
:1036D000DEBF0FBECDBF8C0185E0F801DE0117967D
:1036E00001900D928A95E1F7D8014C9111965C9169
:1036F00011971296EC9012978091EA029091EB024A
:10370000009709F46CC12091E7023091E802632F21
:1037100062236F3F09F463C11396CD90DC909090C3
:10372000E902992009F4FAC0C816D90608F43FC086
:10373000F601E81BF90BCF01FF24F394883C9105B7
:1037400008F0F12C87EEA82E82E0B82E8091EC02D2
:10375000982F907FFF2009F4B9C0911180C0FE2CF2
:1037600035132AC0241328C0E11026C08F70806151
:103770008093EC020E94E61AC5010E94271A8091EC
:10378000EC02D80115968C938F2D2B960FB6F894DA
:10379000DEBF0FBECDBFDF91CF911F910F91FF9084
:1037A000EF90DF90CF90BF90AF909F90089580955D
:1037B00090958C0D9D1DC0CFCD2829F0842F852399
:1037C0008F3F09F028C180E0B82FB170DB2EE09167
:1037D000B5022091B60236E080FD1CC0EE20A1F2B9
:1037E0008091EC0281608093EC02F12CCDCF8E2F82
:1037F00090E03E9FF0011124E954FD4F6181651373
:1038000006C06081641303C062816E11E7CFFC01C2
:103810003196E770E213EBCF4F8358878F819885FD
:103820000E949320292F22952F70903260F0225F02
:103830002F70223078F49F7051F0F8019581907FBD
:1038400031F4D12C0AC09F7011F08823D1F3805E2F
:103850008830B8F3C8010E94271AFD2C95CF351384
:1038600006C0241304C0D801EE2009F47CC04F83A5
:1038700058878F8198850E94A21A882319F1EE201B
:1038800009F18091EC02803270F02091E7023091D2
:10389000E8023A8329831B82DD82CC828E83CE01AB
:1038A00001960E94271A86E0F801A7EEB2E0019087
:1038B0000D928A95E1F70E94F41A0E94E61AFF24FD
:1038C000F39462CFC8010E94271AF9CF911113C057
:1038D0007C2DDB86CA866E2D8B850E94A61A87EE0C
:1038E00092E00E94271A86E0F50111928A95E9F785
:1038F0000E94E61A49CF3513BACF2413B8CFE1108E
:10390000B6CFD80115968C93C8010E94271A86E07D
:10391000F50111928A95E9F7F92C36CFC816D90628
:1039200080F1B601681B790BCB01F12C883C910525
:1039300008F046C0FE2CEE2029F2351330C02413C7
:103940002EC08091EC0280FD21C0982F907FF1F075
:10395000D80115968C931597903F39F0982F907F4A
:10396000905F8F70892B15968C93C8010E94271A3F
:1039700086E0F801A7EEB2E001900D928A95E1F79A
:10398000B7CF809590958C0D9D1DCFCF86E0F80127
:10399000A7EEB2E001900D928A95E1F7F5CE4F8344
:1039A00058878F8198850E94A21A81117CCF8091BF
:1039B000EC0281608093EC02C8010E94271AE4CED9
:1039C0007C2DDB86CA866E2D8B850E94A61A86E02A
:1039D000E7EEF2E0DF011D928A95E9F789CFEE204C
:1039E00009F470CF4F8358878F8198850E94A21A5F
:1039F000F82E882309F466CF86E0F801A7EEB2E03E
:103A000001900D928A95E1F787EE92E00E943916B7
:103A10000E94F41A6DCF81E08E25D6CE1F93CF93EE
:103A2000DF93CDB7DEB72C970FB6F894DEBF0FBE8D
:103A3000CDBF4F83588769877A878B879C87CE0154
:103A400007960E94581B882369F08A859B85892BDD
:103A500039F04F815885842F85238F3F09F071C03D
:103A600016E05FC086E0FE013796DE0111960190F8
:103A70000D928A95E1F78A859B85892B89F3888544
:103A80009F8189238F3F61F32091B60230E0C90105
:103A90000196877099274091B5024817190671F46D
:103AA0000E94751A1092B6021092B50286E0E7EEF7
:103AB000F2E0DF011D928A95E9F7D2CF96E0929F5E
:103AC000D001939FB00D1124A954BD4FFE01319632
:103AD00001900D929A95E1F78093B6020E94C51A63
:103AE000BFCF819FC001112489549D4F0E94581B54
:103AF0008823E9F0E091B5021E9FF0011124E954FA
:103B0000FD4F4081518162817381848195810E9442
:103B1000B51A8091B50290E001968770992780933D
:103B2000B5028091B5029091B6028913DACF2C9636
:103B30000FB6F894DEBF0FBECDBFDF91CF911F91BE
:103B4000089569857A858B859C850E94B51A88CFF2
:103B5000EF92FF920F931F93CF93DF938C01892BEA
:103B600089F0F12CEE24E394E8012196F801849188
:103B7000843709F457C0A0F4823009F43EC048F4F9
:103B80008130D1F0DF91CF911F910F91FF90EF9095
:103B900008959CEF980F9037A8F70E944B160AC023
:103BA000853709F44CC09CE7980F903758F78F770A
:103BB0000E94D3168E0116C00E5F1F4FFE01849126
:103BC00090E2980F983060F48770FE2D01C0FF0FCF
:103BD0008A95EAF78F2F0E9416210E94402102C089
:103BE0000E944B168F2D815008F4BECFEFE9FFE005
:103BF0003197F1F700C00000F6CF0E5F1F4FFE01B6
:103C0000849190E2980F983050F48770FE2D01C097
:103C1000FF0F8A95EAF78F2F0E941C21DECF0E94AA
:103C2000D316E0CF0E5F1F4FFE01C491C150D0F2FA
:103C30008FE99FE00197F1F700C00000F7CF0E5F1A
:103C40001F4FFE01F490CECF08950C94241E0E94C5
:103C5000251E609328037093290380932A03909371
:103C60002B030C945F1A08950C94271ECF93DF93B7
:103C700000D000D0CDB7DEB769837A838B839C8375
:103C80008091280390912903A0912A03B0912B03DE
:103C900029813A814B815C81282B392B4A2B5B2B64
:103CA00029833A834B835C83CA01B9010F900F903B
:103CB0000F900F90DF91CF910C94271ECF93DF933D
:103CC00000D000D0CDB7DEB769837A838B839C8325
:103CD0008091280390912903A0912A03B0912B038E
:103CE00029813A814B815C81282339234A235B2334
:103CF00029833A834B835C83CA01B9010F900F90EB
:103D00000F900F90DF91CF910C94271ECF93DF93EC
:103D100000D000D0CDB7DEB769837A838B839C83D4
:103D20008091280390912903A0912A03B0912B033D
:103D300029813A814B815C81282739274A275B27D3
:103D400029833A834B835C83CA01B9010F900F909A
:103D50000F900F90DF91CF910C94271E0C94241E8E
:103D60000C94AE1E0E94B01E609324037093250332
:103D700080932603909327030C945F1A60E070E011
:103D8000CB010C94B21E0F931F93CF93DF9300D0FF
:103D900000D0CDB7DEB741E050E060E070E08A01CE
:103DA0009B0104C0000F111F221F331F8A95D2F7F9
:103DB00009831A832B833C83C901B8010F900F90AC
:103DC0000F900F90DF91CF911F910F910C94B21E25
:103DD0000F931F93CF93DF9300D000D0CDB7DEB702
:103DE00041E050E060E070E004C0440F551F661FE2
:103DF000771F8A95D2F78091240390912503A09193
:103E00002603B09127038A019B01082B192B2A2B2B
:103E10003B2B09831A832B833C83C901B8010F9084
:103E20000F900F900F90DF91CF911F910F910C94F5
:103E3000B21E0F931F93CF93DF9300D000D0CDB766
:103E4000DEB741E050E060E070E004C0440F551F71
:103E5000661F771F8A95D2F74095509560957095AB
:103E60008091240390912503A0912603B09127030C
:103E70008A019B01082319232A233B2309831A83E0
:103E80002B833C83C901B8010F900F900F900F90C6
:103E9000DF91CF911F910F910C94B21E0F931F933E
:103EA000CF93DF9300D000D0CDB7DEB741E050E034
:103EB00060E070E004C0440F551F661F771F8A95AD
:103EC000D2F78091240390912503A0912603B0910D
:103ED00027038A019B01082719272A273B270983E3
:103EE0001A832B833C83C901B8010F900F900F9068
:103EF0000F90DF91CF911F910F910C94B21ECF9331
:103F0000DF9300D000D0CDB7DEB769837A838B838F
:103F10009C838091240390912503A0912603B09166
:103F2000270329813A814B815C81282B392B4A2B2D
:103F30005B2B29833A834B835C83CA01B9010F90C1
:103F40000F900F900F90DF91CF910C94B21ECF93F2
:103F5000DF9300D000D0CDB7DEB769837A838B833F
:103F60009C838091240390912503A0912603B09116
:103F7000270329813A814B815C81282339234A23F5
:103F80005B2329833A834B835C83CA01B9010F9079
:103F90000F900F900F90DF91CF910C94B21ECF93A2
:103FA000DF9300D000D0CDB7DEB769837A838B83EF
:103FB0009C838091240390912503A0912603B091C6
:103FC000270329813A814B815C81282739274A2799
:103FD0005B2729833A834B835C83CA01B9010F9025
:103FE0000F900F900F90DF91CF910C94B21E089517
:103FF000292F220FE22FE90FEE0FE80F8E2F877087
:1040000041E001C0440F8A95EAF7E695E695E6950A
:1040100085E0E89FF0011124E351FD4F30E020E0FE
:1040200070E05191DF011197CB01022E02C09695ED
:1040300087950A94E2F781708195852784238527E7
:104040008C932F5F3F4F2530310559F70895292F65
:10405000220FE22FE90FEE0FE80F9E2F9770E695E3
:10406000E695E69585E0E89FF0011124E351FD4FC8
:1040700050E040E080E0219130E0092E02C036950A
:1040800027950A94E2F721703327042E01C0220FEE
:104090000A94EAF7822B4F5F5F4F4530510559F77D
:1040A0000895BF92CF92DF92EF92FF920F931F93EA
:1040B000CF93DF938C01C0902403D0902503E09030
:1040C0002603F09027038091280390912903A09163
:1040D0002A03B0912B03C82AD92AEA2AFB2ACFE166
:1040E000D0E0BC2ED701C6010C2E04C0B695A79512
:1040F000979587950A94D2F780FD0EC0219788F78F
:10410000B12C8B2DDF91CF911F910F91FF90EF90EC
:10411000DF90CF90BF900895B8018C2F0E942A089D
:10412000019761F3EECFCF93DF93D82FC92F0E9471
:1041300051206D2F7C2FDF91CF910C942A081F9373
:10414000CF93DF93162FD72F9091B202992339F096
:10415000862F972FDF91CF911F910C949320882366
:1041600091F0862F972F0E945120C82F682F812F02
:104170009D2F0E94F81F612F7D2F8C2FDF91CF91F3
:104180001F910C942A08862F972F0E942720C82F52
:10419000F2CF682F80911701909118010C94F522AD
:1041A000682F80911701909118010C940023809141
:1041B0001701909118010C940B2380912C03859585
:1041C00085958595089580912C0387700895909129
:1041D0002C03977081E009F480E0089580915003EA
:1041E000089590915003982B909350030895982F21
:1041F0009095809150038923809350030895809374
:104200005003089510925003089590914F03982BF6
:1042100090934F030895982F909580914F03892391
:1042200080934F03089510924F03089590914E0389
:10423000982B90934E030895982F909580914E035C
:10424000892380934E03089510924E030895809120
:104250002D03089508950C942A2190912D03981709
:1042600021F080932D030C942B21089580912D0330
:10427000882329F010922D0380E00C942B210895BF
:10428000E0911701F0911801809150038083E09133
:104290001701F0911801808190914F03892B808341
:1042A000E0911701F0911801808190914E03892BC4
:1042B000808390912D03992381F0E0911701F09173
:1042C00018018081892B80838091170190911801BA
:1042D0000E948F2281110E943621809117019091B6
:1042E00018010C94BA1408950C94732198E0899FD6
:1042F00090011124622B60932C030E94E81E809190
:104300002C038595859585950C94742110922C032A
:1043100080E00C94742190912C03809589238093E4
:104320002C03282F277071F4282F082E000C330B34
:104330009217130639F08595859585950E94191F6A
:104340000C94862108950F931F93462F572FBC017D
:10435000CB01AA27BB270097A105B105E9F1AC0164
:10436000BD0180E1052F162F272F332701151105D9
:104370002105310519F0885FB901A8018A019B0167
:10438000F4E03695279517950795FA95D1F701151D
:1043900011052105310519F08C5FB901A8018A01C9
:1043A0009B01E2E03695279517950795EA95D1F799
:1043B000011511052105310519F08E5FB901A8011C
:1043C0007695679557954795452B462B472B09F0D2
:1043D0008F5F1F910F91089580E0C4CF90E080E03F
:1043E0000E94F1309C0181E02C3E3E4F09F080E0BC
:1043F000089582E090E00C94E33083E090E00C9428
:10440000E330CF9384E090E00E94E330C82F81E254
:1044100090E00E94E330982F8C2FCF910895CF9396
:10442000682FC92F84E090E00E94F7306C2F81E262
:1044300090E0CF910C94F7308FE090E00C94EB304B
:10444000AB01BC018FE090E00C940931AB01BC01E1
:1044500083E190E00C94093160E070E0CB010C94B2
:1044600026226CEE7EEF90E080E00E94153160E045
:1044700082E090E00E94F73060E083E090E00E94EC
:10448000F730109228031092290310922A031092F9
:104490002B0360E084E090E00E94F73060E081E26E
:1044A00090E00E94F73060E085E090E00E94F730F5
:1044B00060E086E090E00E94F7306FEF87E090E0E8
:1044C0000E94F73040E050E0BA0188E090E00E949E
:1044D000093160E08DE090E00E94F73040E050E06C
:1044E000BA0188E190E00E94093160E087E190E044
:1044F0000E94F73040E050E0BA018CE190E00E9469
:10450000093160E080E290E00E94F7300C9461068F
:104510000C943122682F8EE090E00C94F730FC016F
:10452000329680912801882321F08091D5039EE165
:1045300087FF96E080E0915008F4089521912223AE
:10454000D1F38F5FF8CF9C01FC0132968FEF90E0A2
:104550004191461751F08F3F19F4411101C0892F45
:104560009F5F9630A9F78F3F09F40895280F311DFA
:1045700087FD3A95F901628308959C01FC0132960A
:10458000285F3F4F8191861303C0DF0111971C9272
:10459000E217F307B9F70895E62FE695E695E69555
:1045A000603F68F4E80FF92FF11D677021E030E0FB
:1045B00001C0220F6A95EAF78281822B82830895D7
:1045C000E62FE695E695E695603F70F4E80FF92F43
:1045D000F11D677081E090E001C0880F6A95EAF7ED
:1045E0008095928189238283089520912801222336
:1045F00029F02091D50327FD0C94CC220C94A32202
:1046000020912801222329F02091D50327FD0C9425
:10461000E0220C94BD22FC0132968091280188236F
:1046200051F08091D50387FF06C08EE1DF011D9216
:104630008A95E9F7089586E0F9CF08950C941D2333
:104640000E941E238091DB03843009F439C010924C
:10465000520388E190E020E40FB6F894A895809387
:1046600060000FBE2093600080E00E94AE070E94B1
:104670001A118091530381110AC081E08093530382
:1046800080918E038170809354030E94660E0E9475
:104690001E2383B7817F846083BF83B7816083BF1C
:1046A0007894889583B78E7F83BF0FB6F894A895CA
:1046B00080916000886180936000109260000FBE5E
:1046C00008950895CF930E9454040E9467040E94A5
:1046D0006123C0E08C2F0E94CC04811105C0CF5F04
:1046E000CE30C1F7CF91089581E0FCCF08950C94AE
:1046F00076230E94751A0E94AE140E94AE07109293
:1047000053038091540381110E9412110E9447109B
:104710000C9477231F921FB61F9211248F939F939F
:10472000AF93BF9380915203811113C08091D10345
:104730009091D203A091D303B091D4034196A11DCF
:10474000B11D8093D1039093D203A093D303B09370
:10475000D403BF91AF919F918F911F901FBE1F9067
:10476000189582E084BD93E095BD9AEF97BD809344
:104770006E0008952FB7F8948091D1039091D203E1
:10478000A091D303B091D4032FBF0895CF92DF92AD
:10479000EF92FF929C014FB7F8948091D1039091D2
:1047A000D203A091D303B091D4034FBF6C017D011C
:1047B000EE24FF24A90170E060E0C416D506E606E9
:1047C000F70638F0821B930BFF90EF90DF90CF90AD
:1047D00008950197F7CF78941F921FB61F92112466
:1047E0008F939F93AF93BF938091D1039091D20306
:1047F000A091D303B091D4030196A11DB11D809364
:10480000D1039093D203A093D303B093D403BF9169
:10481000AF919F918F911F901FBE1F901895F89494
:1048200081E08093E00080E28093D800E9ECF0E042
:1048300010828FE19EE40197F1F700C000001DBADD
:10484000109268001CBC10BE1FBA10927A00109221
:104850006E0010926F001092710010927200108220
:10486000ECEBF0E0108214B817B81AB81DB810BA03
:10487000108215B818B81BB81EB811BA0C94003FB6
:104880000895CF93DF9300D000D0CDB7DEB70E945C
:10489000EE21811102C00E9488220E94F92180939A
:1048A00051030E9401229093D6038093D5030E9466
:1048B000FD21282F30E050E040E029833A834B83EC
:1048C0005C83CA01B9010F900F900F900F90DF9198
:1048D000CF910C94341E8091590380FF12C06091D7
:1048E0001C0185E0689FB001112475956795759549
:1048F000679560387105A8F561157105A1F1862FDE
:10490000089581FF09C060911C0185E0689FB00196
:10491000112475956795EDCF60911C0182FD0AC049
:10492000809158038823D1F090911B0160911C0164
:10493000891728F085E0689FB0011124DACF869F9F
:10494000B001112485E0869F9001879F300D1124CE
:10495000692F70E0C9010E94882FCBCF65E070E01D
:10496000CECF8FE7089581E008958091590380FFAD
:104970000CC060911A0170E0759567957595679503
:104980006115710549F1862F089581FF06C0609178
:104990001A0170E075956795F3CF60911A0182FD59
:1049A0000BC0909158039923A1F060911901809157
:1049B0001A01961738F0682F70E06038710500F31F
:1049C0008FE70895899FC001112470E00E94882F0D
:1049D000F4CF61E070E0D7CF81E00895803F31F4FB
:1049E0000E946B24819580935D030895813F19F4A3
:1049F0000E946B24F8CF823F31F40E946B24819592
:104A000080935C030895833F19F40E946B24F8CFD0
:104A1000893F29F40E94B52480935E0308958A3F5C
:104A200021F40E94B5248195F7CF8B3F31F40E9489
:104A3000B524819580935F0308958C3F19F40E94FB
:104A4000B524F8CF843F31F480915B03816080937B
:104A50005B030895853F21F480915B038260F7CF6B
:104A6000863F21F480915B038460F1CF873F21F47E
:104A700080915B038860EBCF883F21F480915B03DA
:104A80008061E5CF8D3F31F480915903816080933F
:104A9000590308958E3F21F4809159038260F7CF26
:104AA0008F3FB9F7809159038460F1CF90915C03F7
:104AB000803F41F480915D0387FD10925D0399234F
:104AC00071F00895813F29F480915D031816ACF3CD
:104AD000F6CF823F81F497FFF2CF10925C03809172
:104AE0005D0390915E03892B90915F03892B49F7B9
:104AF000109258030895833F19F4191674F3DFCF09
:104B0000893F39F480915E031816CCF610925E034B
:104B1000D6CF8A3F29F480915E0387FFD0CFF6CFAE
:104B20008B3F39F480915F0387FFC9CF10925F03F9
:104B3000C6CF8C3F29F480915F031816BCF3BFCF1A
:104B4000843F31F480915B038E7F80935B03B7CF0A
:104B5000853F21F480915B038D7FF7CF863F21F461
:104B600080915B038B7FF1CF873F21F480915B03C2
:104B7000877FEBCF883F21F480915B038F7EE5CF69
:104B80008D3F31F4809159038E7F8093590397CFE5
:104B90008E3F21F4809159038D7FF7CF8F3F09F02D
:104BA0008ECF809159038B7FF0CF8AE593E00E94EE
:104BB000D5140E94BA239093570380935603089507
:104BC0001F93CF93DF9380915603909157030E94D8
:104BD000C623AC018091580320911D0130E0811162
:104BE00006C0209155039AE0299F90011124421795
:104BF000530778F020915C03C0915D0310915E0330
:104C0000D0915F03211109C09C2F912B9D2B09F09E
:104C10006AC0DF91CF911F9108958F3F19F08F5F88
:104C200080935803121624F40E946B2480935C0333
:104C300080915C0387FF05C00E946B24819580935F
:104C40005C031C1624F40E946B2480935D03809106
:104C50005D0387FF05C00E946B24819580935D03EF
:104C600030915C033323A1F020915D03222381F076
:104C700045EB3403C0011124992369F190935C033F
:104C800045EB240390011124332349F130935D0354
:104C9000111624F40E94B52480935E0380915E0374
:104CA00087FF05C00E94B524819580935E031D1681
:104CB00024F40E94B52480935F0380915F0387FFF3
:104CC00005C00E94B524819580935F03DF91CF9149
:104CD0001F910C94D52581E080935C03D1CF81E0B6
:104CE00080935D03D5CF8F3F09F099CFAACF86E09F
:104CF000EAE5F3E0DF011D928A95E9F71092580387
:104D0000109259030895843009F442C038F4823077
:104D1000E9F0833061F1813041F00895853009F484
:104D200048C0863009F456C0089580915503482F35
:104D3000460F5527551F4F3F510524F4680F6093C8
:104D4000550308958FEF80935503089580911D01B9
:104D5000482F460F5527551F4F3F510524F4680F24
:104D600060931D0108958FEF80931D010895809138
:104D70001C01482F460F5527551F4F3F510524F45E
:104D8000680F60931C0108958FEF80931C010895B4
:104D900080911B01482F460F5527551F4F3F510546
:104DA00024F4680F60931B0108958FEF80931B011B
:104DB000089580911A01482F460F5527551F4F3FE0
:104DC000510524F4680F60931A0108958FEF8093C2
:104DD0001A01089580911901482F460F5527551F34
:104DE0004F3F510524F4680F6093190108958FEF28
:104DF000809319010895843071F138F48230A9F05C
:104E00008330F1F0813031F00895853079F18630CA
:104E1000C1F1089580915503681720F4861B809393
:104E20005503089510925503089580911D01681748
:104E300020F4861B80931D01089510921D01089592
:104E400080911C01681720F4861B80931C01089533
:104E500010921C01089580911B01681720F4861B95
:104E600080931B01089510921B01089580911A01EF
:104E7000681720F4861B80931A01089510921A0176
:104E8000089580911901681720F4861B80931901F9
:104E900008951092190108950F931F93CF93DF93F4
:104EA00000D000D0CDB7DEB741E050E060E070E068
:104EB0008A019B0104C0000F111F221F331F8A9516
:104EC000D2F709831A832B833C83C901B8010E945E
:104ED000341E0F900F900F900F90DF91CF911F9184
:104EE0000F910C94751AEBEFE80FEF3308F065C0E3
:104EF000F0E0E359FE4C0C949C2F0E94882281E044
:104F0000089580915103807F8093510381E08093C5
:104F1000610308950E94751A2FEF83ED90E32150ED
:104F200080409040E1F700C000000E940F24E7CFCE
:104F300090915103892F8E7F90FF81608093510360
:104F400080FDDDCF817F80935103D9CF90915103B4
:104F5000892F8D7F91FF82608093510381FFCFCF96
:104F6000809151038160EFCF90915103892F8B7F06
:104F700092FF84608093510382FDF2CFC0CF909165
:104F80005103892F877F93FF88608093510383FDAE
:104F9000E7CFB5CF0E94751A9091D503892F97FB63
:104FA00087F980588093D503AACF80E00E944C27D0
:104FB000A6CF8953FBCF8D51F9CF80E0089580E0D3
:104FC00008950C94DF278E518A3030F4E82FF0E0FA
:104FD000EE5AFD4F8081089580E00895CF93C82F49
:104FE000809161038130C9F08230E9F1811181C083
:104FF0000E94EE20813159F48C2F0E94DF2781110D
:1050000025C08C2F0E9473278170CF9108950E9434
:10501000EE20823289F380E0F8CF0E94EE208131C9
:1050200059F30E94EE20823239F38C2F0E94E1273F
:1050300081110AC0C431A1F060F4CB3029F0C03135
:1050400019F782E08093610381E0DECF81E090E098
:10505000DBCFC93229F081E0C833B1F280E0D4CF90
:1050600010926103FBCFCB3469F198F4C43240F461
:10507000CE3100F5C73061F1C43121F081E0C5CFF8
:10508000C932E1F780916003882381F010926003B8
:10509000F5CFC135A9F061E0C235A9F06AE0CE34A0
:1050A00069F7809160030E94FB26E8CF81E080933E
:1050B0006103ABCF8C2F0E94E32780936003DECF88
:1050C00061E0EFCF6AE0809160030E948326D6CF33
:1050D0001092550384E180931D01C0931C018CE361
:1050E00080931B0188E080931A0188E28093190164
:1050F000C5CF109261038FCF809182030895CF9323
:10510000DF9300D00F92CDB7DEB79091DB039430E0
:1051100019F589836A837B8382E08093E9008FEFAE
:105120009091E800815095FD06C095ED9A95F1F7B4
:1051300000008111F5CF8091E80085FF0DC050E09F
:1051400040E063E070E0CE0101960E94DE2A80918B
:10515000E8008E778093E8000F900F900F90DF911A
:10516000CF910895CF93DF93D82FC92F0E94C12AE2
:10517000823011F0843039F46D2F7C2F84E0DF9180
:10518000CF910C947F28DF91CF910895BC01605896
:10519000710983E00C947F28CF93DF93D82FC92F18
:1051A0000E94C12A823011F0843001F582E08093A0
:1051B000E9008FEF9091E800815095FD06C095EDD4
:1051C0009A95F1F700008111F5CF8091E80085FFF5
:1051D0000DC050E040E066E070E08D2F9C2F0E94F3
:1051E000DE2A8091E8008E778093E800DF91CF91EE
:1051F0000895CF93DF93D82FC92F0E94C12A823000
:1052000011F08430C9F5809128018823C1F1809183
:10521000D50387FF34C060E282E08093E9008FEF1E
:105220009091E800815095FD06C095ED9A95F1F7B3
:1052300000008111F5CF8091E80085FF1DC08091AD
:10524000280170E050E040E0811104C050E040E0EF
:1052500068E070E08D2F9C2F0E94DE2A8091E8008C
:105260008E778093E80080E2ED2FFC2FA2E6B3E07A
:1052700001900D928A95E1F7DF91CF91089568E052
:1052800081E0CBCF8091DA03811109C00E94662CA6
:105290000E94C32C8091E20084608093E200089514
:1052A0001092DA030895089508950C94792342E04A
:1052B00061EC81E00E94E22B42E261EC82E00C941E
:1052C000E22B8091DD03893089F148F4823009F4C2
:1052D0009DC0833009F458C0813041F008958A3070
:1052E00009F484C08B3009F46AC008958091DC030E
:1052F000813A09F048C08091E800877F8093E800F8
:105300008091E0039091E103892B61F460E282E6F1
:1053100093E070E00E942D2B8091E8008B778093C2
:10532000E800089560E090E080E0F3CF8091DC0336
:10533000813249F58091E0039091E103029718F5DD
:105340008091E800877F8093E8008091E80082FFE9
:1053500016C09091F3008091F200029729F4809199
:10536000F1008B7F813021F48091F10080938203E2
:105370008091E8008B778093E8000C94162C809144
:10538000DB038111E2CF08958091DC03813AD9F7E4
:105390008091E0039091E103892BA9F78091E800C7
:1053A000877F8093E8008091E80080FFFCCF8091A8
:1053B00028018093F1008091E8008E77DCCF809106
:1053C000DC03813201F78091E0039091E103892BA6
:1053D000D1F68091E800877F8093E8000E94162C28
:1053E0008091DE03809328010C94751A8091DC0370
:1053F000813249F68091E800877F8093E8000E941F
:10540000162C8091DF038093830308958091DC0341
:10541000813A09F0B8CF8091E800877F8093E80057
:105420008091E80080FFFCCF80918303C2CF84B7D6
:10543000877F84BF0FB6F894A8958091600088613B
:1054400080936000109260000FBE80E890E00FB67D
:10545000F89480936100909361000FBE0E941E1526
:105460000E94662C0E94C32C8091E200846080938D
:10547000E20078940E944B2F0E9426158EE191E065
:105480000E94A9148091DB03853019F00E94301529
:10549000F9CF0E9420238091D903882399F30E9499
:1054A0006223882379F30E94C82AECCF0C94582AEF
:1054B000FC01CB01DA012F2F332723303105D1F046
:1054C00070F42130310509F445C02230310569F40A
:1054D0008BE390E021EA35E02D933C93089521324F
:1054E000310521F12232310559F190E080E030E0C0
:1054F00020E0F2CFCF019927E230A9F08330910567
:1055000050F4009769F0E5E8F5E0019771F78491B0
:1055100090E09F01E1CFE7E6F5E00397C1F3E5CF27
:10552000EDE9F5E0F4CFEDE6F5E0F1CF892BB9F048
:1055300061307105D1F689E090E02CEC35E0CCCFFC
:10554000892B91F06130710581F680EC90E02EEEB0
:1055500035E0C2CF82E190E02CED35E0BDCF89E0AF
:1055600090E023EB35E0B8CF80E490E02EEA36E01F
:10557000B3CF8091DB03843011F482E0089581E0A1
:10558000089580918403811102C00C94B92A089572
:1055900080E189BD82E189BD09B400FEFDCF809123
:1055A000D8008F7D8093D8008091E0008260809346
:1055B000E0008091E00081FDFCCF0895AF92BF92A2
:1055C000CF92DF92FF920F931F93CF93DF936C01E3
:1055D000EB018A010E94352CF82E811123C00115A0
:1055E000110539F0F80180819181C81BD90BC80ED3
:1055F000D91EB12CA12C2097A9F08091E80085FD3F
:1056000022C08091E8008E778093E8000115110593
:10561000A1F0F80180819181A80EB91EB182A0820B
:1056200085E0F82E8F2DDF91CF911F910F91FF9084
:10563000DF90CF90BF90AF9008950E94352C8823C3
:10564000D1F2F82EEFCFF60181916F018093F10036
:105650002197FFEFAF1ABF0ACECFFC01CB012091FB
:10566000E2033091E3032617370790F0009729F4FF
:105670002091E8002E772093E80040E0009751F455
:10568000411108C08091E80082FF31C080E0089598
:10569000C901F3CF2091DB032223A9F12530A9F121
:1056A0002091E80023FD2DC02091E80022FDEACFE3
:1056B0002091E80020FFE2CF3091F3002091F2002A
:1056C000009719F02830310558F041E028303105B5
:1056D00009F040E02091E8002E772093E800CECF3B
:1056E00041914093F10001972F5F3F4FE9CF8091A7
:1056F000DB03882341F0853041F08091E80083FF8F
:10570000C1CF81E0089582E0089583E00895FC010F
:10571000CB012091E2033091E3032617370790F085
:10572000009729F42091E8002E772093E80040E0CC
:10573000009751F4411108C08091E80082FF32C007
:1057400080E00895C901F3CF2091DB032223B1F15A
:105750002530B1F12091E80023FD2EC02091E80012
:1057600022FDEACF2091E80020FFE2CF3091F30044
:105770002091F200009719F02830310558F041E0EF
:105780002830310509F040E02091E8002E77209381
:10579000E800CECF44914093F100319601972F5FFE
:1057A0003F4FE8CF8091DB03882341F0853041F003
:1057B0008091E80083FFC0CF81E0089582E00895E2
:1057C00083E00895982F973028F08F708093E90038
:1057D00081E008959093E900242F762F50E09817E8
:1057E00031F07091EC002091ED005091F00021FD1E
:1057F00002C09F5FE8CF3091EB003E7F3093EB001B
:105800003091ED003D7F3093ED003091EB00316041
:105810003093EB007093EC002093ED005093F00078
:105820002091EE0027FDE5CF80E008958091DC0314
:1058300087FF13C08091E80082FF06C08091E800D6
:105840008B778093E80004C08091DB038111F2CF55
:1058500008958091DB038823D9F38091E80080FFCD
:10586000F8CF8091E8008E77ECCF2091E400309162
:10587000E50095E6A9012091EC00822F817020FFC0
:1058800006C08091E80080FF06C080E00895209166
:10589000E80022FD1AC08091DB03882389F085305F
:1058A00089F08091EB0085FD0FC02091E4003091DC
:1058B000E50042175307F9F29150E1F684E00895AC
:1058C00082E0089583E0089581E008950E94D42C39
:1058D0000E94DC2CE0EEF0E0808181608083E8EDC6
:1058E000F0E080818F77808319BCA7EDB0E08C91C8
:1058F0008E7F8C9380818F7E80831092DA0308954F
:105900000F931F93CF93DF930E94D42C0E94DC2C23
:10591000C8EDD0E088818F7788838881806888830C
:1059200088818F7D888319BC1092DB031092D70386
:105930001092D9031092D80300EE10E0F801808194
:105940008B7F808388818160888342E060E080E093
:105950000E94E22BE1EEF0E080818E7F8083E2EE18
:10596000F0E0808181608083808188608083F8019D
:1059700080818E7F8083888180618883DF91CF9151
:105980001F910F910895E8EDF0E080818F7E808374
:10599000E7EDF0E080818160808384E082BF81E078
:1059A0008093DA030C94802CE8EDF0E080818E7F08
:1059B00080831092E20008951092DA001092E100C4
:1059C00008951F920F920FB60F9211242F933F93B9
:1059D0004F935F936F937F938F939F93AF93BF93F7
:1059E000EF93FF938091E10082FF0BC08091E20072
:1059F00082FF07C08091E1008B7F8093E1000E94CD
:105A00004A2F8091DA0080FF19C08091D80080FF72
:105A100015C08091DA008E7F8093DA008091D900E2
:105A200080FF94C080E189BD82E189BD09B400FE98
:105A3000FDCF81E08093DB030E9442298091E10049
:105A400080FF19C08091E20080FF15C08091E200C4
:105A50008E7F8093E2008091E20080618093E2007B
:105A60008091D80080628093D80019BC85E0809333
:105A7000DB030E9454298091E10084FF29C08091BA
:105A8000E20084FF25C080E189BD82E189BD09B4BF
:105A900000FEFDCF8091D8008F7D8093D80080914B
:105AA000E1008F7E8093E1008091E2008F7E809301
:105AB000E2008091E20081608093E2008091D70350
:105AC000882309F449C084E08093DB030E945529B0
:105AD0008091E10083FF29C08091E20083FF25C00F
