:100000000C9434030C9451030C9451030C9451033D
:100010000C9451030C9451030C9451030C94510310
:100020000C9451030C9451030C94E12B0C94B42CBC
:100030000C9443220C9451030C9451030C945103DF
:100040000C9451030C9451030C9451030C945103E0
:100050000C9451030C94AB220C9451030C94510357
:100060000C9451030C9451030C9451030C945103C0
:100070000C9451030C9451030C9451030C945103B0
:100080000C9451030C9451030C9451030C945103A0
:100090000C9451030C9451030C9451030C94510390
:1000A0000C9451030C9451030C9451030763423692
:1000B000B79BD8A71A39685618AEBAAB558C1D3CF9
:1000C000B7CC5763BD6DEDFD753EF6177231BF00BD
:1000D0000000803F05A84CCDB2D44EB93836A902F5
:1000E0000C50B9918688083CA6AAAA2ABE00000036
:1000F000803F0000F0A129002B00E000E100E200B9
:1001000000001E00140004001D00000000001F007D
:100110001A0016001B000000E30020000800070082
:1001200006000000E5002100150009001900025139
:100130000000220017000A00050000000000000077
:100140002C0400001E010000000000000354000009
:100150001F010000000023001C000B001100000024
:100160000000240018000D001000015100002500BF
:100170000C000E00360000002C00260012000F00BC
:1001800037000000E70027001300330038000000AC
:10019000000000002A002800E500E6000000003012
:1001A0000100010001000100000000001E002B0002
:1001B00000000000010000001F00350000000000EA
:1001C00001000000200031002900000001000000B3
:1001D00021003400000000000100000022002A007D
:1001E00000000000010000001014000000000000EA
:1001F00001000000000000000000000001000000FD
:1002000023000000000000000100000024002D0079
:10021000000001000100000025002E000100010087
:100220000100000026002F00010001000100000075
:100230002700300001000100010001000100010061
:100240000100010000000000000000000000005C50
:1002500000003A00AA0000000000000001003B007E
:10026000A90000000000000001003C00A800000000
:100270000000000001003D00000000000000000040
:1002800001003E000000000000000000010000002E
:10029000000000000000000001000000000000005D
:1002A0000000000001003F000000F200000000001C
:1002B00001004000F400F1000000000001004100D6
:1002C000F500F00000000000010042000000F30013
:1002D0000000000001004300440045000000000051
:1002E000010000000000000000000000000000000D
:1002F00000000000000000000000000000000000FE
:1003000000000000000000000000161400000000C3
:1003100000000000000000000614000005000000BE
:1003200000000000000000000000000017140A1484
:1003300000000000000000000000000000000000BD
:10034000000000000051000000000000000000005C
:10035000000000000000000000000000000000009D
:1003600000000000000000000C140000000000006D
:100370000000000000000F1400000000000000005A
:10038000000000000000000000000000000000006D
:1003900000000000000000047F3F1F64321464323C
:1003A00014783C1E1E140A056801F000B4007800A1
:1003B0005A000000000000010101010101010101DA
:1003C0000202020202020202020303030303030306
:1003D00003040404040404050505050506060606D1
:1003E0000607070707080808080909090A0A0A0A88
:1003F0000B0B0B0C0C0C0D0D0D0E0E0F0F0F101028
:1004000011111112121313141415151616171718AB
:100410001819191A1A1B1C1C1D1D1E1F1F20202114
:1004200022222324252526272728292A2B2B2C2D59
:100430002E2F2F30313233343536363738393A3B78
:100440003C3D3E3F4041424344464748494A4B4C6D
:100450004D4F50515253555657585A5B5C5E5F6032
:100460006263646667696A6C6D6E707173747678C6
:10047000797B7C7E8081838486888A8B8D8F919224
:100480009496989A9B9D9FA1A3A5A7A9ABADAFB148
:10049000B3B5B7B9BBBDBFC1C4C6C8CACCCFD1D331
:1004A000D6D8DADCDFE1E4E6E8EBEDF0F2F5F7FAD6
:1004B000FCFF0403300000001603450072006700D3
:1004C0006F0044006F007800200045005A000000D3
:1004D00016034500720067006F0044006F0078004B
:1004E000200045005A0000000403090409026D00C1
:1004F000040100A0FA090400000103010100092120
:10050000110100012240000705810308000A0904C7
:1005100001000103010200092111010001224D0027
:100520000705820308000A09040200010300000015
:100530000921110100012236000705830308000A82
:100540000904030001030000000921110100012238
:10055000390007058403200001120110010000008A
:1005600008EDFE071301000102030105010906A1C0
:1005700001050719E029E715002501950875018196
:100580000205081901290595057501910295017566
:100590000391010507190029F71500250195F87544
:1005A000018102C005010980A10185021601002612
:1005B00003001A81002A8300751095018100C0058F
:1005C0000C0901A1018503160100269C021A0100F5
:1005D0002A9C02751095018100C005010902A10144
:1005E0000901A10005091901290515002501950535
:1005F00075018102950175038101050109300931F9
:100600001581257F95027508810609381581257F9A
:10061000950175088106050C0A38021581257F951C
:100620000175088106C0C005010906A10105071969
:10063000E029E715002501950875018102950175EE
:100640000881010508190129059505750191029593
:1006500001750391010507190029FF150026FF0008
:10066000950675088100C00011241FBECFEFDAE0A7
:10067000DEBFCDBF11E0A0E0B1E0ECE6F4E602C0E1
:1006800005900D92A83EB107D9F723E0A8EEB1E09E
:1006900001C01D92AD3BB207E1F70E940E290C94F8
:1006A00034320C94000080B38C7080BB81B3836FB4
:1006B00081BB089584B1807F84B985B1807F85B97D
:1006C0008AB1837F8AB98BB1837F8BB93E98469874
:1006D0000895CF93C82F873080F5809100019091C5
:1006E0000101892B99F564E670E080E40E94EE0434
:1006F0009093010180930001892BD1F464E670E0AE
:1007000082E10E9443059093010180930001892BAF
:1007100079F481E090E001C0880FCA95EAF764E6B9
:1007200070E080950E944305909301018093000141
:1007300084E690E0CF910C9496058A30B9F040F4AD
:10074000883071F0893079F0209A2898CF910895F7
:100750008C3091F070F08D30B9F73E9A4698F6CF14
:10076000219A2998F3CF229A2A98F0CF239A2B988E
:10077000EDCF529A5B98EACF539AFCCFCF93873054
:1007800008F042C08091000190910101C0E0892BE6
:1007900081F464E670E080E40E94EE04909301012D
:1007A00080930001892B41F0C0E084E690E00E9434
:1007B00096058C2FCF91089564E670E083E10E9446
:1007C00043059093010180930001892B69F764E64A
:1007D00070E081E40E94EE04909301018093000197
:1007E000892B11F784E690E00E94720597FF05C0FF
:1007F0009093010180930001D7CFC82FC09510922C
:10080000010110920001D1CFCFB18FB186958695AD
:100810008C73C3708C2BC82FC095CBCF0C94C6069D
:100820000E943A0690E090930101809300010E949B
:100830005A030E945303EDE3F2E089EE91E0119236
:10084000DC0126E01D922150E9F7069622E0EB3408
:10085000F207A9F70C94EC060E943A0690E09093F8
:100860000101809300010E945A030E945303EDE3AB
:10087000F2E0119282E0EB34F807D9F7089596E0A0
:10088000899FF0011124E751FE4F30E020E080E025
:1008900041E050E09191992351F0DF01119791507F
:1008A0009C932F5F3F4F26303105A1F70895BA0181
:1008B000022E01C0660F0A94EAF7862BF2CF96E06B
:1008C000699FB001112430E020E090E045E0FC0198
:1008D000022E02C0F595E7950A94E2F7E0FF06C004
:1008E000F901E60FF71FE751FE4F40832F5F3F4F9F
:1008F0002630310561F70895EF92FF920F931F9311
:10090000CF93DF938091000190910101892B91F0A9
:100910008091E8018F5F8093E80181110BC00E94F4
:100920003A0690E09093010180930001892B11F425
:100930000E94E4050DE312E0C0E08C2F0E946903E1
:1009400087E0F82EFC0E8F2D0E9469038C2F0E94E9
:100950003F04E82E8C2F0E94BE03F80191918F0175
:10096000DE2DD095D9238E21D82B6C2F892F8D2762
:100970000E945F04F8013197D0838F2D0E943F04BD
:10098000E82E8F2D0E94BE03F8019681DE2DD095B2
:10099000D9238E21D82B6F2D892F8D270E945F049C
:1009A000F801D6830E945A03CF5FC73031F60E9408
:1009B000F40681E0DF91CF911F910F91FF90EF90AE
:1009C0000895E82FF0E0E35CFD4F808108950895DD
:1009D0001092B9008CE08093B8000895EF92FF92D6
:1009E0000F931F93CF93DF93182FEB011092BC004E
:1009F00084EA8093BC000E9475227C018091BC0037
:100A000087FF0DC08091B900887F8830D9F0809130
:100A1000B900887F8031B1F08FEF9FEF0CC0CF3FDE
:100A2000DC0761F30E9475228E199F098C179D07C0
:100A300028F38EEF9FEFDF91CF911F910F91FF90E1
:100A4000EF9008951093BB0084E88093BC000E944F
:100A500075228C018091BC0087FF0AC08091B9008B
:100A6000887F883111F08034B9F690E080E0E3CFE0
:100A7000CF3FDC0779F30E947522801B910B8C1706
:100A80009D0740F3D6CF0F931F93CF93DF93EB01D6
:100A90008093BB0084E88093BC000E9475228C0187
:100AA0008091BC0087FF11C02091B900287F81E0B0
:100AB00090E0283211F490E080E0919581959109C1
:100AC000DF91CF911F910F910895CF3FDC0741F344
:100AD0000E947522801B910B8C179D0708F38EEFE7
:100AE0009FEFEECF0F931F93CF93DF93EC0184E83A
:100AF0008093BC000E9475228C018091BC0087FF0E
:100B000008C08091BB0090E0DF91CF911F910F91C1
:100B10000895CF3FDC0789F30E947522801B910B5B
:100B20008C179D0750F38EEF9FEFEECF0F931F931F
:100B3000CF93DF93EC0184E98093BC000E9475227F
:100B40008C018091BC0084FD07C090E080E0DF91C3
:100B5000CF911F910F910895CF3FDC0791F30E9431
:100B60007522801B910B8C179D0758F38EEF9FEF1A
:100B7000EECF259A2D9A0895269A2E9A0895279AAF
:100B80002F9A089556985E98089525982D9808955F
:100B900026982E98089527982F9808950E94C205A8
:100BA0000E94C5050E94C8050C94CB0590E0909367
:100BB00089008093880090938B0080938A009093A3
:100BC0008D0080938C0008950E94CE058FEF0E94C7
:100BD000D6050E94B9052FEF80E792E021508040B2
:100BE0009040E1F700C000000E94BC052FEF80E7B5
:100BF00092E0215080409040E1F700C000000E9448
:100C0000BF052FEF80E792E0215080409040E1F750
:100C100000C000000E94C5052FEF80E792E0215040
:100C200080409040E1F700C000000E94C8052FEF0F
:100C300080E792E0215080409040E1F700C0000042
:100C40000E94CB050C94CE0589EA8093800089E050
:100C50008093810024982C983F988AB18F7C8AB920
:100C60006E98479A8BB180638BB9769A0E94E4059F
:100C70000C94C50680E290E09093010180930001FE
:100C800080914B0281110EC00E94E80481E08093A4
:100C90004B022FEF83ED90E3215080409040E1F72D
:100CA00000C0000064E670E080E40E94EE049093CF
:100CB000010180930001892B09F050C064E670E0C7
:100CC00080E00E9443059093010180930001892BED
:100CD00009F044C064E670E080E00E944305909310
:100CE000010180930001892BC9F564E670E08FE370
:100CF0000E9443059093010180930001892B71F5B7
:100D000084E690E00E94960564E670E080E40E942C
:100D1000EE049093010180930001892BF9F464E6BD
:100D200070E08CE00E9443059093010180930001E4
:100D3000892BA1F464E670E080E00E944305909363
:100D4000010180930001892B49F464E670E08FE390
:100D50000E944305909301018093000184E690E096
:100D60000E949605809100010895611107C0FC0161
:100D70008281882331F085EE0E94E61590E080E0C4
:100D8000089585EE0E94C916F9CF0895CF9360911A
:100D900008037091090380910A0390910B030E944C
:100DA000B820C82F0E94C2050E94C5050E94C80530
:100DB0000E94CB05C13021F0C23029F0CF910895B7
:100DC000CF910C94B905CF910C94BC0581E00895A6
:100DD00081E008950C94E8060E940521811102C06B
:100DE0000E9473210C9424060C940E04282F2F705B
:100DF00041F0822F90E02A3010F44D960895069726
:100E0000089587E290E0089508950C9404070C94E7
:100E1000050708950E94471A0E9409072FEF84E3EF
:100E20009CE0215080409040E1F700C000000C940D
:100E3000D122FF920F931F93CF93DF938C01FC017C
:100E4000C081D18180919602811150C08281882316
:100E500009F447C0CE010E94921FF82E682FCE01E0
:100E60000E94361FBE018F2D0E94EF09EC01B801D0
:100E70000E94EA06882309F4E9C0B801CE010E9465
:100E80005F0C882309F4E2C0CC3CFCE5DF0709F4E1
:100E90002EC108F071C0C43C9CE5D90709F400C11B
:100EA00008F048C0C531FCE5DF0728F5C2308CE505
:100EB000D80708F09CC1C1159CE5D90709F4C1C049
:100EC000C130DC4509F4C9C081E0809351028093B0
:100ED0005202C801DF91CF911F910F91FF900C94A6
:100EE000E606CE010E94661FF82EBCCFCE010E94FE
:100EF000921FBE01B9CFC23CFCE5DF0709F4BEC0BA
:100F000008F0C3C0C631DC45F9F60E947920F8012B
:100F10009281992309F458C28A7A91E009F490E009
:100F200090934C0281114EC289E20E9402200E94DD
:100F300046208CC0F8018281C83CFCE5DF0709F43B
:100F4000C4C068F4C63CECE5DE0709F4B9C008F497
:100F5000B2C0882309F47AC00E94750F77C0CA3CDA
:100F60009CE5D90709F4BDC008F4B5C0882309F48D
:100F70006DC00E94140E6AC0C43DFCE5DF0709F491
:100F800014C170F5F8018281C03DFCE5DF0709F46A
:100F9000D0C0D8F4CE3CECE5DE0709F4B7C008F4C5
:100FA000AEC0882309F452C00E94060E6630710557
:100FB0008105910540F00E94060E6830710581059B
:100FC000910508F475C086E09EC0C23D9CE5D90736
:100FD00009F4D7C008F4C1C08823C1F188E193C0E7
:100FE000C83DFCE5DF0709F4D2C1B0F4F801828105
:100FF000C63DFCE5DF0709F47EC108F4ECC0882398
:1010000009F4A7C1109252020E94752290935002D7
:1010100080934F0280E27AC1CC3DECE5DE0709F413
:10102000DFC0CD3DFCE5DF0711F1CB3DDC4509F02C
:101030004BCFF8018281882349F080E00E94A929E2
:1010400005C0F801828181110E940A0780E0DF91CA
:10105000CF911F910F91FF900895F801828188230D
:10106000A9F380913503816080933503EFCFF801B8
:101070008281882359F30E947321E8CFF80182818D
:10108000882321F30E947E10E1CFF801828188231A
:10109000E9F20E947920827259F00E942010D6CF86
:1010A000F8018281882391F20E9479208272A9F34B
:1010B0000E941610CBCF882349F20E943E0FC6CF64
:1010C000882321F20E94560FC1CF882309F4BECF96
:1010D0000E94870FBBCF882309F4B8CF0E94990FD5
:1010E000B5CF882309F4B2CF0E94B10FAFCFF8017A
:1010F0008281882309F4AACF0E94290EA7CF8823D2
:1011000009F4A4CF81E00E941310A0CF882309F432
:101110009DCF0E94060E623071058105910538F061
:101120000E94060E653071058105910508F282E086
:10113000EACF882309F48ACF0E94060E6930710530
:101140008105910540F00E94060E6E307105810503
:10115000910508F4ADCF89E0D6CF882309F476CF86
:101160000E94060E6F3071058105910540F00E94C6
:10117000060E643171058105910508F499CF8FE061
:10118000C2CF882309F462CF0E94060E6531710533
:101190008105910540F00E94060E673171058105B9
:1011A000910508F485CF85E1AECFF80182818823CF
:1011B00009F44CCF0E94060E693171058105910535
:1011C00040F00E94060E623271058105910508F417
:1011D0006FCF89E198CF882309F438CF83E293CF8A
:1011E000F8018281882309F431CF82E027CFF8010A
:1011F0008281882309F46DCE0E940521811102C0ED
:101200000E9473210E94182190E09093AF03809375
:10121000AE03FE01E350FC458091AE038160E231F4
:10122000F105C8F4EA5EF64F0C94D9312809340967
:1012300038093C094009440948094C095009540936
:1012400058095C096009640968096C097009740926
:101250008091AE0382608093AE038091AE030E94C2
:101260001C210E94471AF2CE8091AE038460F3CF16
:101270008091AE038860EFCF8091AE038061EBCFA9
:101280008091AE038062E7CF8091AE038064E3CFAC
:101290008091AE038068DFCF8091AE038460EACF97
:1012A0008091AE038E7FD7CF8091AE038D7FD3CF59
:1012B0008091AE038B7FCFCF8091AE03877FCBCF62
:1012C0008091AE038F7EC7CF8091AE038F7DC3CF59
:1012D0008091AE038F7BBFCF8091AE038F77BBCF62
:1012E0008091AE038B7FEACF9091AE03892F97FB5D
:1012F00087F98058B0CF882361F0109251020E9484
:10130000752290934E0280934D0282E00E941F1737
:101310009DCE0E94792085FF05C081E08093510217
:10132000809352028091510281110FC080914D0231
:1013300090914E020E948122883C910530F486E211
:101340000E94E61586E20E94C91682E00E942617D6
:101350007DCE0E94792081FF05C081E080935102FB
:10136000809352028091520281110FC080914F02EE
:10137000909150020E948122883C910530F487E2CE
:101380000E94E61587E20E94C91680E2DFCFF801CD
:101390008281811137CE809152028111F6CF8091E6
:1013A0004F02909150020E948122883C910568F77B
:1013B00080E20E94261788E20E94E61588E20E94D9
:1013C000C91644CE85E3B1CD80914C02811104C091
:1013D00089E20E940920ABCD85E3FBCF0895972FCA
:1013E00070E026E0929F600D711D1124FB0194E5D1
:1013F000899FE00DF11D1124EE0FFF1FEA50FF4FF2
:10140000859194910895FC01EE0FFF1FEE50FF4F60
:10141000859194910895CF93DF930E94EF090E94E4
:10142000BC0BEC018115904508F043C0C11580E468
:10143000D80708F013C1C83ED10528F5C03ED10534
:1014400008F0A7C0C83AD10580F4C53AD10508F024
:1014500096C0C130D10509F49CC020F0C430D1053C
:1014600008F097C0D0E0C0E094C0CD3BD10508F4AF
:1014700094C0CE01805C9109C03CD10598F30E94D4
:10148000030AEC0186C0C11520E2D20750F4C11551
:1014900081E0D80708F07DC0C03FD10518F3D065C2
:1014A00078C0C11520E3D20708F0CEC0CE019F70EE
:1014B000E6CFC11585E5D80760F5C11524E5D2074B
:1014C00008F0FAC0C11582E5D80750F4C11521E52E
:1014D000D20708F4C6C0DC2FCC27C16FD06A59C030
:1014E0009C2F969596959E0123703327C115D34561
:1014F00008F0D3C0C1E0D0E002C0CC0FDD1F2A95B8
:10150000E2F720E2929FC0011124C82BD92BDC689E
:1015100040C0C1152AE5D207A0F4C11589E5D80756
:1015200008F0D5C0C11526E5D20708F4CAC0C11518
:1015300088E5D80708F496CFDC2FCC27C06FD06A97
:1015400028C0C1152BE5D20708F48CCFC1158CE556
:10155000D80708F4C9C0CE0190568115904208F012
:1015600081CF8D2F8F710E943C0CDD27D06290E0DF
:10157000982F882788279F71C82BD92B0AC0C53A76
:10158000D10509F4B4C0C63AD10509F4B3C0C3E823
:10159000D0E4CE01DF91CF910895C83AD10509F486
:1015A000ACC0C93AD10509F4ABC0CA3AD10509F4B7
:1015B000AAC0CB3AD10509F4A9C0CC3AD10509F4A7
:1015C000A8C0CB3BD10509F4A7C0CC3BD10509F499
:1015D000A6C0CD3AD10509F4A5C0C03BD10509F498
:1015E000A4C0CE3AD10509F4A3C0CF3AD10509F47D
:1015F000A2C0C13BD10509F4A1C0C23BD10509F489
:10160000A0C0C33BD10509F49FC0C43BD10509F478
:101610009EC0C53BD10509F49DC0C63BD10509F468
:101620009CC0C73BD10509F49BC0C83BD10509F458
:101630009AC0C93BD10509F499C0CA3BD10509F04C
:1016400098C0CAE2D6E4A5CFCE019927D3FF03C044
:10165000EC01D86C9ECFEC01D06C9BCFDF70D06AD0
:1016600098CFCE01E4E096958795EA95E1F78370EF
:101670009C2F937021E030E002C0220F331F9A9517
:10168000E2F73C68382BC695C695C37080E2C89FC8
:10169000E0011124C22BD32B7CCFC1E0D0E002C0EB
:1016A000CC0FDD1F2A95E2F720E2929FC0011124A2
:1016B000C82BD92BDA686DCFDC2FCC27C46FD06A4A
:1016C00068CFDC2FCC27CC27DF71D06262CFCE0170
:1016D00034E0969587953A95E1F78F70CF70C06E9C
:1016E000D0E0D06AD82B55CFDD27D06652CFC1E8E5
:1016F000D0E44FCFC2E8D0E44CCFC2EED4E449CF1F
:10170000C9EED4E446CFCAEED4E443CFC5EBD4E46B
:1017100040CFC6EBD4E43DCFC3EBD4E43ACFC4EB27
:10172000D4E437CFC7EBD4E434CFCCECD4E431CF1E
:10173000CDECD4E42ECFC3E8D5E42BCFCAE8D5E472
:1017400028CFC2E9D5E425CFC4E9D5E422CFC1E250
:10175000D6E41FCFC3E2D6E41CCFC4E2D6E419CF4F
:10176000C5E2D6E416CFC6E2D6E413CFC7E2D6E48C
:1017700010CFC0E0D4E40DCF8238910549F1B0F428
:101780008133910509F45CC048F48932910509F46C
:1017900052C08A32910509F458C0089585339105E5
:1017A00009F444C08933910599F00895833E910569
:1017B00031F138F4803E910591F0823E9105B1F00F
:1017C0000895863E910511F1873E910541F10895F6
:1017D0002091AE032370C9F080EE90E0089520912F
:1017E000AE0320FF12C089E390E008952091AE037C
:1017F00022FF0BC024FF2EC090E080E008952091CE
:10180000AE0322FD2AC024FDF7CF08952091AE0338
:1018100023FFFBCF24FDF0CF87EE90E008952091C9
:10182000AE0323FFF0CF86EE90E008952091AE0343
:1018300025FD16C008952091AE0325FD14C008951E
:101840002091AE0326FD12C008952091AE0326FD1F
:1018500010C0089583EE90E0089582EE90E0089520
:1018600089E290E0089585E390E008958AE290E0AF
:10187000089581E390E0C9CF9091AE0392FF06C036
:10188000282F2871283069F4877F846093FF06C071
:10189000282F2871283161F4877E846194FD877E2A
:1018A0000895282F2471243089F78B7F8860EECF2C
:1018B000282F2471243191F78B7E8861EFCFCF934D
:1018C000DF93EC01C13080E8D80770F0FB01828122
:1018D000882351F00E94780C0E94860CCE019F77DD
:1018E0000E94510D0E94030D81E0DF91CF91089578
:1018F00080915302811109C08CE090E00E94EC318C
:101900008093540281E0809353020895E0910F0187
:10191000F091100180818093660381FF03C081EE06
:101920000E94C9168091660385FF03C085EE0E9460
:10193000C9168091660380FF03C080EE0E94C9161D
:101940008091660384FF03C084EE0E94C9168091D3
:10195000660382FF03C082EE0E94C916809166036F
:1019600086FF03C086EE0E94C9168091660383FF3E
:1019700003C083EE0E94C9168091660387FF03C0EF
:1019800087EE0E94C91680915402823049F158F4C2
:10199000882379F0813089F08FE39CE90197F1F792
:1019A00000C000000895843019F18530A9F786EE53
:1019B00001C082EE0E94E615EFCF80EE0E94E61590
:1019C00081EE0E94E61588E10E94E61588E10E94FA
:1019D000C91681EE0E94C91680EE0E94C916DCCF9E
:1019E00082EE0E94E61587E50E94E61587E5F5CFB1
:1019F00086EE0E94E61586EE0E94C91688E10E94D6
:101A0000E61588E1EACF80915402813009F443C0A1
:101A1000E0F18230D1F18530E1F18091660381FF00
:101A200003C081EE0E94E6158091660385FF03C026
:101A300085EE0E94E6158091660380FF03C080EE6C
:101A40000E94E6158091660384FF03C084EE0E9425
:101A5000E6158091660382FF03C082EE0E94E615C0
:101A60008091660386FF03C086EE0E94E615809192
:101A7000660383FF03C083EE0E94E6158091660330
:101A800087FF0EC087EE0C94E61582EE0E94C91601
:101A9000C4CF86EEFBCF8CE20E94E6158CE2F6CF37
:101AA0000895EF92FF921F93CF93DF937C01CCE0D8
:101AB000D0E0C7010C2E02C0969587950A94E2F7F4
:101AC000182F1F70812F0E94F6060E94E615812FA5
:101AD0000E94F6060E94C9162497CC3F8FEFD807C4
:101AE00041F7DF91CF911F91FF90EF900895CF9232
:101AF000DF92EF92FF920F931F93CF93DF93E90151
:101B0000662309F466C0E42EF12CEFEFF0E0E61B4B
:101B1000F109EE9D8001EF9D100DFE9D100D112429
:101B2000212FE12FFF27EE1AFF0A5CE3C52ED12CEF
:101B3000B6010E94B131FB01BC01E69EC001E79EE7
:101B4000900DF69E900D1124B6010E94B131E23045
:101B5000F10589F168F4812F262F210F309781F04C
:101B6000242F461B319761F080E020E040E008C060
:101B7000E430F10551F128F1842F861B3597A1F748
:101B8000E42FF0E0EE54FC4F4491E22FF0E0EE54ED
:101B9000FC4F9491E82FF0E0EE54FC4FE491498320
:101BA0009883EA83DF91CF911F910F91FF90EF907F
:101BB000DF90CF900895862F810FE42F412F2E2F95
:101BC000DFCFE42FE61B842FF9CF842F462F410F60
:101BD000D7CF842F242FD4CF88E090E00C94F43119
:101BE000AB01BC0188E090E00C941232E7E6F3E030
:101BF00083E08083109268038FEF82838383148253
:101C000060817181828193810C94F00D60916703F2
:101C100060FF06C066956F7370E090E080E0089505
:101C200060E070E0CB01089580916B0390E0019635
:101C30008430910514F083E090E080936B03609111
:101C40006703709168038091690390916A030C9413
:101C5000F00D80916B038150990B97FF02C090E0CB
:101C600080E08430910514F083E090E080936B0372
:101C700060916703709168038091690390916A0392
:101C80000C94F00D80916703ECE6F3E080FF06C052
:101C90006FE070E08CE693E00C94091411821082DE
:101CA0001282349683E0E83AF807C1F7F1CF9091B9
:101CB000670390FF0CC0ECE6F3E08183608342830E
:101CC000349693E0E83AF907C1F70C94420E089570
:101CD000CF93DF9300D000D0CDB7DEB7209167035C
:101CE00020FF0AC09E012F5F3F4F0E94770D4B815E
:101CF00069818A810E94570E0F900F900F900F906C
:101D0000DF91CF9108955F926F927F928F929F9211
:101D1000AF92BF92CF92DF92EF92FF920F931F93F9
:101D2000CF93DF9300D000D0CDB7DEB78C01E62E85
:101D3000F42E522E8091670380FF30C0982F9E773B
:101D4000923009F03FC09E012F5F3F4FC8010E94B3
:101D5000770D4B8169818A810E94570E80916703BC
:101D600000FB87F980936703902F96958091680315
:101D70008078892B10FB87F980936803E0926903D0
:101D8000F0926A03552051F06091670370916803E7
:101D90008091690390916A030E94F00D0F900F905B
:101DA0000F900F90DF91CF911F910F91FF90EF90C7
:101DB000DF90CF90BF90AF909F908F907F906F906B
:101DC0005F900895E82FE695EF739EE39E0F9F7353
:101DD000943018F4F0906A03C1CF9AE39E0F9F737A
:101DE000993068F4881F8827881F90916803292FED
:101DF000220F022F082B97FB112710F9AFCF87E294
:101E00008E0F8F738A3008F0A9CFE951FF0B2FEFA7
:101E1000E0FF21E0EE7FE855FC4F859194916FE063
:101E200070E00E94B13126034001279F900C1124DD
:101E3000580188E9A81A8EEFB80A8CE6C82E83E00C
:101E4000D82E98E6692E77247394C501B3010E94B9
:101E5000B13196014F2D6E2D0E94770DA80CB91C43
:101E600084E0C80ED11C88EAC81683E0D80669F75A
:101E70000E94420E73CF21E00C94830EE7E6F3E05C
:101E80002081221F2227221F30916803432F440FF5
:101E9000842F822B37FB992790F90C9668E671E026
:101EA0000E94C531438162810C943B0F20916703EE
:101EB000221F2227221F30916803432F440F842FB3
:101EC000822B37FB992790F98C30910540F4845A86
:101ED0009E4F40916A03609169030C943B0F0C97ED
:101EE00068E671E00E94C531F4CFE7E6F3E0808157
:101EF000881F8827881F90916803292F220F97FB3E
:101F0000992790F943816FEF822B0C943B0FE7E602
:101F1000F3E08081881F8827881F90916803292F0C
:101F2000220F97FB992790F9438160E0822B0C9454
:101F30003B0F40916A03443F90F4445F80916703F4
:101F4000881F8827881F90916803292F220F97FBED
:101F5000992790F960916903822B0C943B0F4FEF06
:101F6000EDCF40916A034C3090F04C508091670364
:101F7000881F8827881F90916803292F220F97FBBD
:101F8000992790F960916903822B0C943B0F40E0F4
:101F9000EDCF20E00C94830ECF939091670390FFD8
:101FA00040C09178811131C092609093670366239D
:101FB00051F060916703709168038091690390917B
:101FC0006A030E94F00DC09167036C2F66956F73D2
:101FD00070E04BE050E084E091E00E94DF31892B1B
:101FE000E1F010927202CC1FCC27CC1F90916803B5
:101FF000892F880F97FB992790F940916A03609188
:1020000069038C2BCF910C94C90F853210F0986422
:10201000CCCF8F73880F982BC8CF81E0809372024A
:10202000E2CFCF91089561E00C94CC0F80916703CB
:1020300086958F738F5F853208F081E00C941310C2
:102040008091670386958F73815009F484E20C9424
:102050001310E7E6F3E080818160808386958F73BB
:102060000C94131060E00C94CC0F809135038160C8
:10207000809335030E940521811104C00E947321C1
:102080000E94F60D0E94EC0D609367037093680345
:102090008093690390936A036E7761F40E94F60D52
:1020A0000E94EC0D6093670370936803809369034B
:1020B00090936A0381E0809372028091670380FFAE
:1020C00004C086958F730C9432100895E7E6F3E010
:1020D00080818E7F808360817181828193810E9463
:1020E000F00D109272022FEF80E792E021508040B5
:1020F0009040E1F700C000000C94420E809167030D
:1021000080FD0C9466100C942910CF93C82F8091F9
:102110007002909171020E948122EC2FF0E0EC5548
:10212000FC4FE491E817190611F008F042C00E9434
:102130007522909371028093700260916F0270E03B
:1021400090E080E00E94B22F20E030E04FE753E4BF
:102150000E94D52E2BED3FE049E450E40E94DB3095
:102160000E9448310E944F2F2BE43AE34EE25FE396
:102170000E94682E20EF3BEF48ED52E40E94DB30D6
:102180000E94812F462F80916703881F8827881F10
:1021900090916803292F220F97FB992790F960915E
:1021A0006903822B0E94680E80916F028F5F80937B
:1021B0006F02CF910895CF93C82F80916D029091B7
:1021C0006E020E948122EC2FF0E0EF55FC4FE4916B
:1021D000E817190609F0E8F40E94752290936E0240
:1021E00080936D0240916A036091690380916B0254
:1021F00090916C020E94680E80916B0290916C022B
:10220000019668E671E00E94B13190936C02809370
:102210006B02CF910895CF92DF92FF920F931F939D
:10222000CF93DF93F82E8091690290916A020E9409
:102230008122EF2DE695F0E0E256FC4FE491E8179D
:10224000190609F0A8F50E94752290936A028093FE
:1022500069020CE613E0D0E0C0E088E6C82EDD2479
:10226000D39480916702909168028C0F9D1FB601F4
:102270000E94B131980140916A03609169030E9404
:10228000770D68960C5F1F4FC83681E0D80749F775
:102290000E94420E8091670290916802F0FE10C089
:1022A0000196BE010E94B13190936802809367024B
:1022B000DF91CF911F910F91FF90DF90CF90089504
:1022C0000197F2CFCF92DF92EF92FF920F931F937D
:1022D000CF93DF93C82FFF24FA9480FD02C0FF2420
:1022E000F39480916502909166020E948122C695C6
:1022F000EC2FF0E0E556FC4FE491E817190611F0D9
:1023000008F051C00E947522909366028093650286
:102310000CE613E0D0E0C0E0F801118210821282D6
:1023200094E0C92ED12CE12C809164028E0D87FDA2
:10233000815F082E000C990BC817D907E9F480912A
:102340006A038C9DA0018D9D500D112455954795D4
:102350005595479580916703881F8827881F90911E
:102360006803592F550F97FB992790F998016091B1
:102370006903852B0E94770DEF0CF1E0CF1AD1088D
:1023800099F621960C5F1F4FCF30D10529F60E9498
:10239000420E8091640291E0F91210C081110CC0CC
:1023A0008EE080936402DF91CF911F910F91FF9097
:1023B000EF90DF90CF9008958150F3CF90E0019699
:1023C000BE010E94C531EDCF0F931F93CF93DF93D2
:1023D000C82F80916202909163020E948122EC2FAB
:1023E000F0E0E856FC4FE491E817190611F008F008
:1023F00052C00E9475229093630280936202CCE6E1
:10240000D3E0FE01118210821282349683E0E83A12
:10241000F807C1F710E000E080916102082E000C7F
:10242000990B08171907E4F180910301082E000C9D
:10243000990B80179107A4F180916703881F882763
:10244000881F90916803592F550F97FB992790F992
:102450009E0140916A0360916903852B0E94770D6C
:102460000F5F1F4F24960F301105B1F60E94420EE8
:102470008091020190916102980F909361022091E6
:102480000301280F20930301121614F49E301CF050
:10249000819580930201DF91CF911F910F91089553
:1024A000198218821A82DCCFEF92FF920F931F934A
:1024B000CF93DF9380915F02909160020E9481220E
:1024C000883E9340C8F10E947522909360028093E9
:1024D0005F02C0915D02D0915E022196C170DD273E
:1024E000D0935E02C0935D028CE6E82E83E0F82E66
:1024F00010E008E7812F86958C0F9D2F911D81702C
:102500009927970140916A0360916903FC010E9F2E
:10251000C0010F9F900D11240E94770D1F5FF4E002
:10252000EF0EF11C1F3031F7DF91CF911F910F910A
:10253000FF90EF900C94420EDF91CF911F910F917D
:10254000FF90EF900895CF93DF9300D000D0CDB7E8
:10255000DEB780915B0290915C020E948122E6E9E5
:10256000F3E02591349182179307B8F180915A02D4
:1025700081110CC09E012F5F3F4F4FEF6FEF90E036
:1025800080E00E94770D8A8180935A020E94752212
:1025900090935C0280935B0280915902813069F0D4
:1025A00038F040915A02823009F040E080E003C0E8
:1025B00080915A0240E060E004C060915A0240E01D
:1025C00080E00E94570E8091590290E0019663E0EE
:1025D00070E00E94C531809359020F900F900F90C8
:1025E0000F90DF91CF9108950F931F93CF93DF93B7
:1025F00080915702909158020E948122843F91401D
:10260000D8F10E9475229093580280935702CCE62D
:10261000D3E010E000E040915502509156026091E5
:10262000690380916703282F221F2227221F909180
:102630006803892F880F822B97FB992790F9073021
:102640001105FCF4452BF9F09E0140916A030E94AC
:10265000770D0F5F1F4F24960F301105E1F60E9492
:10266000420E8091550290915602019681709927F1
:102670009093560280935502DF91CF911F910F9155
:102680000895452B09F39E0140E0E1CF809172024D
:102690008823D1F190916703892F86958F732EE35C
:1026A000280F2F73243018F482500C9485102AE3DD
:1026B000280F2F73233018F486500C94DB1027E377
:1026C000280F2F73263018F489500C940B1121E336
:1026D000280F2F73263018F48F500C9462112BE2C0
:1026E000280F2F73233018F485510C94E4119E7732
:1026F000903311F40C945412963411F40C94A312E8
:10270000983411F40C94F41208958823B9F0519878
:10271000599A5098589A95E09A95F1F70000509A76
:10272000589895E09A95F1F70000882311F0519A96
:10273000599885E08A95F1F700000895519A5998C3
:10274000E8CF8BB18C7F8BB95098589A5198599A91
:1027500085E08A95F1F7000008958AB18C7F8AB9E7
:1027600085E08A95F1F70000519A599885E08A959D
:10277000F1F70000509A589885E08A95F1F700002B
:1027800008955098589A85E08A95F1F7000051987D
:10279000599A85E08A95F1F700000895CF93DF9369
:1027A000D82FC8E08D2F80780E948513DD0FC1508F
:1027B000C9F780E00E94851385E08A95F1F7000053
:1027C00085E08A95F1F7000080E0DF91CF910895D0
:1027D0003BB1242F209523233BB1432B3FB7F894E3
:1027E000FC01680F791FE617F70711F43FBF089542
:1027F000819198E04BB9000000C087FF2BB9880F8A
:10280000000000C000C000C02BB900C09A9591F72D
:10281000EACFAF92BF92CF92DF92EF92FF920F93E7
:102820001F93CF93DF938C01EB01CFB6D090BC0008
:10283000F8948091BC008B7F8093BC000E94A11310
:102840000E94AD1384E80E94CE13CC0FDD1FCC0F85
:10285000DD1F78015E01A00EB11EEA14FB04A9F48D
:102860000E94C113CFBED092BC00579A40E8BE016F
:10287000C801DF91CF911F910F91FF90EF90DF90F2
:10288000CF90BF90AF900C94E813F70181917F0136
:102890000E94CE13E2CF909378028093770208953E
:1028A000E0917702F0917802309721F00190F08169
:1028B000E02D099480E00895E0917702F09178028C
:1028C000309721F00280F381E02D09940895E09182
:1028D0007702F0917802309721F00480F581E02DA5
:1028E00009940895209175023091760228173907CE
:1028F00071F09093760280937502E0917702F091E7
:102900007802309721F00680F781E02D0994089530
:1029100020917302309174022817390771F0909357
:10292000740280937302E0917702F09178023097FD
:1029300021F00084F185E02D0994089585B7806821
:1029400085BF85B7806885BF089508950E949E144D
:102950000C94A51481E008950E946C220E9410043A
:102960000E9403230C943510BF92CF92DF92EF9216
:10297000FF920F931F93CF93DF93CDB7DEB72A97C4
:102980000FB6F894DEBF0FBECDBF0E947C040E943C
:10299000AA14882309F471C08AE7C82E82E0D82ED1
:1029A00010E000E0B02E802F0E94E104E82EF60136
:1029B000F1906F01F81609F45AC08091350381FD3A
:1029C0000E94E70490E080E0FE242F2D30E0482FA5
:1029D000B901082E02C0759567950A94E2F760FF69
:1029E00041C08E83BF8281E090E06C0102C0CC0CBC
:1029F000DD1C4A95E2F72E2D30E02C213D21232BC2
:102A000009F480E088870E9475228160782F9A8778
:102A100089874E815F8168858A850E949615F801B5
:102A2000E658FD4F80818C2580830E9496240E9469
:102A3000501490917902891789F10E945014809363
:102A400079022A960FB6F894DEBF0FBECDBFDF9194
:102A5000CF911F910F91FF90EF90DF90CF90BF909B
:102A60000C94070701968630910509F0B0CF0F5FEF
:102A70001F4F0E30110509F095CF8FEF89838A83A0
:102A80001B820E9475228160782F9D838C834981EF
:102A90005A816B818D810E949615C7CF2A960FB6F9
:102AA000F894DEBF0FBECDBFDF91CF911F910F9184
:102AB000FF90EF90DF90CF90BF900895CF93DF937A
:102AC000DC018C91682F70E021E030E001C0220F22
:102AD0008A95EAF711964C91119750E0EA01C85790
:102AE000DD4F988112968C9112978823C9F08091BE
:102AF00098028823C1F086E0849FF001859FF00D45
:102B00001124E60FF71FEE0FFF1FEF5DFE4F408110
:102B100051814D935C93292B2883DF91CF910895A8
:102B2000892F8223E6CF20952923F6CFCF93DF93F9
:102B3000CDB7DEB72B970FB6F894DEBF0FBECDBF73
:102B4000942F4F83252F588769877A878B874A85EB
:102B50005B8581E0452B31F02F3F19F481E09F3FE9
:102B600009F080E080FD04C0CE0107960E945E154A
:102B70001E821D8285E0FE013796DE0111960190CE
:102B80000D928A95E1F749815A816B817C818D8113
:102B90009E810E94071D2B960FB6F894DEBF0FBED4
:102BA000CDBFDF91CF910895FC01808191810E947A
:102BB000D41F92959F70963041F48091980291E0D5
:102BC000892780939802909397020895CF93C82FF6
:102BD000882309F4DCC08238C1F40E94501481FDBE
:102BE000D6C089E30E9402200E9446202FEF81EE8A
:102BF00094E0215080409040E1F700C0000089E35C
:102C00000E940920CF910C9446208338A1F40E94A1
:102C1000501480FDBCC083E50E9402200E94462023
:102C20002FEF81EE94E0215080409040E1F700C00A
:102C3000000083E5E5CF8438A1F40E94501482FDA2
:102C4000A6C087E40E9402200E9446202FEF81EE5A
:102C500094E0215080409040E1F700C0000087E4FC
:102C6000CFCF8CEF8C0F813A48F48C2F0E94B52681
:102C700081118DC08C2F0E940220C4CF80E28C0F66
:102C8000883048F4C77081E001C0880FCA95EAF720
:102C90000E947C20B7CF8BE58C0F833068F481E8ED
:102CA00090E0C53A31F083E890E0C63A11F482E84A
:102CB00090E0CF910C94721488E58C0F853108F068
:102CC0005EC082EE90E0C83A09F456C089EE90E00A
:102CD000C93A09F451C08AEE90E0CA3A09F44CC0EE
:102CE00085EB90E0CB3A09F447C086EB90E0CC3A14
:102CF00009F442C083EB90E0CB3BF1F184EB90E030
:102D0000CC3BD1F187EB90E0CD3AB1F18CEC90E087
:102D1000C03B91F18DEC90E0CE3A71F183E891E007
:102D2000CF3A51F18AE891E0C13B31F182E991E07B
:102D3000C23B11F184E991E0C33BF1F081E292E002
:102D4000C43BD1F083E292E0C53BB1F084E292E073
:102D5000C63B91F085E292E0C73B71F086E292E0DB
:102D6000C83B51F087E292E0C93B31F090E080E04F
:102D7000CA3B11F48AE292E0CF910C948814C03FD0
:102D800030F08C2F0E949F23CF910C948B24CF91F5
:102D90000895882309F452C0823871F40E945014B7
:102DA00081FF4CC089E30E9402200E94462089E3F3
:102DB0000E9409200C944620833859F40E94501434
:102DC00080FF3CC083E50E9402200E94462083E5EC
:102DD000EFCF843859F40E94501482FF2FC087E44B
:102DE0000E9402200E94462087E4E2CF9CEF980FC9
:102DF000913AF0F290E2980F983050F4877091E099
:102E000001C0990F8A95EAF7892F0E948220D2CFBC
:102E10009BE5980F933020F490E080E00C947214BE
:102E200098E5980F953120F490E080E00C94881498
:102E3000803F20F00E9407240C948B24089588235F
:102E400021F00E947C200C9446200895882321F0D4
:102E50000E9482200C94462008958F929F92AF92F8
:102E6000BF92DF92EF92FF920F931F93CF93DF9366
:102E70007C01D62FC72FFC01058102950F701281AE
:102E800011110E949B200E943F20D82E882371F0B0
:102E9000112331F180E28D0F883010F182E00E9421
:102EA00029200E943F2091E0D82ED926BC2EB29432
:102EB0009FE0B922EB2DF0E0E05AF84E0C94D931A6
:102EC00072177217C217C21702182A18991909180F
:102ED0006C18091807190719901909180918CB193E
:102EE000D12CE4CF0C2F0F70C07F11F00295007F22
:102EF0001123A9F0002359F080E28D0F883010F0E3
:102F0000D11109C0802F0E947C200E9446208D2F65
:102F10000E94E61514C0802F0E948D20F6CF8D2FC1
:102F20000E94C916002359F080E28D0F883010F0FE
:102F3000D11124C0802F0E9482200E944620DD20D3
:102F400009F454C20E941C2080FD50C2F701128275
:102F50000E9416200E949A1EC7010E94021A0E9417
:102F60001620DF91CF911F910F91FF90EF90DF908E
:102F7000BF90AF909F908F900C94BB1E802F0E94AB
:102F80009320DBCFFC2FFF70BF2EC07FC03219F023
:102F9000B29480EFB822DD2339F0D13019F111233A
:102FA00059F1002321F1B3CF112381F0011106C0A3
:102FB0000E94B5208B290E941F17C1CF0130C1F795
:102FC0000E94B5208B290E94AF20B9CF011106C005
:102FD0000E94B2208B2D0E942617B1CF013009F438
:102FE000AECFF6CF112329F0023008F0A8CF8B2DF9
:102FF000E2CF0111A4CFEECF002361F38D2F0E9409
:10300000C9169DCF8C2F86958695837079F0813077
:10301000B9F0F8E0BF1609F49BC0BF1608F48FCFD3
:1030200086EF8B0D823008F493C089CF8D2F9C2FB3
:103030009370111102C090E080E00E9472147FCF63
:103040008D2F9C2F9370111102C090E080E00E94A0
:10305000881475CF112309F1D53F99F0D63FB9F007
:10306000D43F49F48091A8039091A9038160909383
:10307000A9038093A8038D2F0E949F230E948B2475
:103080005ECF8091A8039091A9038260F0CF8091D8
:10309000A8039091A9038460EACFD53F89F0D63F79
:1030A000A9F0D43F49F48091A8039091A9038E7FA1
:1030B0009093A9038093A8038D2F0E940724DECF4D
:1030C0008091A8039091A9038D7FF2CF8091A803EE
:1030D0009091A9038B7FECCF8C2F837009F04BC0AC
:1030E000111136C02D2F229526952770220F220F01
:1030F0006D2F6F70862E912CB12CA12C022E04C046
:10310000880C991CAA1CBB1C0A94D2F760E070E0E2
:10311000CB01D4FF0FC06FE070E080E090E004C00E
:10312000660F771F881F991F2A95D2F760957095B3
:1031300080959095C695C695C370C23071F0A0F485
:10314000682979298A299B29C13091F00E944C1E57
:103150000E9450140E940707F2CE682979298A2913
:103160009B290E945E1EF4CF0E944C1EC501B40133
:103170000E943A1EEDCF8695112311F08C2F81709D
:10318000882331F32D2F229526952770220F220FA9
:103190006D2F6F70862E912CB12CA12C022E04C0A5
:1031A000880C991CAA1CBB1C0A94D2F760E070E042
:1031B000CB01D4FF0FC06FE070E080E090E004C06E
:1031C000660F771F881F991F2A95D2F76095709513
:1031D00080959095C695C695C370C23051F080F425
:1031E000682979298A299B29C13071F00E94111F11
:1031F000AFCF682979298A299B290E94231FA8CF4C
:103200000E94111FC501B4010E94FF1EA1CFE0E280
:10321000ED0FE53108F065C0F0E0EF5EF64E0C947E
:10322000D9312619261926192619261926192619DB
:103230002619261926192619261926192619261996
:103240002619371944194B1952195C19DF708C2F44
:103250008F71112331F00E949A1E8D2F0E941F172B
:10326000D8CE0E94BB1E8D2F0E942617D2CE1123CE
:1032700039F00111CECE8C2F8F710E94DE1EC9CE87
:10328000023008F0C6CEF7CF8C2F8F71112339F0A2
:103290000E949A1EBECE8C2F8F711123C9F30E94FB
:1032A000BB1EB7CE112329F08C2F8F710E94851E73
:1032B000B0CE0E94801EADCE112349F0CF718C2F6D
:1032C0000E949A1E63E08C2F0E942020A2CE81E0F3
:1032D0000E942920023008F49CCE82E00E9429201E
:1032E00098CE112349F0002321F08D2F0E94E6157E
:1032F00090CE8C2F8F71CCCF002379F0D93349F445
:103300002FEF87EE93E0215080409040E1F700C01E
:1033100000008D2F0E94C9167CCE8C2F8F71BFCFDD
:103320004C2F4F706D2FC7010E94B5060E94B01D33
:1033300006CED23F71F1C8F4D03F01F1D13FB9F1CF
:1033400080919702002309F446C0882341F08091C0
:10335000980291E0892780939802109297028D2F0E
:10336000112389F10E94E61516C0D43FD9F078F0F8
:10337000D53F31F711110FC081E006C0112359F07C
:103380008091980291E089278093980204C081E09F
:103390001827109398024C2F4F706D2FC7010E9471
:1033A000EE0937CE1111F7CF10929802F4CF112306
:1033B00039F080919702882319F310929702EBCF8E
:1033C0000023F1F2E8CF0E94C91686E0F7011192BE
:1033D0008A95E9F7E0CF8823F1F21111DCCF8091D3
:1033E000980291E0892780939802E7CFDF91CF91EF
:1033F0001F910F91FF90EF90DF90BF90AF909F9043
:103400008F9008950F931F93CF93DF93EC019881D2
:1034100089812B813C81232B39F08F3F19F481E086
:103420009F3F19F080E001C081E080FD17C0CE0110
:103430000E941907882391F0688179818A810E940E
:10344000DE1F8C010E94351F0E94371EB801CE017D
:10345000DF91CF911F910F910C942D17DF91CF9198
:103460001F910F9108950E949B200E94AC200E9402
:1034700010200E9446200E942A250E948B2490E062
:1034800080E00E94721490E080E00C9488140E9406
:103490008A200C94331A0E94D41FE92FE295EF7012
:1034A000E250EE30E0F4F0E0E85AF54E0C94D931F9
:1034B000661A661A6F1A6F1A711A6F1A6F1A6F1AD4
:1034C000661A661A761A6F1A6F1A761A803F19F002
:1034D00020F4803E20F481E00895843FE1F380E011
:1034E0000895803EC0F3813FD1F7F5CF93FB882745
:1034F00080F90895CF93DF9300D000D01F92CDB70D
:10350000DEB70F900F900F900F900F90DF91CF913B
:103510000895CF93DF9300D000D000D0CDB7DEB7B1
:1035200026960FB6F894DEBF0FBECDBFDF91CF91C8
:1035300008951F93CF93DF93C091990216E0809175
:103540009A028C1304C0DF91CF911F910895D0E0AF
:103550001C9FF0011D9FF00D1124E556FD4F408189
:10356000518162817381848195810E94891A21969B
:10357000C770E5CF4091CB025091CC026091CD0253
:103580007091CE028091CF029091D0020C94891A52
:103590001F93CF93DF938091D002807FD1F48091ED
:1035A000CD028823B1F080919902D0919A02B09116
:1035B000CB02C091CC024091CE025091CF02A1E04B
:1035C000BF3F09F0A0E0BA016095709516E0D813EE
:1035D00004C0DF91CF911F91089521E0411551055D
:1035E00021F02A2FCF3F09F020E090E020FD38C0E5
:1035F000189FF001199FF00D1124E556FD4F218110
:103600002C132EC020812B132BC02281211128C006
:10361000238134812417350700F1241B350B283C06
:103620003105F0F42091D0022F7020612093D00258
:1036300026E0289FF001299FF00D1124E056FD4F50
:1036400080818F70806180838BEC92E00E94021AEF
:10365000DF91CF911F910C94991A260F371FDFCF5E
:1036600001968770B4CFAF92BF92CF92DF92EF9264
:10367000FF920F931F93CF93DF93CDB7DEB7619780
:103680000FB6F894DEBF0FBECDBF8C0185E0F80108
:10369000DE011D9601900D928A95E1F7D8014C91BB
:1036A00011965C9111971296EC903091CB0260913B
:1036B000CC028091CE029091CF0221E0009731F0B0
:1036C0006F3F19F421E03F3F09F020E0B22FB170C5
:1036D000BB2E20FD80C1F801C380D480A090CD0214
:1036E000AA2009F427C1C816D906D0F1D601A81B13
:1036F000B90BCD01FF24F394883C910508F0F12C1F
:103700008091D002982F907FFF2009F4CEC09111B4
:1037100087C0FE2C651329C0341327C0E11025C0D3
:103720008F7080618093D0020E94BA1A8BEC92E075
:103730000E94021A8091D002F80185838F2D619634
:103740000FB6F894DEBF0FBECDBFDF91CF911F91B2
:103750000F91FF90EF90DF90CF90BF90AF900895C2
:10376000809590958C0D9D1DC5CF81E0CD2831F0C1
:103770005F3F19F481E04F3F09F080E080FD24C0F5
:1037800081E08E25F82FF170DF2E80FF3FC0809101
:10379000990220919A0236E0821318C04D875E8705
:1037A0008D859E850E94D41F292F22952F7022304F
:1037B00008F1243030F59F7009F1D80115969C91DD
:1037C000907FE1F4FB2CBACF80E0DCCF90E0389F13
:1037D000F001399FF00D1124E556FD4F618156131C
:1037E00006C06081461303C062816E110FC001964E
:1037F0008770D2CF9F7011F0882321F3805E8830CC
:1038000008F3C8010E94021ABD2CDCCFEE2009F497
:1038100095CF8091D00281608093D002F12C8ECF21
:10382000651314C0341312C0E11010C0F801858371
:10383000C8010E94021A86E0F801ABECB2E00190E8
:103840000D928A95E1F70E94BA1A78CF4D875E876C
:103850008D859E850E944B1A882319F1EE2009F16F
:103860008091D002803270F02091CB023091CC0256
:1038700038872F831986DB86CA868C87CE01079608
:103880000E94021A86E0F801ABECB2E001900D92C2
:103890008A95E1F70E94C81A0E94BA1AFF24F3948D
:1038A0004DCFC8010E94021AF9CF911113C07C2D8F
:1038B000D98AC88A6E2D89890E947A1A8BEC92E087
:1038C0000E94021A86E0EBECF2E0DF011D928A957D
:1038D000E9F7B9CF651312C0341310C0E1100EC060
:1038E000F8018583C8010E94021AEBECF2E086E041
:1038F000DF011D928A95E9F7FA2C20CF4D875E876C
:103900008D859E850E944B1A882359F2EE2049F23C
:103910008091D002803208F4B5CF2091CB02309153
:10392000CC023A8329831B82DD82CC828E83CE0136
:103930000196A6CFC816D90638F1F601E81BF90B97
:10394000CF01F12C883C910508F03DC0FE2CEE2003
:1039500009F4A7CF651326C0341324C08091D00288
:1039600080FD17C0982F907FA1F0D80115968C93F9
:103970001597903F09F45CCF982F907F905F8F70E0
:10398000892B15968C9354CF809590958C0D9D1D09
:10399000D8CF86E0F801ABECB2E001900D928A95A9
:1039A000E1F7CCCE4D875E878D859E850E944B1AB0
:1039B000811168CF8091D00281608093D002C801CC
:1039C0000E94021ABBCE7C2DD98AC88A6E2D8989A5
:1039D0000E947A1A77CFEE2009F463CF4D875E8775
:1039E0008D859E850E944B1AF82E882309F459CFA5
:1039F00086E0F801ABECB2E001900D928A95E1F718
:103A00008BEC92E00E94D4150E94C81A1CCF1F9321
:103A1000CF93DF93CDB7DEB72C970FB6F894DEBF08
:103A20000FBECDBF4F83588769877A878B879C8766
:103A3000CE0107960E94331B882309F442C09F8160
:103A400088852A853B85232B39F08F3F19F481E047
:103A50009F3F19F080E001C081E080FD08C04F81E8
:103A6000588569857A858B859C850E94891A16E020
:103A70008091990290919A02891709F467C0819FF9
:103A8000C001112485569D4F0E94331B882309F4E1
:103A90005DC0E09199021E9FF0011124E556FD4F93
:103AA0004081518162817381848195810E94891A4C
:103AB0008091990290E001968770992780939902EE
:103AC000D7CF86E0FE013796DE01119601900D9268
:103AD0008A95E1F79F8188852A853B85232B39F0DC
:103AE0008F3F19F481E09F3F19F080E001C081E031
:103AF00080FDBDCF20919A0230E0C9010196877008
:103B00009927409199024817190699F096E0929FDB
:103B1000D001939FB00D1124A556BD4FFE013196E3
:103B200001900D929A95E1F780939A020E94991A5A
:103B30009ECF0E94471A10929A021092990286E034
:103B4000EBECF2E0DF011D928A95E9F72C960FB6B7
:103B5000F894DEBF0FBECDBFDF91CF911F910895C6
:103B6000EF92FF920F931F93CF93DF938C01892BDA
:103B700081F0F12CEE24E394E8012196F801849180
:103B8000843770F4843008F05FC08130B1F0823047
:103B9000A1F1DF91CF911F910F91FF90EF900895C8
:103BA000853709F44CC008F43DC09CE7980F903766
:103BB00080F78F770E94C91649C00E5F1F4FFE0124
:103BC000849190E2980F983060F48770FE2D01C0C8
:103BD000FF0F8A95EAF78F2F0E949E200E944620B1
:103BE00002C00E94E6158F2D815030F2EFE9FFE010
:103BF0003197F1F700C00000F7CF0E5F1F4FFE01B5
:103C0000849190E2980F983050F48770FE2D01C097
:103C1000FF0F8A95EAF78F2F0E94A420DFCF0E9422
:103C2000C916E1CF0E5F1F4FFE01C491C150D8F2FB
:103C30008FE99FE00197F1F700C00000F7CF0E5F1A
:103C40001F4FFE01F490CFCF0E94E6158E01CBCF1F
:103C500008950C94281E0E94291E60930C037093F3
:103C60000D0380930E0390930F030C94331A089561
:103C70000C942B1E0F931F9300910C0310910D03B6
:103C800020910E0330910F03602B712B822B932B0D
:103C90001F910F910C942B1E0F931F9300910C03F7
:103CA00010910D0320910E0330910F0360237123B7
:103CB000822393231F910F910C942B1E0F931F931C
:103CC00000910C0310910D0320910E0330910F030E
:103CD00060277127822793271F910F910C942B1E29
:103CE0000C94281E0C94701E0E94721E6093080390
:103CF0007093090380930A0390930B030C94331A77
:103D000060E070E0CB010C94741E0F931F9341E0B0
:103D100050E060E070E08A019B0104C0000F111FB9
:103D2000221F331F8A95D2F7C901B8011F910F9145
:103D30000C94741E0F931F9341E050E060E070E01C
:103D400004C0440F551F661F771F8A95D2F78091D4
:103D5000080390910903A0910A03B0910B038A0113
:103D60009B01082B192B2A2B3B2BC901B8011F9152
:103D70000F910C94741E0F931F9341E050E060E08C
:103D800070E004C0440F551F661F771F8A95D2F755
:103D9000CB01BA01609570958095909500910803CC
:103DA0001091090320910A0330910B0360237123C2
:103DB000822393231F910F910C94741E0F931F93D2
:103DC00041E050E060E070E004C0440F551F661F02
:103DD000771F8A95D2F78091080390910903A091EB
:103DE0000A03B0910B038A019B01082719272A2790
:103DF0003B27C901B8011F910F910C94741E0F93BA
:103E00001F93009108031091090320910A03309138
:103E10000B03602B712B822B932B1F910F910C9412
:103E2000741E0F931F9300910803109109032091B2
:103E30000A0330910B0360237123822393231F9184
:103E40000F910C94741E0F931F930091080310910F
:103E5000090320910A0330910B0360277127822701
:103E600093271F910F910C94741E0895292F220FF0
:103E7000920F990F890F982F977071E001C0770FFB
:103E80009A95EAF786958695869525E0829FC001EA
:103E9000112450E040E0A62FB0E0FC01E40FF51F34
:103EA000EF52FD4F60819D01042E02C0369527958B
:103EB0000A94E2F7217021952627272326272083BD
:103EC0004F5F5F4F4530510541F70895292F220F6D
:103ED000290F220F820F982F9770869586958695C9
:103EE00045E0849F9001112470E060E080E0F901DA
:103EF000E60FF71FEF52FD4F408150E0092E02C040
:103F0000569547950A94E2F741705527062E01C051
:103F1000440F0A94EAF7842B6F5F7F4F6530710579
:103F200031F70895BF92CF92DF92EF92FF920F93F5
:103F30001F93CF93DF938C01C0900803D0900903A7
:103F4000E0900A03F0900B0380910C0390910D0315
:103F5000A0910E03B0910F03C82AD92AEA2AFB2A9E
:103F6000CFE1D0E0BC2ED701C6010C2E04C0B6951F
:103F7000A795979587950A94D2F780FD0EC0219753
:103F800088F7B12C8B2DDF91CF911F910F91FF906E
:103F9000EF90DF90CF90BF900895B8018C2F0E94D2
:103FA0000B0A019761F3EECFCF93DF93EC010E94F0
:103FB000921FBE01DF91CF910C940B0A1F93CF93F8
:103FC000DF93EB0190919602992331F0CB01DF91C1
:103FD000CF911F910C94D41F882379F0CB010E94BC
:103FE000921F182F682FCE010E94361FBE01812F0D
:103FF000DF91CF911F910C940B0ACB010E94661F99
:10400000182FF4CF682F80910F01909110010C941C
:10401000D221682F80910F01909110010C94DD2125
:1040200080910F01909110010C94E8218091100370
:1040300085958595859508958091100387700895DD
:1040400098E0899F90011124622B609310030C94D7
:104050009A1E909110038095892380931003282F36
:10406000277061F4282F082E000C330B92171306CB
:1040700029F08595859585950C94BB1E08959091A2
:104080001003977081E009F480E00895E0910F013A
:10409000F0911001809134038083E0910F01F09141
:1040A0001001808190913303892B8083E0910F016F
:1040B000F0911001808190913203892B808390913F
:1040C0001103992381F0E0910F01F091100180819B
:1040D000892B808380910F01909110010E9475219E
:1040E00081111092110380910F01909110010C9495
:1040F0005C1480913403089590913403892B80934C
:1041000034030895982F90958091340389238093E8
:104110003403089510923403089590913303892B4A
:10412000809333030895982F9095809133038923CA
:1041300080933303089510923303089590913203CE
:10414000892B809332030895982F909580913203A4
:104150008923809332030895109232030895809347
:104160001103089510921103089580911103089589
:10417000CF92DF92EF92FF926C01EE24FF2420E0B9
:10418000C114D104E104F10419F0C701B60120E122
:10419000C72ED82EE92EFF24C114D104E104F10466
:1041A00019F0285FC701B6016B017C0154E0F69459
:1041B000E794D794C7945A95D1F7C114D104E10478
:1041C000F10419F02C5FC701B6016B017C0142E0DC
:1041D000F694E794D794C7944A95D1F7C114D104C3
:1041E000E104F10419F02E5FC701B6019695879599
:1041F00077956795672B682B692B09F02F5F822FC6
:10420000FF90EF90DF90CF90089590E080E00E94C3
:10421000FA3121E08D3E9E4F09F020E0822F089573
:1042200082E090E00C94EC3183E090E00C94EC316F
:1042300084E090E00C94EC31682F84E090E00C94E2
:104240000032AB01BC018FE090E00C941232AB0164
:10425000BC0183E190E00C94123260E070E0CB018D
:104260000C94272160E070E0CB010E9421210C9486
:104270002D216DEE7EEF90E080E00E941E3260E026
:1042800082E090E00E94003260E083E090E00E94D3
:10429000003210920C0310920D0310920E03109234
:1042A0000F0360E084E090E00E94003260E085E06F
:1042B00090E00E94003260E086E090E00E940032D0
:1042C0006FEF87E090E00E94003240E050E0BA01DA
:1042D00088E090E00E94123260E08DE090E00E9461
:1042E00000320C9432210C943921FC0131969C014E
:1042F000205E3F4F80E0919191118F5FE217F307AD
:10430000D1F708959C01FC0132969FEF80E0419126
:10431000461751F09F3F19F4411101C0982F8F5F4C
:104320008E31A9F79F3F09F40895290F311D97FD9C
:104330003A95F90162830895FC01329680962191A5
:10434000261303C0DF0111971C92E817F907B9F78C
:104350000895E62FE695E695E695EF3169F0E80FCA
:10436000F92FF11D677021E030E001C0220F6A953E
:10437000EAF78181822B81830895E62FE695E69501
:10438000E695EF3171F0E80FF92FF11D677021E02C
:1043900030E001C0220F6A95EAF720958181282339
:1043A0002183089520912001222329F02091AE033A
:1043B00027FD0C94A9210C94822120912001222315
:1043C00029F02091AE0327FD0C94BD210C949C2173
:1043D000FC01319680961192E817F907E1F70895EC
:1043E00008950C94F0210E94F1218091B40384304F
:1043F00049F11092360388E190E020E40FB6F8947A
:10440000A895809360000FBE2093600080E00E941A
:1044100007070E94F12183B7817F846083BF83B740
:10442000816083BF7894889583B78E7F83BF0FB6F2
:10443000F894A89580916000886180936000109244
:1044400060000FBE08950895CF930E942C040E942F
:104450007C040E942322C0E08C2F0E94E104811181
:1044600005C0CF5FCE30C1F7CF91089581E0FCCF7A
:1044700008950C9438220E94471A0E9450140E94FA
:1044800007070C9439221F920F920FB60F92112436
:104490008F939F93AF93BF9380913603811113C085
:1044A0008091AA039091AB03A091AC03B091AD03AE
:1044B0004196A11DB11D8093AA039093AB03A093D5
:1044C000AC03B093AD03BF91AF919F918F910F90CB
:1044D0000FBE0F901F90189582E084BD93E095BDAC
:1044E0009AEF97BD80936E0008952FB7F89480914E
:1044F000AA039091AB03A091AC03B091AD032FBF81
:104500000895CF92DF92EF92FF920F931F932FB7F0
:10451000F8944091AA035091AB036091AC03709161
:10452000AD032FBF6A017B01EE24FF248C0130E034
:1045300020E0C016D106E206F30650F0481B590BE6
:10454000CA011F910F91FF90EF90DF90CF900895D7
:1045500041505109F3CF78941F920F920FB60F92EA
:1045600011248F939F93AF93BF938091AA0390914F
:10457000AB03A091AC03B091AD030196A11DB11D99
:104580008093AA039093AB03A093AC03B093AD03C5
:10459000BF91AF919F918F910F900FBE0F901F9081
:1045A0001895F89481E08093E00080E28093D80031
:1045B000E9ECF0E010828FE19EE40197F1F700C092
:1045C00000001DBA109268001CBC10BE1FBA1092E9
:1045D0007A0010926E0010926F001092710010928B
:1045E00072001082ECEBF0E0108214B817B81AB821
:1045F0001DB810BA108215B818B81BB81EB811BA79
:104600000C94003F08950E940521811102C00E9470
:1046100073210E941021809335030E94182190E09D
:104620009093AF038093AE030E941421682F70E033
:1046300090E080E00C94381E80913A0380FF12C015
:104640006091140185E0689FB0011124759567950C
:104650007595679560387105A8F561157105A1F12B
:10466000862F089581FF09C06091140185E0689F3D
:10467000B001112475956795EDCF82FF07C0609159
:10468000140185E0689FB0011124E4CF20913B0321
:104690002223A9F0909113016091140185E0689F95
:1046A000B00111242917B0F6269FA001279F500DB5
:1046B0001124692F70E0CA010E94C531CBCF65E09B
:1046C00070E0CECF8FE7089581E0089580913A039E
:1046D00080FF0CC06091120170E07595679575952B
:1046E00067956115710549F1862F089581FF06C010
:1046F0006091120170E075956795F3CF609112019A
:1047000082FD0BC090913B039923A1F060911101B0
:1047100080911201961738F0682F70E060387105AB
:1047200000F38FE70895899FC001112470E00E9473
:10473000C531F4CF61E070E0D7CF81E00895803FCC
:1047400031F40E941C23819580933E030895813F9C
:1047500019F40E941C23F8CF823F31F40E941C23DD
:10476000819580933D030895833F19F40E941C2393
:10477000F8CF893F29F40E94662380933F03089570
:104780008A3F21F40E9466238195F7CF8B3F31F455
:104790000E94662381958093400308958C3F19F40D
:1047A0000E946623F8CF843F31F480913C038160FE
:1047B00080933C030895853F21F480913C038260FF
:1047C000F7CF863F21F480913C038460F1CF873F8F
:1047D00021F480913C038860EBCF883F21F48091E5
:1047E0003C038061E5CF8D3F31F480913A038160D5
:1047F00080933A0308958E3F21F480913A038260BA
:10480000F7CF8F3FB9F780913A038460F1CF803FB3
:10481000C1F480913E0387FD10923E0380913D03D9
:1048200081110EC080913E0381110AC080913F0327
:10483000811106C080914003811102C010923B0398
:104840000895813F29F480913E0318162CF3E6CF9A
:1048500090913D03823F29F497FFE0CF10923D03F2
:10486000DDCF833F19F41916CCF3D8CF893F39F443
:1048700080913F03181694F610923F03CFCF8A3FE2
:1048800029F480913F0387FFC9CFF6CF8B3F39F4DE
:104890008091400387FFC2CF10924003BFCF8C3F6F
:1048A00029F4809140031816BCF3B8CF843F31F44B
:1048B00080913C038E7F80933C03B0CF853F21F4F1
:1048C00080913C038D7FF7CF863F21F480913C039C
:1048D0008B7FF1CF873F21F480913C03877FEBCF23
:1048E000883F21F480913C038F7EE5CF8D3F31F4EA
:1048F00080913A038E7F80933A0390CF8E3F21F4CC
:1049000080913A038D7FF7CF8F3F09F087CF809159
:104910003A038B7FF0CF8CE393E00E9467140E94F0
:104920007522909338038093370308951F93CF9394
:10493000DF9380913703909138030E948122AC016C
:1049400090913B032091150130E0911106C0209118
:1049500039038AE0289F900111244217530780F001
:1049600080913D03D0913E0310913F03C0914003DD
:1049700081110AC0D1116AC0111168C0C11166C08D
:10498000DF91CF911F9108959F3F19F09F5F909302
:104990003B03181624F40E941C2380933D0380914E
:1049A0003D0387FF05C00E941C23819580933D0332
:1049B0001D1624F40E941C2380933E0380913E0325
:1049C00087FF05C00E941C23819580933E03309190
:1049D0003D033323C1F020913E032223A1F045EB98
:1049E0003403C0011124892F911101C081E080930B
:1049F0003D0345EB240390011124832F311101C0A5
:104A000081E080933E03111624F40E946623809374
:104A10003F0380913F0387FF05C00E946623819575
:104A200080933F031C1624F40E9466238093400366
:104A30008091400387FF05C00E9466238195809383
:104A40004003DF91CF911F910C948B249F3F09F07D
:104A50009DCFAECF85E0ECE3F3E0DF011D928A95B8
:104A6000E9F710923B0310923A030895833081F1E5
:104A700028F4813059F08230D1F00895853009F45E
:104A800049C0B8F1863009F456C0089580913903C1
:104A9000482F460F5527551F4F3F510524F4680FE7
:104AA0006093390308958FEF8093390308958091BF
:104AB0001501482F460F5527551F4F3F510524F428
:104AC000680F6093150108958FEF80931501089585
:104AD00080911401482F460F5527551F4F3F510510
:104AE00024F4680F6093140108958FEF80931401EC
:104AF000089580911301482F460F5527551F4F3FAA
:104B0000510524F4680F6093130108958FEF80938B
:104B10001301089580911201482F460F5527551F04
:104B20004F3F510524F4680F6093120108958FEFF1
:104B300080931201089580911101482F460F552747
:104B4000551F4F3F510524F4680F609311010895DC
:104B50008FEF809311010895833011F128F4813093
:104B600049F0823091F00895853081F120F186304E
:104B7000C1F1089580913903681720F4861B809352
:104B8000390308951092390308958091150168172B
:104B900020F4861B80931501089510921501089545
:104BA00080911401681720F4861B809314010895E6
:104BB00010921401089580911301681720F4861B48
:104BC00080931301089510921301089580911201AA
:104BD000681720F4861B8093120108951092120129
:104BE000089580911101681720F4861B80931101AC
:104BF00008951092110108950F931F9341E050E022
:104C000060E070E08A019B0104C0000F111F221FA9
:104C1000331F8A95D2F7C901B8010E94381E1F912F
:104C20000F910C94471A873208F043C08E3108F078
:104C30008BC0803109F47DC0C8F4873009F46AC0A4
:104C400028F4863009F45CC080E008958B3009F4C4
:104C500055C08E30C9F790913503892F8B7F92FF15
:104C600084608093350382FD20C048C0863109F4FA
:104C700045C068F4813141F70E94471A9091AE0314
:104C8000892F97FB87F980588093AE0337C089310D
:104C9000A9F18B31C9F690913503892F8D7F91FF52
:104CA00082608093350381FF29C080913503816044
:104CB0003DC0883319F150F4893221F0853311F069
:104CC000873211F680E00E94FC2518C08334D1F3AE
:104CD00028F48A3308F4B8CF8953F5CF883409F023
:104CE000B3CF0E94471A2FEF83ED90E3215080400D
:104CF0009040E1F700C000000E94D12281E00895B9
:104D000080913503817F8E7F8093350381E080938E
:104D10004203089590913503892F8E7F90FF816023
:104D20008093350380FDEACF897F877F80933503A9
:104D3000E5CF90913503892F877F93FF886080931B
:104D4000350383FDB2CFDACF8D51BDCF80E008951A
:104D50000C94A6268E518A3030F4E82FF0E0E75309
:104D6000FE4F8081089580E00895CF93C82F8091F1
:104D700042038130E1F038F0823009F43FC01092F4
:104D8000420380E012C0E0910F01F0911001808198
:104D9000813111F08232A9F78C2F0E94A626811151
:104DA0001DC08C2F0E9413268170CF910895E09131
:104DB0000F01F09110018081813171F3823261F332
:104DC0008C2F0E94A826811110C0C43181F048F4B4
:104DD000CB3059F0C03171F080E0E6CF81E090E057
:104DE000E3CFC93221F0C833B9F781E0DDCF1092AB
:104DF0004203F2CF82E080934203F7CFC93219F128
:104E000088F4C43101F120F4C73081F181E0CDCFC5
:104E100082EE8C0F8630D0F78C2F0E94AA268093CA
:104E20004103F4CFCE3401F140F46AE0CB3471F7A2
:104E3000809141030E943625E9CFC13579F061E0C8
:104E4000C235B1F3E3CF80914103882319F010926A
:104E50004103DCCF81E080934203A7CF61E08091E2
:104E600041030E94AC25D2CF6AE0F9CF10923903FA
:104E700084E180931501C09314018CE380931301A6
:104E800088E08093120188E280931101BFCF809166
:104E9000630308950F931F93CF93DF9300D01F9266
:104EA000CDB7DEB78C010E94B929823011F0843071
:104EB00019F583E089831B830A838093E9008FEFD0
:104EC0009091E800815095FD06C095ED9A95F1F717
:104ED00000008111F5CF8091E80085FF0DC050E002
:104EE00040E063E070E0CE0101960E94D6298091F7
:104EF000E8008E778093E8000F900F900F90DF917D
:104F0000CF911F910F910895CF93DF9300D01F92FF
:104F1000CDB7DEB72091B403243031F522E02983E8
:104F2000805891099B838A8383E08093E9008FEF07
:104F30009091E800815095FD06C095ED9A95F1F7A6
:104F400000008111F5CF8091E80085FF0DC050E091
:104F500040E063E070E0CE0101960E94D629809186
:104F6000E8008E778093E8000F900F900F90DF910C
:104F7000CF910895CF93DF93EC010E94B92982303D
:104F800011F08430F9F482E08093E9008FEF909182
:104F9000E800815095FD06C095ED9A95F1F7000067
:104FA0008111F5CF8091E80085FF0CC050E040E012
:104FB00065E070E0CE010E94D6298091E8008E77EE
:104FC0008093E800DF91CF910895CF93DF93EC01B8
:104FD0000E94B929823011F08430F9F480912001C7
:104FE0008823F1F08091AE0387FF1AC084E080939C
:104FF000E9008FEF9091E800815095FD06C095E1A2
:105000009A95F1F700008111F5CF8091E80050E00A
:1050100040E060E270E085FD1AC0DF91CF91089515
:1050200081E08093E9008FEF9091E800815095FD39
:1050300006C095ED9A95F1F700008111F5CF8091AA
:10504000E80085FFEACF50E040E068E070E0CE0184
:105050000E94D6298091E8008E778093E80080E254
:10506000FE01A3E4B3E001900D928A95E1F7D5CF5C
:105070008091B303811109C00E94662B0E94C32B4B
:105080008091E20084608093E20008951092B3035F
:105090000895089508950C943B2242E061EC81E06C
:1050A0000E94E42A42E061EC82E00E94E42A42E0AD
:1050B00061EC83E00E94E42A42E261EC84E00C941B
:1050C000E42A8091B603833009F455C030F481306E
:1050D00071F1823009F491C008958A3009F47DC0DD
:1050E0008B3009F463C0893009F044C08091B50366
:1050F000813209F03FC08091B9039091BA030097C3
:1051000011F00397B9F58091E800877F8093E8005C
:105110008091E80082FF2AC08091F10080936303B0
:105120008091E8008B778093E8000C94182B809195
:10513000B503813AF9F48091E800877F8093E80015
:105140008091B9039091BA03892B61F460E283E402
:1051500093E070E00E94252A8091E8008B7780938D
:10516000E800089560E090E080E0F3CF8091B40320
:105170008111CECF08958091B503813AD9F78091FE
:10518000B9039091BA03892BA9F78091E800877F32
:105190008093E8008091E80080FFFCCF809120019F
:1051A0008093F1008091E8008E77BDCF8091B503A8
:1051B000813201F78091B9039091BA03892BD1F61E
:1051C0008091E800877F8093E8000E94182B8091EF
:1051D000B703809320010C94471A8091B503813264
:1051E00049F68091E800877F8093E8000E94182BA1
:1051F0008091B8038093640308958091B503813A48
:1052000009F0B8CF8091E800877F8093E800809113
:10521000E80080FFFCCF80916403C2CF84B7877F12
:1052200084BF0FB6F894A895809160008861809340
:105230006000109260000FBE80E8809361001092C1
:1052400061000E94A6140E94662B0E94C32B8091CD
:10525000E20084608093E20078940E944C2E0E94C9
:10526000AC1486E191E00E944B148091B403853028
:1052700029F00E94B4140E944613F7CF0E94F32134
:105280008091B203882389F30E942422882369F342
:105290000E94C029EACF0C944D29292F33272330AF
:1052A000310579F158F421303105F1F02230310522
:1052B00019F190E080E030E020E01AC021323105A1
:1052C000C9F122323105A9F76430710590F7FB016D
:1052D000EE0FFF1FE952FE4F208131816D527E4F4C
:1052E000FB01808190E004C082E190E029E535E097
:1052F000FA013183208308958DE690E02CEE34E0AE
:10530000F7CF99278130910579F040F082309105EF
:1053100071F0039771F6E2EBF4E002C0E8EEF4E01E
:10532000849190E09F01E4CFE0EDF4E0F9CFE8EB69
:10533000F4E0F6CF6430710508F0BBCF660F771F3D
:10534000FB01E152FE4F2081318189E090E0D0CF16
:105350000895CF93C82F0E94A829C0936503CF91C9
:1053600008958091B403843011F081E0089582E0C3
:10537000089580916503811102C00C94B1290895AC
:1053800080E189BD82E189BD09B400FEFDCF809135
:10539000D8008F7D8093D8008091E0008260809358
:1053A000E0008091E00081FDFCCF0895AF92BF92B4
:1053B000CF92DF92FF920F931F93CF93DF936C01F5
:1053C000EB018A010E94372BF82E811123C00115B1
:1053D000110539F0F80180819181C81BD90BC80EE5
:1053E000D91EB12CA12C2097A9F08091E80085FD51
:1053F00022C08091E8008E778093E80001151105A6
:10540000A1F0F80180819181A80EB91EB182A0821D
:1054100085E0F82E8F2DDF91CF911F910F91FF9096
:10542000DF90CF90BF90AF9008950E94372B8823D4
:10543000D1F2F82EEFCFF60181916F018093F10048
:105440002197FFEFAF1ABF0ACECFFC018091BB03BB
:105450009091BC0386179707A0F06115710529F498
:105460009091E8009E779093E80090E061157105B7
:1054700051F4911108C08091E80082FF35C080E0AE
:105480000895BC01F2CF8091B4038823C9F185301F
:10549000C9F18091E80083FD31C08091E80082FD70
:1054A000EACF8091E80080FFE1CF2091F300809166
:1054B000F200322F282F6115710519F028303105BF
:1054C00058F091E02830310509F090E02091E80093
:1054D0002E772093E800CACF81918093F10061502C
:1054E00071092F5F3F4FE7CF8091B403882341F0CC
:1054F000853041F08091E80083FFBDCF81E00895C1
:1055000082E0089583E00895FC018091BB039091AF
:10551000BC0386179707A0F06115710529F48091E7
:10552000E8008E778093E80090E06115710551F4F2
:10553000911108C08091E80082FF36C080E0089594
:10554000BC01F2CF8091B4038823D1F18530D1F131
:105550008091E80083FD32C08091E80082FDEACFAF
:105560008091E80080FFE1CF2091F3008091F2006C
:10557000322F282F6115710519F02830310558F0A8
:1055800091E02830310509F090E08091E8008E77B5
:105590008093E800CACF84918093F10031966150E6
:1055A00071092F5F3F4FE6CF8091B403882341F00C
:1055B000853041F08091E80083FFBCCF81E0089501
:1055C00082E0089583E00895982F973028F08F7037
:1055D0008093E90081E008959093E900242F762FCD
:1055E00050E0981731F07091EC002091ED0050914F
:1055F000F00021FD02C09F5FE8CF3091EB003E7FBD
:105600003093EB003091ED003D7F3093ED00309111
:10561000EB0031603093EB007093EC002093ED00D1
:105620005093F0002091EE0027FDE5CF80E0089533
:105630008091B50387FF13C08091E80082FF06C008
:105640008091E8008B778093E80004C08091B403D8
:105650008111F2CF08958091B4038823D9F380910A
:10566000E80080FFF8CF8091E8008E77ECCF2091A2
:10567000E4003091E50085E69091EC0090FF06C0D3
:105680009091E80090FF06C080E008959091E800B6
:1056900092FDFACF9091B403992391F0953091F057
:1056A0009091EB0095FD10C04091E4005091E50011
:1056B0002417350709F381509A01F1F684E0089523
:1056C00082E0089583E0089581E008950E94D42B3C
:1056D0000E94DC2BE0EEF0E0808181608083E8EDC9
:1056E000F0E080818F77808319BCA7EDB0E08C91CA
:1056F0008E7F8C9380818F7E80831092B303089578
:105700000F931F93CF93DF930E94D42B0E94DC2B27
:10571000C8EDD0E088818F7788838881806888830E
:1057200088818F7D888319BC1092B4031092B003D6
:105730001092B2031092B10300EE10E0F8018081E4
:105740008B7F808388818160888342E060E080E095
:105750000E94E42AE1EEF0E080818E7F8083E2EE19
:10576000F0E0808181608083808188608083F8019F
:1057700080818E7F8083888180618883DF91CF9153
:105780001F910F910895E8EDF0E080818F7E808376
:10579000E7EDF0E080818160808384E082BF81E07A
:1057A0008093B3030C94802BE8EDF0E080818E7F32
:1057B00080831092E20008951092DA001092E100C6
:1057C00008951F920F920FB60F9211242F933F93BB
:1057D0004F935F936F937F938F939F93AF93BF93F9
:1057E000EF93FF938091E10082FF0BC08091E20074
:1057F00082FF07C08091E1008B7F8093E1000E94CF
:105800004B2E8091DA0080FF19C08091D80080FF74
:1058100015C08091DA008E7F8093DA008091D900E4
:1058200080FF94C080E189BD82E189BD09B400FE9A
:10583000FDCF81E08093B4030E9438288091E1007D
:1058400080FF19C08091E20080FF15C08091E200C6
:105850008E7F8093E2008091E20080618093E2007D
:105860008091D80080628093D80019BC85E0809335
:10587000B4030E944A288091E10084FF29C08091EE
:10588000E20084FF25C080E189BD82E189BD09B4C1
:1058900000FEFDCF8091D8008F7D8093D80080914D
:1058A000E1008F7E8093E1008091E2008F7E809303
:1058B000E2008091E20081608093E2008091B00379
:1058C000882309F449C084E08093B4030E944B28E4
:1058D0008091E10083FF29C08091E20083FF25C011
:1058E0008091E100877F8093E10082E08093B403A0
:1058F0001092B0038091E1008E7F8093E10080914F
:10590000E2008E7F8093E2008091E20080618093CC
:10591000E20042E060E080E00E94E42A8091F00032
:1059200088608093F0000E944928FF91EF91BF9119
:10593000AF919F918F917F916F915F914F913F9127
:105940002F910F900FBE0F901F90189519BC1092B9
:10595000B4030E94462872CF8091E30087FD02C005
:1059600081E0B2CF83E0B0CF1F920F920FB60F92BB
:1059700011242F933F934F935F936F937F938F9354
:105980009F93AF93BF93CF93EF93FF93C091E900A1
:10599000CF708091EC001092E9008091F000877F39
:1059A0008093F00078940E94F02C1092E90080918E
:1059B000F00088608093F000C093E900FF91EF91C0
:1059C000CF91BF91AF919F918F917F916F915F9197
:1059D0004F913F912F910F900FBE0F901F901895F0
:1059E0001F93CF93DF93CDB7DEB7AA970FB6F89486
:1059F000DEBF0FBECDBFE5EBF3E08091F1008193F8
:105A000023E0ED3BF207C9F70E9461288091E8008E
:105A100083FF44C08091B5039091B6039A3008F09B
:105A20003DC0E92FF0E0E95EF24D0C94D931212D13
:105A3000472D4E2D472D4E2DA52DC72D4E2D1E2EFB
:105A40002B2E803889F0823849F58091B9038F7008
:105A5000873020F58093E9008091EB0085FB882753
:105A600080F91092E90006C08091B1039091B203D1
:105A7000911182609091E800977F9093E800809365
:105A8000F1001092F1008091E8008E772DC0282F50
:105A90002D7F21F48823D1F0823059F18091E800E4
:105AA00083FF0AC08091E800877F8093E80080919F
:105AB000EB0080628093EB00AA960FB6F894DEBFED
:105AC0000FBECDBFDF91CF911F9108958091B70395
:105AD000813021F7933009F080E08093B203109277
