:100000000C9435030C9452030C9452030C94520339
:100010000C9452030C9452030C9452030C9452030C
:100020000C9452030C9452030C941E2A0C94F02A44
:100030000C9461200C9452030C9452030C945203C0
:100040000C9452030C9452030C9452030C945203DC
:100050000C9452030C94C9200C9452030C94520338
:100060000C9452030C9452030C9452030C945203BC
:100070000C9452030C9452030C9452030C945203AC
:100080000C9452030C9452030C9452030C9452039C
:100090000C9452030C9452030C9452030C9452038C
:1000A0000C9452030C9452030C945203E403E703A0
:1000B000EA03ED03F003F203F503AB06AD06B80661
:1000C000AF06B106B306B506B706BA06BC06BE064D
:1000D000C906C006C206C406C606C806CB06311647
:1000E00031166B166B16A016C0162D18691802175C
:1000F0006918B217B2172518691869186418BF175C
:10010000BF17BF17BF17BF17BF17BF17BF17BF173F
:10011000BF17BF17BF17BF17BF17BF17BF17D1171D
:10012000DE17E517EC17F617F818F8180A190A1968
:1001300001190A190A190A19F818F81806190A19DA
:100140000A1906195D2B842B762C842B762CD02B48
:10015000F32B762C492C582C07634236B79BD8A733
:100160001A39685618AEBAAB558C1D3CB7CC5763DC
:10017000BD6DEDFD753EF6177231BF000000803F8A
:1001800005A84CCDB2D44EB93836A9020C50B9915D
:100190008688083CA6AAAA2ABE000000803F00006C
:1001A000F0A129002B00E000E100E20000001E00A9
:1001B000140004001D00000002511F001A00160068
:1001C0001B000000E30020000800070006003100CB
:1001D0002900210015000900190034000000220048
:1001E00017000A0005000000000000002C040000B9
:1001F00000000000000000002C08000000000000CB
:10020000000023001C000B0011000000000024006F
:1002100018000D0010002D00000025000C000E003D
:1002200036002E002C00260012000F0037002F0091
:10023000E70027001300330038003000015135007B
:100240002A002800E500E600000000303A0801001E
:100250000100010000003A0000002F0A0000000029
:1002600001003B000000300A0000000001003C00DB
:10027000000045040000000001003D000000450AA8
:10028000190E005C01003E000000000000000000AC
:10029000010000000000000000000000010000005C
:1002A000000000000000000001003F0000005000BE
:1002B00000000000010040000000510000000100AB
:1002C0000100410000005200000001000100420056
:1002D00000004F0000000100010043004400450001
:1002E0000000010001000100010001000100010007
:1002F00000000000000000000000000000000000FE
:100300000000AA0000000000010000000000A90099
:100310000000000001000000F000A8000000F40050
:1003200001000000000000000000F50001000000D6
:1003300000000000000000000100000000000000BC
:1003400000000000010000000000000000000000AC
:10035000010000000000F2000000000001000000A9
:100360000000F10000000000010000000000F000AB
:10037000AC000000B60000000000F300AB0000007D
:10038000010000000000000000000000010000006B
:100390000000AE000000000000006801F000B400A2
:1003A00078005A007F3F1F643214643214783C1E78
:1003B0001E140A05000000000001010101010101F5
:1003C000010102020202020202020203030303030A
:1003D00003030304040404040405050505050606D7
:1003E00006060607070707080808080909090A0A90
:1003F0000A0A0B0B0B0C0C0C0D0D0D0E0E0F0F0F34
:1004000010101111111212131314141515161617BA
:1004100017181819191A1A1B1C1C1D1D1E1F1F2026
:10042000202122222324252526272728292A2B2B71
:100430002C2D2E2F2F303132333435363637383994
:100440003A3B3C3D3E3F4041424344464748494A8F
:100450004B4C4D4F50515253555657585A5B5C5E5A
:100460005F606263646667696A6C6D6E70717374F5
:100470007678797B7C7E8081838486888A8B8D8F59
:1004800091929496989A9B9D9FA1A3A5A7A9ABAD85
:10049000AFB1B3B5B7B9BBBDBFC1C4C6C8CACCCF75
:1004A000D1D3D6D8DADCDFE1E4E6E8EBEDF0F2F523
:1004B000F7FAFCFF04033000000016034500720049
:1004C00067006F0044006F007800200045005A006C
:1004D000000016034500720067006F0044006F00C3
:1004E0007800200045005A000000040309040902B6
:1004F0006D00040100A0FA090400000103010100DD
:100500000921110100012240000705810308000AAA
:100510000904010001030102000921110100012267
:100520004D000705820308000A09040200010300C8
:10053000000009211101000122360007058303088C
:10054000000A090403000103000000092111010051
:100550000122390007058403200001120110010067
:10056000000008EDFE071301000102030105010967
:1005700006A101050719E029E71500250195087571
:10058000018102050819012905950575019102955A
:1005900001750391010507190029F715002501953B
:1005A000F875018102C005010980A10185021601CB
:1005B000002603001A81002A83007510950181002E
:1005C000C0050C0901A1018503160100269C021A31
:1005D00001002A9C02751095018100C005010902E5
:1005E000A1010901A100050919012905150025012D
:1005F0009505750181029501750381010501093099
:1006000009311581257F9502750881060938158104
:10061000257F950175088106050C0A38021581258C
:100620007F950175088106C0C005010906A1010575
:100630000719E029E7150025019508750181029544
:1006400001750881010508190129059505750191B4
:10065000029501750391010507190029FF15002670
:10066000FF00950675088100C00011241FBECFEF62
:10067000DAE0DEBFCDBF11E0A0E0B1E0E4EDF0E6EE
:1006800002C005900D92AC3DB107D9F713E0ACED77
:10069000B1E001C01D92AA3BB107E1F70E944327D8
:1006A0000C9468300C9400001092B9008AE080939A
:1006B000B800089594EA9093BC009091BC0097FF15
:1006C000FCCF9091B900987F983021F0903111F0D3
:1006D00081E008958093BB0084E88093BC00809102
:1006E000BC0087FFFCCF8091B900887F883111F072
:1006F000803471F780E0089584E98093BC00809194
:10070000BC0084FDFCCF08958093BB0084E88093F7
:10071000BC008091BC0087FFFCCF9091B900987F0E
:1007200081E0983209F480E0089584E88093BC0069
:100730008091BC0087FFFCCF8091BB00089580B3FF
:100740008C7080BB81B3836F81BB089584B1807F3F
:1007500084B985B1807F85B98AB1837F8AB98BB12D
:10076000837F8BB93E9846980895CF93E82F8730C2
:1007700008F58091000181113AC0CE2F80E40E94DB
:100780005A0380930001811112C082E10E94840308
:100790008093000181110BC081E090E001C0880FBF
:1007A000CA95EAF780950E94840380930001CF9157
:1007B0000C947C0390E0FC013797E730F105B8F426
:1007C000EA5AFF4F0C941B30209A289810C0219AA7
:1007D00029980DC0229A2A980AC0239A2B9807C0FC
:1007E000529A01C0539A5B9802C03E9A4698CF91A4
:1007F0000895CF93873018F580910001811128C0AA
:1008000080E40E945A0380930001882311F0C0E025
:1008100012C083E10E948403809300018111F7CF0D
:1008200081E40E945A03809300018111F0CF0E945D
:100830009503C82FC0950E947C038C2F0AC09FB1DE
:100840008FB1807F869586959370892B809501C0A6
:1008500080E0CF9108950C94D7050E94770580938E
:1008600000010E94A6030E949F032DED31E0E1E309
:10087000F2E04EE04E0F119280E090E0D901A80F17
:10088000B91F1C92019686309105C1F72A5F3F4F30
:100890004E13F1CF0C94C1080E947705809300019C
:1008A0000E94A6030E949F03E1E3F2E08EE08E0F18
:1008B00011928E13FDCF089526E0829FC00111246E
:1008C000FC01E352FE4F20E030E080E041E050E0E8
:1008D0009081992319F09150908307C0BA01022E9C
:1008E00001C0660F0A94EAF7862B2F5F3F4F3196BF
:1008F0002630310569F7089596E0699FB00111240B
:1009000020E030E090E04EE1FC01022E02C0F595BF
:10091000E7950A94E2F7E0FF06C0F901E60FF71F3A
:10092000E352FE4F40832F5F3F4F2630310561F782
:100930000895CF92DF92EF92FF920F931F93CF9380
:10094000DF9380910001882379F08091DC018F5F33
:100950008093DC01811108C00E947705809300011B
:10096000811102C00E94090581E3C82E82E0D82EC1
:1009700098E3E92E92E0F92EC0E08C2F0E94B50397
:1009800007E00C0F802F0E94B5038C2F0E945C049F
:10099000182F8C2F0E94F903F6019081D12FD0954A
:1009A000D9238123D82B6C2F8D2F89270E947C047B
:1009B000F601D1936F01802F0E945C04182F802FC5
:1009C0000E94F903F7019081D12FD095D92381237B
:1009D000D82B602F8D2F89270E947C04F701D1939B
:1009E0007F010E94A603CF5FC73039F60E94C3087B
:1009F00081E0DF91CF911F910F91FF90EF90DF90F9
:100A0000CF900895E82FF0E0EF5CFD4F80810895CE
:100A1000089556985E9825982D9826982E98279890
:100A20002F988FEF90E090938900809388009093A7
:100A30008B0080938A0090938D0080938C00259A80
:100A40002D9A2FEF80E792E0215080409040E1F70F
:100A500000C00000269A2E9A2FEF80E792E02150E6
:100A600080409040E1F700C00000279A2F9A2FEFB6
:100A700080E792E0215080409040E1F700C0000004
:100A800025982D982FEF80E792E0215080409040EC
:100A9000E1F700C0000026982E982FEF80E792E043
:100AA000215080409040E1F700C0000027982F9827
:100AB00056985E9825982D9826982E9827982F98C6
:100AC000089589EA8093800089E0809381002498CA
:100AD0002C983F988AB18F7C8AB96E98479A8BB1CF
:100AE00080638BB9769A0E9409050C94D60580E242
:100AF0008093000180913F0281110EC00E94540337
:100B000081E080933F022FEF83ED90E321508040FE
:100B10009040E1F700C0000080E40E945A038093F7
:100B2000000181112EC00E94840380930001811175
:100B300028C00E94840380930001811122C08FE3AA
:100B40000E9484038093000181111BC00E947C03DA
:100B500080E40E945A0380930001811112C08CE04E
:100B60000E9484038093000181110BC00E948403C2
:100B700080930001811105C08FE30E94840380935C
:100B800000010E947C0380910001089561110BC057
:100B9000FC018281882321F085EE0E94781403C035
:100BA00085EE0E94871580E090E008950895609199
:100BB00002037091030380910403909105030E9446
:100BC000131F56985E9825982D9826982E9827984A
:100BD0002F98813019F0823021F00895259A2D9AAE
:100BE0000895269A2E9A089581E0089581E0089547
:100BF0000C94F6050E94E6182FEF84E39CE0215048
:100C000080409040E1F700C000000C94EF20FF927C
:100C10000F931F93CF93DF938C01FC01C081D1818F
:100C200080919102811113C08281882349F0CE0105
:100C30000E94091EF82E682FCE010E94AC1D04C030
:100C4000CE010E94DC1DF82EBE018F2D04C0CE0106
:100C50000E94091EBE010E94D908EC01B8010E9441
:100C6000F805882309F486C2B801CE010E94350B2D
:100C7000882309F47FC2B801CE010E94840B882327
:100C800009F478C2C23CFCE5DF0741F4F801828137
:100C9000882309F46FC20E94D30E6CC2C33C8CE55A
:100CA000D80708F015C1CB3B9CE5D90761F4F801E2
:100CB0008281882309F45EC20E94DA1E8272E1F00A
:100CC0000E94720F57C2CC3BECE5DE07C0F0CE3B72
:100CD0009CE5D90709F4CDC008F0DFC0CC3BFCE5AA
:100CE000DF0709F0CEC0F8018281882309F442C2EF
:100CF0000E94DA1E827221F30E94680F3BC2C53146
:100D0000FCE5DF0708F07EC0C2308CE5D80708F4A8
:100D100052C0F8018281882309F459C00E94841FBF
:100D2000811102C00E94631F0E94971F90E0909360
:100D3000AC038093AB03FE01E350FC45E231F105C7
:100D400030F4E35AFF4F8091AB030C941B30809139
:100D5000AB03816027C0826025C0846023C08061AE
:100D600021C080621FC080641DC080681BC0846079
:100D7000886018C08E7F16C08D7F14C08B7F12C014
:100D80008F7E10C08F7D0EC08F7B0CC08F770AC006
:100D90008B7F877F07C087FB222720F991E092276E
:100DA00090FB87F98093AB038091AB030E949B1F5C
:100DB0000E94E618DFC1C1159CE5D90781F0C1305A
:100DC000DC45A9F081E08093450280934602C8018A
:100DD000DF91CF911F910F91FF900C94F405F801D2
:100DE0008281882309F4C6C10E94FA05C3C1F801B3
:100DF0008281882309F4BEC180912F038160809392
:100E00002F03B8C1C531FCE5DF0739F50E94DA1EB2
:100E1000282FF80182814091030150910401882319
:100E200079F02A7A91E009F490E0909340029111D0
:100E300002C069E201C065E3CA010E94FC1F0AC04A
:100E400080914002811102C069E201C065E3CA01DC
:100E50000E9407200E94A71E8DC1CA3BDC4509F0F5
:100E6000B1CFF8018281882309F484C10E94AF0FB9
:100E700081C1F8018281882309F47CC10E94750E2A
:100E800079C1CD3BDC4509F09DCFF80182818823F3
:100E900009F470C10E945D0E6DC1F8018281C03CF1
:100EA000FCE5DF0731F4882309F464C10E94A60E33
:100EB00061C1C13CDC4530F4882309F45BC10E9468
:100EC000940E58C1882309F455C10E94B80E52C12E
:100ED000C93CECE5DE0749F4F8018281882309F476
:100EE00049C188E10E94ED0E45C1CA3CFCE5DF071F
:100EF00008F088C0C53C8CE5D807B1F4F8018281C0
:100F0000882309F437C10E942E0D663071058105D2
:100F1000910540F00E942E0D683071058105910504
:100F200008F4EACE86E0DECFC63C9CE5D90728F57A
:100F3000C33CECE5DE0739F4F8018281882309F42B
:100F400019C181E0CFCFC43CDC4509F03BCFF801AB
:100F50008281882309F40EC10E942E0D6230710532
:100F60008105910540F00E942E0D653071058105C7
:100F7000910508F4C1CE82E0B5CFF8018281C73C6B
:100F8000FCE5DF07A1F4882309F4F4C00E942E0DCC
:100F90006F3071058105910540F00E942E0D64317E
:100FA00071058105910508F4A7CE8FE09BCFC83C61
:100FB000DC45A0F4882309F4DDC00E942E0D6930C1
:100FC00071058105910540F00E942E0D6E3071056E
:100FD0008105910508F490CE89E084CF882309F437
:100FE000C9C00E942E0D653171058105910540F043
:100FF0000E942E0D673171058105910508F47CCEA4
:1010000085E170CFCC3CECE5DE0781F5F80182810B
:10101000882361F0109246020E949320909344022C
:101020008093430280E20E94E615A4C00E94DA1E6B
:1010300081FF05C081E08093450280934602809144
:10104000460281110FC080914302909144020E9498
:101050009F20883C910530F487E20E94781487E253
:101060000E94871580E20E94ED1584C0CD3CFCE50E
:10107000DF0708F04AC0CA3C8CE5D807B1F4F80194
:101080008281882309F476C00E942E0D6931710592
:101090008105910540F00E942E0D62327105810597
:1010A000910508F429CE89E11DCFCB3CDC4509F040
:1010B00089CEF8018281882351F0109245020E9466
:1010C0009320909342028093410282E0ACCF0E9431
:1010D000DA1E85FF05C081E08093450280934602B9
:1010E0008091450281110FC080914102909142028E
:1010F0000E949F20883C910530F486E20E9478147B
:1011000086E20E94871582E0AECFC03DECE5DE07A7
:1011100031F4F8018281882369F180E009C0C13D82
:10112000FCE5DF0741F4F8018281882319F182E0B0
:101130000E94E1271FC0CD3CDC4509F043CEF801F9
:101140008281811167CF8091460281118BCF80917E
:101150004302909144020E949F20883C910508F030
:1011600081CF80E20E94ED1588E20E94781488E227
:101170000E94871580E0DF91CF911F910F91FF9022
:1011800008950C9461050C942B04282F2F7041F0C6
:10119000822F90E02A3010F44D9608950697089516
:1011A00087E290E0089508950C94D3080C94D40835
:1011B000089596E0799FF001112494E5899FE00D50
:1011C000F11D1124E60FF11DEE0FFF1FEE55FE4F2E
:1011D000859194910895880F991FFC01E256FE4F66
:1011E000859194910895CF93DF930E94D9080E942E
:1011F0008B0AEC01811520E49207B0F5811540E3DC
:10120000940708F0E1C0803E9105D0F4803C910540
:1012100008F06FC0883A910570F4853A910508F09E
:101220006BC08130910509F472C108F429C104979B
:1012300008F06DC125C18D3B910508F468C020C13F
:101240008F3F910509F048F4803F910508F0B6C042
:10125000883E910508F45BC113C1811550E29507E2
:1012600008F455C19F70ACC0811564E59607D8F4A9
:10127000C11583E5D80708F0E2C0C11521E5D20702
:1012800040F4C11540E5D40708F0A7C0DF70D06A6C
:101290003EC1C11552E5D50708F0BBC0DC2FCC27F5
:1012A000C16FD06A34C1811566E5960750F4C11547
:1012B00085E5D80708F0D9C0DC2FCC27C46FD06AE9
:1012C00026C1811528E5920708F4DAC0811549E5A1
:1012D000940708F4D0C090568115904208F0D0C011
:1012E0008D2F8F710E94080BDD27D0628F71D82B54
:1012F0000EC1805C910964C0853A910509F4C3C0B0
:10130000863A910509F0C2C0C2E8D0E400C1883A2B
:10131000910509F4BEC0893A910509F4BDC08A3A25
:10132000910509F4BCC08B3A910509F4BBC08C3A15
:10133000910509F4BAC08B3B910509F4B9C08C3B07
:10134000910509F4B8C08D3A910509F4B7C0803B06
:10135000910509F4B6C08E3A910509F4B5C08F3AEB
:10136000910509F4B4C0813B910509F4B3C0823BF7
:10137000910509F4B2C0833B910509F4B1C0843BE7
:10138000910509F4B0C0853B910509F4AFC0863BD7
:10139000910509F4AEC0873B910509F4ADC0883BC7
:1013A000910509F4ACC0893B910509F4ABC08A3BB7
:1013B000910509F4AAC0C0E0D4E4A9C0D065A7C0D3
:1013C0000E94EB08EC01A3C09927D3FF03C0EC01F6
:1013D000D86C9DC0EC01D06C9AC02C2F237081E09A
:1013E00090E002C0880F991F2A95E2F79C689E0141
:1013F00044E0369527954A95E1F72370922BCF70FC
:10140000C695C69560E2C69FE0011124C82BD92B72
:101410007EC02C2F2695269580E2289F90011124CE
:10142000C370DD2781E090E0AC0102C0440F551F7E
:10143000CA95E2F7EA01C22BD32BDC6868C02C2FD7
:101440002695269580E2289F90011124C370DD2700
:1014500081E090E0AC0102C0440F551FCA95E2F74D
:10146000EA01C22BD32BDA6852C0CF71DD27DC2F03
:10147000CC27D0624CC0DC2FCC27C06FD06A47C0CD
:10148000C0E0D0E044C0C1E8D0E441C0C3E8D0E44B
:101490003EC0C2EED4E43BC0C9EED4E438C0CAEECC
:1014A000D4E435C0C5EBD4E432C0C6EBD4E42FC0DD
:1014B000C3EBD4E42CC0C4EBD4E429C0C7EBD4E420
:1014C00026C0CCECD4E423C0CDECD4E420C0C3E8E7
:1014D000D5E41DC0CAE8D5E41AC0C2E9D5E417C0F6
:1014E000C4E9D5E414C0C1E2D6E411C0C3E2D6E435
:1014F0000EC0C4E2D6E40BC0C5E2D6E408C0C6E222
:10150000D6E405C0C7E2D6E402C0CAE2D6E4CE0102
:10151000DF91CF9108958238910549F1B0F481337C
:10152000910509F458C048F48932910509F44EC078
:101530008A32910509F454C008958533910509F460
:1015400040C08933910599F00895833E910529F1B2
:1015500038F4803E910591F0823E9105A1F0089506
:10156000863E9105F9F0873E910531F1089520916D
:10157000AB0320FD3AC021FD38C008958091AB0334
:1015800080FD35C032C08091AB0382FF32C08091B4
:10159000AB0384FD30C083EE39C08091AB0382FD84
:1015A00028C0F5CF8091AB0383FF27C08091AB03A8
:1015B00084FD21C087EE2AC08091AB0383FD1DC04E
:1015C000F5CF8091AB0385FD1AC01BC08091AB03A2
:1015D00085FD17C014C08091AB0386FD14C015C0F3
:1015E0008091AB0386FD11C00EC080EE0FC089E371
:1015F0000DC082EE0BC080E009C086EE07C089E214
:1016000005C085E303C08AE201C081E390E008954C
:10161000CF93C82F0E94971F90E09093AC038093C4
:10162000AB0382FF0DC09C2F9871983019F4C77FCF
:10163000C46006C09C2F9471943011F4CB7FC860B5
:1016400083FF0DC09C2F9871983119F4C77EC46137
:1016500006C09C2F9471943111F4CB7EC86184FD37
:10166000C77E8C2FCF91089508950F931F93CF932A
:10167000FB012281211102C0C1E041C08C01C09157
:101680005402C11125C086319C45B1F70E94340B2C
:1016900081E0809354020E949320909353028093A0
:1016A0005202109247021092490210924802109280
:1016B0004B0210924A0210924D0210924C0210926C
:1016C0004F0210924E02109251021092500217C017
:1016D00080915202909153020E949F20883C910574
:1016E00058F690914702E92FF0E0EE0FFF1FE85BFC
:1016F000FD4F118300839F5F90934702C0E08C2FC2
:10170000CF911F910F910895CF93DF93813020E8FF
:101710009207D0F0FB0122812223B1F0EC018091ED
:101720005502811109C08CE090E00E9421300E9496
:10173000A80B81E0809355020E94AF0BCE019F77EA
:101740000E94770C0E942B0C81E0DF91CF910895CD
:1017500080935602682F8CE090E00C943530E09135
:101760000301F091040180818093600381FF03C035
:1017700081EE0E9487158091600385FF03C085EE8E
:101780000E9487158091600380FF03C080EE0E9455
:1017900087158091600384FF03C084EE0E94871543
:1017A0008091600382FF03C082EE0E9487158091C2
:1017B000600386FF03C086EE0E9487158091600358
:1017C00083FF03C083EE0E9487158091600387FF2B
:1017D00003C087EE0E94871580915602823001F186
:1017E000A8F48823C9F0813079F580EE0E9478143E
:1017F00081EE0E94781488E10E94781488E10E94AA
:10180000871581EE0E94871580EE1CC0843081F020
:101810008530D1F486EE01C082EE0E94781414C0A7
:1018200082EE0E94781487E50E94781487E50AC04A
:1018300086EE0E94781486EE0E94871588E10E9449
:10184000781488E10E9487158FE39CE90197F1F7EE
:1018500000C00000089580915602813049F030F0B8
:10186000823021F0853051F486EE06C082EE04C04D
:101870008CE20E9478148CE20E94871580916003AC
:1018800081FF03C081EE0E9478148091600385FF80
:1018900003C085EE0E9478148091600380FF03C02E
:1018A00080EE0E9478148091600384FF03C084EE70
:1018B0000E9478148091600382FF03C082EE0E9430
:1018C00078148091600386FF03C086EE0E9478142E
:1018D0008091600383FF03C083EE0E94781480919F
:1018E000600387FF03C087EE0C9478140895EF928D
:1018F000FF921F93CF93DF937C01CCE0D0E0970160
:101900000C2E02C0369527950A94E2F7122F1F700D
:10191000812F0E94C5080E947814812F0E94C5085B
:101920000E9487152497CC3F8FEFD80741F7DF91AE
:10193000CF911F91FF90EF900895EF92FF920F9338
:101940001F93CF93DF93E901662309F44BC0242F43
:1019500030E0EFEFF0E0E61BF109B901E69F9001FE
:10196000E79F300DF69F300D1124232F8B01031BB1
:1019700011095CE3E52EF12CB7010E94F32FFB0166
:10198000BC01069FC001079F900D169F900D11246A
:10199000B7010E94F32FE230F105B1F040F4309727
:1019A00079F0319711F5832F242F461B21C0E430A5
:1019B000F105A1F068F03597C1F4842F861B18C09B
:1019C000832F262F230F14C0862F830FE42F03C0ED
:1019D000E42FE61B842F432F2E2F0AC0842F462F7F
:1019E000430F06C0842F242F03C080E020E040E096
:1019F000E42FF0E0EC54FC4F4491E22FF0E0EC5483
:101A0000FC4F9491E82FF0E0EC54FC4FE4914983B3
:101A10009883EA83DF91CF911F910F91FF90EF9010
:101A2000089588E090E00C942930AB01BC0188E077
:101A300090E00C944630E1E6F3E083E0808310927E
:101A400062038FEF828383836091610370916203ED
:101A500080916303909164030C94150D6091610370
:101A600060FF06C066956F7370E080E090E00895B7
:101A700060E070E0CB0108958091610380FF06C0B3
:101A80006FE070E089E693E00C94B51280E090E09E
:101A9000FC01E759FC4F11821082128204968C33AC
:101AA0009105B1F7EDCF9091610390FF0FC020E059
:101AB00030E0F901E759FC4F8183608342832C5F5A
:101AC0003F4F2C333105A9F70C943C0D0895EF924C
:101AD000FF920F931F93CF93DF9300D000D0CDB729
:101AE000DEB700916103109162032091630330918E
:101AF0006403009365031093660320936703309398
:101B000068032091610320FF21C0042FF62EE92EE7
:101B1000182F9E012F5F3F4F0E949D0C80916503FF
:101B200010FB87F980936503169580916603807892
:101B3000182BE0FA17F910936603F09267030093ED
:101B400068034B8169818A810E94530D0F900F9029
:101B50000F900F90DF91CF911F910F91FF90EF9019
:101B600008958F929F92AF92BF92CF92DF92EF92A1
:101B7000FF920F931F93CF93DF93EC01062F142F47
:101B80008091610380FF8CC0982F9E77923021F462
:101B9000CE010E94670D5AC0E82FE695EF739EE3D1
:101BA0009E0F9F73943018F4109164034FC09AE312
:101BB0009E0F9F73993070F4881F8827881F90911B
:101BC0006203292F220FC22FC82B97FB992790F968
:101BD000D92F3CC087E28E0F8F738A30B8F5F0E0C2
:101BE0007997E0FD02C021E001C02FEFEE7FE656BD
:101BF000FC4F859194916FE070E00E94F32F2603D3
:101C00006001279FD00C11244E0188E9881A8EEFBD
:101C1000980A89E6E82E83E0F82E98E6A92EBB24E0
:101C2000B394C401B5010E94F32F9701412F602F97
:101C30000E949D0C8C0C9D1C94E0E90EF11C85EA21
:101C4000E81683E0F80669F70E943C0D8091610375
:101C50009C2FC0FB87F98093610396958091620366
:101C60008078892BD0FB87F980936203009363030C
:101C70001093640360916103709162038091630328
:101C800090916403DF91CF911F910F91FF90EF909E
:101C9000DF90CF90BF90AF909F908F900C94150DD8
:101CA000DF91CF911F910F91FF90EF90DF90CF9038
:101CB000BF90AF909F908F900895E1E6F3E0208170
:101CC000221F2227221F30916203432F440F842FAB
:101CD000822B37FB992790F90C9668E671E00E94F9
:101CE0000730438162810C94B10D20916103221F62
:101CF0002227221F30916203432F440F842F822B0F
:101D000037FB992790F98C3091051CF4845A9E4F2B
:101D100001C00C9768E671E00E94073040916403AF
:101D2000609163030C94B10DE1E6F3E08081881FBC
:101D30008827881F90916203292F220F97FB9927EC
:101D400090F943816FEF822B0C94B10DE1E6F3E043
:101D50008081881F8827881F90916203292F220F76
:101D600097FB992790F9438160E0822B0C94B10D89
:101D700040916403842F90E0843F910514F4445F04
:101D800001C04FEF80916103881F8827881F9091C1
:101D90006203292F220F97FB992790F96091630323
:101DA000822B0C94B10D40916403842F90E00C972A
:101DB00014F04C5001C040E080916103881F8827D7
:101DC000881F90916203292F220F97FB992790F982
:101DD00060916303822B0C94B10D9091610390FF8D
:101DE00042C09178811102C0926007C0833210F026
:101DF000946403C08F73880F982B90936103609154
:101E000061037091620380916303909164030E9467
:101E1000150D80916103982F9E77923019F41092DE
:101E20006C0210C0982F96959F732EE3290F2F7385
:101E3000273120F491E090936C0204C0995D9F7368
:101E40009A3068F3881F8827881F90916203292F92
:101E5000220F97FB992790F94091640360916303E7
:101E6000822B0C94B10D089580912F038160809393
:101E70002F0381E080936D020E94841F811104C0B2
:101E80000E94631F0E941B0D0E94110D609361034D
:101E90007093620380936303909364036E7761F49D
:101EA0000E941B0D0E94110D6093610370936203E9
:101EB000809363039093640381E080936C0280912C
:101EC000610380FF04C086958F730C94ED0E089516
:101ED0008091610386958F738F5F833208F081E074
:101EE0000C94ED0E8091610386958F73815009F4F7
:101EF00082E20C94ED0ECF93DF93C1E6D3E08881AC
:101F000081608883609161037091620380916303B3
:101F1000909164030E94150D888186958F73DF91DF
:101F2000CF910C94ED0EE1E6F3E080818E7F80830B
:101F300060916103709162038091630390916403E7
:101F40000E94150D10926C022FEF80E792E0215055
:101F500080409040E1F700C000000C943C0D80915F
:101F6000610380FD0C94930F0C947B0FCF93C82FCB
:101F700080916A0290916B020E949F20EC2FF0E00A
:101F8000E055FC4FE491F0E08E179F0708F443C042
:101F90000E94932090936B0280936A026091690281
:101FA00070E080E090E00E94F42D20E030E04FE708
:101FB00053E40E94172D2BED3FE049E450E40E94CA
:101FC0001D2F0E948A2F0E94912D2BE43AE34EE2AE
:101FD0005FE30E94AA2C20EF3BEF48ED52E40E9401
:101FE0001D2F0E94C32D462F80916103881F8827D3
:101FF000881F90916203292F220F97FB992790F950
:1020000060916303822B0E94670D8091690290E0CA
:10201000019680936902CF910895CF93C82F809144
:102020006702909168020E949F20EC2FF0E0E35538
:10203000FC4FE491F0E08E179F07E8F00E94932098
:1020400090936802809367024091640360916303F8
:1020500080916502909166020E94670D80916502F1
:1020600090916602019668E671E00E94F32F9093CA
:10207000660280936502CF910895CF92DF92FF921E
:102080000F931F93CF93DF93F82E8091630290916B
:1020900064020E949F20EF2DE695F0E0E655FC4F8C
:1020A000E491F0E08E179F07E8F10E94932090934F
:1020B00064028093630209E613E0C0E0D0E088E6A2
:1020C000C82EDD24D39480916102909162028C0F1E
:1020D0009D1FB6010E94F32F980140916403609107
:1020E00063030E949D0C68960C5F1F4FC83681E009
:1020F000D80749F70E943C0D20916102309162029D
:10210000F0FE0AC0C9010196BE010E94F32F909310
:1021100062028093610206C021503109309362024D
:1021200020936102DF91CF911F910F91FF90DF907B
:10213000CF900895AF92BF92CF92DF92EF92FF922D
:102140000F931F93CF93DF93C82F80FF02C01FEF21
:1021500001C011E080915F02909160020E949F2077
:10216000C695EC2FF0E0E955FC4FE491F0E08E17B6
:102170009F0708F466C00E949320909360028093AA
:102180005F0229E6C22E23E0D22E3BE6E32E33E0A7
:10219000F32EC0E0D0E0F70131971082F6011082F3
:1021A000F701108294E0A92EB12C00E080915E022C
:1021B000800F87FD815F992787FD9095C817D90704
:1021C000E9F4809164038A9DA0018B9D500D112438
:1021D000559547955595479580916103881F8827A8
:1021E000881F90916203592F550F97FB992790F9FB
:1021F000960160916303852B0E949D0C010FF1E015
:10220000AF1AB10899F6219684E0C80ED11CE4E01B
:10221000EE0EF11CCF30D10509F0BDCF0E943C0D70
:1022200080915E02113031F4811102C08EE007C04E
:10223000815005C090E00196BE010E940730809356
:102240005E02DF91CF911F910F91FF90EF90DF9091
:10225000CF90BF90AF9008950F931F93CF93DF93CC
:10226000C82F80915C0290915D020E949F20EC2F0C
:10227000F0E0EC55FC4FE491F0E08E179F0708F476
:1022800064C00E94932090935D0280935C0280E082
:1022900090E0FC01E759FC4F1182108212820496F3
:1022A0008C339105B1F7C0E0D0E00FE010E0CE0133
:1022B000B8010E940730FC0180915B02992787FDDD
:1022C0009095EE0FFF1FEE0FFF1FC817D907FCF008
:1022D00080910201992787FD90958C179D07BCF08E
:1022E0009F0127593C4F80916103881F8827881FD1
:1022F00090916203592F550F97FB992790F94091C0
:10230000640360916303852B0E949D0C05C0E7590F
:10231000FC4F1182108212822196CF30D10539F6FE
:102320000E943C0D8091010190915B02980F909367
:102330005B0220910201280F20930201121614F46F
:102340009E301CF0819580930101DF91CF911F9108
:102350000F910895EF92FF920F931F93CF93DF9306
:102360008091590290915A020E949F20883E93408A
:10237000D0F10E94932090935A0280935902C09109
:102380005702D09158022196C170DD27D093580290
:10239000C093570289E6E82E83E0F82E10E008E7A4
:1023A000812F8695FE01E80FF11DCF0181709927DD
:1023B00097014091640360916303FC010E9FC0018B
:1023C0000F9F900D11240E949D0C1F5FF4E0EF0EF3
:1023D000F11C1F3029F7DF91CF911F910F91FF90D2
:1023E000EF900C943C0DDF91CF911F910F91FF90D6
:1023F000EF90089580916C02882391F19091610390
:10240000892F86958F732EE3280F2F73243018F4AD
:1024100082500C94B60F2AE3280F2F73233018F440
:1024200086500C940D1027E3280F2F73263018F4D4
:1024300089500C943D1021E3280F2F73263018F497
:102440008F500C949A102BE2280F2F73233018F41E
:1024500085510C942C119E77903311F40C94AA1191
:102460000895882319F05198599A02C0519A5998A1
:102470005098589A95E09A95F1F70000509A58981C
:1024800095E09A95F1F70000882311F0519A599838
:1024900085E08A95F1F7000008958BB18C7F8BB9A8
:1024A0005098589A5198599A85E08A95F1F700000A
:1024B00008958AB18C7F8AB985E08A95F1F700008A
:1024C000519A599885E08A95F1F70000509A5898EA
:1024D00085E08A95F1F7000008955098589A85E0B4
:1024E0008A95F1F700005198599A85E08A95F1F79D
:1024F00000000895CF93DF93D82FC8E08D2F807808
:102500000E943112DD0FC150C9F780E00E943112E4
:1025100085E08A95F1F7000085E08A95F1F70000E3
:1025200080E0DF91CF9108952BB1342F3095232394
:102530003BB1432B3FB7F894FC01680F791FE617B6
:10254000F70789F0819198E04BB9000000C087FF40
:102550002BB9880F000000C000C000C02BB900C01C
:102560009A9591F7ECCF3FBF0895AF92BF92CF926B
:10257000DF92EF92FF920F931F93CF93DF938C0123
:10258000EB01CFB6D090BC00F8948091BC008B7F5B
:102590008093BC000E944D120E94591284E80E9450
:1025A0007A12CC0FDD1FCC0FDD1F78015801AC0E65
:1025B000BD1EEA14FB0431F0F70181917F010E94F6
:1025C0007A12F7CF0E946D12CFBED092BC00579AFC
:1025D00040E8BE01C801DF91CF911F910F91FF909C
:1025E000EF90DF90CF90BF90AF900C9494129093A7
:1025F0007302809372020895E0917202F091730267
:10260000309721F00190F081E02D099480E0089549
:10261000E0917202F0917302309721F00280F38111
:10262000E02D09940895E0917202F09173023097C1
:1026300021F00480F581E02D099408952091700225
:10264000309171028217930771F090937102809319
:102650007002E0917202F0917302309721F00680CF
:10266000F781E02D0994089520916E0230916F0258
:102670008217930771F090936F0280936E02E0913E
:102680007202F0917302309721F00084F185E02D01
:102690000994089508950C944A1381E008950E94C6
:1026A0008A200E942D040E9421210C94340FCF9285
:1026B000DF92EF92FF920F931F93CF93DF93CDB7EB
:1026C000DEB72B970FB6F894DEBF0FBECDBF0E94CA
:1026D00099040E944D13811111C08FEF89838A8361
:1026E0001B820E9493208160782F9D838C83498177
:1026F0005A816B818D810E943B1456C085E7C82E9C
:1027000082E0D82E00E010E0E02E802F0E9402052B
:10271000F60141916F01F42EF82631F40F5F1F4F3F
:102720000E30110589F7D9CF90912F0391FF04C086
:102730008B870E9408058B8520E030E04F2D50E00C
:10274000922FBA01022E02C0759567950A94E2F79E
:1027500060FF24C02E83EF8221E030E0690102C0D7
:10276000CC0CDD1C9A95E2F790E08C219D21892B01
:1027700009F420E028870E9493208160782F9A87AF
:1027800089874E815F8168858A850E943B14F801A4
:10279000EB58FD4F8081C826C08206C02F5F3F4F97
:1027A0002630310569F6BACF0E94B4221091740226
:1027B0000E94FC121817A1F00E94FC128093740270
:1027C0002B960FB6F894DEBF0FBECDBFDF91CF9131
:1027D0001F910F91FF90EF90DF90CF900C94D6084F
:1027E0002B960FB6F894DEBF0FBECDBFDF91CF9111
:1027F0001F910F91FF90EF90DF90CF900895DC0133
:1028000011962C9111978C91682F70E041E050E067
:1028100001C0440F8A95EAF712968C91129730E026
:10282000882329F0809192028823E9F006C0F901FB
:10283000ED57FD4F90819423B1F086E0829FF00127
:10284000839FF00D1124E60FF71FEE0FFF1FEB5EC5
:10285000FE4F808191818D939C93F901ED57FD4F3F
:102860008081482B06C0F901ED57FD4F40958081CE
:10287000482340830895CF93DF93CDB7DEB72B97DE
:102880000FB6F894DEBF0FBECDBF942F4F83252F18
:10289000588769877A878B874A855B85452B21F026
:1028A0002F3F09F59F3FF9F4DE01119686E0FD0107
:1028B00011928A95E9F785E0FE01379601900D9215
:1028C0008A95E1F749815A816B817C818D819E8156
:1028D0000E947E1B2B960FB6F894DEBF0FBECDBFB5
:1028E000DF91CF910895CE0107960E94FF13DCCFB0
:1028F000CF93DF931F92CDB7DEB7882309F403C1CE
:10290000682F8238C1F40E94FC1281FDFCC069E38B
:1029100080910301909104010E94FC1F0E94A71E58
:102920002FEF81EE94E0215080409040E1F700C00D
:10293000000069E319C0833811F50E94FC1280FD84
:10294000E2C063E580910301909104010E94FC1FA5
:102950000E94A71E2FEF81EE94E02150804090400E
:10296000E1F700C0000063E580910301909104014C
:102970000E9407200F90DF91CF910C94A71E8438FE
:10298000C1F40E94FC1282FDBEC067E48091030185
:10299000909104010E94FC1F0E94A71E2FEF81EE60
:1029A00094E0215080409040E1F700C0000067E4CF
:1029B000DBCF8CEF860F813A70F4862F69830E94FB
:1029C000DD24698181119FC08091030190910401F0
:1029D0000E94FC1FCFCF80E2860F883048F46770DA
:1029E00081E001C0880F6A95EAF70E94DD1EC2CF20
:1029F0008BE5860F833088F4653A29F0663A31F02A
:102A000083E890E005C081E890E002C082E890E0B1
:102A10000F90DF91CF910C941E1388E5860F8531BE
:102A200008F071C0683A61F1693A69F16A3A71F186
:102A30006B3A79F16C3A81F16B3B89F16C3B91F126
:102A40006D3A99F1603BA1F16E3AA9F16F3AB1F19B
:102A5000613BB9F1623BC1F1633BC9F1643BD1F128
:102A6000653BD9F1663BE1F1673BE9F1683BF1F188
:102A7000693BF9F16A3B09F43FC080E090E03EC059
:102A800082EE90E03BC089EE90E038C08AEE90E0A4
:102A900035C085EB90E032C086EB90E02FC083EB31
:102AA00090E02CC084EB90E029C087EB90E026C03A
:102AB0008CEC90E023C08DEC90E020C083E891E0A6
:102AC0001DC08AE891E01AC082E991E017C084E94C
:102AD00091E014C081E292E011C083E292E00EC066
:102AE00084E292E00BC085E292E008C086E292E0C8
:102AF00005C087E292E002C08AE292E00F90DF9187
:102B0000CF910C9434130F90DF91CF9108958823C7
:102B100009F45BC0682F823879F40E94FC1281FFAF
:102B200054C069E380910301909104010E94FC1F4D
:102B30000E94A71E69E310C08338B1F40E94FC1202
:102B400080FF43C063E580910301909104010E94DE
:102B5000FC1F0E94A71E63E5809103019091040170
:102B60000E9407200C94A71E843879F40E94FC125E
:102B700082FF2BC067E480910301909104010E94C1
:102B8000FC1F0E94A71E67E4E7CF8CEF860F813AF7
:102B900018F380E2860F883048F4677081E001C046
:102BA000880F6A95EAF70E94E31EDCCF8BE5860F5B
:102BB000833020F480E090E00C941E13685A653155
:102BC00020F480E090E00C9434130895882321F0E1
:102BD0000E94DD1E0C94A71E0895882321F00E94F8
:102BE000E31E0C94A71E08958F929F92AF92BF92FE
:102BF000CF92DF92EF92FF920F931F93CF93DF93C9
:102C00001F92CDB7DEB77C01C72EFC01058102956E
:102C10000F701281112321F069830E94FA1E6981CD
:102C200069830E94A01E6981882381F0112371F0BD
:102C300080E2860F883050F082E00E94891E0E9458
:102C4000A01E91E0D82ED926698101C0D12CAC2CD0
:102C5000A2948FE0A822B12CF501E159FF4F0C940A
:102C60001B308C2D807F0C2D0F70882311F0029566
:102C7000007F1123C1F0002309F4D2C180E2860F46
:102C8000883010F0611105C0802F69830E94DD1E1D
:102C900004C0802F69830E94ED1E698169830E94B0
:102CA000A71E6981BDC1862F69830E94871569812E
:102CB000002309F40EC280E2860F883010F0611103
:102CC00004C0802F0E94E31E03C0802F0E94F31EC9
:102CD0000E94A71EFEC19C2D907F8C2D8F7090327C
:102CE00011F08295807F662319F06130B1F01EC02B
:102CF000112349F0002309F44BC1013009F048C108
:102D00000E940D1FE6C1002319F0013009F4E1C152
:102D100089830E94101F898141C1112321F0023053
:102D200008F0D7C135C10111D4C138C1112321F038
:102D3000002309F42DC174C1002309F42FC181C1FE
:102D40008C2D86958695837090E0009719F00197F9
:102D500061F0BFC1112321F0862F9C2D937002C01A
:102D600080E090E00E941E13C4C1112321F0862F41
:102D70009C2D937002C080E090E00E943413B9C192
:102D80001123F9F0653F51F0663F71F0643FA9F4FB
:102D90008091A5039091A60381600BC08091A5034B
:102DA0009091A603826005C08091A5039091A6032F
:102DB00084609093A6038093A503862F0E94BC2174
:102DC0001EC0653F51F0663F71F0643FA9F48091E9
:102DD000A5039091A6038E7F0BC08091A5039091CF
:102DE000A6038D7F05C08091A5039091A6038B7FDC
:102DF0009093A6038093A503862F0E9424220E940D
:102E0000A92277C18C2D837009F052C011116DC1B8
:102E1000862F829586958770880F880F962F9F70D2
:102E2000892E912CA12CB12C082E04C0880C991C41
:102E3000AA1CBB1C0A94D2F764FF14C00FE010E078
:102E400020E030E0B901A80104C0440F551F661FFF
:102E5000771F8A95D2F7CB01BA016095709580955E
:102E6000909503C060E070E0CB012C2D269526954F
:102E7000237030E02230310569F02330310589F0CC
:102E8000682979298A299B292130310571F00E940E
:102E9000C11C2BC1682979298A299B290E94D31C2E
:102EA00024C10E94C11CC501B4010E94AF1C1DC1F8
:102EB000112319F08C2D817001C08695882309F4A7
:102EC00014C1862F829586958770880F880F962F5C
:102ED0009F70892E912CA12CB12C082E04C0880C37
:102EE000991CAA1CBB1C0A94D2F764FF14C00FE003
:102EF00010E020E030E0B901A80104C0440F551FE4
:102F0000661F771F8A95D2F7CB01BA01609570953D
:102F10008095909503C060E070E0CB012C2D269544
:102F200026952370422F50E04230510569F043301E
:102F3000510589F0682979298A299B294130510551
:102F400071F00E94871DD1C0682979298A299B299F
:102F50000E94991DCAC00E94871DC501B4010E942C
:102F6000751DC3C0862F90E0FC01E05EF109E531DC
:102F7000F10508F051C0E158FF4F0C941B30062FAB
:102F80000F708C2D8F71112331F00E940E1D802F38
:102F90000E94E6159EC00E942F1D802F0E94ED15F5
:102FA00098C0112339F0011194C08C2D8F710E94AB
:102FB000541D8FC0023008F08CC0F7CF112339F0B8
:102FC0008C2D8F710E940E1D84C01123C9F38C2D8E
:102FD0008F710E942F1D7DC0112329F08C2D8F71C0
:102FE0000E94F91C76C00E94F41C73C0112351F09A
:102FF0001C2D1F71812F0E940E1D63E0812F0E94E6
:10300000801E67C081E00E94891E023008F461C002
:1030100082E00E94891E5DC0112331F0002381F2FD
:10302000862F0E94781455C0002389F2693349F431
:103030005FEF77EE83E0515070408040E1F700C0D1
:103040000000862F0E94871544C04C2D4F70C70189
:103050000E94C6050E94221C4CC0623F99F128F4D0
:10306000603F49F0613FE1F020C0643FA1F050F0C3
:10307000653F59F01AC0112339F19091920281E015
:10308000892706C081E018271DC011111DC081E0ED
:103090008093920219C0111117C01092920214C0AD
:1030A000002381F0111110C0E8CF002359F0862FC2
:1030B0006983112319F00E94781402C00E948715B9
:1030C000698102C0109392024C2D4F70C7010E947B
:1030D000D80898E0A916B10441F05CF0FAE0AF1A04
:1030E000B10822E0A216B10420F40E94FC120E9452
:1030F000D608DD20F1F00E947C1E80FD1AC0F70189
:1031000012820E94761E0E940E1DC7010E94A718FF
:103110000E94761E0F90DF91CF911F910F91FF902B
:10312000EF90DF90CF90BF90AF909F908F900C94D6
:103130002F1D0F90DF91CF911F910F91FF90EF9076
:10314000DF90CF90BF90AF909F908F9008950F9396
:103150001F93CF93DF93EC01888199812B813C8170
:10316000232BB9F09F3F11F48F3F99F0CE010E94BD
:103170000706882371F0688179818A810E94531E35
:103180008C010E94AB1D0E94AC1CB801CE010E94B4
:10319000F415DF91CF911F910F9108950E94FA1EAF
:1031A0000E940A1F80910301909104010E94122045
:1031B0000E94A71E0E9442230E94A92280E090E064
:1031C0000E941E1380E090E00C9434130E94EA1ECB
:1031D0000C94CE180E94481EE92FE295EF70F0E0A3
:1031E0003297EE30F105B0F4EC56FF4F0C941B30E3
:1031F000803F91F018F4803E68F40EC0843F51F493
:103200000BC0803E48F0813F29F406C093FB88271D
:1032100080F9089580E0089581E00895CF93DF93C9
:1032200000D000D01F92CDB7DEB70F900F900F9057
:103230000F900F90DF91CF910895CF93DF9300D03F
:1032400000D000D0CDB7DEB726960FB6F894DEBF1B
:103250000FBECDBFDF91CF9108951F93CF93DF9322
:10326000C091930216E080919402C81799F0D0E0C3
:103270001C9FF0011D9FF00D1124EB56FD4F408166
:10328000518162817381848195810E941D192196EB
:10329000C770E9CFDF91CF911F9108954091C5028A
:1032A0005091C6026091C7027091C8028091C90214
:1032B0009091CA020C941D198091CA0282958F7058
:1032C00009F054C08091C702882309F44FC080914F
:1032D0009302A09194026091C5027091C602409140
:1032E000C8025091C902B6E08A1709F43FC090E0C5
:1032F00041155105C1F17F3F11F46F3FA1F1B89F16
:10330000F001B99FF00D1124EB56FD4F218172138E
:103310002AC02081621327C02281211124C0238169
:1033200034812417350710F421503109241B350B43
:10333000283C3105C0F42091CA022F7020612093EF
:10334000CA0226E0289FF001299FF00D1124E656BD
:10335000FD4F80818F708061808385EC92E00E94B8
:10336000A7180C942D1901968770BECF0895CF929F
:10337000DF92EF92FF920F931F93CF93DF93CDB71E
:10338000DEB762970FB6F894DEBF0FBECDBF8C01DB
:1033900085E0F801DE011D9601900D928A95E1F716
:1033A000D8014C9111965C91119712966C911297DD
:1033B0001396CD90DC9014973091C5027091C6029F
:1033C0008091C8029091C902009709F46BC17F3FB8
:1033D00019F43F3F09F466C1E090C702EE2009F4FA
:1033E000C0C02091CA02C816D90628F0F601E81B11
:1033F000F90BCF0104C0809590958C0D9D1DFF2485
:10340000F394883C910578F0F12C207F09F0C6C038
:103410007C2DD98AC88A89890E940E1985EC92E090
:103420000E94A718B1C0822F807F09F046C0751393
:1034300014C0341312C0611110C02F70206120938A
:10344000CA020E944E1985EC92E00E94A718809152
:10345000CA02D80115968C932EC0CD2819F15F3F72
:1034600011F44F3FF9F0F62E61111CC080919302C8
:103470002091940236E0821709F45AC090E0389FF8
:10348000F001399FF00D1124EB56FD4F7181571358
:1034900006C07081471303C07281711103C0019689
:1034A0008770E9CFF62E662309F418C18091CA020D
:1034B00081608093CA02F12C11C1751308C03413C6
:1034C00006C0611104C08091CA02D801C3C04D87F3
:1034D0005E878D859E856A8B0E94EA186A8988239B
:1034E000E1F16623D1F12091CA02822F82958F707B
:1034F00090E0029774F08091C5029091C60298877F
:103500008F831986DB86CA862C87CE0107960E9498
:10351000A71886E0F801A5ECB2E001900D928A951B
:10352000E1F70E945C190E944E19FF24F394D6C063
:103530004D875E878D859E850E94481E292F229586
:103540002F7030E0223031050CF0BCC09F7009F0C4
:10355000B6C0805E883008F4C1C0C8010E94A718B8
:10356000E4CFC816D90608F453C0F601E81BF90BDE
:10357000CF01883C910508F450C0F12C7C2DD98AEC
:10358000C88A89890E940E19E5ECF2E086E0DF0125
:103590001D928A95E9F70E944E19A0C0751314C0B8
:1035A000341312C0611110C08091CA02F8018583E2
:1035B000C8010E94A71886E0E5ECF2E0DF011D9249
:1035C0008A95E9F7FE2C8AC04D875E878D859E859A
:1035D0006A8B0E94EA186A89882309F4BECF6623A1
:1035E00009F4BBCF2091CA02822F82958F7090E0A0
:1035F00002970CF48ECF8091C5029091C6029A83F7
:1036000089831B82DD82CC822E83CE0101967FCFFF
:10361000809590958C0D9D1DACCFF62E662309F4F8
:103620009CCF75132EC034132CC02091CA0220FDEC
:103630001FC0822F82958F70D9F0D80115962C93D8
:1036400015978F3049F08F5F982F9295907F822F3A
:103650008F70892B15968C93C8010E94A71886E05D
:10366000F801A5ECB2E001900D928A95E1F793CFB5
:1036700086E0F801A5ECB2E001900D928A95E1F7A1
:103680002DC04D875E878D859E850E94EA18811129
:1036900040CF8091CA0281608093CA02C8010E9413
:1036A000A7181CC0662309F458CF4D875E878D8507
:1036B0009E850E94EA18882309F44FCF2ACF8111F2
:1036C00048CF0CC0243031050CF047CF9F7009F46F
:1036D00040CFF8019581907F09F03BCF8F2D629606
:1036E0000FB6F894DEBF0FBECDBFDF91CF911F9113
:1036F0000F91FF90EF90DF90CF9008951F93CF939D
:10370000DF93CDB7DEB72C970FB6F894DEBF0FBEB0
:10371000CDBF4F83588769877A878B879C87CE0177
:1037200007960E94B719882369F08F8198852A85AA
:103730003B85232BF1F19F3F09F063C08F3F09F0D8
:1037400060C037C086E0FE013796DE011196019019
:103750000D928A95E1F76F817885EA85FB85309730
:1037600041F17F3F11F46F3F21F12091940230E04D
:10377000C9010196877099274091930250E0841700
:10378000950709F447C069837A83FD83EC8396E04B
:10379000929FD001939FB00D1124AB56BD4FFE01F7
:1037A000319601900D929A95E1F7809394020E94D0
:1037B0002D1916E080919302909194028917C1F11E
:1037C000189FC00111248B569D4F0E94B719882362
:1037D00079F1E09193021E9FF0011124EB56FD4F09
:1037E0004081518162817381848195810E941D197C
:1037F0008091930290E001968770992780939302BD
:10380000D9CF4F81588569857A858B859C850E94A3
:103810001D19CFCF0E94E6181092940210929302C5
:10382000E5ECF2E086E0DF011D928A95E9F7C1CF71
:103830002C960FB6F894DEBF0FBECDBFDF91CF91AF
:103840001F910895EF92FF920F931F93CF93DF93F1
:103850008C01892B09F46CC0F12CEE24E394E8016F
:103860002196F8018491843740F4843008F051C0E7
:10387000813081F0823019F15BC0853709F444C092
:10388000A8F19CE7980F903708F052C08F770E94FC
:10389000871541C00E5F1F4FFE01C49180E28C0F5F
:1038A000883048F4C7708E2D01C0880FCA95EAF79A
:1038B0000E94FD1E14C08C2F0E9478142DC00E5F34
:1038C0001F4FFE01C49180E28C0F883058F4C770FE
:1038D0008E2D01C0880FCA95EAF70E94031F0E942F
:1038E000A71E1AC08C2F0E94871516C00E5F1F4F8F
:1038F000FE01C491CC2381F08FE99FE00197F1F79D
:1039000000C00000C150F6CF0E5F1F4FFE01F490C3
:1039100003C00E9478148E018F2D882309F49FCF55
:10392000EFE9FFE03197F1F700C000008150F5CFDB
:10393000DF91CF911F910F91FF90EF90089508951F
:103940000E949F1C609306037093070380930803F3
:10395000909309030C94CE1808950C94A01C0F9317
:103960001F930091060310910703209108033091E3
:103970000903602B712B822B932B1F910F910C94B9
:10398000A01C0F931F930091060310910703209131
:1039900008033091090360237123822393231F912D
:1039A0000F910C94A01C0F931F930091060310918C
:1039B00007032091080330910903602771278227AC
:1039C00093271F910F910C94A01C08950C94E51C53
:1039D0000E94E61C60930203709303038093040328
:1039E000909305030C94CE1860E070E0CB010C942A
:1039F000E81C0F931F9341E050E060E070E08A0103
:103A00009B0104C0000F111F221F331F8A95D2F79C
:103A1000C901B8011F910F910C94E81C0F931F93DB
:103A200041E050E060E070E004C0440F551F661FA5
:103A3000771F8A95D2F78091020390910303A0919A
:103A40000403B09105038A019B01082B192B2A2B33
:103A50003B2BC901B8011F910F910C94E81C0F93E7
:103A60001F9341E050E060E070E004C0440F551F38
:103A7000661F771F8A95D2F740955095609570958F
:103A80008091020390910303A0910403B091050378
:103A90008A019B01082319232A233B23C901B8016A
:103AA0001F910F910C94E81C0F931F9341E050E07D
:103AB00060E070E004C0440F551F661F771F8A95B1
:103AC000D2F78091020390910303A0910403B09177
:103AD00005038A019B01082719272A273B27C901CB
:103AE000B8011F910F910C94E81C0F931F93009144
:103AF0000203109103032091040330910503602B0E
:103B0000712B822B932B1F910F910C94E81C0F9318
:103B10001F9300910203109103032091040330913D
:103B2000050360237123822393231F910F910C942B
:103B3000E81C0F931F93009102031091030320913F
:103B400004033091050360277127822793271F9173
:103B50000F910C94E81C0895292F220F920F990FB2
:103B6000890FA82FA695A695A695877051E001C04C
:103B7000550F8A95EAF785E0A89FD001112420E02F
:103B800030E070E0F901EA0FFB1FE553FD4F408183
:103B9000CB01022E02C0969587950A94E2F78170B8
:103BA0009927819584278523842780832F5F3F4F22
:103BB0002530310539F70895292F220F920F990FDB
:103BC000890F682F669566956695982F977085E0A2
:103BD000689FB001112440E050E080E0FA01E60F58
:103BE000F71FE553FD4F208130E0092E02C03695C6
:103BF00027950A94E2F721703327042E01C0220F83
:103C00000A94EAF7822B4F5F5F4F4530510531F739
:103C10000895CF92DF92EF92FF920F931F93CF936D
:103C2000DF938C01C0900603D0900703E090080357
:103C3000F09009038091020390910303A091040383
:103C4000B0910503C82AD92AEA2AFB2ACFE1D0E09D
:103C5000D701C6010C2E04C0B695A79597958795F8
:103C60000A94D2F780FF06C0B8018C2F0E94F30897
:103C7000019721F4219760F780E001C08C2FDF913C
:103C8000CF911F910F91FF90EF90DF90CF9008950B
:103C9000CF93DF93EC010E94091EBE010E94F3083E
:103CA000DF91CF9108951F93CF93DF93EB01909114
:103CB0009102992321F0CB010E94481E13C0882352
:103CC00049F0CB010E94091E182F682FCE010E94D7
:103CD000AC1D04C0CB010E94DC1D182FBE01812F3A
:103CE0000E94F308DF91CF911F91089580910A03FC
:103CF000859585958595089580910A038770089527
:103D000098E0899F90011124262B20930A030C949C
:103D10000E1D20910A038095822380930A03982F19
:103D2000977069F430E0482F552747FD50952417C8
:103D3000350729F08595859585950C942F1D089557
:103D400090910A03977081E009F480E00895E09172
:103D50000301F091040180912E038083E09103011F
:103D6000F0910401908180912D03892B8083E09153
:103D70000301F0910401908180912C03892B8083B1
:103D800080910B03882381F0E0910301F0910401FD
:103D90009081892B808380910301909104010E947E
:103DA000A01F811110920B038091030190910401D7
:103DB0000C94081380912E03089590912E03892B63
:103DC00080932E030895809590912E0389238093EC
:103DD0002E03089510922E03089590912D03892BA0
:103DE00080932D030895809590912D0389238093CE
:103DF0002D03089510922D03089590912C03892B83
:103E000080932C030895809590912C0389238093AF
:103E10002C03089510922C03089580930B030895AA
:103E200010920B030895CF92DF92EF92FF926C01F4
:103E3000EE24FF24C114D104E104F10421F0C701F0
:103E4000B60120E101C020E0C72ED82EE92EFF24C4
:103E5000C114D104E104F10419F0285FC701B601CF
:103E60006B017C0154E0F694E794D794C7945A957B
:103E7000D1F7C114D104E104F10419F02C5FC7019A
:103E8000B6016B017C0142E0F694E794D794C794A5
:103E90004A95D1F7C114D104E104F10419F02E5F61
:103EA000C701B601DC01CB01B695A795979587951B
:103EB000892B8A2B8B2B09F02F5F822FFF90EF909D
:103EC000DF90CF9008956DEE7EEF80E090E00E944D
:103ED000523060E082E090E00E94353060E083E0A4
:103EE00090E00E94353060E084E090E00E94353040
:103EF00060E085E090E00E94353040E050E0BA019B
:103F000088E090E00C94463080E090E00E942F30F2
:103F100021E08D3E9E4F09F020E0822F089582E03F
:103F200090E00C94213083E090E00C94213084E008
:103F300090E00C942130682F84E090E00C943530B0
:103F4000FC0131969C01205E3F4F80E091919111E0
:103F50008F5FE217F307D1F708959C01FC013296B9
:103F60009FEF80E04191461789F09F3F19F441117E
:103F700001C0982F8F5F8E31A9F79F3F39F0F9016B
:103F8000E90FF11D97FDFA95628308950895FC01EC
:103F9000329680962081261301C010823196E81750
:103FA000F907C1F70895262F2695269526952F31D6
:103FB00068F4FC01E20FF11D677021E030E001C000
:103FC000220F6A95EAF78181282B21830895262FF5
:103FD0002695269526952F3170F4FC01E20FF11DF0
:103FE000677021E030E001C0220F6A95EAF7209562
:103FF000818128232183089520911401222329F00F
:104000002091AB0327FD0C94D31F0C94AD1F20917E
:104010001401222329F02091AB0327FD0C94E71F04
:104020000C94C71FFC01319680961192E817F9078E
:10403000E1F708958091B103843039F11092300393
:1040400020E488E190E00FB6F894A8958093600092
:104050000FBE2093600080E00E94D60883B7817F66
:10406000846083BF83B7816083BF7894889583B76A
:104070008E7F83BF0FB6F894A89580916000886109
:1040800080936000109260000FBE08950895CF9352
:104090000E944C040E9499040E944620C0E08C2F8C
:1040A0000E940205811104C0CF5FCE30C1F701C06C
:1040B00081E0CF9108950E94E6180E94FC120C94B2
:1040C000D6081F920F920FB60F9211248F939F93D1
:1040D000AF93BF9380913003811113C08091A703E8
:1040E0009091A803A091A903B091AA034196A11DA4
:1040F000B11D8093A7039093A803A093A903B09345
:10410000AA03BF91AF919F918F910F900FBE0F9017
:104110001F90189582E084BD93E095BD9AEF97BDFE
:1041200080936E0008952FB7F8948091A703909123
:10413000A803A091A903B091AA032FBF0895CF921D
:10414000DF92EF92FF920F931F932FB7F894409155
:10415000A7035091A8036091A9037091AA032FBFF0
:104160006A017B01EE24FF248C0120E030E0C016C0
:10417000D106E206F30610F4415051099A01281BBA
:10418000390BC9011F910F91FF90EF90DF90CF90F5
:10419000089578941F920F920FB60F9211248F9367
:1041A0009F93AF93BF938091A7039091A803A09191
:1041B000A903B091AA030196A11DB11D8093A70385
:1041C0009093A803A093A903B093AA03BF91AF91C2
:1041D0009F918F910F900FBE0F901F901895F8949C
:1041E00081E08093E00080E28093D800E9ECF0E089
:1041F00010828FE19EE40197F1F700C000001DBA24
:10420000109268001CBC10BE1FBA10927A00109267
:104210006E0010926F001092710010927200108266
:10422000ECEBF0E0108214B817B81AB81DB810BA49
:10423000108215B818B81BB81EB811BA0C94003FFC
:1042400008950E94841F811102C00E94631F0E9472
:104250008F1F80932F030E94971F90E09093AC03D1
:104260008093AB030E94931F682F70E080E090E082
:104270000C94AD1C8091340380FF0BC06091080149
:1042800085E0689FB00111247595679575956795D0
:104290002BC081FF09C06091080185E0689FB001D3
:1042A00011247595679520C082FF07C060910801B1
:1042B00085E0689FB001112417C0909135039923C0
:1042C000D1F060910701961788F72091080185E0E9
:1042D000289F90011124929FA001939F500D1124BB
:1042E00070E0CA010E9407306038710540F4611522
:1042F000710539F002C065E070E0862F08958FE700
:10430000089581E008958091340380FF08C0609192
:10431000060170E0759567957595679521C081FFD9
:1043200006C06091060170E07595679519C082FF1F
:1043300004C06091060170E010C09091350399238C
:10434000C1F0609105019617A0F780910601899F41
:10435000C001112470E00E9407306038710528F414
:104360006115710521F0862F08958FE7089581E08A
:10437000089561E070E0F4CF803F21F40E943A217B
:10438000819504C0813F29F40E943A21809338032B
:104390000895823F21F40E943A21819504C0833F11
:1043A00029F40E943A21809337030895893F19F434
:1043B0000E94832105C08A3F31F40E9483218195A8
:1043C0008093390308958B3F21F40E9483218195C6
:1043D00004C08C3F29F40E94832180933A030895FE
:1043E000843F21F480913603816017C0853F21F41A
:1043F00080913603826011C0863F21F4809136039C
:1044000084600BC0873F21F480913603886005C02B
:10441000883F31F48091360380618093360308959C
:104420008D3F21F48091340381600BC08E3F21F4D5
:1044300080913403826005C08F3F29F4809134035A
:104440008460809334030895803F39F48091380369
:1044500087FF6CC01092380369C0813F29F48091B6
:1044600038031816BCF362C090913703823F29F4D9
:1044700097FF5CC01092370359C0833F19F4191697
:10448000CCF354C0893F41F48091390318160CF0E5
:104490004DC0109239034AC08A3F29F480913903F4
:1044A00087FF44C0F6CF8B3F39F480913A0387FFF2
:1044B0003DC010923A033AC08C3F29F480913A03F0
:1044C0001816BCF333C0843F21F4809136038E7FED
:1044D00017C0853F21F4809136038D7F11C0863F40
:1044E00021F4809136038B7F0BC0873F21F48091AC
:1044F0003603877F05C0883F31F4809136038F7E75
:104500008093360313C08D3F21F4809134038E7F56
:104510000BC08E3F21F4809134038D7F05C08F3F07
:1045200029F4809134038B7F809334038091370387
:1045300081110EC08091380381110AC08091390326
:10454000811106C080913A03811102C01092350397
:10455000089586E393E00E9413130E9493209093A2
:1045600032038093310308951F93CF93DF9380919B
:104570003103909132030E949F20AC01909135034A
:10458000992321F02091090130E006C020913303E6
:104590008AE0289F900111244217530708F46EC047
:1045A00080913703C0913803D091390310913A03B9
:1045B000811107C0C1115EC0D1115CC011115AC078
:1045C0005DC09F3F19F09F5F90933503181624F448
:1045D0000E943A21809337038091370387FF05C0FB
:1045E0000E943A218195809337031C1624F40E947F
:1045F0003A21809338038091380387FF05C00E94D9
:104600003A2181958093380340913703442379F010
:1046100030913803332359F025EB4203A0011124D4
:10462000509337033203C0011124909338031D16B1
:1046300024F40E948321809339038091390387FFFA
:1046400005C00E948321819580933903111624F4BB
:104650000E94832180933A0380913A0387FF05C02B
:104660000E948321819580933A03DF91CF911F911E
:104670000C94A9229F3F09F0A6CFAECFDF91CF9136
:104680001F910895E6E3F3E085E0DF011D928A952E
:10469000E9F710923503109234030895833081F1C5
:1046A00028F4813059F08230D1F00895853009F432
:1046B00049C0B8F1863009F456C00895809133039B
:1046C000262F30E0280F311D2F3F310524F4680FCD
:1046D0006093330308958FEF80933303089580919F
:1046E0000901262F30E0280F311D2F3F310524F41A
:1046F000680F6093090108958FEF80930901089571
:1047000080910801262F30E0280F311D2F3F310501
:1047100024F4680F6093080108958FEF80930801D7
:10472000089580910701262F30E0280F311D2F3F7B
:10473000310524F4680F6093070108958FEF80938B
:104740000701089580910601262F30E0280F311DC2
:104750002F3F310524F4680F6093060108958FEF11
:1047600080930601089580910501262F30E0280FDF
:10477000311D2F3F310524F4680F60930501089522
:104780008FEF809305010895833011F128F4813073
:1047900049F0823091F00895853081F120F1863022
:1047A000C1F1089580913303681720F4861B80932C
:1047B0003303089510923303089580910901681717
:1047C00020F4861B80930901089510920901089531
:1047D00080910801681720F4861B809308010895D2
:1047E00010920801089580910701681720F4861B34
:1047F00080930701089510920701089580910601A2
:10480000681720F4861B8093060108951092060114
:10481000089580910501681720F4861B8093050197
:1048200008951092050108950F931F93873208F0A1
:104830004DC08E3108F093C0803109F47DC008F579
:10484000873009F46BC068F4863009F0A3C080910A
:104850002F03817F8E7F80932F0381E080933C0321
:104860009AC08B3009F48FC08E3009F093C08091CC
:104870002F0382FB222720F991E0922790FB82F9F7
:1048800064C0863109F47FC088F4813109F082C0A8
:104890000E94E6188091AB0387FB222720F991E064
:1048A000922790FB87F98093AB036DC0893109F49F
:1048B0006AC08B3109F06EC080912F0381FB2227E3
:1048C00020F991E0922790FB81F93FC0883309F4E9
:1048D0005AC050F4893209F458C0853309F455C0E0
:1048E000873209F452C056C0833409F44EC028F40C
:1048F0008A3308F44FC0895333C0883409F04AC062
:104900000E94E6180FEF13ED20E301501040204005
:10491000E1F700C000000E94EF2035C080912F0316
:10492000982F9095917090FB80F980932F039111AF
:104930002AC0897F877F10C080912F0383FB2227A5
:1049400020F991E0922790FB83F980932F0399231C
:10495000D1F080912F03816080932F0314C08D517B
:1049600041E050E060E070E08A019B0104C0000F6C
:10497000111F221F331F8A95D2F7C901B8010E9467
:10498000AD1C0E94E61881E006C061E070E080E0A6
:1049900090E0F5CF80E01F910F91089580E0089599
:1049A00080E008958E518A3030F4E82FF0E0E3542F
:1049B000FE4F8081089580E00895CF93C82F8091A5
:1049C0003C03813079F018F08230E9F185C0E09144
:1049D0000301F09104018081813169F0823209F094
:1049E0007DC009C0E0910301F09104018081813113
:1049F00011F0823261F48C2F0E94CE24811104C008
:104A00008C2F0E9414241DC081E090E01AC08C2FCE
:104A10000E94D024811114C0C43179F048F4CB3005
:104A200079F0C03109F05EC082E080933C0308C099
:104A3000C93219F0C83321F055C010923C0352C05E
:104A400081E0817051C0C93279F108F5C43161F15A
:104A5000A0F4C73009F044C01092330384E180937E
:104A60000901C09308018CE38093070188E08093DB
:104A7000060188E28093050133C082EE8C0F8630F8
:104A800078F58C2F0E94D22480933B0329C0CE342A
:104A9000E9F020F4CB3421F56AE013C0C13579F098
:104AA000C235F1F461E00DC080913B03882319F019
:104AB00010923B0315C081E080933C0315C061E078
:104AC00006C080913B030E944E230AC06AE0809199
:104AD0003B030E94C42304C010923C0380E004C046
:104AE00081E002C080E0ADCFCF91089580915D0359
:104AF00008950F931F93CF93DF9300D01F92CDB7EC
:104B0000DEB78C010E94F127823011F0843019F554
:104B100093E099831B830A839093E9008FEF909130
:104B2000E800815095FD06C095ED9A95F1F70000DB
:104B30008111F5CF8091E80085FF0DC040E050E085
:104B400063E070E0CE0101960E940E288091E8009B
:104B50008E778093E8000F900F900F90DF91CF91A8
:104B60001F910F910895CF93DF9300D01F92CDB77F
:104B7000DEB72091B103243031F522E0298380583B
:104B800091099B838A8383E08093E9008FEF909162
:104B9000E800815095FD06C095ED9A95F1F700006B
:104BA0008111F5CF8091E80085FF0DC040E050E015
:104BB00063E070E0CE0101960E940E288091E8002B
:104BC0008E778093E8000F900F900F90DF91CF9138
:104BD0000895CF93DF93EC010E94F127823011F00A
:104BE0008430F9F482E08093E9009FEF8091E8003F
:104BF000915085FD06C085ED8A95F1F70000911171
:104C0000F5CF8091E80085FF0CC040E050E065E002
:104C100070E0CE010E940E288091E8008E7780938C
:104C2000E800DF91CF910895CF93DF93EC010E94CC
:104C3000F127823019F0843009F047C080911401C7
:104C40008823E1F08091AB0387FF18C084E0809354
:104C5000E9008FEF9091E800815095FD06C095E145
:104C60009A95F1F700008111F5CF8091E80085FF5A
:104C70002CC040E050E060E270E017C081E080931B
:104C8000E9008FEF9091E800815095FD06C095ED09
:104C90009A95F1F700008111F5CF8091E80085FF2A
:104CA00014C040E050E068E070E0CE010E940E28A1
:104CB0008091E8008E778093E80080E2FE01ADE30A
:104CC000B3E001900D928A95E1F7DF91CF910895BD
:104CD0008091B003811109C00E94A3290E94002A7B
:104CE0008091E20084608093E20008951092B00306
:104CF0000895089508950C945B2042E061EC81E0F2
:104D00000E941D2942E061EC82E00E941D2942E0E0
:104D100061EC83E00E941D2942E261EC84E00C9486
:104D20001D298091B303833009F455C030F48130DC
:104D300071F0823009F48EC008958A3009F47AC087
:104D40008B3009F460C0893009F09CC020C080918C
:104D5000B203813A09F096C08091E800877F809382
:104D6000E8008091B6039091B703892B21F460E2AB
:104D70008DE393E003C060E080E090E070E00E948B
:104D800059288091E8008B778093E80008958091FE
:104D9000B203813209F076C08091B6039091B703D7
:104DA000009719F0039709F06DC08091E800877FA4
:104DB0008093E8008091E80082FD05C08091B103F6
:104DC0008111F8CF5FC08091F10080935D038091E5
:104DD000E8008B7753C08091B203813A09F052C04A
:104DE0008091B6039091B703892B09F04BC0809155
:104DF000E800877F8093E8008091E80080FFFCCF87
:104E00008091140136C08091B2038132D9F580912E
:104E1000B6039091B703892BA9F58091E800877FAD
:104E20008093E8000E9452298091B403809314017A
:104E30000C94E6188091B203813221F58091E8004C
:104E4000877F8093E8000E9452298091B503809368
:104E50005E0308958091B203813AA1F48091E80045
:104E6000877F8093E8008091E80080FFFCCF8091ED
:104E70005E038093F1008091E8008E778093E800D4
:104E80000C945229089584B7877F84BF0FB6F89495
:104E9000A895809160008861809360001092600006
:104EA0000FBE80E880936100109261000E944B1356
:104EB0000E94A3290E94002A8091E20084608093CE
:104EC000E20078940E948F2C0E944F138AE091E0B8
:104ED0000E94F7128091B103853069F40E941A2074
:104EE0008091AF038823B1F30E944720882391F378
:104EF0000E94F827EFCF0E9457130E94FA11EACFC1
:104F00000C948227292F332723303105C9F064F40C
:104F10002130310581F02230310509F049C08DE69C
:104F200090E02EEE34E048C02132310521F12232EA
:104F3000310571F13DC082E190E02BE535E03CC0E8
:104F400099278130910571F02CF4892B89F5EAEECF
:104F5000F4E00DC08230910541F0039749F5E4EB90
:104F6000F4E005C0E2EDF4E002C0EAEBF4E0849185
:104F700090E09F0121C064307105D0F4660F771F67
:104F8000FB01ED52FE4F2081318189E090E014C099
:104F90006430710568F4FB01EE0FFF1FE553FE4F0F
:104FA00020813181FB01E953FE4F808190E004C0F4
:104FB00080E090E020E030E0FA0131832083089522
:104FC0000895CF93C82F0E94E027C0935F03CF912D
:104FD00008958091B103843011F081E0089582E05A
:104FE000089580915F03811102C00C94E927089510
:104FF00080E189BD82E189BD09B400FEFDCF8091C9
:10500000D8008F7D8093D8008091E00082608093EB
:10501000E0008091E00081FDFCCF0895CF92DF9207
:10502000EF92FF920F931F93CF93DF93EC018B01CD
:105030006A010E947129811133C0C114D10439F071
:10504000F60180819181081B190BC80FD91FE12C33
:10505000F12C0115110519F18091E80085FD16C0AC
:105060008091E8008E778093E800C114D10449F064
:10507000F60180819181E80EF91EF182E08285E0DF
:105080000FC00E947129882321F30AC0899180935F
:10509000F10001501109FFEFEF1AFF0ADACF80E0AB
:1050A000DF91CF911F910F91FF90EF90DF90CF9004
:1050B00008952091B8033091B9032617370748F0B7
:1050C0006115710539F42091E8002E772093E800EE
:1050D00001C0B90140E061157105A9F12091B1034A
:1050E000222309F443C0253009F442C02091E8008E
:1050F00023FD40C02091E80022FD32C02091E8004D
:1051000020FFE9CF4091F3002091F20030E0342BF2
:10511000FC01CF016115710559F02830310540F4CB
:1051200081918093F100615071092F5F3F4FF1CF62
:1051300041E02830310509F040E02091E8002E7769
:105140002093E800C8CF4111C9CF0AC08091B103B4
:10515000882361F0853061F08091E80083FD0AC00A
:105160008091E80082FFF2CF80E0089582E0089508
:1051700083E0089581E008952091B8033091B90348
:105180002617370748F06115710539F42091E800BA
:105190002E772093E80001C0B901FC0120E06115E1
:1051A000710591F18091B103882309F440C08530E5
:1051B00009F43FC08091E80083FD3DC08091E80084
:1051C00082FD2FC08091E80080FFE9CF2091F3009D
:1051D0008091F20090E0922B6115710559F08830B2
:1051E000910540F424912093F100319661507109AA
:1051F0000196F2CF21E0089709F020E08091E800C5
:105200008E778093E800CBCF2111CCCF0AC080915C
:10521000B103882361F0853061F08091E80083FD5F
:105220000AC08091E80082FFF2CF80E0089582E01A
:10523000089583E0089581E00895982F973058F5F8
:105240009093E900981739F07091EC002091ED00EF
:105250005091F00003C0242F762F50E021FF19C099
:105260003091EB003E7F3093EB003091ED003D7FBD
:105270003093ED003091EB0031603093EB00709390
:10528000EC002093ED005093F0002091EE0027FFFA
:1052900007C09F5FD3CF8F708093E90081E00895AE
:1052A00080E008958091B20387FF11C08091E800EB
:1052B00082FD05C08091B1038111F8CF11C08091AA
:1052C000E8008B770BC08091B103882349F080916F
:1052D000E80080FFF8CF8091E8008E778093E800A7
:1052E00008952091E4003091E50095E64091EC00AE
:1052F000842F817040FF22C08091E80080FD1CC097
:105300008091B103882391F0853091F08091EB007A
:1053100085FD10C04091E4005091E500421753070D
:1053200029F39A01915011F784E0089582E00895DD
:1053300083E0089581E0089580E008954091E800B9
:1053400042FFDECF08950E94112A0E94192AE0EE42
:10535000F0E0808181608083E8EDF0E080818F77EC
:10536000808319BCA7EDB0E08C918E7F8C938081F7
:105370008F7E80831092B00308950F931F93CF9375
:10538000DF930E94112A0E94192AC8EDD0E088817B
:105390008F77888388818068888388818F7D8883E0
:1053A00019BC1092B1031092AD031092AF0310928A
:1053B000AE0300EE10E0F80180818B7F808388814E
:1053C0008160888342E060E080E00E941D29E1EE78
:1053D000F0E080818E7F8083E2EEF0E0808181606A
:1053E0008083808188608083F80180818E7F8083C4
:1053F000888180618883DF91CF911F910F910895FB
:10540000E8EDF0E080818F7E8083E7EDF0E0808141
:105410008160808384E082BF81E08093B0030C943C
:10542000BD29E8EDF0E080818E7F80831092E2005C
:1054300008951092DA001092E10008951F920F92E1
:105440000FB60F9211242F933F934F935F936F9357
:105450007F938F939F93AF93BF93EF93FF9380912D
:10546000E10082FF0BC08091E20082FF07C08091C3
:10547000E1008B7F8093E1000E948E2C8091DA0006
:1054800080FF1FC08091D80080FF1BC08091DA0090
:105490008E7F8093DA008091D90080FF0DC080E17B
:1054A00089BD82E189BD09B400FEFDCF81E0809312
:1054B000B1030E94682605C019BC1092B1030E9476
:1054C00076268091E10080FF19C08091E20080FF84
:1054D00015C08091E2008E7F8093E2008091E2000F
:1054E00080618093E2008091D80080628093D80030
:1054F00019BC85E08093B1030E947A268091E10077
:1055000084FF30C08091E20084FF2CC080E189BD1F
:1055100082E189BD09B400FEFDCF8091D8008F7D66
:105520008093D8008091E1008F7E8093E10080918C
:10553000E2008F7E8093E2008091E20081608093A0
:10554000E2008091AD03882311F084E007C08091D0
:10555000E30087FD02C081E001C083E08093B103D6
:105560000E947B268091E10083FF29C08091E200A8
:1055700083FF25C08091E100877F8093E10082E076
:105580008093B1031092AD038091E1008E7F8093F0
:10559000E1008091E2008E7F8093E2008091E20042
:1055A00080618093E20042E060E080E00E941D297B
:1055B0008091F00088608093F0000E947926FF912E
:1055C000EF91BF91AF919F918F917F916F915F917B
:1055D0004F913F912F910F900FBE0F901F901895F4
:1055E0001F920F920FB60F9211242F933F934F9358
:1055F0005F936F937F938F939F93AF93BF93CF935B
:10560000DF93EF93FF93C091E900CF708091EC009E
:10561000D82FD17080FDD0E81092E9008091F00081
:10562000877F8093F00078940E94342B1092E900D9
:105630008091F00088608093F000CD2BCF70C093F4
:10564000E900FF91EF91DF91CF91BF91AF919F91D1
:105650008F917F916F915F914F913F912F910F901B
:105660000FBE0F901F9018951F93CF93DF93CDB768
:10567000DEB7AA970FB6F894DEBF0FBECDBFE2EB40
:10568000F3E088E08E0F9091F10091938E13FBCFA1
:105690000E9491268091E80083FF28C18091B20387
:1056A0009091B303492F50E04A30510508F01EC1D4
:1056B000FA01EE55FF4F0C941B30803821F08238F0
:1056C00009F014C108C08091AE039091AF039923F3
:1056D00089F082600FC08091B6038F70873008F028
:1056E00005C18093E9008091EB0085FB882780F954
:1056F0001092E9009091E800977F9093E8008093E2
:10570000F1001092F100D0C0282F2D7F09F0EEC0DB
:10571000882319F0823061F0E9C08091B4038130B0
:1057200009F0E4C0933009F080E08093AF032EC00D
:105730008091B40381112AC08091B6038F702FEF3E
:10574000280F263008F0D2C08093E9002091EB00AA
:1057500020FF1CC0933021F48091EB00806214C0C4
:105760009091EB0090619093EB0021E030E0A90173
:1057700002C0440F551F8A95E2F74093EA00109249
:10578000EA008091EB0088608093EB001092E900C2
:105790008091E800877F8093E8000E945229A6C08C
:1057A0008111A4C01091B4031F778091E300807829
:1057B000812B8093E3008091E800877F8093E8004D
:1057C0000E9452298091E80080FFFCCF8091E30085
:1057D00080688093E300111102C082E001C083E081
:1057E0008093B10383C08058823008F07FC08091DD
:1057F000B4039091B5038C3D53E0950779F583E0B0
:105800008A838AE289834FB7F894DE01139620E0F9
:105810003EE051E2E32FF0E050935700E49120FF87
:1058200003C0E295EF703F5FEF708E2F90E0EA309B
:1058300010F0C79601C0C0968D939D932F5F2431C1
:1058400049F74FBF8091E800877F8093E8006AE2C4
:1058500070E0CE0101960E94592815C06091B603F0
:105860007091B703AE014F5F5F4F0E948027BC016C
:10587000892BE1F19091E800977F9093E80089816E
:105880009A810E94BC288091E8008B778093E80081
:105890002DC0803859F58091E800877F8093E8001B
:1058A0008091AD038093F1008091E8008E7773CFF3
:1058B00081111CC09091B4039230C0F48091E80033
:1058C000877F8093E8009093AD030E9452298091D6
:1058D000AD03811106C08091E30087FD02C081E025
:1058E00001C084E08093B1030E947D268091E8008E
:1058F00083FF0AC08091E800877F8093E800809151
:10590000EB0080628093EB00AA960FB6F894DEBF9E
:105910000FBECDBFDF91CF911F9108950895CF9312
:105920008091B1038823A1F0C091E900CF709091DC
:10593000EC00892F817090FD80E8C82B1092E9005F
:105940008091E80083FD0E94342BCF70C093E90062
:10595000CF9108955058BB27AA270E94C22C0C94BF
:105960006D2E0E945F2E38F00E94662E20F039F4D2
:105970009F3F19F426F40C94352E0EF4E095E7FBC6
:105980000C942F2EE92F0E947E2E58F3BA1762072F
:1059900073078407950720F079F4A6F50C94A02EE0
:1059A0000EF4E0950B2EBA2FA02D0B01B90190013A
:1059B0000C01CA01A0011124FF27591B99F0593F7E
:1059C00050F4503E68F11A16F040A22F232F342FC6
:1059D0004427585FF3CF469537952795A795F04014
:1059E0005395C9F77EF41F16BA0B620B730B840B29
:1059F000BAF09150A1F0FF0FBB1F661F771F881FE1
:105A0000C2F70EC0BA0F621F731F841F48F4879538
:105A100077956795B795F7959E3F08F0B0CF93952A
:105A2000880F08F09927EE0F9795879508950E94A3
:105A30002B2D0C946D2E0E94662E58F00E945F2E26
:105A400040F029F45F3F29F00C942F2E51110C9453
:105A5000A12E0C94352E0E947E2E68F39923B1F36B
:105A6000552391F3951B550BBB27AA276217730784
:105A7000840738F09F5F5F4F220F331F441FAA1F18
:105A8000A9F335D00E2E3AF0E0E832D091505040D4
:105A9000E695001CCAF72BD0FE2F29D0660F771F82
:105AA000881FBB1F261737074807AB07B0E809F068
:105AB000BB0B802DBF01FF2793585F4F3AF09E3FED
:105AC000510578F00C942F2E0C94A12E5F3FE4F337
:105AD000983ED4F3869577956795B795F7959F5F30
