:100000000C9434030C9451030C9451030C9451033D
:100010000C9451030C9451030C9451030C94510310
:100020000C9451030C9451030C94E62B0C94B92CB2
:100030000C9448220C9451030C9451030C945103DA
:100040000C9451030C9451030C9451030C945103E0
:100050000C9451030C94B0220C9451030C94510352
:100060000C9451030C9451030C9451030C945103C0
:100070000C9451030C9451030C9451030C945103B0
:100080000C9451030C9451030C9451030C945103A0
:100090000C9451030C9451030C9451030C94510390
:1000A0000C9451030C9451030C9451030763423692
:1000B000B79BD8A71A39685618AEBAAB558C1D3CF9
:1000C000B7CC5763BD6DEDFD753EF6177231BF00BD
:1000D0000000803F05A84CCDB2D44EB93836A902F5
:1000E0000C50B9918688083CA6AAAA2ABE00000036
:1000F000803F0000F0A129002B00E000E100E200B9
:1001000000001E00140004001D00000000001F007D
:100110001A0016001B000000E30020000800070082
:1001200006000000E5002100150009001900025139
:100130000000220017000A00050000000000000077
:100140002C0400001E010000660C00000354000097
:100150001F010000000023001C000B001100000024
:100160000000240018000D001000015100002500BF
:100170000C000E00360000002C00260012000F00BC
:1001800037000000E70027001300330038000000AC
:10019000000000002A002800E500E6000000003012
:1001A0000100010001000100000000001E002B0002
:1001B00000000000010000001F00350000000000EA
:1001C00001000000200031002900000001000000B3
:1001D00021003400000000000100000022002A007D
:1001E00000000000010000001014000000000000EA
:1001F00001000000000000000000000001000000FD
:1002000023000000000000000100000024002D0079
:10021000000001000100000025002E000100010087
:100220000100000026002F00010001000100000075
:100230002700300001000100010001000100010061
:100240000100010000000000000000000000005C50
:1002500000003A00AA0000000000000001003B007E
:10026000A90000000000000001003C00A800000000
:100270000000000001003D00000000000000000040
:1002800001003E000000000000000000010000002E
:10029000000000000000000001000000000000005D
:1002A0000000000001003F000000F200000000001C
:1002B00001004000F400F1000000000001004100D6
:1002C000F500F00000000000010042000000F30013
:1002D0000000000001004300440045000000000051
:1002E000010000000000000000000000000000000D
:1002F00000000000000000000000000000000000FE
:1003000000000000000000000000161400000000C3
:1003100000000000000000000614000005000000BE
:1003200000000000000000000000000017140A1484
:1003300000000000000000000000000000000000BD
:10034000000000000051000000000000000000005C
:10035000000000000000000000000000000000009D
:1003600000000000000000000C140000000000006D
:100370000000000000000F1400000000000000005A
:10038000000000000000000000000000000000006D
:1003900000000000000000047F3F1F64321464323C
:1003A00014783C1E1E140A056801F000B4007800A1
:1003B0005A000000000000010101010101010101DA
:1003C0000202020202020202020303030303030306
:1003D00003040404040404050505050506060606D1
:1003E0000607070707080808080909090A0A0A0A88
:1003F0000B0B0B0C0C0C0D0D0D0E0E0F0F0F101028
:1004000011111112121313141415151616171718AB
:100410001819191A1A1B1C1C1D1D1E1F1F20202114
:1004200022222324252526272728292A2B2B2C2D59
:100430002E2F2F30313233343536363738393A3B78
:100440003C3D3E3F4041424344464748494A4B4C6D
:100450004D4F50515253555657585A5B5C5E5F6032
:100460006263646667696A6C6D6E707173747678C6
:10047000797B7C7E8081838486888A8B8D8F919224
:100480009496989A9B9D9FA1A3A5A7A9ABADAFB148
:10049000B3B5B7B9BBBDBFC1C4C6C8CACCCFD1D331
:1004A000D6D8DADCDFE1E4E6E8EBEDF0F2F5F7FAD6
:1004B000FCFF0403300000001603450072006700D3
:1004C0006F0044006F007800200045005A000000D3
:1004D00016034500720067006F0044006F0078004B
:1004E000200045005A0000000403090409026D00C1
:1004F000040100A0FA090400000103010100092120
:10050000110100012240000705810308000A0904C7
:1005100001000103010200092111010001224D0027
:100520000705820308000A09040200010300000015
:100530000921110100012236000705830308000A82
:100540000904030001030000000921110100012238
:10055000390007058403200001120110010000008A
:1005600008EDFE071301000102030105010906A1C0
:1005700001050719E029E715002501950875018196
:100580000205081901290595057501910295017566
:100590000391010507190029F71500250195F87544
:1005A000018102C005010980A10185021601002612
:1005B00003001A81002A8300751095018100C0058F
:1005C0000C0901A1018503160100269C021A0100F5
:1005D0002A9C02751095018100C005010902A10144
:1005E0000901A10005091901290515002501950535
:1005F00075018102950175038101050109300931F9
:100600001581257F95027508810609381581257F9A
:10061000950175088106050C0A38021581257F951C
:100620000175088106C0C005010906A10105071969
:10063000E029E715002501950875018102950175EE
:100640000881010508190129059505750191029593
:1006500001750391010507190029FF150026FF0008
:10066000950675088100C00011241FBECFEFDAE0A7
:10067000DEBFCDBF11E0A0E0B1E0E6E7F4E602C0E6
:1006800005900D92A83EB107D9F723E0A8EEB1E09E
:1006900001C01D92AD3BB207E1F70E9413290C94F3
:1006A00039320C94000080B38C7080BB81B3836FAF
:1006B00081BB089584B1807F84B985B1807F85B97D
:1006C0008AB1837F8AB98BB1837F8BB93E98469874
:1006D0000895CF93C82F873080F5809100019091C5
:1006E0000101892B99F564E670E080E40E94EE0434
:1006F0009093010180930001892BD1F464E670E0AE
:1007000082E10E9443059093010180930001892BAF
:1007100079F481E090E001C0880FCA95EAF764E6B9
:1007200070E080950E944305909301018093000141
:1007300084E690E0CF910C9496058A30B9F040F4AD
:10074000883071F0893079F0209A2898CF910895F7
:100750008C3091F070F08D30B9F73E9A4698F6CF14
:10076000219A2998F3CF229A2A98F0CF239A2B988E
:10077000EDCF529A5B98EACF539AFCCFCF93873054
:1007800008F042C08091000190910101C0E0892BE6
:1007900081F464E670E080E40E94EE04909301012D
:1007A00080930001892B41F0C0E084E690E00E9434
:1007B00096058C2FCF91089564E670E083E10E9446
:1007C00043059093010180930001892B69F764E64A
:1007D00070E081E40E94EE04909301018093000197
:1007E000892B11F784E690E00E94720597FF05C0FF
:1007F0009093010180930001D7CFC82FC09510922C
:10080000010110920001D1CFCFB18FB186958695AD
:100810008C73C3708C2BC82FC095CBCF0C94C6069D
:100820000E943A0690E090930101809300010E949B
:100830005A030E945303EDE3F2E089EE91E0119236
:10084000DC0126E01D922150E9F7069622E0EB3408
:10085000F207A9F70C94F1060E943A0690E09093F3
:100860000101809300010E945A030E945303EDE3AB
:10087000F2E0119282E0EB34F807D9F7089596E0A0
:10088000899FF0011124E751FE4F30E020E080E025
:1008900041E050E09191992351F0DF01119791507F
:1008A0009C932F5F3F4F26303105A1F70895BA0181
:1008B000022E01C0660F0A94EAF7862BF2CF96E06B
:1008C000699FB001112430E020E090E045E0FC0198
:1008D000022E02C0F595E7950A94E2F7E0FF06C004
:1008E000F901E60FF71FE751FE4F40832F5F3F4F9F
:1008F0002630310561F70895EF92FF920F931F9311
:10090000CF93DF938091000190910101892B91F0A9
:100910008091E8018F5F8093E80181110BC00E94F4
:100920003A0690E09093010180930001892B11F425
:100930000E94E4050DE312E0C0E08C2F0E946903E1
:1009400087E0F82EFC0E8F2D0E9469038C2F0E94E9
:100950003F04E82E8C2F0E94BE03F80191918F0175
:10096000DE2DD095D9238E21D82B6C2F892F8D2762
:100970000E945F04F8013197D0838F2D0E943F04BD
:10098000E82E8F2D0E94BE03F8019681DE2DD095B2
:10099000D9238E21D82B6F2D892F8D270E945F049C
:1009A000F801D6830E945A03CF5FC73031F60E9408
:1009B000F90681E0DF91CF911F910F91FF90EF90A9
:1009C0000895E82FF0E0E35CFD4F808108950895DD
:1009D0001092B9008CE08093B8000895EF92FF92D6
:1009E0000F931F93CF93DF93182FEB011092BC004E
:1009F00084EA8093BC000E947A227C018091BC0032
:100A000087FF0DC08091B900887F8830D9F0809130
:100A1000B900887F8031B1F08FEF9FEF0CC0CF3FDE
:100A2000DC0761F30E947A228E199F098C179D07BB
:100A300028F38EEF9FEFDF91CF911F910F91FF90E1
:100A4000EF9008951093BB0084E88093BC000E944F
:100A50007A228C018091BC0087FF0AC08091B90086
:100A6000887F883111F08034B9F690E080E0E3CFE0
:100A7000CF3FDC0779F30E947A22801B910B8C1701
:100A80009D0740F3D6CF0F931F93CF93DF93EB01D6
:100A90008093BB0084E88093BC000E947A228C0182
:100AA0008091BC0087FF11C02091B900287F81E0B0
:100AB00090E0283211F490E080E0919581959109C1
:100AC000DF91CF911F910F910895CF3FDC0741F344
:100AD0000E947A22801B910B8C179D0708F38EEFE2
:100AE0009FEFEECF0F931F93CF93DF93EC0184E83A
:100AF0008093BC000E947A228C018091BC0087FF09
:100B000008C08091BB0090E0DF91CF911F910F91C1
:100B10000895CF3FDC0789F30E947A22801B910B56
:100B20008C179D0750F38EEF9FEFEECF0F931F931F
:100B3000CF93DF93EC0184E98093BC000E947A227A
:100B40008C018091BC0084FD07C090E080E0DF91C3
:100B5000CF911F910F910895CF3FDC0791F30E9431
:100B60007A22801B910B8C179D0758F38EEF9FEF15
:100B7000EECF259A2D9A0895269A2E9A0895279AAF
:100B80002F9A089556985E98089525982D9808955F
:100B900026982E98089527982F9808950E94C205A8
:100BA0000E94C5050E94C8050C94CB0590E0909367
:100BB00089008093880090938B0080938A009093A3
:100BC0008D0080938C0008950E94CE058FEF0E94C7
:100BD000D6050E94B9052FEF80E792E021508040B2
:100BE0009040E1F700C000000E94BC052FEF80E7B5
:100BF00092E0215080409040E1F700C000000E9448
:100C0000BF052FEF80E792E0215080409040E1F750
:100C100000C000000E94C5052FEF80E792E0215040
:100C200080409040E1F700C000000E94C8052FEF0F
:100C300080E792E0215080409040E1F700C0000042
:100C40000E94CB050C94CE0589EA8093800089E050
:100C50008093810024982C983F988AB18F7C8AB920
:100C60006E98479A8BB180638BB9769A0E94E4059F
:100C70000C94C50680E290E09093010180930001FE
:100C800080914B0281110EC00E94E80481E08093A4
:100C90004B022FEF83ED90E3215080409040E1F72D
:100CA00000C0000064E670E080E40E94EE049093CF
:100CB000010180930001892B09F050C064E670E0C7
:100CC00080E00E9443059093010180930001892BED
:100CD00009F044C064E670E080E00E944305909310
:100CE000010180930001892BC9F564E670E08FE370
:100CF0000E9443059093010180930001892B71F5B7
:100D000084E690E00E94960564E670E080E40E942C
:100D1000EE049093010180930001892BF9F464E6BD
:100D200070E08CE00E9443059093010180930001E4
:100D3000892BA1F464E670E080E00E944305909363
:100D4000010180930001892B49F464E670E08FE390
:100D50000E944305909301018093000184E690E096
:100D60000E949605809100010895611107C0FC0161
:100D70008281882331F085EE0E94EB1590E080E0BF
:100D8000089585EE0E94CE16F9CF0895CF93609115
:100D900008037091090380910A0390910B030E944C
:100DA000BD20C82F0E94C2050E94C5050E94C8052B
:100DB0000E94CB05C23039F0C33041F0C13049F454
:100DC000CF910C94B905CF910C94BC05CF910C94A4
:100DD000BF05CF91089581E0089581E008950C94B6
:100DE000ED060E940A21811102C00E9478210C9414
:100DF00024060C940E04282F2F7041F0822F90E0CF
:100E00002A3010F44D9608950697089587E290E0F1
:100E1000089508950C9409070C940A0708950E94F8
:100E20004C1A0E940E072FEF84E39CE02150804073
:100E30009040E1F700C000000C94D622FF920F937F
:100E40001F93CF93DF938C01FC01C081D1818091EE
:100E50009602811150C08281882309F447C0CE01D7
:100E60000E94971FF82E682FCE010E943B1FBE01E3
:100E70008F2D0E94F409EC01B8010E94EF0688232F
:100E800009F4E9C0B801CE010E94640C882309F47A
:100E9000E2C0CC3CFCE5DF0709F42EC108F071C0CC
:100EA000C43C9CE5D90709F400C108F048C0C5312D
:100EB000FCE5DF0728F5C2308CE5D80708F09CC1B7
:100EC000C1159CE5D90709F4C1C0C130DC4509F45E
:100ED000C9C081E08093510280935202C801DF9122
:100EE000CF911F910F91FF900C94EB06CE010E94C1
:100EF0006B1FF82EBCCFCE010E94971FBE01B9CF49
:100F0000C23CFCE5DF0709F4BEC008F0C3C0C6312F
:100F1000DC45F9F60E947E20F8019281992309F4BC
:100F200058C28A7A91E009F490E090934C028111C2
:100F30004EC289E20E9407200E944B208CC0F8011B
:100F40008281C83CFCE5DF0709F4C4C068F4C63CF4
:100F5000ECE5DE0709F4B9C008F4B2C0882309F44F
:100F60007AC00E947A0F77C0CA3C9CE5D90709F481
:100F7000BDC008F4B5C0882309F46DC00E94190EE5
:100F80006AC0C43DFCE5DF0709F414C170F5F8013F
:100F90008281C03DFCE5DF0709F4D0C0D8F4CE3C27
:100FA000ECE5DE0709F4B7C008F4AEC0882309F405
:100FB00052C00E940B0E663071058105910540F00C
:100FC0000E940B0E683071058105910508F475C00B
:100FD00086E09EC0C23D9CE5D90709F4D7C008F45D
:100FE000C1C08823C1F188E193C0C83DFCE5DF079B
:100FF00009F4D2C1B0F4F8018281C63DFCE5DF07F7
:1010000009F47EC108F4ECC0882309F4A7C110924A
:1010100052020E947A229093500280934F0280E203
:101020007AC1CC3DECE5DE0709F4DFC0CD3DFCE53F
:10103000DF0711F1CB3DDC4509F04BCFF801828190
:10104000882349F080E00E94AE2905C0F801828122
:1010500081110E940F0780E0DF91CF911F910F91C6
:10106000FF900895F80182818823A9F380913503C8
:10107000816080933503EFCFF8018281882359F393
:101080000E947821E8CFF8018281882321F30E9411
:101090008310E1CFF80182818823E9F20E947E204B
:1010A000827259F00E942510D6CFF80182818823E0
:1010B00091F20E947E208272A9F30E941B10CBCF76
:1010C000882349F20E94430FC6CF882321F20E9451
:1010D0005B0FC1CF882309F4BECF0E948C0FBBCF1A
:1010E000882309F4B8CF0E949E0FB5CF882309F456
:1010F000B2CF0E94B60FAFCFF8018281882309F4E6
:10110000AACF0E942E0EA7CF882309F4A4CF81E096
:101110000E941810A0CF882309F49DCF0E940B0EC7
:10112000623071058105910538F00E940B0E653023
:1011300071058105910508F282E0EACF882309F460
:101140008ACF0E940B0E693071058105910540F030
:101150000E940B0E6E3071058105910508F4ADCF2C
:1011600089E0D6CF882309F476CF0E940B0E6F302A
:1011700071058105910540F00E940B0E64317105E7
:101180008105910508F499CF8FE0C2CF882309F437
:1011900062CF0E940B0E653171058105910540F00B
:1011A0000E940B0E673171058105910508F485CF0A
:1011B00085E1AECFF8018281882309F44CCF0E94EB
:1011C0000B0E693171058105910540F00E940B0EEF
:1011D000623271058105910508F46FCF89E198CFDE
:1011E000882309F438CF83E293CFF80182818823E2
:1011F00009F431CF82E027CFF8018281882309F4F6
:101200006DCE0E940A21811102C00E9478210E94A5
:101210001D2190E09093AF038093AE03FE01E35055
:10122000FC458091AE038160E231F105C8F4E55ED2
:10123000F64F0C94DE312D0939093D094109450964
:1012400049094D095109550959095D09610965099E
:1012500069096D097109750979098091AE03826088
:101260008093AE038091AE030E9421210E944C1A0C
:10127000F2CE8091AE038460F3CF8091AE0388609C
:10128000EFCF8091AE038061EBCF8091AE0380629F
:10129000E7CF8091AE038064E3CF8091AE03806896
:1012A000DFCF8091AE038460EACF8091AE038E7F62
:1012B000D7CF8091AE038D7FD3CF8091AE038B7F4C
:1012C000CFCF8091AE03877FCBCF8091AE038F7E4F
:1012D000C7CF8091AE038F7DC3CF8091AE038F7B4C
:1012E000BFCF8091AE038F77BBCF8091AE038B7F52
:1012F000EACF9091AE03892F97FB87F98058B0CF42
:10130000882361F0109251020E947A2290934E023B
:1013100080934D0282E00E9424179DCE0E947E2081
:1013200085FF05C081E08093510280935202809135
:10133000510281110FC080914D0290914E020E9486
:101340008622883C910530F486E20E94EB1586E205
:101350000E94CE1682E00E942B177DCE0E947E2036
:1013600081FF05C081E080935102809352028091F9
:10137000520281110FC080914F02909150020E9441
:101380008622883C910530F487E20E94EB1587E2C3
:101390000E94CE1680E2DFCFF8018281811137CE24
:1013A000809152028111F6CF80914F0290915002AC
:1013B0000E948622883C910568F780E20E942B17E4
:1013C00088E20E94EB1588E20E94CE1644CE85E3A7
:1013D000B1CD80914C02811104C089E20E940E209F
:1013E000ABCD85E3FBCF0895972F70E026E0929F69
:1013F000600D711D1124FB0194E5899FE00DF11D25
:101400001124EE0FFF1FEA50FF4F8591949108952C
:10141000FC01EE0FFF1FEE50FF4F85919491089550
:10142000CF93DF930E94F4090E94C10BEC01811558
:10143000904508F043C0C11580E4D80708F013C1F7
:10144000C83ED10528F5C03ED10508F0A7C0C83A6E
:10145000D10580F4C53AD10508F096C0C130D10558
:1014600009F49CC020F0C430D10508F097C0D0E04A
:10147000C0E094C0CD3BD10508F494C0CE01805C9F
:101480009109C03CD10598F30E94080AEC0186C07E
:10149000C11520E2D20750F4C11581E0D80708F049
:1014A0007DC0C03FD10518F3D06578C0C11520E3D9
:1014B000D20708F0CEC0CE019F70E6CFC11585E5FA
:1014C000D80760F5C11524E5D20708F0FAC0C115A8
:1014D00082E5D80750F4C11521E5D20708F4C6C04B
:1014E000DC2FCC27C16FD06A59C09C2F969596955A
:1014F0009E0123703327C115D34508F0D3C0C1E046
:10150000D0E002C0CC0FDD1F2A95E2F720E2929FC7
:10151000C0011124C82BD92BDC6840C0C1152AE5B5
:10152000D207A0F4C11589E5D80708F0D5C0C115C8
:1015300026E5D20708F4CAC0C11588E5D80708F423
:1015400096CFDC2FCC27C06FD06A28C0C1152BE501
:10155000D20708F48CCFC1158CE5D80708F4C9C0B0
:10156000CE0190568115904208F081CF8D2F8F715A
:101570000E94410CDD27D06290E0982F88278827B1
:101580009F71C82BD92B0AC0C53AD10509F4B4C044
:10159000C63AD10509F4B3C0C3E8D0E4CE01DF9167
:1015A000CF910895C83AD10509F4ACC0C93AD10524
:1015B00009F4ABC0CA3AD10509F4AAC0CB3AD105A7
:1015C00009F4A9C0CC3AD10509F4A8C0CB3BD10598
:1015D00009F4A7C0CC3BD10509F4A6C0CD3AD1058A
:1015E00009F4A5C0C03BD10509F4A4C0CE3AD10589
:1015F00009F4A3C0CF3AD10509F4A2C0C13BD1057B
:1016000009F4A1C0C23BD10509F4A0C0C33BD10578
:1016100009F49FC0C43BD10509F49EC0C53BD10568
:1016200009F49DC0C63BD10509F49CC0C73BD10558
:1016300009F49BC0C83BD10509F49AC0C93BD10548
:1016400009F499C0CA3BD10509F098C0CAE2D6E4B2
:10165000A5CFCE019927D3FF03C0EC01D86C9ECF54
:10166000EC01D06C9BCFDF70D06A98CFCE01E4E064
:1016700096958795EA95E1F783709C2F937021E00A
:1016800030E002C0220F331F9A95E2F73C68382BF6
:10169000C695C695C37080E2C89FE0011124C22B95
:1016A000D32B7CCFC1E0D0E002C0CC0FDD1F2A9548
:1016B000E2F720E2929FC0011124C82BD92BDA68EF
:1016C0006DCFDC2FCC27C46FD06A68CFDC2FCC273E
:1016D000CC27DF71D06262CFCE0134E0969587953A
:1016E0003A95E1F78F70CF70C06ED0E0D06AD82BFA
:1016F00055CFDD27D06652CFC1E8D0E44FCFC2E846
:10170000D0E44CCFC2EED4E449CFC9EED4E446CF06
:10171000CAEED4E443CFC5EBD4E440CFC6EBD4E467
:101720003DCFC3EBD4E43ACFC4EBD4E437CFC7EB1F
:10173000D4E434CFCCECD4E431CFCDECD4E42ECF10
:10174000C3E8D5E42BCFCAE8D5E428CFC2E9D5E475
:1017500025CFC4E9D5E422CFC1E2D6E41FCFC3E24E
:10176000D6E41CCFC4E2D6E419CFC5E2D6E416CF46
:10177000C6E2D6E413CFC7E2D6E410CFC0E0D4E48B
:101780000DCF8238910549F1B0F48133910509F408
:101790005CC048F48932910509F452C08A3291053F
:1017A00009F458C008958533910509F444C089337C
:1017B000910599F00895833E910531F138F4803E0A
:1017C000910591F0823E9105B1F00895863E910514
:1017D00011F1873E910541F108952091AE032370E8
:1017E000C9F080EE90E008952091AE0320FF12C072
:1017F00089E390E008952091AE0322FF0BC024FFFF
:101800002EC090E080E008952091AE0322FD2AC012
:1018100024FDF7CF08952091AE0323FFFBCF24FDD5
:10182000F0CF87EE90E008952091AE0323FFF0CF34
:1018300086EE90E008952091AE0325FD16C0089530
:101840002091AE0325FD14C008952091AE0326FD1E
:1018500012C008952091AE0326FD10C0089583EEB6
:1018600090E0089582EE90E0089589E290E0089576
:1018700085E390E008958AE290E0089581E390E0A6
:10188000C9CF9091AE0392FF06C0282F287128304F
:1018900069F4877F846093FF06C0282F2871283160
:1018A00061F4877E846194FD877E0895282F2471DA
:1018B000243089F78B7F8860EECF282F2471243164
:1018C00091F78B7E8861EFCFCF93DF93EC01C1302E
:1018D00080E8D80770F0FB018281882351F00E94D4
:1018E0007D0C0E948B0CCE019F770E94560D0E94AA
:1018F000080D81E0DF91CF9108958091530281110D
:1019000009C08CE090E00E94F1318093540281E0A4
:10191000809353020895E0910F01F09110018081AE
:101920008093660381FF03C081EE0E94CE168091F2
:10193000660385FF03C085EE0E94CE168091660384
:1019400080FF03C080EE0E94CE168091660384FF64
:1019500003C084EE0E94CE168091660382FF03C00E
:1019600082EE0E94CE168091660386FF03C086EE4B
:101970000E94CE168091660383FF03C083EE0E940F
:10198000CE168091660387FF03C087EE0E94CE16B5
:1019900080915402823049F158F4882379F08130E3
:1019A00089F08FE39CE90197F1F700C000000895EA
:1019B000843019F18530A9F786EE01C082EE0E94CD
:1019C000EB15EFCF80EE0E94EB1581EE0E94EB1538
:1019D00088E10E94EB1588E10E94CE1681EE0E94FC
:1019E000CE1680EE0E94CE16DCCF82EE0E94EB1562
:1019F00087E50E94EB1587E5F5CF86EE0E94EB1593
:101A000086EE0E94CE1688E10E94EB1588E1EACFAF
:101A100080915402813009F443C0E0F18230D1F169
:101A20008530E1F18091660381FF03C081EE0E9461
:101A3000EB158091660385FF03C085EE0E94EB15D0
:101A40008091660380FF03C080EE0E94EB158091B9
:101A5000660384FF03C084EE0E94EB158091660349
:101A600082FF03C082EE0E94EB158091660386FF21
:101A700003C086EE0E94EB158091660383FF03C0CE
:101A800083EE0E94EB158091660387FF0EC087EE00
:101A90000C94EB1582EE0E94CE16C4CF86EEFBCFDF
:101AA0008CE20E94EB158CE2F6CF0895EF92FF9244
:101AB0001F93CF93DF937C01CCE0D0E0C7010C2EC5
:101AC00002C0969587950A94E2F7182F1F70812F10
:101AD0000E94FB060E94EB15812F0E94FB060E94CC
:101AE000CE162497CC3F8FEFD80741F7DF91CF91E7
:101AF0001F91FF90EF900895CF92DF92EF92FF92A7
:101B00000F931F93CF93DF93E901662309F466C017
:101B1000E42EF12CEFEFF0E0E61BF109EE9D8001E1
:101B2000EF9D100DFE9D100D1124212FE12FFF2799
:101B3000EE1AFF0A5CE3C52ED12CB6010E94B63125
:101B4000FB01BC01E69EC001E79E900DF69E900D44
:101B50001124B6010E94B631E230F10589F168F432
:101B6000812F262F210F309781F0242F461B31978C
:101B700061F080E020E040E008C0E430F10551F180
:101B800028F1842F861B3597A1F7E42FF0E0EE545F
:101B9000FC4F4491E22FF0E0EE54FC4F9491E82F7B
:101BA000F0E0EE54FC4FE49149839883EA83DF919F
:101BB000CF911F910F91FF90EF90DF90CF900895FC
:101BC000862F810FE42F412F2E2FDFCFE42FE61B2E
:101BD000842FF9CF842F462F410FD7CF842F242F66
:101BE000D4CF88E090E00C94F931AB01BC0188E0DF
:101BF00090E00C941732E7E6F3E083E080831092E4
:101C000068038FEF82838383148260817181828174
:101C100093810C94F50D6091670360FF06C0669593
:101C20006F7370E090E080E0089560E070E0CB01B9
:101C3000089580916B0390E001968430910514F033
:101C400083E090E080936B03609167037091680379
:101C50008091690390916A030C94F50D80916B0358
:101C60008150990B97FF02C090E080E0843091058D
:101C700014F083E090E080936B03609167037091B0
:101C800068038091690390916A030C94F50D80912B
:101C90006703ECE6F3E080FF06C06FE070E08CE6DF
:101CA00093E00C940E14118210821282349683E019
:101CB000E83AF807C1F7F1CF9091670390FF0CC0A5
:101CC000ECE6F3E0818360834283349693E0E83A64
:101CD000F907C1F70C94470E0895CF93DF9300D016
:101CE00000D0CDB7DEB72091670320FF0AC09E0168
:101CF0002F5F3F4F0E947C0D4B8169818A810E943A
:101D00005C0E0F900F900F900F90DF91CF91089580
:101D10005F926F927F928F929F92AF92BF92CF927B
:101D2000DF92EF92FF920F931F93CF93DF9300D038
:101D300000D0CDB7DEB78C01E62EF42E522E809166
:101D4000670380FF30C0982F9E77923009F03FC024
:101D50009E012F5F3F4FC8010E947C0D4B8169811E
:101D60008A810E945C0E8091670300FB87F9809353
:101D70006703902F9695809168038078892B10FBDC
:101D800087F980936803E0926903F0926A03552013
:101D900051F060916703709168038091690390919D
:101DA0006A030E94F50D0F900F900F900F90DF9136
:101DB000CF911F910F91FF90EF90DF90CF90BF9048
:101DC000AF909F908F907F906F905F900895E82FD5
:101DD000E695EF739EE39E0F9F73943018F4F09096
:101DE0006A03C1CF9AE39E0F9F73993068F4881FEE
:101DF0008827881F90916803292F220F022F082B14
:101E000097FB112710F9AFCF87E28E0F8F738A30BF
:101E100008F0A9CFE951FF0B2FEFE0FF21E0EE7FA3
:101E2000E855FC4F859194916FE070E00E94B631C7
:101E300026034001279F900C1124580188E9A81A15
:101E40008EEFB80A8CE6C82E83E0D82E98E6692E6D
:101E500077247394C501B3010E94B63196014F2DCA
:101E60006E2D0E947C0DA80CB91C84E0C80ED11CFC
:101E700088EAC81683E0D80669F70E94470E73CF38
:101E800021E00C94880EE7E6F3E02081221F222750
:101E9000221F30916803432F440F842F822B37FB7E
:101EA000992790F90C9668E671E00E94CA31438147
:101EB00062810C94400F20916703221F2227221F6A
:101EC00030916803432F440F842F822B37FB9927CF
:101ED00090F98C30910540F4845A9E4F40916A03EA
:101EE000609169030C94400F0C9768E671E00E94C2
:101EF000CA31F4CFE7E6F3E08081881F8827881F86
:101F000090916803292F220F97FB992790F943811D
:101F10006FEF822B0C94400FE7E6F3E08081881F7F
:101F20008827881F90916803292F220F97FB9927F4
:101F300090F9438160E0822B0C94400F40916A033A
:101F4000443F90F4445F80916703881F8827881F6F
:101F500090916803292F220F97FB992790F96091A0
:101F60006903822B0C94400F4FEFEDCF40916A0331
:101F70004C3090F04C5080916703881F8827881F51
:101F800090916803292F220F97FB992790F9609170
:101F90006903822B0C94400F40E0EDCF20E00C94BD
:101FA000880ECF939091670390FF40C09178811184
:101FB00031C0926090936703662351F0609167038C
:101FC000709168038091690390916A030E94F50DF6
:101FD000C09167036C2F66956F7370E04BE050E023
:101FE00084E091E00E94E431892BE1F010927202CA
:101FF000CC1FCC27CC1F90916803892F880F97FBAB
:10200000992790F940916A03609169038C2BCF91D5
:102010000C94CE0F853210F09864CCCF8F73880F5C
:10202000982BC8CF81E080937202E2CFCF910895C0
:1020300061E00C94D10F8091670386958F738F5F59
:10204000853208F081E00C94181080916703869522
:102050008F73815009F484E20C941810E7E6F3E0E2
:1020600080818160808386958F730C94181060E066
:102070000C94D10F809135038160809335030E94C9
:102080000A21811104C00E9478210E94FB0D0E9448
:10209000F10D6093670370936803809369039093D5
:1020A0006A036E7761F40E94FB0D0E94F10D60934C
:1020B0006703709368038093690390936A0381E0D8
:1020C000809372028091670380FF04C086958F73AE
:1020D0000C9437100895E7E6F3E080818E7F8083CB
:1020E00060817181828193810E94F50D109272024C
:1020F0002FEF80E792E0215080409040E1F700C050
:1021000000000C94470E8091670380FD0C946B10C7
:102110000C942E10CF93C82F809170029091710271
:102120000E948622EC2FF0E0EC55FC4FE491E8177A
:10213000190611F008F042C00E947A2290937102B1
:102140008093700260916F0270E090E080E00E94E6
:10215000B72F20E030E04FE753E40E94DA2E2BED5A
:102160003FE049E450E40E94E0300E944D310E947B
:10217000542F2BE43AE34EE25FE30E946D2E20EFF2
:102180003BEF48ED52E40E94E0300E94862F462F3C
:1021900080916703881F8827881F90916803292FE3
:1021A000220F97FB992790F960916903822B0E9477
:1021B0006D0E80916F028F5F80936F02CF910895B3
:1021C000CF93C82F80916D0290916E020E9486225B
:1021D000EC2FF0E0EF55FC4FE491E817190609F0F9
:1021E000E8F40E947A2290936E0280936D024091EF
:1021F0006A036091690380916B0290916C020E9466
:102200006D0E80916B0290916C02019668E671E010
:102210000E94B63190936C0280936B02CF91089527
:10222000CF92DF92FF920F931F93CF93DF93F82EFD
:102230008091690290916A020E948622EF2DE695B4
:10224000F0E0E256FC4FE491E817190609F0A8F512
:102250000E947A2290936A02809369020CE613E04E
:10226000D0E0C0E088E6C82EDD24D39480916702D8
:10227000909168028C0F9D1FB6010E94B6319801A3
:1022800040916A03609169030E947C0D68960C5F1F
:102290001F4FC83681E0D80749F70E94470E80914A
:1022A000670290916802F0FE10C00196BE010E9484
:1022B000B6319093680280936702DF91CF911F91AE
:1022C0000F91FF90DF90CF9008950197F2CFCF92BA
:1022D000DF92EF92FF920F931F93CF93DF93C82F5C
:1022E000FF24FA9480FD02C0FF24F39480916502DC
:1022F000909166020E948622C695EC2FF0E0E5568A
:10230000FC4FE491E817190611F008F051C00E9443
:102310007A2290936602809365020CE613E0D0E087
:10232000C0E0F80111821082128294E0C92ED12CF3
:10233000E12C809164028E0D87FD815F082E000CD8
:10234000990BC817D907E9F480916A038C9DA00105
:102350008D9D500D11245595479555954795809124
:102360006703881F8827881F90916803592F550F8E
:1023700097FB992790F9980160916903852B0E943A
:102380007C0DEF0CF1E0CF1AD10899F621960C5F85
:102390001F4FCF30D10529F60E94470E809164026D
:1023A00091E0F91210C081110CC08EE0809364029C
:1023B000DF91CF911F910F91FF90EF90DF90CF9021
:1023C00008958150F3CF90E00196BE010E94CA317A
:1023D000EDCF0F931F93CF93DF93C82F80916202AD
:1023E000909163020E948622EC2FF0E0E856FC4FA9
:1023F000E491E817190611F008F052C00E947A2201
:102400009093630280936202CCE6D3E0FE011182D6
:1024100010821282349683E0E83AF807C1F710E0A0
:1024200000E080916102082E000C990B0817190733
:10243000E4F180910301082E000C990B801791079D
:10244000A4F180916703881F8827881F90916803F3
:10245000592F550F97FB992790F99E0140916A03D8
:1024600060916903852B0E947C0D0F5F1F4F24969E
:102470000F301105B1F60E94470E80910201909134
:102480006102980F9093610220910301280F20931D
:102490000301121614F49E301CF081958093020102
:1024A000DF91CF911F910F910895198218821A829E
:1024B000DCCFEF92FF920F931F93CF93DF93809126
:1024C0005F02909160020E948622883E9340C8F18C
:1024D0000E947A229093600280935F02C0915D0215
:1024E000D0915E022196C170DD27D0935E02C09329
:1024F0005D028CE6E82E83E0F82E10E008E7812FDD
:1025000086958C0F9D2F911D817099279701409181
:102510006A0360916903FC010E9FC0010F9F900D3B
:1025200011240E947C0D1F5FF4E0EF0EF11C1F30A0
:1025300031F7DF91CF911F910F91FF90EF900C94A5
:10254000470EDF91CF911F910F91FF90EF9008956B
:10255000CF93DF9300D000D0CDB7DEB780915B0280
:1025600090915C020E948622E6E9F3E02591349185
:1025700082179307B8F180915A0281110CC09E0115
:102580002F5F3F4F4FEF6FEF90E080E00E947C0D98
:102590008A8180935A020E947A2290935C028093EF
:1025A0005B0280915902813069F038F040915A0203
:1025B000823009F040E080E003C080915A0240E0A0
:1025C00060E004C060915A0240E080E00E945C0E2E
:1025D0008091590290E0019663E070E00E94CA3158
:1025E000809359020F900F900F900F90DF91CF9131
:1025F00008950F931F93CF93DF938091570290918B
:1026000058020E948622843F9140D8F10E947A228B
:102610009093580280935702CCE6D3E010E000E09C
:102620004091550250915602609169038091670371
:10263000282F221F2227221F90916803892F880F9D
:10264000822B97FB992790F907301105FCF4452B55
:10265000F9F09E0140916A030E947C0D0F5F1F4FAD
:1026600024960F301105E1F60E94470E8091550225
:10267000909156020196817099279093560280930B
:102680005502DF91CF911F910F910895452B09F3CA
:102690009E0140E0E1CF809172028823D1F19091B8
:1026A0006703892F86958F732EE3280F2F732430AD
:1026B00018F482500C948A102AE3280F2F732330C9
:1026C00018F486500C94E01027E3280F2F7326305F
:1026D00018F489500C94101121E3280F2F73263021
:1026E00018F48F500C9467112BE2280F2F732330AE
:1026F00018F485510C94E9119E77903311F40C94E1
:102700005912963411F40C94A812983411F40C94C4
:10271000F91208958823B9F05198599A5098589A07
:1027200095E09A95F1F70000509A589895E09A959F
:10273000F1F70000882311F0519A599885E08A95A5
:10274000F1F700000895519A5998E8CF8BB18C7F2A
:102750008BB95098589A5198599A85E08A95F1F713
:10276000000008958AB18C7F8AB985E08A95F1F7D7
:102770000000519A599885E08A95F1F70000509A27
:10278000589885E08A95F1F7000008955098589A76
:1027900085E08A95F1F700005198599A85E08A956D
:1027A000F1F700000895CF93DF93D82FC8E08D2F65
:1027B00080780E948A13DD0FC150C9F780E00E9423
:1027C0008A1385E08A95F1F7000085E08A95F1F794
:1027D000000080E0DF91CF9108953BB1242F209538
:1027E00023233BB1432B3FB7F894FC01680F791FBB
:1027F000E617F70711F43FBF0895819198E04BB9B0
:10280000000000C087FF2BB9880F000000C000C087
:1028100000C02BB900C09A9591F7EACFAF92BF9252
:10282000CF92DF92EF92FF920F931F93CF93DF939C
:102830008C01EB01CFB6D090BC00F8948091BC0025
:102840008B7F8093BC000E94A6130E94B21384E881
:102850000E94D313CC0FDD1FCC0FDD1F78015E016A
:10286000A00EB11EEA14FB04A9F40E94C613CFBE49
:10287000D092BC00579A40E8BE01C801DF91CF91C9
:102880001F910F91FF90EF90DF90CF90BF90AF908E
:102890000C94ED13F70181917F010E94D313E2CFD5
:1028A00090937802809377020895E0917702F091F7
:1028B0007802309721F00190F081E02D099480E0BA
:1028C0000895E0917702F0917802309721F002802C
:1028D000F381E02D09940895E0917702F091780258
:1028E000309721F00480F581E02D0994089520911E
:1028F0007502309176022817390771F090937602AD
:1029000080937502E0917702F0917802309721F080
:102910000680F781E02D099408952091730230918B
:1029200074022817390771F0909374028093730230
:10293000E0917702F0917802309721F00084F185E0
:10294000E02D0994089585B7806885BF85B78068B4
:1029500085BF089508950E94A3140C94AA1481E0E1
:1029600008950E9471220E9410040E9408230C9472
:102970003A10BF92CF92DF92EF92FF920F931F9384
:10298000CF93DF93CDB7DEB72A970FB6F894DEBFAB
:102990000FBECDBF0E947C040E94AF14882309F4AF
:1029A00071C08AE7C82E82E0D82E10E000E0B02E79
:1029B000802F0E94E104E82EF601F1906F01F816D5
:1029C00009F45AC08091350381FD0E94E70490E02C
:1029D00080E0FE242F2D30E0482FB901082E02C0E0
:1029E000759567950A94E2F760FF41C08E83BF82B8
:1029F00081E090E06C0102C0CC0CDD1C4A95E2F74E
:102A00002E2D30E02C213D21232B09F480E08887F6
:102A10000E947A228160782F9A8789874E815F8110
:102A200068858A850E949B15F801E658FD4F8081D4
:102A30008C2580830E949B240E94551490917902DA
:102A4000891789F10E945514809379022A960FB64E
:102A5000F894DEBF0FBECDBFDF91CF911F910F91D4
:102A6000FF90EF90DF90CF90BF900C940C070196F1
:102A70008630910509F0B0CF0F5F1F4F0E30110562
:102A800009F095CF8FEF89838A831B820E947A2277
:102A90008160782F9D838C8349815A816B818D81E0
:102AA0000E949B15C7CF2A960FB6F894DEBF0FBEC3
:102AB000CDBFDF91CF911F910F91FF90EF90DF90ED
:102AC000CF90BF900895CF93DF93DC018C91682F56
:102AD00070E021E030E001C0220F8A95EAF71196FC
:102AE0004C91119750E0EA01C857DD4F988112963A
:102AF0008C9112978823C9F0809198028823C1F0A5
:102B000086E0849FF001859FF00D1124E60FF71FEA
:102B1000EE0FFF1FEF5DFE4F408151814D935C939F
:102B2000292B2883DF91CF910895892F8223E6CF27
:102B300020952923F6CFCF93DF93CDB7DEB72B9720
:102B40000FB6F894DEBF0FBECDBF942F4F83252F55
:102B5000588769877A878B874A855B8581E0452B13
:102B600031F02F3F19F481E09F3F09F080E080FDB4
:102B700004C0CE0107960E9463151E821D8285E067
:102B8000FE013796DE01119601900D928A95E1F7CC
:102B900049815A816B817C818D819E810E940C1DAF
:102BA0002B960FB6F894DEBF0FBECDBFDF91CF914D
:102BB0000895FC01808191810E94D91F92959F7098
:102BC000963041F48091980291E089278093980291
:102BD000909397020895CF93C82F882309F4DCC0FF
:102BE0008238C1F40E94551481FDD6C089E30E9449
:102BF00007200E944B202FEF81EE94E0215080406F
:102C00009040E1F700C0000089E30E940E20CF91C0
:102C10000C944B208338A1F40E94551480FDBCC055
:102C200083E50E9407200E944B202FEF81EE94E065
:102C3000215080409040E1F700C0000083E5E5CFDF
:102C40008438A1F40E94551482FDA6C087E40E9436
:102C500007200E944B202FEF81EE94E0215080400E
:102C60009040E1F700C0000087E4CFCF8CEF8C0FDD
:102C7000813A48F48C2F0E94BA2681118DC08C2F86
:102C80000E940720C4CF80E28C0F883048F4C770C0
:102C900081E001C0880FCA95EAF70E948120B7CF72
:102CA0008BE58C0F833068F481E890E0C53A31F011
:102CB00083E890E0C63A11F482E890E0CF910C945A
:102CC000771488E58C0F853108F05EC082EE90E0C5
:102CD000C83A09F456C089EE90E0C93A09F451C0E7
:102CE0008AEE90E0CA3A09F44CC085EB90E0CB3A0A
:102CF00009F447C086EB90E0CC3A09F442C083EB7C
:102D000090E0CB3BF1F184EB90E0CC3BD1F187EB51
:102D100090E0CD3AB1F18CEC90E0C03B91F18DECBC
:102D200090E0CE3A71F183E891E0CF3A51F18AE830
:102D300091E0C13B31F182E991E0C23B11F184E9BC
:102D400091E0C33BF1F081E292E0C43BD1F083E239
:102D500092E0C53BB1F084E292E0C63B91F085E29F
:102D600092E0C73B71F086E292E0C83B51F087E207
:102D700092E0C93B31F090E080E0CA3B11F48AE276
:102D800092E0CF910C948D14C03F30F08C2F0E94B4
:102D9000A423CF910C949024CF910895882309F413
:102DA00052C0823871F40E94551481FF4CC089E3EF
:102DB0000E9407200E944B2089E30E940E200C9461
:102DC0004B20833859F40E94551480FF3CC083E5A2
:102DD0000E9407200E944B2083E5EFCF843859F4EE
:102DE0000E94551482FF2FC087E40E9407200E9492
:102DF0004B2087E4E2CF9CEF980F913AF0F290E2FB
:102E0000980F983050F4877091E001C0990F8A951F
:102E1000EAF7892F0E948720D2CF9BE5980F933045
:102E200020F490E080E00C94771498E5980F9531A9
:102E300020F490E080E00C948D14803F20F00E94FC
:102E40000C240C9490240895882321F00E94812062
:102E50000C944B200895882321F00E9487200C9425
:102E60004B2008958F929F92AF92BF92DF92EF9284
:102E7000FF920F931F93CF93DF937C01D62FC72F21
:102E8000FC01058102950F70128111110E94A02092
:102E90000E944420D82E882371F0112331F180E262
:102EA0008D0F883010F182E00E942E200E94442075
:102EB00091E0D82ED926BC2EB2949FE0B922EB2DFA
:102EC000F0E0EB59F84E0C94DE3177177717C717FF
:102ED000C71707182F189E190E1871180E180C19FD
:102EE0000C1995190E180E18D019D12CE4CF0C2FEF
:102EF0000F70C07F11F00295007F1123A9F000230D
:102F000059F080E28D0F883010F0D11109C0802F68
:102F10000E9481200E944B208D2F0E94EB1514C02F
:102F2000802F0E949220F6CF8D2F0E94CE16002374
:102F300059F080E28D0F883010F0D11124C0802F1D
:102F40000E9487200E944B20DD2009F454C20E9479
:102F5000212080FD50C2F70112820E941B200E9496
:102F60009F1EC7010E94071A0E941B20DF91CF916C
:102F70001F910F91FF90EF90DF90BF90AF909F90C7
:102F80008F900C94C01E802F0E949820DBCFFC2FC6
:102F9000FF70BF2EC07FC03219F0B29480EFB8220C
:102FA000DD2339F0D13019F1112359F1002321F13A
:102FB000B3CF112381F0011106C00E94BA208B29E2
:102FC0000E942417C1CF0130C1F70E94BA208B297B
:102FD0000E94B420B9CF011106C00E94B7208B2DEA
:102FE0000E942B17B1CF013009F4AECFF6CF1123D9
:102FF00029F0023008F0A8CF8B2DE2CF0111A4CF29
:10300000EECF002361F38D2F0E94CE169DCF8C2F23
:1030100086958695837079F08130B9F0F8E0BF1617
:1030200009F49BC0BF1608F48FCF86EF8B0D82305A
:1030300008F493C089CF8D2F9C2F9370111102C07B
:1030400090E080E00E9477147FCF8D2F9C2F9370AB
:10305000111102C090E080E00E948D1475CF112301
:1030600009F1D53F99F0D63FB9F0D43F49F48091AA
:10307000A8039091A90381609093A9038093A8036A
:103080008D2F0E94A4230E9490245ECF8091A803DC
:103090009091A9038260F0CF8091A8039091A90339
:1030A0008460EACFD53F89F0D63FA9F0D43F49F4F8
:1030B0008091A8039091A9038E7F9093A903809398
:1030C000A8038D2F0E940C24DECF8091A80390913D
:1030D000A9038D7FF2CF8091A8039091A9038B7FE4
:1030E000ECCF8C2F837009F04BC0111136C02D2FFF
:1030F000229526952770220F220F6D2F6F70862E36
:10310000912CB12CA12C022E04C0880C991CAA1C55
:10311000BB1C0A94D2F760E070E0CB01D4FF0FC073
:103120006FE070E080E090E004C0660F771F881FBA
:10313000991F2A95D2F76095709580959095C695C0
:10314000C695C370C23071F0A0F4682979298A2924
:103150009B29C13091F00E94511E0E9455140E947B
:103160000C07F2CE682979298A299B290E94631EBF
:10317000F4CF0E94511EC501B4010E943F1EEDCF45
:103180008695112311F08C2F8170882331F32D2F18
:10319000229526952770220F220F6D2F6F70862E95
:1031A000912CB12CA12C022E04C0880C991CAA1CB5
:1031B000BB1C0A94D2F760E070E0CB01D4FF0FC0D3
:1031C0006FE070E080E090E004C0660F771F881F1A
:1031D000991F2A95D2F76095709580959095C69520
:1031E000C695C370C23051F080F4682979298A29C4
:1031F0009B29C13071F00E94161FAFCF6829792931
:103200008A299B290E94281FA8CF0E94161FC5014A
:10321000B4010E94041FA1CFE0E2ED0FE53108F0F8
:1032200065C0F0E0EA5EF64E0C94DE312B192B19E6
:103230002B192B192B192B192B192B192B192B196E
:103240002B192B192B192B192B192B193C1949192F
:10325000501957196119DF708C2F8F71112331F0BC
:103260000E949F1E8D2F0E942417D8CE0E94C01E40
:103270008D2F0E942B17D2CE112339F00111CECE03
:103280008C2F8F710E94E31EC9CE023008F0C6CE8B
:10329000F7CF8C2F8F71112339F00E949F1EBECE65
:1032A0008C2F8F711123C9F30E94C01EB7CE11233A
:1032B00029F08C2F8F710E948A1EB0CE0E94851E2D
:1032C000ADCE112349F0CF718C2F0E949F1E63E079
:1032D0008C2F0E942520A2CE81E00E942E20023059
:1032E00008F49CCE82E00E942E2098CE112349F053
:1032F000002321F08D2F0E94EB1590CE8C2F8F7123
:10330000CCCF002379F0D93349F42FEF87EE93E047
:10331000215080409040E1F700C000008D2F0E94B6
:10332000CE167CCE8C2F8F71BFCF4C2F4F706D2F50
:10333000C7010E94B5060E94B51D06CED23F71F1AD
:10334000C8F4D03F01F1D13FB9F180919702002339
:1033500009F446C0882341F08091980291E08927C2
:1033600080939802109297028D2F112389F10E9469
:10337000EB1516C0D43FD9F078F0D53F31F71111D5
:103380000FC081E006C0112359F08091980291E0AE
:1033900089278093980204C081E01827109398022F
:1033A0004C2F4F706D2FC7010E94F30937CE1111BA
:1033B000F7CF10929802F4CF112339F08091970241
:1033C000882319F310929702EBCF0023F1F2E8CF94
:1033D0000E94CE1686E0F70111928A95E9F7E0CFB8
:1033E0008823F1F21111DCCF8091980291E08927B6
:1033F00080939802E7CFDF91CF911F910F91FF90BB
:10340000EF90DF90BF90AF909F908F9008950F93B3
:103410001F93CF93DF93EC01988189812B813C81AD
:10342000232B39F08F3F19F481E09F3F19F080E0A2
:1034300001C081E080FD17C0CE010E941E078823D5
:1034400091F0688179818A810E94E31F8C010E943A
:103450003A1F0E943C1EB801CE01DF91CF911F910F
:103460000F910C943217DF91CF911F910F91089516
:103470000E94A0200E94B1200E9415200E944B2093
:103480000E942F250E94902490E080E00E947714F3
:1034900090E080E00C948D140E948F200C94381AD8
:1034A0000E94D91FE92FE295EF70E250EE30E0F470
:1034B000F0E0E35AF54E0C94DE316B1A6B1A741A75
:1034C000741A761A741A741A741A6B1A6B1A7B1A95
:1034D000741A741A7B1A803F19F020F4803E20F48D
:1034E00081E00895843FE1F380E00895803EC0F3D9
:1034F000813FD1F7F5CF93FB882780F90895CF93CB
:10350000DF9300D000D01F92CDB7DEB70F900F90A1
:103510000F900F900F90DF91CF910895CF93DF938D
:1035200000D000D000D0CDB7DEB726960FB6F89405
:10353000DEBF0FBECDBFDF91CF9108951F93CF9314
:10354000DF93C091990216E080919A028C1304C017
:10355000DF91CF911F910895D0E01C9FF0011D9F36
:10356000F00D1124E556FD4F408151816281738138
:10357000848195810E948E1A2196C770E5CF409173
:10358000CB025091CC026091CD027091CE0280911D
:10359000CF029091D0020C948E1A1F93CF93DF9399
:1035A0008091D002807FD1F48091CD028823B1F048
:1035B00080919902D0919A02B091CB02C091CC0235
:1035C0004091CE025091CF02A1E0BF3F09F0A0E0B0
:1035D000BA016095709516E0D81304C0DF91CF91C1
:1035E0001F91089521E04115510521F02A2FCF3F69
:1035F00009F020E090E020FD38C0189FF001199FED
:10360000F00D1124E556FD4F21812C132EC0208191
:103610002B132BC02281211128C023813481241730
:10362000350700F1241B350B283C3105F0F42091BF
:10363000D0022F7020612093D00226E0289FF00155
:10364000299FF00D1124E056FD4F80818F7080611D
:1036500080838BEC92E00E94071ADF91CF911F913B
:103660000C949E1A260F371FDFCF01968770B4CFB8
:10367000AF92BF92CF92DF92EF92FF920F931F9380
:10368000CF93DF93CDB7DEB761970FB6F894DEBF67
:103690000FBECDBF8C0185E0F801DE011D960190C3
:1036A0000D928A95E1F7D8014C9111965C91119792
:1036B0001296EC903091CB026091CC028091CE02B8
:1036C0009091CF0221E0009731F06F3F19F421E093
:1036D0003F3F09F020E0B22FB170BB2E20FD80C12A
:1036E000F801C380D480A090CD02AA2009F427C19C
:1036F000C816D906D0F1D601A81BB90BCD01FF24FD
:10370000F394883C910508F0F12C8091D002982F19
:10371000907FFF2009F4CEC0911187C0FE2C651365
:1037200029C0341327C0E11025C08F7080618093B9
:10373000D0020E94BF1A8BEC92E00E94071A80917F
:10374000D002F80185838F2D61960FB6F894DEBF05
:103750000FBECDBFDF91CF911F910F91FF90EF90E2
:10376000DF90CF90BF90AF900895809590958C0D8D
:103770009D1DC5CF81E0CD2831F05F3F19F481E078
:103780004F3F09F080E080FD24C081E08E25F82FB6
:10379000F170DF2E80FF3FC08091990220919A0244
:1037A00036E0821318C04D875E878D859E850E9406
:1037B000D91F292F22952F70223008F1243030F59F
:1037C0009F7009F1D80115969C91907FE1F4FB2C34
:1037D000BACF80E0DCCF90E0389FF001399FF00D48
:1037E0001124E556FD4F6181561306C060814613D2
:1037F00003C062816E110FC001968770D2CF9F7097
:1038000011F0882321F3805E883008F3C8010E94FC
:10381000071ABD2CDCCFEE2009F495CF8091D002A1
:1038200081608093D002F12C8ECF651314C03413C5
:1038300012C0E11010C0F8018583C8010E94071A68
:1038400086E0F801ABECB2E001900D928A95E1F7C9
:103850000E94BF1A78CF4D875E878D859E850E9416
:10386000501A882319F1EE2009F18091D00280329C
:1038700070F02091CB023091CC0238872F831986CB
:10388000DB86CA868C87CE0107960E94071A86E0DF
:10389000F801ABECB2E001900D928A95E1F70E943D
:1038A000CD1A0E94BF1AFF24F3944DCFC8010E9485
:1038B000071AF9CF911113C07C2DD98AC88A6E2DB1
:1038C00089890E947F1A8BEC92E00E94071A86E099
:1038D000EBECF2E0DF011D928A95E9F7B9CF6513B1
:1038E00012C0341310C0E1100EC0F8018583C80166
:1038F0000E94071AEBECF2E086E0DF011D928A9548
:10390000E9F7FA2C20CF4D875E878D859E850E9432
:10391000501A882359F2EE2049F28091D002803269
:1039200008F4B5CF2091CB023091CC023A832983A1
:103930001B82DD82CC828E83CE010196A6CFC81673
:10394000D90638F1F601E81BF90BCF01F12C883CC0
:10395000910508F03DC0FE2CEE2009F4A7CF6513B9
:1039600026C0341324C08091D00280FD17C0982F48
:10397000907FA1F0D80115968C931597903F09F48C
:103980005CCF982F907F905F8F70892B15968C93CA
:1039900054CF809590958C0D9D1DD8CF86E0F80171
:1039A000ABECB2E001900D928A95E1F7CCCE4D8759
:1039B0005E878D859E850E94501A811168CF809107
:1039C000D00281608093D002C8010E94071ABBCE4A
:1039D0007C2DD98AC88A6E2D89890E947F1A77CF5B
:1039E000EE2009F463CF4D875E878D859E850E940A
:1039F000501AF82E882309F459CF86E0F801ABEC71
:103A0000B2E001900D928A95E1F78BEC92E00E9472
:103A1000D9150E94CD1A1CCF1F93CF93DF93CDB73A
:103A2000DEB72C970FB6F894DEBF0FBECDBF4F8325
:103A3000588769877A878B879C87CE0107960E9473
:103A4000381B882309F442C09F8188852A853B85DD
:103A5000232B39F08F3F19F481E09F3F19F080E06C
:103A600001C081E080FD08C04F81588569857A8555
:103A70008B859C850E948E1A16E080919902909108
:103A80009A02891709F467C0819FC00111248556E5
:103A90009D4F0E94381B882309F45DC0E091990274
:103AA0001E9FF0011124E556FD4F40815181628136
:103AB0007381848195810E948E1A8091990290E091
:103AC00001968770992780939902D7CF86E0FE01EF
:103AD0003796DE01119601900D928A95E1F79F814C
:103AE00088852A853B85232B39F08F3F19F481E0A7
:103AF0009F3F19F080E001C081E080FDBDCF2091A3
:103B00009A0230E0C9010196877099274091990285
:103B10004817190699F096E0929FD001939FB00D37
:103B20001124A556BD4FFE01319601900D929A9534
:103B3000E1F780939A020E949E1A9ECF0E944C1A2F
:103B400010929A021092990286E0EBECF2E0DF010B
:103B50001D928A95E9F72C960FB6F894DEBF0FBE3A
:103B6000CDBFDF91CF911F910895EF92FF920F93F8
:103B70001F93CF93DF938C01892B81F0F12CEE24DE
:103B8000E394E8012196F8018491843770F484303D
:103B900008F05FC08130B1F08230A1F1DF91CF91A8
:103BA0001F910F91FF90EF900895853709F44CC055
:103BB00008F43DC09CE7980F903780F78F770E94FC
:103BC000CE1649C00E5F1F4FFE01849190E2980F00
:103BD000983060F48770FE2D01C0FF0F8A95EAF7D8
:103BE0008F2F0E94A3200E944B2002C00E94EB1541
:103BF0008F2D815030F2EFE9FFE03197F1F700C0EF
:103C00000000F7CF0E5F1F4FFE01849190E2980FE6
:103C1000983050F48770FE2D01C0FF0F8A95EAF7A7
:103C20008F2F0E94A920DFCF0E94CE16E1CF0E5F1A
:103C30001F4FFE01C491C150D8F28FE99FE0019758
:103C4000F1F700C00000F7CF0E5F1F4FFE01F490A8
:103C5000CFCF0E94EB158E01CBCF08950C942D1E73
:103C60000E942E1E60930C0370930D0380930E032D
:103C700090930F030C94381A08950C94301E0F93F0
:103C80001F9300910C0310910D0320910E033091AE
:103C90000F03602B712B822B932B1F910F910C9490
:103CA000301E0F931F9300910C0310910D03209170
:103CB0000E0330910F0360237123822393231F91FE
:103CC0000F910C94301E0F931F9300910C031091D1
:103CD0000D0320910E0330910F0360277127822777
:103CE00093271F910F910C94301E0C942D1E0C9451
:103CF000751E0E94771E60930803709309038093DA
:103D00000A0390930B030C94381A60E070E0CB0127
:103D10000C94791E0F931F9341E050E060E070E037
:103D20008A019B0104C0000F111F221F331F8A95B7
:103D3000D2F7C901B8011F910F910C94791E0F930E
:103D40001F9341E050E060E070E004C0440F551F55
:103D5000661F771F8A95D2F7809108039091090317
:103D6000A0910A03B0910B038A019B01082B192B28
:103D70002A2B3B2BC901B8011F910F910C94791E7E
:103D80000F931F9341E050E060E070E004C0440FE7
:103D9000551F661F771F8A95D2F7CB01BA01609530
:103DA00070958095909500910803109109032091DA
:103DB0000A0330910B0360237123822393231F9105
:103DC0000F910C94791E0F931F9341E050E060E037
:103DD00070E004C0440F551F661F771F8A95D2F705
:103DE0008091080390910903A0910A03B0910B03FD
:103DF0008A019B01082719272A273B27C901B801F7
:103E00001F910F910C94791E0F931F93009108033B
:103E10001091090320910A0330910B03602B712B41
:103E2000822B932B1F910F910C94791E0F931F934C
:103E3000009108031091090320910A0330910B03AC
:103E400060237123822393231F910F910C94791E79
:103E50000F931F93009108031091090320910A0307
:103E600030910B0360277127822793271F910F91B1
:103E70000C94791E0895292F220F920F990F890F04
:103E8000982F977071E001C0770F9A95EAF78695A1
:103E90008695869525E0829FC001112450E040E080
:103EA000A62FB0E0FC01E40FF51FEF52FD4F60813B
:103EB0009D01042E02C0369527950A94E2F72170E1
:103EC000219526272723262720834F5F5F4F4530E4
:103ED000510541F70895292F220F290F220F820F34
:103EE000982F977086958695869545E0849F9001DA
:103EF000112470E060E080E0F901E60FF71FEF5257
:103F0000FD4F408150E0092E02C0569547950A9416
:103F1000E2F741705527062E01C0440F0A94EAF7D4
:103F2000842B6F5F7F4F6530710531F70895BF9225
:103F3000CF92DF92EF92FF920F931F93CF93DF9375
:103F40008C01C0900803D0900903E0900A03F09020
:103F50000B0380910C0390910D03A0910E03B0917F
:103F60000F03C82AD92AEA2AFB2ACFE1D0E0BC2EC7
:103F7000D701C6010C2E04C0B695A79597958795D5
:103F80000A94D2F780FD0EC0219788F7B12C8B2DB3
:103F9000DF91CF911F910F91FF90EF90DF90CF9025
:103FA000BF900895B8018C2F0E94100A019761F309
:103FB000EECFCF93DF93EC010E94971FBE01DF91FC
:103FC000CF910C94100A1F93CF93DF93EB01909144
:103FD0009602992331F0CB01DF91CF911F910C9480
:103FE000D91F882379F0CB010E94971F182F682FC3
:103FF000CE010E943B1FBE01812FDF91CF911F9107
:104000000C94100ACB010E946B1F182FF4CF682F5D
:1040100080910F01909110010C94D721682F80910D
:104020000F01909110010C94E22180910F01909169
:1040300010010C94ED21809110038595859585954F
:104040000895809110038770089598E0899F9001EA
:104050001124622B609310030C949F1E9091100307
:104060008095892380931003282F277061F4282FCF
:10407000082E000C330B9217130629F085958595B1
:1040800085950C94C01E089590911003977081E05F
:1040900009F480E00895E0910F01F0911001809102
:1040A00034038083E0910F01F091100180819091A1
:1040B0003303892B8083E0910F01F09110018081FF
:1040C00090913203892B808390911103992381F081
:1040D000E0910F01F09110018081892B8083809104
:1040E0000F01909110010E947A2181111092110309
:1040F00080910F01909110010C9461148091340310
:10410000089590913403892B809334030895982F58
:1041100090958091340389238093340308951092FD
:104120003403089590913303892B809333030895CA
:10413000982F9095809133038923809333030895BA
:1041400010923303089590913203892B80933203A8
:104150000895982F9095809132038923809332039C
:1041600008951092320308958093110308951092D8
:1041700011030895809111030895CF92DF92EF9279
:10418000FF926C01EE24FF2420E0C114D104E1046D
:10419000F10419F0C701B60120E1C72ED82EE92E8F
:1041A000FF24C114D104E104F10419F0285FC70110
:1041B000B6016B017C0154E0F694E794D794C79460
:1041C0005A95D1F7C114D104E104F10419F02C5F20
:1041D000C701B6016B017C0142E0F694E794D794E5
:1041E000C7944A95D1F7C114D104E104F10419F040
:1041F0002E5FC701B6019695879577956795672BD2
:10420000682B692B09F02F5F822FFF90EF90DF90D2
:10421000CF90089590E080E00E94FF3121E08D3E34
:104220009E4F09F020E0822F089582E090E00C94E8
:10423000F13183E090E00C94F13184E090E00C9453
:10424000F131682F84E090E00C940532AB01BC01A1
:104250008FE090E00C941732AB01BC0183E190E059
:104260000C94173260E070E0CB010C942C2160E0DC
:1042700070E0CB010E9426210C9432216DEE7EEF7E
:1042800090E080E00E94233260E082E090E00E94B3
:10429000053260E083E090E00E94053210920C034A
:1042A00010920D0310920E0310920F0360E084E051
:1042B00090E00E94053260E085E090E00E940532C7
:1042C00060E086E090E00E9405326FEF87E090E0CA
:1042D0000E94053240E050E0BA0188E090E00E9480
:1042E000173260E08DE090E00E9405320C94372197
:1042F0000C943E21FC0131969C01205E3F4F80E0F2
:10430000919191118F5FE217F307D1F708959C0106
:10431000FC0132969FEF80E04191461751F09F3F9C
:1043200019F4411101C0982F8F5F8E31A9F79F3F7B
:1043300009F40895290F311D97FD3A95F90162831B
:104340000895FC01329680962191261303C0DF0167
:1043500011971C92E817F907B9F70895E62FE6952B
:10436000E695E695EF3169F0E80FF92FF11D6770DA
:1043700021E030E001C0220F6A95EAF78181822BAB
:1043800081830895E62FE695E695E695EF3171F085
:10439000E80FF92FF11D677021E030E001C0220F16
:1043A0006A95EAF720958181282321830895209139
:1043B0002001222329F02091AE0327FD0C94AE2189
:1043C0000C94872120912001222329F02091AE0313
:1043D00027FD0C94C2210C94A121FC0131968096FA
:1043E0001192E817F907E1F7089508950C94F52163
:1043F0000E94F6218091B403843049F11092360373
:1044000088E190E020E40FB6F894A89580936000CE
:104410000FBE2093600080E00E940C070E94F621EE
:1044200083B7817F846083BF83B7816083BF7894C3
:10443000889583B78E7F83BF0FB6F894A895809137
:104440006000886180936000109260000FBE089544
:104450000895CF930E942C040E947C040E9428227D
:10446000C0E08C2F0E94E104811105C0CF5FCE30E7
:10447000C1F7CF91089581E0FCCF08950C943D22BF
:104480000E944C1A0E9455140E940C070C943E2264
:104490001F920F920FB60F9211248F939F93AF9399
:1044A000BF9380913603811113C08091AA0390912C
:1044B000AB03A091AC03B091AD034196A11DB11D1A
:1044C0008093AA039093AB03A093AC03B093AD0386
:1044D000BF91AF919F918F910F900FBE0F901F9042
:1044E000189582E084BD93E095BD9AEF97BD8093C7
:1044F0006E0008952FB7F8948091AA039091AB03B2
:10450000A091AC03B091AD032FBF0895CF92DF927D
:10451000EF92FF920F931F932FB7F8944091AA0345
:104520005091AB036091AC037091AD032FBF6A0152
:104530007B01EE24FF248C0130E020E0C016D10680
:10454000E206F30650F0481B590BCA011F910F9168
:10455000FF90EF90DF90CF90089541505109F3CF35
:1045600078941F920F920FB60F9211248F939F93FE
:10457000AF93BF938091AA039091AB03A091AC033A
:10458000B091AD030196A11DB11D8093AA03909334
:10459000AB03A093AC03B093AD03BF91AF919F91D8
:1045A0008F910F900FBE0F901F901895F89481E097
:1045B0008093E00080E28093D800E9ECF0E0108284
:1045C0008FE19EE40197F1F700C000001DBA109240
:1045D00068001CBC10BE1FBA10927A0010926E00C8
:1045E00010926F0010927100109272001082ECEB2A
:1045F000F0E0108214B817B81AB81DB810BA1082BB
:1046000015B818B81BB81EB811BA0C94003F08951D
:104610000E940A21811102C00E9478210E94152166
:10462000809335030E941D2190E09093AF03809307
:10463000AE030E941921682F70E090E080E00C9496
:104640003D1E80913A0380FF12C06091140185E005
:10465000689FB001112475956795759567956038C9
:104660007105A8F561157105A1F1862F089581FFE7
:1046700009C06091140185E0689FB001112475950F
:104680006795EDCF82FF07C06091140185E0689FB8
:10469000B0011124E4CF20913B032223A9F0909193
:1046A00013016091140185E0689FB001112429175E
:1046B000B0F6269FA001279F500D1124692F70E0AE
:1046C000CA010E94CA31CBCF65E070E0CECF8FE740
:1046D000089581E0089580913A0380FF0CC06091B5
:1046E000120170E07595679575956795611571056F
:1046F00049F1862F089581FF06C06091120170E094
:1047000075956795F3CF6091120182FD0BC0909172
:104710003B039923A1F0609111018091120196173A
:1047200038F0682F70E06038710500F38FE7089566
:10473000899FC001112470E00E94CA31F4CF61E06A
:1047400070E0D7CF81E00895803F31F40E942123AB
:10475000819580933E030895813F19F40E9421239F
:10476000F8CF823F31F40E942123819580933D034D
:104770000895833F19F40E942123F8CF893F29F43B
:104780000E946B2380933F0308958A3F21F40E9487
:104790006B238195F7CF8B3F31F40E946B2381957A
:1047A0008093400308958C3F19F40E946B23F8CF47
:1047B000843F31F480913C03816080933C030895F1
:1047C000853F21F480913C038260F7CF863F21F43E
:1047D00080913C038460F1CF873F21F480913C03BA
:1047E0008860EBCF883F21F480913C038061E5CF66
:1047F0008D3F31F480913A03816080933A030895AC
:104800008E3F21F480913A038260F7CF8F3FB9F752
:1048100080913A038460F1CF803FC1F480913E03E0
:1048200087FD10923E0380913D0381110EC080915F
:104830003E0381110AC080913F03811106C080911F
:104840004003811102C010923B030895813F29F477
:1048500080913E0318162CF3E6CF90913D03823FE2
:1048600029F497FFE0CF10923D03DDCF833F19F489
:104870001916CCF3D8CF893F39F480913F0318162D
:1048800094F610923F03CFCF8A3F29F480913F03E3
:1048900087FFC9CFF6CF8B3F39F48091400387FF64
:1048A000C2CF10924003BFCF8C3F29F480914003C8
:1048B0001816BCF3B8CF843F31F480913C038E7F4F
:1048C00080933C03B0CF853F21F480913C038D7FE2
:1048D000F7CF863F21F480913C038B7FF1CF873F58
:1048E00021F480913C03877FEBCF883F21F48091B6
:1048F0003C038F7EE5CF8D3F31F480913A038E7F6C
:1049000080933A0390CF8E3F21F480913A038D7FBC
:10491000F7CF8F3F09F087CF80913A038B7FF0CF9D
:104920008CE393E00E946C140E947A2290933803E7
:104930008093370308951F93CF93DF9380913703BC
:10494000909138030E948622AC0190913B03209104
:10495000150130E0911106C0209139038AE0289FAB
:10496000900111244217530780F080913D03D091AC
:104970003E0310913F03C091400381110AC0D11141
:104980006AC0111168C0C11166C0DF91CF911F913B
:1049900008959F3F19F09F5F90933B03181624F4EE
:1049A0000E94212380933D0380913D0387FF05C032
:1049B0000E942123819580933D031D1624F40E94BB
:1049C000212380933E0380913E0387FF05C00E9410
:1049D0002123819580933E0330913D033323C1F021
:1049E00020913E032223A1F045EB3403C0011124A2
:1049F000892F911101C081E080933D0345EB240391
:104A000090011124832F311101C081E080933E0376
:104A1000111624F40E946B2380933F0380913F037F
:104A200087FF05C00E946B23819580933F031C166E
:104A300024F40E946B23809340038091400387FFFE
:104A400005C00E946B23819580934003DF91CF9135
:104A50001F910C9490249F3F09F09DCFAECF85E02D
:104A6000ECE3F3E0DF011D928A95E9F710923B0336
:104A700010923A030895833081F128F4813059F07F
:104A80008230D1F00895853009F449C0B8F18630FC
:104A900009F456C0089580913903482F460F5527D1
:104AA000551F4F3F510524F4680F60933903089553
:104AB0008FEF80933903089580911501482F460F99
:104AC0005527551F4F3F510524F4680F609315017A
:104AD00008958FEF80931501089580911401482F58
:104AE000460F5527551F4F3F510524F4680F60931B
:104AF000140108958FEF809314010895809113019C
:104B0000482F460F5527551F4F3F510524F4680F76
:104B10006093130108958FEF80931301089580919E
:104B20001201482F460F5527551F4F3F510524F4BA
:104B3000680F6093120108958FEF8093120108951A
:104B400080911101482F460F5527551F4F3F5105A2
:104B500024F4680F6093110108958FEF8093110181
:104B60000895833011F128F4813049F0823091F0BA
:104B70000895853081F120F18630C1F1089580914A
:104B80003903681720F4861B809339030895109227
:104B90003903089580911501681720F4861B8093CE
:104BA0001501089510921501089580911401681758
:104BB00020F4861B80931401089510921401089527
:104BC00080911301681720F4861B809313010895C8
:104BD00010921301089580911201681720F4861B2A
:104BE000809312010895109212010895809111018D
:104BF000681720F4861B809311010895109211010B
:104C000008950F931F9341E050E060E070E08A0147
:104C10009B0104C0000F111F221F331F8A95D2F77A
:104C2000C901B8010E943D1E1F910F910C944C1AAE
:104C3000873208F043C08E3108F08BC0803109F410
:104C40007DC0C8F4873009F46AC028F4863009F4BE
:104C50005CC080E008958B3009F455C08E30C9F7F0
:104C600090913503892F8B7F92FF84608093350369
:104C700082FD20C048C0863109F445C068F4813106
:104C800041F70E944C1A9091AE03892F97FB87F948
:104C900080588093AE0337C08931A9F18B31C9F6B2
:104CA00090913503892F8D7F91FF8260809335032A
:104CB00081FF29C08091350381603DC0883319F19F
:104CC00050F4893221F0853311F0873211F680E0FB
:104CD0000E94012618C08334D1F328F48A3308F4E3
:104CE000B8CF8953F5CF883409F0B3CF0E944C1A5E
:104CF0002FEF83ED90E3215080409040E1F700C01A
:104D000000000E94D62281E0089580913503817FC2
:104D10008E7F8093350381E08093420308959091C4
:104D20003503892F8E7F90FF81608093350380FD4E
:104D3000EACF897F877F80933503E5CF9091350354
:104D4000892F877F93FF88608093350383FDB2CFDF
:104D5000DACF8D51BDCF80E008950C94AB268E51F3
:104D60008A3030F4E82FF0E0E753FE4F8081089559
:104D700080E00895CF93C82F809142038130E1F005
:104D800038F0823009F43FC01092420380E012C034
:104D9000E0910F01F09110018081813111F0823298
:104DA000A9F78C2F0E94AB2681111DC08C2F0E9469
:104DB00018268170CF910895E0910F01F0911001B4
:104DC0008081813171F3823261F38C2F0E94AD2694
:104DD000811110C0C43181F048F4CB3059F0C0319A
:104DE00071F080E0E6CF81E090E0E3CFC93221F0BE
:104DF000C833B9F781E0DDCF10924203F2CF82E0F1
:104E000080934203F7CFC93219F188F4C43101F11C
:104E100020F4C73081F181E0CDCF82EE8C0F863057
:104E2000D0F78C2F0E94AF2680934103F4CFCE346D
:104E300001F140F46AE0CB3471F7809141030E94A4
:104E40003B25E9CFC13579F061E0C235B1F3E3CF5D
:104E500080914103882319F010924103DCCF81E057
:104E600080934203A7CF61E0809141030E94B12566
:104E7000D2CF6AE0F9CF1092390384E18093150113
:104E8000C09314018CE38093130188E08093120196
:104E900088E280931101BFCF8091630308950F933F
:104EA0001F93CF93DF9300D01F92CDB7DEB78C0155
:104EB0000E94BE29823011F0843019F583E0898385
:104EC0001B830A838093E9008FEF9091E800815063
:104ED00095FD06C095ED9A95F1F700008111F5CF8B
:104EE0008091E80085FF0DC050E040E063E070E095
:104EF000CE0101960E94DB298091E8008E77809395
:104F0000E8000F900F900F90DF91CF911F910F91BC
:104F10000895CF93DF9300D01F92CDB7DEB72091D5
:104F2000B403243031F522E02983805891099B8312
:104F30008A8383E08093E9008FEF9091E8008150AD
:104F400095FD06C095ED9A95F1F700008111F5CF1A
:104F50008091E80085FF0DC050E040E063E070E024
:104F6000CE0101960E94DB298091E8008E77809324
:104F7000E8000F900F900F90DF91CF910895CF939D
:104F8000DF93EC010E94BE29823011F08430F9F4E5
:104F900082E08093E9008FEF9091E800815095FDC9
:104FA00006C095ED9A95F1F700008111F5CF80913B
:104FB000E80085FF0CC050E040E065E070E0CE0105
:104FC0000E94DB298091E8008E778093E800DF91D2
:104FD000CF910895CF93DF93EC010E94BE298230D8
:104FE00011F08430F9F4809120018823F1F0809150
:104FF000AE0387FF1AC084E08093E9008FEF9091A1
:10500000E800815095FD06C095E19A95F1F7000002
:105010008111F5CF8091E80050E040E060E270E05F
:1050200085FD1AC0DF91CF91089581E08093E9005A
:105030008FEF9091E800815095FD06C095ED9A950F
:10504000F1F700008111F5CF8091E80085FFEACFEC
:1050500050E040E068E070E0CE010E94DB298091E2
:10506000E8008E778093E80080E2FE01A3E4B3E0DD
:1050700001900D928A95E1F7D5CF8091B30381110C
:1050800009C00E946B2B0E94C82B8091E2008460B3
:105090008093E20008951092B3030895089508954F
:1050A0000C94402242E061EC81E00E94E92A42E057
:1050B00061EC82E00E94E92A42E061EC83E00E9418
:1050C000E92A42E261EC84E00C94E92A8091B6037B
:1050D000833009F455C030F4813071F1823009F425
:1050E00091C008958A3009F47DC08B3009F463C003
:1050F000893009F044C08091B503813209F03FC086
:105100008091B9039091BA03009711F00397B9F514
:105110008091E800877F8093E8008091E80082FF1B
:105120002AC08091F100809363038091E8008B771F
:105130008093E8000C941D2B8091B503813AF9F41B
:105140008091E800877F8093E8008091B903909177
:10515000BA03892B61F460E283E493E070E00E947B
:105160002A2A8091E8008B778093E800089560E018
:1051700090E080E0F3CF8091B4038111CECF089509
:105180008091B503813AD9F78091B9039091BA0320
:10519000892BA9F78091E800877F8093E8008091B0
:1051A000E80080FFFCCF809120018093F100809186
:1051B000E8008E77BDCF8091B503813201F78091F1
:1051C000B9039091BA03892BD1F68091E800877FCB
:1051D0008093E8000E941D2B8091B70380932001EB
:1051E0000C944C1A8091B503813249F68091E80005
:1051F000877F8093E8000E941D2B8091B8038093E5
:10520000640308958091B503813A09F0B8CF809185
:10521000E800877F8093E8008091E80080FFFCCF62
:1052200080916403C2CF84B7877F84BF0FB6F894A0
:10523000A895809160008861809360001092600062
:105240000FBE80E880936100109261000E94AB1451
:105250000E946B2B0E94C82B8091E2008460809397
:10526000E20078940E94512E0E94B11486E191E0F0
:105270000E9450148091B403853029F00E94B91423
:105280000E944B13F7CF0E94F8218091B20388232C
:1052900089F30E942922882369F30E94C529EACF55
:1052A0000C945229292F33272330310579F158F4F2
:1052B00021303105F1F02230310519F190E080E024
:1052C00030E020E01AC021323105C9F12232310527
:1052D000A9F76430710590F7FB01EE0FFF1FE9524B
:1052E000FE4F208131816D527E4FFB01808190E025
:1052F00004C082E190E029E535E0FA0131832083A2
:1053000008958DE690E02CEE34E0F7CF99278130B8
:10531000910579F040F08230910571F0039771F6B4
:10532000E2EBF4E002C0E8EEF4E0849190E09F014B
:10533000E4CFE0EDF4E0F9CFE8EBF4E0F6CF643051
:10534000710508F0BBCF660F771FFB01E152FE4FDE
:105350002081318189E090E0D0CF0895CF93C82F8C
:105360000E94AD29C0936503CF9108958091B40345
:10537000843011F081E0089582E008958091650302
:10538000811102C00C94B629089580E189BD82E1A3
:1053900089BD09B400FEFDCF8091D8008F7D809338
:1053A000D8008091E00082608093E0008091E0006E
:1053B00081FDFCCF0895AF92BF92CF92DF92FF9212
:1053C0000F931F93CF93DF936C01EB018A010E942F
:1053D0003C2BF82E811123C00115110539F0F8017D
:1053E00080819181C81BD90BC80ED91EB12CA12C6C
:1053F0002097A9F08091E80085FD22C08091E80007
:105400008E778093E80001151105A1F0F8018081E5
:105410009181A80EB91EB182A08285E0F82E8F2D51
:10542000DF91CF911F910F91FF90DF90CF90BF90B0
:10543000AF9008950E943C2B8823D1F2F82EEFCF35
:10544000F60181916F018093F1002197FFEFAF1A70
:10545000BF0ACECFFC018091BB039091BC0386179D
:105460009707A0F06115710529F49091E8009E77E7
:105470009093E80090E06115710551F4911108C016
:105480008091E80082FF35C080E00895BC01F2CF32
:105490008091B4038823C9F18530C9F18091E80077
:1054A00083FD31C08091E80082FDEACF8091E80061
:1054B00080FFE1CF2091F3008091F200322F282F5E
:1054C0006115710519F02830310558F091E0283048
:1054D000310509F090E02091E8002E772093E80054
:1054E000CACF81918093F100615071092F5F3F4FC6
:1054F000E7CF8091B403882341F0853041F080915B
:10550000E80083FFBDCF81E0089582E0089583E045
:105510000895FC018091BB039091BC038617970707
:10552000A0F06115710529F48091E8008E778093D1
:10553000E80090E06115710551F4911108C0809167
:10554000E80082FF36C080E00895BC01F2CF809170
:10555000B4038823D1F18530D1F18091E80083FD37
:1055600032C08091E80082FDEACF8091E80080FFA0
:10557000E1CF2091F3008091F200322F282F6115A6
:10558000710519F02830310558F091E028303105C7
:1055900009F090E08091E8008E778093E800CACF10
:1055A00084918093F1003196615071092F5F3F4FD4
:1055B000E6CF8091B403882341F0853041F080919B
:1055C000E80083FFBCCF81E0089582E0089583E086
:1055D0000895982F973028F08F708093E90081E02C
:1055E00008959093E900242F762F50E0981731F01A
:1055F0007091EC002091ED005091F00021FD02C06F
:105600009F5FE8CF3091EB003E7F3093EB0030910D
:10561000ED003D7F3093ED003091EB003160309331
:10562000EB007093EC002093ED005093F00020917C
:10563000EE0027FDE5CF80E008958091B50387FF58
:1056400013C08091E80082FF06C08091E8008B774C
:105650008093E80004C08091B4038111F2CF0895D3
:105660008091B4038823D9F38091E80080FFF8CFBC
:105670008091E8008E77ECCF2091E4003091E50036
:1056800085E69091EC0090FF06C09091E80090FFB5
:1056900006C080E008959091E80092FDFACF9091C5
:1056A000B403992391F0953091F09091EB0095FD22
:1056B00010C04091E4005091E5002417350709F32C
:1056C00081509A01F1F684E0089582E0089583E024
:1056D000089581E008950E94D92B0E94E12BE0EE0D
:1056E000F0E0808181608083E8EDF0E080818F7759
:1056F000808319BCA7EDB0E08C918E7F8C93808164
:105700008F7E80831092B30308950F931F93CF93DE
:10571000DF930E94D92B0E94E12BC8EDD0E0888155
:105720008F77888388818068888388818F7D88834C
:1057300019BC1092B4031092B0031092B2031092ED
:10574000B10300EE10E0F80180818B7F80838881B7
:105750008160888342E060E080E00E94E92AE1EE17
:10576000F0E080818E7F8083E2EEF0E080818160D6
:105770008083808188608083F80180818E7F808330
:10578000888180618883DF91CF911F910F91089567
:10579000E8EDF0E080818F7E8083E7EDF0E08081AE
:1057A0008160808384E082BF81E08093B3030C94A6
:1057B000852BE8EDF0E080818E7F80831092E200FF
:1057C00008951092DA001092E10008951F920F924E
:1057D0000FB60F9211242F933F934F935F936F93C4
:1057E0007F938F939F93AF93BF93EF93FF9380919A
:1057F000E10082FF0BC08091E20082FF07C0809130
:10580000E1008B7F8093E1000E94502E8091DA00AE
:1058100080FF19C08091D80080FF15C08091DA0008
:105820008E7F8093DA008091D90080FF94C080E160
:1058300089BD82E189BD09B400FEFDCF81E080937E
:10584000B4030E943D288091E10080FF19C080913F
:10585000E20080FF15C08091E2008E7F8093E2001D
:105860008091E20080618093E2008091D8008062A4
:105870008093D80019BC85E08093B4030E944F2820
:105880008091E10084FF29C08091E20084FF25C05F
:1058900080E189BD82E189BD09B400FEFDCF809120
:1058A000D8008F7D8093D8008091E1008F7E809317
:1058B000E1008091E2008F7E8093E2008091E2001F
:1058C00081608093E2008091B003882309F449C08D
:1058D00084E08093B4030E9450288091E10083FF0C
:1058E00029C08091E20083FF25C08091E100877F7D
:1058F0008093E10082E08093B4031092B003809122
:10590000E1008E7F8093E1008091E2008E7F8093A2
:10591000E2008091E20080618093E20042E060E07A
:1059200080E00E94E92A8091F00088608093F00076
:105930000E944E28FF91EF91BF91AF919F918F915F
:105940007F916F915F914F913F912F910F900FBE7B
:105950000F901F90189519BC1092B4030E944B2809
:1059600072CF8091E30087FD02C081E0B2CF83E077
:10597000B0CF1F920F920FB60F9211242F933F9327
:105980004F935F936F937F938F939F93AF93BF9347
:10599000CF93EF93FF93C091E900CF708091EC001B
:1059A0001092E9008091F000877F8093F000789456
:1059B0000E94F52C1092E9008091F000886080939D
:1059C000F000C093E900FF91EF91CF91BF91AF91AB
:1059D0009F918F917F916F915F914F913F912F9107
:1059E0000F900FBE0F901F9018951F93CF93DF93CA
:1059F000CDB7DEB7AA970FB6F894DEBF0FBECDBF06
:105A0000E5EBF3E08091F100819323E0ED3BF207B9
:105A1000C9F70E9466288091E80083FF44C0809106
:105A2000B5039091B6039A3008F03DC0E92FF0E03D
:105A3000E45EF24D0C94DE31262D4C2D532D4C2D71
:105A4000532DAA2DCC2D532D232E302E803889F0A6
:105A5000823849F58091B9038F70873020F58093A3
:105A6000E9008091EB0085FB882780F91092E9001E
:105A700006C08091B1039091B20391118260909120
:105A8000E800977F9093E8008093F1001092F10076
:105A90008091E8008E772DC0282F2D7F21F4882358
:105AA000D1F0823059F18091E80083FF0AC08091E3
:105AB000E800877F8093E8008091EB00806280930C
:105AC000EB00AA960FB6F894DEBF0FBECDBFDF91F4
:105AD000CF911F9108958091B703813021F79330C2
