:100000000C941D030C943A030C943A030C943A0399
:100010000C943A030C943A030C943A030C943A036C
:100020000C943A030C943A030C94AC2B0C947F2C54
:100030000C9412220C943A030C943A030C943A0355
:100040000C943A030C943A030C943A030C943A033C
:100050000C943A030C947A220C943A030C943A03CD
:100060000C943A030C943A030C943A030C943A031C
:100070000C943A030C943A030C943A030C943A030C
:100080000C943A030C943A030C943A030C943A03FC
:100090000C943A030C943A030C943A030C943A03EC
:1000A0000C943A030C943A030C943A0307634236D7
:1000B000B79BD8A71A39685618AEBAAB558C1D3CF9
:1000C000B7CC5763BD6DEDFD753EF6177231BF00BD
:1000D0000000803F05A84CCDB2D44EB93836A902F5
:1000E0000C50B9918688083CA6AAAA2ABE00000036
:1000F000803F0000F0A129002B00E000E100E200B9
:1001000000001E00140004001D00000000001F007D
:100110001A0016001B000000E30020000800070082
:1001200006000000E5002100150009001900025139
:100130000000220017000A00050000000000000077
:100140002C0400001E0100000000660C0354000097
:100150001F010000000023001C000B001100000024
:100160000000240018000D001000015100002500BF
:100170000C000E00360000002C00260012000F00BC
:1001800037000000E70027001300330038000000AC
:10019000000000002A002800E500E6000000003012
:1001A0000100010001000100000000001E002B0002
:1001B00000000000010000001F00350000000000EA
:1001C00001000000200031002900000001000000B3
:1001D00021003400000000000100000022002A007D
:1001E00000000000010000001014000000000000EA
:1001F00001000000000000000000000001000000FD
:1002000023000000000000000100000024002D0079
:10021000000001000100000025002E000100010087
:100220000100000026002F00010001000100000075
:100230002700300001000100010001000100010061
:100240000100010000000000000000000000005C50
:1002500000003A00AA0000000000000001003B007E
:10026000A90000000000000001003C00A800000000
:100270000000000001003D00000000000000000040
:1002800001003E000000000000000000010000002E
:10029000000000000000000001000000000000005D
:1002A0000000000001003F000000F200000000001C
:1002B00001004000F400F1000000000001004100D6
:1002C000F500F00000000000010042000000F30013
:1002D0000000000001004300440045000000000051
:1002E000010000000000000000000000000000000D
:1002F00000000000000000000000000000000000FE
:1003000000000000000000000000161400000000C3
:1003100000000000000000000614000005000000BE
:1003200000000000000000000000000017140A1484
:1003300000000000000000000000000000000000BD
:10034000000000000051000000000000000000005C
:10035000000000000000000000000000000000009D
:1003600000000000000000000C140000000000006D
:100370000000000000000F1400000000000000005A
:10038000000000000000000000000000000000006D
:1003900000000000000000047F3F1F64321464323C
:1003A00014783C1E1E140A056801F000B4007800A1
:1003B0005A000000000000010101010101010101DA
:1003C0000202020202020202020303030303030306
:1003D00003040404040404050505050506060606D1
:1003E0000607070707080808080909090A0A0A0A88
:1003F0000B0B0B0C0C0C0D0D0D0E0E0F0F0F101028
:1004000011111112121313141415151616171718AB
:100410001819191A1A1B1C1C1D1D1E1F1F20202114
:1004200022222324252526272728292A2B2B2C2D59
:100430002E2F2F30313233343536363738393A3B78
:100440003C3D3E3F4041424344464748494A4B4C6D
:100450004D4F50515253555657585A5B5C5E5F6032
:100460006263646667696A6C6D6E707173747678C6
:10047000797B7C7E8081838486888A8B8D8F919224
:100480009496989A9B9D9FA1A3A5A7A9ABADAFB148
:10049000B3B5B7B9BBBDBFC1C4C6C8CACCCFD1D331
:1004A000D6D8DADCDFE1E4E6E8EBEDF0F2F5F7FAD6
:1004B000FCFF0403300000001603450072006700D3
:1004C0006F0044006F007800200045005A000000D3
:1004D00016034500720067006F0044006F0078004B
:1004E000200045005A0000000403090409023B00F3
:1004F000020100A0FA090400000103010100092122
:10050000110100012240000705810308000A0904C7
:100510000100010300000009211101000122C000B7
:100520000705820320000A1201100100000008EDF7
:10053000FE071301000102030105010902A1018563
:10054000020901A1000509190129051500250195D8
:1005500005750181029501750381010501093009C5
:10056000311581257F950275088106093815812589
:100570007F950175088106050C0A38021581257FD3
:10058000950175088106C0C005010980A101850398
:100590001601002603001A81002A830075109501B8
:1005A0008100C0050C0901A1018504160100269CEB
:1005B000021A01002A9C02751095018100C00501F4
:1005C0000906A1018505050719E029E715002501A0
:1005D0009508750181020508190129059505750120
:1005E00091029501750391010507190029EF150086
:1005F000250195F075018102C005010906A10105DB
:100600000719E029E7150025019508750181029574
:1006100001750881010508190129059505750191E4
:10062000029501750391010507190029FF150026A0
:10063000FF00950675088100C00011241FBECFEF92
:10064000DAE0DEBFCDBF11E0A0E0B1E0E2E0F4E629
:1006500002C005900D92A43DB107D9F723E0A4EDA7
:10066000B1E001C01D92AA3BB207E1F70E94D92870
:100670000C94FF310C94000080B38C7080BB81B36C
:10068000836F81BB089584B1807F84B985B1807FF9
:1006900085B98AB1837F8AB98BB1837F8BB93E9844
:1006A00046980895CF93C82F873080F58091000138
:1006B00090910101892B99F564E670E080E40E9435
:1006C000C5049093010180930001892BD1F464E665
:1006D00070E082E10E941A0590930101809300016D
:1006E000892B79F481E090E001C0880FCA95EAF780
:1006F00064E670E080950E941A0590930101809352
:10070000000184E690E0CF910C946D058A30B9F039
:1007100040F4883071F0893079F0209A2898CF9190
:1007200008958C3091F070F08D30B9F73E9A46986C
:10073000F6CF219A2998F3CF229A2A98F0CF239ABC
:100740002B98EDCF529A5A98EACF539A5B98E7CFFD
:100750000C949D06CF93DF930E94110690E0909336
:100760000101809300010E9443030E943C03E7E3E0
:10077000F2E0A9E2B2E085ED91E011921D92EC0168
:1007800026E019922150E9F7069622E0E534F207B7
:10079000A1F7DF91CF910C94C8060E94110690E05A
:1007A00090930101809300010E9443030E943C0347
:1007B000E7E3F2E0119282E0E534F807D9F7089513
:1007C000CF93DF93E62FF0E0E75DFD4F40814827B0
:1007D000808386E0689FF0011124EB52FE4F30E0E9
:1007E00020E080E061E070E050E0AAE0B22F91915B
:1007F0009923B9F0EF01219791509883EA0102C043
:10080000D595C795BA95E2F7C0FF03C0EF012197D0
:10081000A8832F5F3F4F2630310541F7DF91CF91FD
:100820000895EB01022E01C0CC0F0A94EAF78C2B3D
:10083000E5CFCF93DF93D82F873008F050C0809159
:10084000000190910101C0E0892B81F464E670E021
:1008500080E40E94C5049093010180930001892BDC
:10086000B1F0C0E084E690E00E946D056D2F8C2F02
:100870000E94E003ED2FF0E0E95CFD4F982F90958A
:10088000208192238C23892BDF91CF91089564E6F8
:1008900070E083E10E941A059093010180930001AA
:1008A000892BF9F664E670E081E40E94C504909318
:1008B000010180930001892BA1F684E690E00E945B
:1008C000490597FF05C09093010180930001C9CFAE
:1008D000C82FC0951092010110920001C3CFCFB173
:1008E0008FB1869586958C73C3708C2BC82FC0955D
:1008F000BDCF0F931F93CF93DF9380910001909111
:100900000101892B91F08091D4018F5F8093D401F4
:1009100081110BC00E94110690E090930101809319
:100920000001892B11F40E94BB0507E312E0C0E02F
:100930008C2F0E945203D7E0DC0F8D2F0E945203B0
:100940008C2F0E941904F80181938F018D2F0E9432
:100950001904F80186830E944303CF5FC73041F733
:100960000E94D20681E0DF91CF911F910F910895EF
:10097000E82FF0E0E95CFD4F808108950895109222
:10098000B9008CE08093B8000895EF92FF920F9326
:100990001F93CF93DF93182FEB011092BC0084EAD2
:1009A0008093BC000E9444227C018091BC0087FFA0
:1009B0000DC08091B900887F8830D9F08091B9004E
:1009C000887F8031B1F08FEF9FEF0CC0CF3FDC0705
:1009D00061F30E9444228E199F098C179D0728F30A
:1009E0008EEF9FEFDF91CF911F910F91FF90EF90CE
:1009F00008951093BB0084E88093BC000E944422B9
:100A00008C018091BC0087FF0AC08091B900887F6B
:100A1000883111F08034B9F690E080E0E3CFCF3F29
:100A2000DC0779F30E944422801B910B8C179D07F1
:100A300040F3D6CF0F931F93CF93DF93EB018093B7
:100A4000BB0084E88093BC000E9444228C0180910A
:100A5000BC0087FF11C02091B900287F81E090E0A1
:100A6000283211F490E080E0919581959109DF9111
:100A7000CF911F910F910895CF3FDC0741F30E9462
:100A80004422801B910B8C179D0708F38EEF9FEF7C
:100A9000EECF0F931F93CF93DF93EC0184E8809305
:100AA000BC000E9444228C018091BC0087FF08C0DA
:100AB0008091BB0090E0DF91CF911F910F9108953D
:100AC000CF3FDC0789F30E944422801B910B8C17D7
:100AD0009D0750F38EEF9FEFEECF0F931F93CF93B1
:100AE000DF93EC0184E98093BC000E9444228C01D6
:100AF0008091BC0084FD07C090E080E0DF91CF9141
:100B00001F910F910895CF3FDC0791F30E9444227B
:100B1000801B910B8C179D0758F38EEF9FEFEECF44
:100B2000259A2D9A0895269A2E9A0895279A2F9AF3
:100B3000089556985E98089525982D9808952698BA
:100B40002E98089527982F9808950E9499050E943D
:100B50009C050E949F050C94A20590E0909389004B
:100B60008093880090938B0080938A0090938D00EF
:100B700080938C0008950E94A5058FEF0E94AD051B
:100B80000E9490052FEF80E792E021508040904036
:100B9000E1F700C000000E9493052FEF80E792E08C
:100BA000215080409040E1F700C000000E9496056F
:100BB0002FEF80E792E0215080409040E1F700C0A5
:100BC00000000E949C052FEF80E792E021508040BA
:100BD0009040E1F700C000000E949F052FEF80E7E2
:100BE00092E0215080409040E1F700C000000E9458
:100BF000A2050C94A50589EA8093800089E0809382
:100C0000810024982C983F988AB18F7C8AB96E987D
:100C1000479A8BB180638BB9769A0E94BB050C947E
:100C20009C0680E290E09093010180930001809106
:100C3000450281110EC00E94BF0481E080934502ED
:100C40002FEF83ED90E3215080409040E1F700C00A
:100C5000000064E670E080E40E94C5049093010106
:100C600080930001892B09F050C064E670E080E0B9
:100C70000E941A059093010180930001892B09F0CD
:100C800044C064E670E080E00E941A059093010180
:100C900080930001892BC9F564E670E08FE30E9420
:100CA0001A059093010180930001892B71F584E668
:100CB00090E00E946D0564E670E080E40E94C50447
:100CC0009093010180930001892BF9F464E670E0B0
:100CD0008CE00E941A059093010180930001892BFA
:100CE000A1F464E670E080E00E941A05909301018F
:100CF00080930001892B49F464E670E08FE30E9441
:100D00001A05909301018093000184E690E00E940F
:100D10006D05809100010895611107C0FC01828179
:100D2000882331F085EE0E948D1590E080E00895D3
:100D300085EE0E947A16F9CF0895CF936091010352
:100D40007091020380910303909104030E94762026
:100D5000C82F0E9499050E949C050E949F050E9431
:100D6000A205C23039F0C33041F0C13049F4CF910F
:100D70000C949005CF910C949305CF910C9496050B
:100D8000CF91089581E0089581E008950C94C40600
:100D90000E94C320811102C00E9431210E943E0C9A
:100DA0000C94FB050C94A803282F2F7041F0822F80
:100DB00090E02A3010F44D9608950697089587E242
:100DC00090E0089508950C94E2060C94E3060895CB
:100DD0000E94021A0E94E7062FEF84E39CE0215054
:100DE00080409040E1F700C000000C94A022FF92E8
:100DF0000F931F93CF93DF938C01FC01C081D181AE
:100E000080918F02811150C08281882309F447C0EC
:100E1000CE010E944D1FF82E682FCE010E94F11EB8
:100E2000BE018F2D0E94A909EC01B8010E94C606DF
:100E3000882309F4E3C0B801CE010E94B90C8823CD
:100E400009F4DCC0CC3CFCE5DF0709F428C108F05C
:100E500071C0C43C9CE5D90709F4FAC008F048C049
:100E6000C531FCE5DF0728F5C2308CE5D80708F06E
:100E700078C1C1159CE5D90709F4BBC0C130DC4578
:100E800009F4C3C081E080934B0280934C02C801F7
:100E9000DF91CF911F910F91FF900C94C206CE016C
:100EA0000E94211FF82EBCCFCE010E944D1FBE0113
:100EB000B9CFC23CFCE5DF0709F4B8C008F0BDC0FB
:100EC000C631DC45F9F60E943420F801928199235D
:100ED00009F434C28A7A91E009F490E090934602D2
:100EE00081112AC289E20E94BD1F0E94012086C092
:100EF000F8018281C83CFCE5DF0709F4BEC068F454
:100F0000C63CECE5DE0709F4B3C008F4ACC08823A6
:100F100009F474C00E94000F71C0CA3C9CE5D90757
:100F200009F4B7C008F4AFC0882309F467C00E9471
:100F3000860D64C0C43DFCE5DF0709F4F6C040F54A
:100F4000F8018281C03DFCE5DF0709F4C4C0A8F4C4
:100F5000CE3CECE5DE0709F4B1C008F4A8C0882354
:100F600009F44CC00E947D0D863028F00E947D0D52
:100F7000883008F475C086E09EC0C23D9CE5D90764
:100F800009F4C5C008F4B5C08823C1F188E193C055
:100F9000C83DFCE5DF0709F4B4C1B0F4F801828173
:100FA000C63DFCE5DF0709F460C108F4CEC0882324
:100FB00009F489C110924C020E94442290934A0283
:100FC0008093490280E25CC1CC3DECE5DE0709F488
:100FD000C1C0CD3DFCE5DF0711F1CB3DDC4509F09B
:100FE00051CFF8018281882349F080E00E94742962
:100FF00005C0F801828181110E94E80680E0DF913E
:10100000CF911F910F91FF900895F801828188235D
:10101000A9F380912E03816080932E03EFCFF80116
:101020008281882359F30E943121E8CFF80182811F
:10103000882321F30E941310E1CFF80182818823D5
:10104000E9F20E943420827259F00E94B80FD6CF84
:10105000F8018281882391F20E9434208272A9F3E0
:101060000E94AA0FCBCF882349F20E94C60EC6CF9A
:10107000882321F20E94E90EC1CF882309F4BECF54
:101080000E94170FBBCF882309F4B8CF0E94340FFA
:10109000B5CF882309F4B2CF0E94510FAFCFF8012A
:1010A0008281882309F4AACF0E949B0DA7CF8823B1
:1010B00009F4A4CF81E00E94BB0FA0CF882309F4DC
:1010C0009DCF0E947D0D823020F00E947D0D8530E5
:1010D00038F282E0F0CF882309F490CF0E947D0D92
:1010E000893028F00E947D0D8E3008F4B9CF89E058
:1010F000E2CF882309F482CF0E947D0D8F3028F043
:101100000E947D0D843108F4ABCF8FE0D4CF8823CB
:1011100009F474CF0E947D0D853128F00E947D0D69
:10112000873108F49DCF85E1C6CFF80182818823FD
:1011300009F464CF0E947D0D893128F00E947D0D55
:10114000823208F48DCF89E1B6CF882309F456CFD7
:1011500083E2B1CFF8018281882309F44FCF82E086
:1011600045CFF8018281882309F491CE0E94C320E3
:10117000811102C00E9431210E94D62090E09093FC
:10118000AC038093AB03FE01E350FC458091AB03BD
:101190008160E231F105C8F4E053F74F0C94A431BB
:1011A000E208EE08F208F608FA08FE080209060945
:1011B0000A090E09120916091A091E092209260927
:1011C0002A092E098091AB0382608093AB03809142
:1011D000AB030E94DA200E94021A10CF8091AB0369
:1011E0008460F3CF8091AB038860EFCF8091AB0335
:1011F0008061EBCF8091AB038062E7CF8091AB033E
:101200008064E3CF8091AB038068DFCF8091AB0334
:101210008460EACF8091AB038E7FD7CF8091AB0300
:101220008D7FD3CF8091AB038B7FCFCF8091AB03EA
:10123000877FCBCF8091AB038F7EC7CF8091AB03ED
:101240008F7DC3CF8091AB038F7BBFCF8091AB03EA
:101250008F77BBCF8091AB038B7FEACF9091AB03AD
:10126000892F97FB87F98058B0CF882361F01092BF
:101270004B020E944422909348028093470282E0EE
:101280000E94D816BBCE0E94342085FF05C081E0A5
:1012900080934B0280934C0280914B0281110FC0CE
:1012A00080914702909148020E945022883C91050B
:1012B00030F486E20E948D1586E20E947A1682E062
:1012C0000E94DF169BCE0E94342081FF05C081E082
:1012D00080934B0280934C0280914C0281110FC08D
:1012E0008091490290914A020E945022883C9105C7
:1012F00030F487E20E948D1587E20E947A1680E220
:10130000DFCFF8018281811155CE80914C0281118D
:10131000F6CF8091490290914A020E945022883C67
:10132000910568F780E20E94DF1688E20E948D1521
:1013300088E20E947A1662CE85E3D5CD809146027E
:10134000811104C089E20E94C41FCFCD85E3FBCF89
:101350000895972F70E026E0929F600D711D112473
:10136000FB0194E5899FE00DF11D1124EE0FFF1F95
:10137000EA50FF4F859194910895FC01EE0FFF1FF5
:10138000EE50FF4F859194910895CF93DF930E9483
:10139000A9090E94840BEC018115904508F043C017
:1013A000C11580E4D80708F01BC1C83ED10528F557
:1013B000C03ED10508F0A7C0C83AD10580F4C53AAF
:1013C000D10508F096C0C130D10509F49CC020F0C9
:1013D000C430D10508F097C0D0E0C0E094C0CF3B46
:1013E000D10508F494C0CE01805C9109C03CD105C0
:1013F00098F30E94BD09EC0186C0C11520E2D20716
:1014000050F4C11581E0D80708F07DC0C03FD10578
:1014100018F3D06578C0C11520E3D20708F0D6C014
:10142000CE019F70E6CFC11585E5D80760F5C115DF
:1014300024E5D20708F002C1C11582E5D80750F4AF
:10144000C11521E5D20708F4CEC0DC2FCC27C16F2F
:10145000D06A59C09C2F969596959E01237033278C
:10146000C115D34508F0DBC0C1E0D0E002C0CC0F0D
:10147000DD1F2A95E2F720E2929FC0011124C82BBC
:10148000D92BDC6840C0C1152AE5D207A0F4C115EC
:1014900089E5D80708F0DDC0C11526E5D20708F4B4
:1014A000D2C0C11588E5D80708F496CFDC2FCC2729
:1014B000C06FD06A28C0C1152BE5D20708F48CCFC5
:1014C000C1158CE5D80708F4D1C0CE01905681151E
:1014D000904208F081CF8D2F8F710E94040CDD2780
:1014E000D06290E0982F882788279F71C82BD92B2E
:1014F0000AC0C53AD10509F4BCC0C63AD10509F401
:10150000BBC0C3E8D0E4CE01DF91CF910895C83AC3
:10151000D10509F4B4C0C93AD10509F4B3C0CA3A37
:10152000D10509F4B2C0CB3AD10509F4B1C0CC3A27
:10153000D10509F4B0C0CB3BD10509F4AFC0CC3B19
:10154000D10509F4AEC0CD3AD10509F4ADC0C03B18
:10155000D10509F4ACC0CE3AD10509F4ABC0CF3AFD
:10156000D10509F4AAC0C13BD10509F4A9C0C23B09
:10157000D10509F4A8C0C33BD10509F4A7C0C43BF9
:10158000D10509F4A6C0C53BD10509F4A5C0C63BE9
:10159000D10509F4A4C0C73BD10509F4A3C0C83BD9
:1015A000D10509F4A2C0C93BD10509F4A1C0CD3BC6
:1015B000D10509F4A0C0CE3BD10509F49FC0CA3BB8
:1015C000D10509F09EC0CAE2D6E49DCFCE0199278D
:1015D000D3FF03C0EC01D86C96CFEC01D06C93CF55
:1015E000DF70D06A90CFCE01E4E096958795EA95BA
:1015F000E1F783709C2F937021E030E002C0220F4E
:10160000331F9A95E2F73C68382BC695C695C37090
:1016100080E2C89FE0011124C22BD32B74CFC1E01C
:10162000D0E002C0CC0FDD1F2A95E2F720E2929FA6
:10163000C0011124C82BD92BDA6865CFDC2FCC2749
:10164000C46FD06A60CFDC2FCC27CC27DF71D0628B
:101650005ACFCE0134E0969587953A95E1F78F7091
:10166000CF70C06ED0E0D06AD82B4DCFDD27D066CA
:101670004ACFC1E8D0E447CFC2E8D0E444CFC2EEBD
:10168000D4E441CFC9EED4E43ECFCAEED4E43BCF9C
:10169000C5EBD4E438CFC6EBD4E435CFC3EBD4E408
:1016A00032CFC4EBD4E42FCFC7EBD4E42CCFCCECB7
:1016B000D4E429CFCDECD4E426CFC3E8D5E423CFBE
:1016C000CAE8D5E420CFC2E9D5E41DCFC4E9D5E40A
:1016D0001ACFC1E2D6E417CFC3E2D6E414CFC4E2F6
:1016E000D6E411CFC5E2D6E40ECFC6E2D6E40BCFE6
:1016F000C7E2D6E408CFCFE6D4E405CFC0E7D4E410
:1017000002CFC0E0D4E4FFCE8238910549F1B0F4B5
:101710008133910509F45CC048F48932910509F4DC
:1017200052C08A32910509F458C008958533910555
:1017300009F444C08933910599F00895833E9105D9
:1017400031F138F4803E910591F0823E9105B1F07F
:101750000895863E910511F1873E910541F1089566
:101760002091AB032370C9F080EE90E008952091A2
:10177000AB0320FF12C089E390E008952091AB03F2
:1017800022FF0BC024FF2EC090E080E0089520913E
:10179000AB0322FD2AC024FDF7CF08952091AB03AF
:1017A00023FFFBCF24FDF0CF87EE90E0089520913A
:1017B000AB0323FFF0CF86EE90E008952091AB03BA
:1017C00025FD16C008952091AB0325FD14C0089592
:1017D0002091AB0326FD12C008952091AB0326FD96
:1017E00010C0089583EE90E0089582EE90E0089591
:1017F00089E290E0089585E390E008958AE290E020
:10180000089581E390E0C9CF9091AB0392FF06C0A9
:10181000282F2871283069F4877F846093FF06C0E1
:10182000282F2871283161F4877E846194FD877E9A
:101830000895282F2471243089F78B7F8860EECF9C
:10184000282F2471243191F78B7E8861EFCFCF93BD
:10185000DF93EC01C13080E8D80760F0FB018281A2
:10186000882341F00E94540CCE019F770E949C0C6B
:101870000E948A0C81E0DF91CF9108958CE090E086
:101880000E94B73190E0B0E0A0E0809360039093B5
:101890006103A0936203B0936303089560916003B2
:1018A0008CE090E00C94CB310E94342080934D0268
:1018B0000E94482080916003813081F058F082308E
:1018C000E9F0843011F18FE39CE90197F1F700C052
:1018D0000000089582EE0E948D15F5CF80EE0E94E3
:1018E0008D1581EE0E948D1588E10E94D01681EE43
:1018F0000E947A1680EE0E947A16E5CF82EE0E9450
:101900008D1587E50E94D016DECF86EE0E94D01698
:1019100088E1F8CF80916003813051F010F082307F
:1019200019F482EE0E947A1680914D020C944520A3
:101930008CE20E94D016F8CF0F931F93CF93DF93C2
:101940008C01CCE0D0E0C8010C2E02C096958795A2
:101950000A94E2F78F700E94D4060E94D016249752
:10196000CC3F8FEFD80779F7DF91CF911F910F917F
:1019700008950F931F93CF93DF93EC018B01FB012D
:101980008281882371F0C23EFCE5DF0719F188F4FB
:10199000C03EECE5DE07C9F081E0C13EFCE5DF07B3
:1019A00089F0B801CE01DF91CF911F910F910C9476
:1019B000270CC33E8CE5D80779F084E0C43EECE503
:1019C000DE0779F78093600302C0109260030E94E3
:1019D0004E0CE7CF82E0F6CF83E0F4CFCF92DF92D8
:1019E000EF92FF920F931F93CF93DF93E90166234A
:1019F00009F466C0E42EF12CEFEFF0E0E61BF109EC
:101A0000EE9D8001EF9D100DFE9D100D1124212FE4
:101A1000E12FFF27EE1AFF0A5CE3C52ED12CB60199
:101A20000E947C31FB01BC01E69EC001E79E900D47
:101A3000F69E900D1124B6010E947C31E230F10532
:101A400089F168F4812F262F210F309781F0242F00
:101A5000461B319761F080E020E040E008C0E430B0
:101A6000F10551F128F1842F861B3597A1F7E42F5A
:101A7000F0E0EE54FC4F4491E22FF0E0EE54FC4FC6
:101A80009491E82FF0E0EE54FC4FE4914983988361
:101A9000EA83DF91CF911F910F91FF90EF90DF903C
:101AA000CF900895862F810FE42F412F2E2FDFCF67
:101AB000E42FE61B842FF9CF842F462F410FD7CF79
:101AC000842F242FD4CF88E090E00C94BF31AB0159
:101AD000BC0188E090E00C94DD31E4E6F3E083E0C3
:101AE0008083109265038FEF8283838314826081E9
:101AF0007181828193810C94670D8091640380FFD2
:101B000003C086958F73089580E0089580916803DF
:101B100090E001968430910514F083E090E080938A
:101B200068036091640370916503809166039091EE
:101B300067030C94670D809168038150990B97FFA0
:101B400002C090E080E08430910514F083E090E0E2
:101B500080936803609164037091650380916603CC
:101B6000909167030C94670D80916403E9E6F3E0BC
:101B700080FF06C06FE070E089E693E00C949E134E
:101B8000118210821282349683E0E53AF807C1F799
:101B9000F1CF9091640390FF0CC0E9E6F3E08183FC
:101BA00060834283349693E0E53AF907C1F70C94D9
:101BB000B40D0895CF93DF9300D000D0CDB7DEB73A
:101BC0002091640320FF0AC09E012F5F3F4F0E94B7
:101BD000EE0C4B8169818A810E94C90D0F900F9094
:101BE0000F900F90DF91CF9108955F926F927F9247
:101BF0008F929F92AF92BF92CF92DF92EF92FF921D
:101C00000F931F93CF93DF9300D000D0CDB7DEB7F3
:101C10008C01E62EF42E522E8091640380FF30C09A
:101C2000982F9E77923009F03FC09E012F5F3F4F63
:101C3000C8010E94EE0C4B8169818A810E94C90D06
:101C40008091640300FB87F980936403902F96953D
:101C5000809165038078892B10FB87F98093650359
:101C6000E0926603F0926703552051F0609164039F
:101C70007091650380916603909167030E94670DE0
:101C80000F900F900F900F90DF91CF911F910F91B8
:101C9000FF90EF90DF90CF90BF90AF909F908F908C
:101CA0007F906F905F900895E82FE695EF739EE325
:101CB0009E0F9F73943018F4F0906703C1CF9AE39E
:101CC0009E0F9F73993068F4881F8827881F909112
:101CD0006503292F220F022F082B97FB112710F9DC
:101CE000AFCF87E28E0F8F738A3008F0A9CFE9510A
:101CF000FF0B2FEFE0FF21E0EE7FE855FC4F8591D1
:101D000094916FE070E00E947C3126034001279F90
:101D1000900C1124580188E9A81A8EEFB80A89E6B8
:101D2000C82E83E0D82E98E6692E77247394C501D7
:101D3000B3010E947C3196014F2D6E2D0E94EE0C56
:101D4000A80CB91C84E0C80ED11C85EAC81683E033
:101D5000D80669F70E94B40D73CF282FE4E6F3E0AC
:101D60003081331F3327331F40916503542F550FA4
:101D7000852F832B47FB992790F90C9668E671E035
:101D80000E949031438162810C94F50D81E00C94A6
:101D9000AD0E282F30916403331F3327331F40913A
:101DA0006503542F550F852F832B47FB992790F9F7
:101DB0008C30910540F4845A9E4F409167036091A6
:101DC00066030C94F50D0C9768E671E00E94903163
:101DD000F4CF81E00C94C90EE4E6F3E03081331FC8
:101DE0003327331F90916503592F550F97FB992780
:101DF00090F9282F43816FEF852F832B0C94F50DDD
:101E000081E00C94EC0EE4E6F3E03081331F3327DD
:101E1000331F90916503592F550F97FB992790F920
:101E2000282F438160E0852F832B0C94F50D81E0F2
:101E30000C94030F40916703443FA0F4445F30913A
:101E40006403331F3327331F90916503592F550FB8
:101E500097FB992790F9282F60916603852F832B94
:101E60000C94F50D4FEFEBCF81E00C941A0F4091DD
:101E700067034C30A0F04C5030916403331F33277C
:101E8000331F90916503592F550F97FB992790F9B0
:101E9000282F60916603852F832B0C94F50D40E06D
:101EA000EBCF81E00C94370F20E00C94F50DCF932D
:101EB0009091640390FF40C09178811131C092608D
:101EC00090936403662351F06091640370916503FD
:101ED00080916603909167030E94670DC09164032F
:101EE0006C2F66956F7370E04BE050E084E091E0FA
:101EF0000E94AA31892BE1F010926B02CC1FCC27F3
:101F0000CC1F90916503892F880F97FB992790F933
:101F100040916703609166038C2BCF910C94540F12
:101F2000853210F09864CCCF8F73880F982BC8CF70
:101F300081E080936B02E2CFCF910895682F90915A
:101F4000640396959F7381E0890F853208F081E0E4
:101F50000C94570F81E00C949E0F682F90916403AE
:101F600096959F738FEF890F09F484E20C94570FB5
:101F700081E00C94AD0F61E00C94570FE4E6F3E0C0
:101F800080818160808386958F730C94BB0F60E0A5
:101F90000C94570F80912E03816080932E030E9432
:101FA000C320811104C00E9431210E946D0D0E9446
:101FB000630D60936403709365038093660390934D
:101FC00067036E7761F40E946D0D0E94630D60934C
:101FD000640370936503809366039093670381E0C5
:101FE00080936B028091640380FF04C086958F7399
:101FF0000C94C70F0895E4E6F3E080818E7F808320
:1020000060817181828193810E94670D10926B02C1
:102010002FEF80E792E0215080409040E1F700C030
:1020200000000C94B40D8091640380FD0C94FB0FB0
:102030000C94BE0FCF93C82F8091690290916A02D1
:102040000E945022EC2FF0E0EC55FC4FE491E81791
:10205000190611F008F042C00E94442290936A02CF
:10206000809369026091680270E090E080E00E94D5
:102070007D2F20E030E04FE753E40E94A02E2BEDAF
:102080003FE049E450E40E94A6300E9413310E94D0
:102090001A2F2BE43AE34EE25FE30E94332E20EF47
:1020A0003BEF48ED52E40E94A6300E944C2F462F91
:1020B00080916403881F8827881F90916503292FCA
:1020C000220F97FB992790F960916603822B0E945B
:1020D000DA0D809168028F5F80936802CF91089536
:1020E000CF93C82F80916602909167020E94502280
:1020F000EC2FF0E0EF55FC4FE491E817190609F0DA
:10210000E8F40E9444229093670280936602409113
:1021100067036091660380916402909165020E945A
:10212000DA0D8091640290916502019668E671E093
:102130000E947C319093650280936402CF91089550
:10214000CF92DF92FF920F931F93CF93DF93F82EDE
:1021500080916202909163020E945022EF2DE695D9
:10216000F0E0E256FC4FE491E817190609F0A8F5F3
:102170000E944422909363028093620209E613E076
:10218000D0E0C0E088E6C82EDD24D39480916002C0
:10219000909161028C0F9D1FB6010E947C319801C5
:1021A00040916703609166030E94EE0C68960C5F95
:1021B0001F4FC83681E0D80749F70E94B40D8091BF
:1021C000600290916102F0FE10C00196BE010E9473
:1021D0007C319093610280936002DF91CF911F91D7
:1021E0000F91FF90DF90CF9008950197F2CFCF929B
:1021F000DF92EF92FF920F931F93CF93DF93C82F3D
:10220000FF24FA9480FD02C0FF24F39480915E02C3
:1022100090915F020E945022C695EC2FF0E0E556A7
:10222000FC4FE491E817190611F008F051C00E9424
:10223000442290935F0280935E0209E613E0D0E0AF
:10224000C0E0F80111821082128294E0C92ED12CD4
:10225000E12C80915D028E0D87FD815F082E000CC0
:10226000990BC817D907E9F4809167038C9DA001E9
:102270008D9D500D11245595479555954795809105
:102280006403881F8827881F90916503592F550F75
:1022900097FB992790F9980160916603852B0E941E
:1022A000EE0CEF0CF1E0CF1AD10899F621960C5FF5
:1022B0001F4FCF30D10529F60E94B40D80915D02E9
:1022C00091E0F91210C081110CC08EE080935D0284
:1022D000DF91CF911F910F91FF90EF90DF90CF9002
:1022E00008958150F3CF90E00196BE010E94903195
:1022F000EDCF0F931F93CF93DF93C82F80915B0295
:1023000090915C020E945022EC2FF0E0E856FC4FC6
:10231000E491E817190611F008F052C00E94442217
:1023200090935C0280935B02C9E6D3E0FE011182C8
:1023300010821282349683E0E53AF807C1F710E084
:1023400000E080915A02082E000C990B081719071B
:10235000E4F180910301082E000C990B801791077E
:10236000A4F180916403881F8827881F90916503DA
:10237000592F550F97FB992790F99E0140916703BC
:1023800060916603852B0E94EE0C0F5F1F4F249611
:102390000F301105B1F60E94B40D809102019091A9
:1023A0005A02980F90935A0220910301280F20930C
:1023B0000301121614F49E301CF0819580930201E3
:1023C000DF91CF911F910F910895198218821A827F
:1023D000DCCFEF92FF920F931F93CF93DF93809107
:1023E0005802909159020E945022883E9340C8F1B1
:1023F0000E9444229093590280935802C091560241
:10240000D09157022196C170DD27D0935702C09317
:10241000560289E6E82E83E0F82E10E008E7812FC7
:1024200086958C0F9D2F911D817099279701409162
:10243000670360916603FC010E9FC0010F9F900D22
:1024400011240E94EE0C1F5FF4E0EF0EF11C1F3010
:1024500031F7DF91CF911F910F91FF90EF900C9486
:10246000B40DDF91CF911F910F91FF90EF900895E0
:10247000CF93DF9300D000D0CDB7DEB78091540268
:10248000909155020E945022E6E9F3E025913491A3
:1024900082179307B8F18091530281110CC09E01FD
:1024A0002F5F3F4F4FEF6FEF90E080E00E94EE0C08
:1024B0008A81809353020E94442290935502809314
:1024C000540280915202813069F038F040915302F9
:1024D000823009F040E080E003C08091530240E088
:1024E00060E004C06091530240E080E00E94C90DAA
:1024F0008091520290E0019663E070E00E9490317A
:10250000809352020F900F900F900F90DF91CF9118
:1025100008950F931F93CF93DF9380915002909172
:1025200051020E945022843F9140D8F10E944422DF
:102530009093510280935002C9E6D3E010E000E08E
:1025400040914E0250914F02609166038091640366
:10255000282F221F2227221F90916503892F880F81
:10256000822B97FB992790F907301105FCF4452B36
:10257000F9F09E01409167030E94EE0C0F5F1F4F20
:1025800024960F301105E1F60E94B40D80914E02A1
:1025900090914F0201968170992790934F028093FA
:1025A0004E02DF91CF911F910F910895452B09F3B2
:1025B0009E0140E0E1CF80916B028823D1F19091A0
:1025C0006403892F86958F732EE3280F2F73243091
:1025D00018F482500C941A102AE3280F2F7323301A
:1025E00018F486500C94701027E3280F2F732630B0
:1025F00018F489500C94A01021E3280F2F73263073
:1026000018F48F500C94F7102BE2280F2F732330FF
:1026100018F485510C9479119E77903311F40C9431
:10262000E911963411F40C943812983411F40C9486
:10263000891208958823B9F05198599A5098589A58
:1026400095E09A95F1F70000509A589895E09A9580
:10265000F1F70000882311F0519A599885E08A9586
:10266000F1F700000895519A5998E8CF8BB18C7F0B
:102670008BB95098589A5198599A85E08A95F1F7F4
:10268000000008958AB18C7F8AB985E08A95F1F7B8
:102690000000519A599885E08A95F1F70000509A08
:1026A000589885E08A95F1F7000008955098589A57
:1026B00085E08A95F1F700005198599A85E08A954E
:1026C000F1F700000895CF93DF93D82FC8E08D2F46
:1026D00080780E941A13DD0FC150C9F780E00E9474
:1026E0001A1385E08A95F1F7000085E08A95F1F7E5
:1026F000000080E0DF91CF9108953BB1242F209519
:1027000023233BB1432B3FB7F894FC01680F791F9B
:10271000E617F70711F43FBF0895819198E04BB990
:10272000000000C087FF2BB9880F000000C000C068
:1027300000C02BB900C09A9591F7EACFAF92BF9233
:10274000CF92DF92EF92FF920F931F93CF93DF937D
:102750008C01EB01CFB6D090BC00F8948091BC0006
:102760008B7F8093BC000E9436130E94421384E842
:102770000E946313CC0FDD1FCC0FDD1F78015E01BB
:10278000A00EB11EEA14FB04A9F40E945613CFBE9A
:10279000D092BC00579A40E8BE01C801DF91CF91AA
:1027A0001F910F91FF90EF90DF90CF90BF90AF906F
:1027B0000C947D13F70181917F010E946313E2CF96
:1027C00090937102809370020895E0917002F091ED
:1027D0007102309721F00190F081E02D099480E0A2
:1027E0000895E0917002F0917102309799F0209174
:1027F0002001222359F02091AB0327FF07C0DC0101
:102800002C9111962C93119725E02C930280F38143
:10281000E02D09940895E0917002F09171023097D3
:1028200039F022E0DC012C930480F581E02D09943D
:10283000089520916E0230916F022817390771F0C8
:1028400090936F0280936E02E0917002F09171029A
:10285000309721F00680F781E02D099408952091AA
:102860006C0230916D022817390771F090936D0258
:1028700080936C02E0917002F0917102309721F028
:102880000084F185E02D0994089585B7806885BF9F
:1028900085B7806885BF089508950E9445140C94FB
:1028A0004C1481E008950E943B220E94AA030E94DA
:1028B000D2220C94CA0FBF92CF92DF92EF92FF9276
:1028C0000F931F93CF93DF93CDB7DEB72A970FB641
:1028D000F894DEBF0FBECDBF0E9479040E94511450
:1028E000882309F471C083E7C82E82E0D82E10E057
:1028F00000E0B02E802F0E94B804E82EF601F1907F
:102900006F01F81609F45AC080912E0381FD0E94D0
:10291000BE0490E080E0FE242F2D30E0482FB90166
:10292000082E02C0759567950A94E2F760FF41C0D2
:102930008E83BF8281E090E06C0102C0CC0CDD1C74
:102940004A95E2F72E2D30E02C213D21232B09F46E
:1029500080E088870E9444228160782F9A87898747
:102960004E815F8168858A850E943D15F801ED588A
:10297000FD4F80818C2580830E9465240E94E51391
:1029800090917202891789F10E94E5138093720277
:102990002A960FB6F894DEBF0FBECDBFDF91CF9160
:1029A0001F910F91FF90EF90DF90CF90BF900C940C
:1029B000E50601968630910509F0B0CF0F5F1F4FF5
:1029C0000E30110509F095CF8FEF89838A831B8222
:1029D0000E9444228160782F9D838C8349815A8193
:1029E0006B818D810E943D15C7CF2A960FB6F89452
:1029F000DEBF0FBECDBFDF91CF911F910F91FF9032
:102A0000EF90DF90CF90BF900895CF93DF93DC01DC
:102A10008C91682F70E021E030E001C0220F8A9590
:102A2000EAF711964C91119750E0EA01CF57DD4F2C
:102A3000988112968C9112978823C9F08091910207
:102A40008823C1F086E0849FF001859FF00D11245A
:102A5000E60FF71FEE0FFF1FEF5DFE4F4081518124
:102A60004D935C93292B2883DF91CF910895892F73
:102A70008223E6CF20952923F6CFCF93DF93CDB7DE
:102A8000DEB72B970FB6F894DEBF0FBECDBF942FE5
:102A90004F83252F588769877A878B874A855B857F
:102AA00081E0452B31F02F3F19F481E09F3F09F081
:102AB00080E080FD04C0CE0107960E9405151E82AD
:102AC0001D8285E0FE013796DE01119601900D9280
:102AD0008A95E1F749815A816B817C818D819E8144
:102AE0000E94C21C2B960FB6F894DEBF0FBECDBF5E
:102AF000DF91CF910895FC01808191810E948F1F09
:102B000092959F70963041F48091910291E08927CF
:102B100080939102909390020895CF93C82F8823B9
:102B200009F4E6C08238C1F40E94E51381FDE0C0DB
:102B300089E30E94BD1F0E9401202FEF81EE94E0E7
:102B4000215080409040E1F700C0000089E30E94DE
:102B5000C41FCF910C9401208338A1F40E94E51387
:102B600080FDC6C083E50E94BD1F0E9401202FEF9B
:102B700081EE94E0215080409040E1F700C00000D9
:102B800083E5E5CF8438A1F40E94E51382FDB0C04F
:102B900087E40E94BD1F0E9401202FEF81EE94E088
:102BA000215080409040E1F700C0000087E4CFCF83
:102BB0008CEF8C0F813A48F48C2F0E94842681116F
:102BC00097C08C2F0E94BD1FC4CF80E28C0F88302D
:102BD00048F4C77081E001C0880FCA95EAF70E94E7
:102BE0003720B7CF8BE58C0F833068F481E890E015
:102BF000C53A31F083E890E0C63A11F482E890E0FB
:102C0000CF910C94191488E58C0F873108F068C0B7
:102C100082EE90E0C83A09F460C089EE90E0C93ACB
:102C200009F45BC08AEE90E0CA3A09F456C085EB1D
:102C300090E0CB3A09F451C086EB90E0CC3A09F42D
:102C40004CC083EB90E0CB3B09F447C084EB90E0B1
:102C5000CC3B09F442C087EB90E0CD3AF1F18CEC2B
:102C600090E0C03BD1F18DEC90E0CE3AB1F183E839
:102C700091E0CF3A91F18AE891E0C13B71F182E9AC
:102C800091E0C23B51F184E991E0C33B31F181E233
:102C900092E0C43B11F183E292E0C53BF1F084E2A3
:102CA00092E0C63BD1F085E292E0C73BB1F086E20C
:102CB00092E0C83B91F087E292E0C93B71F08FE669
:102CC00090E0CD3B51F080E790E0CE3B31F090E0DA
:102CD00080E0CA3B11F48AE292E0CF910C942F1469
:102CE000C03F30F08C2F0E946E23CF910C945A2459
:102CF000CF910895882309F452C0823871F40E945C
:102D0000E51381FF4CC089E30E94BD1F0E94012092
:102D100089E30E94C41F0C940120833859F40E9457
:102D2000E51380FF3CC083E50E94BD1F0E94012087
:102D300083E5EFCF843859F40E94E51382FF2FC05A
:102D400087E40E94BD1F0E94012087E4E2CF9CEF30
:102D5000980F913AF0F290E2980F983050F4877003
:102D600091E001C0990F8A95EAF7892F0E943D20D2
:102D7000D2CF9BE5980F933020F490E080E00C9444
:102D8000191498E5980F973120F490E080E00C94A6
:102D90002F14803F20F00E94D6230C945A240895CB
:102DA000CF93C82F0E948D158C2FCF910C947A163B
:102DB000882321F00E9437200C9401200895882355
:102DC00021F00E943D200C94012008958F929F9243
:102DD000AF92BF92DF92EF92FF920F931F93CF9328
:102DE000DF937C01D62FC72FFC01058102950F7060
:102DF000128111110E9459200E94FA1FD82E882397
:102E000071F0112331F180E28D0F883010F182E0F2
:102E10000E94E41F0E94FA1F91E0D82ED926BC2EF2
:102E2000B2949FE0B922EB2DF0E0E75EF84E0C94EF
:102E3000A4312B172B177B177B17BB17E3175219DE
:102E4000C2172518C217C018C0184919C217C217CF
:102E50008419D12CE4CF0C2F0F70C07F11F0029594
:102E6000007F1123A9F0002359F080E28D0F8830F4
:102E700010F0D11109C0802F0E9437200E9401203C
:102E80008D2F0E948D1514C0802F0E944B20F6CFED
:102E90008D2F0E947A16002359F080E28D0F883022
:102EA00010F0D11124C0802F0E943D200E940120EB
:102EB000DD2009F454C20E94D71F80FD50C2F701E3
:102EC00012820E94D11F0E94551EC7010E94BB1989
:102ED0000E94D11FDF91CF911F910F91FF90EF9032
:102EE000DF90BF90AF909F908F900C94761E802FB4
:102EF0000E945120DBCFFC2FFF70BF2EC07FC0325D
:102F000019F0B29480EFB822DD2339F0D13019F1F5
:102F1000112359F1002321F1B3CF112381F00111C5
:102F200006C00E9473208B290E94D816C1CF0130A1
:102F3000C1F70E9473208B290E946D20B9CF011127
:102F400006C00E9470208B2D0E94DF16B1CF013089
:102F500009F4AECFF6CF112329F0023008F0A8CF44
:102F60008B2DE2CF0111A4CFEECF002361F38D2F83
:102F70000E947A169DCF8C2F86958695837079F066
:102F80008130B9F0F8E0BF1609F49BC0BF1608F411
:102F90008FCF86EF8B0D823008F493C089CF8D2FB1
:102FA0009C2F9370111102C090E080E00E941914D0
:102FB0007FCF8D2F9C2F9370111102C090E080E085
:102FC0000E942F1475CF112309F1D53F99F0D63FF8
:102FD000B9F0D43F49F48091A5039091A603816094
:102FE0009093A6038093A5038D2F0E946E230E94C9
:102FF0005A245ECF8091A5039091A6038260F0CF02
:103000008091A5039091A6038460EACFD53F89F013
:10301000D63FA9F0D43F49F48091A5039091A6032F
:103020008E7F9093A6038093A5038D2F0E94D623B5
:10303000DECF8091A5039091A6038D7FF2CF809182
:10304000A5039091A6038B7FECCF8C2F837009F0A2
:103050004BC0111136C02D2F229526952770220FB7
:10306000220F6D2F6F70862E912CB12CA12C022E69
:1030700004C0880C991CAA1CBB1C0A94D2F760E0FF
:1030800070E0CB01D4FF0FC06FE070E080E090E013
:1030900004C0660F771F881F991F2A95D2F7609585
:1030A000709580959095C695C695C370C23071F0A5
:1030B000A0F4682979298A299B29C13091F00E94BE
:1030C000071E0E94E5130E94E506F2CE68297929C1
:1030D0008A299B290E94191EF4CF0E94071EC50150
:1030E000B4010E94F51DEDCF8695112311F08C2FB0
:1030F0008170882331F32D2F229526952770220F7A
:10310000220F6D2F6F70862E912CB12CA12C022EC8
:1031100004C0880C991CAA1CBB1C0A94D2F760E05E
:1031200070E0CB01D4FF0FC06FE070E080E090E072
:1031300004C0660F771F881F991F2A95D2F76095E4
:10314000709580959095C695C695C370C23051F024
:1031500080F4682979298A299B29C13071F00E945D
:10316000CC1EAFCF682979298A299B290E94DE1EAF
:10317000A8CF0E94CC1EC501B4010E94BA1EA1CFE7
:10318000E0E2ED0FE53108F065C0F0E0E653F74E00
:103190000C94A431DF18DF18DF18DF18DF18DF18F0
:1031A000DF18DF18DF18DF18DF18DF18DF18DF1867
:1031B000DF18DF18F018FD1804190B191519DF7046
:1031C0008C2F8F71112331F00E94551E8D2F0E947C
:1031D000D816D8CE0E94761E8D2F0E94DF16D2CE32
:1031E000112339F00111CECE8C2F8F710E94991EC0
:1031F000C9CE023008F0C6CEF7CF8C2F8F711123C5
:1032000039F00E94551EBECE8C2F8F711123C9F349
:103210000E94761EB7CE112329F08C2F8F710E9449
:10322000401EB0CE0E943B1EADCE112349F0CF719F
:103230008C2F0E94551E63E08C2F0E94DB1FA2CEB4
:1032400081E00E94E41F023008F49CCE82E00E94DC
:10325000E41F98CE112349F0002321F08D2F0E9406
:103260008D1590CE8C2F8F71CCCF002379F0D93370
:1032700049F42FEF87EE93E0215080409040E1F732
:1032800000C000008D2F0E947A167CCE8C2F8F718B
:10329000BFCF4C2F4F706D2FC7010E948C060E942C
:1032A0006B1D06CED23F71F1C8F4D03F01F1D13F82
:1032B000B9F180919002002309F446C0882341F0BF
:1032C0008091910291E0892780939102109290025F
:1032D0008D2F112389F10E948D1516C0D43FD9F08E
:1032E00078F0D53F31F711110FC081E006C01123EE
:1032F00059F08091910291E089278093910204C056
:1033000081E01827109391024C2F4F706D2FC70149
:103310000E94A80937CE1111F7CF10929102F4CF75
:10332000112339F080919002882319F310929002B2
:10333000EBCF0023F1F2E8CF0E947A1686E0F70186
:1033400011928A95E9F7E0CF8823F1F21111DCCFD1
:103350008091910291E0892780939102E7CFDF91DC
:10336000CF911F910F91FF90EF90DF90BF90AF90A2
:103370009F908F9008950F931F93CF93DF93EC014D
:10338000988189812B813C81232B39F08F3F19F45F
:1033900081E09F3F19F080E001C081E080FD17C00F
:1033A000CE010E94F706882391F0688179818A8195
:1033B0000E94991F8C010E94F01E0E94F21DB8010C
:1033C000CE01DF91CF911F910F910C94E616DF9102
:1033D000CF911F910F9108950E9459200E946A2059
:1033E0000E9401200E94F9240E945A2490E080E06B
:1033F0000E94191490E080E00C942F140E94CB1FBF
:103400000C94EC190E9448200C94FE190E948F1F06
:10341000E92FE295EF70E250EE30E0F4F0E0ED5E7F
:10342000F54E0C94A431211A211A2A1A2A1A2C1AA0
:103430002A1A2A1A2A1A211A211A311A2A1A2A1A77
:10344000311A803F19F020F4803E20F481E0089585
:10345000843FE1F380E00895803EC0F3813FD1F7DF
:10346000F5CF93FB882780F90895CF93DF9300D0A1
:1034700000D01F92CDB7DEB70F900F900F900F9036
:103480000F90DF91CF910895CF93DF9300D000D0BC
:1034900000D0CDB7DEB726960FB6F894DEBF0FBECC
:1034A000CDBFDF91CF9108951F93CF93DF93C0914C
:1034B000920216E0809193028C1304C0DF91CF91A9
:1034C0001F910895D0E01C9FF0011D9FF00D112465
:1034D000EC56FD4F408151816281738184819581D9
:1034E0000E94441A2196C770E5CF4091C4025091C2
:1034F000C5026091C6027091C7028091C802909186
:10350000C9020C94441A1F93CF93DF938091C90290
:10351000807FD1F48091C6028823B1F0809192021D
:10352000D0919302B091C402C091C5024091C702EC
:103530005091C802A1E0BF3F09F0A0E0BA01609538
:10354000709516E0D81304C0DF91CF911F910895B4
:1035500021E04115510521F02A2FCF3F09F020E04D
:1035600090E020FD38C0189FF001199FF00D112444
:10357000EC56FD4F21812C132EC020812B132BC024
:103580002281211128C0238134812417350700F1BD
:10359000241B350B283C3105F0F42091C9022F7013
:1035A00020612093C90226E0289FF001299FF00D99
:1035B0001124E756FD4F80818F708061808384ECF9
:1035C00092E00E94BB19DF91CF911F910C94541A85
:1035D000260F371FDFCF01968770B4CFAF92BF920F
:1035E000CF92DF92EF92FF920F931F93CF93DF93CF
:1035F000CDB7DEB761970FB6F894DEBF0FBECDBF73
:103600008C0185E0F801DE011D9601900D928A95EE
:10361000E1F7D8014C9111965C9111971296EC90BC
:103620003091C4026091C5028091C7029091C80296
:1036300021E0009731F06F3F19F421E03F3F09F09E
:1036400020E0B22FB170BB2E20FD80C1F801C380F5
:10365000D480A090C602AA2009F427C1C816D906B2
:10366000D0F1D601A81BB90BCD01FF24F394883CFF
:10367000910508F0F12C8091C902982F907FFF20CE
:1036800009F4CEC0911187C0FE2C651329C03413F4
:1036900027C0E11025C08F7080618093C9020E940D
:1036A000751A84EC92E00E94BB198091C902F8015E
:1036B00085838F2D61960FB6F894DEBF0FBECDBF08
:1036C000DF91CF911F910F91FF90EF90DF90CF90FE
:1036D000BF90AF900895809590958C0D9D1DC5CF9E
:1036E00081E0CD2831F05F3F19F481E04F3F09F0D0
:1036F00080E080FD24C081E08E25F82FF170DF2E60
:1037000080FF3FC0809192022091930236E08213A5
:1037100018C04D875E878D859E850E948F1F292F3B
:1037200022952F70223008F1243030F59F7009F176
:10373000D80115969C91907FE1F4FB2CBACF80E0E4
:10374000DCCF90E0389FF001399FF00D1124EC564A
:10375000FD4F6181561306C06081461303C062812C
:103760006E110FC001968770D2CF9F7011F0882321
:1037700021F3805E883008F3C8010E94BB19BD2C7C
:10378000DCCFEE2009F495CF8091C902816080934F
:10379000C902F12C8ECF651314C0341312C0E1108E
:1037A00010C0F8018583C8010E94BB1986E0F801AA
:1037B000A4ECB2E001900D928A95E1F70E94751A8F
:1037C00078CF4D875E878D859E850E94061A882357
:1037D00019F1EE2009F18091C902803270F0209138
:1037E000C4023091C50238872F831986DB86CA86CA
:1037F0008C87CE0107960E94BB1986E0F801A4ECE5
:10380000B2E001900D928A95E1F70E94831A0E941E
:10381000751AFF24F3944DCFC8010E94BB19F9CF4C
:10382000911113C07C2DD98AC88A6E2D89890E9476
:10383000351A84EC92E00E94BB1986E0E4ECF2E0D9
:10384000DF011D928A95E9F7B9CF651312C03413D1
:1038500010C0E1100EC0F8018583C8010E94BB1999
:10386000E4ECF2E086E0DF011D928A95E9F7FA2C9C
:1038700020CF4D875E878D859E850E94061A8823FE
:1038800059F2EE2049F28091C902803208F4B5CF96
:103890002091C4023091C5023A8329831B82DD82C4
:1038A000CC828E83CE010196A6CFC816D90638F1F8
:1038B000F601E81BF90BCF01F12C883C910508F0CB
:1038C0003DC0FE2CEE2009F4A7CF651326C03413AB
:1038D00024C08091C90280FD17C0982F907FA1F06D
:1038E000D80115968C931597903F09F45CCF982FCB
:1038F000907F905F8F70892B15968C9354CF809515
:1039000090958C0D9D1DD8CF86E0F801A4ECB2E017
:1039100001900D928A95E1F7CCCE4D875E878D851B
:103920009E850E94061A811168CF8091C90281602C
:103930008093C902C8010E94BB19BBCE7C2DD98AD5
:10394000C88A6E2D89890E94351A77CFEE2009F436
:1039500063CF4D875E878D859E850E94061AF82E5F
:10396000882309F459CF86E0F801A4ECB2E0019075
:103970000D928A95E1F784EC92E00E947B150E94FB
:10398000831A1CCF1F93CF93DF93CDB7DEB72C974D
:103990000FB6F894DEBF0FBECDBF4F83588769873F
:1039A0007A878B879C87CE0107960E94EE1A882320
:1039B00009F442C09F8188852A853B85232B39F0F5
:1039C0008F3F19F481E09F3F19F080E001C081E052
:1039D00080FD08C04F81588569857A858B859C85D7
:1039E0000E94441A16E080919202909193028917E6
:1039F00009F467C0819FC00111248C569D4F0E941D
:103A0000EE1A882309F45DC0E09192021E9FF00136
:103A10001124EC56FD4F4081518162817381848174
:103A200095810E94441A8091920290E001968770DD
:103A3000992780939202D7CF86E0FE013796DE0168
:103A4000119601900D928A95E1F79F8188852A85CC
:103A50003B85232B39F08F3F19F481E09F3F19F00C
:103A600080E001C081E080FDBDCF2091930230E075
:103A7000C90101968770992740919202481719064B
:103A800099F096E0929FD001939FB00D1124AC560F
:103A9000BD4FFE01319601900D929A95E1F780930A
:103AA00093020E94541A9ECF0E94021A109293020F
:103AB0001092920286E0E4ECF2E0DF011D928A951A
:103AC000E9F72C960FB6F894DEBF0FBECDBFDF919D
:103AD000CF911F910895EF92FF920F931F93CF9371
:103AE000DF938C01892B81F0F12CEE24E394E80123
:103AF0002196F8018491843770F4843008F05FC017
:103B00008130B1F08230A1F1DF91CF911F910F91FF
:103B1000FF90EF900895853709F44CC008F43DC03C
:103B20009CE7980F903780F78F770E947A1649C0EC
:103B30000E5F1F4FFE01849190E2980F983060F461
:103B40008770FE2D01C0FF0F8A95EAF78F2F0E9424
:103B50005C200E94012002C00E948D158F2D815093
:103B600030F2EFE9FFE03197F1F700C00000F7CF46
:103B70000E5F1F4FFE01849190E2980F983050F431
:103B80008770FE2D01C0FF0F8A95EAF78F2F0E94E4
:103B90006220DFCF0E947A16E1CF0E5F1F4FFE0139
:103BA000C491C150D8F28FE99FE00197F1F700C0AE
:103BB0000000F7CF0E5F1F4FFE01F490CFCF0E94A1
:103BC0008D158E01CBCF08950C94E31D0E94E41D4A
:103BD0006093050370930603809307039093080393
:103BE0000C94EC1908950C94E61D0F931F9300910B
:103BF0000503109106032091070330910803602B01
:103C0000712B822B932B1F910F910C94E61D0F9318
:103C10001F93009105031091060320910703309133
:103C2000080360237123822393231F910F910C9427
:103C3000E61D0F931F930091050310910603209139
:103C400007033091080360277127822793271F916C
:103C50000F910C94E61D0C94E31D0C942B1E0E94F6
:103C60002D1E6093010370930203809303039093CE
:103C700004030C94EC1960E070E0CB010C942F1E4F
:103C80000F931F9341E050E060E070E08A019B01D8
:103C900004C0000F111F221F331F8A95D2F7C901DC
:103CA000B8011F910F910C942F1E0F931F9341E0A9
:103CB00050E060E070E004C0440F551F661F771F9E
:103CC0008A95D2F78091010390910203A09103039A
:103CD000B09104038A019B01082B192B2A2B3B2B43
:103CE000C901B8011F910F910C942F1E0F931F93C0
:103CF00041E050E060E070E004C0440F551F661FD3
:103D0000771F8A95D2F7CB01BA016095709580959F
:103D100090950091010310910203209103033091CB
:103D2000040360237123822393231F910F910C942A
:103D30002F1E0F931F9341E050E060E070E004C03D
:103D4000440F551F661F771F8A95D2F78091010394
:103D500090910203A0910303B09104038A019B0197
:103D6000082719272A273B27C901B8011F910F915E
:103D70000C942F1E0F931F930091010310910203C7
:103D80002091030330910403602B712B822B932B22
:103D90001F910F910C942F1E0F931F9300910103FD
:103DA00010910203209103033091040360237123D7
:103DB000822393231F910F910C942F1E0F931F9317
:103DC0000091010310910203209103033091040339
:103DD00060277127822793271F910F910C942F1E24
:103DE0000895292F220F920F990F890F982F9770FE
:103DF00071E001C0770F9A95EAF7869586958695CA
:103E000025E0829FC001112450E040E0A62FB0E0E1
:103E1000FC01E40FF51FE653FD4F60819D01042E68
:103E200002C0369527950A94E2F72170219526273E
:103E30002723262720834F5F5F4F4530510541F7E9
:103E40000895292F220F290F220F820F982F977084
:103E500086958695869545E0849F9001112470E0B3
:103E600060E080E0F901E60FF71FE653FD4F408167
:103E700050E0092E02C0569547950A94E2F741702A
:103E80005527062E01C0440F0A94EAF7842B6F5F72
:103E90007F4F6530710531F70895BF92CF92DF9261
:103EA000EF92FF920F931F93CF93DF938C01C090FB
:103EB0000103D0900203E0900303F090040380918B
:103EC000050390910603A0910703B0910803C82A47
:103ED000D92AEA2AFB2ACFE1D0E0BC2ED701C601BD
:103EE0000C2E04C0B695A795979587950A94D2F79E
:103EF00080FD0EC0219788F7B12C8B2DDF91CF91DB
:103F00001F910F91FF90EF90DF90CF90BF90089599
:103F1000B8018C2F0E94C509019761F3EECFCF93B2
:103F2000DF93EC010E944D1FBE01DF91CF910C94F5
:103F3000C5091F93CF93DF93EB0190918F029923D3
:103F400031F0CB01DF91CF911F910C948F1F88230B
:103F500079F0CB010E944D1F182F682FCE010E94CF
:103F6000F11EBE01812FDF91CF911F910C94C509E5
:103F7000CB010E94211F182FF4CF682F80910F01D1
:103F8000909110010C949721682F80910F019091CE
:103F900010010C94A22180910F01909110010C94BA
:103FA000AD2180910903859585958595089580912A
:103FB00009038770089598E0899F90011124622B6E
:103FC000609309030C94551E9091090380958923F1
:103FD00080930903282F277061F4282F082E000CE6
:103FE000330B9217130629F08595859585950C94CA
:103FF000761E089590910903977081E009F480E09E
:104000000895E0910F01F091100180912D038083BC
:10401000E0910F01F0911001808190912C03892B88
:104020008083E0910F01F0911001808190912B032A
:10403000892B808390910A03992381F0E0910F01ED
:10404000F09110018081892B808380910F019091E4
:1040500010010E943321811110920A0380910F01F7
:10406000909110010C94F11380912D03089590917B
:104070002D03892B80932D030895982F909580917F
:104080002D03892380932D03089580932D03089594
:1040900010922D03089590912C03892B80932C036B
:1040A0000895982F909580912C03892380932C0359
:1040B000089510922C03089590912B03892B8093DF
:1040C0002B030895982F909580912B03892380933B
:1040D0002B03089510922B03089580930A030895EB
:1040E00010920A03089580910A030895CF92DF92F7
:1040F000EF92FF926C01EE24FF2420E0C114D10462
:10410000E104F10419F0C701B60120E1C72ED82E51
:10411000E92EFF24C114D104E104F10419F0285F51
:10412000C701B6016B017C0154E0F694E794D79483
:10413000C7945A95D1F7C114D104E104F10419F0E0
:104140002C5FC701B6016B017C0142E0F694E79455
:10415000D794C7944A95D1F7C114D104E104F1046E
:1041600019F02E5FC701B6019695879577956795EB
:10417000672B682B692B09F02F5F822FFF90EF9040
:10418000DF90CF90089590E080E00E94C53121E05B
:104190008D3E9E4F09F020E0822F089582E090E04E
:1041A0000C94B73183E090E00C94B73184E090E058
:1041B0000C94B731682F84E090E00C94CB31AB01C4
:1041C000BC018FE090E00C94DD31AB01BC0183E1D8
:1041D00090E00C94DD3160E070E0CB010C94E520C0
:1041E00060E070E0CB010E94DF200C94EB206DEECC
:1041F0007EEF90E080E00E94E93160E082E090E0B4
:104200000E94CB3160E083E090E00E94CB311092BD
:10421000050310920603109207031092080360E052
:1042200084E090E00E94CB3160E085E090E00E9465
:10423000CB3160E086E090E00E94CB316FEF87E009
:1042400090E00E94CB3140E050E0BA0188E090E07D
:104250000E94DD3160E08DE090E00E94CB310C9453
:10426000F0200C94F720FC013296809120018823E5
:1042700021F08091AB039EE187FF96E080E09150B2
:1042800008F4089521912223D1F38F5FF8CF9C0188
:10429000FC0132969FEF80E04191461751F09F3F1D
:1042A00019F4411101C0982F8F5F8630A9F79F3F05
:1042B00009F40895290F311D97FD3A95F90162839C
:1042C0000895FC01329608962191261303C0DF0160
:1042D00011971C92E817F907B9F70895E62FE695AC
:1042E000E695E695EE3168F4E80FF92FF11D677059
:1042F00021E030E001C0220F6A95EAF78281822B2B
:1043000082830895E62FE695E695E695EE3170F402
:10431000E80FF92FF11D677021E030E001C0220F96
:104320006A95EAF7209582812823228308952091B7
:104330002001222329F02091AB0327FD0C946E214C
:104340000C94472120912001222329F02091AB03D6
:1043500027FD0C9482210C946121FC0132968091FE
:104360002001882351F08091AB0387FF06C08EE1C6
:10437000DF011D928A95E9F7089586E0F9CF089547
:104380000C94BF210E94C0218091B103843049F177
:1043900010922F0388E190E020E40FB6F894A895DE
:1043A000809360000FBE2093600080E00E94E506CD
:1043B0000E94C02183B7817F846083BF83B78160FF
:1043C00083BF7894889583B78E7F83BF0FB6F894A8
:1043D000A8958091600088618093600010926000D1
:1043E0000FBE08950895CF930E94CD030E947904D3
:1043F0000E94F221C0E08C2F0E94B804811105C0F8
:10440000CF5FCE30C1F7CF91089581E0FCCF089502
:104410000C9407220E94021A0E94E5130E94E506EE
:104420000C9408221F920F920FB60F9211248F93B3
:104430009F93AF93BF9380912F03811113C08091FD
:10444000A7039091A803A091A903B091AA03419654
:10445000A11DB11D8093A7039093A803A093A90366
:10446000B093AA03BF91AF919F918F910F900FBE10
:104470000F901F90189582E084BD93E095BD9AEF50
:1044800097BD80936E0008952FB7F8948091A7038D
:104490009091A803A091A903B091AA032FBF0895FA
:1044A000CF92DF92EF92FF920F931F932FB7F89462
:1044B0004091A7035091A8036091A9037091AA03AA
:1044C0002FBF6A017B01EE24FF248C0130E020E045
:1044D000C016D106E206F30650F0481B590BCA017C
:1044E0001F910F91FF90EF90DF90CF900895415072
:1044F0005109F3CF78941F920F920FB60F921124A7
:104500008F939F93AF93BF938091A7039091A8033C
:10451000A091A903B091AA030196A11DB11D80939A
:10452000A7039093A803A093A903B093AA03BF91F4
:10453000AF919F918F910F900FBE0F901F90189584
:10454000F89481E08093E00080E28093D800E9EC69
:10455000F0E010828FE19EE40197F1F700C00000C7
:104560001DBA109268001CBC10BE1FBA10927A00CF
:1045700010926E0010926F001092710010927200F3
:104580001082ECEBF0E0108214B817B81AB81DB81E
:1045900010BA108215B818B81BB81EB811BA0C940E
:1045A000003F08950E94C320811102C00E94312162
:1045B0000E94CE2080932E030E94D62090E09093FC
:1045C000AC038093AB030E94D220682F70E090E090
:1045D00080E00C94F31D8091330380FF12C0609142
:1045E000140185E0689FB001112475956795759554
:1045F000679560387105A8F561157105A1F1862FE1
:10460000089581FF09C06091140185E0689FB001A1
:10461000112475956795EDCF82FF07C06091140155
:1046200085E0689FB0011124E4CF20913403222358
:10463000A9F0909113016091140185E0689FB00189
:1046400011242917B0F6269FA001279F500D112491
:10465000692F70E0CA010E949031CBCF65E070E015
:10466000CECF8FE7089581E008958091330380FFD6
:104670000CC06091120170E075956795759567950E
:104680006115710549F1862F089581FF06C060917B
:10469000120170E075956795F3CF6091120182FD6C
:1046A0000BC0909134039923A1F060911101809186
:1046B0001201961738F0682F70E06038710500F32A
:1046C0008FE70895899FC001112470E00E94903106
:1046D000F4CF61E070E0D7CF81E00895803F31F4FE
:1046E0000E94EB228195809338030895813F19F44D
:1046F0000E94EB22F8CF823F31F40E94EB22819599
:10470000809337030895833F19F40E94EB22F8CF7A
:10471000893F29F40E9435238093390308958A3F05
:1047200021F40E9435238195F7CF8B3F31F40E940D
:104730003523819580933A0308958C3F19F40E94A4
:104740003523F8CF843F31F4809136038160809324
:1047500036030895853F21F4809136038260F7CFB8
:10476000863F21F4809136038460F1CF873F21F4A6
:10477000809136038860EBCF883F21F48091360327
:104780008061E5CF8D3F31F4809133038160809368
:10479000330308958E3F21F4809133038260F7CF75
:1047A0008F3FB9F7809133038460F1CF803FC1F42C
:1047B0008091380387FD109238038091370381116F
:1047C0000EC08091380381110AC080913903811194
:1047D00006C080913A03811102C0109234030895FB
:1047E000813F29F48091380318162CF3E6CF90917D
:1047F0003703823F29F497FFE0CF10923703DDCFD4
:10480000833F19F41916CCF3D8CF893F39F480913E
:104810003903181694F610923903CFCF8A3F29F442
:104820008091390387FFC9CFF6CF8B3F39F4809150
:104830003A0387FFC2CF10923A03BFCF8C3F29F4CF
:1048400080913A031816BCF3B8CF843F31F48091BD
:1048500036038E7F80933603B0CF853F21F480915D
:1048600036038D7FF7CF863F21F4809136038B7F0F
:10487000F1CF873F21F480913603877FEBCF883FCC
:1048800021F4809136038F7EE5CF8D3F31F4809106
:1048900033038E7F8093330390CF8E3F21F480913A
:1048A00033038D7FF7CF8F3F09F087CF809133039C
:1048B0008B7FF0CF85E393E00E940B140E9444228B
:1048C000909331038093300308951F93CF93DF9328
:1048D00080913003909131030E945022AC0190915D
:1048E00034032091150130E0911106C0209132036C
:1048F0008AE0289F900111244217530780F080918D
:104900003703D091380310913903C0913A038111D4
:104910000AC0D1116AC0111168C0C11166C0DF910F
:10492000CF911F9108959F3F19F09F5F909334039B
:10493000181624F40E94EB228093370380913703EA
:1049400087FF05C00E94EB228195809337031D16D7
:1049500024F40E94EB22809338038091380387FF70
:1049600005C00E94EB228195809338033091370374
:104970003323C1F0209138032223A1F045EB340307
:10498000C0011124892F911101C081E08093370368
:1049900045EB240390011124832F311101C081E0E4
:1049A00080933803111624F40E9435238093390331
:1049B0008091390387FF05C00E943523819580933C
:1049C00039031C1624F40E94352380933A03809106
:1049D0003A0387FF05C00E943523819580933A03EF
:1049E000DF91CF911F910C945A249F3F09F09DCFE6
:1049F000AECF86E0E5E3F3E0DF011D928A95E9F7AB
:104A000010923403109233030895833081F128F417
:104A1000813059F08230D1F00895853009F449C0D1
:104A2000B8F1863009F456C0089580913203482FBA
:104A3000460F5527551F4F3F510524F4680F6093CB
:104A4000320308958FEF809332030895809115010A
:104A5000482F460F5527551F4F3F510524F4680F27
:104A60006093150108958FEF80931501089580914B
:104A70001401482F460F5527551F4F3F510524F469
:104A8000680F6093140108958FEF809314010895C7
:104A900080911301482F460F5527551F4F3F510551
:104AA00024F4680F6093130108958FEF809313012E
:104AB000089580911201482F460F5527551F4F3FEB
:104AC000510524F4680F6093120108958FEF8093CD
:104AD0001201089580911101482F460F5527551F47
:104AE0004F3F510524F4680F6093110108958FEF33
:104AF000809311010895833011F128F4813049F039
:104B0000823091F00895853081F120F18630C1F135
:104B1000089580913203681720F4861B8093320336
:104B2000089510923203089580911501681720F4BA
:104B3000861B8093150108951092150108958091A8
:104B40001401681720F4861B8093140108951092B5
:104B50001401089580911301681720F4861B809337
:104B6000130108951092130108958091120168179E
:104B700020F4861B8093120108951092120108956B
:104B800080911101681720F4861B8093110108950C
:104B90001092110108950F931F9341E050E060E0DF
:104BA00070E08A019B0104C0000F111F221F331FF8
:104BB0008A95D2F7C901B8010E94F31D1F910F9188
:104BC0000C94021A873208F043C08E3108F08BC073
:104BD000803109F47DC0C8F4873009F46AC028F434
:104BE000863009F45CC080E008958B3009F455C02C
:104BF0008E30C9F790912E03892F8B7F92FF8460AE
:104C000080932E0382FD20C048C0863109F445C040
:104C100068F4813141F70E94021A9091AB03892F09
:104C200097FB87F980588093AB0337C08931A9F18E
:104C30008B31C9F690912E03892F8D7F91FF826071
:104C400080932E0381FF29C080912E0381603DC097
:104C5000883319F150F4893221F0853311F087320D
:104C600011F680E00E94CB2518C08334D1F328F4DC
:104C70008A3308F4B8CF8953F5CF883409F0B3CF1D
:104C80000E94021A2FEF83ED90E321508040904064
:104C9000E1F700C000000E94A02281E00895809109
:104CA0002E03817F8E7F80932E0381E080933C03CF
:104CB000089590912E03892F8E7F90FF81608093BD
:104CC0002E0380FDEACF897F877F80932E03E5CF77
:104CD00090912E03892F877F93FF886080932E0306
:104CE00083FDB2CFDACF8D51BDCF80E008950C9413
:104CF00075268E518A3030F4E82FF0E0E753FE4FEE
:104D00008081089580E00895CF93C82F80913C035F
:104D10008130E1F038F0823009F43FC010923C035A
:104D200080E012C0E0910F01F0911001808181318B
:104D300011F08232A9F78C2F0E94752681111DC0B7
:104D40008C2F0E94E2258170CF910895E0910F0190
:104D5000F09110018081813171F3823261F38C2FE7
:104D60000E947726811110C0C43181F048F4CB3005
:104D700059F0C03171F080E0E6CF81E090E0E3CF00
:104D8000C93221F0C833B9F781E0DDCF10923C037E
:104D9000F2CF82E080933C03F7CFC93219F188F457
:104DA000C43101F120F4C73081F181E0CDCF82EE32
:104DB0008C0F8630D0F78C2F0E94792680933B038E
:104DC000F4CFCE3401F140F46AE0CB3471F7809136
:104DD0003B030E940525E9CFC13579F061E0C2357A
:104DE000B1F3E3CF80913B03882319F010923B038A
:104DF000DCCF81E080933C03A7CF61E080913B034F
:104E00000E947B25D2CF6AE0F9CF1092320384E171
:104E100080931501C09314018CE38093130188E003
:104E20008093120188E280931101BFCF80915D03CE
:104E300008950F931F93CF93DF9300D01F92CDB7A8
:104E4000DEB78C010E948429823011F0843021F574
:104E500084E089831B830A8382E08093E9008FEFDB
:104E60009091E800815095FD06C095ED9A95F1F777
:104E700000008111F5CF8091E80085FF0DC050E062
:104E800040E063E070E0CE0101960E94A12980918C
:104E9000E8008E778093E8000F900F900F90DF91DD
:104EA000CF911F910F910895CF93DF9300D01F9260
:104EB000CDB7DEB72091B103243031F523E029834B
:104EC000805891099B838A8382E08093E9008FEF69
:104ED0009091E800815095FD06C095ED9A95F1F707
:104EE00000008111F5CF8091E80085FF0DC050E0F2
:104EF00040E063E070E0CE0101960E94A12980911C
:104F0000E8008E778093E8000F900F900F90DF916C
:104F1000CF910895CF93DF93EC010E9484298230D2
:104F200011F08430F9F482E08093E9008FEF9091E2
:104F3000E800815095FD06C095ED9A95F1F70000C7
:104F40008111F5CF8091E80085FF0CC050E040E072
:104F500066E070E0CE010E94A1298091E8008E7782
:104F60008093E800DF91CF910895CF93DF93EC0118
:104F70000E948429823011F08430B9F5809120019B
:104F80008823B1F18091AB0387FF32C060E282E0F9
:104F90008093E9008FEF9091E800815095FD06C065
:104FA00095ED9A95F1F700008111F5CF8091E80019
:104FB00085FF1BC08091200170E050E040E081112E
:104FC00004C050E040E068E070E0CE010E94A129FA
:104FD0008091E8008E778093E80080E2FE01ADE3E7
:104FE000B3E001900D928A95E1F7DF91CF9108959A
:104FF00068E081E0CDCF8091B003811109C00E94AB
:10500000312B0E948E2B8091E20084608093E2001D
:1050100008951092B0030895089508950C940A22FB
:1050200042E061EC81E00E94AF2A42E261EC82E062
:105030000C94AF2A8091B303833009F467C038F42D
:10504000813009F43FC0823009F4A2C008958A304B
:1050500009F48EC08B3009F474C0893009F055C052
:105060008091B203813209F050C08091B6039091D3
:10507000B703029708F049C08091E800877F8093CA
:10508000E8008091E80082FF3CC08091F30090919D
:10509000F200892798278927029749F480912001F7
:1050A000882329F08091F1008B7F813021F4809159
:1050B000F10080935D038091E8008B778093E80096
:1050C0000C94E32A8091B203813AF9F48091E800CC
:1050D000877F8093E8008091B6039091B703892B76
:1050E00061F460E28DE393E070E00E94F02980912A
:1050F000E8008B778093E800089560E090E080E01E
:10510000F3CF8091B1038111BCCF08958091B20398
:10511000813AD9F78091B6039091B703892BA9F70B
:105120008091E800877F8093E8008091E80080FF0D
:10513000FCCF809120018093F1008091E8008E7770
:10514000BDCF8091B203813201F78091B603909177
:10515000B703892BD1F68091E800877F8093E80020
:105160000E94E32A8091B403809320010C94021AD8
:105170008091B203813249F68091E800877F809365
:10518000E8000E94E32A8091B50380935E030895AE
:105190008091B203813A09F0B8CF8091E800877F0F
:1051A0008093E8008091E80080FFFCCF80915E034F
:1051B000C2CF84B7877F84BF0FB6F894A89580913B
:1051C0006000886180936000109260000FBE80E8EC
:1051D00080936100109261000E944D140E94312B57
:1051E0000E948E2B8091E20084608093E20078948C
:1051F0000E94172E0E94531486E191E00E94E01352
:105200008091B103853029F00E945B140E94DB126B
:10521000F7CF0E94C2218091AF03882389F30E94B7
:10522000F321882369F30E948B29EACF0C94182973
:10523000292F33272330310571F158F421303105FE
:10524000E9F02230310511F190E080E030E020E01B
:1052500019C021323105C1F122323105A9F780E4AC
:1052600090E029EF35E06115710561F080EC90E088
:1052700029E335E06130710529F0E6CF82E190E065
:1052800027E235E0FA013183208308958BE390E033
:105290002CEE34E0F7CF99278130910579F040F07A
:1052A0008230910571F0039779F6E2EBF4E002C0E9
:1052B000E8EEF4E0849190E09F01E4CFE0EDF4E0CB
:1052C000F9CFE8EBF4E0F6CF89E090E02EEF34E0A0
:1052D00061157105B9F289E090E027E135E06130B0
:1052E000710581F2B1CF0895CF93C82F0E94732921
:1052F000C0935F03CF9108958091B103843011F082
:1053000081E0089582E0089580915F03811102C0D9
:105310000C947C29089580E189BD82E189BD09B49E
:1053200000FEFDCF8091D8008F7D8093D8008091C2
:10533000E00082608093E0008091E00081FDFCCF7E
:105340000895AF92BF92CF92DF92FF920F931F9377
:10535000CF93DF936C01EB018A010E94022BF82EA0
:10536000811123C00115110539F0F8018081918167
:10537000C81BD90BC80ED91EB12CA12C2097A9F09F
:105380008091E80085FD22C08091E8008E778093AF
:10539000E80001151105A1F0F80180819181A80EA6
:1053A000B91EB182A08285E0F82E8F2DDF91CF91BA
:1053B0001F910F91FF90DF90CF90BF90AF90089515
:1053C0000E94022B8823D1F2F82EEFCFF6018191B3
:1053D0006F018093F1002197FFEFAF1ABF0ACECF84
:1053E000FC018091B8039091B90386179707A0F04C
:1053F0006115710529F49091E8009E779093E8007B
:1054000090E06115710551F4911108C08091E80098
:1054100082FF35C080E00895BC01F2CF8091B103D6
:105420008823C9F18530C9F18091E80083FD31C03E
:105430008091E80082FDEACF8091E80080FFE1CF13
:105440002091F3008091F200322F282F6115710511
:1054500019F02830310558F091E02830310509F075
:1054600090E02091E8002E772093E800CACF819148
:105470008093F100615071092F5F3F4FE7CF80911A
:10548000B103882341F0853041F08091E80083FF2B
:10549000BDCF81E0089582E0089583E00895FC0186
:1054A0008091B8039091B90386179707A0F0611512
:1054B000710529F48091E8008E778093E80090E0F0
:1054C0006115710551F4911108C08091E80082FFC7
:1054D00036C080E00895BC01F2CF8091B1038823EB
:1054E000D1F18530D1F18091E80083FD32C0809107
:1054F000E80082FDEACF8091E80080FFE1CF2091B3
:10550000F3008091F200322F282F6115710519F0F8
:105510002830310558F091E02830310509F090E04D
:105520008091E8008E778093E800CACF84918093C1
:10553000F1003196615071092F5F3F4FE6CF8091A6
:10554000B103882341F0853041F08091E80083FF6A
:10555000BCCF81E0089582E0089583E00895982FFC
:10556000973028F08F708093E90081E00895909340
:10557000E900242F762F50E0981731F07091EC005D
:105580002091ED005091F00021FD02C09F5FE8CF17
:105590003091EB003E7F3093EB003091ED003D7F8A
:1055A0003093ED003091EB0031603093EB0070935D
:1055B000EC002093ED005093F0002091EE0027FDC9
:1055C000E5CF80E008958091B20387FF13C08091FA
:1055D000E80082FF06C08091E8008B778093E800A6
:1055E00004C08091B1038111F2CF08958091B1037D
:1055F0008823D9F38091E80080FFF8CF8091E800FC
:105600008E77ECCF2091E4003091E50085E6909113
:10561000EC0090FF06C09091E80090FF06C080E08B
:1056200008959091E80092FDFACF9091B1039923EB
:1056300091F0953091F09091EB0095FD10C0409164
:10564000E4005091E5002417350709F381509A01D1
:10565000F1F684E0089582E0089583E0089581E002
:1056600008950E949F2B0E94A72BE0EEF0E080811E
:1056700081608083E8EDF0E080818F77808319BCC2
:10568000A7EDB0E08C918E7F8C9380818F7E80839C
:105690001092B00308950F931F93CF93DF930E944E
:1056A0009F2B0E94A72BC8EDD0E088818F7788833D
:1056B00088818068888388818F7D888319BC109257
:1056C000B1031092AD031092AF031092AE0300EE3F
:1056D00010E0F80180818B7F8083888181608883DE
:1056E00042E060E080E00E94AF2AE1EEF0E08081DD
:1056F0008E7F8083E2EEF0E0808181608083808114
:1057000088608083F80180818E7F808388818061BA
:105710008883DF91CF911F910F910895E8EDF0E01C
:1057200080818F7E8083E7EDF0E0808181608083DF
:1057300084E082BF81E08093B0030C944B2BE8EDB2
:10574000F0E080818E7F80831092E20008951092B5
:10575000DA001092E10008951F920F920FB60F9297
:1057600011242F933F934F935F936F937F938F9366
:105770009F93AF93BF93EF93FF938091E10082FFDC
:105780000BC08091E20082FF07C08091E1008B7F17
:105790008093E1000E94162E8091DA0080FF19C0EC
:1057A0008091D80080FF15C08091DA008E7F8093B1
:1057B000DA008091D90080FF94C080E189BD82E148
:1057C00089BD09B400FEFDCF81E08093B1030E9442
:1057D000FB278091E10080FF19C08091E20080FFEB
:1057E00015C08091E2008E7F8093E2008091E200FC
:1057F00080618093E2008091D80080628093D8001D
:1058000019BC85E08093B1030E940D288091E100CE
:1058100084FF29C08091E20084FF25C080E189BD1A
:1058200082E189BD09B400FEFDCF8091D8008F7D53
:105830008093D8008091E1008F7E8093E100809179
:10584000E2008F7E8093E2008091E200816080938D
:10585000E2008091AD03882309F449C084E080937D
:10586000B1030E940E288091E10083FF29C080913E
:10587000E20083FF25C08091E100877F8093E100F3
:1058800082E08093B1031092AD038091E1008E7F9E
:105890008093E1008091E2008E7F8093E20080910E
:1058A000E20080618093E20042E060E080E00E94DC
:1058B000AF2A8091F00088608093F0000E940C284D
:1058C000FF91EF91BF91AF919F918F917F916F91D8
:1058D0005F914F913F912F910F900FBE0F901F90AE
:1058E000189519BC1092B1030E94092872CF8091BB
:1058F000E30087FD02C081E0B2CF83E0B0CF1F920A
:105900000F920FB60F9211242F933F934F935F93F3
:105910006F937F938F939F93AF93BF93CF93EF93A7
:10592000FF93C091E900CF708091EC001092E900E4
:105930008091F000877F8093F00078940E94BB2CC8
:105940001092E9008091F00088608093F000C0938D
:10595000E900FF91EF91CF91BF91AF919F918F910E
:105960007F916F915F914F913F912F910F900FBE5B
:105970000F901F9018951F93CF93DF93CDB7DEB78D
:10598000AA970FB6F894DEBF0FBECDBFE2EBF3E0EF
:105990008091F100819323E0EA3BF207C9F70E946E
:1059A0001A288091E80083FF44C08091B20390914F
:1059B000B3039A3008F03DC0E92FF0E0EE51F34D0B
:1059C0000C94A431EC2C122D192D122D192D702DA3
:1059D000922D192DE92DF62D803889F0823849F560
:1059E0008091B6038F70873020F58093E900809115
:1059F000EB0085FB882780F91092E90006C08091B2
:105A0000AE039091AF03911182609091E800977F6F
:105A10009093E8008093F1001092F1008091E800EB
:105A20008E772DC0282F2D7F21F48823D1F082304E
:105A300059F18091E80083FF0AC08091E800877FD8
:105A40008093E8008091EB0080628093EB00AA963F
:105A50000FB6F894DEBF0FBECDBFDF91CF911F917F
:105A600008958091B403813021F7933009F080E0EC
:105A70008093AF031092E9008091E800877F8093C4
:105A8000E8000E94E32AD5CF8091B4038111F2CFC0
:105A90008091B6038F702FEF280F263050F6809339
:105AA000E9002091EB0020FFE5CF933031F48091A5
:105AB000EB0080628093EB00DDCF9091EB00906172
:105AC0009093EB0021E030E001C0220F8A95EAF7C5
:105AD0002093EA001092EA008091EB008860EACF00
