:100000000C9484030C94A1030C94A1030C94A103FD
:100010000C94A1030C94A1030C94A1030C94A103D0
:100020000C94A1030C94A1030C944F2F0C94223038
:100030000C94B4250C94A1030C94A1030C94A1037B
:100040000C94A1030C94A1030C94A1030C94A103A0
:100050000C94A1030C94FF250C94A1030C94A10310
:100060000C94A1030C94A1030C94A1030C94A10380
:100070000C94A1030C94A1030C94A1030C94A10370
:100080000C94A1030C94A1030C94A1030C94A10360
:100090000C94A1030C94A1030C94A1030C94A10350
:1000A0000C94A1030C94A1030C94A1030000F0A1F3
:1000B00029002B00E000E100E20000001E00140017
:1000C00004001D00000000001F001A0016001B00A5
:1000D0000000E30020000800070006000000E50023
:1000E000210015000900190002510000220017002C
:1000F0000A0005000000000000002C0400001E01A2
:1001000000000000660C035400001F010000000006
:1001100023001C000B001100000000002400180048
:100120000D0010000151000025000C000E003600EB
:1001300000002C00260012000F0037000000E7002E
:1001400027001300330038000000000000002A00E0
:100150002800E500E6000000003001000100010079
:100160000100000000001E002B0000000000010044
:1001700000001F003500000000000100000020000A
:1001800031002900000001000000210034000000BF
:1001900000000100000022002A0000000000010011
:1001A000000010140000000000000100000000002A
:1001B000000000000000010000002300000000001B
:1001C00000000100000024002D00000001000100DB
:1001D000000025002E0001000100010000002600A3
:1001E0002F00010001000100000027003000010085
:1001F00001000100010001000100010001000000F8
:100200000000000000000000005C00003A00AA00AE
:1002100000000000000001003B00A90000000000F9
:10022000000001003C00A8000000000000000100E8
:100230003D00000000000000000001003E00000042
:1002400000000000000001000000000000000000AD
:10025000000001000000000000000000000001009C
:100260003F000000F2000000000001004000F40028
:10027000F1000000000001004100F500F000000066
:100280000000010042000000F30000000000010037
:100290004300440045000000000001000000000091
:1002A000000000000000000000000000000000004E
:1002B000000000000000000000000000000000003E
:1002C0000000000016140000000000000000000004
:1002D00000000614000005000000000000000000FF
:1002E00000000000000017140A14000000000000C5
:1002F00000000000000000000000000000000051AD
:1003000000000000000000000000000000000000ED
:1003100000000000000000000000000000000000DD
:1003200000000C14000000000000000000000000AD
:100330000F1400000000000000000000000000009A
:1003400000000000000000000000000000000000AD
:1003500032190A00047F3F1F643214643214783C5F
:100360001E1E140A052223252628292A2C2D2F306B
:1003700032333536383A3B3D3E4042434547494AA1
:100380004C4E5051535557595A5C5E6062646668D2
:10039000696B6D6F71737577797B7D7F81838587DD
:1003A000898A8C8E90929496989A9C9E9FA1A3A5E0
:1003B000A7A8AAACAEAFB1B3B4B6B8B9BBBCBEBF08
:1003C000C1C2C3C5C6C7C9CACBCCCDCED0D1D2D28B
:1003D000D3D4D5D6D7D7D8D9D9DADADBDBDBDCDC96
:1003E000DCDCDCDDDDDDDDDCDCDCDCDCDBDBDBDA4E
:1003F000DAD9D9D8D7D7D6D5D4D3D2D2D1D0CECDB9
:10040000CCCBCAC9C7C6C5C3C2C1BFBEBCBBB9B8C5
:10041000B6B4B3B1AFAEACAAA8A7A5A3A19F9E9C4A
:100420009A98969492908E8C8A89878583817F7D15
:100430007B79777573716F6D6B6968666462605EF6
:100440005C5A5957555351504E4C4A4947454342BF
:10045000403E3D3B3A3836353332302F2D2C2A2959
:100460002826252322FFAA7F554000010101010112
:10047000010101010202020202020202020303035D
:10048000030303030304040404040404050505052D
:1004900005060606060607070707070808080809ED
:1004A0000909090A0A0A0B0B0B0C0C0C0D0D0D0E99
:1004B0000E0E0F0F0F10101111111212131314142E
:1004C000151516161717181819191A1A1B1B1C1DA3
:1004D0001D1E1E1F202021222223242425262627FC
:1004E0002829292A2B2C2D2D2E2F3031323233342E
:1004F00035363738393A3B3C3D3E3F404142434434
:1005000045464748494A4C4D4E4F50515354555615
:1005100058595A5B5D5E5F616264656668696B6CC1
:100520006D6F7072737577787A7B7D7E808283853C
:1005300087888A8C8E8F91939596989A9C9EA0A27C
:10054000A3A5A7A9ABADAFB1B3B5B7BABCBEC0C286
:10055000C4C6C9CBCDCFD1D4D6D8DBDDDFE2E4E74A
:10056000E9EBEEF0F3F5F8FAFDFF040330000000CC
:1005700016034500720067006F0044006F007800AA
:10058000200045005A00000030035A00530041008B
:10059000200054006500630068006E006F006C006E
:1005A0006F006700790020004C006100620073005A
:1005B000200049006E0063000000040309040902E2
:1005C0003B00020100A0FA09040000010301010040
:1005D0000921110100012240000705810308000ADA
:1005E000090401000103000000092111010001229A
:1005F000BC000705820320000A1201100100000060
:1006000008EDFE071301000102030105010902A123
:100610000185020901A10005091901290515002517
:100620000195057501810295017503810105010997
:100630003009311581257F95027508810609381525
:1006400081257F950175088106050C0A3802158100
:10065000257F950175088106C0C005010980A101AB
:10066000850319012AB700150126B70095017510F9
:100670008100C0050C0901A101850419012AA0020D
:10068000150126A002950175108100C0050109061B
:10069000A1018505050719E029E715002501950841
:1006A000750181020507190029EF1500250195F054
:1006B0007501810205081901290595057501910249
:1006C000950175039101C005010906A101050719EE
:1006D000E029E7150025019508750181029501754E
:1006E0000881010507190029FF150026FF0095065E
:1006F0007508810005081901290595057501910204
:10070000950175039101C00011241FBECFEFDAE0FF
:10071000DEBFCDBF12E0A0E0B1E0EAE2FAE602C03F
:1007200005900D92AC36B107D9F724E0ACE6B2E003
:1007300001C01D92A734B207E1F70E94942C0C94DB
:1007400083340C94000080B38C7080BB81B3836FC2
:1007500081BB089584B1807F84B985B1807F85B9DC
:100760008AB1837F8AB98BB1837F8BB93E984698D3
:100770000895CF93C82F873070F580910A0190912A
:100780000B01892B99F564E670E080E40E94D51591
:1007900090930B0180930A01892BD1F464E670E0F9
:1007A00082E10E94311690930B0180930A01892BFC
:1007B00079F481E090E001C0880FCA95EAF764E619
:1007C00070E080950E94311690930B0180930A018E
:1007D000CF910C9484168B30C9F050F4893081F09D
:1007E0008A3089F0883049F0209A2898CF9108956E
:1007F0008C3079F4539A5B98F9CF219A2998F6CFE7
:10080000229A2A98F3CF239A2B98F0CF529A5A988B
:10081000EDCF3E9A4698EACFCF93DF93873058F5D5
:1008200080910A0190910B01C0E0892B71F464E67C
:1008300070E081E40E94D51590930B0180930A012A
:10084000892B39F0C0E00E9484168C2FDF91CF9164
:10085000089584E690E00E946016EC0197FF05C0C1
:1008600090930B0180930A01EDCFC09510920B017C
:1008700010920A01E8CFCFB12FB1269526952C739F
:10088000C3702C2BC22FC095E0CF0C9468060E9439
:10089000B60590E090930B0180930A010E94AA0391
:1008A0000E94A303EDE6F2E0ABE7B2E011921D92E5
:1008B00082E0EB37F807D1F78EE00E94FF090C9435
:1008C0006C070E94B60590E090930B0180930A019B
:1008D0000E94AA030E94A303EDE6F2E0119282E0D7
:1008E000EB37F807D9F70895FF920F931F93CF9333
:1008F000DF9300D00F92CDB7DEB780910A019091BF
:100900000B01892B91F080916C028F5F80936C02B8
:1009100081110BC00E94B60590E090930B0180936B
:100920000A01892B11F40E944B050BE712E01A8291
:100930001B828A81895F89838A810E94B9038981A8
:100940000E94B9038A810E940C04F80191918F01E1
:10095000F12C891721F031978083FF24F39489814A
:100960000E940C04F8019681891709F1868381E0C1
:100970008F29FB81F82BFB830E94AA038A818F5F5A
:100980008A838730B1F62B814EE06DE672E08BE70B
:1009900092E00E94890A0E94760781E00F900F90F2
:1009A0000F90DF91CF911F910F91FF90089580E0FC
:1009B000DFCFE82FF0E0E359FD4F808108950895DF
:1009C000CF92DF92EF92FF920F931F93CF93DF931B
:1009D0007C01062F0E94CF1564E670E084E80E9437
:1009E000D515CE2DDF2DD12CC12C10E0C016D1068F
:1009F00074F00E948416B801C701DF91CF911F9156
:100A00000F91FF90EF90DF90CF900C941D1364E650
:100A100070E088810E94311664E670E089810E944E
:100A2000311664E670E08A810E94311664E670E057
:100A30008B810E9431168FEFC81AD80A2496D6CF20
:100A4000259A2D9A0895269A2E9A0895279A2F9AD4
:100A5000089556985E98089525982D98089526989B
:100A60002E98089527982F9808950E9429050E948E
:100A70002C050E942F050C94320590E0909389007C
:100A80008093880090938B0080938A0090938D00D0
:100A900080938C0008950E9435058FEF0E943D05DC
:100AA0000E9420052FEF80E792E021508040904087
:100AB000E1F700C000000E9423052FEF80E792E0DD
:100AC000215080409040E1F700C000000E942605C0
:100AD0002FEF80E792E0215080409040E1F700C086
:100AE00000000E942C052FEF80E792E0215080400B
:100AF0009040E1F700C000000E942F052FEF80E733
:100B000092E0215080409040E1F700C000000E9438
:100B100032050C94350589EA8093800089E0809342
:100B2000810024982C983F988AB18F7C8AB96E985E
:100B3000479A8BB180638BB9769A0E941424609394
:100B4000E6037093E7038093E8039093E9036770EB
:100B50002FEF629FC00111249595879595958795F4
:100B60000E943D050E944B050C94670680E290E0D0
:100B700090930B0180930A018091890281110EC02C
:100B80000E94CF1581E0809389022FEF83ED90E3DF
:100B9000215080409040E1F700C0000064E670E022
:100BA00080E40E94D51590930B0180930A01892B54
:100BB00009F04EC064E670E080E00E943116909328
:100BC0000B0180930A01892B09F042C064E670E0B2
:100BD00080E00E94311690930B0180930A01892BCB
:100BE000B9F564E670E08FE30E94311690930B0133
:100BF00080930A01892B61F50E94841664E670E0F7
:100C000080E40E94D51590930B0180930A01892BF3
:100C1000F9F464E670E08CE00E94311690930B01C9
:100C200080930A01892BA1F464E670E080E00E94C1
:100C3000311690930B0180930A01892B49F464E6E5
:100C400070E08FE30E94311690930B0180930A01AC
:100C50000E94841680910A010895CF93DF9300D0FB
:100C600000D0CDB7DEB71092E6031092E7031092E2
:100C7000E8031092E90384E080618093E6038091A9
:100C8000E6039091E703A091E803B091E90389831B
:100C90009A83AB83BC83BC01CD010E9418240F90C2
:100CA0000F900F900F90DF91CF910C942424FC01B2
:100CB000611106C08281882331F085EE0E942C18D4
:100CC00090E080E0089585EE0E94C218F9CF089563
:100CD000CF93DF9300D000D0CDB7DEB780918103F2
:100CE00090918203A0918303B091840389839A83B6
:100CF000AB83BC83BC01CD010E949B2389830E94EE
:100D000029050E942C050E942F050E943205998119
:100D1000923061F0933091F09130C1F40F900F90C8
:100D20000F900F90DF91CF910C9420050F900F90B2
:100D30000F900F90DF91CF910C9423050F900F909F
:100D40000F900F90DF91CF910C9426050F900F908C
:100D50000F900F90DF91CF910895CF93DF939C0177
:100D6000FB019A9581159F4160F5E901CC27D1706F
:100D7000D901AA27B270B90166277470A901442766
:100D8000587034FF10C080E1CD2B09F480E0AB2B0C
:100D900009F08062672B09F08064452B09F08068B8
:100DA000DF91CF91099481E0CD2B09F480E0AB2B4A
:100DB00009F08260672B09F08460452B89F3886015
:100DC000EFCFDF91CF910895CF93DF93EC01805E59
:100DD0009109089720F060E57CE1209711F46BE21F
:100DE00079E1CE010E94AD068C2FDF91CF910C945A
:100DF0002C18CF93DF93EC010E94C218CE01805EC5
:100E00009109089720F067E57CE1209711F462E3EF
:100E100079E1CE01DF91CF910C94AD06CF93DF93B2
:100E2000D82FC92F0E94E4068D2F9C2FDF91CF91E0
:100E30000C94F90681E0089581E008950C941C0754
:100E400008950C9420071F93CF93DF9300D000D018
:100E50000F92CDB7DEB749835A836B8330910F036E
:100E600089819A8131111DC06623B9F02223A9F02E
:100E70000E942322182F682F89819A810E94CA21FB
:100E800069817A81812F0F900F900F900F900F90B2
:100E9000DF91CF911F910C94EE070E94F921182F3A
:100EA000EFCF0E94232269817A81EDCFFC01262FAA
:100EB000408151816281738184810C942307CF9397
:100EC000DF93D82FC92F60E00E9456076D2F7C2F2B
:100ED000DF91CF910C9421070E94E623811102C07B
:100EE0000E9480240E945F130C948B050C9445048F
:100EF000282F2F7041F0822F90E02A3010F44D9669
:100F000008950697089587E290E0089508950C9457
:100F1000860781E008950C948907CF93C82F0E941B
:100F200087078C2FCF910C948B0708950E94741C17
:100F30000E9495072FEF84E39CE021508040904071
:100F4000E1F700C000000C9423260F931F93CF936A
:100F5000DF93EC0161E00E9456078C01BE010E9404
:100F60001E07882389F1BE01C8010E94D41388237B
:100F700059F1BE01C8010E947D14882329F1BE01E8
:100F8000C8010E94D2148823F9F0BE01C8010E9452
:100F9000A5158823C9F0BE01C8010E94AD1288239F
:100FA00099F08A81882339F001158CE5180751F0F2
:100FB0000E3D1C4579F0CE01DF91CF911F910F912D
:100FC0000C941A070E94960780E0DF91CF911F9141
:100FD0000F9108950E948024F7CF0895972F70E015
:100FE00026E0929F600D711D1124FB0194E5899FFD
:100FF000E00DF11D1124EE0FFF1FE055FF4F85910D
:1010000094910895FC01EE0FFF1FE455FF4F859169
:1010100094910895CF93DF930E94EE070E942409D4
:10102000EC01811521E5920708F045C0811530E5F6
:10103000930708F0CAC0883E910508F5803E9105E7
:10104000B0F5883A910570F4853A910508F0A2C090
:101050008130910561F10497813A910540F1D0E02A
:10106000C0E025C08F3B910508F497C0805C9109D2
:1010700080329105A0F70E940208EC0118C081158A
:10108000904370F4C11580E2D80708F091C0CF3FBB
:10109000D10509F060F4C03FD10508F3D06507C061
:1010A000C11590E4D90708F486C0DF70D06ACE017C
:1010B000DF91CF910895811526E5920760F581159E
:1010C00035E5930708F0B3C0811544E59407F0F4C3
:1010D000C11583E5D80708F096C0C11592E5D90778
:1010E00008F48CC0CE018370992721E030E002C063
:1010F000220F331F8A95E2F7C695C69540E2C49F3A
:10110000E0011124C22BD32BDC68D1CFD82FCC2700
:10111000C46FD06ACCCFC1158CE5D80740F5C11596
:101120009BE5D90708F08DC0C11529E5D20750F419
:10113000C11538E5D30708F492CFDC2FCC27C06F58
:10114000D06AB5CFCE0199558F3F910511F008F0C7
:1011500086CF8C2F8F700E94BC0934E0D695C7953E
:101160003A95E1F7CF70DC2FC82FD069A0CFCE0120
:1011700090568115904208F072CF8D2F8F710E948A
:10118000BC0990E0982F882788279F719C012C2B01
:10119000E90155C0A497D0648ACFC85AD0E0CC0FDB
:1011A000DD1FC652DE4F0990D881C02DD4647FCF99
:1011B000CE019F7060CFCE019927D3FF03C0EC0111
:1011C000D86C75CFEC01D06C72CF74E09695879592
:1011D0007A95E1F783702C2F26952695237090E25F
:1011E000299F90011124382B8C2F8370C1E0D0E00F
:1011F00002C0CC0FDD1F8A95E2F784CFDC2FCC270D
:10120000C16FD06A54CFCE018370992721E030E0BE
:1012100002C0220F331F8A95E2F7C695C69540E2B9
:10122000C49FE0011124C22BD32BDA6840CF0E9467
:10123000BC09C82FD0E0DC2FCC27CC27DF71D062CF
:1012400036CFDD27D06633CF803E910599F1C8F4C3
:101250008133910509F476C048F48932910509F487
:101260006AC08A32910509F474C0089589339105E2
:10127000D1F082389105B9F08533910509F454C055
:101280000895843E910599F138F4823E9105F9F074
:10129000833E910509F10895863E910599F1873EB7
:1012A0009105B9F10895209134042370A1F080EEE6
:1012B00090E008952091340420FD52C0309135040F
:1012C00030FF09C024FF4FC090E080E004C02091AF
:1012D000340422FDF7CF08952091340422FD46C046
:1012E0003091350430FDE3CF24FFF5CFEDCF2091D1
:1012F000350421FFF0CF8091340484FDE5CF87EEE3
:1013000090E008952091340423FFE5CF24FDDCCF45
:10131000F6CF2091340423FD2CC03091350431FFE9
:10132000E3CF84EE90E008952091340425FFD3CFDD
:1013300089E290E008952091340425FFCCCF85E325
:1013400090E008952091340426FFC5CF8AE290E012
:1013500008952091340426FFBECF81E390E00895E4
:1013600089E390E0089583EE90E0089582EE90E0A6
:10137000089586EE90E008959091340492FF06C09F
:10138000282F28712830F9F4877F846093FF06C0E6
:10139000282F28712831F1F4877E8461209135044B
:1013A00020FF06C0382F38713830D9F4877F81602C
:1013B00021FF06C0282F28712831D1F4877E816152
:1013C00094FD877E0895282F24712430F9F68B7FB1
:1013D0008860DCCF282F2471243101F78B7E88614F
:1013E000DDCF382F3171313019F78E7F8860E0CF33
:1013F000282F2171213121F78E7E8861E1CFCF9393
:10140000C82F90E00E946F3280938E0290938F02DB
:10141000282FFC019BEF8E2F821B8C1710F0CF9191
:1014200008959193F8CF0F931F93CF93DF93962F47
:1014300010928D0210918E02E12FF0918F0230E018
:10144000A62FB0E00BEFCBEFD0E02E2F211B2817FB
:1014500038F030938D02DF91CF911F910F91089555
:1014600020812B3F91F0422F50E0921780F0BD0178
:10147000641B750BAB01052E000C660B770B4E3110
:1014800051056105710550F000833196DECFBE0134
:10149000641B750BAB014A0F5B1FEDCF31E0F5CF3D
:1014A000CF92DF92EF92FF920F931F93CF93DF9330
:1014B0006B0110929002E0908E02F0908F0250919A
:1014C0008D02FC0190E080E030E0841768F05093DA
:1014D0008D0230939002DF91CF911F910F91FF9079
:1014E000EF90DF90CF900895E601C80FD91F61916A
:1014F0007881761751F08701080F191FD8017C9168
:101500007B3F29F42C93688351E00196DECF31E0D4
:10151000FCCFDF92EF92FF920F931F93CF93DF9355
:10152000182F092FF62EE72EC42FD22F0E94E42564
:10153000AC0160918B0270918C0290938C0280932D
:101540008B0230918A02832F90E0861B970B840FC9
:10155000951F6BEF70E00E94EE31D82E80938A02C7
:1015600080918D02882329F16D2D8C2F0E94130A02
:10157000DD2379F02D2D4C2F6F2D7E2D812F902F77
:10158000DF91CF911F910F91FF90EF90DF900C941E
:10159000500A80918D02882369F380919002811115
:1015A000E9CFDF91CF911F910F91FF90EF90DF90E6
:1015B0000895D111DFCFF1CFCF92DF92EF92FF925A
:1015C0000F931F93CF93DF93D62FC72F982F7111AF
:1015D00013C0442329F0E82FF0E0E659FB4F949123
:1015E000692F792F892FDF91CF911F910F91FF9054
:1015F000EF90DF90CF900895272F30E0E82FF0E0B4
:10160000442321F0E659FB4FE491F0E086E0D89FB7
:10161000700111240FEF10E0C701B8010E94EE31F4
:101620008D2F90E0880F991FA5E5A69FA001A79F89
:10163000500D1124841B950BD82EDD0CD80EC8013B
:10164000821B930B8E9FA0018F9F500D9E9F500D6C
:101650001124952FDC9EE0011124CD2FDD27D80128
:10166000AC1BBD0BED01CE9FD001CF9FB00DDE9F17
:10167000B00D11248B2FE801CD19D1096E01C29E46
:10168000E001C39ED00DD29ED00D1124CD2FDD27B9
:101690000C1B1D0B0E9FE0010F9FD00D1E9FD00D48
:1016A00011242E2F63307105D9F03CEFE31633E09F
:1016B000F30668F461307105B9F062307105C1F06C
:1016C000AFEFEA16F10448F4852F9D2F06C0643071
:1016D000710589F066307105B9F3692F722F83CFD8
:1016E0009B2F8E2F252FF9CF9E2F2B2F852FF5CFB8
:1016F0008D2F9E2FF7CF8E2F2D2FEFCF41E00C9403
:10170000DC0AFC01928120813181892F291708F49C
:10171000822F381708F4832F8383381B3183281BCB
:101720002083981B928308950895CF93DF93982F79
:10173000762F842FE901692F0E947E0B79836883BD
:101740008A831B82DF91CF9108958091EA03982FBD
:101750009E7F29F4817082608093EA030895863524
:10176000E8F381708465F8CF88E090E00C9424342D
:101770000F931F93CF93DF938B01D82FC92F0E9414
:10178000A50BA8016D2F7C2F88E090E0DF91CF9111
:101790001F910F910C944234CF93DF9300D000D06F
:1017A000CDB7DEB7EAEEF3E083E0808311828FEFFE
:1017B00082838383148280819181A281B381898312
:1017C0009A83AB83BC83BC01CD010F900F900F9027
:1017D0000F90DF91CF910C94B80B8091EA0380FFBA
:1017E00002C08695089580E00895CF93DF9300D0DE
:1017F00000D0CDB7DEB79091EE03933018F49F5F21
:101800009093EE038823B1F08091EA039091EB036B
:10181000A091EC03B091ED0389839A83AB83BC83E1
:10182000BC01CD010F900F900F900F90DF91CF91E1
:101830000C94B80B0F900F900F900F90DF91CF91F9
:10184000089581E00C94F50BCF93DF9300D000D086
:10185000CDB7DEB79091EE03992319F09150909394
:10186000EE038823B1F08091EA039091EB03A091FD
:10187000EC03B091ED0389839A83AB83BC83BC01F5
:10188000CD010F900F900F900F90DF91CF910C949E
:10189000B80B0F900F900F900F90DF91CF9108959C
:1018A00081E00C94240CEF92FF920F931F93CF933F
:1018B000DF93009110018091EA0380FF16C0C09170
:1018C0000F0124E0C29FE0011124C151DC4F7E01D1
:1018D00010E010131DC0612FCE01DF91CF911F9139
:1018E0000F91FF90EF900C94E00480911101909182
:1018F000120124E0829FF0011124E151FC4F89176D
:10190000F0F611821082128213828F5F3496F7CF25
:10191000C7010E94810B1F5F84E0E80EF11CD9CF44
:101920009091EA0390FF15C090911101209112014E
:1019300034E0939FF0011124E151FC4F921710F015
:101940000C94530C81836083428313829F5F34968F
:10195000F5CF0895CF93DF9300D000D0CDB7DEB799
:101960009091EA0390FF0AC09E012F5F3F4F0E94B3
:10197000950B4B8169818A810E94900C0F900F908A
:101980000F900F90DF91CF910895CF93DF93EC01EB
:10199000EC81F0E0EB59FC4F4491EAEEF3E0628118
:1019A00081810E94AA0C8C818F5F8C83DF91CF9103
:1019B0000895CF93DF93EC01EAEEF3E04381628177
:1019C0008C810E94AA0C8C818F5F8C83DF91CF91D8
:1019D00008950F931F93CF93DF9300D000D0CDB71E
:1019E000DEB78C018091910281110AC09E012F5FA8
:1019F0003F4F4FEF6FEF0E94950B8A8180939102CA
:101A0000F8016481613049F06230F9F0809191020F
:101A100040E0662331F040E01AC06091910240E05E
:101A200080E00E94900CF801848190E0019663E0D0
:101A300070E00E94023284830F900F900F900F90FD
:101A4000DF91CF911F910F9108954091910280E015
:101A500060E0E7CFAF92BF92CF92DF92EF92FF921A
:101A60000F931F93CF93DF93CDB7DEB728970FB6B1
:101A7000F894DEBF0FBECDBF182FF62E042FE22E36
:101A80009091EA0390FF2BC0E92FE695AE2FB0E0CE
:101A9000A85FBD4F8C918093E6029E7F923081F5C6
:101AA0009E012F5F3F4F812F0E94950B4B816981D3
:101AB0008A810E94900C1093EB03F092EC03009348
:101AC000ED03EE2061F08091EA039091EB03A09189
:101AD000EC03B091ED03BC01CD010E94B80B289638
:101AE0000FB6F894DEBF0FBECDBFDF91CF911F912F
:101AF0000F91FF90EF90DF90CF90BF90AF9008953F
:101B0000823019F40091ED03D6CF863019F410918C
:101B1000EB03D1CF8930D9F3893169F6E9518E2FA2
:101B20008170D82EE695F0E0EB59FB4FA590B4906C
:101B3000C12CBB2460911301C61618F00E94530CEF
:101B4000BACFEC2DF0E0CA9CC001CB9C900D1124C3
:101B500070E00E94EE31812FD11012C0860F2091CB
:101B600011012E0F3F2F311D220F331F220F331F64
:101B700021513C4F402F6F2D0E94950BC394DACF1B
:101B8000861BEDCF282FEAEEF3E08181438162814D
:101B9000845F0C942A0D81E00C94C20D282FEAEE8C
:101BA000F3E08181438162818C500C942A0D81E0A5
:101BB0000C94CE0D282FEAEEF3E062813FEF630F25
:101BC00008F46FEF438181810C942A0D81E00C941D
:101BD000DA0D282FEAEEF3E062813FEF631B08F491
:101BE00060E0438181810C942A0D81E00C94E90D21
:101BF000282FEAEEF3E043813CE0430F08F44FEF77
:101C0000628181810C942A0D81E00C94F80D282FBB
:101C1000EAEEF3E043813CE0431B08F440E06281DC
:101C200081810C942A0D81E00C94070E20E00C9425
:101C30002A0DEF92FF921F93CF93DF93EC0110E0F8
:101C4000EE24EA94F12C60911301161770F00E94B3
:101C5000530C9A818C8190FF24C08F5F8C83DF911D
:101C6000CF911F91FF90EF90089520911101210FC6
:101C70003327331F220F331F220F331F21513C4FB5
:101C800070E0C7010E940232962F8C814091ED03D3
:101C90006091EC03199F800D11240E94950B1F5F2A
:101CA000D2CF8150DBCFBF92CF92DF92EF92FF92E3
:101CB0000F931F93CF93DF93FC018281EE24EA946C
:101CC00080FD02C0EE24E394F12C80911301F816FC
:101CD000C0F00E94530C8091930291E0E91254C02D
:101CE000811102C080911301815080939302DF9192
:101CF000CF911F910F91FF90EF90DF90CF90BF9009
:101D00000895C09111010F2D10E0C00FD12FD11DEA
:101D1000CC0FDD1FCC0FDD1FC151DC4F19821882A3
:101D20001A821B8224E0C22ED12CB12C8091930206
:101D30008B0D80311CF16FE00E94E031892F082E5D
:101D4000000C990B0817190791F48091ED038C9DF5
:101D5000A0018D9D500D112455954795559547959A
:101D60009E016091EC038091EB030E94950BBE0CE9
:101D7000F1E0CF1AD108D1F6F394A7CF87FFDFCFD8
:101D800090911301890FDBCF90E0019660911301D0
:101D900070E00E940232A9CF0F931F93CF938091DE
:101DA00011019091120124E0829FF0011124E15170
:101DB000FC4F891730F1C0E060911301C61740F164
:101DC0000E94530C20910D0180919202820F80930A
:101DD000920290910E01920F90930E01191654F4F5
:101DE000082E000C990B409113014150550B84179C
:101DF00095071CF0219520930D01CF911F910F9114
:101E0000089511821082128213828F5F3496D1CF8F
:101E10000C2F10E070E0C8010E940232E091110125
:101E2000E80F80919202082E000C990B24E0E29FAB
:101E3000F001112408171907ACF080910E01082E4B
:101E4000000C990B801791076CF09F0121513C4FBA
:101E50004091ED036091EC038091EB030E94950BA0
:101E6000CF5FAACFE151FC4F118210821282138200
:101E7000F7CFEF92FF920F931F93CF93DF93CDB7DE
:101E8000DEB72E970FB6F894DEBF0FBECDBF8D879D
:101E90009E87AD85BE8514961C91212F30E0D90117
:101EA0000E9446329B01AC010E945C3269837A83B6
:101EB0008B839C83E0E2F0E0E11BF109A5E5B0E053
:101EC0009B01AC010E945C3269877A878B879C8773
:101ED0009F01DF010E943E329B01AC010E946732EC
:101EE0006D837E838F8398879B01AC0189819A8162
:101EF000AB81BC81280F391F4A1F5B1F69857A851A
:101F00008B859C850E941632022F822F90E02A3208
:101F100088F593E0299F9001112435952795122F7C
:101F20001095F12C85E5E82EE01A80911301F81642
:101F300080F10E94530CED85FE85948181E0992308
:101F400019F0903219F48FEF80930C0180910C01FD
:101F5000890FAD85BE8514968C932E960FB6F89496
:101F6000DEBF0FBECDBFDF91CF911F910F91FF90CC
:101F7000EF90089525E530E0D901A81BB90B9D012C
:101F8000220F331F2A0F3B1F37FFC7CF2F5F3F4F53
:101F9000C4CF8E2DF1FC802F209111012F0D3327FE
:101FA000331F220F331F220F331F21513C4F412F6C
:101FB0006091EC030E94950BF394B7CF0F931F939E
:101FC000CF93DF93EC0110E000E0909113019017A4
:101FD000110609F06CF40E94530C8C8190E001967C
:101FE000817099278C83DF91CF911F910F91089574
:101FF00020911101200F312F311D220F331F220F8D
:10200000331F21513C4F4C816091EC038091EB03D5
:1020100096959017110651F04CF0442349F04091E9
:10202000ED030E94950B0F5F1F4FCFCF4423B9F3F1
:1020300040E0F7CF8F929F92AF92BF92CF92DF9204
:10204000EF92FF920F931F93CF93DF93FC01B28027
:10205000948081E0848300E015E09BE4A92E88242D
:102060008394EE24EA94F12C3BE4C32ED12C80918E
:102070001301081770F0DF91CF911F910F91FF901E
:10208000EF90DF90CF90BF90AF909F908F900C9487
:10209000530CC02FD0E01C9FF0011D9FF00D1124A8
:1020A000EC56FD4F91101BC013821282209111013A
:1020B0002C0F3D2F311D220F331F220F331F2151B3
:1020C0003C4F1C9FF0011D9FF00D1124EC56FD4F5D
:1020D0004281618180810E94950B0F5FC8CF23816F
:1020E000222379F12150238334818A2D821B3111DF
:1020F00001C0822F1C9FF0011D9FF00D1124EC5692
:10210000FD4F9091ED03899FC0011124B6010E94FB
:10211000EE316283211104C0332311F01482A382B3
:1021200022E02B1518F21C9FF0011D9FF00D1124C9
:10213000EC56FD4F8091EB0380838091EC0381830B
:10214000B5CF0E94FF33823091400CF0AFCF82E0D8
:102150008B1530F50E94FF33B7010E9402321C9F9D
:10216000F0011D9FF00D1124EC56FD4F808322E0FD
:102170002B15C8F40E94FF332091EC032695622FA3
:1021800070E00E940232280F1C9FF0011D9FF00D8D
:102190001124EC56FD4F21831282A382848286CFC4
:1021A0008091EB03DCCF2091EC03EECFCF93DF9354
:1021B00000D000D0CDB7DEB7EAEEF3E080818E7FAD
:1021C000808380819181A281B38189839A83AB834B
:1021D000BC83BC01CD010E94B80B1092E7029FEFB7
:1021E000A0E7B2E09150A040B040E1F700C000008D
:1021F0000F900F900F900F90DF91CF910C94530C94
:10220000EAEEF3E080818E7F80831092E7022FEF69
:1022100080E792E0215080409040E1F700C000004C
:102220000C94530C6091EA03669570E04BE050E02B
:1022300084E191E00E940F34892B19F481E08093AE
:10224000E7020E94E4259093E0028093DF02089564
:10225000CF93DF9300D000D0CDB7DEB79091EA03E3
:1022600090FF41C09170811134C092609093EA0355
:10227000662381F08091EA039091EB03A091EC0337
:10228000B091ED0389839A83AB83BC83BC01CD01FC
:102290000E94B80B6091EA03669570E04BE050E055
:1022A00084E191E00E940F34892BD1F01092E70273
:1022B00081E08093E2024091ED036091EC03809114
:1022C000EB030F900F900F900F90DF91CF910C9434
:1022D000160E8B3210F09465C9CF880F982BC6CF9D
:1022E0000E941211E5CF0F900F900F900F90DF9189
:1022F000CF910895682F8091EA0386958F5F8B3286
:1023000008F081E00C94281181E00C947A11682F78
:102310009091EA0396958FEF890F913009F48AE244
:102320000C94281181E00C94871161E00C94281121
:10233000EAEEF3E080818160808386950C949511AC
:102340008091EA0380FD0C94D6100C94981160E003
:102350000C9428118091E50281112EC00E94E62381
:10236000811104C00E9480240E94CC0B0E94B40BF7
:102370006093EA037093EB038093EC039093ED0377
:102380006E7F61F40E94CC0B0E94B40B6093EA0351
:102390007093EB038093EC039093ED030E94A50BE5
:1023A0001092E7028091EA0380FF03C086950E94A5
:1023B000A71181E08093E5020895EAEEF3E08081C1
:1023C0008160808386950C94A7111092E70208958E
:1023D0000F931F93CF93DF938091E702882309F433
:1023E0009DC08091E602E091EA03E695E81BE09348
:1023F000E1028230C9F5F0E0EF59FC4FE491CE2FB5
:10240000D0E005EC1CE08091E202882389F0109274
:10241000E2020E94E4259E0120953095280F391F85
:102420003093E0022093DF021092E4021092E30264
:102430008091DF029091E0020E94F0258C179D07A9
:1024400008F46CC0E091DF02F091E002CE0FDF1FD4
:10245000D093E002C093DF028FED92E0F801DF91AC
:10246000CF911F910F910994863049F4F0E0E25A20
:10247000FC4FE491CE2FD0E009ED1CE0C4CF8930B1
:1024800051F4E695F0E0E55AFC4FE491CE2FD0E010
:1024900009E11EE0B8CF8F3051F4E695F0E0E85A3C
:1024A000FC4FE491CE2FD0E003E51EE0ACCF8531A8
:1024B00049F4F0E0EB5AFC4FE491CE2FD0E00CEC65
:1024C0001EE0A1CFC8E2D0E009E31FE0883109F4A3
:1024D0009ACF833239F4E3E5F3E0C591D49109EE64
:1024E0001CE091CFC4EFD1E00EED1FE0843209F47F
:1024F0008ACFC0EDD7E004E91BE0853209F083CF35
:102500008E2F63E00E94D431E92FF0E0E05BFC4FB6
:10251000E491CE2FD0E00AE110E175CFDF91CF91A9
:102520001F910F910895FA0181110994FB01FDCFCC
:10253000CF93DF93C82FD62F0E94ED0B8C1740F05E
:102540000E94ED0B8D1720F4DF91CF910C94841134
:102550008C2FDF91CF910C9495110F931F93CF93F4
:102560008C01FB01C281CC2309F465C00E94E622E4
:102570008272F801E25CFC45E431F10538F4EB5776
:10258000FB4C0C9438320E94A011C0E08C2FCF91EC
:102590001F910F91089542E951E164E871E10E94B1
:1025A0009312F3CF44E851E162E971E1F8CF47EDCE
:1025B0005DE06BEC7DE0F3CF4BEC5DE067ED7DE043
:1025C000EECF45EF5DE066EE7DE0E9CF46EE5DE003
:1025D00065EF7DE0E4CF43E15EE064E07EE0DFCFE5
:1025E00044E05EE063E17EE0DACF40E55CE061E29A
:1025F0007CE0D5CF41E25CE060E57CE0D0CF81E0DB
:102600000E949511C2CF65E082E00E949812BDCF72
:1026100068E086E0FACF6EE089E0F7CF64E18FE012
:10262000F4CF67E185E1F1CF88E1EACF62E289E1A9
:10263000ECCF83E2E5CFC1E0A9CF9C01CB01579A53
:102640004BB14F775BB150686FB7F894880F991F03
:10265000880F991F820F931F8217930741F46FBF52
:102660008FE594E00197F1F700C000000895F901AB
:1026700071919F01E8E05BB9000000C077FF4BB9A2
:10268000770F000000C000C000C04BB900C0EA9541
:1026900091F7E2CFCF93DF93EC01FB0197FF0BC0E3
:1026A0008281882341F00E947513CE019F770E949A
:1026B000B7130E94A01381E0DF91CF9108958CE0C1
:1026C00090E00E941C3490E0B0E0A0E080932B04E6
:1026D00090932C04A0932D04B0932E040895609140
:1026E0002B048CE090E00C9430340E94E62280931E
:1026F0002F040E94FA2280912B048230A9F030F43A
:1027000081110DC082EE0E942C1802C0843099F015
:102710008FE39CE90197F1F700C00000089588E17C
:1027200093E00E940E07F4CF82EE0E942C1887E5FA
:102730000E941819EDCF86EE0E94181988E1F8CF93
:1027400080912B04823019F030F481110AC082EE9E
:102750000E94C21802C0843041F080912F040C9472
:10276000F7228CE20E941819F8CF88E2FBCF0F9372
:102770001F93CF93DF938C01CCE0D0E0C8010C2EE7
:1027800002C0969587950A94E2F78F700E947807A9
:102790000E9418192497CC3F8FEFD80779F7DF9163
:1027A000CF911F910F9108950F931F93CF93DF93B4
:1027B000EC018B01FB018281882361F00E94E622FB
:1027C000CE01815E9C458530910520F480932B04D9
:1027D0000E946F13B801CE01DF91CF911F910F912D
:1027E0000C944A13AF92BF92CF92DF92EF92FF9276
:1027F0000F931F93CF93DF937C015B01C42FD22FE4
:10280000FC0182818823F9F04093EA020E94E425CA
:102810009093E9028093E80280E28C0F883008F000
:1028200061C0C77081E001C0880FCA95EAF7DF91E7
:10283000CF911F910F91FF90EF90DF90CF90BF90BD
:10284000AF900C942B191091EA02141340C08091A0
:10285000E8029091E9020E94F0256C01B701C501E0
:102860000E94D71EC816D90690F5C0E2CD0F1D17DD
:10287000B9F080E2810F883040F4177081E001C028
:10288000880F1A95EAF70E943219C83048F481E09F
:102890009D2F977001C0880F9A95EAF70E942B1917
:1028A000802F0E941819C830E8F4D77081E001C069
:1028B000880FDA95EAF7DF91CF911F910F91FF9082
:1028C000EF90DF90CF90BF90AF900C94321980E2E0
:1028D0008C0F883038F4C77081E001C0880FCA952A
:1028E000EAF7E9CFDF91CF911F910F91FF90EF9021
:1028F000DF90CF90BF90AF9008950F939C01CB01D4
:10290000233F4CE53407A1F190F4283DFCE53F0757
:1029100049F1293D4CE53407E9F1273D3C45C1F03B
:10292000FC0182818823E1F11092EA0219C0253F5F
:10293000FCE53F0719F1263F4CE5340729F1243F18
:102940003C4571F707E225EE44EE64EF7CE505C0F7
:1029500006E221EE41EE67ED7CE50E94F21380E095
:102960000F91089507E225EE45EE68ED7CE5F5CF81
:1029700006E221EE40EE63EF7CE5EFCF06E221EECA
:1029800042EE65EF7CE5E9CF07E225EE46EE66EF25
:102990007CE5E3CF08E221E045EE69ED7CE5DDCFA3
:1029A00081E0DECFCF93DF93EC01FB0182818823AE
:1029B00009F4C9C0C631FCE5DF07E0F4C2309CE58C
:1029C000D907F0F00E94F9239093350480933404E2
:1029D000C631ECE5DE0720F5C230FCE5DF0798F4F0
:1029E00080913404909135040E9407240E94741C45
:1029F00080E006C09E012A5F3C452930310510F376
:102A0000DF91CF910895FE01E350FC45809134049D
:102A10008160E331F10588F4E756FB4C0C943832C1
:102A2000CA5FDC45C930D105D8F6C455DB4CFE0180
:102A30000C94383280913404826080933404D0CF77
:102A4000809134048460F9CF809134048860F5CF9C
:102A500080913504816080933504C2CF8091350424
:102A60008260F9CF809134048061E7CF8091340493
:102A70008062E3CF809134048064DFCF0E94741CB5
:102A8000809134048068D9CF809134048C60D5CF94
:102A9000809135048360DFCF809134048E7FCDCF69
:102AA000809134048D7FC9CF809134048B7FC5CF52
:102AB00080913404877FC1CF809135048E7FCBCF46
:102AC000809135048D7FC7CF809134048F7EB5CF40
:102AD000809134048F7DB1CF809134048F7BADCF52
:102AE0000E94741C809134048F77A7CF80913404A6
:102AF000837FA3CF809135048C7FADCF8091340448
:102B000082FB992790F921E0922790FB82F990FBB4
:102B100083F993CF80913504982F909591708E7F93
:102B2000892B90FB81F997CF0E94741C90913404FB
:102B3000892F97FB87F9805880CF81E00E948224FB
:102B40004FCF80E0FBCF81E05BCFCF93DF93EB01F2
:102B500086319C4511F50E94E6229A81992399F0CD
:102B60008A7A91E009F490E09093EB02811109C018
:102B700089E20E949B220E94382380E0DF91CF915E
:102B8000089585E3F6CF8091EB02811104C089E2BC
:102B90000E94A222F0CF85E3FBCF81E0EFCF10921D
:102BA000B9008CE08093B8000895EF92FF920F93E4
:102BB0001F93CF93DF93182FEB011092BC0084EA90
:102BC0008093BC000E94E4257C018091BC0087FFBB
:102BD00027C08091B900887F883029F08091B900A2
:102BE000887F8031D9F51093BB0084E88093BC00C6
:102BF0000E94E4258C018091BC0087FF24C02091B5
:102C0000B900287F90E080E02831B1F081E090E0C9
:102C1000203411F490E080E09195819591090CC0E9
:102C2000CF3FDC0791F20E94E4258E199F098C1793
:102C30009D0758F28EEF9FEFDF91CF911F910F917B
:102C4000FF90EF900895CF3FDC07A9F20E94E425A2
:102C5000801B910B8C179D0770F2ECCF8FEF9FEFCD
:102C6000EBCF0F931F93CF93DF93EB018093BB00C8
:102C700084E88093BC000E94E4258C018091BC0014
:102C800087FF11C02091B900287F81E090E02832B1
:102C900011F490E080E0919581959109DF91CF91B9
:102CA0001F910F910895CF3FDC0741F30E94E42567
:102CB000801B910B8C179D0708F38EEF9FEFEECFD3
:102CC0000F931F93CF93DF93EC0184E88093BC00B4
:102CD0000E94E4258C018091BC0087FF08C0809190
:102CE000BB0090E0DF91CF911F910F910895CF3FEE
:102CF000DC0789F30E94E425801B910B8C179D074C
:102D000050F38EEF9FEFEECF84E98093BC000895DF
:102D10009093F1028093F0020895E091F002F09117
:102D2000F102309721F00190F081E02D099480E0CC
:102D30000895DC01E091F002F091F102309799F0F2
:102D400080913101882351F08091340487FF06C0BF
:102D50008C9111968C93119785E08C930280F3816E
:102D6000E02DCD0109940895DC01E091F002F0918D
:102D7000F102309739F082E08C930480F581E02DE8
:102D8000CD01099408952091EE023091EF022817A9
:102D9000390771F09093EF028093EE02E091F00218
:102DA000F091F102309721F00680F781E02D09942F
:102DB00008952091EC023091ED022817390771F047
:102DC0009093ED028093EC02E091F002F091F10219
:102DD000309721F00084F185E02D0994089585B79E
:102DE000806885BF85B7806885BF08950895089578
:102DF0000C94F61608950C94FA160E94EF160E9491
:102E0000F7160C94F81681E008950C9403170E94AD
:102E1000DB250E9447040E9455260E94AA110C94AB
:102E2000FB16BF92CF92DF92EF92FF920F931F9308
:102E3000CF93DF9300D000D00F92CDB7DEB70E94C2
:102E400074040E940517882309F460C083EFC82E1C
:102E500082E0D82E10E000E0B02E802F0E94D9042E
:102E6000F82EF601E1906F01E81609F449C080914F
:102E7000AF0381FD0E94DF049E2D9F2580E0EE249C
:102E8000E394292F2E21B9F18983BA82FE2081E0B3
:102E900009F480E08B830E94E4258160782F9D8374
:102EA0008C8349815A816B818D810E94E117F801E1
:102EB000ED50FD4F8081E826E0820E94E8110E94DB
:102EC00013280E948D169091F202891781F10E94B9
:102ED0008D168093F2020F900F900F900F900F902D
:102EE000DF91CF911F910F91FF90EF90DF90CF90E6
:102EF000BF900C948D078F5FEE0C863009F0C1CF28
:102F00000F5F1F4F0E30110509F0A6CF8FEF898399
:102F10008A831B820E94E4258160782F9D838C83A5
:102F200049815A816B818D810E94E117C6CF0F9034
:102F30000F900F900F900F90DF91CF911F910F91F5
:102F4000FF90EF90DF90CF90BF900895CF93DF93E5
:102F5000DC019C91692F70E021E030E0A90102C002
:102F6000440F551F9A95E2F7CA0111964C9111979B
:102F700050E0EA01CF5FDC4F288112963C91129716
:102F80003323C9F0309111033323C1F096E0949FAD
:102F9000F001959FF00D1124E60FF71FEE0FFF1FB4
:102FA000EE5CFE4F408151814D935C93822B888370
:102FB000DF91CF910895322F3823E6CF8095822379
:102FC000F6CFCF93DF93CDB7DEB72B970FB6F8943C
:102FD000DEBF0FBECDBF4F83588769877A878B8747
:102FE0008A859B85892B21F0CA0189238F3FD9F4DB
:102FF0001E8285E0FE013796DE01119601900D924A
:103000008A95E1F749815A816B817C818D819E810E
:103010000E94DA1E2B960FB6F894DEBF0FBECDBF0E
:10302000DF91CF910895CE0107960E94A617E0CFB9
:10303000FC01808191810E94652292959F7096305B
:1030400051F4863F41F08091110391E089278093EC
:103050001103909310030895CF93C82F882309F488
:103060008FC08238C1F40E948D1681FD89C089E32A
:103070000E949B220E9438232FEF31EE84E02150E2
:1030800030408040E1F700C0000089E30E94A222A6
:10309000CF910C9438238338A1F40E948D1680FDC3
:1030A0006FC083E50E949B220E9438239FEF21EE90
:1030B00034E0915020403040E1F700C0000083E54B
:1030C000E5CF8438A1F40E948D1682FD59C087E4B3
:1030D0000E949B220E9438238FEF91EE24E08150C2
:1030E00090402040E1F700C0000087E4CFCF8CEF94
:1030F0008C0F813AB8F48C2F0E94912A811140C024
:103100006C2F80911F01909120010E949B248823A5
:1031100029F08C2F0E94A2220E9438238C2F0E941B
:103120009B22B6CF80E28C0F883048F4C77081E0D4
:1031300001C0880FCA95EAF70E94E922A9CF8BE562
:103140008C0F833038F42C2F2452330BC901CF91CC
:103150000C94C316E8E5EC0FE73150F4F0E0EE0F05
:10316000FF1FED5CFD4F80819181CF910C94D916AA
:10317000C03F30F08C2F0E940E27CF910C94F9277E
:10318000CF910895882309F452C0823871F40E94C7
:103190008D1681FF4CC089E30E949B220E94382338
:1031A00089E30E94A2220C943823833859F40E94A8
:1031B0008D1680FF3CC083E50E949B220E9438232D
:1031C00083E5EFCF843859F40E948D1682FF2FC01B
:1031D00087E40E949B220E94382387E4E2CF9CEF81
:1031E000980F913AF0F290E2980F983050F487706F
:1031F00091E001C0990F8A95EAF7892F0E94EF228A
:10320000D2CF9BE5980F933020F490E080E00C94AF
:10321000C31698E5980F973120F490E080E00C9465
:10322000D916803F20F00E9476270C94F927089544
:10323000CF93C82F0E942C18C93349F42FEF87EE83
:1032400093E0215080409040E1F700C000008C2FB7
:10325000CF910C94C218882321F00E94E9220C948B
:1032600038230895882321F00E94EF220C943823FC
:1032700008956F927F928F929F92AF92BF92CF925A
:10328000DF92EF92FF920F931F93CF93DF9300D0C3
:1032900000D000D0CDB7DEB76C016D837E83FC011A
:1032A000058102950F70128111110E940B230E945B
:1032B000DF22E82E8823B9F01123F9F08E81807F78
:1032C000803449F09D81905E9830B8F0803619F4D2
:1032D000FD81F63F91F082E00E9483230E94DF226D
:1032E00091E0E82EE926AE80A2949FE0A922B12CBD
:1032F000F501EB54FB4C0C943832E12CF4CF0E81E9
:103300000F708E81807F11F00295007F1123B1F044
:10331000002361F08D81805E883018F06D8061102F
:1033200009C0802F0E94E9220E9438238D810E94CB
:103330002C1815C0802F0E94FD22F6CF8D810E948F
:10334000C218002361F08D81805E883018F07D8086
:10335000711043C0802F0E94EF220E943823F8E0B2
:10336000AF1AB10824E0A216B10420F40E948D1611
:103370000E948D07112349F08E81807F803619F4D9
:103380009D81963F11F00E94D222EE2009F434C2B2
:103390000E94B52280FD30C2F60112820E94AF2247
:1033A0000E94BA20C6010E94281C0E94AF222696C5
:1033B0000FB6F894DEBF0FBECDBFDF91CF911F9146
:1033C0000F91FF90EF90DF90CF90BF90AF909F90C4
:1033D0008F907F906F900C94EB20802F0E9403239E
:1033E000BCCF2E812F70F22E8E81807F803219F01B
:1033F000F29480EFF8226D80662041F0262D213076
:1034000019F1112359F1002321F190CF112381F0FB
:10341000011106C00E941F238F290E942B199FCFE4
:103420000130C1F70E941F238F290E94252397CFC7
:10343000011106C00E942E238F2D0E9432198FCFBA
:10344000013009F48CCFF6CF112329F0023008F0B7
:1034500086CF8F2DE2CF011182CFEECF002361F313
:103460008D81893349F49FEFE7EEF3E09150E0401E
:10347000F040E1F700C000008D810E94C2186FCFBC
:103480008E8186958695837069F0813009F067CFCB
:103490008D819E819370111102C090E080E00E94A6
:1034A000D9165DCF8D819E819370111102C090E07D
:1034B00080E00E94C31653CF8D81112329F00E9412
:1034C0000E270E94F9274BCF0E947627FACF8E81D4
:1034D000837009F058C0111142CF2D812295269595
:1034E0002770220F220F4D814F7050E070E060E096
:1034F000022E04C0440F551F661F771F0A94D2F78F
:103500006D8080E090E0DC0164FE0FC08FE090E011
:10351000A0E0B0E004C0880F991FAA1FBB1F2A9526
:10352000D2F780959095A095B0952E8126952695F9
:1035300023703C014D01642A752A862A972A6982E4
:103540007A828B829C82223081F02330A9F0213054
:1035500029F0C401B3010E94302001CF69817A8132
:103560008B819C810E940820FACE69817A818B81AF
:103570009C810E945820F3CE69817A818B819C8145
:103580000E940620ECCE8695112311F08E81817069
:10359000882309F4E4CE2D81229526952770220FE9
:1035A000220F4D814F7050E070E060E0022E04C0A9
:1035B000440F551F661F771F0A94D2F77D8080E065
:1035C00090E0DC0174FE0FC08FE090E0A0E0B0E07E
:1035D00004C0880F991FAA1FBB1F2A95D2F7809598
:1035E0009095A095B0952E812695269523703C0147
:1035F0004D01642A752A862A972A69827A828B82EB
:103600009C82223081F02330A9F0213029F0C401BE
:10361000B3010E947921A3CE69817A818B819C813B
:103620000E9451219CCE69817A818B819C810E946C
:10363000A12195CE69817A818B819C810E94842011
:103640008ECE0E810F70112329F0802F0E94BA2098
:103650008D81E3CE8D810E943219802F0E94EB2054
:103660007ECE2D81223F91F160F4203FD9F0213FA1
:1036700031F1112309F443C0011158CE8E818F71AD
:1036800022C08D81833F39F1843F99F7112369F17D
:103690000E810F71802F0E94BA2063E0802F0E945C
:1036A0006E235DCE112339F0011159CE8E818F71B9
:1036B0000E94202154CE023008F051CEF7CF8E81E7
:1036C0008F71112359F20E94BA2049CE8E818F71D9
:1036D0001123C9F3C3CF112329F08E818F710E946A
:1036E00095203DCE0E9490203ACE81E00E94832317
:1036F000023008F434CE82E00E94832330CE0023CF
:1037000061F09D81993309F0B7CEEFEFF7EE23E03A
:10371000E150F0402040E1F7ADCE8E818F719ECF19
:103720004E814F706D81C6010E9457060E947A1F1C
:1037300016CEED81E05FE730B8F5F0E0EB53FB4CDF
:103740000C943832112349F08091110391E08927BC
:103750008093110302C0109311034E814F706D814D
:10376000C6010E94ED07FBCD81E08127F1CF81E00A
:10377000112371F3F2CF1111F0CF10921103EDCF9D
:10378000112319F00E94B922E8CF0E94C522E5CF8B
:10379000112339F0809110038823B1F210921003A5
:1037A000DCCF002389F2D9CF809110030023C1F030
:1037B000882341F08091110391E0892780931103C0
:1037C000109210038D81112319F00E942C18C5CF7F
:1037D0000E94C21886E0F60111928A95E9F7BDCFE2
:1037E000882309F4BACF1111B8CF8091110391E069
:1037F000892780931103D2CF26960FB6F894DEBFA7
:103800000FBECDBFDF91CF911F910F91FF90EF9031
:10381000DF90CF90BF90AF909F908F907F906F90F0
:1038200008950F931F93CF93DF93EC016881798103
:103830008A810E9471228C010E94C9210E94052068
:10384000B801CE01DF91CF911F910F910C943919DE
:10385000CF93DF93EC018B819C81892B29F08881A8
:10386000998189238F3F59F4DF91CF910895CE013B
:103870000E94111CCE01DF91CF910C945F07CE0105
:103880000E94A5078111F3CF0E94DF22882361F3F4
:103890008A81882349F382E0DF91CF910C948323BE
:1038A000882321F00E94FD220C9438230895882358
:1038B00021F00E9403230C94382308950E940B23C7
:1038C0000E941C230E9438230E9423290E94F9276A
:1038D00090E080E00E94C31690E080E00C94D9163E
:1038E0000E94A9220C945E1C0E94FA220C94701C67
:1038F000282F892F82958F70903C80F48A30B0F405
:10390000843020F4823090F480E008958630E1F72E
:1039100081E0283E88F0213FB9F70EC08C3011F0CD
:103920008F3091F793FB882780F9089581E0203F3D
:1039300039F018F4283E40F70895243F29F7FCCFCA
:1039400008950E9465220C94781CCF93DF9300D0D9
:1039500000D00F92CDB7DEB70F900F900F900F9061
:103960000F90DF91CF910895CF93DF9300D000D0D7
:1039700000D0CDB7DEB726960FB6F894DEBF0FBEE7
:10398000CDBFDF91CF9108951F93CF93DF93E09147
:10399000120316E0809113038E1304C0DF91CF91C0
:1039A0001F910895CE2FD0E01E9FF0011124EC5EF0
:1039B000FC4F4081518162817381848195810E9495
:1039C000B41CFE013196E770E5CF4091440350915D
:1039D000450360914603709147038091480390919D
:1039E00049030C94B41C1F93CF93DF938091490338
:1039F000807FA9F480914603882389F08091120387
:103A0000C09113036091440370914503A091470353
:103A1000B0914803D62FD72316E0C81304C0DF9116
:103A2000CF911F91089590E0109711F0DF3F19F4A6
:103A300001968770F2CF189F9001199F300D1124C5
:103A4000F901EC5EFC4F41814713F2CF40814613F0
:103A5000EFCF42814111ECCF438154814A1B5B0B74
:103A6000483C510528F7809149038F70806180930D
:103A70004903F901E75EFC4F80818F70806180838C
:103A800084E493E00E94281CDF91CF911F910C9455
:103A9000C41CAF92BF92CF92DF92EF92FF920F932E
:103AA0001F93CF93DF93CDB7DEB72B970FB6F89464
:103AB000DEBF0FBECDBF8C0185E0F801DE01179699
:103AC00001900D928A95E1F7F80140815181E280E1
:103AD00084E4C82E83E0D82E609147037091480398
:103AE0006115710509F444C1909144032091450387
:103AF000822F89238F3F09F43BC1A380B480F090CB
:103B00004603F501E61BF70BFF2009F4E0C08091A6
:103B10004903382F307FE83CF10508F0B2C031117D
:103B200079C0FE2C251323C0941321C0E1101FC0BF
:103B30008F708061809349030E94E51CC6010E943A
:103B4000281C80914903F80185838F2D2B960FB691
:103B5000F894DEBF0FBECDBFDF91CF911F910F91C3
:103B6000FF90EF90DF90CF90BF90AF900895AB287B
:103B700029F0842F85238F3F09F016C180E0F82FAC
:103B8000F170DF2EE09112032091130336E080FDE7
:103B90001CC0EE20D1F280914903816080934903DB
:103BA000F12CD3CF8E2F90E03E9FF0011124EC5EDC
:103BB000FC4F6181651306C06081641303C062819C
:103BC000E612E7CFFC013196E770E213EBCF4F83AB
:103BD00058878F8198850E946522292F22952F7002
:103BE000903260F0225F2F70223078F49F7051F095
:103BF000F8019581907F31F4D12C0AC09F7011F0AB
:103C00008823D1F3805E8830B8F3C8010E94281C55
:103C1000FD2C9BCF251306C0941304C0F801EE20A1
:103C200009F470C04F8358878F8198850E94A11C2A
:103C3000882319F1EE2009F180914903803270F058
:103C400020914403309145033A8329831B82BD822E
:103C5000AC828E83CE0101960E94281C86E0F8017A
:103C6000A4E4B3E001900D928A95E1F70E94F31C61
:103C70000E94E51CFF24F39468CFC8010E94281C11
:103C8000F9CF311113C07A2DBB86AA866E2D8B8594
:103C90000E94A51C84E493E00E94281C86E0F601A3
:103CA00011928A95E9F70E94E51C7ACF2513BACFC5
:103CB0009413B8CFE110B6CFF8018583C8010E94F4
:103CC000281C86E0F60111928A95E9F73ECFE83C80
:103CD000F10508F040C0FE2CEE2079F225132AC031
:103CE000941328C08091490380FD1BC0982F907FBA
:103CF000C1F0F8018583903F31F0982F907F905F5D
:103D00008F70892B8583C8010E94281C86E0F801EA
:103D1000A4E4B3E001900D928A95E1F70E94E51CBE
:103D200014CF86E0F801A4E4B3E001900D928A95E7
:103D3000E1F70BCF4F8358878F8198850E94A11C94
:103D400081118CCF80914903816080934903C80120
:103D50000E94281CFACE7A2DBB86AA866E2D8B85F2
:103D60000E94A51C86E0F60111928A95E9F7D6CF4C
:103D7000EE2009F482CF4F8358878F8198850E9467
:103D8000A11CF82E882309F478CF86E0F801A4E47A
:103D9000B3E001900D928A95E1F784E493E00E94EC
:103DA00018180E94F31CBACF81E08E25E8CE88EC6B
:103DB00090E008951F93CF93DF93CDB7DEB72C9794
:103DC0000FB6F894DEBF0FBECDBF4F83588769870B
:103DD0007A878B879C87CE0107960E94491D88238E
:103DE00069F08A859B85892B39F04F815885842F0E
:103DF00085238F3F09F077C016E065C086E0FE019D
:103E00003796DE01119601900D928A95E1F76A8549
:103E10007B856115710581F35F814885842F85233A
:103E20008F3F51F32091130330E0C9010196877051
:103E30009927E0911203E817190671F40E94741C87
:103E4000109213031092120386E0E4E4F3E0DF0122
:103E50001D928A95E9F7D0CF59834A837D836C837D
:103E600096E0929FD001939FB00D1124AC5EBC4FA1
:103E7000FE01319601900D929A95E1F7809313031C
:103E80000E94C41CB9CF819FC00111248C5E9C4F3D
:103E90000E94491D8823E9F0E09112031E9FF00162
:103EA0001124EC5EFC4F40815181628173818481D9
:103EB00095810E94B41C8091120390E00196877056
:103EC0009927809312038091120390911303891311
:103ED000DACF2C960FB6F894DEBF0FBECDBFDF91C0
:103EE000CF911F91089569857A858B859C850E9465
:103EF000B41C82CFEF92FF920F931F93CF93DF9367
:103F00008C01892B89F0F12CEE24E394E8012196B1
:103F1000F8018491843709F457C0A0F4823009F481
:103F20003EC048F48130D1F0DF91CF911F910F91C5
:103F3000FF90EF9008959CEF980F9037A8F70E949C
:103F40002C180AC0853709F44CC09CE7980F9037AD
:103F500058F78F770E94C2188E0116C00E5F1F4F50
:103F6000FE01849190E2980F983060F48770FE2DE6
:103F700001C0FF0F8A95EAF78F2F0E940E230E943F
:103F8000382302C00E942C188F2D815008F4BECF18
:103F9000EFE9FFE03197F1F700C00000F6CF0E5FC8
:103FA0001F4FFE01849190E2980F983050F4877073
:103FB000FE2D01C0FF0F8A95EAF78F2F0E94142370
:103FC000DECF0E94C218E0CF0E5F1F4FFE01C491EA
:103FD000C150D0F28FE99FE00197F1F700C00000D7
:103FE000F7CF0E5F1F4FFE01F490CECF08950C94D3
:103FF000F61F0E94F71F60938503709386038093DA
:104000008703909388030C945E1C08950C94F91F09
:10401000CF93DF9300D000D0CDB7DEB769837A832A
:104020008B839C838091850390918603A091870365
:10403000B091880329813A814B815C81282B392BEF
:104040004A2B5B2B29833A834B835C83CA01B901DA
:104050000F900F900F900F90DF91CF910C94F91F5C
:10406000CF93DF9300D000D0CDB7DEB769837A83DA
:104070008B839C838091850390918603A091870315
:10408000B091880329813A814B815C8128233923AF
:104090004A235B2329833A834B835C83CA01B9019A
:1040A0000F900F900F900F90DF91CF910C94F91F0C
:1040B000CF93DF9300D000D0CDB7DEB769837A838A
:1040C0008B839C838091850390918603A0918703C5
:1040D000B091880329813A814B815C812827392757
:1040E0004A275B2729833A834B835C83CA01B90142
:1040F0000F900F900F900F90DF91CF910C94F91FBC
:104100000C94F61F0C9480200E94822060938103FF
:104110007093820380938303909384030C945E1CBA
:1041200060E070E0CB010C9484200F931F93CF9339
:10413000DF9300D000D0CDB7DEB741E050E060E0C3
:1041400070E08A019B0104C0000F111F221F331F62
:104150008A95D2F709831A832B833C83C901B8015E
:104160000F900F900F900F90DF91CF911F910F91B3
:104170000C9484200F931F93CF93DF9300D000D033
:10418000CDB7DEB741E050E060E070E004C0440F1E
:10419000551F661F771F8A95D2F7809181039091F2
:1041A0008203A0918303B09184038A019B01082BB1
:1041B000192B2A2B3B2B09831A832B833C83C901A0
:1041C000B8010F900F900F900F90DF91CF911F913A
:1041D0000F910C9484200F931F93CF93DF9300D003
:1041E00000D0CDB7DEB741E050E060E070E004C041
:1041F000440F551F661F771F8A95D2F7409550953B
:10420000609570958091810390918203A0918303C2
:10421000B09184038A019B01082319232A233B239D
:1042200009831A832B833C83C901B8010F900F9037
:104230000F900F90DF91CF911F910F910C948420DC
:104240000F931F93CF93DF9300D000D0CDB7DEB78D
:1042500041E050E060E070E004C0440F551F661F6D
:10426000771F8A95D2F78091810390918203A09164
:104270008303B09184038A019B01082719272A2709
:104280003B2709831A832B833C83C901B8010F9014
:104290000F900F900F90DF91CF911F910F910C9481
:1042A0008420CF93DF9300D000D0CDB7DEB76983F1
:1042B0007A838B839C838091810390918203A09168
:1042C0008303B091840329813A814B815C81282B3F
:1042D000392B4A2B5B2B29833A834B835C83CA019E
:1042E000B9010F900F900F900F90DF91CF910C9428
:1042F0008420CF93DF9300D000D0CDB7DEB76983A1
:104300007A838B839C838091810390918203A09117
:104310008303B091840329813A814B815C812823F6
:1043200039234A235B2329833A834B835C83CA0165
:10433000B9010F900F900F900F90DF91CF910C94D7
:104340008420CF93DF9300D000D0CDB7DEB7698350
:104350007A838B839C838091810390918203A091C7
:104360008303B091840329813A814B815C812827A2
:1043700039274A275B2729833A834B835C83CA0109
:10438000B9010F900F900F900F90DF91CF910C9487
:1043900084200895292F220FE22FE90FEE0FE80F56
:1043A0008E2F877041E001C0440F8A95EAF7E695A9
:1043B000E695E69585E0E89FF0011124E65BFC4F69
:1043C00030E020E070E05191DF011197CB01022E27
:1043D00002C0969587950A94E2F7817081958527AA
:1043E000842385278C932F5F3F4F2530310559F764
:1043F0000895292F220FE22FE90FEE0FE80F9E2FCD
:104400009770E695E695E69585E0E89FF001112422
:10441000E65BFC4F50E040E080E0219130E0092E67
:1044200002C0369527950A94E2F721703327042EAF
:1044300001C0220F0A94EAF7822B4F5F5F4F45308D
:10444000510559F70895BF92CF92DF92EF92FF92F4
:104450000F931F93CF93DF938C01C0908103D09073
:104460008203E0908303F090840380918503909110
:104470008603A0918703B0918803C82AD92AEA2A23
:10448000FB2ACFE1D0E0BC2ED701C6010C2E04C020
:10449000B695A795979587950A94D2F780FD0EC09B
:1044A000219788F7B12C8B2DDF91CF911F910F9120
:1044B000FF90EF90DF90CF90BF900895B8018C2FC0
:1044C0000E940A08019761F3EECFCF93DF93D82FB4
:1044D000C92F0E9423226D2F7C2FDF91CF910C9446
:1044E0000A081F93CF93DF93162FD72F90910F03B6
:1044F000992339F0862F972FDF91CF911F910C943C
:104500006522882391F0862F972F0E942322C82F9F
:10451000682F812F9D2F0E94CA21612F7D2F8C2F04
:10452000DF91CF911F910C940A08862F972F0E943C
:10453000F921C82FF2CF682F80911F01909120019F
:104540000C941F25682F80911F01909120010C94DD
:104550002A2580911F01909120010C94352580918E
:104560008A03859585958595089580918A0387703E
:10457000089582E08093890381E080931103089578
:10458000109289031092110308958091890382305B
:1045900021F481E0809389030895833011F40C9411
:1045A000C022089580918903823021F483E08093B2
:1045B00089030895813011F40C94C02208959091DC
:1045C0008A03977081E009F480E008958091AE033A
:1045D00008959091AE03982B9093AE030895982F71
:1045E00090958091AE0389238093AE0308958093C4
:1045F000AE0308951092AE0308959091AD03982BE9
:104600009093AD030895982F90958091AD038923E1
:104610008093AD0308951092AD0308959091AC037B
:10462000982B9093AC030895982F90958091AC03AC
:1046300089238093AC0308951092AC030895809170
:104640008B03089508950C94222390918B0398175F
:1046500021F080938B030C942323089580918B0386
:10466000882329F010928B0380E00C942323089573
:10467000E0911F01F09120018091AE038083E091D1
:104680001F01F091200180819091AD03892B8083DF
:10469000E0911F01F091200180819091AC03892B62
:1046A000808390918B03992381F0E0911F01F09119
:1046B00020018081892B808380911F0190912001AE
:1046C0000E94872481110E942E2380911F019091C6
:1046D00020010C94991608950C946B2398E0899FFF
:1046E00090011124622B60938A030E94BA2080916A
:1046F0008A038595859585950C946C2310928A0381
:1047000080E00C946C2390918A0380958923809398
:104710008A03282F277071F4282F082E000C330BE2
:104720009217130639F08595859585950E94EB20A3
:104730000C947E2308950F931F93462F572FBC018F
:10474000CB01AA27BB270097A105B105E9F1AC0170
:10475000BD0180E1052F162F272F332701151105E5
:104760002105310519F0885FB901A8018A019B0173
:10477000F4E03695279517950795FA95D1F7011529
:1047800011052105310519F08C5FB901A8018A01D5
:104790009B01E2E03695279517950795EA95D1F7A5
:1047A000011511052105310519F08E5FB901A80128
:1047B0007695679557954795452B462B472B09F0DE
:1047C0008F5F1F910F91089580E0C4CF90E080E04B
:1047D0000E942A349C0181E02C3E3E4F09F080E08B
:1047E000089582E090E00C941C3483E090E00C94F7
:1047F0001C34CF9384E090E00E941C34C82F81E2E7
:1048000090E00E941C34982F8C2FCF910895CF9365
:10481000682FC92F84E090E00E9430346C2F81E231
:1048200090E0CF910C9430348FE090E00C942434DD
:10483000AB01BC018FE090E00C944234AB01BC01B1
:1048400083E190E00C94423460E070E0CB010C9482
:104850001E246CEE7EEF90E080E00E944E3460E01B
:1048600082E090E00E94303460E083E090E00E94BB
:1048700030341092850310928603109287031092B1
:10488000880360E084E090E00E94303460E081E2E0
:1048900090E00E94303460E085E090E00E94303487
:1048A00060E086E090E00E9430346FEF87E090E0B7
:1048B0000E94303440E050E0BA0188E090E00E946D
:1048C000423460E08DE090E00E94303440E050E0FF
:1048D000BA0188E190E00E94423460E087E190E014
:1048E0000E94303440E050E0BA018CE190E00E9438
:1048F000423460E080E290E00E9430340C942D0657
:104900000C942924682F8EE090E00C943034FC0144
:10491000329680913101882321F0809134049EE108
:1049200087FF96E080E0915008F4089521912223BA
:10493000D1F38F5FF8CF9C01662301F180913101A3
:104940008823F1F08091340487FF1AC0462F4695E2
:1049500046954695603F90F4677081E090E002C014
:10496000880F991F6A95E2F7240F311DF901228102
:1049700030E02823392381E0232B71F480E008956F
:10498000F9013296285F3F4F8191861721F0E21797
:10499000F307D1F7F3CF81E008959C01FC01329633
:1049A0008FEF90E04191461751F08F3F19F441117C
:1049B00001C0892F9F5F9630A9F78F3F09F40895B2
:1049C000280F311D87FD3A95F901628308959C01F6
:1049D000FC013296285F3F4F8191861303C0DF01AF
:1049E00011971C92E217F307B9F70895E62FE695A1
:1049F000E695E695603F68F4E80FF92FF11D6770C2
:104A000021E030E001C0220F6A95EAF78281822B13
:104A100082830895E62FE695E695E695603F70F46B
:104A2000E80FF92FF11D677081E090E001C0880F59
:104A30006A95EAF78095928189238283089520916F
:104A40003101222329F02091340427FD0C94F6240F
:104A50000C94CD2420913101222329F0209134049B
:104A600027FD0C940A250C94E724FC0132968091D2
:104A70003101882351F08091340487FF06C08EE114
:104A8000DF011D928A95E9F7089586E0F9CF089530
:104A90000C9447250E94482580913A04843009F4FB
:104AA00039C01092B00388E190E020E40FB6F8948A
:104AB000A895809360000FBE2093600080E00E9464
:104AC0008D070E94E5118091B10381110AC081E038
:104AD0008093B1038091EA0381708093B2030E94B6
:104AE00000110E94482583B7817F846083BF83B70C
:104AF000816083BF7894889583B78E7F83BF0FB61C
:104B0000F894A8958091600088618093600010926D
:104B100060000FBE08950895CF930E9461040E9423
:104B200074040E948B25C0E08C2F0E94D90481114F
:104B300005C0CF5FCE30C1F7CF91089581E0FCCFA3
:104B400008950C94A0250E94741C0E948D160E944A
:104B50008D071092B1038091B20381110E94DD1183
:104B60000E9412110C94A1251F921FB61F921124AE
:104B70008F939F93AF93BF938091B003811113C024
:104B80008091300490913104A0913204B0913304AB
:104B90004196A11DB11D8093300490933104A093E0
:104BA0003204B0933304BF91AF919F918F911F90C6
:104BB0001FBE1F90189582E084BD93E095BD9AEFCB
:104BC00097BD80936E0008952FB7F89480913004BC
:104BD00090913104A0913204B09133042FBF089515
:104BE0009C014FB7F8948091300490913104A091CA
:104BF0003204B09133044FBF821B930B0895789415
:104C00001F921FB61F9211248F939F93AF93BF9350
:104C10008091300490913104A0913204B09133041A
:104C20000196A11DB11D8093300490933104A0938F
:104C30003204B0933304BF91AF919F918F911F9035
:104C40001FBE1F901895F89481E08093E00080E2E9
:104C50008093D800E9ECF0E010828FE19EE40197A8
:104C6000F1F700C000001DBA109268001CBC10BE15
:104C70001FBA10927A0010926E0010926F0010927C
:104C80007100109272001082ECEBF0E0108214B808
:104C900017B81AB81DB810BA108215B818B81BB8D2
:104CA0001EB811BA0C94003F0895CF93DF9300D043
:104CB00000D0CDB7DEB70E94E623811102C00E946A
:104CC00080240E94F1238093AF030E94F9239093E4
:104CD0003504809334040E94F523282F30E050E0FF
:104CE00040E0CA01B9010E940620809181039091A1
:104CF0008203A0918303B091840389839A83AB8359
:104D0000BC83BC01CD010F900F900F900F90DF91ED
:104D1000CF910C9482208091BB0380FF12C06091E0
:104D2000250185E0689FB0011124759567957595FB
:104D3000679560387105A8F561157105A1F1862F99
:104D4000089581FF09C06091250185E0689FB00149
:104D5000112475956795EDCF6091250182FD0AC0FC
:104D60008091BA038823D1F09091240160912501AC
:104D7000891728F085E0689FB0011124DACF869F5B
:104D8000B001112485E0869F9001879F300D11248A
:104D9000692F70E0C9010E940232CBCF65E070E05C
:104DA000CECF8FE7089581E008958091BB0380FF07
:104DB0000CC06091220170E07595679575956795B7
:104DC0006115710549F1862F089581FF06C0609134
:104DD000220170E075956795F3CF6091220182FD05
:104DE0000BC09091B9039923A1F0609121018091AA
:104DF0002201961738F0682F70E06038710500F3D3
:104E00008FE70895899FC001112470E00E9402324B
:104E1000F4CF61E070E0D7CF81E00895803F31F4B6
:104E20000E948B2681958093BF030895813F19F4DA
:104E30000E948B26F8CF823F31F40E948B26819509
:104E40008093BE030895833F19F40E948B26F8CF08
:104E5000893F29F40E94D5268093C00308958A3F94
:104E600021F40E94D5268195F7CF8B3F31F40E9423
:104E7000D52681958093C10308958C3F19F40E9433
:104E8000D526F8CF843F31F48091BD0381608093B3
:104E9000BD030895853F21F48091BD038260F7CF63
:104EA000863F21F48091BD038460F1CF873F21F4D8
:104EB0008091BD038860EBCF883F21F48091BD03D2
:104EC0008061E5CF8D3F31F48091BB038160809399
:104ED000BB0308958E3F21F48091BB038260F7CF1E
:104EE0008F3FB9F78091BB038460F1CF9091BE03EF
:104EF000803F59F48091BF0387FF0DC01092BF031C
:104F000091110BC01092BA0308C0813F81F48091C7
:104F1000BF0318169CF3992381F08091C0039091F0
:104F2000C103892B09F064C01092B9030895823F30
:104F300049F497FFF0CF1092BE038091BF03811117
:104F4000ECCFE0CF833F19F41916ACF3E4CF2091F6
:104F5000C003893F29F41216F4F61092C003DBCF88
:104F60008A3F19F427FFD7CFF8CF2091C1038B3F99
:104F700029F427FFD0CF1092C103CDCF8C3F19F475
:104F80001216CCF3C8CF843F31F48091BD038E7FDD
:104F90008093BD03C0CF853F21F48091BD038D7FF9
:104FA000F7CF863F21F48091BD038B7FF1CF873F00
:104FB00021F48091BD03877FEBCF883F21F480915E
:104FC000BD038F7EE5CF8D3F31F48091BB038E7F93
:104FD0008093BB03A0CF8E3F21F48091BB038D7FD4
:104FE000F7CF8F3F09F097CF8091BB038B7FF0CF36
:104FF00008950E94E4252091BE033091BF03232B26
:1050000021F08093B7039093B8032091C0033091AF
:10501000C103232B21F08093B5039093B6038CEB4F
:1050200093E00C94B416EF92FF920F931F93CF93DB
:10503000DF9300D000D000D0CDB7DEB786E0ECEB38
:10504000F3E0DE01119601900D928A95E1F7E09070
:10505000BE03F090BF030091C0031091C1031092F2
:10506000BE031092BF031092C0031092C1038F2D94
:105070008E2991F08091B7039091B8030E94F0259A
:105080009C018091BA03882309F443C090912601C2
:105090009217130608F44BC0802F812B91F080915A
:1050A000B5039091B6030E94F0259C018091B9034D
:1050B000882309F47BC0909123019217130608F40A
:1050C00083C08091BE039091BF03892B9091C00350
:1050D000892B9091C103892B11F00E94F927EB8253
:1050E000FC820D831E8386E0FE013196ACEBB3E0BB
:1050F00001900D928A95E1F726960FB6F894DEBFDF
:105100000FBECDBFDF91CF911F910F91FF90EF9018
:1051100008954091B4039AE0499FA00111244217D9
:10512000530708F0B9CF8F5F8093BA0302C08F3F57
:10513000D1F7EE2059F00E948B269FEF1E140CF43D
:1051400091E0899F802D11248093BE03FF2059F0A8
:105150000E948B269FEF1F140CF491E0899F802DF5
:1051600011248093BF033091BE03332309F494CFFD
:105170002091BF03222309F48FCF45EB3403C001F4
:105180001124992359F09093BE0345EB2403900119
:105190001124332339F03093BF037ECF81E0809315
:1051A000BE03F3CF81E08093BF0376CF4091B3037A
:1051B0009AE0499FA00111244217530708F081CFBC
:1051C0008F5F8093B90302C08F3FD1F7002359F05E
:1051D0000E94D5269FEF10160CF491E0899F802D38
:1051E00011248093C003112359F00E94D5269FEF0C
:1051F00011160CF491E0899F802D11248093C10336
:105200003091C003332309F45CCF2091C1032223E2
:1052100009F457CF45EB3403C0011124992359F009
:105220009093C00345EB240390011124332339F0FC
:105230003093C10346CF81E08093C003F3CF81E078
:105240008093C1033ECF86E0ECEBF3E0DF011D92DB
:105250008A95E9F71092BA031092B9031092BB0332
:105260000895843009F442C038F48230E9F0833084
:1052700061F1813041F00895853009F448C08630ED
:1052800009F456C008958091B403482F460F55275E
:10529000551F4F3F510524F4680F6093B4030895E0
:1052A0008FEF8093B403089580912601482F460F15
:1052B0005527551F4F3F510524F4680F6093260171
:1052C00008958FEF80932601089580912501482F3E
:1052D000460F5527551F4F3F510524F4680F609323
:1052E000250108958FEF8093250108958091240171
:1052F000482F460F5527551F4F3F510524F4680F7F
:105300006093240108958FEF809324010895809184
:105310002201482F460F5527551F4F3F510524F4B2
:10532000680F6093220108958FEF80932201089502
:1053300080912101482F460F5527551F4F3F51059A
:1053400024F4680F6093210108958FEF8093210169
:105350000895843071F138F48230A9F08330F1F08F
:10536000813031F00895853079F18630C1F10895AA
:105370008091B403681720F4861B8093B4030895CA
:105380001092B403089580912601681720F4861BBB
:105390008093260108951092260108958091250199
:1053A000681720F4861B809325010895109225012B
:1053B000089580912401681720F4861B80932401AE
:1053C000089510922401089580912201681720F415
:1053D000861B8093220108951092220108958091E6
:1053E0002101681720F4861B8093210108951092F3
:1053F000210108950F931F93CF93DF9300D000D026
:10540000CDB7DEB741E050E060E070E08A019B017B
:1054100004C0000F111F221F331F8A95D2F7098382
:105420001A832B833C83C901B8010E9406200F9088
:105430000F900F900F90DF91CF911F910F910C94CF
:10544000741CEBEFE80FEF3308F05AC0F0E0E453C0
:10545000FB4C0C9438320E94802481E008958091A6
:10546000AF03807F8093AF0381E08093C3030895EF
:105470000E949607F2CF9091AF03892F8E7F90FF05
:1054800081608093AF0380FDE8CF817F8093AF037D
:10549000E4CF9091AF03892F8D7F91FF826080933D
:1054A000AF0381FFDACF8091AF038160EFCF90919E
:1054B000AF03892F8B7F92FF84608093AF0382FDBF
:1054C000F2CFCBCF9091AF03892F877F93FF886076
:1054D0008093AF0383FDE7CFC0CF0E94741C9091EF
:1054E0003404892F97FB87F9805880933404B5CF13
:1054F00080E00E94FA29B1CF8953FBCF8D51F9CFBB
:1055000080E0089580E008950C94822A8E518A30BC
:1055100030F4E82FF0E0EF59FD4F8081089580E0EE
:105520000895CF93C82F8091C3038130C9F0823092
:10553000E9F1811181C00E94E622813159F48C2F5A
:105540000E94822A811125C08C2F0E94212A8170FD
:10555000CF9108950E94E622823289F380E0F8CF4D
:105560000E94E622813159F30E94E622823239F309
:105570008C2F0E94842A81110AC0C431A1F060F4EA
:10558000CB3029F0C03119F782E08093C30381E06A
:10559000DECF81E090E0DBCFC93229F081E0C83373
:1055A000B1F280E0D4CF1092C303FBCFCB3469F1CA
:1055B00098F4C43240F4CE3100F5C73061F1C43103
:1055C00021F081E0C5CFC932E1F78091C203882381
:1055D00081F01092C203F5CFC135A9F061E0C23568
:1055E000A9F06AE0CE3469F78091C2030E94A9292C
:1055F000E8CF81E08093C303ABCF8C2F0E94862A33
:105600008093C203DECF61E0EFCF6AE08091C203F6
:105610000E943129D6CF1092B40384E180932601F1
:10562000C09325018CE38093240188E080932201BC
:1056300088E280932101C5CF1092C3038FCF809160
:10564000E4030895CF93DF9300D00F92CDB7DEB778
:1056500090913A04943019F589836A837B8382E0C0
:105660008093E9008FEF9091E800815095FD06C08E
:1056700095ED9A95F1F700008111F5CF8091E80042
:1056800085FF0DC050E040E063E070E0CE01019680
:105690000E944C2D8091E8008E778093E8000F9057
:1056A0000F900F90DF91CF910895BC0184E00C948E
:1056B000222BBC0183E00C94222B22E02093E900F2
:1056C0002FEF3091E800215035FD06C035ED3A95B9
:1056D000F1F700002111F5CF2091E80025FF0BC064
:1056E00050E040E066E070E00E944C2D8091E800C0
:1056F0008E778093E8000895CF93DF93D82FC92F3A
:10570000809131018823C1F18091340487FF34C036
:1057100060E282E08093E9008FEF9091E800815091
:1057200095FD06C095ED9A95F1F700008111F5CF32
:105730008091E80085FF1DC08091310170E050E04C
:1057400040E0811104C050E040E068E070E08D2F3F
:105750009C2F0E944C2D8091E8008E778093E8006A
:1057600080E2ED2FFC2FA4ECB3E001900D928A951E
:10577000E1F7DF91CF91089568E081E0CBCF809190
:105780003904811109C00E94D42E0E94312F8091CA
:10579000E20084608093E200089510923904089535
:1057A000089508950C94A32542E061EC81E00E94E5
:1057B000502E42E261EC82E00C94502E80913C0429
:1057C000893089F148F4823009F49DC0833009F4AE
:1057D00058C0813041F008958A3009F484C08B307C
:1057E00009F46AC0089580913B04813A09F048C0E9
:1057F0008091E800877F8093E80080913F0490913A
:105800004004892B61F460E284EC93E070E00E9434
:105810009B2D8091E8008B778093E800089560E0ED
:1058200090E080E0F3CF80913B04813249F5809194
:105830003F0490914004029718F58091E800877F1B
:105840008093E8008091E80082FF16C09091F300F9
:105850008091F200029729F48091F1008B7F8130D2
:1058600021F48091F1008093E4038091E8008B772C
:105870008093E8000C94842E80913A048111E2CF49
:10588000089580913B04813AD9F780913F0490912B
:105890004004892BA9F78091E800877F8093E80076
:1058A0008091E80080FFFCCF809131018093F1006E
:1058B0008091E8008E77DCCF80913B04813201F744
:1058C00080913F0490914004892BD1F68091E800AB
:1058D000877F8093E8000E94842E80913D0480930E
:1058E00031010C94741C80913B04813249F6809103
:1058F000E800877F8093E8000E94842E80913E0418
:105900008093E503089580913B04813A09F0B8CF74
:105910008091E800877F8093E8008091E80080FF15
:10592000FCCF8091E503C2CF84B7877F84BF0FB6D9
:10593000F894A8958091600088618093600010922F
:1059400060000FBE80E890E00FB6F894809361008D
:10595000909361000FBE0E94FD160E94D42E0E94FB
:10596000312F8091E20084608093E20078940E945D
:10597000B9310E94071787E291E00E948816809152
:105980003A04853019F00E941117F9CF0E944A2578
:1059900080913804882399F30E948C25882379F319
:1059A0000E94362DECCF0C94D52CFC01CB01DA01F2
:1059B0002F2F332723303105D1F070F421303105FA
:1059C00009F445C02230310569F48BE390E02EEBF9
:1059D00035E02D933C9308952132310521F1223297
:1059E000310559F190E080E030E020E0F2CFCF01C6
:1059F0009927E230A9F08330910550F4009769F0BF
:105A0000E8E8F5E0019771F7849190E09F01E1CF1C
:105A1000EAE6F5E00397C1F3E5CFEAEBF5E0F4CF72
:105A2000E0E7F5E0F1CF892BB9F061307105D1F6EF
:105A300089E090E029EE35E0CCCF892B91F0613000
:105A4000710581F68CEB90E02BE036E0C2CF82E16D
:105A500090E029EF35E0BDCF89E090E020ED35E022
:105A6000B8CF80E490E027EC36E0B3CF80E189BD89
:105A700082E189BD09B400FEFDCF8091D8008F7D01
:105A80008093D8008091E00082608093E000809154
:105A9000E00081FDFCCF0895AF92BF92CF92DF92DC
:105AA000FF920F931F93CF93DF936C01EB018A0159
:105AB0000E94A32EF82E811123C00115110539F083
:105AC000F80180819181C81BD90BC80ED91EB12C59
:105AD000A12C2097A9F08091E80085FD22C080913B
