:100000000C94E0020C94FD020C94FD020C94FD0291
:100010000C94FD020C94FD020C94FD020C94FD0264
:100020000C94FD020C94FD020C94412B0C94142CA6
:100030000C94A3210C94FD020C94FD020C94FD027F
:100040000C94FD020C94FD020C94FD020C94FD0234
:100050000C94FD020C940B220C94FD020C94FD02F6
:100060000C94FD020C94FD020C94FD020C94FD0214
:100070000C94FD020C94FD020C94FD020C94FD0204
:100080000C94FD020C94FD020C94FD020C94FD02F4
:100090000C94FD020C94FD020C94FD020C94FD02E4
:1000A0000C94FD020C94FD020C94FD020763423691
:1000B000B79BD8A71A39685618AEBAAB558C1D3CF9
:1000C000B7CC5763BD6DEDFD753EF6177231BF00BD
:1000D0000000803F05A84CCDB2D44EB93836A902F5
:1000E0000C50B9918688083CA6AAAA2ABE00000036
:1000F000803F0000F0A129002B00E000E100E200B9
:1001000000001E00140004001D00000000001F007D
:100110001A0016001B000000E30020000800070082
:1001200006000000E100210015000900190002513D
:100130000000220017000A00050000000000000077
:100140002C04000000000000000000002C0800004B
:1001500000000000000023001C000B001100000044
:100160000000240018000D001000015100002500BF
:100170000C000E00360000002C00260012000F00BC
:1001800037000000E70027001300330038000000AC
:10019000000035002A002800E500E60000000030DD
:1001A0003A08010001000100000000001E000000EC
:1001B00000000000010000001F00350000000000EA
:1001C00001000000200031002900000001000000B3
:1001D00021003400000000000100000022000000A7
:1001E000000000000100000000000000000000000E
:1001F00001000000000000000000000001000000FD
:1002000023000000000000000100000024002D0079
:10021000000001000100000025002E000000010088
:100220000100000026002F00000001000100000076
:100230002700300000000100010001000100010062
:100240000100010000000000000000000000005C50
:1002500000003A000000AA000000000001003B007E
:100260000000A9000000000001003C00F000A80010
:100270000000000001003D00000000000000000040
:1002800001003E000000000000000000010001002D
:10029000AC0000000000000001000000AB00000006
:1002A0000000000001003F0000000000000000000E
:1002B00001004000F400F2000000000001004100D5
:1002C000F000F10000000000B6004200F500F3006D
:1002D0000000000001004300440045000000000051
:1002E000010000000000AE0000000000000000045B
:1002F0006801F000B40078005A007F3F1F64321498
:10030000643214783C1E1E140A050000000000012F
:1003100001010101010101010202020202020202C5
:100320000203030303030303030404040404040596
:100330000505050506060606060707070708080857
:10034000080909090A0A0A0A0B0B0B0C0C0C0D0D03
:100350000D0E0E0F0F0F1010111111121213131496
:1003600014151516161717181819191A1A1B1C1C0C
:100370001D1D1E1F1F202021222223242525262764
:100380002728292A2B2B2C2D2E2F2F303132333496
:100390003536363738393A3B3C3D3E3F40414243A3
:1003A00044464748494A4B4C4D4F5051525355567D
:1003B00057585A5B5C5E5F606263646667696A6C2B
:1003C0006D6E707173747678797B7C7E80818384A6
:1003D00086888A8B8D8F91929496989A9B9D9FA1E7
:1003E000A3A5A7A9ABADAFB1B3B5B7B9BBBDBFC1ED
:1003F000C4C6C8CACCCFD1D3D6D8DADCDFE1E4E6B4
:10040000E8EBEDF0F2F5F7FAFCFF04033000000032
:1004100016034500720067006F0044006F0078000B
:10042000200045005A0000001603450072006700D6
:100430006F0044006F007800200045005A00000063
:100440000403090409026D00040100A0FA09040074
:1004500000010301010009211101000122400007F0
:1004600005810308000A09040100010301020009D3
:100470002111010001224D000705820308000A092D
:1004800004020001030000000921110100012236CD
:10049000000705830308000A0904030001030000A4
:1004A0000009211101000122390007058403200001
:1004B000011201100100000008EDFE071301000108
:1004C00002030105010906A101050719E029E71545
:1004D0000025019508750181020508190129059576
:1004E0000575019102950175039101050719002910
:1004F000F71500250195F875018102C005010980F5
:10050000A10185021601002603001A81002A83003A
:10051000751095018100C0050C0901A10185031624
:100520000100269C021A01002A9C02751095018187
:1005300000C005010902A1010901A1000509190175
:1005400029051500250195057501810295017503A1
:1005500081010501093009311581257F9502750852
:10056000810609381581257F950175088106050CDE
:100570000A38021581257F950175088106C0C005DE
:10058000010906A101050719E029E71500250195D4
:100590000875018102950175088101050819012975
:1005A00005950575019102950175039101050719DE
:1005B0000029FF150026FF00950675088100C00080
:1005C00011241FBECFEFDAE0DEBFCDBF11E0A0E007
:1005D000B1E0E2E1F3E602C005900D92AC3DB10757
:1005E000D9F723E0ACEDB1E001C01D92AB3BB207FF
:1005F000E1F70E946E280C9487310C94000080B3C0
:100600008C7080BB81B3836F81BB089584B1807F80
:1006100084B985B1807F85B98AB1837F8AB98BB16E
:10062000837F8BB93E9846980895CF93C82F873023
:1006300080F58091000190910101892B99F564E684
:1006400070E080E40E949A0490930101809300017D
:10065000892BD1F464E670E082E10E94EF0490936C
:10066000010180930001892B79F481E090E001C0C1
:10067000880FCA95EAF764E670E080950E94EF045F
:10068000909301018093000184E690E0CF910C9457
:1006900042058A30B9F040F4883071F0893079F041
:1006A000209A2898CF9108958C3091F070F08D3079
:1006B000B9F73E9A4698F6CF219A2998F3CF229A15
:1006C0002A98F0CF239A2B98EDCF529A5B98EACFD5
:1006D000539AFCCFCF93873008F042C0809100013D
:1006E00090910101C0E0892B81F464E670E080E420
:1006F0000E949A049093010180930001892B41F09C
:10070000C0E084E690E00E9442058C2FCF910895CE
:1007100064E670E083E10E94EF049093010180930E
:100720000001892B69F764E670E081E40E949A0475
:100730009093010180930001892B11F784E690E0EA
:100740000E941E0597FF05C0909301018093000150
:10075000D7CFC82FC0951092010110920001D1CFC0
:10076000CFB18FB1869586958C73C3708C2BC82FB3
:10077000C095CBCF0C9472060E94E60590E0909352
:100780000101809300010E9406030E94FF02E1E341
:10079000F2E08DED91E01192DC0126E01D922150F6
:1007A000E9F7069622E0EF33F207A9F70C947809EF
:1007B0000E94E60590E090930101809300010E9461
:1007C00006030E94FF02E1E3F2E0119282E0EF33C0
:1007D000F807D9F7089596E0899FF0011124E352B4
:1007E000FE4F30E020E080E041E050E0919199231D
:1007F00051F0DF01119791509C932F5F3F4F2630AE
:100800003105A1F70895BA01022E01C0660F0A94BE
:10081000EAF7862BF2CF96E0699FB001112430E011
:1008200020E090E045E0FC01022E02C0F595E7953E
:100830000A94E2F7E0FF06C0F901E60FF71FE35262
:10084000FE4F40832F5F3F4F2630310561F70895FB
:10085000EF92FF920F931F93CF93DF93809100014C
:1008600090910101892B91F08091DC018F5F809341
:10087000DC0181110BC00E94E60590E0909301011C
:1008800080930001892B11F40E94900501E312E08E
:10089000C0E08C2F0E94150387E0F82EFC0E8F2DF0
:1008A0000E9415038C2F0E94EB03E82E8C2F0E94D0
:1008B0006A03F80191918F01DE2DD095D9238E2105
:1008C000D82B6C2F892F8D270E940B04F8013197AC
:1008D000D0838F2D0E94EB03E82E8F2D0E946A0398
:1008E000F8019681DE2DD095D9238E21D82B6F2D3E
:1008F000892F8D270E940B04F801D6830E940603DE
:10090000CF5FC73031F60E947A0981E0DF91CF9145
:100910001F910F91FF90EF900895E82FF0E0EF5CAA
:10092000FD4F8081089508951092B9008CE0809366
:10093000B8000895EF92FF920F931F93CF93DF9328
:10094000182FEB011092BC0084EA8093BC000E9437
:10095000D5217C018091BC0087FF0DC08091B9003A
:10096000887F8830D9F08091B900887F8031B1F0DC
:100970008FEF9FEF0CC0CF3FDC0761F30E94D521C2
:100980008E199F098C179D0728F38EEF9FEFDF913B
:10099000CF911F910F91FF90EF9008951093BB009E
:1009A00084E88093BC000E94D5218C018091BC001A
:1009B00087FF0AC08091B900887F883111F08034A8
:1009C000B9F690E080E0E3CFCF3FDC0779F30E94F7
:1009D000D521801B910B8C179D0740F3D6CF0F9329
:1009E0001F93CF93DF93EB018093BB0084E8809348
:1009F000BC000E94D5218C018091BC0087FF11C0F2
:100A00002091B900287F81E090E0283211F490E035
:100A100080E0919581959109DF91CF911F910F9180
:100A20000895CF3FDC0741F30E94D521801B910B35
:100A30008C179D0708F38EEF9FEFEECF0F931F9358
:100A4000CF93DF93EC0184E88093BC000E94D52112
:100A50008C018091BC0087FF08C08091BB0090E0B2
:100A6000DF91CF911F910F910895CF3FDC0789F35C
:100A70000E94D521801B910B8C179D0750F38EEFA0
:100A80009FEFEECF0F931F93CF93DF93EC0184E999
:100A90008093BC000E94D5218C018091BC0084FD14
:100AA00007C090E080E0DF91CF911F910F910895F2
:100AB000CF3FDC0791F30E94D521801B910B8C174F
:100AC0009D0758F38EEF9FEFEECF259A2D9A08954C
:100AD000269A2E9A0895279A2F9A089556985E98E6
:100AE000089525982D98089526982E98089527986A
:100AF0002F9808950E946E050E9471050E9474054A
:100B00000C94770590E090938900809388009093EF
:100B10008B0080938A0090938D0080938C000895C1
:100B20000E947A058FEF0E9482050E9465052FEFD3
:100B300080E792E0215080409040E1F700C0000043
:100B40000E9468052FEF80E792E02150804090409E
:100B5000E1F700C000000E946B052FEF80E792E0F4
:100B6000215080409040E1F700C000000E947105D4
:100B70002FEF80E792E0215080409040E1F700C0E5
:100B800000000E9474052FEF80E792E02150804022
:100B90009040E1F700C000000E9477050C947A05B0
:100BA00089EA8093800089E08093810024982C98C2
:100BB0003F988AB18F7C8AB96E98479A8BB18063CF
:100BC0008BB9769A0E9490050C94710680E290E0B1
:100BD000909301018093000180913F0281110EC02A
:100BE0000E94940481E080933F022FEF83ED90E315
:100BF000215080409040E1F700C0000064E670E0C2
:100C000080E40E949A049093010180930001892B53
:100C100009F050C064E670E080E00E94EF04909319
:100C2000010180930001892B09F044C064E670E063
:100C300080E00E94EF049093010180930001892BD2
:100C4000C9F564E670E08FE30E94EF049093010120
:100C500080930001892B71F584E690E00E944205A3
:100C600064E670E080E40E949A049093010180930E
:100C70000001892BF9F464E670E08CE00E94EF0437
:100C80009093010180930001892BA1F464E670E048
:100C900080E00E94EF049093010180930001892B72
:100CA00049F464E670E08FE30E94EF049093010141
:100CB0008093000184E690E00E944205809100014B
:100CC0000895611107C0FC018281882331F085EE0F
:100CD0000E948C1590E080E0089585EE0E946716D2
:100CE000F9CF0895CF936091060370910703809127
:100CF0000803909109030E944D20C82F0E946E05A1
:100D00000E9471050E9474050E947705C13021F090
:100D1000C23029F0CF910895CF910C946505CF9101
:100D20000C94680581E0089581E008950C94940680
:100D30000E94DE192FEF84E39CE021508040904018
:100D4000E1F700C000000C943122FF920F931F9333
:100D5000CF93DF938C01FC01C081D18180919402FB
:100D6000811156C08281882309F44DC0CE010E94B2
:100D7000271FF82E682FCE010E94CB1EBE018F2D9B
:100D80000E949009EC01B8010E949606882309F49C
:100D900007C1B801CE010E94010C882309F400C1EB
:100DA000B801CE010E94500C882309F4F9C0C93C57
:100DB000FCE5DF0709F42DC108F061C0C13C9CE5EA
:100DC000D90709F4FEC0C8F5C531FCE5DF0728F5F1
:100DD000C2308CE5D80708F09BC1C1159CE5D90746
:100DE00009F4D9C0C130DC4509F4E1C081E0809349
:100DF000450280934602C801DF91CF911F910F9168
:100E0000FF900C949206CE010E94FB1EF82EB6CFE6
:100E1000CE010E94271FBE01B3CFC531FCE5DF071D
:100E200009F446C2C03CDC4509F7F80182818823F9
:100E300009F4B6C00E947D10B3C0F8018281C53CA0
:100E4000FCE5DF0709F4D6C068F4C33CECE5DE0737
:100E500009F4CBC008F4C0C0882309F4A1C00E94E3
:100E6000510F9EC0C73C9CE5D90709F4CDC008F4DA
:100E7000C6C0882309F494C00E94AC0F91C0C13D44
:100E8000FCE5DF0709F414C1F0F5F8018281CD3CDF
:100E9000FCE5DF0709F4D1C0D8F4CB3CECE5DE0774
:100EA00009F4C4C008F4BCC0882309F479C00E94C6
:100EB000FB0D623071058105910540F00E94FB0D2C
:100EC000653071058105910508F48CC082E0B2C0DF
:100ED000CF3C9CE5D90709F4D7C008F4C1C08823EA
:100EE00009F45EC00E94FB0D653171058105910515
:100EF00040F00E94FB0D673171058105910508F4F2
:100F000071C085E197C0C53DFCE5DF0709F4A4C1C8
:100F1000C0F4F8018281C33DFCE5DF0709F4E3C0BA
:100F200008F4CDC0882309F477C1109245020E94CD
:100F3000D521909342028093410282E00E94B6162E
:100F40002FC0C93DECE5DE0709F4D2C0CA3DFCE57F
:100F5000DF0709F4D6C0C63DDC4509F047CFF801EC
:100F6000828181117DC18091460281119FC1809152
:100F70004302909144020E94E121883C910508F0CF
:100F800095C180E20E94BD1688E20E948C1588E21D
:100F90000E94671605C0F801828181110E9498069F
:100FA00080E0DF91CF911F910F91FF900895F8019C
:100FB00082818823A9F38091330381608093330376
:100FC000EFCFF8018281882359F30E940E208272AC
:100FD00049F00E941F10E4CF882311F30E940E20D5
:100FE0008272B9F30E941510DBCF8823C9F20E94E8
:100FF000390FD6CF8823A1F20E94700FD1CF88235A
:1010000079F20E94820FCCCF882351F20E94940F74
:10101000C7CFF8018281882319F20E94090EC0CF40
:10102000882309F4BDCF0E941E0EBACF882309F48D
:10103000B7CF81E00E941210B3CF882309F4B0CF5C
:101040000E94FB0D663071058105910538F00E9404
:10105000FB0D683071058105910520F286E0EACF2D
:10106000882309F49DCF0E94FB0D6930710581052D
:10107000910540F00E94FB0D6E30710581059105D0
:1010800008F4B0CF89E0D6CF882309F489CF0E9435
:10109000FB0D6F3071058105910540F00E94FB0D3D
:1010A000643171058105910508F49CCF8FE0C2CFB2
:1010B000F8018281882309F473CF88E1BBCF8823AC
:1010C00009F46ECF0E94FB0D693171058105910510
:1010D00040F00E94FB0D623271058105910508F414
:1010E00081CF89E1A7CF882309F45ACF83E2A2CF29
:1010F000F8018281882309F453CF80E00E940929F6
:101100004FCFF8018281882309F44ACF82E0F6CFDD
:10111000F8018281882309F46ECE0E94BB208111E0
:1011200002C00E949A200E94CE2090E09093AD03CE
:101130008093AC03FE01E350FC458091AC038160D9
:10114000E231F105C8F4E955F74F0C943931B9088B
:10115000C508C908CD08D108D508D908DD08E108B7
:10116000E508E908ED08F108F508F908FD080109A6
:1011700005098091AC0382608093AC038091AC033D
:101180000E94D2200E94DE190BCF8091AC038460B4
:10119000F3CF8091AC038860EFCF8091AC03806186
:1011A000EBCF8091AC038062E7CF8091AC03806489
:1011B000E3CF8091AC038068DFCF8091AC03846083
:1011C000EACF8091AC038E7FD7CF8091AC038D7F27
:1011D000D3CF8091AC038B7FCFCF8091AC03877F3F
:1011E000CBCF8091AC038F7EC7CF8091AC038F7D36
:1011F000C3CF8091AC038F7BBFCF8091AC038F773F
:10120000BBCF8091AC038B7FEACF9091AC03892F49
:1012100097FB87F98058B0CF0E940E2085FF05C04C
:1012200081E08093450280934602809145028111BE
:101230000FC080914102909142020E94E121883CBE
:10124000910530F486E20E948C1586E20E946716B2
:1012500082E00E94BD16A4CEF8018281882351F05D
:10126000109246020E94D52190934402809343023B
:1012700080E264CE0E940E2081FF05C081E0809351
:101280004502809346028091460281110FC08091F1
:101290004302909144020E94E121883C910530F480
:1012A00087E20E948C1587E20E94671680E2D1CF08
:1012B0000E940E20F8019281992381F08A7A91E0B0
:1012C00009F490E090934002811106C089E20E94E7
:1012D000971F0E94DB1F64CE85E3F9CF8091400207
:1012E000811104C089E20E949E1FF3CF85E3FBCFEA
:1012F0000C94D0050C94BA03282F2F7041F0822F44
:1013000090E02A3010F44D9608950697089587E2EC
:1013100090E0089508950C948A090C948B0908951F
:10132000972F70E026E0929F600D711D1124FB0144
:1013300094E5899FE00DF11D1124EE0FFF1FEA5087
:10134000FF4F859194910895FC01EE0FFF1FEE5021
:10135000FF4F859194910895CF93DF930E94900958
:101360000E945D0BEC018115904508F043C0C1154A
:1013700080E4D80708F013C1C83ED10528F5C03E67
:10138000D10508F0A7C0C83AD10580F4C53AD10507
:1013900008F096C0C130D10509F49CC020F0C430DB
:1013A000D10508F097C0D0E0C0E094C0CD3BD10596
:1013B00008F494C0CE01805C9109C03CD10598F33B
:1013C0000E94A409EC0186C0C11520E2D20750F4A6
:1013D000C11581E0D80708F07DC0C03FD10518F3E2
:1013E000D06578C0C11520E3D20708F0CEC0CE0189
:1013F0009F70E6CFC11585E5D80760F5C11524E5D6
:10140000D20708F0FAC0C11582E5D80750F4C1151B
:1014100021E5D20708F4C6C0DC2FCC27C16FD06A03
:1014200059C09C2F969596959E0123703327C11520
:10143000D34508F0D3C0C1E0D0E002C0CC0FDD1F1F
:101440002A95E2F720E2929FC0011124C82BD92BE4
:10145000DC6840C0C1152AE5D207A0F4C11589E5B2
:10146000D80708F0D5C0C11526E5D20708F4CAC0D0
:10147000C11588E5D80708F496CFDC2FCC27C06FBC
:10148000D06A28C0C1152BE5D20708F48CCFC1154E
:101490008CE5D80708F4C9C0CE019056811590425A
:1014A00008F081CF8D2F8F710E94DD0BDD27D06278
:1014B00090E0982F882788279F71C82BD92B0AC0C6
:1014C000C53AD10509F4B4C0C63AD10509F4B3C090
:1014D000C3E8D0E4CE01DF91CF910895C83AD10599
:1014E00009F4ACC0C93AD10509F4ABC0CA3AD10578
:1014F00009F4AAC0CB3AD10509F4A9C0CC3AD10568
:1015000009F4A8C0CB3BD10509F4A7C0CC3BD10559
:1015100009F4A6C0CD3AD10509F4A5C0C03BD10558
:1015200009F4A4C0CE3AD10509F4A3C0CF3AD1053D
:1015300009F4A2C0C13BD10509F4A1C0C23BD10549
:1015400009F4A0C0C33BD10509F49FC0C43BD10539
:1015500009F49EC0C53BD10509F49DC0C63BD10529
:1015600009F49CC0C73BD10509F49BC0C83BD10519
:1015700009F49AC0C93BD10509F499C0CA3BD10509
:1015800009F098C0CAE2D6E4A5CFCE019927D3FFCF
:1015900003C0EC01D86C9ECFEC01D06C9BCFDF7008
:1015A000D06A98CFCE01E4E096958795EA95E1F769
:1015B00083709C2F937021E030E002C0220F331F14
:1015C0009A95E2F73C68382BC695C695C37080E2C1
:1015D000C89FE0011124C22BD32B7CCFC1E0D0E007
:1015E00002C0CC0FDD1F2A95E2F720E2929FC001D6
:1015F0001124C82BD92BDA686DCFDC2FCC27C46F10
:10160000D06A68CFDC2FCC27CC27DF71D06262CFC5
:10161000CE0134E0969587953A95E1F78F70CF70BB
:10162000C06ED0E0D06AD82B55CFDD27D06652CF20
:10163000C1E8D0E44FCFC2E8D0E44CCFC2EED4E44E
:1016400049CFC9EED4E446CFCAEED4E443CFC5EBCC
:10165000D4E440CFC6EBD4E43DCFC3EBD4E43ACFDF
:10166000C4EBD4E437CFC7EBD4E434CFCCECD4E430
:1016700031CFCDECD4E42ECFC3E8D5E42BCFCAE8EC
:10168000D5E428CFC2E9D5E425CFC4E9D5E422CFFB
:10169000C1E2D6E41FCFC3E2D6E41CCFC4E2D6E455
:1016A00019CFC5E2D6E416CFC6E2D6E413CFC7E21F
:1016B000D6E410CFC0E0D4E40DCF8238910549F1D3
:1016C000B0F48133910509F45CC048F48932910586
:1016D00009F452C08A32910509F458C0089585333F
:1016E000910509F444C08933910599F00895833E2A
:1016F000910531F138F4803E910591F0823E9105DB
:10170000B1F00895863E910511F1873E910541F1B2
:1017100008952091AC032370C9F080EE90E0089505
:101720002091AC0320FF12C089E390E0089520913E
:10173000AC0322FF0BC024FF2EC090E080E0089590
:101740002091AC0322FD2AC024FDF7CF08952091FB
:10175000AC0323FFFBCF24FDF0CF87EE90E008958C
:101760002091AC0323FFF0CF86EE90E00895209106
:10177000AC0325FD16C008952091AC0325FD14C0CF
:1017800008952091AC0326FD12C008952091AC036A
:1017900026FD10C0089583EE90E0089582EE90E05B
:1017A000089589E290E0089585E390E008958AE243
:1017B00090E0089581E390E0C9CF9091AC0392FF4F
:1017C00006C0282F2871283069F4877F846093FF32
:1017D00006C0282F2871283161F4877E846194FD2A
:1017E000877E0895282F2471243089F78B7F8860A5
:1017F000EECF282F2471243191F78B7E8861EFCFB3
:1018000008950F931F93CF938C01FB018281811167
:1018100006C0C1E08C2FCF911F910F910895C09108
:101820005402C11125C006311C4599F70E94000CD5
:1018300081E0809354020E94D521909353028093BB
:1018400052021092470210924902109248021092DE
:101850004B0210924A0210924D0210924C021092CA
:101860004F0210924E021092510210925002D2CFAB
:1018700080915202909153020E94E1218C3291405A
:1018800040F680914702E82FF0E0EE0FFF1FE85B83
:10189000FD4F118300838F5F80934702C0E0BACF72
:1018A000CF93DF93EC01C13080E8D807C8F0FB018B
:1018B00082818823A9F080915502811109C08CE0B2
:1018C00090E00E943F310E94740C81E080935502A9
:1018D0000E947B0CCE019F770E94460D0E94F80C5F
:1018E00081E0DF91CF91089580935602682F8CE0BC
:1018F00090E00C945331E0910401F0910501808156
:101900008093640381FF03C081EE0E94671680917B
:10191000640385FF03C085EE0E946716809164030F
:1019200080FF03C080EE0E9467168091640384FFED
:1019300003C084EE0E9467168091640382FF03C097
:1019400082EE0E9467168091640386FF03C086EED4
:101950000E9467168091640383FF03C083EE0E9498
:1019600067168091640387FF03C087EE0E946716A5
:1019700080915602823049F158F4882379F0813001
:1019800089F08FE39CE90197F1F700C0000008950A
:10199000843019F18530A9F786EE01C082EE0E94ED
:1019A0008C15EFCF80EE0E948C1581EE0E948C1575
:1019B00088E10E948C1588E10E94671681EE0E94E2
:1019C000671680EE0E946716DCCF82EE0E948C15AF
:1019D00087E50E948C1587E5F5CF86EE0E948C1571
:1019E00086EE0E94671688E10E948C1588E1EACF96
:1019F00080915602813009F443C0E0F18230D1F188
:101A00008530E1F18091640381FF03C081EE0E9483
:101A10008C158091640385FF03C085EE0E948C15B0
:101A20008091640380FF03C080EE0E948C1580913A
:101A3000640384FF03C084EE0E948C1580916403CC
:101A400082FF03C082EE0E948C158091640386FFA2
:101A500003C086EE0E948C158091640383FF03C04F
:101A600083EE0E948C158091640387FF0EC087EE81
:101A70000C948C1582EE0E946716C4CF86EEFBCFC5
:101A80008CE20E948C158CE2F6CF0895EF92FF92C3
:101A90001F93CF93DF937C01CCE0D0E0C7010C2EE5
:101AA00002C0969587950A94E2F7182F1F70812F30
:101AB0000E947C090E948C15812F0E947C090E9443
:101AC00067162497CC3F8FEFD80741F7DF91CF916E
:101AD0001F91FF90EF900895CF92DF92EF92FF92C7
:101AE0000F931F93CF93DF93E901662309F466C038
:101AF000E42EF12CEFEFF0E0E61BF109EE9D800102
:101B0000EF9D100DFE9D100D1124212FE12FFF27B9
:101B1000EE1AFF0A5CE3C52ED12CB6010E941131EA
:101B2000FB01BC01E69EC001E79E900DF69E900D64
:101B30001124B6010E941131E230F10589F168F4F7
:101B4000812F262F210F309781F0242F461B3197AC
:101B500061F080E020E040E008C0E430F10551F1A0
:101B600028F1842F861B3597A1F7E42FF0E0E65F7C
:101B7000FC4F4491E22FF0E0E65FFC4F9491E82F98
:101B8000F0E0E65FFC4FE49149839883EA83DF91BC
:101B9000CF911F910F91FF90EF90DF90CF9008951C
:101BA000862F810FE42F412F2E2FDFCFE42FE61B4E
:101BB000842FF9CF842F462F410FD7CF842F242F86
:101BC000D4CF88E090E00C944731AB01BC0188E0B1
:101BD00090E00C946531E5E6F3E083E080831092B9
:101BE00066038FEF82838383148260817181828197
:101BF00093810C94E50D6091650360FF06C06695C6
:101C00006F7370E090E080E0089560E070E0CB01D9
:101C100008958091690390E001968430910514F055
:101C200083E090E08093690360916503709166039F
:101C300080916703909168030C94E50D809169038E
:101C40008150990B97FF02C090E080E084309105AD
:101C500014F083E090E080936903609165037091D4
:101C6000660380916703909168030C94E50D809161
:101C70006503EAE6F3E080FF06C06FE070E08AE605
:101C800093E00C94B213118210821282349683E096
:101C9000E63AF807C1F7F1CF9091650390FF0CC0C9
:101CA000EAE6F3E0818360834283349693E0E63A88
:101CB000F907C1F70C94370E0895CF93DF9300D046
:101CC00000D0CDB7DEB72091650320FF0AC09E018A
:101CD0002F5F3F4F0E946C0D4B8169818A810E946A
:101CE0004C0E0F900F900F900F90DF91CF910895B1
:101CF0003F924F925F926F927F928F929F92AF929C
:101D0000BF92CF92DF92EF92FF920F931F93CF93E8
:101D1000DF9300D000D0CDB7DEB78C01462E542E15
:101D2000322E8091650380FF30C0982F9E779230CD
:101D300009F041C09E012F5F3F4FC8010E946C0D0A
:101D40004B8169818A810E944C0E8091650300FB62
:101D500087F980936503902F96958091660380782C
:101D6000892B10FB87F9809366034092670350929A
:101D70006803332051F06091650370916603809190
:101D80006703909168030E94E50D0F900F900F90EC
:101D90000F90DF91CF911F910F91FF90EF90DF9007
:101DA000CF90BF90AF909F908F907F906F905F90FB
:101DB0004F903F900895E82FE695EF739EE39E0FB6
:101DC0009F73943018F450906803BFCF9AE39E0F2E
:101DD0009F73993068F4881F8827881F9091660345
:101DE000292F220F022F082B97FB112710F9ADCFB7
:101DF00087E28E0F8F738A3008F0A7CFE951FF0B6F
:101E00002FEFE0FF21E0EE7FE051FD4F85919491AF
:101E10006FE070E00E94113126033001279F700CA3
:101E20001124680188E9C81A8EEFD80A8AE6E82EDC
:101E300083E0F82E96EAA92E93E0B92E28E6822EAA
:101E400099249394C601B4010E9411319701452D44
:101E5000642D0E946C0DC60CD71C84E0E80EF11CAA
:101E6000AE14BF0479F70E94370E6FCF21E00C94B7
:101E7000780EE5E6F3E02081221F2227221F309111
:101E80006603432F440F842F822B37FB992790F949
:101E90000C9668E671E00E942531438162810C94C2
:101EA000360F20916503221F2227221F30916603DF
:101EB000432F440F842F822B37FB992790F98C30C6
:101EC000910540F4845A9E4F4091680360916703E6
:101ED0000C94360F0C9768E671E00E942531F4CF20
:101EE000E5E6F3E08081881F8827881F90916603CC
:101EF000292F220F97FB992790F943816FEF822BAF
:101F00000C94360FE5E6F3E08081881F8827881F50
:101F100090916603292F220F97FB992790F943810F
:101F200060E0822B0C94360F40916803443F90F49C
:101F3000445F80916503881F8827881F90916603FE
:101F4000292F220F97FB992790F960916703822B25
:101F50000C94360F4FEFEDCF409168034C3090F06A
:101F60004C5080916503881F8827881F90916603D5
:101F7000292F220F97FB992790F960916703822BF5
:101F80000C94360F40E0EDCF20E00C94780E909149
:101F9000650390FF46C09178811128C092609093AC
:101FA0006503662351F0609165037091660380912B
:101FB0006703909168030E94E50D80916503382FB7
:101FC0003E773230D9F410927002881F8827881F1C
:101FD00090916603292F220F97FB992790F9409142
:101FE000680360916703822B0C94C40F843210F055
:101FF0009664D5CF8F73880F982BD1CF982F969555
:102000009F732EE3290F2F73273110F0363421F4FC
:1020100091E090937002D9CF995D9F739A30A8F6A2
:10202000D2CF089561E00C94C70F80916503869527
:102030008F738F5F843208F081E00C9412108091CE
:10204000650386958F73815009F483E20C94121016
:10205000E5E6F3E080818160808386958F730C9440
:10206000121060E00C94C70F80913303816080935D
:1020700033030E94BB20811104C00E949A200E9459
:10208000EB0D0E94E10D60936503709366038093EE
:102090006703909368036E7761F40E94EB0D0E94D2
:1020A000E10D6093650370936603809367039093DB
:1020B000680381E0809370028091650380FF04C013
:1020C00086958F730C9431100895E5E6F3E08081D6
:1020D0008E7F808360817181828193810E94E50D72
:1020E000109270022FEF80E792E0215080409040E4
:1020F000E1F700C000000C94370E8091650380FD6D
:102100000C9465100C942810CF93C82F80916E0208
:1021100090916F020E94E121EC2FF0E0EA5FFC4F0A
:10212000E491E817190611F008F042C00E94D52189
:1021300090936F0280936E0260916D0270E090E068
:1021400080E00E94122F20E030E04FE753E40E942D
:10215000352E2BED3FE049E450E40E943B300E94D5
:10216000A8300E94AF2E2BE43AE34EE25FE30E94D8
:10217000C82D20EF3BEF48ED52E40E943B300E9417
:10218000E12E462F80916503881F8827881F909134
:102190006603292F220F97FB992790F96091670317
:1021A000822B0E945D0E80916D028F5F80936D0285
:1021B000CF910895CF93C82F80916B0290916C02BC
:1021C0000E94E121EC2FF0E0ED5FFC4FE491E81775
:1021D000190609F0E8F40E94D52190936C028093CF
:1021E0006B0240916803609167038091690290914E
:1021F0006A020E945D0E8091690290916A020196C6
:1022000068E671E00E94113190936A02809369023E
:10221000CF910895CF92DF92FF920F931F93CF93A8
:10222000DF93F82E80916702909168020E94E1216D
:10223000EF2DE695F0E0E050FD4FE491E817190628
:1022400009F0A8F50E94D521909368028093670257
:102250000AE613E0D0E0C0E088E6C82EDD24D3947F
:1022600080916502909166028C0F9D1FB6010E94BD
:102270001131980140916803609167030E946C0DD1
:1022800068960C5F1F4FC83681E0D80749F70E9457
:10229000370E8091650290916602F0FE10C00196A3
:1022A000BE010E9411319093660280936502DF9116
:1022B000CF911F910F91FF90DF90CF9008950197DC
:1022C000F2CFCF92DF92EF92FF920F931F93CF93B3
:1022D000DF93C82FFF24FA9480FD02C0FF24F394FB
:1022E00080916302909164020E94E121C695EC2FD7
:1022F000F0E0E350FD4FE491E817190611F008F003
:1023000051C00E94D52190936402809363020AE633
:1023100013E0D0E0C0E0F80111821082128294E054
:10232000C92ED12CE12C809162028E0D87FD815F38
:10233000082E000C990BC817D907E9F4809168039F
:102340008C9DA0018D9D500D112455954795559557
:10235000479580916503881F8827881F90916603A1
:10236000592F550F97FB992790F9980160916703B2
:10237000852B0E946C0DEF0CF1E0CF1AD10899F675
:1023800021960C5F1F4FCF30D10529F60E94370EE2
:102390008091620291E0F91210C081110CC08EE0B0
:1023A00080936202DF91CF911F910F91FF90EF9088
:1023B000DF90CF9008958150F3CF90E00196BE0159
:1023C0000E942531EDCF0F931F93CF93DF93C82F3A
:1023D00080916002909161020E94E121EC2FF0E077
:1023E000E650FD4FE491E817190611F008F052C0CD
:1023F0000E94D5219093610280936002CAE6D3E0E7
:10240000FE01118210821282349683E0E63AF807C8
:10241000C1F710E000E080915F02082E000C990BDC
:1024200008171907E4F180910301082E000C990B9D
:1024300080179107A4F180916503881F8827881F62
:1024400090916603592F550F97FB992790F99E019C
:102450004091680360916703852B0E946C0D0F5FAC
:102460001F4F24960F301105B1F60E94370E809150
:10247000020190915F02980F90935F0220910301F7
:10248000280F20930301121614F49E301CF081953E
:1024900080930201DF91CF911F910F9108951982CE
:1024A00018821A82DCCFEF92FF920F931F93CF9383
:1024B000DF9380915D0290915E020E94E121883E4F
:1024C0009340C8F10E94D52190935E0280935D02F3
:1024D000C0915B02D0915C022196C170DD27D09340
:1024E0005C02C0935B028AE6E82E83E0F82E10E0DF
:1024F00008E7812F86958C0F9D2F911D817099275C
:1025000097014091680360916703FC010E9FC00131
:102510000F9F900D11240E946C0D1F5FF4E0EF0ED1
:10252000F11C1F3031F7DF91CF911F910F91FF9078
:10253000EF900C94370EDF91CF911F910F91FF9088
:10254000EF900895CF93DF9300D000D0CDB7DEB7E2
:102550008091590290915A020E94E121EEEEF2E040
:102560002591349182179307B8F180915802811117
:102570000CC09E012F5F3F4F4FEF6FEF90E080E068
:102580000E946C0D8A81809358020E94D5219093FD
:102590005A028093590280915702813069F038F0D5
:1025A00040915802823009F040E080E003C0809101
:1025B000580240E060E004C06091580240E080E0D2
:1025C0000E944C0E8091570290E0019663E070E00B
:1025D0000E942531809357020F900F900F900F901B
:1025E000DF91CF910895809170028823B1F190918D
:1025F0006503892F86958F732EE3280F2F73243060
:1026000018F482500C9484102AE3280F2F7323307F
:1026100018F486500C94DA1027E3280F2F73263015
:1026200018F489500C940A1121E3280F2F732630D7
:1026300018F48F500C9461112BE2280F2F73233064
:1026400018F485510C94E3119E77903311F40C9497
:102650005312963411F40C94A21208958823B9F001
:102660005198599A5098589A95E09A95F1F7000028
:10267000509A589895E09A95F1F70000882311F048
:10268000519A599885E08A95F1F700000895519A7A
:102690005998E8CF8BB18C7F8BB95098589A519844
:1026A000599A85E08A95F1F7000008958AB18C7FE8
:1026B0008AB985E08A95F1F70000519A599885E02A
:1026C0008A95F1F70000509A589885E08A95F1F7BD
:1026D000000008955098589A85E08A95F1F7000017
:1026E0005198599A85E08A95F1F700000895CF93A3
:1026F000DF93D82FC8E08D2F80780E942E13DD0F36
:10270000C150C9F780E00E942E1385E08A95F1F749
:10271000000085E08A95F1F7000080E0DF91CF911D
:1027200008953BB1242F209523233BB1432B3FB782
:10273000F894FC01680F791FE617F70711F43FBF03
:102740000895819198E04BB9000000C087FF2BB934
:10275000880F000000C000C000C02BB900C09A95CF
:1027600091F7EACFAF92BF92CF92DF92EF92FF92B2
:102770000F931F93CF93DF938C01EB01CFB6D090D3
:10278000BC00F8948091BC008B7F8093BC000E94B9
:102790004A130E94561384E80E947713CC0FDD1F62
:1027A000CC0FDD1F78015E01A00EB11EEA14FB0400
:1027B000A9F40E946A13CFBED092BC00579A40E899
:1027C000BE01C801DF91CF911F910F91FF90EF9053
:1027D000DF90CF90BF90AF900C949113F70181914F
:1027E0007F010E947713E2CF909376028093750267
:1027F0000895E0917502F0917602309721F00190F2
:10280000F081E02D099480E00895E0917502F09147
:102810007602309721F00280F381E02D099408952B
:10282000E0917502F0917602309721F00480F581F5
:10283000E02D0994089520917302309174022817B5
:10284000390771F09093740280937302E0917502DE
:10285000F0917602309721F00680F781E02D0994FF
:10286000089520917102309172022817390771F092
:102870009093720280937102E0917502F09176025A
:10288000309721F00084F185E02D09940895089592
:102890000C94471481E008950E94CC2185B780688C
:1028A00085BF85B7806885BF0E94BC030E946322F4
:1028B0000C943410BF92CF92DF92EF92FF920F935D
:1028C0001F93CF93DF93CDB7DEB72A970FB6F89457
:1028D000DEBF0FBECDBF0E9428040E944A14882389
:1028E00009F471C088E7C82E82E0D82E10E000E01D
:1028F000B02E802F0E948D04E82EF601F1906F011A
:10290000F81609F45AC08091330381FD0E949304A4
:1029100090E080E0FE242F2D30E0482FB901082EF2
:1029200002C0759567950A94E2F760FF41C08E83F7
:10293000BF8281E090E06C0102C0CC0CDD1C4A95A6
:10294000E2F72E2D30E02C213D21232B09F480E0ED
:1029500088870E94D5218160782F9A8789874E8148
:102960005F8168858A850E943C15F801E858FD4F13
:1029700080818C2580830E94F6230E94F913909118
:102980007702891789F10E94F913809377022A96BA
:102990000FB6F894DEBF0FBECDBFDF91CF911F9170
:1029A0000F91FF90EF90DF90CF90BF900C948D0926
:1029B00001968630910509F0B0CF0F5F1F4F0E30A2
:1029C000110509F095CF8FEF89838A831B820E94BE
:1029D000D5218160782F9D838C8349815A816B81B9
:1029E0008D810E943C15C7CF2A960FB6F894DEBFA2
:1029F0000FBECDBFDF91CF911F910F91FF90EF9050
:102A0000DF90CF90BF900895CF93DF93DC018C913E
:102A1000682F70E021E030E001C0220F8A95EAF7CC
:102A200011964C91119750E0EA01CA57DD4F9881F9
:102A300012968C9112978823C9F080919602882370
:102A4000C1F086E0849FF001859FF00D1124E60F10
:102A5000F71FEE0FFF1FEA5EFE4F408151814D933D
:102A60005C93292B2883DF91CF910895892F8223AE
:102A7000E6CF20952923F6CFCF93DF93CDB7DEB7EE
:102A80002B970FB6F894DEBF0FBECDBF942F4F83A8
:102A9000252F588769877A878B874A855B8581E0F0
:102AA000452B31F02F3F19F481E09F3F09F080E082
:102AB00080FD04C0CE0107960E9404151E821D826F
:102AC00085E0FE013796DE01119601900D928A9500
:102AD000E1F749815A816B817C818D819E810E94C1
:102AE0009E1C2B960FB6F894DEBF0FBECDBFDF91B4
:102AF000CF910895FC01808191810E94691F929578
:102B00009F70963041F48091960291E089278093DE
:102B10009602909395020895CF93C82F882309F4C5
:102B2000D4C08238C1F40E94F91381FDCEC089E37C
:102B30000E94971F0E94DB1F2FEF81EE94E021502F
:102B400080409040E1F700C0000089E30E949E1F92
:102B5000CF910C94DB1F8338A1F40E94F91380FD00
:102B6000B4C083E50E94971F0E94DB1F2FEF81EE08
:102B700094E0215080409040E1F700C0000083E5E0
:102B8000E5CF8438A1F40E94F91382FD9EC087E44A
:102B90000E94971F0E94DB1F2FEF81EE94E02150CF
:102BA00080409040E1F700C0000087E4CFCF8CEF79
:102BB0008C0F813A48F48C2F0E941526811185C014
:102BC0008C2F0E94971FC4CF80E28C0F883048F46E
:102BD000C77081E001C0880FCA95EAF70E941120F2
:102BE000B7CF8BE58C0F833068F481E890E0C53A6D
:102BF00031F083E890E0C63A11F482E890E0CF919A
:102C00000C941B1488E58C0F853108F05EC082EEB1
:102C100090E0C83A09F456C089EE90E0C93A09F448
:102C200051C08AEE90E0CA3A09F44CC085EB90E0BE
:102C3000CB3A09F447C086EB90E0CC3A09F442C0A5
:102C400083EB90E0CB3BF1F184EB90E0CC3BD1F116
:102C500087EB90E0CD3AB1F18CEC90E0C03B91F184
:102C60008DEC90E0CE3A71F183E891E0CF3A51F1EA
:102C70008AE891E0C13B31F182E991E0C23B11F178
:102C800084E991E0C33BF1F081E292E0C43BD1F0F2
:102C900083E292E0C53BB1F084E292E0C63B91F062
:102CA00085E292E0C73B71F086E292E0C83B51F0CA
:102CB00087E292E0C93B31F090E080E0CA3B11F43A
:102CC0008AE292E0CF910C943114CF910895882339
:102CD00009F44BC0823871F40E94F91381FF45C09A
:102CE00089E30E94971F0E94DB1F89E30E949E1FB9
:102CF0000C94DB1F833859F40E94F91380FF35C010
:102D000083E50E94971F0E94DB1F83E5EFCF843885
:102D100059F40E94F91382FF28C087E40E94971F8C
:102D20000E94DB1F87E4E2CF9CEF980F913AF0F20C
:102D300090E2980F983050F4877091E001C0990F9D
:102D40008A95EAF7892F0E941720D2CF9BE5980F2A
:102D5000933020F490E080E00C941B14885A853165
:102D600020F490E080E00C9431140895882321F041
:102D70000E9411200C94DB1F0895882321F00E94EB
:102D800017200C94DB1F08958F929F92AF92BF92F1
:102D9000DF92EF92FF920F931F93CF93DF937C010B
:102DA000D62FC72FFC01058102950F7012811111DA
:102DB0000E9430200E94D41FD82E882371F0112346
:102DC00031F180E28D0F883010F182E00E94BE1F49
:102DD0000E94D41F91E0D82ED926BC2EB2949FE039
:102DE000B922EB2DF0E0E950F94E0C943931091776
:102DF0000917591759179917C1173019A017031830
:102E0000A0179E189E182719A017A0176219D12C79
:102E1000E4CF0C2F0F70C07F11F00295007F1123BB
:102E2000A9F0002359F080E28D0F883010F0D11105
:102E300009C0802F0E9411200E94DB1F8D2F0E944D
:102E40008C1514C0802F0E942220F6CF8D2F0E9457
:102E50006716002359F080E28D0F883010F0D111F1
:102E600024C0802F0E9417200E94DB1FDD2009F460
:102E700054C20E94B11F80FD50C2F70112820E940D
:102E8000AB1F0E942F1EC7010E9499190E94AB1F01
:102E9000DF91CF911F910F91FF90EF90DF90BF9046
:102EA000AF909F908F900C94501E802F0E942820EE
:102EB000DBCFFC2FFF70BF2EC07FC03219F0B29461
:102EC00080EFB822DD2339F0D13019F1112359F107
:102ED000002321F1B3CF112381F0011106C00E941C
:102EE0004A208B290E94B616C1CF0130C1F70E943B
:102EF0004A208B290E944420B9CF011106C00E94AC
:102F000047208B2D0E94BD16B1CF013009F4AECF02
:102F1000F6CF112329F0023008F0A8CF8B2DE2CF95
:102F20000111A4CFEECF002361F38D2F0E9467160D
:102F30009DCF8C2F86958695837079F08130B9F07E
:102F4000F8E0BF1609F49BC0BF1608F48FCF86EFD8
:102F50008B0D823008F493C089CF8D2F9C2F9370F6
:102F6000111102C090E080E00E941B147FCF8D2FD2
:102F70009C2F9370111102C090E080E00E943114E8
:102F800075CF112309F1D53F99F0D63FB9F0D43F61
:102F900049F48091A6039091A70381609093A703C1
:102FA0008093A6038D2F0E94FF220E94EB235ECF09
:102FB0008091A6039091A7038260F0CF8091A60331
:102FC0009091A7038460EACFD53F89F0D63FA9F05E
:102FD000D43F49F48091A6039091A7038E7F9093EC
:102FE000A7038093A6038D2F0E946723DECF8091D5
:102FF000A6039091A7038D7FF2CF8091A6039091B5
:10300000A7038B7FECCF8C2F837009F04BC011117D
:1030100036C02D2F229526952770220F220F6D2F57
:103020006F70862E912CB12CA12C022E04C0880C1E
:10303000991CAA1CBB1C0A94D2F760E070E0CB017B
:10304000D4FF0FC06FE070E080E090E004C0660F36
:10305000771F881F991F2A95D2F7609570958095E4
:103060009095C695C695C370C23071F0A0F46829DA
:1030700079298A299B29C13091F00E94E11D0E9483
:10308000F9130E948D09F2CE682979298A299B2992
:103090000E94F31DF4CF0E94E11DC501B4010E94FE
:1030A000CF1DEDCF8695112311F08C2F81708823D1
:1030B00031F32D2F229526952770220F220F6D2F89
:1030C0006F70862E912CB12CA12C022E04C0880C7E
:1030D000991CAA1CBB1C0A94D2F760E070E0CB01DB
:1030E000D4FF0FC06FE070E080E090E004C0660F96
:1030F000771F881F991F2A95D2F760957095809544
:103100009095C695C695C370C23051F080F4682979
:1031100079298A299B29C13071F00E94A61EAFCF60
:10312000682979298A299B290E94B81EA8CF0E9464
:10313000A61EC501B4010E94941EA1CFE0E2ED0FCE
:10314000E53108F065C0F0E0E855F74E0C943931F0
:10315000BD18BD18BD18BD18BD18BD18BD18BD18C7
:10316000BD18BD18BD18BD18BD18BD18BD18BD18B7
:10317000CE18DB18E218E918F318DF708C2F8F7166
:10318000112331F00E942F1E8D2F0E94B616D8CE2B
:103190000E94501E8D2F0E94BD16D2CE112339F0F1
:1031A0000111CECE8C2F8F710E94731EC9CE0230BA
:1031B00008F0C6CEF7CF8C2F8F71112339F00E9403
:1031C0002F1EBECE8C2F8F711123C9F30E94501E6B
:1031D000B7CE112329F08C2F8F710E941A1EB0CE0A
:1031E0000E94151EADCE112349F0CF718C2F0E9485
:1031F0002F1E63E08C2F0E94B51FA2CE81E00E949B
:10320000BE1F023008F49CCE82E00E94BE1F98CE02
:10321000112349F0002321F08D2F0E948C1590CEB0
:103220008C2F8F71CCCF002379F0D93349F42FEF55
:1032300087EE93E0215080409040E1F700C000000D
:103240008D2F0E9467167CCE8C2F8F71BFCF4C2F95
:103250004F706D2FC7010E9461060E94471D06CE68
:10326000D23F71F1C8F4D03F01F1D13FB9F1809163
:103270009502002309F446C0882341F0809196020C
:1032800091E0892780939602109295028D2F112349
:1032900089F10E948C1516C0D43FD9F078F0D53F43
:1032A00031F711110FC081E006C0112359F0809150
:1032B000960291E089278093960204C081E0182746
:1032C000109396024C2F4F706D2FC7010E948F09EB
:1032D00037CE1111F7CF10929602F4CF112339F0A7
:1032E00080919502882319F310929502EBCF002369
:1032F000F1F2E8CF0E94671686E0F70111928A95F5
:10330000E9F7E0CF8823F1F21111DCCF809196022A
:1033100091E0892780939602E7CFDF91CF911F91AB
:103320000F91FF90EF90DF90BF90AF909F908F90A4
:1033300008950F931F93CF93DF93EC0198818981B8
:103340002B813C81232B39F08F3F19F481E09F3F83
:1033500019F080E001C081E080FD17C0CE010E941D
:10336000A506882391F0688179818A810E94731F64
:103370008C010E94CA1E0E94CC1DB801CE01DF91B3
:10338000CF911F910F910C94C416DF91CF911F9193
:103390000F9108950E9430200E9441200E94A51F95
:1033A0000E94DB1F0E948A240E94EB2390E080E0B1
:1033B0000E941B1490E080E00C9431140E941F20A6
:1033C0000C94CA190E94691FE92FE295EF70E25030
:1033D000EE30E0F4F0E0E151F64E0C943931FD1995
:1033E000FD19061A061A081A061A061A061AFD19EF
:1033F000FD190D1A061A061A0D1A803F19F020F44D
:10340000803E20F481E00895843FE1F380E0089558
:10341000803EC0F3813FD1F7F5CF93FB882780F939
:103420000895CF93DF9300D000D01F92CDB7DEB7C1
:103430000F900F900F900F900F90DF91CF91089504
:10344000CF93DF9300D000D000D0CDB7DEB7269663
:103450000FB6F894DEBF0FBECDBFDF91CF910895B8
:103460001F93CF93DF93C091970216E0809198024B
:103470008C1304C0DF91CF911F910895D0E01C9F61
:10348000F0011D9FF00D1124E756FD4F4081518141
:1034900062817381848195810E94201A2196C77070
:1034A000E5CF4091C9025091CA026091CB02709160
:1034B000CC028091CD029091CE020C94201A1F93E1
:1034C000CF93DF938091CE02807FD1F48091CB02A5
:1034D0008823B1F080919702D0919802B091C902EF
:1034E000C091CA024091CC025091CD02A1E0BF3FF1
:1034F00009F0A0E0BA016095709516E0D81304C0F9
:10350000DF91CF911F91089521E04115510521F0E0
:103510002A2FCF3F09F020E090E020FD38C0189F0F
:10352000F001199FF00D1124E756FD4F21812C1356
:103530002EC020812B132BC02281211128C0238172
:1035400034812417350700F1241B350B283C310545
:10355000F0F42091CE022F7020612093CE0226E05D
:10356000289FF001299FF00D1124E256FD4F808124
:103570008F708061808389EC92E00E949919DF91BD
:10358000CF911F910C94301A260F371FDFCF019671
:103590008770B4CFAF92BF92CF92DF92EF92FF923B
:1035A0000F931F93CF93DF93CDB7DEB761970FB61D
:1035B000F894DEBF0FBECDBF8C0185E0F801DE01BF
:1035C0001D9601900D928A95E1F7D8014C911196C4
:1035D0005C9111971296EC903091C9026091CA02E9
:1035E0008091CC029091CD0221E0009731F06F3FA5
:1035F00019F421E03F3F09F020E0B22FB170BB2E5B
:1036000020FD80C1F801C380D480A090CB02AA2005
:1036100009F427C1C816D906D0F1D601A81BB90BE9
:10362000CD01FF24F394883C910508F0F12C8091A2
:10363000CE02982F907FFF2009F4CEC0911187C051
:10364000FE2C651329C0341327C0E11025C08F70EC
:1036500080618093CE020E94511A89EC92E00E9410
:1036600099198091CE02F80185838F2D61960FB64E
:10367000F894DEBF0FBECDBFDF91CF911F910F91A8
:10368000FF90EF90DF90CF90BF90AF90089580951E
:1036900090958C0D9D1DC5CF81E0CD2831F05F3F09
:1036A00019F481E04F3F09F080E080FD24C081E003
:1036B0008E25F82FF170DF2E80FF3FC0809197029A
:1036C0002091980236E0821318C04D875E878D8561
:1036D0009E850E94691F292F22952F70223008F1A4
:1036E000243030F59F7009F1D80115969C91907F98
:1036F000E1F4FB2CBACF80E0DCCF90E0389FF00102
:10370000399FF00D1124E756FD4F6181561306C015
:103710006081461303C062816E110FC001968770ED
:10372000D2CF9F7011F0882321F3805E883008F398
:10373000C8010E949919BD2CDCCFEE2009F495CF69
:103740008091CE0281608093CE02F12C8ECF6513E2
:1037500014C0341312C0E11010C0F8018583C801F1
:103760000E94991986E0F801A9ECB2E001900D924F
:103770008A95E1F70E94511A78CF4D875E878D8533
:103780009E850E94E219882319F1EE2009F18091AB
:10379000CE02803270F02091C9023091CA0238877F
:1037A0002F831986DB86CA868C87CE0107960E94F6
:1037B000991986E0F801A9ECB2E001900D928A9582
:1037C000E1F70E945F1A0E94511AFF24F3944DCF33
:1037D000C8010E949919F9CF911113C07C2DD98A83
:1037E000C88A6E2D89890E94111A89EC92E00E9484
:1037F000991986E0E9ECF2E0DF011D928A95E9F77C
:10380000B9CF651312C0341310C0E1100EC0F80117
:103810008583C8010E949919E9ECF2E086E0DF0196
:103820001D928A95E9F7FA2C20CF4D875E878D850A
:103830009E850E94E219882359F2EE2049F2809178
:10384000CE02803208F4B5CF2091C9023091CA026D
:103850003A8329831B82DD82CC828E83CE0101963E
:10386000A6CFC816D90638F1F601E81BF90BCF012F
:10387000F12C883C910508F03DC0FE2CEE2009F4A7
:10388000A7CF651326C0341324C08091CE0280FDDB
:1038900017C0982F907FA1F0D80115968C9315979B
:1038A000903F09F45CCF982F907F905F8F70892BA9
:1038B00015968C9354CF809590958C0D9D1DD8CFE7
:1038C00086E0F801A9ECB2E001900D928A95E1F74B
:1038D000CCCE4D875E878D859E850E94E219811131
:1038E00068CF8091CE0281608093CE02C8010E9491
:1038F0009919BBCE7C2DD98AC88A6E2D89890E94E0
:10390000111A77CFEE2009F463CF4D875E878D853E
:103910009E850E94E219F82E882309F459CF86E08B
:10392000F801A9ECB2E001900D928A95E1F789ECDB
:1039300092E00E947A150E945F1A1CCF1F93CF93CA
:10394000DF93CDB7DEB72C970FB6F894DEBF0FBE6E
:10395000CDBF4F83588769877A878B879C87CE0135
:1039600007960E94CA1A882309F442C09F8188855D
:103970002A853B85232B39F08F3F19F481E09F3F47
:1039800019F080E001C081E080FD08C04F815885BA
:1039900069857A858B859C850E94201A16E0809126
:1039A000970290919802891709F467C0819FC0011E
:1039B000112487569D4F0E94CA1A882309F45DC0BE
:1039C000E09197021E9FF0011124E756FD4F4081C0
:1039D000518162817381848195810E94201A809136
:1039E000970290E001968770992780939702D7CF2E
:1039F00086E0FE013796DE01119601900D928A95C0
:103A0000E1F79F8188852A853B85232B39F08F3FFD
:103A100019F481E09F3F19F080E001C081E080FD52
:103A2000BDCF2091980230E0C90101968770992797
:103A3000409197024817190699F096E0929FD0019D
:103A4000939FB00D1124A756BD4FFE0131960190F2
:103A50000D929A95E1F7809398020E94301A9ECFBA
:103A60000E94DE19109298021092970286E0E9EC0B
:103A7000F2E0DF011D928A95E9F72C960FB6F894D3
:103A8000DEBF0FBECDBFDF91CF911F910895EF92A2
:103A9000FF920F931F93CF93DF938C01892B81F0BB
:103AA000F12CEE24E394E8012196F8018491843707
:103AB00070F4843008F05FC08130B1F08230A1F141
:103AC000DF91CF911F910F91FF90EF90089585376F
:103AD00009F44CC008F43DC09CE7980F903780F77C
:103AE0008F770E94671649C00E5F1F4FFE018491B9
:103AF00090E2980F983060F48770FE2D01C0FF0FA0
:103B00008A95EAF78F2F0E9433200E94DB1F02C0A4
:103B10000E948C158F2D815030F2EFE9FFE0319734
:103B2000F1F700C00000F7CF0E5F1F4FFE01849138
:103B300090E2980F983050F48770FE2D01C0FF0F6F
:103B40008A95EAF78F2F0E943920DFCF0E946716EF
:103B5000E1CF0E5F1F4FFE01C491C150D8F28FE933
:103B60009FE00197F1F700C00000F7CF0E5F1F4FF5
:103B7000FE01F490CFCF0E948C158E01CBCF08951B
:103B80000E94BF1D60930A0370930B0380930C0384
:103B900090930D030C94CA1908950C94C01D0F93B3
:103BA0001F9300910A0310910B0320910C03309195
:103BB0000D03602B712B822B932B1F910F910C9473
:103BC000C01D0F931F9300910A0310910B032091C6
:103BD0000C0330910D0360237123822393231F91E3
:103BE0000F910C94C01D0F931F9300910A03109125
:103BF0000B0320910C0330910D036027712782275E
:103C000093271F910F910C94C01D0C94BF1D0C9411
:103C1000051E0E94071E609306037093070380939E
:103C20000803909309030C94CA1960E070E0CB017B
:103C30000C94091E0F931F9341E050E060E070E088
:103C40008A019B0104C0000F111F221F331F8A9598
:103C5000D2F7C901B8011F910F910C94091E0F935F
:103C60001F9341E050E060E070E004C0440F551F36
:103C7000661F771F8A95D2F78091060390910703FC
:103C8000A0910803B09109038A019B01082B192B0D
:103C90002A2B3B2BC901B8011F910F910C94091ECF
:103CA0000F931F9341E050E060E070E004C0440FC8
:103CB000551F661F771F8A95D2F7CB01BA01609511
:103CC00070958095909500910603109107032091BF
:103CD00008033091090360237123822393231F91EA
:103CE0000F910C94091E0F931F9341E050E060E088
:103CF00070E004C0440F551F661F771F8A95D2F7E6
:103D00008091060390910703A0910803B0910903E5
:103D10008A019B01082719272A273B27C901B801D7
:103D20001F910F910C94091E0F931F93009106038E
:103D3000109107032091080330910903602B712B28
:103D4000822B932B1F910F910C94091E0F931F939D
:103D50000091060310910703209108033091090395
:103D600060237123822393231F910F910C94091ECA
:103D70000F931F93009106031091070320910803EE
:103D80003091090360277127822793271F910F9194
:103D90000C94091E0895292F220F920F990F890F55
:103DA000982F977071E001C0770F9A95EAF7869582
:103DB0008695869525E0829FC001112450E040E061
:103DC000A62FB0E0FC01E40FF51FE153FD4F608129
:103DD0009D01042E02C0369527950A94E2F72170C2
:103DE000219526272723262720834F5F5F4F4530C5
:103DF000510541F70895292F220F290F220F820F15
:103E0000982F977086958695869545E0849F9001BA
:103E1000112470E060E080E0F901E60FF71FE15344
:103E2000FD4F408150E0092E02C0569547950A94F7
:103E3000E2F741705527062E01C0440F0A94EAF7B5
:103E4000842B6F5F7F4F6530710531F70895BF9206
:103E5000CF92DF92EF92FF920F931F93CF93DF9356
:103E60008C01C0900603D0900703E0900803F09007
:103E7000090380910A0390910B03A0910C03B09168
:103E80000D03C82AD92AEA2AFB2ACFE1D0E0BC2EAA
:103E9000D701C6010C2E04C0B695A79597958795B6
:103EA0000A94D2F780FD0EC0219788F7B12C8B2D94
:103EB000DF91CF911F910F91FF90EF90DF90CF9006
:103EC000BF900895B8018C2F0E94AC09019761F34F
:103ED000EECFCF93DF93EC010E94271FBE01DF914D
:103EE000CF910C94AC091F93CF93DF93EB0190918A
:103EF0009402992331F0CB01DF91CF911F910C9463
:103F0000691F882379F0CB010E94271F182F682F83
:103F1000CE010E94CB1EBE01812FDF91CF911F9158
:103F20000C94AC09CB010E94FB1E182FF4CF682F14
:103F300080910401909105010C943421682F8091A7
:103F40000401909105010C943F218091040190910E
:103F500005010C944A2180910E03859585958595E0
:103F6000089580910E038770089598E0899F9001CD
:103F70001124622B60930E030C942F1E90910E035C
:103F80008095892380930E03282F277061F4282FB2
:103F9000082E000C330B9217130629F08595859592
:103FA00085950C94501E089590910E03977081E0B2
:103FB00009F480E00895E0910401F09105018091F9
:103FC00032038083E0910401F0910501808190919A
:103FD0003103892B8083E0910401F09105018081F8
:103FE00090913003892B808390910F03992381F066
:103FF000E0910401F09105018081892B80838091FB
:104000000401909105010E94D720811110920F03A5
:1040100080910401909105010C9405148091320364
:10402000089590913203892B809332030895982F3D
:1040300090958091320389238093320308951092E2
:104040003203089590913103892B809331030895B1
:10405000982F90958091310389238093310308959F
:1040600010923103089590913003892B809330038F
:104070000895982F90958091300389238093300381
:10408000089510923003089580930F0308951092BD
:104090000F03089580910F030895CF92DF92EF925E
:1040A000FF926C01EE24FF2420E0C114D104E1044E
:1040B000F10419F0C701B60120E1C72ED82EE92E70
:1040C000FF24C114D104E104F10419F0285FC701F1
:1040D000B6016B017C0154E0F694E794D794C79441
:1040E0005A95D1F7C114D104E104F10419F02C5F01
:1040F000C701B6016B017C0142E0F694E794D794C6
:10410000C7944A95D1F7C114D104E104F10419F020
:104110002E5FC701B6019695879577956795672BB2
:10412000682B692B09F02F5F822FFF90EF90DF90B3
:10413000CF9008956DEE7EEF90E080E00E947131A7
:1041400060E082E090E00E94533160E083E090E024
:104150000E94533160E084E090E00E94533160E0BF
:1041600085E090E00E94533140E050E0BA0188E0E1
:1041700090E00C94653190E080E00E944D3121E0A8
:104180008D3E9E4F09F020E0822F089582E090E05E
:104190000C943F3183E090E00C943F3184E090E058
:1041A0000C943F31682F84E090E00C945331FC0173
:1041B00031969C01205E3F4F80E0919191118F5F7D
:1041C000E217F307D1F708959C01FC0132969FEFA7
:1041D00080E04191461751F09F3F19F4411101C011
:1041E000982F8F5F8E31A9F79F3F09F40895290F0B
:1041F000311D97FD3A95F90162830895FC013296CD
:1042000080962191261303C0DF0111971C92E817B5
:10421000F907B9F70895E62FE695E695E695EF31AB
:1042200069F0E80FF92FF11D677021E030E001C05F
:10423000220F6A95EAF78181822B81830895E62F08
:10424000E695E695E695EF3171F0E80FF92FF11D4F
:10425000677021E030E001C0220F6A95EAF72095EF
:10426000818128232183089520911501222329F09B
:104270002091AC0327FD0C940B210C94E420209199
:104280001501222329F02091AC0327FD0C941F2156
:104290000C94FE20FC01319680961192E817F907E4
:1042A000E1F7089508950C9452218091B20384306F
:1042B00049F11092340388E190E020E40FB6F894BD
:1042C000A895809360000FBE2093600080E00E945C
:1042D0008D090E94532183B7817F846083BF83B798
:1042E000816083BF7894889583B78E7F83BF0FB634
:1042F000F894A89580916000886180936000109286
:1043000060000FBE08950895CF930E94D8030E94C5
:1043100028040E948321C0E08C2F0E948D0481110B
:1043200005C0CF5FCE30C1F7CF91089581E0FCCFBB
:1043300008950C9498210E94DE190E94F9130E949E
:104340008D090C9499211F920F920FB60F92112490
:104350008F939F93AF93BF9380913403811113C0C8
:104360008091A8039091A903A091AA03B091AB03F7
:104370004196A11DB11D8093A8039093A903A0931A
:10438000AA03B093AB03BF91AF919F918F910F9010
:104390000FBE0F901F90189582E084BD93E095BDED
:1043A0009AEF97BD80936E0008952FB7F89480918F
:1043B000A8039091A903A091AA03B091AB032FBFCA
:1043C0000895CF92DF92EF92FF920F931F932FB732
:1043D000F8944091A8035091A9036091AA037091A9
:1043E000AB032FBF6A017B01EE24FF248C0130E078
:1043F00020E0C016D106E206F30650F0481B590B28
:10440000CA011F910F91FF90EF90DF90CF90089518
:1044100041505109F3CF78941F920F920FB60F922B
:1044200011248F939F93AF93BF938091A803909192
:10443000A903A091AA03B091AB030196A11DB11DE0
:104440008093A8039093A903A093AA03B093AB030E
:10445000BF91AF919F918F910F900FBE0F901F90C2
:104460001895F89481E08093E00080E28093D80072
:10447000E9ECF0E010828FE19EE40197F1F700C0D3
:1044800000001DBA109268001CBC10BE1FBA10922A
:104490007A0010926E0010926F00109271001092CC
:1044A00072001082ECEBF0E0108214B817B81AB862
:1044B0001DB810BA108215B818B81BB81EB811BABA
:1044C0000C94003F08950E94BB20811102C00E94FD
:1044D0009A200E94C620809333030E94CE2090E051
:1044E0009093AD038093AC030E94CA20682F70E0C4
:1044F00090E080E00C94CD1D8091380380FF12C0C5
:104500006091090185E0689FB00111247595679558
:104510007595679560387105A8F561157105A1F16C
:10452000862F089581FF09C06091090185E0689F89
:10453000B001112475956795EDCF82FF07C060919A
:10454000090185E0689FB0011124E4CF209139036F
:104550002223A9F0909108016091090185E0689FEC
:10456000B00111242917B0F6269FA001279F500DF6
:104570001124692F70E0CA010E942531CBCF65E07C
:1045800070E0CECF8FE7089581E0089580913803E1
:1045900080FF0CC06091070170E075956795759577
:1045A00067956115710549F1862F089581FF06C051
:1045B0006091070170E075956795F3CF60910701F1
:1045C00082FD0BC0909139039923A1F060910601FF
:1045D00080910701961738F0682F70E060387105F8
:1045E00000F38FE70895899FC001112470E00E94B5
:1045F0002531F4CF61E070E0D7CF81E00895803FAE
:1046000031F40E947C22819580933C030895813F80
:1046100019F40E947C22F8CF823F31F40E947C2260
:10462000819580933B030895833F19F40E947C2277
:10463000F8CF893F29F40E94C62280933D03089554
:104640008A3F21F40E94C6228195F7CF8B3F31F437
:104650000E94C622819580933E0308958C3F19F4F1
:104660000E94C622F8CF843F31F480913A038160E2
:1046700080933A030895853F21F480913A03826044
:10468000F7CF863F21F480913A038460F1CF873FD2
:1046900021F480913A038860EBCF883F21F4809128
:1046A0003A038061E5CF8D3F31F48091380381601A
:1046B0008093380308958E3F21F4809138038260FF
:1046C000F7CF8F3FB9F7809138038460F1CF803FF7
:1046D000C1F480913C0387FD10923C0380913B0321
:1046E00081110EC080913C0381110AC080913D036D
:1046F000811106C080913E03811102C010923903DE
:104700000895813F29F480913C0318162CF3E6CFDD
:1047100090913B03823F29F497FFE0CF10923B0337
:10472000DDCF833F19F41916CCF3D8CF893F39F484
:1047300080913D03181694F610923D03CFCF8A3F27
:1047400029F480913D0387FFC9CFF6CF8B3F39F421
:1047500080913E0387FFC2CF10923E03BFCF8C3FB4
:1047600029F480913E031816BCF3B8CF843F31F48E
:1047700080913A038E7F80933A03B0CF853F21F436
:1047800080913A038D7FF7CF863F21F480913A03E1
:104790008B7FF1CF873F21F480913A03877FEBCF66
:1047A000883F21F480913A038F7EE5CF8D3F31F42D
:1047B000809138038E7F8093380390CF8E3F21F411
:1047C000809138038D7FF7CF8F3F09F087CF80919D
:1047D00038038B7FF0CF8AE393E00E9410140E948D
:1047E000D521909336038093350308951F93CF937B
:1047F000DF9380913503909136030E94E121AC0153
:104800009091390320910A0130E0911106C0209166
:1048100037038AE0289F900111244217530780F044
:1048200080913B03D0913C0310913D03C0913E0326
:1048300081110AC0D1116AC0111168C0C11166C0CE
:10484000DF91CF911F9108959F3F19F09F5F909343
:104850003903181624F40E947C2280933B03809134
:104860003B0387FF05C00E947C22819580933B0318
:104870001D1624F40E947C2280933C0380913C030B
:1048800087FF05C00E947C22819580933C03309174
:104890003B033323C1F020913C032223A1F045EBDD
:1048A0003403C0011124892F911101C081E080934C
:1048B0003B0345EB240390011124832F311101C0E8
:1048C00081E080933C03111624F40E94C622809359
:1048D0003D0380913D0387FF05C00E94C62281955C
:1048E00080933D031C1624F40E94C62280933E034D
:1048F00080913E0387FF05C00E94C6228195809368
:104900003E03DF91CF911F910C94EB239F3F09F061
:104910009DCFAECF85E0EAE3F3E0DF011D928A95FB
:10492000E9F710923903109238030895833081F12A
:1049300028F4813059F08230D1F00895853009F49F
:1049400049C0B8F1863009F456C008958091370304
:10495000482F460F5527551F4F3F510524F4680F28
:104960006093370308958FEF809337030895809104
:104970000A01482F460F5527551F4F3F510524F474
:10498000680F60930A0108958FEF80930A010895DC
:1049900080910901482F460F5527551F4F3F51055C
:1049A00024F4680F6093090108958FEF8093090143
:1049B000089580910801482F460F5527551F4F3FF6
:1049C000510524F4680F6093080108958FEF8093D8
:1049D0000801089580910701482F460F5527551F5C
:1049E0004F3F510524F4680F6093070108958FEF3E
:1049F00080930701089580910601482F460F55279F
:104A0000551F4F3F510524F4680F60930601089528
:104A10008FEF809306010895833011F128F48130DF
:104A200049F0823091F00895853081F120F186308F
:104A3000C1F1089580913703681720F4861B809395
:104A40003703089510923703089580910A0168177B
:104A500020F4861B80930A01089510920A0108959C
:104A600080910901681720F4861B8093090108953D
:104A700010920901089580910801681720F4861B9F
:104A8000809308010895109208010895809107010C
:104A9000681720F4861B8093070108951092070180
:104AA000089580910601681720F4861B8093060103
:104AB00008951092060108950F931F9341E050E06E
:104AC00060E070E08A019B0104C0000F111F221FEB
:104AD000331F8A95D2F7C901B8010E94CD1D1F91DD
:104AE0000F910C94DE19873208F043C08E3108F024
:104AF0008BC0803109F47DC0C8F4873009F46AC0E6
:104B000028F4863009F45CC080E008958B3009F405
:104B100055C08E30C9F790913303892F8B7F92FF58
:104B200084608093330382FD20C048C0863109F43D
:104B300045C068F4813141F70E94DE199091AC03C1
:104B4000892F97FB87F980588093AC0337C0893150
:104B5000A9F18B31C9F690913303892F8D7F91FF95
:104B600082608093330381FF29C080913303816089
:104B70003DC0883319F150F4893221F0853311F0AA
:104B8000873211F680E00E945C2518C08334D1F38F
:104B900028F48A3308F4B8CF8953F5CF883409F064
:104BA000B3CF0E94DE192FEF83ED90E321508040B8
:104BB0009040E1F700C000000E94312281E008959A
:104BC00080913303817F8E7F8093330381E08093D4
:104BD0004003089590913303892F8E7F90FF816069
:104BE0008093330380FDEACF897F877F80933303EF
:104BF000E5CF90913303892F877F93FF886080935F
:104C0000330383FDB2CFDACF8D51BDCF80E008955D
:104C10000C9406268E518A3030F4E82FF0E0E254EE
:104C2000FE4F8081089580E00895CF93C82F809132
:104C300040038130E1F038F0823009F43FC0109237
:104C4000400380E012C0E0910401F09105018081F1
:104C5000813111F08232A9F78C2F0E940626811132
:104C60001DC08C2F0E9473258170CF910895E09113
:104C70000401F09105018081813171F3823261F389
:104C80008C2F0E940826811110C0C43181F048F495
:104C9000CB3059F0C03171F080E0E6CF81E090E098
:104CA000E3CFC93221F0C833B9F781E0DDCF1092EC
:104CB0004003F2CF82E080934003F7CFC93219F16D
:104CC00088F4C43101F120F4C73081F181E0CDCF07
:104CD00082EE8C0F8630D0F78C2F0E940A268093AC
:104CE0003F03F4CFCE3401F140F46AE0CB3471F7E6
:104CF00080913F030E949624E9CFC13579F061E0AD
:104D0000C235B1F3E3CF80913F03882319F01092AD
:104D10003F03DCCF81E080934003A7CF61E0809127
:104D20003F030E940C25D2CF6AE0F9CF10923703DF
:104D300084E180930A01C09309018CE38093080108
:104D400088E08093070188E280930601BFCF8091BD
:104D5000610308950F931F93CF93DF9300D01F92A9
:104D6000CDB7DEB78C010E941929823011F0843052
:104D700019F583E089831B830A838093E9008FEF11
:104D80009091E800815095FD06C095ED9A95F1F758
:104D900000008111F5CF8091E80085FF0DC050E043
:104DA00040E063E070E0CE0101960E9436298091D8
:104DB000E8008E778093E8000F900F900F90DF91BE
:104DC000CF911F910F910895CF93DF9300D01F9241
:104DD000CDB7DEB72091B203243031F522E029832C
:104DE000805891099B838A8383E08093E9008FEF49
:104DF0009091E800815095FD06C095ED9A95F1F7E8
:104E000000008111F5CF8091E80085FF0DC050E0D2
:104E100040E063E070E0CE0101960E943629809167
:104E2000E8008E778093E8000F900F900F90DF914D
:104E3000CF910895CF93DF93EC010E94192982301E
:104E400011F08430F9F482E08093E9008FEF9091C3
:104E5000E800815095FD06C095ED9A95F1F70000A8
:104E60008111F5CF8091E80085FF0CC050E040E053
:104E700065E070E0CE010E9436298091E8008E77CF
:104E80008093E800DF91CF910895CF93DF93EC01F9
:104E90000E941929823011F08430F9F480911501B3
:104EA0008823F1F08091AC0387FF1AC084E08093DF
:104EB000E9008FEF9091E800815095FD06C095E1E3
:104EC0009A95F1F700008111F5CF8091E80050E04C
:104ED00040E060E270E085FD1AC0DF91CF91089557
:104EE00081E08093E9008FEF9091E800815095FD7B
:104EF00006C095ED9A95F1F700008111F5CF8091EC
:104F0000E80085FFEACF50E040E068E070E0CE01C5
:104F10000E9436298091E8008E778093E80080E235
:104F2000FE01A1E4B3E001900D928A95E1F7D5CF9F
:104F30008091B103811109C00E94C62A0E94232BCF
:104F40008091E20084608093E20008951092B103A2
:104F50000895089508950C949B2142E061EC81E04E
:104F60000E94442A42E061EC82E00E94442A42E02E
:104F700061EC83E00E94442A42E261EC84E00C94FC
:104F8000442A8091B403833009F455C030F4813051
:104F900071F1823009F491C008958A3009F47DC01E
:104FA0008B3009F463C0893009F044C08091B303A9
:104FB000813209F03FC08091B7039091B803009708
:104FC00011F00397B9F58091E800877F8093E8009E
:104FD0008091E80082FF2AC08091F10080936103F4
:104FE0008091E8008B778093E8000C94782A809178
:104FF000B303813AF9F48091E800877F8093E80059
:105000008091B7039091B803892B61F460E281E449
:1050100093E070E00E9485298091E8008B7780936F
:10502000E800089560E090E080E0F3CF8091B20363
:105030008111CECF08958091B303813AD9F7809141
:10504000B7039091B803892BA9F78091E800877F77
:105050008093E8008091E80080FFFCCF80911501EB
:105060008093F1008091E8008E77BDCF8091B303EB
:10507000813201F78091B7039091B803892BD1F663
:105080008091E800877F8093E8000E94782A8091D1
:10509000B503809315010C94DE198091B30381321E
:1050A00049F68091E800877F8093E8000E94782A83
:1050B0008091B6038093620308958091B303813A8F
:1050C00009F0B8CF8091E800877F8093E800809155
:1050D000E80080FFFCCF80916203C2CF84B7877F56
:1050E00084BF0FB6F894A895809160008861809382
:1050F0006000109260000FBE80E880936100109203
:1051000061000E9448140E94C62A0E94232B8091AD
:10511000E20084608093E20078940E94AC2D0E94AB
:105120004C148BE091E00E94F4138091B20385301F
:1051300029F00E945A140E94F312F7CF0E945521C1
:105140008091B003882389F30E948421882369F326
:105150000E942029EACF0C94AD28292F3327233031
:10516000310579F158F421303105F1F02230310563
:1051700019F190E080E030E020E01AC021323105E2
:10518000C9F122323105A9F76430710590F7FB01AE
:10519000EE0FFF1FE453FE4F2081318168537E4F95
:1051A000FB01808190E004C082E190E021EB34E0DB
:1051B000FA013183208308958DE690E024E434E001
:1051C000F7CF99278130910579F040F08230910531
:1051D00071F0039771F6EAE0F4E002C0E0E4F4E075
:1051E000849190E09F01E4CFE8E2F4E0F9CFE0E1C0
:1051F000F4E0F6CF6430710508F0BBCF660F771F7F
:10520000FB01EC52FE4F2081318189E090E0D0CF4C
:105210000895CF93C82F0E940829C0936303CF91AC
:1052200008958091B203843011F081E0089582E006
:10523000089580916303811102C00C94112908958F
:1052400080E189BD82E189BD09B400FEFDCF809176
:10525000D8008F7D8093D8008091E0008260809399
:10526000E0008091E00081FDFCCF0895AF92BF92F5
:10527000CF92DF92FF920F931F93CF93DF936C0136
:10528000EB018A010E94972AF82E811123C0011593
:10529000110539F0F80180819181C81BD90BC80E26
:1052A000D91EB12CA12C2097A9F08091E80085FD92
:1052B00022C08091E8008E778093E80001151105E7
:1052C000A1F0F80180819181A80EB91EB182A0825F
:1052D00085E0F82E8F2DDF91CF911F910F91FF90D8
:1052E000DF90CF90BF90AF9008950E94972A8823B7
:1052F000D1F2F82EEFCFF60181916F018093F1008A
:105300002197FFEFAF1ABF0ACECFFC018091B903FE
:105310009091BA0386179707A0F06115710529F4DB
:105320009091E8009E779093E80090E061157105F8
:1053300051F4911108C08091E80082FF35C080E0EF
:105340000895BC01F2CF8091B2038823C9F1853062
:10535000C9F18091E80083FD31C08091E80082FDB1
:10536000EACF8091E80080FFE1CF2091F3008091A7
:10537000F200322F282F6115710519F02830310500
:1053800058F091E02830310509F090E02091E800D4
:105390002E772093E800CACF81918093F10061506D
:1053A00071092F5F3F4FE7CF8091B203882341F00F
:1053B000853041F08091E80083FFBDCF81E0089502
:1053C00082E0089583E00895FC018091B9039091F3
:1053D000BA0386179707A0F06115710529F480912B
:1053E000E8008E778093E80090E06115710551F434
:1053F000911108C08091E80082FF36C080E00895D6
:10540000BC01F2CF8091B2038823D1F18530D1F174
:105410008091E80083FD32C08091E80082FDEACFF0
:105420008091E80080FFE1CF2091F3008091F200AD
:10543000322F282F6115710519F02830310558F0E9
:1054400091E02830310509F090E08091E8008E77F6
:105450008093E800CACF84918093F1003196615027
:1054600071092F5F3F4FE6CF8091B203882341F04F
:10547000853041F08091E80083FFBCCF81E0089542
:1054800082E0089583E00895982F973028F08F7078
:105490008093E90081E008959093E900242F762F0E
:1054A00050E0981731F07091EC002091ED00509190
:1054B000F00021FD02C09F5FE8CF3091EB003E7FFE
:1054C0003093EB003091ED003D7F3093ED00309153
:1054D000EB0031603093EB007093EC002093ED0013
:1054E0005093F0002091EE0027FDE5CF80E0089575
:1054F0008091B30387FF13C08091E80082FF06C04C
:105500008091E8008B778093E80004C08091B2031B
:105510008111F2CF08958091B2038823D9F380914D
:10552000E80080FFF8CF8091E8008E77ECCF2091E3
:10553000E4003091E50085E69091EC0090FF06C014
:105540009091E80090FF06C080E008959091E800F7
:1055500092FDFACF9091B203992391F0953091F09A
:105560009091EB0095FD10C04091E4005091E50052
:105570002417350709F381509A01F1F684E0089564
:1055800082E0089583E0089581E008950E94342B1D
:105590000E943C2BE0EEF0E0808181608083E8EDAA
:1055A000F0E080818F77808319BCA7EDB0E08C910B
:1055B0008E7F8C9380818F7E80831092B1030895BB
:1055C0000F931F93CF93DF930E94342B0E943C2BA9
:1055D000C8EDD0E088818F77888388818068888350
:1055E00088818F7D888319BC1092B2031092AE031C
:1055F0001092B0031092AF0300EE10E0F80180812A
:105600008B7F808388818160888342E060E080E0D6
:105610000E94442AE1EEF0E080818E7F8083E2EEFA
:10562000F0E0808181608083808188608083F801E0
:1056300080818E7F8083888180618883DF91CF9194
:105640001F910F910895E8EDF0E080818F7E8083B7
:10565000E7EDF0E080818160808384E082BF81E0BB
:105660008093B1030C94E02AE8EDF0E080818E7F16
:1056700080831092E20008951092DA001092E10007
:1056800008951F920F920FB60F9211242F933F93FC
:105690004F935F936F937F938F939F93AF93BF933A
:1056A000EF93FF938091E10082FF0BC08091E200B5
:1056B00082FF07C08091E1008B7F8093E1000E9410
:1056C000AB2D8091DA0080FF19C08091D80080FF57
:1056D00015C08091DA008E7F8093DA008091D90026
:1056E00080FF94C080E189BD82E189BD09B400FEDC
:1056F000FDCF81E08093B2030E9498278091E10062
:1057000080FF19C08091E20080FF15C08091E20007
:105710008E7F8093E2008091E20080618093E200BE
:105720008091D80080628093D80019BC85E0809376
:10573000B2030E94AA278091E10084FF29C08091D2
:10574000E20084FF25C080E189BD82E189BD09B402
:1057500000FEFDCF8091D8008F7D8093D80080918E
:10576000E1008F7E8093E1008091E2008F7E809344
:10577000E2008091E20081608093E2008091AE03BC
:10578000882309F449C084E08093B2030E94AB27C8
:105790008091E10083FF29C08091E20083FF25C052
:1057A0008091E100877F8093E10082E08093B203E3
:1057B0001092AE038091E1008E7F8093E100809192
:1057C000E2008E7F8093E2008091E200806180930E
:1057D000E20042E060E080E00E94442A8091F00014
:1057E00088608093F0000E94A927FF91EF91BF91FC
:1057F000AF919F918F917F916F915F914F913F9169
:105800002F910F900FBE0F901F90189519BC1092FA
:10581000B2030E94A62772CF8091E30087FD02C0E9
:1058200081E0B2CF83E0B0CF1F920F920FB60F92FC
:1058300011242F933F934F935F936F937F938F9395
:105840009F93AF93BF93CF93EF93FF93C091E900E2
:10585000CF708091EC001092E9008091F000877F7A
:105860008093F00078940E94502C1092E90080916F
:10587000F00088608093F000C093E900FF91EF9101
:10588000CF91BF91AF919F918F917F916F915F91D8
:105890004F913F912F910F900FBE0F901F90189531
:1058A0001F93CF93DF93CDB7DEB7AA970FB6F894C7
:1058B000DEBF0FBECDBFE3EBF3E08091F10081933B
:1058C00023E0EB3BF207C9F70E94C1278091E80073
:1058D00083FF44C08091B3039091B4039A3008F0E1
:1058E0003DC0E92FF0E0E958F34D0C943931812C9B
:1058F000A72CAE2CA72CAE2C052D272DAE2C7E2D43
:105900008B2D803889F0823849F58091B7038F70EC
:10591000873020F58093E9008091EB0085FB882794
:1059200080F91092E90006C08091AF039091B00316
:10593000911182609091E800977F9093E8008093A6
:10594000F1001092F1008091E8008E772DC0282F91
:105950002D7F21F48823D1F0823059F18091E80025
:1059600083FF0AC08091E800877F8093E8008091E0
:10597000EB0080628093EB00AA960FB6F894DEBF2E
:105980000FBECDBFDF91CF911F9108958091B503D8
:10599000813021F7933009F080E08093B0031092BA
:1059A000E9008091E800877F8093E8000E94782AD0
:1059B000D5CF8091B5038111F2CF8091B7038F705D
:1059C0002FEF280F263050F68093E9002091EB004E
:1059D00020FFE5CF933031F48091EB00806280931B
:1059E000EB00DDCF9091EB0090619093EB0021E014
:1059F00030E001C0220F8A95EAF72093EA00109266
:105A0000EA008091EB008860EACF8111A7CF109166
:105A1000B5031F778091E3008078812B8093E300AA
:105A20008091E800877F8093E8000E94782A809127
:105A3000E80080FFFCCF8091E30080688093E30062
:105A400083E0111101C082E08093B20387CF8058B8
:105A5000823008F083CF8091B5039091B6038C3DDE
:105A600023E09207A1F583E08A838AE289834FB716
:105A7000F894DE01139620E03EE051E2E32FF0E0DF
:105A800050935700E49120FF03C0E295EF703F5F11
:105A9000EF708E2F90E0EA30C0F0C7968D939D9303
:105AA0002F5F243159F74FBF8091E800877F8093A3
:105AB000E8006AE270E0CE0101960E94852980919B
:105AC000E8008B778093E80049CFC096E7CF6091DC
:105AD000B7037091B803AE014F5F5F4F0E94AB28D0
