:100000000C946E020C948B020C948B020C948B0259
:100010000C948B020C948B020C948B020C948B022C
:100020000C948B020C948B020C9411250C94E425F7
:100030000C94791B0C948B020C948B020C948B0205
:100040000C948B020C948B020C948B020C948B02FC
:100050000C948B020C94C41B0C948B020C948B029A
:100060000C948B020C948B020C948B020C948B02DC
:100070000C948B020C948B020C948B020C948B02CC
:100080000C948B020C948B020C948B020C948B02BC
:100090000C948B020C948B020C948B020C948B02AC
:1000A0000C948B020C948B020C948B0229002B0075
:1000B000E000E100E20000001E00140004001D004A
:1000C000000000001F001A0016001B000000E300E3
:1000D00020000800070006000000E10021001500D4
:1000E0000900190002510000220017000A00050053
:1000F0000000000000002C0400001E0100000000B1
:10010000660C035400001F010000000023001C00C7
:100110000B00110000000000240018000D0010006A
:100120000151000025000C000E00360000002C00DC
:10013000260012000F0037000000E7002700130020
:10014000330038000000000000002A002800E5000D
:10015000E600000000300100010001000100000085
:1001600000001E002B0000000000010000001F0026
:1001700035000000000001000000200031002900CF
:100180000000010000002100340000000000010018
:10019000000022002A0000000000010000001014EE
:1001A000000000000000010000000000000000004E
:1001B000000001000000230000000000000001001A
:1001C000000024002D0000000100010000002500B7
:1001D0002E00010001000100000026002F00010098
:1001E00001000100000027003000010001000100B3
:1001F00001000100010001000100000000000000FA
:1002000000000000005C00003A00AA0000000000AE
:10021000000001003B00A9000000000000000100F8
:100220003C00A80000000000000001003D000000AC
:1002300000000000000001003E000000000000007F
:1002400000000100000000000000000000000100AC
:100250000000000000000000000001003F0000005E
:10026000F2000000000001004000F400F100000076
:10027000000001004100F500F00000000000010056
:1002800042000000F30000000000010043004400B1
:100290004500000000000100000000000000000018
:1002A000000000000000000000000000000000004E
:1002B000000000000000000000000000000000003E
:1002C00016140000000000000000000000000614EA
:1002D0000000050000000000000000000000000019
:1002E000000017140A1400000000000000000000C5
:1002F00000000000000000000000005100000000AD
:1003000000000000000000000000000000000000ED
:1003100000000000000000000000000000000C14BD
:100320000000000000000000000000000F140000AA
:1003300000000000000000000000000000000000BD
:10034000000000000000000000000000160345004F
:10035000720067006F0044006F00780020004500C5
:100360005A00000028035A005300410020005400A6
:100370006500630068006E006F006C006F0067002E
:10038000790020004C00610062007300000004034B
:10039000090409023B00020100A0FA09040000015F
:1003A000030101000921110100012240000705811C
:1003B0000308000A090401000103000000092111DB
:1003C00001000122BC000705820320000A1201106F
:1003D0000100000008973274490100010200010584
:1003E000010902A10185020901A1000509190129DC
:1003F000051500250195057501810295017503819B
:10040000010501093009311581257F9502750881A3
:100410000609381581257F950175088106050C0AA6
:1004200038021581257F950175088106C0C0050138
:100430000980A101850319012AB700150126B7001B
:10044000950175108100C0050C0901A101850419F1
:10045000012AA002150126A002950175108100C095
:1004600005010906A1018505050719E029E7150021
:1004700025019508750181020507190029EF15006E
:10048000250195F0750181020508190129059505D9
:1004900075019102950175039101C005010906A13D
:1004A00001050719E029E715002501950875018167
:1004B000029501750881010507190029FF1500261D
:1004C000FF009506750881000508190129059505A5
:1004D00075019102950175039101C00011241FBEA1
:1004E000CFEFDAE0DEBFCDBF12E0A0E0B1E0ECE597
:1004F000F3E502C005900D92AA32B107D9F723E0C7
:10050000AAE2B2E001C01D92A037B207E1F70E9453
:1005100059220C9434290C9400008098889A819870
:10052000899A84988C9A85988D9A86988E9A8798BD
:100530008F9A0895209828982198299822982A9887
:1005400023982B9852985A9853985B983E984698BF
:100550000895CF93C82F873070F580910601909150
:100560000701892B99F564E670E080E40E942C0C69
:100570009093070180930601892BD1F464E670E023
:1005800082E10E94880C9093070180930601892BD9
:1005900079F481E090E001C0880FCA95EAF764E63B
:1005A00070E080950E94880C90930701809306016B
:1005B000CF910C94DB0C8B30C9F050F4893081F072
:1005C0008A3089F0883049F0209A2898CF91089590
:1005D0008C3079F4539A5B98F9CF219A2998F6CF09
:1005E000229A2A98F3CF239A2B98F0CF529A5A98AE
:1005F000EDCF3E9A4698EACFCF93DF93873058F5F8
:100600008091060190910701C0E0892B71F464E6A6
:1006100070E081E40E942C0C909307018093060106
:10062000892B39F0C0E00E94DB0C8C2FDF91CF9139
:10063000089584E690E00E94B70CEC0197FF05C096
:100640009093070180930601EDCFC09510920701AA
:1006500010920601E8CFCFB12FB1269526952C73C5
:10066000C3702C2BC22FC095E0CF0E94440490E0B1
:1006700090930701809306010E949A020C948D02C8
:10068000FF920F931F93CF93DF9300D00F92CDB7BC
:10069000DEB78091060190910701892B91F080913E
:1006A0002A028F5F80932A0281110BC00E944404AA
:1006B00090E09093070180930601892B11F40E942A
:1006C000D90307E313E01A821B828A81895F898339
:1006D0008A810E94A90289810E94A9028A810E94BE
:1006E000FC02F80191918F01F12C891721F03197CB
:1006F0008083FF24F39489810E94FC02F801968193
:100700008917B9F0868381E08F29FB81F82BFB8361
:100710000E949A028A818F5F8A838730B1F68B812B
:100720000F900F900F90DF91CF911F910F91FF903D
:10073000089580E0E9CF0E94440490E0909307017F
:10074000809306010E949A020E948D02E5E4F3E084
:10075000119283E0E335F807D9F70895259A2D9A89
:100760000895269A2E9A0895279A2F9A08955698B2
:100770005E98089525982D98089526982E980895A6
:1007800027982F9808950E94B7030E94BA030E94E9
:10079000BD030C94C00390E090938900809388007F
:1007A00090938B0080938A0090938D0080938C00AF
:1007B00008950E94C3038FEF0E94CB030E94AE03F3
:1007C0002FEF80E792E0215080409040E1F700C099
:1007D00000000E94B1032FEF80E792E0215080409B
:1007E0009040E1F700C000000E94B4032FEF80E7C3
:1007F00092E0215080409040E1F700C000000E944C
:10080000BA032FEF80E792E0215080409040E1F75B
:1008100000C000000E94BD032FEF80E792E021504E
:1008200080409040E1F700C000000E94C0030C949B
:10083000C30389EA8093800089E080938100249833
:100840002C983F988AB18F7C8AB96E98479A8BB161
:1008500080638BB9769A0E94EC196093330370938E
:100860003403809335039093360367702FEF629FB4
:10087000C001112495958795959587950E94CB0386
:100880000E94D9030C94E50480E290E09093070164
:100890008093060180912B0281110EC00E94260CCC
:1008A00081E080932B022FEF83ED90E32150804075
:1008B0009040E1F700C0000064E670E080E40E9430
:1008C0002C0C9093070180930601892B09F04EC0F0
:1008D00064E670E080E00E94880C909307018093AA
:1008E0000601892B09F042C064E670E080E00E94B6
:1008F000880C9093070180930601892BB9F564E673
:1009000070E08FE30E94880C9093070180930601AA
:10091000892B61F50E94DB0C64E670E080E40E94A4
:100920002C0C9093070180930601892BF9F464E65F
:1009300070E08CE00E94880C909307018093060180
:10094000892BA1F464E670E080E00E94880C90930B
:10095000070180930601892B49F464E670E08FE378
:100960000E94880C90930701809306010E94DB0C83
:10097000809106010895CF93DF9300D000D0CDB7CA
:10098000DEB71092330310923403109235031092A5
:10099000360384E080618093330380913303909128
:1009A0003403A0913503B091360389839A83AB83D6
:1009B000BC83BC01CD010E94F0190F900F900F90E5
:1009C0000F90DF91CF910C94FC190895CF93DF9392
:1009D00000D000D0CDB7DEB78091D0029091D10287
:1009E000A091D202B091D30289839A83AB83BC8356
:1009F000BC01CD010E94731989830E94B7030E9434
:100A0000BA030E94BD030E94C0039981923061F035
:100A1000933091F09130C1F40F900F900F900F90A0
:100A2000DF91CF910C94AE030F900F900F900F9029
:100A3000DF91CF910C94B1030F900F900F900F9016
:100A4000DF91CF910C94B4030F900F900F900F9003
:100A5000DF91CF910895CF93FB01813E910591F5F0
:100A6000C281CC2369F081E080932F02838194813D
:100A700090932E0280932D02C0E08C2FCF91089589
:100A800080912C02882341F081EE0E94270F109262
:100A90002F0210922C02F1CF8381948120912D029C
:100AA00030912E02821B930B883C910580F789E2DE
:100AB0000E94910E89E20E94270F80912C028823C8
:100AC00031F3E2CF80912F02C1E08823B1F2C091CF
:100AD0002C02C111D2CFC281CC2339F081EE0E9409
:100AE000910E81E080932C02C8CFC82FC6CFCF9340
:100AF000DF939C01FB019A9581159F4160F5E90107
:100B0000CC27D170D901AA27B270B90166277470B9
:100B1000A9014427587034FF10C080E1CD2B09F49F
:100B200080E0AB2B09F08062672B09F08064452BD5
:100B300009F08068DF91CF91099481E0CD2B09F411
:100B400080E0AB2B09F08260672B09F08460452BB5
:100B500089F38860EFCFDF91CF910895CF93DF9332
:100B6000EC01805E9109089720F065EB72E1209717
:100B700011F460E97FE0CE010E9477058C2FDF91B0
:100B8000CF910C94910ECF93DF93EC010E94270F2D
:100B9000CE01805E9109089720F06CEB72E12097FE
:100BA00011F467E97FE0CE01DF91CF910C947705D6
:100BB000CF93DF93D82FC92F0E94AE058D2F9C2F86
:100BC000DF91CF910C94C30581E008950C942B051F
:100BD00008950C94E8051F93CF93DF9300D000D0C5
:100BE0000F92CDB7DEB749835A836B8330915E0293
:100BF00089819A8131111DC06623B9F02223A9F0A1
:100C00000E940918182F682F89819A810E94B017B5
:100C100069817A81812F0F900F900F900F900F9024
:100C2000DF91CF911F910C94AF060E94DF17182F10
:100C3000EFCF0E94091869817A81EDCFFC01262F40
:100C4000408151816281738184810C94EB05CF9343
:100C5000DF93D82FC92F60E00E941E066D2F7C2FD6
:100C6000DF91CF910C94E9050E94BE19811102C059
:100C70000E945F1A0E94BF090C9419040C94A008EA
:100C8000282F2F7041F0822F90E02A3010F44D96DB
:100C900008950697089587E290E0089508950E94C8
:100CA000D9120E944E062FEF84E39CE02150804031
:100CB0009040E1F700C000000C94E81B0F931F93D5
:100CC000CF93DF93EC0161E00E941E068C01BE0110
:100CD0000E94E605882359F1BE01C8010E944A0A14
:100CE000882329F1BE01C8010E94D40A8823F9F0A3
:100CF000BE01C8010E94290B8823C9F0BE01C801AA
:100D00000E94FC0B882399F08A81882339F0011511
:100D10008CE5180751F00F3D1C4579F0CE01DF91AD
:100D2000CF911F910F910C94E4050E944F0680E033
:100D3000DF91CF911F910F9108950E945F1AF7CF15
:100D400008950C94A00681E008950C94A306CF9317
:100D5000C82F0E94A1068C2FCF910C94A506972F27
:100D600070E026E0929F600D711D1124FB0194E557
:100D7000899FE00DF11D1124EE0FFF1FE455FF4F79
:100D8000859194910895CF93DF930E94AF060E94BE
:100D9000C507EC01811522E5920708F062C08115B4
:100DA00031E5930708F0D1C0883E910518F5803EE3
:100DB0009105B8F5883A910570F4853A910508F0E7
:100DC000BEC08130910569F10497813A910548F1DF
:100DD000D0E0C0E026C0885A91094797C8F7C85AA2
:100DE000D0E0CC0FDD1FCD53DE4F0990D881C02D50
:100DF000D46417C0811540E59407B8F4C11580E4A8
:100E0000D80708F09FC0CF3FD10509F028F4C03FB4
:100E1000D105F0F2D06505C0CE019A9581159F41AC
:100E2000B8F6CE01DF91CF910895F4E096958795BD
:100E3000FA95E1F783702C2F26952695237040E2D2
:100E4000249F90011124382B8C2F8370C1E0D0E0B7
:100E500002C0CC0FDD1F8A95E2F7C22BD32BDC68D2
:100E6000E0CFC11589E5D807C8F5C11598E5D907C0
:100E700008F083C0C11525E5D207F0F4C11534E5AB
:100E8000D30708F075C09C2F969596959E01237008
:100E90003327C115D34508F45DC0C1E0D0E002C0DE
:100EA000CC0FDD1F2A95E2F720E2929FC0011124AA
:100EB000C82BD92BDA68B5CFCE0195558F3F910558
:100EC00011F008F085CF8C2F0E945D08C82FD0E06C
:100ED000DC2FCC27CC27DF71D062A3CFC1153CE536
:100EE000D307D0F4C1154BE5D40708F04BC0CE01B1
:100EF00099558F3F910511F008F06ACF8C2F8F70B4
:100F00000E945D0834E0D695C7953A95E1F7CF7019
:100F1000DC2FC82FD06985CFCE0190568115904225
:100F200008F056CF8D2F8F710E945D0890E0982FAA
:100F3000882788279F719C012C2BE901CDCFA4978E
:100F4000D0646FCFDF70D06A6CCFD82FCC27C16F41
:100F5000D06A67CFC1E0D0E002C0CC0FDD1F2A9578
:100F6000E2F730E2939FC0011124C82BD92B77CF31
:100F7000DC2FCC27C46FD06A54CFDC2FCC27C06FB6
:100F8000D06A4FCFDD27D0664CCF803E910599F1D6
:100F9000C8F48133910509F476C048F4893291058B
:100FA00009F46AC08A32910509F474C0089589333E
:100FB0009105D1F082389105B9F08533910509F496
:100FC00054C00895843E910599F138F4823E91050C
:100FD000F9F0833E910509F10895863E910599F156
:100FE000873E9105B9F1089520915D032370A1F02A
:100FF00080EE90E0089520915D0320FD52C0309175
:101000005E0330FF09C024FF4FC090E080E004C0C1
:1010100020915D0322FDF7CF089520915D0322FD0D
:1010200046C030915E0330FDE3CF24FFF5CFEDCF16
:1010300020915E0321FFF0CF80915D0384FDE5CF19
:1010400087EE90E0089520915D0323FFE5CF24FD16
:10105000DCCFF6CF20915D0323FD2CC030915E03E1
:1010600031FFE3CF84EE90E0089520915D0325FFEA
:10107000D3CF89E290E0089520915D0325FFCCCF86
:1010800085E390E0089520915D0326FFC5CF8AE2B5
:1010900090E0089520915D0326FFBECF81E390E0AC
:1010A000089589E390E0089583EE90E0089582EE3C
:1010B00090E0089586EE90E0089590915D0392FF90
:1010C00006C0282F28712830F9F4877F846093FFA9
:1010D00006C0282F28712831F1F4877E8461209181
:1010E0005E0320FF06C0382F38713830D9F4877F6F
:1010F000816021FF06C0282F28712831D1F4877E16
:10110000816194FD877E0895282F24712430F9F69B
:101110008B7F8860DCCF282F2471243101F78B7EF0
:101120008861DDCF382F3171313019F78E7F8860BB
:10113000E0CF282F2171213121F78E7E8861E1CF08
:101140000C94E604E82FF0E0EB5BFC4F80810895FF
:1011500008950E943503E7E3F3E0A5E4B3E01192BC
:101160001D9283E0E534F807D1F78EE00E94CD08A8
:101170000C943406CF9387E393E00E944003C82F7A
:10118000282F4EE065E473E087E393E00E9457095F
:101190000E943E068C2FCF910895CF93C82F90E0E8
:1011A0000E94C4278093340290933502282FFC01BB
:1011B0009BEF8E2F821B8C1710F0CF910895919387
:1011C000F8CF0F931F93CF93DF93962F1092330294
:1011D00010913402E12FF091350230E0A62FB0E0FB
:1011E0000BEFCBEFD0E02E2F211B281738F03093D8
:1011F0003302DF91CF911F910F91089520812B3FF2
:1012000091F0422F50E0921780F0BD01641B750BE6
:10121000AB01052E000C660B770B4E3151056105B5
:10122000710550F000833196DECFBE01641B750B53
:10123000AB014A0F5B1FEDCF31E0F5CFCF92DF92CC
:10124000EF92FF920F931F93CF93DF936B01109256
:101250003602E0903402F090350250913302FC01E6
:1012600090E080E030E0841768F0509333023093D0
:101270003602DF91CF911F910F91FF90EF90DF9099
:10128000CF900895E601C80FD91F61917881761734
:1012900051F08701080F191FD8017C917B3F29F479
:1012A0002C93688351E00196DECF31E0FCCFDF92D2
:1012B000EF92FF920F931F93CF93DF93182F092F75
:1012C000F62EE72EC42FD22F0E94A91BAC016091ED
:1012D0003102709132029093320280933102309148
:1012E0003002832F90E0861B970B840F951F6BEFC6
:1012F00070E00E949627D82E8093300280913302AE
:10130000882329F16D2D8C2F0E94E108DD2379F0CF
:101310002D2D4C2F6F2D7E2D812F902FDF91CF9172
:101320001F910F91FF90EF90DF900C941E09809118
:101330003302882369F3809136028111E9CFDF916E
:10134000CF911F910F91FF90EF90DF900895D111F1
:10135000DFCFF1CFCF93DF93EC01FB0197FF0BC001
:101360008281882341F00E94D509CE019F770E9497
:101370002D0A0E940F0A81E0DF91CF9108958CE041
:1013800090E00E94EC2890E0B0E0A0E0809353034E
:1013900090935403A0935503B0935603089560911E
:1013A00053038CE090E00C9400290E94F00C869589
:1013B00081708093580390915303913029F48823CE
:1013C00019F089E30E947D0F0E94CC188093570387
:1013D0000E94E018809153038230A9F030F481110B
:1013E0000DC082EE0E94910E02C0843099F08FE30E
:1013F0009CE90197F1F700C00000089588E193E0AF
:101400000E94D805F4CF82EE0E94910E87E50E94DB
:101410007D0FEDCF86EE0E947D0F88E1F8CF8091A1
:101420005303823019F030F481110AC082EE0E9419
:10143000270F02C0843079F0809157030C94DD1897
:101440008CE20E947D0F809158038823A9F389E3E1
:101450000E947D0FF1CF88E2FBCF0F931F93CF93B4
:10146000DF938C01CCE0D0E0C8010C2E02C0969531
:1014700087950A94E2F78F700E9440060E94D80573
:101480002497CC3F8FEFD80779F7DF91CF911F9149
:101490000F9108950F931F93CF93DF93EC018B016E
:1014A000FB018281882361F00E94CC18CE01825E0C
:1014B0009C458530910520F4809353030E94CF0909
:1014C000B801CE01DF91CF911F910F910C94AA0921
:1014D0000F931F93CF93DF93C42FD22FFC018281F0
:1014E0008823C9F0409339020E94A91B90933802C7
:1014F0008093370280E28C0F883008F050C0C770AC
:1015000081E001C0880FCA95EAF7DF91CF911F9162
:101510000F910C94900F10913902141335C08091E3
:101520003702909138020E94B51B883C910560F506
:10153000C0E2CD0F1D17B9F080E2810F883040F472
:10154000177081E001C0880F1A95EAF70E94970F83
:10155000C83048F481E09D2F977001C0880F9A959C
:10156000EAF70E94900F802F0E947D0FC830B8F4D8
:10157000D77081E001C0880FDA95EAF7DF91CF914B
:101580001F910F910C94970F80E28C0F883038F4E4
:10159000C77081E001C0880FCA95EAF7EFCFDF91ED
:1015A000CF911F910F9108950F939C01CB01243F80
:1015B0004CE53407A1F190F4293DFCE53F0749F1E2
:1015C0002A3D4CE53407E9F1283D3C45C1F0FC01DA
:1015D00082818823E1F11092390219C0263FFCE58F
:1015E0003F0719F1273F4CE5340729F1253F3C45DA
:1015F00071F707E225EE44EE65EF7CE505C006E2F3
:1016000021EE41EE68ED7CE50E94680A80E00F91D2
:10161000089507E225EE45EE69ED7CE5F5CF06E29B
:1016200021EE40EE64EF7CE5EFCF06E221EE42EEE4
:1016300066EF7CE5E9CF07E225EE46EE67EF7CE555
:10164000E3CF08E221E045EE6AED7CE5DDCF81E005
:10165000DECFCF93DF93EC01FB018281882309F475
:10166000C9C0C631FCE5DF07E0F4C2309CE5D9070C
:10167000F0F00E94D11990935E0380935D03C63110
:10168000ECE5DE0720F5C230FCE5DF0798F4809139
:101690005D0390915E030E94DF190E94D91280E0E1
:1016A00006C09E012B5F3C452930310510F3DF91C8
:1016B000CF910895FE01E350FC4580915D03816068
:1016C000E331F10588F4EA5CF64D0C94BE27CB5F5C
:1016D000DC45C930D105D8F6C75BD64DFE010C9468
:1016E000BE2780915D03826080935D03D0CF80919F
:1016F0005D038460F9CF80915D038860F5CF8091B0
:101700005E03816080935E03C2CF80915E0382603E
:10171000F9CF80915D038061E7CF80915D038062A6
:10172000E3CF80915D038064DFCF0E94D912809166
:101730005D038068D9CF80915D038C60D5CF8091A7
:101740005E038360DFCF80915D038E7FCDCF80917C
:101750005D038D7FC9CF80915D038B7FC5CF809165
:101760005D03877FC1CF80915E038E7FCBCF809159
:101770005E038D7FC7CF80915D038F7EB5CF809153
:101780005D038F7DB1CF80915D038F7BADCF0E94D4
:10179000D91280915D038F77A7CF80915D03837FFE
:1017A000A3CF80915E038C7FADCF80915D0382FBE0
:1017B000992790F921E0922790FB82F990FB83F919
:1017C00093CF80915E03982F909591708E7F892B97
:1017D00090FB81F997CF0E94D91290915D03892FD8
:1017E00097FB87F9805880CF81E00E94611A4FCF24
:1017F00080E0FBCF81E05BCFCF93DF93EB018631BD
:101800009C4511F50E94CC189A81992399F08A7A07
:1018100091E009F490E090933A02811109C089E2C5
:101820000E9481180E94101980E0DF91CF910895E5
:1018300085E3F6CF80913A02811104C089E20E94CB
:101840008818F0CF85E3FBCF81E0EFCF1092B9008D
:101850008CE08093B8000895EF92FF920F931F934E
:10186000CF93DF93182FEB011092BC0084EA809392
:10187000BC000E94A91B7C018091BC0087FF27C08F
:101880008091B900887F883029F08091B900887FE5
:101890008031D9F51093BB0084E88093BC000E948E
:1018A000A91B8C018091BC0087FF24C02091B90046
:1018B000287F90E080E02831B1F081E090E0203492
:1018C00011F490E080E09195819591090CC0CF3F93
:1018D000DC0791F20E94A91B8E199F098C179D07A6
:1018E00058F28EEF9FEFDF91CF911F910F91FF90F4
:1018F000EF900895CF3FDC07A9F20E94A91B801B3F
:10190000910B8C179D0770F2ECCF8FEF9FEFEBCF11
:101910000F931F93CF93DF93EB018093BB0084E879
:101920008093BC000E94A91B8C018091BC0087FFA2
:1019300011C02091B900287F81E090E0283211F495
:1019400090E080E0919581959109DF91CF911F9171
:101950000F910895CF3FDC0741F30E94A91B801B24
:10196000910B8C179D0708F38EEF9FEFEECF0F932F
:101970001F93CF93DF93EC0184E88093BC000E9417
:10198000A91B8C018091BC0087FF08C08091BB001F
:1019900090E0DF91CF911F910F910895CF3FDC0729
:1019A00089F30E94A91B801B910B8C179D0750F394
:1019B0008EEF9FEFEECF84E98093BC000895909363
:1019C000400280933F020895E0913F02F09140026F
:1019D000309721F00190F081E02D099480E0089586
:1019E000E0913F02F0914002309711F480E00895B9
:1019F0000190F081E02D09950895DC01E0913F020E
:101A0000F0914002309799F080911A01882351F0AB
:101A100080915D0387FF06C08C9111968C9311977E
:101A200085E08C930280F381E02DCD010994089527
:101A3000DC01E0913F02F0914002309739F082E002
:101A40008C930480F581E02DCD01099408952091B7
:101A50003D0230913E022817390771F090933E0203
:101A600080933D02E0913F02F0914002309721F0D7
:101A70000680F781E02D0994089520913B02309172
:101A80003C022817390771F090933C0280933B0287
:101A9000E0913F02F0914002309721F00084F185FF
:101AA000E02D0994089585B7806885BF85B7806863
:101AB00085BF0895089508950C945A0D08950C94C7
:101AC0005E0D0E94530D0E945B0D0C945C0D81E035
:101AD00008950C94670D089508950E94A01B0E941C
:101AE000A9080E941A1C0C945F0DBF92CF92DF923E
:101AF000EF92FF920F931F93CF93DF9300D000D00C
:101B00000F92CDB7DEB70E946B0D0E946C0D0E9444
:101B1000BA080E94690D882309F45DC082E4C82ECA
:101B200082E0D82E10E000E0B02E802F0E94A208A4
:101B3000F82EF601E1906F01E81609F446C0809195
:101B4000FE0281FD0E94A8089E2D9F2580E0EE24C4
:101B5000E394292F2E21A9F18983BA82FE2081E006
:101B600009F480E08B830E94A91B8160782F9D83FC
:101B70008C8349815A816B818D810E94460EF801C8
:101B8000EE5BFD4F8081E826E0820E94D81D0E9416
:101B9000E40C90914102891779F10E94E40C809342
:101BA00041020F900F900F900F900F90DF91CF9107
:101BB0001F910F91FF90EF90DF90CF90BF900C940A
:101BC000A7068F5FEE0C863021F60F5F1F4F0E3099
:101BD000110509F0A9CF8FEF89838A831B820E94A8
:101BE000A91B8160782F9D838C8349815A816B81E9
:101BF0008D810E94460EC9CF0F900F900F900F90CD
:101C00000F90DF91CF911F910F91FF90EF90DF9098
:101C1000CF90BF900895CF93DF93DC019C91692F03
:101C200070E021E030E0A90102C0440F551F9A95F1
:101C3000E2F7CA0111964C91119750E0EA01C05B9E
:101C4000DD4F288112963C9112973323C9F03091D1
:101C500060023323C1F096E0949FF001959FF00D50
:101C60001124E60FF71FEE0FFF1FE55EFE4F4081C8
:101C700051814D935C93822B8883DF91CF9108959E
:101C8000322F3823E6CF80958223F6CFCF93DF9390
:101C9000CDB7DEB72B970FB6F894DEBF0FBECDBF22
:101CA0004F83588769877A878B878A859B85892B9D
:101CB00021F0CA0189238F3FD9F41E8285E0FE01FD
:101CC0003796DE01119601900D928A95E1F74981D0
:101CD0005A816B817C818D819E810E943C152B965F
:101CE0000FB6F894DEBF0FBECDBFDF91CF91089540
:101CF000CE0107960E940B0EE0CFFC0180819181FE
:101D00000E944B1892959F70963051F4863F41F097
:101D10008091600291E089278093600290935F0236
:101D20000895CF93C82F882309F48FC08238C1F457
:101D30000E94E40C81FD89C089E30E9481180E9401
:101D400010192FEF31EE84E0215030408040E1F750
:101D500000C0000089E30E948818CF910C941019EC
:101D60008338A1F40E94E40C80FD6FC083E50E94DB
:101D700081180E9410199FEF21EE34E0915020400D
:101D80003040E1F700C0000083E5E5CF8438A1F4DE
:101D90000E94E40C82FD59C087E40E9481180E94D1
:101DA00010198FEF91EE24E0815090402040E1F730
:101DB00000C0000087E4CFCF8CEF8C0F813AB8F4DD
:101DC0008C2F0E945620811140C06C2F80910801F9
:101DD000909109010E947A1A882329F08C2F0E9481
:101DE00088180E9410198C2F0E948118B6CF80E2AB
:101DF0008C0F883048F4C77081E001C0880FCA9505
:101E0000EAF70E94CF18A9CF8BE58C0F833038F406
:101E10002C2F2452330BC901CF910C94270DE8E5E8
:101E2000EC0FE73150F4F0E0EE0FFF1FEF50FE4FE4
:101E300080819181CF910C943D0DC03F30F08C2F6B
:101E40000E94D31CCF910C94BE1DCF91089588237E
:101E500009F452C0823871F40E94E40C81FF4CC036
:101E600089E30E9481180E94101989E30E94881852
:101E70000C941019833859F40E94E40C80FF3CC084
:101E800083E50E9481180E94101983E5EFCF843802
:101E900059F40E94E40C82FF2FC087E40E9481184D
:101EA0000E94101987E4E2CF9CEF980F913AF0F26C
:101EB00090E2980F983050F4877091E001C0990F2C
:101EC0008A95EAF7892F0E94D518D2CF9BE5980F03
:101ED000933020F490E080E00C94270D98E5980F63
:101EE000973120F490E080E00C943D0D803F20F08D
:101EF0000E943B1D0C94BE1D0895CF93C82F0E94D5
:101F0000910EC93349F42FEF87EE93E021508040C2
:101F10009040E1F700C000008C2FCF910C94270F68
:101F2000882321F00E94CF180C941019089588235B
:101F300021F00E94D5180C94101908956F927F9289
:101F40008F929F92AF92BF92CF92DF92EF92FF92C9
:101F50000F931F93CF93DF9300D000D000D0CDB765
:101F6000DEB76C016D83172FFC01058102950F70A0
:101F700062806E8261100E94F1180E94C518E82EDE
:101F80008823C1F07E80772009F1812F807F803403
:101F900049F09D81905E9830C8F0803619F42D810B
:101FA000263FA1F082E00E945B190E94C51891E0D3
:101FB000E82EE926812F82958F70A82EB12C8C30C7
:101FC000C0F5F501EE5AF64D0C94BE27E12CF2CF88
:101FD000012F0F70812F807F11F00295007F6E809E
:101FE0006620B1F0002361F08D81805E883018F0AA
:101FF0007D80711009C0802F0E94CF180E94101997
:102000008D810E94910E15C0802F0E94E318F6CF9B
:102010008D810E94270F002361F08D81805E8830C2
:1020200018F08D80811043C0802F0E94D5180E9427
:10203000101928E0A21AB10884E0A816B10420F40F
:102040000E94E40C0E94A7066E80662041F0107F7B
:10205000103619F42D81263F11F00E94B818EE2099
:1020600009F42FC20E949B1880FD2BC2F601128238
:102070000E9495180E94A016C6010E948D120E940F
:10208000951826960FB6F894DEBF0FBECDBFDF9130
:10209000CF911F910F91FF90EF90DF90CF90BF9065
:1020A000AF909F908F907F906F900C94D116802F5F
:1020B0000E94E918BCCF212F2F70F22E812F807F34
:1020C000803219F0F29480EFF8226D80662049F09A
:1020D000262D213029F18E80882069F1002331F1ED
:1020E0008FCF6E80662081F0011106C00E94F71824
:1020F0008F290E94900F9DCF0130C1F70E94F718E1
:102100008F290E94FD1895CF011106C00E94061963
:102110008F2D0E94970F8DCF013009F48ACFF6CF13
:102120007E80772029F0023008F083CF8F2DE1CF19
:1021300001117FCFEDCF002359F32D81293349F4CD
:102140008FEF97EEE3E081509040E040E1F700C070
:1021500000008D810E94270F6CCF812F8695869578
:10216000837071F0813009F064CF7E808D81912F72
:102170009370711002C090E080E00E943D0D59CF35
:102180006E808D81912F9370611002C090E080E08D
:102190000E94270D4ECF8E808D81882029F00E94CD
:1021A000D31C0E94BE1D45CF0E943B1DFACF812F3C
:1021B000837009F059C09E8091103BCF2D812295EC
:1021C00026952770220F220F4D814F7050E070E04E
:1021D00060E0022E04C0440F551F661F771F0A944B
:1021E000D2F76D8080E090E0DC0164FE0FC08FE0EC
:1021F00090E0A0E0B0E004C0880F991FAA1FBB1FA9
:102200002A95D2F780959095A095B095212F269587
:10221000269523703C014D01642A752A862A972A47
:1022200069827A828B829C82223081F02330A9F0ED
:10223000213029F0C401B3010E941616FACE69813B
:102240007A818B819C810E94EE15F3CE69817A811F
:102250008B819C810E943E16ECCE69817A818B81B4
:102260009C810E94EC15E5CE7E808695772011F04A
:10227000812F8170882309F4DCCE2D81229526954B
:102280002770220F220F4D814F7050E070E060E008
:10229000022E04C0440F551F661F771F0A94D2F701
:1022A0008D8080E090E0DC0184FE0FC08FE090E044
:1022B000A0E0B0E004C0880F991FAA1FBB1F2A9599
:1022C000D2F780959095A095B095212F26952695CB
:1022D00023703C014D01642A752A862A972A698257
:1022E0007A828B829C82223081F02330A9F02130C7
:1022F00029F0C401B3010E945F179BCE69817A81E6
:102300008B819C810E94371794CE69817A818B8161
:102310009C810E9487178DCE69817A818B819C81F7
:102320000E946A1686CE012F0F707E80772029F0DA
:10233000802F0E94A0168D81DCCE8D810E94970F88
:10234000802F0E94D11675CE2D81223FB1F168F405
:10235000203FE9F0213F49F17E80772009F448C011
:1023600001114ECE812F8F7125C08D81833F59F190
:10237000843F91F76E80662089F1012F0F71802FC5
:102380000E94A01663E0802F0E94461952CE6E80F4
:10239000662039F001114DCE812F8F710E940617F2
:1023A00048CE023008F045CEF7CF812F8F717E8066
:1023B000772039F20E94A0163CCE812F8F718E803B
:1023C0008820C1F3BECF9E80992029F0812F8F7184
:1023D0000E947B162ECE0E9476162BCE81E00E94A4
:1023E0005B19023008F425CE82E00E945B1921CEF1
:1023F0000111A3CE812F8F71A4CFED81E05FE73073
:10240000C8F5F0E0E25AF64D0C94BE276E806620C7
:1024100009F40FCE8091600291E0892780936002D9
:1024200008CE7E807092600204CE81E08E80882586
:10243000F5CF9E809110FDCD81E0F0CF6E806110D0
:10244000F8CD10926002F5CD7E80772019F00E94C1
:102450009F18EFCD0E94AB18ECCD8E80882039F00C
:1024600080915F028823B1F210925F02E2CD0023D7
:1024700089F2DFCD80915F020023B1F0882341F023
:102480008091600291E089278093600210925F0240
:102490009E808D819110B5CD0E94270F86E0F601B8
:1024A00011928A95E9F7C5CD882309F4C2CD6E80D3
:1024B0006110BFCD8091600291E089278093600216
:1024C000D3CF26960FB6F894DEBF0FBECDBFDF91F7
:1024D000CF911F910F91FF90EF90DF90CF90BF9021
:1024E000AF909F908F907F906F9008950F931F9360
:1024F000CF93DF93EC01688179818A810E9457181C
:102500008C010E94AF170E94EB15B801CE01DF913C
:10251000CF911F910F910C949E0FCF93DF93EC01FD
:102520008B819C81892B29F08881998189238F3F18
:1025300059F4DF91CF910895CE010E947612CE0119
:10254000DF91CF910C942706CE010E945E06811187
:10255000F3CF0E94C518882361F38A81882349F349
:1025600082E0DF91CF910C945B19882321F00E94C7
:10257000E3180C9410190895882321F00E94E9189B
:102580000C94101908950E94F1180E94F4180E94EA
:1025900010190E94E81E0E94BE1D90E080E00E947B
:1025A000270D90E080E00C943D0D0E948F180C9454
:1025B000C3120E94E0180C94D512282F892F8295FF
:1025C0008F70903C80F48A30B0F4843020F48230F4
:1025D00090F480E008958630E1F781E0283E88F0AD
:1025E000213FB9F70EC08C3011F08F3091F793FB7B
:1025F000882780F9089581E0203F39F018F4283EBB
:1026000040F70895243F29F7FCCF08950E944B1806
:102610000C94DD12CF93DF9300D000D00F92CDB792
:10262000DEB70F900F900F900F900F90DF91CF912A
:102630000895CF93DF9300D000D000D0CDB7DEB7A0
:1026400026960FB6F894DEBF0FBECDBFDF91CF91B7
:1026500008951F93CF93DF93E091610216E080917C
:1026600062028E1304C0DF91CF911F910895CE2F87
:10267000D0E01E9FF0011124ED59FD4F40815181A2
:1026800062817381848195810E941913FE013196C4
:10269000E770E5CF409193025091940260919502CA
:1026A0007091960280919702909198020C94191360
:1026B0001F93CF93DF9380919802807FA9F480913C
:1026C0009502882389F080916102C0916202609135
:1026D000930270919402A0919602B0919702D62F26
:1026E000D72316E0C81304C0DF91CF911F9108953E
:1026F00090E0109711F0DF3F19F401968770F2CF48
:10270000189F9001199F300D1124F901ED59FD4FCB
:1027100041814713F2CF40814613EFCF42814111EF
:10272000ECCF438154814A1B5B0B483C510528F791
:10273000809198028F70806180939802F901E85926
:10274000FD4F80818F708061808383E992E00E94D9
:102750008D12DF91CF911F910C942913AF92BF92EC
:10276000CF92DF92EF92FF920F931F93CF93DF935D
:10277000CDB7DEB72B970FB6F894DEBF0FBECDBF37
:102780008C0185E0F801DE01179601900D928A9583
:10279000E1F7F80140815181E28083E9C82E82E0AF
:1027A000D82E60919602709197026115710509F417
:1027B00044C19091930220919402822F89238F3FEC
:1027C00009F43BC1A380B480F0909502F501E61BAB
:1027D000F70BFF2009F4E0C080919802382F307F7A
:1027E000E83CF10508F0B2C0311179C0FE2C251388
:1027F00023C0941321C0E1101FC08F7080618093AB
:1028000098020E944A13C6010E948D12809198027C
:10281000F80185838F2D2B960FB6F894DEBF0FBE7F
:10282000CDBFDF91CF911F910F91FF90EF90DF907F
:10283000CF90BF90AF900895AB2829F0842F8523C7
:102840008F3F09F016C180E0F82FF170DF2EE09184
:1028500061022091620236E080FD1CC0EE20D1F2C0
:1028600080919802816080939802F12CD3CF8E2FB3
:1028700090E03E9FF0011124ED59FD4F61816513F9
:1028800006C06081641303C06281E612E7CFFC01D9
:102890003196E770E213EBCF4F8358878F8198858D
:1028A0000E944B18292F22952F70903260F0225FE2
:1028B0002F70223078F49F7051F0F8019581907F4D
:1028C00031F4D12C0AC09F7011F08823D1F3805EBF
:1028D0008830B8F3C8010E948D12FD2C9BCF2513C0
:1028E00006C0941304C0F801EE2009F470C04F83B1
:1028F00058878F8198850E940613882319F1EE204E
:1029000009F180919802803270F020919302309109
:1029100094023A8329831B82BD82AC828E83CE01CE
:1029200001960E948D1286E0F801A3E9B2E00190C1
:102930000D928A95E1F70E9458130E944A13FF24D2
:10294000F39468CFC8010E948D12F9CF311113C0E2
:102950007A2DBB86AA866E2D8B850E940A1383E989
:1029600092E00E948D1286E0F60111928A95E9F7B5
:102970000E944A137ACF2513BACF9413B8CFE1102F
:10298000B6CFF8018583C8010E948D1286E0F6015A
:1029900011928A95E9F73ECFE83CF10508F040C076
:1029A000FE2CEE2079F225132AC0941328C08091C2
:1029B000980280FD1BC0982F907FC1F0F80185839D
:1029C000903F31F0982F907F905F8F70892B858397
:1029D000C8010E948D1286E0F801A3E9B2E00190DF
:1029E0000D928A95E1F70E944A1314CF86E0F80110
:1029F000A3E9B2E001900D928A95E1F70BCF4F83E6
:102A000058878F8198850E94061381118CCF809101
:102A10009802816080939802C8010E948D12FACEBC
:102A20007A2DBB86AA866E2D8B850E940A1386E0BE
:102A3000F60111928A95E9F7D6CFEE2009F482CFFC
:102A40004F8358878F8198850E940613F82E88231C
:102A500009F478CF86E0F801A3E9B2E001900D9285
:102A60008A95E1F783E992E00E947D0E0E94581357
:102A7000BACF81E08E25E8CE1F93CF93DF93CDB7F9
:102A8000DEB72C970FB6F894DEBF0FBECDBF4F83D5
:102A9000588769877A878B879C87CE0107960E9423
:102AA000AE13882369F08A859B85892B39F04F8185
:102AB0005885842F85238F3F09F077C016E065C0C5
:102AC00086E0FE013796DE01119601900D928A95FF
:102AD000E1F76A857B856115710581F35F81488522
:102AE000842F85238F3F51F32091620230E0C9018A
:102AF000019687709927E0916102E817190671F431
:102B00000E94D912109262021092610286E0E3E9FB
:102B1000F2E0DF011D928A95E9F7D0CF59834A830D
:102B20007D836C8396E0929FD001939FB00D11241A
:102B3000AD59BD4FFE01319601900D929A95E1F786
:102B4000809362020E942913B9CF819FC001112492
:102B50008D599D4F0E94AE138823E9F0E0916102E8
:102B60001E9FF0011124ED59FD4F4081518162817A
:102B70007381848195810E9419138091610290E094
:102B800001968770992780936102809161029091EC
:102B900062028913DACF2C960FB6F894DEBF0FBE0F
:102BA000CDBFDF91CF911F91089569857A858B857F
:102BB0009C850E94191382CF08950C94DC150E9405
:102BC000DD156093D4027093D5028093D602909362
:102BD000D7020C94C31208950C94DF15CF93DF93A2
:102BE00000D000D0CDB7DEB769837A838B839C8316
:102BF0008091D4029091D502A091D602B091D702D3
:102C000029813A814B815C81282B392B4A2B5B2B04
:102C100029833A834B835C83CA01B9010F900F90DB
:102C20000F900F90DF91CF910C94DF15CF93DF932E
:102C300000D000D0CDB7DEB769837A838B839C83C5
:102C40008091D4029091D502A091D602B091D70282
:102C500029813A814B815C81282339234A235B23D4
:102C600029833A834B835C83CA01B9010F900F908B
:102C70000F900F90DF91CF910C94DF15CF93DF93DE
:102C800000D000D0CDB7DEB769837A838B839C8375
:102C90008091D4029091D502A091D602B091D70232
:102CA00029813A814B815C81282739274A275B2774
:102CB00029833A834B835C83CA01B9010F900F903B
:102CC0000F900F90DF91CF910C94DF150C94DC15D1
:102CD0000C9466160E9468166093D0027093D1021D
:102CE0008093D2029093D3020C94C31260E070E000
:102CF000CB010C946A160F931F93CF93DF9300D0F0
:102D000000D0CDB7DEB741E050E060E070E08A016E
:102D10009B0104C0000F111F221F331F8A95D2F799
:102D200009831A832B833C83C901B8010F900F904C
:102D30000F900F90DF91CF911F910F910C946A1615
:102D40000F931F93CF93DF9300D000D0CDB7DEB7A2
:102D500041E050E060E070E004C0440F551F661F82
:102D6000771F8A95D2F78091D0029091D102A091DD
:102D7000D202B091D3028A019B01082B192B2A2B76
:102D80003B2B09831A832B833C83C901B8010F9025
:102D90000F900F900F90DF91CF911F910F910C9496
:102DA0006A160F931F93CF93DF9300D000D0CDB757
:102DB000DEB741E050E060E070E004C0440F551F12
:102DC000661F771F8A95D2F740955095609570954C
:102DD0008091D0029091D102A091D202B091D30201
:102DE0008A019B01082319232A233B2309831A8381
:102DF0002B833C83C901B8010F900F900F900F9067
:102E0000DF91CF911F910F910C946A160F931F932E
:102E1000CF93DF9300D000D0CDB7DEB741E050E0D4
:102E200060E070E004C0440F551F661F771F8A954D
:102E3000D2F78091D0029091D102A091D202B091AC
:102E4000D3028A019B01082719272A273B270983D8
:102E50001A832B833C83C901B8010F900F900F9008
:102E60000F90DF91CF911F910F910C946A16CF9321
:102E7000DF9300D000D0CDB7DEB769837A838B8330
:102E80009C838091D0029091D102A091D202B09106
:102E9000D30229813A814B815C81282B392B4A2B23
:102EA0005B2B29833A834B835C83CA01B9010F9062
:102EB0000F900F900F90DF91CF910C946A16CF93E3
:102EC000DF9300D000D0CDB7DEB769837A838B83E0
:102ED0009C838091D0029091D102A091D202B091B6
:102EE000D30229813A814B815C81282339234A23EB
:102EF0005B2329833A834B835C83CA01B9010F901A
:102F00000F900F900F90DF91CF910C946A16CF9392
:102F1000DF9300D000D0CDB7DEB769837A838B838F
:102F20009C838091D0029091D102A091D202B09165
:102F3000D30229813A814B815C81282739274A278E
:102F40005B2729833A834B835C83CA01B9010F90C5
:102F50000F900F900F90DF91CF910C946A16089507
:102F6000292F220FE22FE90FEE0FE80F8E2F877027
:102F700041E001C0440F8A95EAF7E695E695E695AB
:102F800085E0E89FF0011124E756FD4F30E020E096
:102F900070E05191DF011197CB01022E02C096958E
:102FA00087950A94E2F78170819585278423852788
:102FB0008C932F5F3F4F2530310559F70895292F06
:102FC000220FE22FE90FEE0FE80F9E2F9770E69584
:102FD000E695E69585E0E89FF0011124E756FD4F60
:102FE00050E040E080E0219130E0092E02C03695AB
:102FF00027950A94E2F721703327042E01C0220F8F
:103000000A94EAF7822B4F5F5F4F4530510559F71D
:103010000895BF92CF92DF92EF92FF920F931F938A
:10302000CF93DF938C01C090D002D090D102E0907A
:10303000D202F090D3028091D4029091D502A09157
:10304000D602B091D702C82AD92AEA2AFB2ACFE1B0
:10305000D0E0BC2ED701C6010C2E04C0B695A795B2
:10306000979587950A94D2F780FD0EC0219788F72F
:10307000B12C8B2DDF91CF911F910F91FF90EF908D
:10308000DF90CF90BF900895B8018C2F0E94C306A7
:10309000019761F3EECFCF93DF93D82FC92F0E9412
:1030A00009186D2F7C2FDF91CF910C94C3061F93CD
:1030B000CF93DF93162FD72F90915E02992339F08B
:1030C000862F972FDF91CF911F910C944B18882357
:1030D00091F0862F972F0E940918C82F682F812FF3
:1030E0009D2F0E94B017612F7D2F8C2FDF91CF91E4
:1030F0001F910C94C306862F972F0E94DF17C82FAD
:10310000F2CF682F80910801909109010C94FE1A6A
:10311000682F80910801909109010C94091B8091FE
:103120000801909109010C94141B8091D902859596
:103130008595859508958091D9028770089582E0DC
:103140008093D80281E08093600208951092D802A3
:103150001092600208958091D802823021F481E0BB
:103160008093D8020895833011F40C94A618089522
:103170008091D802823021F483E08093D8020895B0
:10318000813011F40C94A61808959091D90297708B
:1031900081E009F480E008958091FD020895909106
:1031A000FD02982B9093FD020895982F90958091A1
:1031B000FD0289238093FD0208958093FD02089506
:1031C0001092FD0208959091FC02982B9093FC02BE
:1031D0000895982F90958091FC0289238093FC029A
:1031E00008951092FC0208951092FB0208958091B8
:1031F000DA02089508950C94FA189091DA0298175B
:1032000021F08093DA020C94FB1808958091DA0281
:10321000882329F01092DA0280E00C94FB180895BC
:10322000E0910801F09109018091FD028083E09115
:103230000801F091090180819091FC02892B808323
:10324000E0910801F091090180819091FB02892BA6
:1032500080839091DA02992381F0E0910801F09146
:1032600009018081892B8083809108019091090157
:103270000E94661A81110E9406198091080190919E
:1032800009010C94FD0C08950C94431998E0899F52
:1032900090011124622B6093D9020E94A0168091A4
:1032A000D9028595859585950C9444191092D9027B
:1032B00080E00C9444199091D902809589238093E1
:1032C000D902282F277071F4282F082E000C330BF9
:1032D0009217130639F08595859585950E94D1162C
:1032E0000C94561908950F931F93462F572FBC0126
:1032F000CB01AA27BB270097A105B105E9F1AC01D5
:10330000BD0180E1052F162F272F33270115110549
:103310002105310519F0885FB901A8018A019B01D7
:10332000F4E03695279517950795FA95D1F701158D
:1033300011052105310519F08C5FB901A8018A0139
:103340009B01E2E03695279517950795EA95D1F709
:10335000011511052105310519F08E5FB901A8018C
:103360007695679557954795452B462B472B09F042
:103370008F5F1F910F91089580E0C4CF90E080E0AF
:103380000E94FA289C0181E02C3E3E4F09F080E02B
:10339000089582E090E00C94EC2883E090E00C9497
:1033A000EC28CF9384E090E00E94EC28C82F81E2C3
:1033B00090E00E94EC28982F8C2FCF910895CF9306
:1033C000682FC92F84E090E00E9400296C2F81E2D1
:1033D00090E0CF910C9400298FE090E00C94F428B9
:1033E000AB01BC018FE090E00C941229AB01BC0151
:1033F00083E190E00C94122960E070E0CB010C9422
:10340000F6196CEE7EEF90E080E00E941E2960E0ED
:1034100082E090E00E94002960E083E090E00E945A
:1034200000291092D4021092D5021092D602109266
:10343000D70260E084E090E00E94002960E081E231
:1034400090E00E94002960E085E090E00E94002961
:1034500060E086E090E00E9400296FEF87E090E056
:103460000E94002940E050E0BA0188E090E00E940C
:10347000122960E08DE090E00E94002940E050E0D9
:10348000BA0188E190E00E94122960E087E190E0B3
:103490000E94002940E050E0BA018CE190E00E94D7
:1034A000122960E080E290E00E94002940E050E0B4
:1034B000BA0188E190E00E9412290C94BB040C949C
:1034C000011A682F8EE090E00C940029FC013296DE
:1034D00080911A01882321F080915D039EE187FF8E
:1034E00096E080E0915008F4089521912223D1F3D1
:1034F0008F5FF8CF9C01662301F180911A01882328
:10350000F1F080915D0387FF1AC0462F46954695DE
:103510004695603F90F4677081E090E002C0880FAC
:10352000991F6A95E2F7240F311DF901228130E0DD
:103530002823392381E0232B71F480E00895F901D9
:103540003296285F3F4F8191861721F0E217F307EB
:10355000D1F7F3CF81E008959C01FC0132968FEF03
:1035600090E04191461751F08F3F19F4411101C08D
:10357000892F9F5F9630A9F78F3F09F40895280F90
:10358000311D87FD3A95F901628308959C01FC0184
:103590003296285F3F4F8191861303C0DF01119758
:1035A0001C92E217F307B9F70895E62FE695E69522
:1035B000E695603F68F4E80FF92FF11D677021E090
:1035C00030E001C0220F6A95EAF78281822B828364
:1035D0000895E62FE695E695E695603F70F4E80FCE
:1035E000F92FF11D677081E090E001C0880F6A95A6
:1035F000EAF78095928189238283089520911A01A8
:10360000222329F020915D0327FD0C94D51A0C94F8
:10361000AC1A20911A01222329F020915D0327FD85
:103620000C94E91A0C94C61AFC01329680911A0186
:10363000882351F080915D0387FF06C08EE1DF0192
:103640001D928A95E9F7089586E0F9CF08950C94C4
:10365000261B0E94271B80916303843049F110923E
:10366000FF0288E190E020E40FB6F894A8958093DB
:1036700060000FBE2093600080E00E94A7060E94B9
:10368000271B83B7817F846083BF83B7816083BF3B
:103690007894889583B78E7F83BF0FB6F894A895EA
:1036A00080916000886180936000109260000FBE7E
:1036B00008950895CF930E949B030E94BA080E9428
:1036C000591BC0E08C2F0E94A208811105C0CF5F5A
:1036D000CE30C1F7CF91089581E0FCCF08950C94CE
:1036E0006E1B0E94D9120E94E40C0E94A7060C9443
:1036F0006F1B1F921FB61F9211248F939F93AF933E
:10370000BF938091FF02811113C080915903909162
:103710005A03A0915B03B0915C034196A11DB11DBA
:103720008093590390935A03A0935B03B0935C0377
:10373000BF91AF919F918F911F901FBE1F901895C1
:1037400082E084BD93E095BD9AEF97BD80936E00B3
:1037500008952FB7F8948091590390915A03A0913E
:103760005B03B0915C032FBF08959C014FB7F894A1
:103770008091590390915A03A0915B03B0915C032F
:103780004FBF821B930B089578941F921FB61F9210
:1037900011248F939F93AF93BF938091590390917E
:1037A0005A03A0915B03B0915C030196A11DB11D6A
:1037B0008093590390935A03A0935B03B0935C03E7
:1037C000BF91AF919F918F911F901FBE1F90189531
:1037D000F89481E08093E00080E28093D800E9ECE7
:1037E000F0E010828FE19EE40197F1F700C0000045
:1037F0001DBA109268001CBC10BE1FBA10927A004D
:1038000010926E0010926F00109271001092720070
:103810001082ECEBF0E0108214B817B81AB81DB89B
:1038200010BA108215B818B81BB81EB811BA0C948B
:10383000003F0895CF93DF9300D000D0CDB7DEB71F
:103840000E94BE19811102C00E945F1A0E94C9190C
:103850008093FE020E94D11990935E0380935D03D2
:103860000E94CD19282F30E050E040E0CA01B90194
:103870000E94EC158091D0029091D102A091D202C9
:10388000B091D30289839A83AB83BC83BC01CD0101
:103890000F900F900F900F90DF91CF910C946816BE
:1038A0008091080380FF12C060910E0185E0689F3F
:1038B000B001112475956795759567956038710508
:1038C000A8F561157105A1F1862F089581FF09C042
:1038D00060910E0185E0689FB00111247595679590
:1038E000EDCF60910E0182FD0AC08091070388230D
:1038F000D1F090910D0160910E01891728F085E0BB
:10390000689FB0011124DACF869FB001112485E0B1
:10391000869F9001879F300D1124692F70E0C901A7
:103920000E94AA27CBCF65E070E0CECF8FE7089545
:1039300081E008958091080380FF0CC060910B0125
:1039400070E075956795759567956115710549F1F5
:10395000862F089581FF06C060910B0170E0759578
:103960006795F3CF60910B0182FD0BC09091060328
:103970009923A1F060910A0180910B01961738F00C
:10398000682F70E06038710500F38FE70895899F14
:10399000C001112470E00E94AA27F4CF61E070E01A
:1039A000D7CF81E00895803F31F40E94501C81956B
:1039B00080930C030895813F19F40E94501CF8CFA6
:1039C000823F31F40E94501C819580930B0308952F
:1039D000833F19F40E94501CF8CF893F29F40E94BC
:1039E0009A1C80930D0308958A3F21F40E949A1C2B
:1039F0008195F7CF8B3F31F40E949A1C819580937B
:103A00000E0308958C3F19F40E949A1CF8CF843F4E
:103A100031F480910A03816080930A030895853F01
:103A200021F480910A038260F7CF863F21F48091D0
:103A30000A038460F1CF873F21F480910A038860F4
:103A4000EBCF883F21F480910A038061E5CF8D3F61
:103A500031F48091080381608093080308958E3FBC
:103A600021F4809108038260F7CF8F3FB9F78091EE
:103A700008038460F1CF90910B03803F59F480914B
:103A80000C0387FF0DC010920C0391110BC0109214
:103A9000070308C0813F81F480910C0318169CF342
:103AA000992381F080910D0390910E03892B09F0E9
:103AB00064C0109206030895823F49F497FFF0CF47
:103AC00010920B0380910C038111ECCFE0CF833F68
:103AD00019F41916ACF3E4CF20910D03893F29F4B2
:103AE0001216F4F610920D03DBCF8A3F19F427FF6C
:103AF000D7CFF8CF20910E038B3F29F427FFD0CFEB
:103B000010920E03CDCF8C3F19F41216CCF3C8CF10
:103B1000843F31F480910A038E7F80930A03C0CFE3
:103B2000853F21F480910A038D7FF7CF863F21F4F2
:103B300080910A038B7FF1CF873F21F480910A03A4
:103B4000877FEBCF883F21F480910A038F7EE5CFFA
:103B50008D3F31F4809108038E7F80930803A0CFBE
:103B60008E3F21F4809108038D7FF7CF8F3F09F0BE
:103B700097CF809108038B7FF0CF08950E94A91BF7
:103B800020910B0330910C03232B21F0809304032D
:103B90009093050320910D0330910E03232B21F008
:103BA000809302039093030389E093E00C94180D33
:103BB000EF92FF920F931F93CF93DF9300D000D02B
:103BC00000D0CDB7DEB786E0E9E0F3E0DE01119684
:103BD00001900D928A95E1F7E0900B03F0900C03B1
:103BE00000910D0310910E0310920B0310920C0321
:103BF00010920D0310920E038F2D8E2991F080915B
:103C00000403909105030E94B51B9C01809107035A
:103C1000882309F443C090910F019217130608F40A
:103C20004BC0802F812B91F0809102039091030370
:103C30000E94B51B9C0180910603882309F47BC078
:103C400090910C019217130608F483C080910B0326
:103C500090910C03892B90910D03892B90910E0369
:103C6000892B11F00E94BE1DEB82FC820D831E8306
:103C700086E0FE013196A9E0B3E001900D928A95AD
:103C8000E1F726960FB6F894DEBF0FBECDBFDF91E9
:103C9000CF911F910F91FF90EF90089540910103F4
:103CA0009AE0499FA00111244217530708F0B9CFA9
:103CB0008F5F8093070302C08F3FD1F7EE2059F04A
:103CC0000E94501C9FEF1E140CF491E0899F802DE0
:103CD000112480930B03FF2059F00E94501C9FEF8A
:103CE0001F140CF491E0899F802D112480930C0304
:103CF00030910B03332309F494CF20910C0322233A
:103D000009F48FCF45EB3403C0011124992359F0F6
:103D100090930B0345EB240390011124332339F0D6
:103D200030930C037ECF81E080930B03F3CF81E0CF
:103D300080930C0376CF409100039AE0499FA00145
:103D400011244217530708F081CF8F5F8093060339
:103D500002C08F3FD1F7002359F00E949A1C9FEFB9
:103D600010160CF491E0899F802D112480930D038F
:103D7000112359F00E949A1C9FEF11160CF491E048
:103D8000899F802D112480930E0330910D033323DE
:103D900009F45CCF20910E03222309F457CF45EBA1
:103DA0003403C0011124992359F090930D0345EB7E
:103DB000240390011124332339F030930E0346CFAE
:103DC00081E080930D03F3CF81E080930E033ECF1B
:103DD00086E0E9E0F3E0DF011D928A95E9F71092B1
:103DE000070310920603109208030895843009F423
:103DF00042C038F48230E9F0833061F1813041F023
:103E00000895853009F448C0863009F456C00895F5
:103E100080910103482F460F5527551F4F3F5105ED
:103E200024F4680F6093010308958FEF80930103DA
:103E3000089580910F01482F460F5527551F4F3F7A
:103E4000510524F4680F60930F0108958FEF80935C
:103E50000F01089580910E01482F460F5527551FD9
:103E60004F3F510524F4680F60930E0108958FEFC2
:103E700080930E01089580910D01482F460F55271C
:103E8000551F4F3F510524F4680F60930D010895AD
:103E90008FEF80930D01089580910B01482F460FFD
:103EA0005527551F4F3F510524F4680F60930B01B0
:103EB00008958FEF80930B01089580910A01482F98
:103EC000460F5527551F4F3F510524F4680F609347
:103ED0000A0108958FEF80930A010895843071F1EB
:103EE00038F48230A9F08330F1F0813031F0089558
:103EF000853079F18630C1F108958091010368170A
:103F000020F4861B80930103089510920103089505
:103F100080910F01681720F4861B80930F0108958C
:103F200010920F01089580910E01681720F4861BEE
:103F300080930E01089510920E01089580910D0155
:103F4000681720F4861B80930D01089510920D01CF
:103F5000089580910B01681720F4861B80930B0154
:103F6000089510920B01089580910A01681720F4BA
:103F7000861B80930A01089510920A0108950F93F9
:103F80001F93CF93DF9300D000D0CDB7DEB741E0D1
:103F900050E060E070E08A019B0104C0000F111F37
:103FA000221F331F8A95D2F709831A832B833C8300
:103FB000C901B8010E94EC150F900F900F900F905F
:103FC000DF91CF911F910F910C94D912EBEFE80F75
:103FD000EF3308F05AC0F0E0EB59F64D0C94BE27D1
:103FE0000E945F1A81E008958091FE02807F809395
:103FF000FE0281E08093100308950E944F06F2CFE5
:104000009091FE02892F8E7F90FF81608093FE0247
:1040100080FDE8CF817F8093FE02E4CF9091FE0285
:10402000892F8D7F91FF82608093FE0281FFDACF1E
:104030008091FE028160EFCF9091FE02892F8B7FED
:1040400092FF84608093FE0282FDF2CFCBCF9091ED
:10405000FE02892F877F93FF88608093FE0283FD95
:10406000E7CFC0CF0E94D91290915D03892F97FBB3
:1040700087F9805880935D03B5CF80E00E94BF1F11
:10408000B1CF8953FBCF8D51F9CF80E0089580E007
:1040900008950C9447208E518A3030F4E82FF0E0D8
:1040A000E15EFD4F8081089580E00895CF93C82F91
:1040B000809110038130C9F08230E9F1811181C013
:1040C0000E94CC18813159F48C2F0E944720811115
:1040D00025C08C2F0E94E61F8170CF9108950E9409
:1040E000CC18823289F380E0F8CF0E94CC1881315D
:1040F00059F30E94CC18823239F38C2F0E94492048
:1041000081110AC0C431A1F060F4CB3029F0C03174
:1041100019F782E08093100381E0DECF81E090E028
:10412000DBCFC93229F081E0C833B1F280E0D4CFCF
:1041300010921003FBCFCB3469F198F4C43240F4F1
:10414000CE3100F5C73061F1C43121F081E0C5CF37
:10415000C932E1F780910F03882381F010920F0399
:10416000F5CFC135A9F061E0C235A9F06AE0CE34DF
:1041700069F780910F030E946E1FE8CF81E0809362
:104180001003ABCF8C2F0E944B2080930F03DECF08
:1041900061E0EFCF6AE080910F030E94F61ED6CF58
:1041A0001092010384E180930F01C0930E018CE310
:1041B00080930D0188E080930B0188E280930A01CF
:1041C000C5CF109210038FCF809131030895CF9304
:1041D000DF9300D00F92CDB7DEB790916303943098
:1041E00019F589836A837B8382E08093E9008FEFEE
:1041F0009091E800815095FD06C095ED9A95F1F7F4
:1042000000008111F5CF8091E80085FF0DC050E0DE
:1042100040E063E070E0CE0101960E940E238091A1
:10422000E8008E778093E8000F900F900F90DF9159
:10423000CF910895BC0184E00C94E720BC0183E099
:104240000C94E72022E02093E9002FEF3091E80062
:10425000215035FD06C035ED3A95F1F700002111EA
:10426000F5CF2091E80025FF0BC050E040E066E06C
:1042700070E00E940E238091E8008E778093E80022
:104280000895CF93DF93D82FC92F80911A018823E7
:10429000C1F180915D0387FF34C060E282E08093CA
:1042A000E9008FEF9091E800815095FD06C095EDF3
:1042B0009A95F1F700008111F5CF8091E80085FF14
:1042C0001DC080911A0170E050E040E0811104C0EF
:1042D00050E040E068E070E08D2F9C2F0E940E239C
:1042E0008091E8008E778093E80080E2ED2FFC2F2C
:1042F000A1E1B3E001900D928A95E1F7DF91CF91B2
:10430000089568E081E0CBCF80916203811109C0FC
:104310000E9496240E94F3248091E200846080939E
:10432000E2000895109262030895089508950C9490
:10433000711B42E061EC81E00E94122442E261ECD8
:1043400082E00C94122480916503893089F148F44D
:10435000823009F49DC0833009F458C0813041F0A7
:1043600008958A3009F484C08B3009F46AC0089536
:1043700080916403813A09F048C08091E800877F0A
:104380008093E8008091680390916903892B61F420
:1043900060E281E193E070E00E945D238091E8009B
:1043A0008B778093E800089560E090E080E0F3CFA1
:1043B00080916403813249F580916803909169038B
:1043C000029718F58091E800877F8093E80080913C
:1043D000E80082FF16C09091F3008091F2000297EE
:1043E00029F48091F1008B7F813021F48091F100DC
:1043F000809331038091E8008B778093E8000C94E0
:104400004624809163038111E2CF08958091640373
:10441000813AD9F78091680390916903892BA9F7B4
:104420008091E800877F8093E8008091E80080FF1A
:10443000FCCF80911A018093F1008091E8008E7783
:10444000DCCF80916403813201F780916803909101
:104450006903892BD1F68091E800877F8093E8007B
:104460000E9446248091660380931A010C94D9120D
:1044700080916403813249F68091E800877F8093C0
:10448000E8000E94462480916703809332030895D8
:1044900080916403813A09F0B8CF8091E800877F6A
:1044A0008093E8008091E80080FFFCCF8091320388
:1044B000C2CF84B7877F84BF0FB6F894A895809148
:1044C0006000886180936000109260000FBE80E8F9
:1044D00090E00FB6F89480936100909361000FBE56
:1044E0000E94610D0E9496240E94F3248091E200B4
:1044F00084608093E20078940E947B270E946D0D77
:1045000080E191E00E94DF0C80916303853039F0F7
:104510000E94750D0E946B0D0E946C0DF5CF0E94DC
:10452000291B80916103882379F30E945A1B8823F9
:1045300059F30E94F822E8CF0C949E22FC01CB0193
:10454000DA012F2F332723303105D1F070F42130D9
:10455000310509F43EC02230310569F48BE390E067
:1045600022E933E02D933C93089521323105E9F09F
:104570002232310521F190E080E030E020E0F2CFFE
:10458000CF019927E13059F08230910559F0EEE8DA
:10459000F3E0892B81F7849190E09F01E3CFE4E67B
:1045A000F3E0F9CFECE4F3E0F6CF892BB9F061301A
:1045B000710509F789E090E02DEB33E0D3CF892B2B
:1045C00091F061307105B9F68CEB90E02FED33E09E
:1045D000C9CF82E190E02DEC33E0C4CF89E090E0D8
:1045E00024EA33E0BFCF80E490E02BE934E0BACF97
:1045F00080E189BD82E189BD09B400FEFDCF8091D3
:10460000D8008F7D8093D8008091E00082608093F5
:10461000E0008091E00081FDFCCF0895AF92BF9251
:10462000CF92DF92FF920F931F93CF93DF936C0192
:10463000EB018A010E946524F82E811123C0011527
:10464000110539F0F80180819181C81BD90BC80E82
:10465000D91EB12CA12C2097A9F08091E80085FDEE
:1046600022C08091E8008E778093E8000115110543
:10467000A1F0F80180819181A80EB91EB182A082BB
:1046800085E0F82E8F2DDF91CF911F910F91FF9034
:10469000DF90CF90BF90AF9008950E94652488234B
:1046A000D1F2F82EEFCFF60181916F018093F100E6
:1046B0002197FFEFAF1ABF0ACECFFC01CB012091AB
:1046C0006A0330916B032617370790F0009729F49F
:1046D0002091E8002E772093E80040E0009751F405
:1046E000411108C08091E80082FF31C080E0089548
:1046F000C901F3CF209163032223A9F12530A9F149
:104700002091E80023FD2DC02091E80022FDEACF92
:104710002091E80020FFE2CF3091F3002091F200D9
:10472000009719F02830310558F041E02830310564
:1047300009F040E02091E8002E772093E800CECFEA
:1047400041914093F10001972F5F3F4FE9CF809156
:104750006303882341F0853041F08091E80083FFB6
:10476000C1CF81E0089582E0089583E00895FC01BF
:10477000CB0120916A0330916B032617370790F025
:10478000009729F42091E8002E772093E80040E07C
:10479000009751F4411108C08091E80082FF32C0B7
:1047A00080E00895C901F3CF209163032223B1F182
:1047B0002530B1F12091E80023FD2EC02091E800C2
:1047C00022FDEACF2091E80020FFE2CF3091F300F4
:1047D0002091F200009719F02830310558F041E09F
:1047E0002830310509F040E02091E8002E77209331
:1047F000E800CECF44914093F100319601972F5FAE
:104800003F4FE8CF80916303882341F0853041F02A
:104810008091E80083FFC0CF81E0089582E0089591
:1048200083E00895982F973028F08F708093E900E7
:1048300081E008959093E900242F762F50E0981797
:1048400031F07091EC002091ED005091F00021FDCD
:1048500002C09F5FE8CF3091EB003E7F3093EB00CA
:104860003091ED003D7F3093ED003091EB003160F1
:104870003093EB007093EC002093ED005093F00028
:104880002091EE0027FDE5CF80E00895809164033C
:1048900087FF13C08091E80082FF06C08091E80086
:1048A0008B778093E80004C0809163038111F2CF7D
:1048B0000895809163038823D9F38091E80080FFF5
:1048C000F8CF8091E8008E77ECCF2091E400309112
:1048D000E50095E6A9012091EC00822F817020FF70
:1048E00006C08091E80080FF06C080E00895209116
:1048F000E80022FD1AC080916303882389F0853087
:1049000089F08091EB0085FD0FC02091E40030918B
:10491000E50042175307F9F29150E1F684E008955B
:1049200082E0089583E0089581E008950E940425BF
:104930000E940C25E0EEF0E0808181608083E8ED4C
:10494000F0E080818F77808319BCA7EDB0E08C9177
:104950008E7F8C9380818F7E808310926203089576
:104960000F931F93CF93DF930E9404250E940C2581
:10497000C8EDD0E088818F778883888180688883BC
:1049800088818F7D888319BC1092630310925F0326
:10499000109261031092600300EE10E0F801808134
:1049A0008B7F808388818160888342E060E080E043
:1049B0000E941224E1EEF0E080818E7F8083E2EE9F
:1049C000F0E0808181608083808188608083F8014D
:1049D00080818E7F8083888180618883DF91CF9101
:1049E0001F910F910895E8EDF0E080818F7E808324
:1049F000E7EDF0E080818160808384E082BF81E028
:104A0000809362030C94B024E8EDF0E080818E7F07
:104A100080831092E20008951092DA001092E10073
:104A200008951F920F920FB60F9211242F933F9368
:104A30004F935F936F937F938F939F93AF93BF93A6
:104A4000EF93FF938091E10082FF0BC08091E20021
:104A500082FF07C08091E1008B7F8093E1000E947C
:104A60007A278091DA0080FF19C08091D80080FFFA
:104A700015C08091DA008E7F8093DA008091D90092
:104A800080FF94C080E189BD82E189BD09B400FE48
:104A9000FDCF81E0809363030E9484218091E10037
:104AA00080FF19C08091E20080FF15C08091E20074
:104AB0008E7F8093E2008091E20080618093E2002B
:104AC0008091D80080628093D80019BC85E08093E3
:104AD00063030E9496218091E10084FF29C08091A8
:104AE000E20084FF25C080E189BD82E189BD09B46F
:104AF00000FEFDCF8091D8008F7D8093D8008091FB
:104B0000E1008F7E8093E1008091E2008F7E8093B0
:104B1000E2008091E20081608093E20080915F0377
:104B2000882309F449C084E0809363030E9497219D
:104B30008091E10083FF29C08091E20083FF25C0BE
:104B40008091E100877F8093E10082E0809363039E
:104B500010925F038091E1008E7F8093E10080914D
:104B6000E2008E7F8093E2008091E200806180937A
:104B7000E20042E060E080E00E9412248091F000B8
:104B800088608093F0000E949521FF91EF91BF9182
:104B9000AF919F918F917F916F915F914F913F91D5
:104BA0002F910F900FBE0F901F90189519BC109267
:104BB00063030E94922172CF8091E30087FD02C0BF
:104BC00081E0B2CF83E0B0CF1F920F920FB60F9269
:104BD00011242F933F934F935F936F937F938F9302
:104BE0009F93AF93BF93CF93DF93EF93FF93D091B6
:104BF000E900DF708091EC00C82FC17080FDC0E833
:104C00001092E9008091F000877F8093F000789403
:104C10000E9428261092E9008091F000886080931D
:104C2000F000CD2BCF70C093E900FF91EF91DF91A1
:104C3000CF91BF91AF919F918F917F916F915F9134
:104C40004F913F912F910F900FBE0F901F9018958D
:104C50001F93CF93DF93CDB7DEB7AA970FB6F89423
:104C6000DEBF0FBECDBF84E693E0FC01019620912C
:104C7000F100208323E08C369207B9F70E94A3212C
:104C80008091E80083FF1EC18091640390916503C9
:104C90009A3008F017C1E92FF0E0EC55F64D0C946E
:104CA000BE27803899F0823809F00CC180916803E2
:104CB0008F70873008F006C18093E9008091EB0087
:104CC00085FB882780F91092E90006C08091600377
:104CD00090916103911182609091E800977F909389
:104CE000E8008093F1001092F1008091E8008E7747
:104CF000E5C0882309F4D3C0823009F0E3C0809175
:104D000066038111D6C0809168038F702FEF280F42
:104D1000263008F0D7C08093E9002091EB0020FFF7
:104D2000C8C0933031F48091EB0080628093EB0037
:104D3000C0C09091EB0090619093EB0021E030E0D7
:104D400001C0220F8A95EAF72093EA001092EA0048
:104D50008091EB008860EACF8111B4C010916603A6
:104D60001F778091E3008078812B8093E30080910E
:104D7000E800877F8093E8000E9446248091E80045
:104D800080FFFCCF8091E30080688093E30082E0A5
:104D9000111183E08093630395C08058823008F03E
:104DA00091C080916603909167038C3D23E0920748
:104DB000A1F583E08A838AE289834FB7F894DE0104
:104DC000139620E03EE051E2E32FF0E050935700CD
:104DD000E49120FF03C0E295EF703F5FEF708E2FEC
:104DE00090E0EA30C0F0C7968D939D932F5F2431F9
:104DF00059F74FBF8091E800877F8093E8006AE20F
:104E000070E0CE0101960E945D238091E8008B77CF
:104E10008093E80057C0C096E7CF60916803709117
:104E20006903AE014F5F5F4F0E949C22BC01892B3A
:104E300009F448C08091E800877F8093E800898169
:104E40009A810E94B723E1CF8038E1F58091E80094
:104E5000877F8093E80080915F038093F10045CFC6
:104E6000811130C090916603923060F58091E80026
:104E7000877F8093E80090935F030E94462480918F
:104E80005F03882311F084E005C08091E30087FD73
:104E9000FACF81E0809363030E94992113C080912F
:104EA0006603813079F481E0933009F080E08093EB
:104EB00061031092E9008091E800877F8093E80009
:104EC0000E9446248091E80083FF0AC08091E80098
:104ED000877F8093E8008091EB0080628093EB00F5
:104EE000AA960FB6F894DEBF0FBECDBFDF91CF916B
:104EF0001F9108950895CF93809163038823A1F0B3
:104F0000C091E900CF709091EC00892F817090FDE5
:104F100080E8C82B1092E9008091E80083FD0E9490
:104F20002826CF70C093E900CF910895AA1BBB1B20
:104F300051E107C0AA1FBB1FA617B70710F0A61B99
:104F4000B70B881F991F5A95A9F780959095BC01BA
:104F5000CD01089597FB072E16F4009407D077FD36
:104F600009D00E94962707FC05D03EF490958195C4
:104F70009F4F0895709561957F4F0895EE0FFF1F25
:104F80000590F491E02D09940F931F93CF93DF9335
:104F90009C01029710F422E030E0E0916E03F09162
:104FA0006F0390E080E0B0E0A0E0309791F40097CC
:104FB00009F445C0821B930B84309105B8F58A81B2
:104FC0009B816115710569F1FB0193838283FE0169
:104FD00011C0408151810281138142175307F0F0C3
:104FE0004217530799F4109761F012960C93129799
:104FF00013961C933296CF01DF91CF911F910F91A1
:10500000089500936E0310936F03F4CF009719F087
:105010004817590718F4CA01BD01EF01DF01F80173
:10502000C4CF90936F0380936E03D1CFFE01E80F3E
:10503000F91F21933193029799838883DCCF809164
:105040006C0390916D03892B41F480910201909142
:10505000030190936D0380936C0380910001909104
:105060000101009741F48DB79EB740910401509122
:105070000501841B950B40916C0350916D034817FB
:10508000590708F0B8CF841B950B8217930708F4D3
:10509000B2CFB9016E5F7F4F8617970708F4ABCF89
:1050A000640F751F70936D0360936C03FA01219375
:1050B0003193A1CFCF93DF939C010097E9F0FC01DE
:1050C000329713821282C0916E03D0916F03DE017A
:1050D00090E080E02097A1F480819181280F391F12
:1050E00080916C0390916D038217930709F067C05C
:1050F000F0936D03E0936C03DF91CF910895DA0193
:10510000AE17BF0708F041C012964D915C911397FE
:10511000CD014115510599F7DC011396FC93EE93EF
:1051200012974D915D91A40FB51FEA17FB0781F40B
:10513000208131812E5F3F4F240F351FDC011196F6
:105140003C932E932281338113963C932E93129796
:10515000B0E0A0E08A819B810097B1F5FE018191CA
:105160009191E80FF91F80916C0390916D038E1758
:105170009F0711F6109759F510926F0310926E0366
:10518000D0936D03C0936C03B7CFB383A2834081E8
:105190005181240F351FA217B30771F44E5F5F4F83
:1051A0002D913C911197420F531F518340831296CA
:1051B0002D913C9133832283009709F0ADCFF0937A
:1051C0006F03E0936E0398CFDE01EC01C3CF13961B
:1051D0001C921E921297D4CFF999FECF92BD81BD39
:1051E000F89A992780B50895A6E1B0E044E050E030
:1051F0000C942629A8E1B0E042E050E00C94262966
:10520000262FF999FECF92BD81BDF89A019700B47F
:10521000021639F01FBA20BD0FB6F894FA9AF99A1F
:105220000FBE08950396272F0E9401290E9400298E
:10523000252F0E940129242F0C9401290196272F44
:105240000E9401290C940029DC01CB01FC01F99991
:10525000FECF06C0F2BDE1BDF89A319600B40D92C2
:1052600041505040B8F70895F894FFCF710B770B79
:105270007B0B890B8D0B910B950B9B0BA30BA70B3A
:10528000AB0BAF0BBB0BBF0BC30BC70BCD0BEB0BB0
:10529000D50B7F0B850BB30BB70B9F0BD10BE10B22
:1052A000F40BF80BE80FE80F5B105B10AD10CB10A0
:1052B000FD111910D7109311A411A41106122D126B
:1052C000111215121E1219122412FD1FF41F0020B4
:1052D000F21F45204520F21F452045201C20452077
:1052E000272032204520452045204520F21F45201B
:1052F0004520F21F45200E20452045204320432015
:1053000043204320432043204320432043203D208B
:105310004520FD1FF01F4520452045204520452004
:10532000452045204520452045203D20452045205D
:10533000F21F4520412041204120412041204120B1
:105340004120412041203D2051267926622779269F
:0C5350006227AC26CD26622724273027D8
:10535C000000700320002000DB022808643C0714C6
:10536C00E420412122211E211A2101000D010D02F0
:10537C000D030D040D050D000C010C020C030C04A7
:10538C000C050C000B010B020B030B040B050B00A3
:10539C000A010A020A030A040A050A0009010902A1
:1053AC000903090409050900080108020803080497
:1053BC000805080007010702070307040705070093
:1053CC000601060206030604060506000501050291
:1053DC000503050405050500040104020403040487
:1053EC000405040003010302030303040305030083
:1053FC000201020202030204020502000101010281
:10540C000103010401050100000100020003000476
:10541C00000500E200E900EA00B500B600B700CDD7
:10542C00008301CC008A0192019401210223022401
:10543C00022502260227022A02B300B4006F007074
:10544C0000E200E900EA00B500B600B700CD008329
:10545C0001CC008A0192019401210223022402252D
:10546C0002260227022A02B300B4006F007000016A
:0A547C0002030405060708090000FA
:00000001FF
