:100000000C9478020C9495020C9495020C94950231
:100010000C9495020C9495020C9495020C94950204
:100020000C9495020C9495020C94CD200C94A02174
:100030000C94EA1A0C9495020C9495020C94950277
:100040000C9495020C9495020C9495020C949502D4
:100050000C9495020C94821B0C9495020C949502BE
:100060000C9495020C9495020C9495020C949502B4
:100070000C9495020C9495020C9495020C949502A4
:100080000C9495020C9495020C9495020C94950294
:100090000C9495020C9495020C9495020C94950284
:1000A0000C9495020C9495020C94950229002B0057
:1000B000E000E100E20000001E00140004001D004A
:1000C000000000001F001A0016001B000000E300E3
:1000D0002000080007000600225229002100150018
:1000E0000900190021520000220017000A00050033
:1000F0000000000000002C0400001E0100000000B1
:10010000660C835200001F010000000023001C0049
:100110000B00110000000000240018000D0010006A
:100120002152000025000C000E00360022522C0047
:10013000260012000F0037000000E7002700130020
:10014000330038000000000000002A002800E5000D
:10015000E6000000000001000100010001000000B5
:1001600000001E002B0000000000010000001F0026
:1001700035000000000001000000200031002F01C8
:100180000000010000002100340000000000010018
:10019000000022002A0000000000010000001014EE
:1001A000000000000000010000000000000000004E
:1001B000000001000000230000000000000001001A
:1001C000000024002D0000000100010000002500B7
:1001D0002E00010001000100000026002F00010098
:1001E00001000100000027003000010001000100B3
:1001F00001000100010001000100000000000000FA
:1002000000000000007C000000003A00AA0000008E
:100210000000010000003B00A900000000000100F8
:1002200000003C00A80000000000010000003D00AC
:10023000000000000000010000003E002A00000055
:1002400000000100000000000000000000000100AC
:1002500000000000000000000000010000003F005E
:10026000CF0000000000010000004000CE00D100DF
:100270000000010000004100CD00D200000001009C
:1002800000004200D0000000000001000000430018
:1002900044004500000001000000000000000000D4
:1002A000000000000000000000000000000000004E
:1002B000000000000000000000000000000000003E
:1002C00016140000000000000000000000000614EA
:1002D0000000050000000000000000000000000019
:1002E000000017140A1400000000000000000000C5
:1002F000000000000000000000002052000000008C
:1003000000000000000000000000000000000000ED
:1003100000000000000000000000000000000C14BD
:100320000000000000000000000000000F140000AA
:1003300000000000000000000000000000000000BD
:10034000000000000000000000000000160345004F
:10035000720067006F0044006F00780020004500C5
:100360005A00000028035A005300410020005400A6
:100370006500630068006E006F006C006F0067002E
:10038000790020004C00610062007300000004034B
:10039000090409025400030100A0FA090400000145
:1003A0000301010009211101000122440007058118
:1003B00003080001090401000103010200092111E1
:1003C0000100012247000705820308000109040219
:1003D000000103000000092111010001226D000746
:1003E000058303200001120100020000000897327B
:1003F000744901000102000105010980A101850382
:1004000019012AB700150126B70095017510810062
:10041000C0050C0901A101850419012AA0021501DA
:1004200026A002950175108100C005010906A101F1
:100430008506050719E029E71500250195087501CE
:1004400081020507190029EF1500250195F07501B6
:10045000810205081901290595057501910295018B
:1004600075039101C005010902A1010901A100055F
:100470000919012908150025019508750181020552
:1004800001093009311581257F950275088106091A
:10049000381581257F950175088106050C0A3802FB
:1004A0001581257F950175088106C0C005010906E3
:1004B000A101050719E029E7150025019508750137
:1004C00081029501750881010507190029FF1500B2
:1004D00026FF0095067508810005081901290515F4
:1004E000002501950575019102950175039101C0E3
:1004F00011241FBECFEFDAE0DEBFCDBF11E0A0E0D8
:10050000B1E0E4EFFAE402C005900D92A639B1071C
:10051000D9F722E0A6E9B1E001C01D92A03FB207E1
:10052000E1F70E94ED140C9439250C94000080989A
:10053000889A8198899A84988C9A85988D9A8698B9
:100540008E9A87988F9A08952098289821982998AC
:1005500022982A9823982B9852985A9853985B98E7
:100560003E9846980895CF93C82F873078F58091AC
:10057000060190910701892B39F564E670E080E46B
:100580000E94E91B9093070180930601892BD1F407
:1005900064E670E082E10E94591C90930701809309
:1005A0000601892B79F481E090E001C0880FCA959B
:1005B000EAF764E670E080950E94591C9093070169
:1005C000809306010E94AE1CCF9108958B30C1F03C
:1005D00048F4893079F08A3081F0883041F0209AEF
:1005E0002898F2CF8C3079F4539A5B98EDCF219A0A
:1005F0002998EACF229A2A98E7CF239A2B98E4CF1A
:10060000529A5A98E1CF3E9A4698DECFCF93DF9325
:10061000873058F58091060190910701C0E0892B41
:1006200071F464E670E081E40E94E91B9093070195
:1006300080930601892B39F0C0E00E94AE1C8C2FFC
:10064000DF91CF91089584E690E00E94891CEC012F
:1006500097FF05C09093070180930601EDCFC095E9
:100660001092070110920601E8CFCFB12FB1269565
:1006700026952C73C3702C2BC22FC095E0CF0E94FF
:100680004C0490E090930701809306010E94A4021D
:100690000E9497020895A3E0B0E0E1E5F3E00C9436
:1006A00082238091060190910701892B91F080911E
:1006B00098018F5F8093980181110BC00E944C04B8
:1006C00090E09093070180930601892B11F40E941A
:1006D000DF030FEB12E01A821B828A81895F898314
:1006E0008A810E94B30289810E94B3028A810E949A
:1006F00006038F73F80191918F01F12C891721F076
:1007000031978083FF24F39489810E9406038F73BD
:10071000F8019681891791F0868381E08F29FB810A
:10072000F82BFB830E94A4028A818F5F8A83873023
:10073000A1F68B812396E5E00C949E2380E0EECF1A
:100740000E944C0490E090930701809306010E9460
:10075000A4020E949702EDECF2E0119282E0EB3DE0
:10076000F807D9F70895259A2D9A0895269A2E9A72
:100770000895279A2F9A089556985E980895259877
:100780002D98089526982E98089527982F980895C3
:100790000E94BC030E94BF030E94C2030E94C503C3
:1007A000089590E0909389008093880090938B0047
:1007B00080938A0090938D0080938C0008950E940E
:1007C000C8038FEF0E94D1030E94B3032FEF80E78D
:1007D00092E0215080409040E1F700C000000E946C
:1007E000B6032FEF80E792E0215080409040E1F780
:1007F00000C000000E94B9032FEF80E792E0215073
:1008000080409040E1F700C000000E94BF032FEF3E
:1008100080E792E0215080409040E1F700C0000066
:100820000E94C2032FEF80E792E021508040904069
:10083000E1F700C000000E94C5030E94C8030895AC
:1008400089EA8093800089E08093810024982C9825
:100850003F988AB18F7C8AB96E98479A8BB1806332
:100860008BB9769A0E947D106093B9027093BA0298
:100870008093BB029093BC0267702FEF629FC00110
:10088000112495958795959587950E94D1030E948F
:10089000DF030E94EA04089580E290E0909307014C
:1008A000809306018091990181110EC00E94E31B83
:1008B00081E0809399012FEF83ED90E321508040F8
:1008C0009040E1F700C0000064E670E080E40E9420
:1008D000E91B9093070180930601892B09F04EC014
:1008E00064E670E080E00E94591C909307018093B9
:1008F0000601892B09F042C064E670E080E00E94A6
:10090000591C9093070180930601892BB9F564E681
:1009100070E08FE30E94591C9093070180930601B9
:10092000892B61F50E94AE1C64E670E080E40E94B1
:10093000E91B9093070180930601892BF9F464E683
:1009400070E08CE00E94591C90930701809306018F
:10095000892BA1F464E670E080E00E94591C90931A
:10096000070180930601892B49F464E670E08FE368
:100970000E94591C90930701809306010E94AE1CAF
:10098000809106010895A4E0B0E0E9ECF4E00C9455
:1009900085231092B9021092BA021092BB021092F3
:1009A000BC0284E080618093B9028091B902909189
:1009B000BA02A091BB02B091BC02BC01CD010E9461
:1009C00082100E9490102496E2E00C94A1230E94D1
:1009D000EB0408950895A4E0B0E0E1EFF4E00C9496
:1009E00085238091D4019091D5019C0150E040E095
:1009F000CA01B9010E94AB0689830E94BC030E9410
:100A0000BF030E94C2030E94C5033981323051F0F6
:100A1000333059F0313011F40E94B3032496E2E0F0
:100A20000C94A1230E94B603F9CF0E94B903F6CF1C
:100A30000F931F93CF938B018932910551F18C97BE
:100A400009F45CC08091A101882371F080919E011E
:100A500081110AC0FB018581882331F081EE0E945B
:100A6000780781E080939E0180919D01C1E08823F9
:100A700051F1C0919A01C11126C0F801C581CC2362
:100A800009F46CC080EE0E94780781E080939A019F
:100A90001AC0FB01C581CC2359F081E08093A101EC
:100AA000828193819093A00180939F01C0E00BC04D
:100AB00080919E01882361F081EE0E9409081092C6
:100AC000A10110929E018C2FCF911F910F9108953B
:100AD0008281938120919F013091A001821B930B11
:100AE000883C910560F789E20E94780789E20E94BC
:100AF000090880919E01882311F3DECFFB01C58197
:100B0000CC2351F081E080939D0182819381909369
:100B10009C0180939B01CACF80919A01882341F068
:100B200080EE0E94090810929D0110929A01CBCF8D
:100B30008281938120919B0130919C01821B930BB8
:100B4000883C910580F78CE20E9478078CE20E9435
:100B5000090880919A01882331F3E2CFC82FB3CFDF
:100B60008430B8F46E30A8F4463098F4E42FF0E006
:100B700096E0699FE00DF11D112494E5899FE00D39
:100B8000F11D1124EE0FFF1FE455FF4F8591949145
:100B9000089581E090E008950E94B005089581E0F5
:100BA00008950E94CF05089581E008950E941805D8
:100BB000089508950E94D9050895A6E0B0E0E3EEF7
:100BC000F5E00C94842349835A839E833091A701D6
:100BD00089819A8131111AC03E81332399F02223F1
:100BE00089F00E942C0C182F682F89819A810E940D
:100BF000080C69817A81812F0E94E9122696E3E030
:100C00000C94A0230E941A0C182FF3CF0E942C0CD6
:100C100069817A81F1CFFC01262F40815181628167
:100C20007381848195810E94DD050895CF93DF93C0
:100C3000D82FC92F61E00E940B066D2F7C2F0E94D8
:100C4000D105DF91CF910895CF93DF93D82FC92F8E
:100C500060E00E940B066D2F7C2F0E94DA05DF9169
:100C6000CF91089508950E94D90A0E9432062FEF6D
:100C700084E39CE0215080409040E1F700C00000F8
:100C800008950E9433060E94A61B08950E94330611
:100C90000E94D81B08950F931F93CF93DF938C016D
:100CA00061E00E940B06EC01B8010E94D60581119B
:100CB00006C080E0DF91CF911F910F910895B80198
:100CC000CE010E94EB188823A1F3B801CE010E9447
:100CD0008117882371F3B801CE010E945D18882323
:100CE00041F3F8018581882381F0CA35FCE7DF07ED
:100CF00011F178F4C130ECE7DE07D1F0C330FCE746
:100D0000DF07A1F0C115DC4771F0C8010E94D405CE
:100D1000D1CFCB35ECE7DE0789F0CC35DC47A9F73E
:100D20000E944410F2CF0E944106C3CF0E94561089
:100D30000E944606BECF0E944E10E7CF0E9452107E
:100D4000E4CF0E94C81A0E94130708950E94170753
:100D50000E94CC1A08950F931F93462F572FBC0162
:100D6000CB01AA27BB270097A105B105E9F1AC018A
:100D7000BD0180E1052F162F272F332701151105FF
:100D80002105310519F0885FB901A8018A019B018D
:100D9000F4E03695279517950795FA95D1F7011543
:100DA00011052105310519F08C5FB901A8018A01EF
:100DB0009B01E2E03695279517950795EA95D1F7BF
:100DC000011511052105310519F08E5FB901A80142
:100DD0007695679557954795452B462B472B09F0F8
:100DE0008F5F1F910F91089580E0C4CF089581E037
:100DF00008950895CF93DF93D82F0E94F706C82F48
:100E0000882319F08D2F0E94F9068C2FDF91CF9146
:100E100008950895CF93C82F0E94F6068C2F0E9444
:100E2000FA06CF91089580E00E940A0708950E9473
:100E300033190E940A070895CF930E943319C82FCF
:100E40008091A2018C1779F0C093A2010E94561BD9
:100E50006093A3017093A4018093A5019093A601D0
:100E60008C2F0E940A07CF910895ADE0B0E0EBE32C
:100E7000F7E00C948523488759876A877B878C879E
:100E80009D8791110E947C0F1F8286E0FE0138969B
:100E9000DE01119601900D928A95E1F78D81811105
:100EA0000DC029813A814B815C816D817E818F816A
:100EB0000E94AC0E2D96E2E00C94A123CE01019687
:100EC0000E9416068111EDCFF5CFFC01848181309F
:100ED00021F4808191810E945E0C0895662329F09F
:100EE0000E9484150E94571608950E94DE15FACFBD
:100EF000CF93C82F8823C9F08238C9F40E944019C3
:100F000081FD13C089E30E94320F0E94B50F2FEFBD
:100F100037EE83E0215030408040E1F700C0000010
:100F200089E30E943A0F0E94B50FCF91089583384C
:100F3000A1F40E94401980FDF8CF83E50E94320F92
:100F40000E94B50F9FEF21EE34E0915020403040D9
:100F5000E1F700C0000083E5E4CF8438A1F40E94EB
:100F6000401982FDE2CF87E40E94320F0E94B50F44
:100F70008FEF91EE24E0815090402040E1F700C0D7
:100F8000000087E4CECF8CEF8C0F813A90F46C2F69
:100F900080910801909109010E94C919882329F0C4
:100FA0008C2F0E943A0F0E94B50F8C2F0E94320F97
:100FB000BACF80E28C0F883048F4C77081E001C05E
:100FC000880FCA95EAF70E945D0FADCF8BE58C0FB5
:100FD000833038F42C2F2452330BC9010E94691935
:100FE000A4CFE8E5EC0FEB3150F4F0E0EE0FFF1F7B
:100FF000E65EFE4F808191810E948F1996CF83E338
:101000008C0F833108F091CF61E08C2F0E946E0726
:101010008CCF882309F456C0823879F40E94401995
:1010200081FF50C089E30E94320F0E94B50F89E30F
:101030000E943A0F0E94B50F0895833859F40E9418
:10104000401980FF3FC083E50E94320F0E94B50F18
:1010500083E5EECF843859F40E94401982FF32C0F4
:1010600087E40E94320F0E94B50F87E4E1CF9CEF26
:10107000980F913AE8F290E2980F983050F4877008
:1010800091E001C0990F8A95EAF7892F0E94630FBA
:10109000D1CF9BE5980F933028F490E080E00E9438
:1010A0006919089598E5980F9B3128F490E080E045
:1010B0000E948F19089593E3980F933118F460E01C
:1010C0000E946E0708951F93CF93DF93182FEB01B3
:1010D0000E947807209739F4812F0E940908DF9138
:1010E000CF911F9108958FE99FE00197F1F700C01C
:1010F00000002197EFCF70E060E0893311F460E5E4
:1011000070E00E9463080895882321F00E945D0F1B
:101110000E94B50F0895882321F00E94630F0E945A
:10112000B50F0895B0E0A0E0E8E9F8E00C947D2365
:101130006C01D62FC72FFC011581068102950F7017
:101140000E94530FE82E8823E9F0E12E1123D1F0FD
:101150008C2F807F803451F080E28D0F8830F0F04A
:10116000011104C08C2F807E8032C1F08091BE02BC
:1011700082FF14C082E00E9418100E94530F91E079
:10118000E82EE9268C2F82958F70A82EB12C8C30FA
:10119000B0F5F501E55CFA4D0C946F23E12CF2CF2C
:1011A0000C2F0F70C07F11F00295007F112399F072
:1011B000002359F080E28D0F883010F0D11107C064
:1011C000802F0E945D0F0E94B50F8D2F5CC0802F75
:1011D0000E946E0FF8CF8D2F0E940908002379F02E
:1011E00080E28D0F883010F0D11104C0802F0E9452
:1011F000630F03C0802F0E94740F0E94B50F88E018
:10120000A81AB10894E0A916B10420F40E94331979
:101210000E940A07EE2089F00E944F0F80FD0DC04A
:10122000F60115820E94490F0E94650BC6010E94BB
:10123000A00A0E94490F0E94750BCDB7DEB7EAE005
:101240000C949923FC2FFF70FF2EC07FC03219F041
:10125000F29480EFF822DD2341F0D130D1F1112357
:1012600009F443C00023F1F0B0CF8091BE0282FDAB
:1012700015C0112359F0FF2029F08F2D0E945D0F1A
:101280000E94B50F80E00E947807B9CF80E00E94ED
:101290000908FF2009F4B3CF8F2DA9CF112369F0DE
:1012A000011104C08F2D0E948408A9CF013009F0DC
:1012B000A6CF8F2D0E94930FA2CF0111A0CF8F2D0B
:1012C0000E948B088F2D0E949F0F8F2D0E94830FED
:1012D00096CF112321F0023008F091CFE3CF011116
:1012E0008ECF8F2D0E948B088ACF0023D1F3D93364
:1012F00049F42FEF87EE93E0215080409040E1F7D2
:1013000000C000008D2F0E94090879CF8C2F869590
:101310008695837069F0813009F071CF8D2F9C2FF5
:101320009370111102C080E090E00E948F1967CF86
:101330008D2F9C2F9370111102C080E090E00E94CD
:1013400069195DCF612F8D2F0E946E0758CF8C2FAA
:101350008370A9F5111153CF4D2F429546954770D3
:10136000440F440F2D2F2F7030E0042E02C0220FA7
:10137000331F0A94E2F790E080E0D4FF09C08FE0C9
:1013800090E002C0880F991F4A95E2F780959095EA
:10139000C695C695C370822B932BC23051F0C330D3
:1013A00059F0C13019F00E94350B29CF0E942C0B47
:1013B00026CF0E943E0B23CF0E94290B20CF86957B
:1013C000112311F08C2F8170882309F418CF4D2F31
:1013D000429546954770440F440F2D2F2F7030E0F3
:1013E000042E02C0220F331F0A94E2F790E080E03F
:1013F000D4FF09C08FE090E002C0880F991F4A9582
:10140000E2F780959095C695C695C370822B932B75
:10141000C23051F0C33059F0C13019F00E94A00B16
:10142000EECE0E94970BEBCE0E94A90BE8CE0E9455
:101430004D0BE5CECF70112329F08C2F0E94650B48
:101440008D2F31CF8D2F0E948B088C2F0E94750B12
:10145000D6CED23F39F160F4D03FB9F0D13F81F020
:10146000112309F445C00111B0CE8C2F8F711EC01D
:10147000D33FF9F0D43FA1F78091BE0282FD23C093
:101480008C2F8F71112311F311C0112339F0011129
:10149000B6CE8C2F8F710E94870BB1CE023008F030
:1014A000AECEF7CF8C2F8F711111D0CF0E94650B6C
:1014B000A6CE112329F08C2F8F710E94590B9FCE3D
:1014C0000E94540B9CCE112349F0CF718C2F0E94A7
:1014D000650B63E08C2F0E94FA0F91CE81E00E9491
:1014E0001810023008F48BCE82E00E94181087CECC
:1014F000002359F0D93309F005CFEFEFF7EE23E0E1
:10150000E150F0402040E1F7FBCE8C2F8F719ECF51
:101510000F931F93CF93DF93EC01688179818D81C5
:101520000E946B0C8C010E94B20B0E94280BB80128
:10153000CE010E949208DF91CF911F910F910895E3
:10154000CF93DF93EC018C81882399F0CE010E9428
:101550004B06811111C00E94530F882351F08D81D9
:10156000882339F08091BE0282FF03C082E00E948E
:101570001810DF91CF910895CE010E94880ACE0104
:101580000E942406F6CF90E080E00E94691990E066
:1015900080E00E948F190E947C0F0E94B50F0E946C
:1015A00072160E94571608950E94420F0E94C30AA5
:1015B00008950E946B0F0E94D40A0895282F9295D7
:1015C0009F70963091F060F4925F9F70923030F48B
:1015D00081E0203F81F030F4283E30F080E0089533
:1015E0009A5FF3CF243FD1F7089581E0283EE0F3DE
:1015F000213FA1F7F9CF0895FC018481882339F0B8
:10160000808191810E945E0C0E94DE0A089580E034
:101610000895A6E0B0E0EFE0FBE00C948523269669
:10162000E2E00C94A123A7E0B0E0E9E1FBE00C9438
:1016300085232796E2E00C94A12308950E941D0BB8
:1016400008950E941E0B9093D7018093D6010895B0
:1016500008950E94210B08952091D6013091D70161
:10166000822B932B0E94210B08952091D60130915B
:10167000D701822393230E94210B08952091D60144
:101680003091D701822793270E94210B08950E9451
:101690001D0B08950E94470B08950E944A0B9093DA
:1016A000D5018093D401089590E080E00E944D0B15
:1016B000089521E030E0A90102C0440F551F8A952A
:1016C000E2F7CA010E944D0B089521E030E002C00C
:1016D000220F331F8A95E2F78091D4019091D501B2
:1016E000822B932B0E944D0B089521E030E002C025
:1016F000220F331F8A95E2F7209530958091D4010F
:101700009091D501822393230E944D0B089521E0EF
:1017100030E002C0220F331F8A95E2F78091D40196
:101720009091D501822793270E944D0B0895209117
:10173000D4013091D501822B932B0E944D0B08953B
:101740002091D4013091D501822393230E944D0B27
:1017500008952091D4013091D501822793270E94CA
:101760004D0B089508959B01677091E001C0990F9A
:101770006A95EAF763E0369527956A95E1F7220FB7
:10178000331F220F331FFA01E20FF31F50E040E036
:10179000682F70E08191DF0111979B01042E02C038
:1017A000369527950A94E2F7217021952827292359
:1017B00028272C934F5F5F4F4430510559F7089508
:1017C0009C01982F977083E0369527958A95E1F7CD
:1017D000220F331F220F331FFB01E20FF31F50E0D4
:1017E00040E080E0219130E0092E02C03695279537
:1017F0000A94E2F721703327042E01C0220F0A94C5
:10180000EAF7822B4F5F5F4F4430510559F7089537
:10181000282F862F9E3068F4263058F4622F70E00F
:1018200026E0929F600D711D112448EA51E00E944C
:10183000B30B0895292F9E3068F4863058F490E059
:1018400068EA71E036E0239F800D911D11240E940B
:10185000E00B089580E00895B0E0A0E0E2E3FCE052
:101860000C947E238C01E090D401F090D5018091FE
:10187000D6019091D701E82AF92ACFE0D0E0CC2414
:10188000C394D12CBC2EC6010C2E02C0880F991F08
:101890000A94E2F78E219F21892B49F4219790F732
:1018A000B12C8B2DCDB7DEB7E9E00C949A23B801AB
:1018B0008C2F0E94F512019789F3F3CFCF93DF931A
:1018C000D82FC92F0E942C0C6D2F7C2F0E94F5124F
:1018D000DF91CF9108951F93CF93DF93162FD72FCA
:1018E0009091A701992341F0862F972F0E945E0CBB
:1018F000DF91CF911F910895882381F0862F972F34
:101900000E942C0CC82F682F812F9D2F0E94080C3D
:10191000612F7D2F8C2F0E94F512EACF862F972FF3
:101920000E941A0CC82FF4CF1F93CF93DF93E0913E
:10193000D80117E08091D9018E1304C0DF91CF91B7
:101940001F910895CE2FD0E01E9FF0011124E65282
:10195000FE4F20813181428153816481758186816E
:101960000E94130BFE013196E770E4CF2091120222
:1019700030911302409114025091150260911602A9
:1019800070911702809118020E94130B0895CF9353
:10199000DF9380911802807F09F04DC0809117027B
:1019A000882309F448C0E091D8015091D901C09131
:1019B0001302D0911202609114027091150247E057
:1019C0005E17C9F18E2F90E0E49FF0011124E652DA
:1019D000FE4F2481222391F1489FF001499FF00D91
:1019E0001124DF01A652BE4F11962C9111972C1392
:1019F00025C02C912D1322C015962C9115972111DD
:101A00001DC012962D913C91261B370B283C3105A9
:101A1000A8F4809118028F70806180931802E052C0
:101A2000FE4F80818F708061808382E192E00E940E
:101A3000A00A0E94940CDF91CF910895FC01319689
:101A4000E770BECF982FE091D8014091D90157E0BF
:101A5000E41302C080E008952E2F30E05E9FF00175
:101A60001124E652FE4F8181681306C080819813CD
:101A700003C085818111EFCFF9013196E770E8CF7E
:101A8000ADE0B0E0E6E4FDE00C947B238C0186E061
:101A9000F801DE01189601900D928A95E1F7F801A0
:101AA0008481E58092E1A92E92E0B92E90911602F0
:101AB00091111FC08823D1F0EE20A9F0C8010E9427
:101AC000FC0AF82E882379F087E0F801D50101900F
:101AD0000D928A95E1F7C5010E9465070E94C70C27
:101AE0000E94B60C5FC0C8010E94A00AFF24F394B4
:101AF00059C0C080D18082809380F09017022091DD
:101B0000140230911502A401421B530BFF2009F46B
:101B1000DBC0483C510508F0A7C0882309F442C047
:101B20009091130280911802282F207F09F05CC049
:101B3000D91216C090911202C91212C0E1104EC003
:101B40008F708061809318020E94B60C82E192E04F
:101B50000E94A00A80911802F8018683F12C22C00D
:101B6000E1103CC06D2D8C2D0E94220D6D2D8C2D11
:101B70000E94220DE82E8111F1CFC886D986888572
:101B800099850E945E0C292F22952F70903478F44D
:101B90009F702230A8F09923B9F0F8019681907FC8
:101BA00099F4FE2C8F2D2D96ECE00C9497232A5F50
:101BB0002F70223068F0C8010E94A00AEF2CF1CFEC
:101BC000992311F0882369F3805E883050F3F3CFB6
:101BD000803F38F3815F833020F3EDCF809118028E
:101BE000816080931802BACFD91213C0909112026B
:101BF000C9120FC0E1100DC08683C8010E94A00A5F
:101C000087E0F801A2E1B2E001900D928A95E1F738
:101C100067CFC8010E94FC0A882309F464CFEE2034
:101C200009F461CF80911802803288F0209112026D
:101C3000309113023A8329839C828B829091160201
:101C40009D831E828F83CE0101960E94A00A87E0A9
:101C5000F801A2E1B2E001900D928A95E1F70E94AD
:101C6000C70C0E94B60C42CF90911802292F207FFA
:101C7000A1F4682D9B868A86A6017B859E2D0E94F5
:101C8000090B82E192E00E94A00A87E0F50111921F
:101C90008A95E9F70E94B60C61CF882309F482CFB8
:101CA000809113028D11B5CF80911202C812B1CF6D
:101CB000E110AFCF9683C8010E94A00A87E0F5012A
:101CC00011928A95E9F76ECF483C5105B8F5882303
:101CD00009F40CCFFE2CEE2009F405CF80911302FD
:101CE0008D111EC080911202C8121AC08091180274
:101CF00080FD0DC0982F907F51F08683903F09F4AE
:101D00007CCF982F907F905F8F70892B75CF87E065
:101D1000F801A2E1B2E001900D928A95E1F742CF7D
:101D2000C8010E94FC0A811192CF80911802816043
:101D300080931802C8010E94A00A34CF682D9B86A8
:101D40008A86A6017B859E2D0E94090B87E0F501FE
:101D500011928A95E9F7C4CEAEE0B0E0E2EBFEE086
:101D60000C948423288739874A875B876C877D8713
:101D70008E87CE0108960E94400D8823B1F06C85B5
:101D8000662341F0288539854A855B857D858E856A
:101D90000E94130B17E08091D8019091D90189130B
:101DA0003EC02E96E3E00C94A02387E0FE01389617
:101DB000DE01119601900D928A95E1F74C8544233E
:101DC00049F32091D90130E0C90101968770992724
:101DD0005091D80158171906A1F04D8397E0929FB2
:101DE000D001939FB00D1124A652BE4FFE01319633
:101DF00001900D929A95E1F78093D9010E94940C7D
:101E0000C9CF0E94D90A1092D9011092D80187E057
:101E1000E2E1F2E0DF011D928A95E9F7BBCF819FF5
:101E2000C001112486529E4F0E94400D882309F460
:101E3000B8CFE091D8011E9FF0011124E652FE4F69
:101E400020813181428153816481758186810E9424
:101E5000130B8091D80190E00196877099278093A9
:101E6000D80199CF682F80910801909109010E94B3
:101E70004D1A0895682F80910801909109010E94E0
:101E80005B1A089580910801909109010E94691AD6
:101E9000089580913902869586958695089580915A
:101EA00039028770089590913902977081E009F4A2
:101EB00080E0089580915D02089590915D02982BD5
:101EC00090935D020895982F909580915D028923EB
:101ED00080935D02089510925D02089590915C02D6
:101EE000982B90935C020895982F909580915C02B6
:101EF000892380935C02089510925C0208950895EE
:101F00000E947F0F089590913A02292F282331F0E3
:101F10008095892380933A020E94800F0895089546
:101F20000E948F0F089590913B02292F2823281794
:101F300029F0982B90933B020E94900F0895909166
:101F40003B02292F282331F08095892380933B027F
:101F50000E94900F089580913B02882329F01092EF
:101F60003B0280E00E94900F0895CF93DF93E091B1
:101F70000801F091090180915D028083E0910801E0
:101F8000F0910901808190915C02892B808390916E
:101F90003B02992381F0E0910801F09109018081D1
:101FA000892B808380910801909109010E94B519C5
:101FB00081110E94AB0FC0910801D091090140E24C
:101FC00050E069E172E0CE010E94D424892B59F0DF
:101FD00080E2FE01A9E1B2E001900D928A95E1F75D
:101FE000CE010E944319DF91CF91089508950E9478
:101FF000F60F08959091BE0292FF11C098E0899F5C
:1020000090011124622B609339020E94650B80912C
:1020100039028695869586950E94F70F08950E944D
:10202000650B08951092390280E00E94F70F089521
:10203000909139028095892380933902282F277047
:1020400069F4891759F09091BE0292FF07C08695F6
:10205000869586950E94750B0E94121008959091A6
:10206000BE0292FB222720F9281769F080FB92F923
:102070009093BE028091BD029091BE020E947710A3
:1020800082E00E94181008958091BE0282FB88278A
:1020900080F991E089270E942F10089581E00E9425
:1020A0002F10089580E00E942F1008956FEF7FEFAA
:1020B00090E080E00E942325089590E080E00E9457
:1020C000EF249C0181E0263E3E4F09F080E0089518
:1020D00082E090E00E94E124089583E090E00E9475
:1020E000E124089584E090E00E94EF240895BC016B
:1020F00084E090E00E94232508958FE090E00E9404
:10210000E9240895AB01BC018FE090E00E941725FF
:102110000895AB01BC0183E190E00E94172508956A
:1021200060E070E0CB010E9489100895A8E0B0E063
:10213000ECE9F0E10C94852366EE7EEF90E080E020
:102140000E94232560E082E090E00E94052560E087
:1021500083E090E00E9405251092D7011092D601ED
:1021600060E074E184E090E00E94232560E086E076
:1021700090E00E9405256FEF87E090E00E94052522
:1021800040E050E0BA0188E090E00E94172560E04E
:1021900084E290E00E94052560E087E190E00E94E3
:1021A000052560E08CE090E00E94052560E08DE070
:1021B00090E00E94052519821A821B821C821D82D2
:1021C0001E821F82188648E050E068E170E0CE0170
:1021D00001960E94F52440E050E0BA0180E290E0D0
:1021E0000E9417250E94C3042896E2E00C94A123C4
:1021F0000E9496100895682F8EE090E00E940525B9
:102200000895A6E0B0E0E7E0F1E10C9483230E949A
:102210004A1B8C0180915E0290915F0280179107AA
:1022200081F019821A820E944A1B682F49815A81C3
:10223000792F80E090E00E94350710935F020093B1
:102240005E022696E4E00C949F230E94561B609346
:10225000720270937302809374029093750260937C
:102260006E0270936F0280937002909371020895D2
:10227000089508950E943811089508950E943D110F
:1022800008958BEE93E10E94FA140E9439110E9486
:102290003A11089581E008950E944A1108950E941C
:1022A0004A110895089508950E9452110E945311F1
:1022B00008950E94EE130E94090708950E94411B91
:1022C0000E9413140E9459110E943E110895A6E025
:1022D000B0E0EDE6F1E10C947C230E944C118111F9
:1022E0000AC00E9401110E9493160E941C072696A4
:1022F000EBE00C9498230E94251480E6A82E82E03F
:10230000B82E750110E0F70101917F01812F0E9425
:102310000C141F5F1E3009F441C00817A1F380910F
:10232000760281FD0E9412140E944F11C82E00E017
:1023300099249394802F0E940C14182FF5019191E9
:102340005F01891729F1D82ED926F12CEE24E394C8
:102350008D2D8E21A9F0CC2099F0F9820A830E945C
:102360004A1B9C838B839D8291E0812F8E2109F4EF
:1023700090E049815A816B817C818D810E94350773
:10238000F394EE0CF6E0FF12E3CFF50131971083E2
:102390000F5F0E3079F60E942511A5CF0813BFCF2D
:1023A000A0CF1F93CF93DF930E94FA12EC01811507
:1023B000924508F05FC0C11580E5D80708F0DDC080
:1023C000C03ED10538F5CD3CD10508F0AEC0C83AC5
:1023D000D10580F4C53AD10508F0A4C0C130D105BB
:1023E00009F443C0CE010497813A9105F0F1D0E0A1
:1023F000C0E03BC0CE01885A91094B97C0F7C85A3C
:10240000D0E0CC0FDD1FC05BDE4F0990D881C02D1E
:10241000D4642BC0C11590E4D907F0F4C11520E2B3
:10242000D20708F0C4C0C83ED105F8F0CE019A9595
:1024300081159F41E0F68D2F0E949C13182FCE012D
:1024400099270E94FA12C12FD0E0DC2FCC27CC278D
:10245000DF71C82BD92B09C0CE0199270E94FA122F
:10246000CC27DF70C82BD92BD06ACE01DF91CF915A
:102470001F910895C03882E5D807B8F5C03692E5B7
:10248000D90708F05BC0C03422E5D207C8F4C032D7
:1024900082E5D80708F04BC02C2F2695269590E2B0
:1024A000299F900111248C2F8370C1E0D0E002C0DD
:1024B000CC0FDD1F8A95E2F7C22BD32BDD68D5CF79
:1024C0002C2F26952695277080E2289F90011124B5
:1024D0008C2F8370C1E0D0E002C0CC0FDD1F8A9545
:1024E000E2F7C22BD32BDC68C0CFC03C92E5D90702
:1024F00060F48C2F8F71C03AD245A8F5C82FD0E078
:10250000DC2FCC27C46FD06AB0CFCE01805C92455F
:10251000809708F06CCFDC2FCC27CC27DF71C06F01
:10252000D06AA3CFA497D064A0CFD0659ECFCF713F
:10253000D0E0DC2FCC27C16FD06A97CF2C2F269507
:102540002695277080E2289F900111248C2F83709C
:10255000C1E0D0E002C0CC0FDD1F8A95E2F7C22BAC
:10256000D32BDA6882CF0E949C13C82FD0E0DC2FD7
:10257000CC27CC27DF71D06278CF8C2F8F710E944F
:102580009C1355E0D695C7955A95E1F7CF70D0E0EA
:10259000DC2FCC27282F30E084FF05C044E0220F39
:1025A000331F4A95E1F7C22BD32BD0695ECF8D2F15
:1025B0008F710E949C13182FCE0199270E94FA1246
:1025C000C12FD0E0DC2FCC27CC27DF71C82BD92B33
:1025D000D2CF462F672F7E3028F4463018F40E9461
:1025E000CC05089580E090E008950E94E9120E94D1
:1025F000D1110895803E9105C1F1C8F48133910550
:1026000009F47DC048F48932910509F46DC08A321D
:10261000910509F47BC0089589339105D1F0823882
:102620009105B9F08533910509F459C00895843EA8
:102630009105C1F138F4823E910521F1833E910567
:1026400031F10895863E9105C1F1873E9105E1F192
:1026500008952091BD02237009F065C02091BE024B
:1026600023FF14C089E290E008952091BD0220FD6F
:1026700043C03091BE0230FF09C024FF4EC090E03D
:1026800080E008952091BD0222FDF7CF08952091AA
:10269000BD0222FD45C03091BE0230FD44C024FF82
:1026A000F5CFEDCF2091BE0221FFF0CF8091BD028A
:1026B00084FDE5CF87EE90E008952091BD0223FFD1
:1026C000E5CF24FDDCCFF6CF2091BD0223FD2EC047
:1026D0003091BE0231FFE3CF84EE90E00895209167
:1026E000BD0225FFD3CFBECF2091BD0225FD21C065
:1026F0002091BE0223FFCACF89E390E0C7CF20918B
:10270000BD0226FFC3CF8AE290E008952091BD026A
:1027100026FFBCCF81E390E0089583EE90E008951A
:1027200082EE90E0089580EE90E0089586EE90E0CD
:10273000089585E390E008959091BD0292FF10C046
:1027400041E0282F2471243009F040E031E0282FA7
:102750002871283009F030E0431711F02CE082276F
:1027600093FF10C041E0282F2471243109F040E08C
:1027700031E0282F2871283109F030E0431711F09B
:102780002CE082273091BE0230FF10C051E0282F8C
:102790002171213009F050E041E0282F28712830C4
:1027A00009F040E0541711F029E0822731FF10C0F2
:1027B00041E0282F2171213109F040E031E0282F3C
:1027C0002871283109F030E0431711F029E0822701
:1027D00094FD877E089580E0089508950E945D101D
:1027E000811102C00E94F8100E9468108093760246
:1027F0000E9472109093BE028093BD020E94ED135E
:102800000E946D1090E00E94290B8091D40190915C
:10281000D5010E944A0B0895E82FF0E0E353FD4FE5
:102820008081089508950E943F03EFEBF2E0ADEC44
:10283000B2E011921D9282E0ED3CF807D1F78EE0F4
:102840000E9438140E9420040895CF938FEB92E0E9
:102850000E944B03282F4EE06DEC72E08FEB92E06C
:102860000E944B14C82F0E94E7048C2FCF9108952B
:10287000CF93C82F90E00E94AC2380937B0290936B
:102880007C02282FFC018E2F821B8C1710F0CF9119
:1028900008951192F8CFB0E0A0E0E1E5F4E10C94E6
:1028A0008023082FF92EE62ED72E142FC22F109238
:1028B0007702D0917802DD2309F454C00E944A1BAC
:1028C0009C018091790290917A02F901E81BF90B41
:1028D00030937A0220937902EF3FF10509F0D0F4AA
:1028E0003097A1F03E2F1092780210927D02409115
:1028F0007B02E42FF0917C0280E090E02E2F241BDD
:10290000211758F09093780280937D02C11138C04E
:10291000CD2F2AC0EFEFF0E0E5CF2081222321F078
:10292000321720F010828D2F3196E8CF231B2083A1
:102930009D2FFACF8C913881381781F03081311179
:102940000DC0508388839C91892730E0B901682BA2
:10295000CB0121E0892B09F420E091E0319621960A
:1029600011961EC0211106C080917D02882301F1BD
:10297000C11106C00E944A1B90937A02809379028B
:1029800010927D0240917B02209177029091780213
:10299000CE2DDD2DA02FBF2DE42FF0917C025EE126
:1029A0008E2F841B811730F2209377029093780248
:1029B00080917702CDB7DEB7E7E00C949C230E94AC
:1029C000251E0E945E110E94321E08950E94371E2D
:1029D0000E9467110E94511E08950E94E31A0E94EE
:1029E0000B1E0E9441110E94DF140E94E6140E94F7
:1029F0005411FBCF90939701809396010895282F4F
:102A000035EB2303C001112497FF04C080589109BE
:102A1000892F089580589F4FFBCF8091850280FFBA
:102A20000DC060910F0170E0660F771F603871056F
:102A300070F56115710569F1862F089581FF07C052
:102A400060910F0184E0689FB0011124EFCF609185
:102A50000F0182FD0AC0809184028823A9F0209191
:102A60000E0160910F01821710F088E0ECCF869F75
:102A7000C001112433E0880F991F3A95E1F7622FC6
:102A800070E00E945B23D2CF68E070E0D5CF8FE783
:102A9000089581E008958091850280FF0CC06091C7
:102AA0000B0170E0759567957595679561157105D2
:102AB00049F1862F089581FF06C060910B0170E0F7
:102AC00075956795F3CF60910B0182FD0BC09091D6
:102AD00083029923A1F060910A0180910B0196175E
:102AE00038F0682F70E06038710500F38FE70895C3
:102AF000899FC001112470E00E945B23F4CF61E044
:102B000070E0D7CF81E008958D3C31F40E940D151F
:102B100081958093880208958E3C19F40E940D15CA
:102B2000F8CF8F3C31F40E940D1581958093870278
:102B30000895803D19F40E940D15F8CF893D29F4C0
:102B40000E944B158093890208958A3D21F40E94CA
:102B50004B158195F7CF8B3D31F40E944B15819534
:102B600080938A0208958C3D19F40E944B15F8CF8A
:102B70009FE2980F983070F4815D990B21E030E06E
:102B800001C0220F8A95EAF780918602822B8093FA
:102B9000860208958D3D31F4809185028160809395
:102BA000850208958E3D21F4809185028260F7CFE1
:102BB0008F3DB9F7809185028460F1CF4091870203
:102BC0008D3C59F48091880287FF0DC010928802D5
:102BD00041110BC01092840208C08E3C81F4809198
:102BE000880218169CF3442381F080918902909109
:102BF0008A02892B09F05AC01092830208958F3CF3
:102C000049F447FFF0CF109287028091880281112A
:102C1000ECCFE0CF803D19F41416ACF3E4CF9091E3
:102C20008902893D29F41916F4F610928902DBCF46
:102C30008A3D19F497FFD7CFF8CF90918A028B3D48
:102C400029F497FFD0CF10928A02CDCF8C3D19F492
:102C50001916CCF3C8CF9FE2980F983090F4815D9D
:102C6000990B21E030E0B90102C0660F771F8A9509
:102C7000E2F7CB01809590918602892380938602AA
:102C8000B2CF8D3D31F4809185028E7F8093850295
:102C9000AACF8E3D21F4809185028D7FF7CF8F3DA5
:102CA00009F0A1CF809185028B7FF0CF08950E941B
:102CB0004A1B2091870230918802232B21F08093B8
:102CC0008102909382022091890230918A02232B03
:102CD00021F080937F029093800286E892E00E9428
:102CE0005E19089585E0E6E8F2E0DF011D928A951D
:102CF000E9F71092840210928302109285020895DF
:102D0000FC01818181110DC0828181110AC0838102
:102D1000811107C081E09481911101C080E0817030
:102D2000089581E0FCCFA5E0B0E0E9E9F6E10C947C
:102D3000842385E0E6E8F2E0DE01119601900D9231
:102D40008A95E1F710928702109288021092890208
:102D500010928A028A819B81892B89F0809181025D
:102D6000909182020E94731B9C01809184028823AF
:102D7000C9F1909110019217130608F440C08C819C
:102D80009D81892B91F080917F02909180020E9419
:102D9000731B9C0180918302882309F46AC090917F
:102DA0000C019217130608F472C0BE016F5F7F4FCB
:102DB00086E892E00E947B1A811105C086E892E0C5
:102DC0000E94801681110E94571685E0FE013196FF
:102DD000A6E8B2E001900D928A95E1F72596E3E02E
:102DE0000C94A02340917E029AE0499FA0011124F7
:102DF0004217530720F68F5F8093840202C08F3FF3
:102E0000D1F71A81112359F00E940D159FEF111669
:102E10000CF491E0899F802D1124809387021B81FF
:102E2000112359F00E940D159FEF11160CF491E03B
:102E3000899F802D112480938802809187028823A6
:102E400009F49DCF10918802112309F498CF0E94B4
:102E5000FF14882351F080938702812F0E94FF1472
:102E6000882329F0809388028ACF81E0F4CF81E023
:102E7000F9CF40910D019AE0499FA001112442171A
:102E8000530708F092CF8F5F8093830202C08F3F79
:102E9000D1F71C81112359F00E944B159FEF111699
:102EA0000CF491E0899F802D1124809389021D816B
:102EB000112359F00E944B159FEF11160CF491E06D
:102EC000899F802D112480938A0280918902882312
:102ED00009F46BCF10918A02112309F466CF0E9486
:102EE000FF14882351F080938902812F0E94FF14E0
:102EF000882329F080938A0258CF81E0F4CF81E0C3
:102F0000F9CFCF93DF93EC01FB018581882309F48E
:102F1000D2C09E0130572332310508F0B2C00E9462
:102F200072109093BE028093BD02FE01E150F04703
:102F3000E232F10520F4E95BFA4D0C946F238091A5
:102F4000BD0281608093BD0293C08091BE02886003
:102F50008093BE028DC08091BD028260F3CF8091CC
:102F6000BD028460EFCF8091BD028860EBCF80917D
:102F7000BE028160EDCF8091BE028260E9CF809178
:102F8000BD028061DFCF8091BD028062DBCF809186
:102F9000BD028064D7CF0E94D90A8091BD028068AB
:102FA000D1CF8091BD028C60CDCF8091BE02836075
:102FB000CFCF8091BD028E7FC5CF8091BE02877F2B
:102FC000C7CF8091BD028D7FBDCF8091BD028B7F29
:102FD000B9CF8091BD02877FB5CF8091BE028E7F31
:102FE000B7CF8091BE028D7FB3CF8091BD028F7E1F
:102FF000A9CF8091BD028F7DA5CF8091BD028F7B2F
:10300000A1CF0E94D90A8091BD028F779BCF80917A
:10301000BD02837F97CF8091BE028C7F99CF809134
:10302000BD0282FB992790F921E0922790FB82F95B
:1030300090FB83F987CF8091BE02982F9095917075
:103040008E7F892B90FB81F983CF9091BD02892FD0
:103050008F7B96FF806476CF0E94D90A9091BD0243
:10306000892F97FB87F980586DCF81E00E94FB1074
:103070008091BD029091BE020E9477100E94D90AF1
:1030800080E0DF91CF91089580E0F0CF9091BD0274
:10309000892F8F7E94FF806155CF9091BD02892F3B
:1030A0008E7F90FF81604ECF9091BE02892F877FE7
:1030B00093FF88604DCF81E0E4CFCF93DF93EB01A6
:1030C00086319C4711F50E945A0F9D81992399F0F2
:1030D0008A7A91E009F490E090938B02811109C003
:1030E00089E20E94320F0E94B50F80E0DF91CF91FC
:1030F000089585E3F6CF80918B02811104C089E2A7
:103100000E943A0FF0CF85E3FBCF81E0EFCF0F9322
:103110001F93CF93DF93C42FD22FFC018581882387
:10312000C9F040938E020E944A1B90938D028093B7
:103130008C0280E28C0F883040F4C77081E001C0BF
:10314000880FCA95EAF70E948408DF91CF911F91FA
:103150000F91089510918E02141332C080918C0249
:1031600090918D020E94731B883C910548F5C0E246
:10317000CD0F1D17B9F080E2810F883040F4177031
:1031800081E001C0880F1A95EAF70E948B08C830C9
:1031900048F481E09D2F977001C0880F9A95EAF757
:1031A0000E948408802F0E947B08C83070F6D77078
:1031B00081E001C0880FDA95EAF70E948B08C5CF3D
:1031C00080E28C0F883008F6C77081E001C0880F5C
:1031D000CA95EAF7F2CF0F93FC01CB01E851FC4707
:1031E000E730F10590F5E759FA4D0C946F2306E2AC
:1031F00021EE41EE6AE17CE70E94871880E00F91A2
:10320000089507E225EE45EE6BE17CE7F5CF06E297
:1032100021EE40EE68E17CE7EFCF07E225EE44EED9
:1032200069E17CE7E9CF06E221EE42EE6CE17CE762
:10323000E3CF07E225EE46EE6DE17CE7DDCF08E265
:1032400021E045EE6EE17CE7D7CFFB018581882345
:1032500019F010928E02D3CF81E0D1CF90939402D7
:10326000809393020895E0919302F0919402309735
:1032700029F00190F081E02D0995089580E00895EE
:103280000E9433190895DC01E0919302F0919402B9
:10329000309799F080911901882351F08091BD02F7
:1032A00087FF06C08C9111968C93119786E08C93C2
:1032B0000280F381E02DCD0109950895E0919302FC
:1032C000F0919402309721F00480F581E02D09956A
:1032D0000895A3E0B0E0EFE6F9E10C9485239C01AA
:1032E000809191029091920282179307A1F03093FE
:1032F000920220939102E0919302F0919402309710
:1033000051F083E089833B832A830680F781E02D97
:10331000CE01019609952396E2E00C94A123A3E047
:10332000B0E0E5E9F9E10C9485239C0180918F02DE
:103330009091900282179307A1F03093900220930E
:103340008F02E0919302F0919402309751F084E063
:1033500089833B832A830680F781E02DCE01019685
:1033600009952396E2E00C94A123FC01329680910A
:103370001901882321F08091BD029EE187FF96E02C
:1033800080E0915008F4089521912223D1F38F5FBA
:10339000F8CF9C01662301F1809119018823F1F097
:1033A0008091BD0287FF1AC0462F469546954695E7
:1033B000603F90F4677081E090E002C0880F991F31
:1033C0006A95E2F7240F311DF901228130E02823AC
:1033D000392381E0232B71F480E00895F9013296BE
:1033E000285F3F4F8191861721F0E217F307D1F74D
:1033F000F3CF81E008959C01FC0132968FEF90E0BD
:103400004191461751F08F3F19F4411101C0892FA6
:103410009F5F9630A9F78F3F09F40895280F311D5B
:1034200087FD3A95F901628308959C01FC0132966B
:10343000285F3F4F8191861303C0DF0111971C92D3
:10344000E217F307B9F70895E62FE695E695E695B6
:10345000603F68F4E80FF92FF11D677021E030E05C
:1034600001C0220F6A95EAF78281822B8283089538
:10347000E62FE695E695E695603F70F4E80FF92FA4
:10348000F11D677081E090E001C0880F6A95EAF74E
:1034900080959281892382830895209119012223A6
:1034A00039F02091BD0227FF03C00E94241A08951D
:1034B0000E94FB19089520911901222339F02091CF
:1034C000BD0227FF03C00E94381A08950E94151AF2
:1034D0000895FC01329680911901882351F0809162
:1034E000BD0287FF06C08EE1DF011D928A95E9F7D4
:1034F000089586E0F9CFDC01FB019C91808198134F
:1035000022C011968C911197882319F0918189130B
:103510001AC012968C911297882319F09281891300
:1035200012C014968C911497882319F094818913F2
:103530000AC013969C91992321F081E023812913DD
:1035400003C080E001C081E08170089508950E9469
:10355000A61A0895811106C081E0809395020E9409
:10356000A71A089582E0F9CF83E0809395020E9424
:10357000A71A08950E94AA1A089581E080939502DF
:103580000E94A71A08950E94BD1A089508950895EB
:103590000E94C71A089508950E94C61A0895CF93ED
:1035A0000E94A0030E9425140E94CB1AC0E08C2F19
:1035B0000E940C14811105C0CF5FCE30C1F7CF91AE
:1035C000089581E0FCCF85B7806885BF85B78068A6
:1035D00085BF08951F921FB61F9211248F939F934A
:1035E000AF93BF9380919602811113C08091DB024B
:1035F0009091DC02A091DD02B091DE024196A11D06
:10360000B11D8093DB029093DC02A093DD02B093A6
:10361000DE02BF91AF919F918F911F901FBE1F90AF
:1036200018958091E302843031F10E94A106109236
:10363000960288E190E020E40FB6F894A895809374
:1036400060000FBE2093600083B7817F846083BFDA
:1036500083B7816083BF7894889583B78E7F83BF5B
:103660000FB6F894A89580916000886180936000FF
:10367000109260000FBE08950E94D90A0E94A6060B
:10368000089582E084BD93E095BD9AEF97BD809345
:103690006E0008952FB7F8948091DB029091DC02C0
:1036A000A091DD02B091DE022FBF0895A4E0B0E04A
:1036B000ECE5FBE10C9485238FB7F8942091DB02B5
:1036C0003091DC024091DD025091DE0229833A8381
:1036D0004B835C838FBF69817A818B819C81249627
:1036E000E2E00C94A1239C014FB7F8948091DB0297
:1036F0009091DC02A091DD02B091DE024FBF821BEF
:10370000930B089578941F921FB61F9211248F93E4
:103710009F93AF93BF938091DB029091DC02A091C5
:10372000DD02B091DE020196A11DB11D8093DB0286
:103730009093DC02A093DD02B093DE02BF91AF91C3
:103740009F918F911F901FBE1F901895F89481E054
:103750008093E00080E28093D800E9ECF0E01082F2
:103760008FE19EE40197F1F700C000001DBA1092AE
:1037700068001CBC10BE1FBA10927A0010926E0036
:1037800010926F0010927100109272001082ECEB98
:10379000F0E0108214B817B81AB81DB810BA108229
:1037A00015B818B81BB81EB811BA0C94003F08958C
:1037B00088E19AE00FB6F894A895809360000FBE58
:1037C00090936000FFCF1092B9008CE08093B80016
:1037D0000895B0E0A0E0EFEEFBE10C947C23B82E5E
:1037E000EB010E944A1B6C01EE24E394F12CC431DE
:1037F000D10560F025E0E22EF12CCF3FDC0731F05F
:10380000CE0164E170E00E9447237B0184EAA82E88
:1038100094E8992E1092BC00A092BC000E944A1B12
:10382000182F092F8091BC0087FF0DC08091B9002F
:10383000887F883001F18091B900887F8031D9F08C
:103840000FEF1FEF09C0812F902F0E94731BE81606
:10385000F90640F70EEF1FEFCF3FDC07D9F2C601A4
:103860000E94731BC817D907A8F6C801CDB7DEB7E9
:10387000EBE00C949823B092BB009092BC000E94A5
:103880004A1B182F092F8091BC0087FF0AC0209186
:10389000B900287F283111F0203491F610E000E0C3
:1038A000E4CF812F902F0E94731BE816F90658F77A
:1038B000D1CF0F931F93CF93DF93EB018093BB0086
:1038C00084E88093BC000E944A1B182F092F809126
:1038D000BC0087FF11C02091B900287F81E090E0F3
:1038E000283211F490E080E0919581959109DF9163
:1038F000CF911F910F910895CF3FDC0741F3812FA6
:10390000902F0E94731BC817D90708F78EEF9FEFFF
:10391000EECF0F931F93CF93DF93EC0184E8809356
:10392000BC000E944A1B182F092F8091BC0087FF02
:1039300008C08091BB0090E0DF91CF911F910F9163
:103940000895CF3FDC0789F3812F902F0E94731BCE
:10395000C817D90750F78EEF9FEFEECF84E9809319
:10396000BC0008958091B7020895282FCB01BA01B9
:103970003091E3023430E1F42F702093E9002FEF0F
:103980003091E800215035FD06C035ED3A95F1F74C
:1039900000002111F5CF2091E80025FF09C050E07B
:1039A00040E00E94C91E8091E8008E778093E80075
:1039B0000895BC0143E050E083E00E94B51C0895E7
:1039C000BC0145E050E082E00E94B51C0895CF9311
:1039D000DF93D82FC92F80911901811113C048E0BE
:1039E00050E06D2F792F81E00E94B51C80E2ED2F11
:1039F000FC2FA7E9B2E001900D928A95E1F7DF91E3
:103A0000CF9108958091BD0287FF06C040E283E018
:103A100050E06D2F7C2FE8CF48E081E0F9CF809116
:103A2000E202811109C00E9451200E94AE208091C3
:103A3000E20084608093E20008951092E20208950B
:103A40000E94BD1A08956091DF0281E0611101C0FA
:103A500080E00E94B41A08959091E30281E09430CE
:103A600009F080E06091DF020E94BA1A089542E0F6
:103A700061EC81E00E94CD1F42E061EC82E00E9497
:103A8000CD1F42E261EC83E00E94CD1F9091E302E2
:103A900081E0943009F080E06091DF020E94AA1A70
:103AA00008958091E502893089F148F4823009F463
:103AB000A1C0833009F45BC0813041F008958A30A1
:103AC00009F488C08B3009F46DC008958091E40238
:103AD000813A09F04BC08091E800877F8093E8002D
:103AE0008091E8029091E902892B61F460E287E914
:103AF00092E070E00E94181F8091E8008B7780931D
:103B0000E800089560E090E080E0F3CF8091E40267
:103B1000813261F58091E8029091E9028D7F892BD5
:103B200029F58091E800877F8093E8008091E80084
:103B300082FF18C09091F3008091F200029731F457
:103B40008091F100813011F0863021F48091F100F4
:103B50008093B7028091E8008B778093E8000E9401
:103B6000012004C08091E3028111E0CF089580918B
:103B7000E402813AD9F78091E8029091E902892B19
:103B8000A9F78091E800877F8093E8008091E800A2
:103B900080FFFCCF809119018093F1008091E800B3
:103BA0008E77DBCF8091E402813201F78091E802C9
:103BB0009091E902892BD1F68091E800877F80936C
:103BC000E8000E9401208091E602809319010E9482
:103BD000D90A08958091E402813241F68091E8008B
:103BE000877F8093E8000E9401208091E702809304
:103BF000B80208958091E402813A09F0B7CF80912C
:103C0000E800877F8093E8008091E80080FFFCCF88
:103C10008091B802C1CF84B7877F84BF0FB6F89474
:103C2000A895809160008861809360001092600088
:103C30000FBE80E890E00FB6F894809361009093F7
:103C400061000FBE0E94C31A08950E9451200E9475
:103C5000AE20E2EEF0E080818460808378940E9460
:103C60002C23089581E191E00E942E1908958091FE
:103C7000E302853031F48091E302853019F00E942F
:103C80003C1B08950E94111B8091E102882399F347
:103C90000E94CF1A882379F30E94B31E0E94D90A8A
:103CA000EACF08959A014091EA025091EB020E94F6
:103CB0005A1E0895AC01CB01D901252F332723309B
:103CC0003105D1F070F42130310509F447C02230BC
:103CD000310569F484E590E022E933E02D933C93CB
:103CE000089521323105E9F02232310539F190E0B1
:103CF00080E030E020E0F2CFCA019927413059F04E
:103D00008230910559F0EEE8F3E0892B81F7849138
:103D100090E09F01E3CFE4E6F3E0F9CFECE4F3E0D9
:103D2000F6CF8330910518F7880F991FFC01E157F2
:103D3000FE4F2081318189E090E0D0CF8330910522
:103D4000B0F6FC01EE0FFF1FE757FE4F20813181D7
:103D50008A579E4FFC01808190E0C0CF82E190E0C5
:103D600026EE33E0BBCF80E189BD82E189BD09B495
:103D700000FEFDCF8091D8008F7D8093D800809188
:103D8000E00082608093E0008091E00081FDFCCF44
:103D90000895AF92BF92CF92DF92FF920F931F933D
:103DA000CF93DF936C01EB018A010E942020F82E53
:103DB000811123C00115110539F0F801808191812D
:103DC000C81BD90BC80ED91EB12CA12C2097A9F065
:103DD0008091E80085FD22C08091E8008E77809375
:103DE000E80001151105A1F0F80180819181A80E6C
:103DF000B91EB182A08285E0F82E8F2DDF91CF9180
:103E00001F910F91FF90DF90CF90BF90AF900895DA
:103E10000E9420208823D1F2F82EEFCFF601819165
:103E20006F018093F1002197FFEFAF1ABF0ACECF49
:103E3000FC01CB012091EA023091EB0226173707F3
:103E400090F0009729F42091E8002E772093E80065
:103E500040E0009751F4411108C08091E80082FFD2
:103E600031C080E00895C901F3CF2091E3022223FD
:103E7000A9F12530A9F12091E80023FD2DC0209162
:103E8000E80022FDEACF2091E80020FFE2CF309148
:103E9000F3002091F200009719F02830310558F016
:103EA00041E02830310509F040E02091E8002E770C
:103EB0002093E800CECF41914093F10001972F5F0E
:103EC0003F4FE9CF8091E302882341F0853041F0F4
:103ED0008091E80083FFC1CF81E0089582E00895DA
:103EE00083E00895FC01CB012091EA023091EB02BE
:103EF0002617370790F0009729F42091E8002E77D5
:103F00002093E80040E0009751F4411108C08091EF
:103F1000E80082FF32C080E00895C901F3CF20910C
:103F2000E3022223B1F12530B1F12091E80023FD15
:103F30002EC02091E80022FDEACF2091E80020FF6A
:103F4000E2CF3091F3002091F200009719F0283071
:103F5000310558F041E02830310509F040E020916A
:103F6000E8002E772093E800CECF44914093F100F3
:103F7000319601972F5F3F4FE8CF8091E30288236E
:103F800041F0853041F08091E80083FFC0CF81E0AF
:103F9000089582E0089583E00895982F973028F0DF
:103FA0008F708093E90081E008959093E900242FB9
:103FB000762F50E0981731F07091EC002091ED00D1
:103FC0005091F00021FD02C09F5FE8CF3091EB00DF
:103FD0003E7F3093EB003091ED003D7F3093ED005C
:103FE0003091EB0031603093EB007093EC00209344
:103FF000ED005093F0002091EE0027FDE5CF80E02A
:1040000008958091E40287FF13C08091E80082FF49
:1040100006C08091E8008B778093E80004C080910F
:10402000E3028111F2CF08958091E3028823D9F34E
:104030008091E80080FFF8CF8091E8008E77ECCF88
:104040002091E4003091E50095E6A9012091EC0073
:10405000822F817020FF06C08091E80080FF06C09B
:1040600080E008952091E80022FD1AC08091E302CB
:10407000882389F0853089F08091EB0085FD0FC0A1
:104080002091E4003091E50042175307F9F2915076
:10409000E1F684E0089582E0089583E0089581E0E8
:1040A00008950E94C0200E94C820E0EEF0E08081C8
:1040B00081608083E8EDF0E080818F77808319BC98
:1040C000A7EDB0E08C918E7F8C9380818F7E808372
:1040D0001092E20208950F931F93CF93DF930E94F3
:1040E000C0200E94C820C8EDD0E088818F778883E7
:1040F00088818068888388818F7D888319BC10922D
:10410000E3021092DF021092E1021092E00200EE50
:1041100010E0F80180818B7F8083888181608883B3
:1041200042E060E080E00E94CD1FE1EEF0E080819F
:104130008E7F8083E2EEF0E08081816080838081E9
:1041400088608083F80180818E7F80838881806190
:104150008883DF91CF911F910F910895E8EDF0E0F2
:1041600080818F7E8083E7EDF0E0808181608083B5
:1041700084E082BF81E08093E2020E946B20089578
:10418000E8EDF0E080818E7F80831092E200089558
:104190001092DA001092E10008951F920F920FB66C
:1041A0000F9211242F933F934F935F936F937F93BD
:1041B0008F939F93AF93BF93EF93FF938091E10011
:1041C00082FF0BC08091E20082FF07C08091E10076
:1041D0008B7F8093E1000E942B238091DA0080FF87
:1041E00019C08091D80080FF15C08091DA008E7FC1
:1041F0008093DA008091D90080FF94C080E189BD6E
:1042000082E189BD09B400FEFDCF81E08093E30225
:104210000E940F1D8091E10080FF19C08091E20093
:1042200080FF15C08091E2008E7F8093E200809134
:10423000E20080618093E2008091D80080628093E8
:10424000D80019BC85E08093E3020E94231D809171
:10425000E10084FF29C08091E20084FF25C080E155
:1042600089BD82E189BD09B400FEFDCF8091D800EF
:104270008F7D8093D8008091E1008F7E8093E10054
:104280008091E2008F7E8093E2008091E200816065
:104290008093E2008091DF02882309F449C084E022
:1042A0008093E3020E942C1D8091E10083FF29C0CE
:1042B0008091E20083FF25C08091E100877F809399
:1042C000E10082E08093E3021092DF028091E1003E
:1042D0008E7F8093E1008091E2008E7F8093E200E8
:1042E0008091E20080618093E20042E060E080E043
:1042F0000E94CD1F8091F00088608093F0000E94A2
:10430000201DFF91EF91BF91AF919F918F917F9170
:104310006F915F914F913F912F910F900FBE0F9032
:104320001F90189519BC1092E3020E941D1D72CFB8
:104330008091E30087FD02C081E0B2CF83E0B0CF7F
:104340001F920F920FB60F9211242F933F934F930A
:104350005F936F937F938F939F93AF93BF93CF930D
:10436000DF93EF93FF93D091E900DF708091EC0031
:10437000C82FC17080FDC0E81092E9008091F00064
:10438000877F8093F00078940E94E4211092E900E6
:104390008091F00088608093F000CD2BCF70C093A7
:1043A000E900FF91EF91DF91CF91BF91AF919F9184
:1043B0008F917F916F915F914F913F912F910F90CE
:1043C0000FBE0F901F901895AAE2B0E0EAEEF1E25E
:1043D0000C94842384EE92E0FC0101962091F1007C
:1043E000208322E08C3E9207B9F70E94511D8091F4
:1043F000E80083FF1EC18091E4029091E5029A30AB
:1044000008F017C1E92FF0E0E059FA4D0C946F2342
:10441000803899F0823809F00CC18091E8028F70E1
:10442000873008F006C18093E9008091EB0085FB9E
:10443000882780F91092E90006C08091E0029091EF
:10444000E102911182609091E800977F9093E800DB
:104450008093F1001092F1008091E8008E77E5C022
:10446000882309F4D3C0823009F0E3C08091E602CA
:104470008111D6C08091E8028F702FEF280F26306F
:1044800008F0D7C08093E9002091EB0020FFC8C05E
:10449000933031F48091EB0080628093EB00C0C0D8
:1044A0009091EB0090619093EB0021E030E001C02F
:1044B000220F8A95EAF72093EA001092EA00809191
:1044C000EB008860EACF8111B4C01091E6021F773B
:1044D0008091E3008078812B8093E3008091E80055
:1044E000877F8093E8000E9401208091E80080FF90
:1044F000FCCF8091E30080688093E30082E011119B
:1045000083E08093E30295C08058823008F091C028
:104510008091E6029091E7028C3D23E09207A1F59D
:1045200083E08A838AE289834FB7F894DE01139689
:1045300020E03EE051E2E32FF0E050935700E49199
:1045400020FF03C0E295EF703F5FEF708E2F90E089
:10455000EA30C0F0C7968D939D932F5F243159F7B1
:104560004FBF8091E800877F8093E8006AE270E0A7
:10457000CE0101960E94181F8091E8008B778093EE
:10458000E80057C0C096E7CF6091E8027091E90259
:10459000AE014F5F5F4F0E94521EBC01892B09F490
:1045A00048C08091E800877F8093E80089819A81E4
:1045B0000E94721FE1CF8038E1F58091E800877F8B
:1045C0008093E8008091DF028093F10045CF811154
:1045D00030C09091E602923060F58091E800877FCC
:1045E0008093E8009093DF020E9401208091DF0217
:1045F000882311F084E005C08091E30087FDFACFA5
:1046000081E08093E3020E94371D13C08091E6028F
:10461000813079F481E0933009F080E08093E10209
:104620001092E9008091E800877F8093E8000E9463
:1046300001208091E80083FF0AC08091E800877F15
:104640008093E8008091EB0080628093EB00AA9653
:10465000E3E00C94A0230895CF938091E302882394
:10466000A1F0C091E900CF709091EC00892F81708A
:1046700090FD80E8C82B1092E9008091E80083FD4E
:104680000E94E421CF70C093E900CF910895AA1B46
:10469000BB1B51E107C0AA1FBB1FA617B70710F02D
:1046A000A61BB70B881F991F5A95A9F7809590955F
:1046B000BC01CD01089597FB072E16F4009407D096
:1046C00077FD09D00E94472307FC05D03EF4909562
:1046D00081959F4F0895709561957F4F0895EE0FD6
:1046E000FF1F0590F491E02D09942F923F924F9275
:1046F0005F926F927F928F929F92AF92BF92CF9272
:10470000DF92EF92FF920F931F93CF93DF93CDB77A
:10471000DEB7CA1BDB0B0FB6F894DEBF0FBECDBFF2
:1047200009942A88398848885F846E847D848C84C3
:104730009B84AA84B984C884DF80EE80FD800C81CC
:104740001B81AA81B981CE0FD11D0FB6F894DEBFAF
:104750000FBECDBFED0108950F931F93CF93DF934D
:104760009C01029710F422E030E0E091EE02F0911B
:10477000EF0290E080E0B0E0A0E0309791F4009785
:1047800009F445C0821B930B84309105B8F58A81EA
:104790009B816115710569F1FB0193838283FE01A1
:1047A00011C0408151810281138142175307F0F0FB
:1047B0004217530799F4109761F012960C931297D1
:1047C00013961C933296CF01DF91CF911F910F91D9
:1047D00008950093EE021093EF02F4CF009719F0C2
:1047E0004817590718F4CA01BD01EF01DF01F801AC
:1047F000C4CF9093EF028093EE02D1CFFE01E80F79
:10480000F91F21933193029799838883DCCF80919C
:10481000EC029091ED02892B41F48091020190917C
:1048200003019093ED028093EC028091000190913E
:104830000101009741F48DB79EB74091040150915A
:104840000501841B950B4091EC025091ED02481735
:10485000590708F0B8CF841B950B8217930708F40B
:10486000B2CFB9016E5F7F4F8617970708F4ABCFC1
:10487000640F751F7093ED026093EC02FA012193AF
:104880003193A1CFCF93DF939C010097E9F0FC0116
:10489000329713821282C091EE02D091EF02DE01B4
:1048A00090E080E02097A1F480819181280F391F4A
:1048B0008091EC029091ED028217930709F067C096
:1048C000F093ED02E093EC02DF91CF910895DA01CD
:1048D000AE17BF0708F041C012964D915C91139737
:1048E000CD014115510599F7DC011396FC93EE9328
:1048F00012974D915D91A40FB51FEA17FB0781F444
:10490000208131812E5F3F4F240F351FDC0111962E
:104910003C932E932281338113963C932E931297CE
:10492000B0E0A0E08A819B810097B1F5FE01819102
:104930009191E80FF91F8091EC029091ED028E1792
:104940009F0711F6109759F51092EF021092EE02A0
:10495000D093ED02C093EC02B7CFB383A283408122
:104960005181240F351FA217B30771F44E5F5F4FBB
:104970002D913C911197420F531F51834083129602
:104980002D913C9133832283009709F0ADCFF093B2
:10499000EF02E093EE0298CFDE01EC01C3CF139655
:1049A0001C921E921297D4CFFB01DC0104C08D91A2
:1049B0000190801921F441505040C8F7881B990B91
:1049C0000895F999FECF92BD81BDF89A992780B5D7
:1049D0000895A6E1B0E044E050E00C942B25A8E156
:1049E000B0E042E050E00C942B25DC01A40FB51F91
:1049F0004150504048F0CB01840F951F2E910E94EA
:104A0000062541505040D0F70895262FF999FECF42
:104A100092BD81BDF89A019700B4021639F01FBA11
:104A200020BD0FB6F894FA9AF99A0FBE089503962E
:104A3000272F0E9406250E940525252F0E94062566
:104A4000242F0C9406250196272F0E9406250C94EE
:104A50000525DC01CB01FC01F999FECF06C0F2BDB2
:104A6000E1BDF89A319600B40D9241505040B8F72C
:104A70000895F894FFCFD008D008220922098609AA
:104A8000A209FF08FF08A7091A0A290A290AD91743
:104A90004D18E117AB17AF17E517B317E917F5175F
:104AA000BF174618C317F917C717FD172518CB17D7
:104AB00001182C18D11707180F18B717ED17BB17C7
:104AC000F117D5170B181B1835184418A517DD1743
:104AD000541807190D19F7180119131919191F1965
:104AE0000822302219233022192363228422192319
:044AF000DB22E722BC
:104AF4000000F002200020003C023C0714283C0780
:104B040014B21CE71CE01CD91C01E200E900EA0015
:104B1400B500B600B700CD008301CC008A01920134
:104B240094012102230224022502260227022A02DA
:104B3400B300B4006F0070009F01CB019F02A0027C
:104B4400E200E900EA00B500B600B700CD00830139
:104B5400CC008A019201940121022302240225023D
:104B6400260227022A02B300B4006F0070009F01DE
:104B7400CB019F02A00244476DAC046504F803A472
:064B840003BD03D603008F
:00000001FF
