:100000000C946E020C948B020C948B020C948B0259
:100010000C948B020C948B020C948B020C948B022C
:100020000C948B020C948B020C94C7240C949A258C
:100030000C942F1B0C948B020C948B020C948B024F
:100040000C948B020C948B020C948B020C948B02FC
:100050000C948B020C947A1B0C948B020C948B02E4
:100060000C948B020C948B020C948B020C948B02DC
:100070000C948B020C948B020C948B020C948B02CC
:100080000C948B020C948B020C948B020C948B02BC
:100090000C948B020C948B020C948B020C948B02AC
:1000A0000C948B020C948B020C948B0229002B0075
:1000B000E000E100E20000001E00140004001D004A
:1000C000000000001F001A0016001B000000E300E3
:1000D00020000800070006000000E50021001500D0
:1000E0000900190002510000220017000A00050053
:1000F0000000000000002C0400001E0100000000B1
:10010000660C035400001F010000000023001C00C7
:100110000B00110000000000240018000D0010006A
:100120000151000025000C000E00360000002C00DC
:10013000260012000F0037000000E7002700130020
:10014000330038000000000000002A002800E5000D
:10015000E600000000300100010001000100000085
:1001600000001E002B0000000000010000001F0026
:1001700035000000000001000000200031002900CF
:100180000000010000002100340000000000010018
:10019000000022002A0000000000010000001014EE
:1001A000000000000000010000000000000000004E
:1001B000000001000000230000000000000001001A
:1001C000000024002D0000000100010000002500B7
:1001D0002E00010001000100000026002F00010098
:1001E00001000100000027003000010001000100B3
:1001F00001000100010001000100000000000000FA
:1002000000000000005C00003A00AA0000000000AE
:10021000000001003B00A9000000000000000100F8
:100220003C00A80000000000000001003D000000AC
:1002300000000000000001003E000000000000007F
:1002400000000100000000000000000000000100AC
:100250000000000000000000000001003F0000005E
:10026000F2000000000001004000F400F100000076
:10027000000001004100F500F00000000000010056
:1002800042000000F30000000000010043004400B1
:100290004500000000000100000000000000000018
:1002A000000000000000000000000000000000004E
:1002B000000000000000000000000000000000003E
:1002C00016140000000000000000000000000614EA
:1002D0000000050000000000000000000000000019
:1002E000000017140A1400000000000000000000C5
:1002F00000000000000000000000005100000000AD
:1003000000000000000000000000000000000000ED
:1003100000000000000000000000000000000C14BD
:100320000000000000000000000000000F140000AA
:1003300000000000000000000000000000000000BD
:10034000000000000000000000000000160345004F
:10035000720067006F0044006F00780020004500C5
:100360005A00000028035A005300410020005400A6
:100370006500630068006E006F006C006F0067002E
:10038000790020004C00610062007300000004034B
:10039000090409023B00020100A0FA09040000015F
:1003A000030101000921110100012240000705811C
:1003B0000308000A090401000103000000092111DB
:1003C00001000122BC000705820320000A1201106F
:1003D0000100000008973274490100010200010584
:1003E000010902A10185020901A1000509190129DC
:1003F000051500250195057501810295017503819B
:10040000010501093009311581257F9502750881A3
:100410000609381581257F950175088106050C0AA6
:1004200038021581257F950175088106C0C0050138
:100430000980A101850319012AB700150126B7001B
:10044000950175108100C0050C0901A101850419F1
:10045000012AA002150126A002950175108100C095
:1004600005010906A1018505050719E029E7150021
:1004700025019508750181020507190029EF15006E
:10048000250195F0750181020508190129059505D9
:1004900075019102950175039101C005010906A13D
:1004A00001050719E029E715002501950875018167
:1004B000029501750881010507190029FF1500261D
:1004C000FF009506750881000508190129059505A5
:1004D00075019102950175039101C00011241FBEA1
:1004E000CFEFDAE0DEBFCDBF12E0A0E0B1E0E8EC94
:1004F000F2E502C005900D92AA32B107D9F723E0C8
:10050000AAE2B2E001C01D92AC36B207E1F70E9448
:100510000F220C94EA280C9400008098889A819805
:10052000899A84988C9A85988D9A86988E9A8798BD
:100530008F9A0895209828982198299822982A9887
:1005400023982B9852985A9853985B983E984698BF
:100550000895CF93C82F873070F580910601909150
:100560000701892B99F564E670E080E40E94E20BB4
:100570009093070180930601892BD1F464E670E023
:1005800082E10E943E0C9093070180930601892B23
:1005900079F481E090E001C0880FCA95EAF764E63B
:1005A00070E080950E943E0C9093070180930601B5
:1005B000CF910C94910C8B30C9F050F4893081F0BC
:1005C0008A3089F0883049F0209A2898CF91089590
:1005D0008C3079F4539A5B98F9CF219A2998F6CF09
:1005E000229A2A98F3CF239A2B98F0CF529A5A98AE
:1005F000EDCF3E9A4698EACFCF93DF93873058F5F8
:100600008091060190910701C0E0892B71F464E6A6
:1006100070E081E40E94E20B909307018093060151
:10062000892B39F0C0E00E94910C8C2FDF91CF9183
:10063000089584E690E00E946D0CEC0197FF05C0E0
:100640009093070180930601EDCFC09510920701AA
:1006500010920601E8CFCFB12FB1269526952C73C5
:10066000C3702C2BC22FC095E0CF0E94440490E0B1
:1006700090930701809306010E949A020C948D02C8
:10068000FF920F931F93CF93DF9300D00F92CDB7BC
:10069000DEB78091060190910701892B91F080913E
:1006A0002A028F5F80932A0281110BC00E944404AA
:1006B00090E09093070180930601892B11F40E942A
:1006C000D90303E313E01A821B828A81895F89833D
:1006D0008A810E94A90289810E94A9028A810E94BE
:1006E000FC02F80191918F01F12C891721F03197CB
:1006F0008083FF24F39489810E94FC02F801968193
:100700008917B9F0868381E08F29FB81F82BFB8361
:100710000E949A028A818F5F8A838730B1F68B812B
:100720000F900F900F90DF91CF911F910F91FF903D
:10073000089580E0E9CF0E94440490E0909307017F
:10074000809306010E949A020E948D02E1E4F3E088
:10075000119283E0EF34F807D9F70895259A2D9A7E
:100760000895269A2E9A0895279A2F9A08955698B2
:100770005E98089525982D98089526982E980895A6
:1007800027982F9808950E94B7030E94BA030E94E9
:10079000BD030C94C00390E090938900809388007F
:1007A00090938B0080938A0090938D0080938C00AF
:1007B00008950E94C3038FEF0E94CB030E94AE03F3
:1007C0002FEF80E792E0215080409040E1F700C099
:1007D00000000E94B1032FEF80E792E0215080409B
:1007E0009040E1F700C000000E94B4032FEF80E7C3
:1007F00092E0215080409040E1F700C000000E944C
:10080000BA032FEF80E792E0215080409040E1F75B
:1008100000C000000E94BD032FEF80E792E021504E
:1008200080409040E1F700C000000E94C0030C949B
:10083000C30389EA8093800089E080938100249833
:100840002C983F988AB18F7C8AB96E98479A8BB161
:1008500080638BB9769A0E94A21960932F037093DC
:100860003003809331039093320367702FEF629FC0
:10087000C001112495958795959587950E94CB0386
:100880000E94D9030C94E50480E290E09093070164
:100890008093060180912B0281110EC00E94DC0B17
:1008A00081E080932B022FEF83ED90E32150804075
:1008B0009040E1F700C0000064E670E080E40E9430
:1008C000E20B9093070180930601892B09F04EC03B
:1008D00064E670E080E00E943E0C909307018093F4
:1008E0000601892B09F042C064E670E080E00E94B6
:1008F0003E0C9093070180930601892BB9F564E6BD
:1009000070E08FE30E943E0C9093070180930601F4
:10091000892B61F50E94910C64E670E080E40E94EE
:10092000E20B9093070180930601892BF9F464E6AA
:1009300070E08CE00E943E0C9093070180930601CA
:10094000892BA1F464E670E080E00E943E0C909355
:10095000070180930601892B49F464E670E08FE378
:100960000E943E0C90930701809306010E94910C17
:10097000809106010895CF93DF9300D000D0CDB7CA
:10098000DEB710922F0310923003109231031092B1
:10099000320384E0806180932F0380912F03909134
:1009A0003003A0913103B091320389839A83AB83E2
:1009B000BC83BC01CD010E94A6190F900F900F902F
:1009C0000F90DF91CF910C94B2190895CF93DF93DC
:1009D00000D000D0CDB7DEB78091CC029091CD028F
:1009E000A091CE02B091CF0289839A83AB83BC835E
:1009F000BC01CD010E94291989830E94B7030E947E
:100A0000BA030E94BD030E94C0039981923061F035
:100A1000933091F09130C1F40F900F900F900F90A0
:100A2000DF91CF910C94AE030F900F900F900F9029
:100A3000DF91CF910C94B1030F900F900F900F9016
:100A4000DF91CF910C94B4030F900F900F900F9003
:100A5000DF91CF910895CF93DF939C01FB019A958D
:100A600081159F4160F5E901CC27D170D901AA27F2
:100A7000B270B90166277470A9014427587034FF19
:100A800010C080E1CD2B09F480E0AB2B09F080622F
:100A9000672B09F08064452B09F08068DF91CF91C6
:100AA000099481E0CD2B09F480E0AB2B09F0826042
:100AB000672B09F08460452B89F38860EFCFDF91C5
:100AC000CF910895CF93DF93EC01805E9109089751
:100AD00020F06BE672E1209711F466E47FE0CE012E
:100AE0000E942B058C2FDF91CF910C94470ECF9352
:100AF000DF93EC010E94DD0ECE01805E9109089724
:100B000020F062E772E1209711F46DE47FE0CE01FE
:100B1000DF91CF910C942B05CF93DF93D82FC92F62
:100B20000E9462058D2F9C2FDF91CF910C94770549
:100B300081E0089581E008950C949A0508950C943D
:100B40009E051F93CF93DF9300D000D00F92CDB7B7
:100B5000DEB749835A836B8330915A0289819A8127
:100B600031111DC06623B9F02223A9F00E94BF17DE
:100B7000182F682F89819A810E94661769817A816E
:100B8000812F0F900F900F900F900F90DF91CF91CA
:100B90001F910C9465060E949517182FEFCF0E94A5
:100BA000BF1769817A81EDCFFC01262F40815181E9
:100BB0006281738184810C94A105CF93DF93D82F38
:100BC000C92F60E00E94D4056D2F7C2FDF91CF915B
:100BD0000C949F050E947419811102C00E94151A7D
:100BE0000E9475090C9419040C945608282F2F7034
:100BF00041F0822F90E02A3010F44D960895069728
:100C0000089587E290E0089508950E948F120E944F
:100C100004062FEF84E39CE0215080409040E1F7F0
:100C200000C000000C949E1B0F931F93CF93DF9383
:100C3000EC0161E00E94D4058C01BE010E949C057C
:100C4000882359F1BE01C8010E94000A882329F1B6
:100C5000BE01C8010E948A0A8823F9F0BE01C801BA
:100C60000E94DF0A8823C9F0BE01C8010E94B20BAE
:100C7000882399F08A81882339F001158CE51807BB
:100C800051F00F3D1C4579F0CE01DF91CF911F91BE
:100C90000F910C9498050E94050680E0DF91CF919A
:100CA0001F910F9108950E94151AF7CF08950C9483
:100CB000560681E008950C945906CF93C82F0E94E0
:100CC00057068C2FCF910C945B06972F70E026E08F
:100CD000929F600D711D1124FB0194E5899FE00D29
:100CE000F11D1124EE0FFF1FE455FF4F85919491E4
:100CF0000895CF93DF930E9465060E947B07EC0165
:100D0000811522E5920708F062C0811531E593074D
:100D100008F0D1C0883E910518F5803E9105B8F5E0
:100D2000883A910570F4853A910508F0BEC081308B
:100D3000910569F10497813A910548F1D0E0C0E04E
:100D400026C0885A91094797C8F7C85AD0E0CC0FF7
:100D5000DD1FCD53DE4F0990D881C02DD46417C05C
:100D6000811540E59407B8F4C11580E4D80708F070
:100D70009FC0CF3FD10509F028F4C03FD105F0F264
:100D8000D06505C0CE019A9581159F41B8F6CE0178
:100D9000DF91CF910895F4E096958795FA95E1F764
:100DA00083702C2F26952695237040E2249F900176
:100DB0001124382B8C2F8370C1E0D0E002C0CC0FFF
:100DC000DD1F8A95E2F7C22BD32BDC68E0CFC1157B
:100DD00089E5D807C8F5C11598E5D90708F083C09B
:100DE000C11525E5D207F0F4C11534E5D30708F0A5
:100DF00075C09C2F969596959E0123703327C1153B
:100E0000D34508F45DC0C1E0D0E002C0CC0FDD1FC7
:100E10002A95E2F720E2929FC0011124C82BD92B1A
:100E2000DA68B5CFCE0195558F3F910511F008F0E6
:100E300085CF8C2F0E941308C82FD0E0DC2FCC2741
:100E4000CC27DF71D062A3CFC1153CE5D307D0F426
:100E5000C1154BE5D40708F04BC0CE0199558F3F23
:100E6000910511F008F06ACF8C2F8F700E94130843
:100E700034E0D695C7953A95E1F7CF70DC2FC82FAF
:100E8000D06985CFCE0190568115904208F056CF9B
:100E90008D2F8F710E94130890E0982F8827882744
:100EA0009F719C012C2BE901CDCFA497D0646FCF0B
:100EB000DF70D06A6CCFD82FCC27C16FD06A67CFD4
:100EC000C1E0D0E002C0CC0FDD1F2A95E2F730E28E
:100ED000939FC0011124C82BD92B77CFDC2FCC27AF
:100EE000C46FD06A54CFDC2FCC27C06FD06A4FCFED
:100EF000DD27D0664CCF803E910599F1C8F481334F
:100F0000910509F476C048F48932910509F46AC064
:100F10008A32910509F474C0089589339105D1F09E
:100F200082389105B9F08533910509F454C00895CC
:100F3000843E910599F138F4823E9105F9F0833EA3
:100F4000910509F10895863E910599F1873E910535
:100F5000B9F10895209159032370A1F080EE90E03B
:100F600008952091590320FD52C030915A0330FF5B
:100F700009C024FF4FC090E080E004C020915903D5
:100F800022FDF7CF08952091590322FD46C03091EC
:100F90005A0330FDE3CF24FFF5CFEDCF20915A0364
:100FA00021FFF0CF8091590384FDE5CF87EE90E0DB
:100FB00008952091590323FFE5CF24FDDCCFF6CF20
:100FC0002091590323FD2CC030915A0331FFE3CF08
:100FD00084EE90E008952091590325FFD3CF89E254
:100FE00090E008952091590325FFCCCF85E390E050
:100FF00008952091590326FFC5CF8AE290E0089515
:101000002091590326FFBECF81E390E0089589E344
:1010100090E0089583EE90E0089582EE90E00895C8
:1010200086EE90E008959091590392FF06C0282F14
:1010300028712830F9F4877F846093FF06C0282F39
:1010400028712831F1F4877E846120915A0320FFB2
:1010500006C0382F38713830D9F4877F816021FF7E
:1010600006C0282F28712831D1F4877E816194FD34
:10107000877E0895282F24712430F9F68B7F8860AD
:10108000DCCF282F2471243101F78B7E8861DDCFDE
:10109000382F3171313019F78E7F8860E0CF282FDB
:1010A0002171213121F78E7E8861E1CF0C94E60415
:1010B000E82FF0E0EF5BFC4F8081089508950E94D7
:1010C0003503E3E3F3E0A1E4B3E011921D9283E082
:1010D000E134F807D1F78EE00E9483080C94EA050A
:1010E000CF9383E393E00E944003C82F282F4EE064
:1010F00061E473E083E393E00E940D090E94F4052C
:101100008C2FCF910895CF93C82F90E00E947A271B
:101110008093300290933102282FFC019BEF8E2F99
:10112000821B8C1710F0CF9108959193F8CF0F93F5
:101130001F93CF93DF93962F10922F0210913002BE
:10114000E12FF091310230E0A62FB0E00BEFCBEFB2
:10115000D0E02E2F211B281738F030932F02DF917B
:10116000CF911F910F91089520812B3F91F0422F35
:1011700050E0921780F0BD01641B750BAB01052E8A
:10118000000C660B770B4E3151056105710550F06F
:1011900000833196DECFBE01641B750BAB014A0F95
:1011A0005B1FEDCF31E0F5CFCF92DF92EF92FF9250
:1011B0000F931F93CF93DF936B0110923202E09055
:1011C0003002F090310250912F02FC0190E080E05B
:1011D00030E0841768F050932F0230933202DF9191
:1011E000CF911F910F91FF90EF90DF90CF900895D6
:1011F000E601C80FD91F61917881761751F08701F8
:10120000080F191FD8017C917B3F29F42C93688328
:1012100051E00196DECF31E0FCCFDF92EF92FF92FA
:101220000F931F93CF93DF93182F092FF62EE72EDE
:10123000C42FD22F0E945F1BAC0160912D027091D0
:101240002E0290932E0280932D0230912C02832F38
:1012500090E0861B970B840F951F6BEF70E00E9448
:101260004C27D82E80932C0280912F02882329F1BD
:101270006D2D8C2F0E949708DD2379F02D2D4C2F9A
:101280006F2D7E2D812F902FDF91CF911F910F9188
:10129000FF90EF90DF900C94D40880912F02882368
:1012A00069F3809132028111E9CFDF91CF911F91D3
:1012B0000F91FF90EF90DF900895D111DFCFF1CF24
:1012C000CF93DF93EC01FB0197FF0BC08281882352
:1012D00041F00E948B09CE019F770E94E3090E9492
:1012E000C50981E0DF91CF9108958CE090E00E94E4
:1012F000A22890E0B0E0A0E080934F0390935003C9
:10130000A0935103B0935203089560914F038CE072
:1013100090E00C94B6280E94A60C8695817080936C
:10132000540390914F03913029F4882319F089E3F5
:101330000E94330F0E948218809353030E949618D4
:1013400080914F038230A9F030F481110DC082EEFC
:101350000E94470E02C0843099F08FE39CE9019708
:10136000F1F700C00000089588E193E00E948C0529
:10137000F4CF82EE0E94470E87E50E94330FEDCF37
:1013800086EE0E94330F88E1F8CF80914F038230C0
:1013900019F030F481110AC082EE0E94DD0E02C005
:1013A000843079F0809153030C9493188CE20E945E
:1013B000330F809154038823A9F389E30E94330FEC
:1013C000F1CF88E2FBCF0F931F93CF93DF938C0174
:1013D000CCE0D0E0C8010C2E02C0969587950A9407
:1013E000E2F78F700E94F6050E948C052497CC3F8F
:1013F0008FEFD80779F7DF91CF911F910F91089563
:101400000F931F93CF93DF93EC018B01FB0182813C
:10141000882361F00E948218CE01825E9C4585304F
:10142000910520F480934F030E948509B801CE01F5
:10143000DF91CF911F910F910C9460090F931F932F
:10144000CF93DF93C42FD22FFC0182818823C9F070
:10145000409335020E945F1B9093340280933302C5
:1014600080E28C0F883008F050C0C77081E001C066
:10147000880FCA95EAF7DF91CF911F910F910C94D5
:10148000460F10913502141335C0809133029091AC
:1014900034020E946B1B883C910560F5C0E2CD0FC1
:1014A0001D17B9F080E2810F883040F4177081E099
:1014B00001C0880F1A95EAF70E944D0FC83048F412
:1014C00081E09D2F977001C0880F9A95EAF70E94DE
:1014D000460F802F0E94330FC830B8F4D77081E0D8
:1014E00001C0880FDA95EAF7DF91CF911F910F9134
:1014F0000C944D0F80E28C0F883038F4C77081E077
:1015000001C0880FCA95EAF7EFCFDF91CF911F9105
:101510000F9108950F939C01CB01243F4CE53407B4
:10152000A1F190F4293DFCE53F0749F12A3D4CE546
:101530003407E9F1283D3C45C1F0FC018281882354
:10154000E1F11092350219C0263FFCE53F0719F181
:10155000273F4CE5340729F1253F3C4571F707E269
:1015600025EE44EE65EF7CE505C006E221EE41EE96
:1015700068ED7CE50E941E0A80E00F91089507E265
:1015800025EE45EE69ED7CE5F5CF06E221EE40EE75
:1015900064EF7CE5EFCF06E221EE42EE66EF7CE5FC
:1015A000E9CF07E225EE46EE67EF7CE5E3CF08E200
:1015B00021E045EE6AED7CE5DDCF81E0DECFCF9323
:1015C000DF93EC01FB018281882309F4C9C0C63195
:1015D000FCE5DF07E0F4C2309CE5D907F0F00E949B
:1015E000871990935A0380935903C631ECE5DE07BF
:1015F00020F5C230FCE5DF0798F480915903909103
:101600005A030E9495190E948F1280E006C09E0125
:101610002B5F3C452930310510F3DF91CF910895C0
:10162000FE01E350FC45809159038160E331F105EF
:1016300088F4E451F74D0C947427CB5FDC45C93036
:10164000D105D8F6C150D74DFE010C947427809176
:101650005903826080935903D0CF809159038460ED
:10166000F9CF809159038860F5CF80915A0381604A
:1016700080935A03C2CF80915A038260F9CF809140
:1016800059038061E7CF809159038062E3CF809155
:1016900059038064DFCF0E948F12809159038068C4
:1016A000D9CF809159038C60D5CF80915A03836044
:1016B000DFCF809159038E7FCDCF809159038D7FED
:1016C000C9CF809159038B7FC5CF80915903877F04
:1016D000C1CF80915A038E7FCBCF80915A038D7FEB
:1016E000C7CF809159038F7EB5CF809159038F7DED
:1016F000B1CF809159038F7BADCF0E948F12809123
:1017000059038F77A7CF80915903837FA3CF80910F
:101710005A038C7FADCF8091590382FB992790F9B2
:1017200021E0922790FB82F990FB83F993CF80917F
:101730005A03982F909591708E7F892B90FB81F999
:1017400097CF0E948F1290915903892F97FB87F9A9
:10175000805880CF81E00E94171A4FCF80E0FBCFE6
:1017600081E05BCFCF93DF93EB0186319C4511F590
:101770000E9482189A81992399F08A7A91E009F45B
:1017800090E090933602811109C089E20E943718D7
:101790000E94C61880E0DF91CF91089585E3F6CFCF
:1017A00080913602811104C089E20E943E18F0CF78
:1017B00085E3FBCF81E0EFCF1092B9008CE08093FE
:1017C000B8000895EF92FF920F931F93CF93DF938A
:1017D000182FEB011092BC0084EA8093BC000E9499
:1017E0005F1B7C018091BC0087FF27C08091B900FE
:1017F000887F883029F08091B900887F8031D9F5C1
:101800001093BB0084E88093BC000E945F1B8C0196
:101810008091BC0087FF24C02091B900287F90E010
:1018200080E02831B1F081E090E0203411F490E0C4
:1018300080E09195819591090CC0CF3FDC0791F232
:101840000E945F1B8E199F098C179D0758F28EEF1F
:101850009FEFDF91CF911F910F91FF90EF9008952F
:10186000CF3FDC07A9F20E945F1B801B910B8C17F6
:101870009D0770F2ECCF8FEF9FEFEBCF0F931F938D
:10188000CF93DF93EB018093BB0084E88093BC008F
:101890000E945F1B8C018091BC0087FF11C02091CA
:1018A000B900287F81E090E0283211F490E080E0D8
:1018B000919581959109DF91CF911F910F91089595
:1018C000CF3FDC0741F30E945F1B801B910B8C17FD
:1018D0009D0708F38EEF9FEFEECF0F931F93CF93EB
:1018E000DF93EC0184E88093BC000E945F1B8C01B5
:1018F0008091BC0087FF08C08091BB0090E0DF9121
:10190000CF911F910F910895CF3FDC0789F30E947B
:101910005F1B801B910B8C179D0750F38EEF9FEF81
:10192000EECF84E98093BC00089590933C028093AD
:101930003B020895E0913B02F0913C02309721F088
:101940000190F081E02D099480E00895E0913B0240
:10195000F0913C02309711F480E008950190F081FD
:10196000E02D09950895DC01E0913B02F0913C02E5
:10197000309799F080911A01882351F08091590392
:1019800087FF06C08C9111968C93119785E08C93FC
:101990000280F381E02DCD0109940895DC01E091EE
:1019A0003B02F0913C02309739F082E08C93048046
:1019B000F581E02DCD0109940895209139023091EF
:1019C0003A022817390771F090933A02809339024E
:1019D000E0913B02F0913C02309721F00680F781C4
:1019E000E02D09940895209137023091380228178C
:1019F000390771F09093380280933702E0913B02EF
:101A0000F0913C02309721F00084F185E02D09949B
:101A1000089585B7806885BF85B7806885BF0895BC
:101A2000089508950C94100D08950C94140D0E94BF
:101A3000090D0E94110D0C94120D81E008950C9473
:101A40001D0D089508950E94561B0E945F080E9474
:101A5000D01B0C94150DBF92CF92DF92EF92FF92A4
:101A60000F931F93CF93DF9300D000D00F92CDB789
:101A7000DEB70E94210D0E94220D0E9470080E9474
:101A80001F0D882309F45DC08EE3C82E82E0D82E96
:101A900010E000E0B02E802F0E945808F82EF601CA
:101AA000E1906F01E81609F446C08091FA0281FDC9
:101AB0000E945E089E2D9F2580E0EE24E394292F4E
:101AC0002E21A9F18983BA82FE2081E009F480E009
:101AD0008B830E945F1B8160782F9D838C8349815B
:101AE0005A816B818D810E94FC0DF801E25CFD4FF3
:101AF0008081E826E0820E948E1D0E949A0C9091BF
:101B00003D02891779F10E949A0C80933D020F9053
:101B10000F900F900F900F90DF91CF911F910F9129
:101B2000FF90EF90DF90CF90BF900C945D068F5F99
:101B3000EE0C863021F60F5F1F4F0E30110509F0B5
:101B4000A9CF8FEF89838A831B820E945F1B8160EC
:101B5000782F9D838C8349815A816B818D810E946E
:101B6000FC0DC9CF0F900F900F900F900F90DF9149
:101B7000CF911F910F91FF90EF90DF90CF90BF908A
:101B80000895CF93DF93DC019C91692F70E021E0F1
:101B900030E0A90102C0440F551F9A95E2F7CA012F
:101BA00011964C91119750E0EA01C45BDD4F2881FA
:101BB00012963C9112973323C9F030915C02332383
:101BC000C1F096E0949FF001959FF00D1124E60F6F
:101BD000F71FEE0FFF1FE55EFE4F408151814D93D1
:101BE0005C93822B8883DF91CF910895322F382325
:101BF000E6CF80958223F6CFCF93DF93CDB7DEB7C4
:101C00002B970FB6F894DEBF0FBECDBF4F8358871A
:101C100069877A878B878A859B85892B21F0CA0102
:101C200089238F3FD9F41E8285E0FE013796DE01BD
:101C3000119601900D928A95E1F749815A816B8145
:101C40007C818D819E810E94F2142B960FB6F894B0
:101C5000DEBF0FBECDBFDF91CF910895CE010796B5
:101C60000E94C10DE0CFFC01808191810E9401188A
:101C700092959F70963051F4863F41F080915C02BE
:101C800091E0892780935C0290935B020895CF9343
:101C9000C82F882309F48FC08238C1F40E949A0C9F
:101CA00081FD89C089E30E9437180E94C6182FEF72
:101CB00031EE84E0215030408040E1F700C0000068
:101CC00089E30E943E18CF910C94C6188338A1F482
:101CD0000E949A0C80FD6FC083E50E9437180E9415
:101CE000C6189FEF21EE34E0915020403040E1F7DC
:101CF00000C0000083E5E5CF8438A1F40E949A0C6F
:101D000082FD59C087E40E9437180E94C6188FEFE1
:101D100091EE24E0815090402040E1F700C00000A7
:101D200087E4CFCF8CEF8C0F813AB8F48C2F0E94D0
:101D30000C20811140C06C2F809108019091090105
:101D40000E94301A882329F08C2F0E943E180E948E
:101D5000C6188C2F0E943718B6CF80E28C0F8830BF
:101D600048F4C77081E001C0880FCA95EAF70E9465
:101D70008518A9CF8BE58C0F833038F42C2F245293
:101D8000330BC901CF910C94DD0CE8E5EC0FE73182
:101D900050F4F0E0EE0FFF1FEF50FE4F8081918175
:101DA000CF910C94F30CC03F30F08C2F0E94891C13
:101DB000CF910C94741DCF910895882309F452C0DB
:101DC000823871F40E949A0C81FF4CC089E30E9412
:101DD00037180E94C61889E30E943E180C94C61852
:101DE000833859F40E949A0C80FF3CC083E50E941E
:101DF00037180E94C61883E5EFCF843859F40E9443
:101E00009A0C82FF2FC087E40E9437180E94C618E0
:101E100087E4E2CF9CEF980F913AF0F290E2980FAE
:101E2000983050F4877091E001C0990F8A95EAF7D5
:101E3000892F0E948B18D2CF9BE5980F933020F406
:101E400090E080E00C94DD0C98E5980F973120F439
:101E500090E080E00C94F30C803F20F00E94F11C95
:101E60000C94741D0895CF93C82F0E94470EC93358
:101E700049F42FEF87EE93E0215080409040E1F746
:101E800000C000008C2FCF910C94DD0E882321F030
:101E90000E9485180C94C6180895882321F00E948A
:101EA0008B180C94C61808956F927F928F929F9210
:101EB000AF92BF92CF92DF92EF92FF920F931F9358
:101EC000CF93DF9300D000D000D0CDB7DEB76C0148
:101ED0006D83172FFC01058102950F7062806E8261
:101EE00061100E94A7180E947B18E82E8823C1F079
:101EF0007E80772009F1812F807F803449F09D8199
:101F0000905E9830C8F0803619F42D81263FA1F0FC
:101F100082E00E9411190E947B1891E0E82EE926C8
:101F2000812F82958F70A82EB12C8C30C0F5F501D1
:101F3000E85FF64D0C947427E12CF2CF012F0F705F
:101F4000812F807F11F00295007F6E806620B1F0B6
:101F5000002361F08D81805E883018F07D807110E3
:101F600009C0802F0E9485180E94C6188D810E948A
:101F7000470E15C0802F0E949918F6CF8D810E94C0
:101F8000DD0E002361F08D81805E883018F08D8039
:101F9000811043C0802F0E948B180E94C61828E031
:101FA000A21AB10884E0A816B10420F40E949A0C89
:101FB0000E945D066E80662041F0107F103619F495
:101FC0002D81263F11F00E946E18EE2009F42FC2D9
:101FD0000E94511880FD2BC2F60112820E944B18FC
:101FE0000E945616C6010E9443120E944B18269664
:101FF0000FB6F894DEBF0FBECDBFDF91CF911F911A
:102000000F91FF90EF90DF90CF90BF90AF909F9097
:102010008F907F906F900C948716802F0E949F184E
:10202000BCCF212F2F70F22E812F807F803219F0AC
:10203000F29480EFF8226D80662049F0262D213041
:1020400029F18E80882069F1002331F18FCF6E80D5
:10205000662081F0011106C00E94AD188F290E94F0
:10206000460F9DCF0130C1F70E94AD188F290E9405
:10207000B31895CF011106C00E94BC188F2D0E9485
:102080004D0F8DCF013009F48ACFF6CF7E807720B7
:1020900029F0023008F083CF8F2DE1CF01117FCFDF
:1020A000EDCF002359F32D81293349F48FEF97EEBB
:1020B000E3E081509040E040E1F700C000008D81F6
:1020C0000E94DD0E6CCF812F86958695837071F00E
:1020D000813009F064CF7E808D81912F93707110D3
:1020E00002C090E080E00E94F30C59CF6E808D8199
:1020F000912F9370611002C090E080E00E94DD0C8F
:102100004ECF8E808D81882029F00E94891C0E94EC
:10211000741D45CF0E94F11CFACF812F837009F006
:1021200059C09E8091103BCF2D8122952695277016
:10213000220F220F4D814F7050E070E060E0022EC0
:1021400004C0440F551F661F771F0A94D2F76D8095
:1021500080E090E0DC0164FE0FC08FE090E0A0E042
:10216000B0E004C0880F991FAA1FBB1F2A95D2F7A1
:1021700080959095A095B095212F26952695237052
:102180003C014D01642A752A862A972A69827A823F
:102190008B829C82223081F02330A9F0213029F0FB
:1021A000C401B3010E94CC15FACE69817A818B817A
:1021B0009C810E94A415F3CE69817A818B819C81D8
:1021C0000E94F415ECCE69817A818B819C810E94FA
:1021D000A215E5CE7E808695772011F0812F817043
:1021E000882309F4DCCE2D81229526952770220FB5
:1021F000220F4D814F7050E070E060E0022E04C06D
:10220000440F551F661F771F0A94D2F78D8080E018
:1022100090E0DC0184FE0FC08FE090E0A0E0B0E031
:1022200004C0880F991FAA1FBB1F2A95D2F780955B
:102230009095A095B095212F2695269523703C0169
:102240004D01642A752A862A972A69827A828B82AE
:102250009C82223081F02330A9F0213029F0C40182
:10226000B3010E9415179BCE69817A818B819C8175
:102270000E94ED1694CE69817A818B819C810E94A7
:102280003D178DCE69817A818B819C810E942016B9
:1022900086CE012F0F707E80772029F0802F0E943C
:1022A00056168D81DCCE8D810E944D0F802F0E94AD
:1022B000871675CE2D81223FB1F168F4203FE9F0F9
:1022C000213F49F17E80772009F448C001114ECEAC
:1022D000812F8F7125C08D81833F59F1843F91F704
:1022E0006E80662089F1012F0F71802F0E94561693
:1022F00063E0802F0E94FC1852CE6E80662039F079
:1023000001114DCE812F8F710E94BC1648CE023034
:1023100008F045CEF7CF812F8F717E80772039F27C
:102320000E9456163CCE812F8F718E808820C1F37B
:10233000BECF9E80992029F0812F8F710E94311687
:102340002ECE0E942C162BCE81E00E941119023055
:1023500008F425CE82E00E94111921CE0111A3CEEE
:10236000812F8F71A4CFED81E05FE730C8F5F0E0F9
:10237000EC5EF64D0C9474276E80662009F40FCE47
:1023800080915C0291E0892780935C0208CE7E8078
:1023900070925C0204CE81E08E808825F5CF9E800D
:1023A0009110FDCD81E0F0CF6E806110F8CD1092DC
:1023B0005C02F5CD7E80772019F00E945518EFCD94
:1023C0000E946118ECCD8E80882039F080915B02EC
:1023D0008823B1F210925B02E2CD002389F2DFCDB7
:1023E00080915B020023B1F0882341F080915C0270
:1023F00091E0892780935C0210925B029E808D8120
:102400009110B5CD0E94DD0E86E0F60111928A95FD
:10241000E9F7C5CD882309F4C2CD6E806110BFCD28
:1024200080915C0291E0892780935C02D3CF26964D
:102430000FB6F894DEBF0FBECDBFDF91CF911F91D5
:102440000F91FF90EF90DF90CF90BF90AF909F9053
:102450008F907F906F9008950F931F93CF93DF938A
:10246000EC01688179818A810E940D188C010E949B
:1024700065170E94A115B801CE01DF91CF911F9180
:102480000F910C94540FCF93DF93EC018B819C81BF
:10249000892B29F08881998189238F3F59F4DF9115
:1024A000CF910895CE010E942C12CE01DF91CF91E1
:1024B0000C94DD05CE010E9414068111F3CF0E9419
:1024C0007B18882361F38A81882349F382E0DF91B6
:1024D000CF910C941119882321F00E9499180C9423
:1024E000C6180895882321F00E949F180C94C618DE
:1024F00008950E94A7180E94AA180E94C6180E9458
:102500009E1E0E94741D90E080E00E94DD0C90E011
:1025100080E00C94F30C0E9445180C9479120E94F0
:1025200096180C948B12282F892F82958F70903CCF
:1025300080F48A30B0F4843020F4823090F480E06B
:1025400008958630E1F781E0283E88F0213FB9F711
:102550000EC08C3011F08F3091F793FB882780F9F3
:10256000089581E0203F39F018F4283E40F708959F
:10257000243F29F7FCCF08950E9401180C94931270
:10258000CF93DF9300D000D00F92CDB7DEB70F907E
:102590000F900F900F900F90DF91CF910895CF93F0
:1025A000DF9300D000D000D0CDB7DEB726960FB6AF
:1025B000F894DEBF0FBECDBFDF91CF9108951F937A
:1025C000CF93DF93E0915D0216E080915E028E135F
:1025D00004C0DF91CF911F910895CE2FD0E01E9FB0
:1025E000F0011124E15AFD4F4081518162817381D4
:1025F000848195810E94CF12FE013196E770E5CF6C
:1026000040918F02509190026091910270919202DC
:1026100080919302909194020C94CF121F93CF93C8
:10262000DF9380919402807FA9F4809191028823A6
:1026300089F080915D02C0915E0260918F0270917D
:102640009002A0919202B0919302D62FD72316E068
:10265000C81304C0DF91CF911F91089590E01097A7
:1026600011F0DF3F19F401968770F2CF189F9001A7
:10267000199F300D1124F901E15AFD4F4181471393
:10268000F2CF40814613EFCF42814111ECCF43811D
:1026900054814A1B5B0B483C510528F780919402FA
:1026A0008F70806180939402F901EC59FD4F808115
:1026B0008F70806180838FE892E00E944312DF91E7
:1026C000CF911F910C94DF12AF92BF92CF92DF9205
:1026D000EF92FF920F931F93CF93DF93CDB7DEB7A7
:1026E0002B970FB6F894DEBF0FBECDBF8C0185E0EF
:1026F000F801DE01179601900D928A95E1F7F80135
:1027000040815181E2808FE8C82E82E0D82E60910E
:102710009202709193026115710509F444C1909180
:102720008F0220919002822F89238F3F09F43BC1B1
:10273000A380B480F0909102F501E61BF70BFF2017
:1027400009F4E0C080919402382F307FE83CF10515
:1027500008F0B2C0311179C0FE2C251323C09413A8
:1027600021C0E1101FC08F708061809394020E948D
:102770000013C6010E94431280919402F8018583E0
:102780008F2D2B960FB6F894DEBF0FBECDBFDF9115
:10279000CF911F910F91FF90EF90DF90CF90BF905E
:1027A000AF900895AB2829F0842F85238F3F09F03F
:1027B00016C180E0F82FF170DF2EE0915D022091CC
:1027C0005E0236E080FD1CC0EE20D1F280919402C2
:1027D000816080939402F12CD3CF8E2F90E03E9FA6
:1027E000F0011124E15AFD4F6181651306C060813B
:1027F000641303C06281E612E7CFFC013196E770F3
:10280000E213EBCF4F8358878F8198850E94011880
:10281000292F22952F70903260F0225F2F70223086
:1028200078F49F7051F0F8019581907F31F4D12CAC
:102830000AC09F7011F08823D1F3805E8830B8F30E
:10284000C8010E944312FD2C9BCF251306C0941390
:1028500004C0F801EE2009F470C04F8358878F81BF
:1028600098850E94BC12882319F1EE2009F180910D
:102870009402803270F020918F02309190023A835E
:1028800029831B82BD82AC828E83CE0101960E9479
:10289000431286E0F801AFE8B2E001900D928A950C
:1028A000E1F70E940E130E940013FF24F39468CFF7
:1028B000C8010E944312F9CF311113C07A2DBB8693
:1028C000AA866E2D8B850E94C0128FE892E00E942E
:1028D000431286E0F60111928A95E9F70E940013EF
:1028E0007ACF2513BACF9413B8CFE110B6CFF80141
:1028F0008583C8010E94431286E0F60111928A95F1
:10290000E9F73ECFE83CF10508F040C0FE2CEE2090
:1029100079F225132AC0941328C08091940280FD77
:102920001BC0982F907FC1F0F8018583903F31F054
:10293000982F907F905F8F70892B8583C8010E94AC
:10294000431286E0F801AFE8B2E001900D928A955B
:10295000E1F70E94001314CF86E0F801AFE8B2E07F
:1029600001900D928A95E1F70BCF4F8358878F81A5
:1029700098850E94BC1281118CCF80919402816055
:1029800080939402C8010E944312FACE7A2DBB862E
:10299000AA866E2D8B850E94C01286E0F6011192E8
:1029A0008A95E9F7D6CFEE2009F482CF4F83588776
:1029B0008F8198850E94BC12F82E882309F478CF65
:1029C00086E0F801AFE8B2E001900D928A95E1F758
:1029D0008FE892E00E94330E0E940E13BACF81E07E
:1029E0008E25E8CE1F93CF93DF93CDB7DEB72C971C
:1029F0000FB6F894DEBF0FBECDBF4F8358876987EF
:102A00007A878B879C87CE0107960E946413882360
:102A100069F08A859B85892B39F04F815885842FF1
:102A200085238F3F09F077C016E065C086E0FE0180
:102A30003796DE01119601900D928A95E1F76A852D
:102A40007B856115710581F35F814885842F85231E
:102A50008F3F51F320915E0230E0C90101968770EB
:102A60009927E0915D02E817190671F40E948F1210
:102A700010925E0210925D0286E0EFE8F2E0DF0164
:102A80001D928A95E9F7D0CF59834A837D836C8361
:102A900096E0929FD001939FB00D1124A15ABD4F93
:102AA000FE01319601900D929A95E1F780935E02B6
:102AB0000E94DF12B9CF819FC0011124815A9D4F1E
:102AC0000E9464138823E9F0E0915D021E9FF001EB
:102AD0001124E15AFD4F40815181628173818481CB
:102AE00095810E94CF1280915D0290E001968770DF
:102AF000992780935D0280915D0290915E02891317
:102B0000DACF2C960FB6F894DEBF0FBECDBFDF91A3
:102B1000CF911F91089569857A858B859C850E9448
:102B2000CF1282CF08950C9492150E949315609352
:102B3000D0027093D1028093D2029093D3020C946E
:102B4000791208950C949515CF93DF9300D000D09F
:102B5000CDB7DEB769837A838B839C838091D00263
:102B60009091D102A091D202B091D30229813A81F1
:102B70004B815C81282B392B4A2B5B2B29833A8391
:102B80004B835C83CA01B9010F900F900F900F9097
:102B9000DF91CF910C949515CF93DF9300D000D0A7
:102BA000CDB7DEB769837A838B839C838091D00213
:102BB0009091D102A091D202B091D30229813A81A1
:102BC0004B815C81282339234A235B2329833A8361
:102BD0004B835C83CA01B9010F900F900F900F9047
:102BE000DF91CF910C949515CF93DF9300D000D057
:102BF000CDB7DEB769837A838B839C838091D002C3
:102C00009091D102A091D202B091D30229813A8150
:102C10004B815C81282739274A275B2729833A8300
:102C20004B835C83CA01B9010F900F900F900F90F6
:102C3000DF91CF910C9495150C9492150C941C1661
:102C40000E941E166093CC027093CD028093CE0238
:102C50009093CF020C94791260E070E0CB010C9459
:102C600020160F931F93CF93DF9300D000D0CDB7E2
:102C7000DEB741E050E060E070E08A019B0104C0F3
:102C8000000F111F221F331F8A95D2F709831A8361
:102C90002B833C83C901B8010F900F900F900F90C8
:102CA000DF91CF911F910F910C9420160F931F93DA
:102CB000CF93DF9300D000D0CDB7DEB741E050E036
:102CC00060E070E004C0440F551F661F771F8A95AF
:102CD000D2F78091CC029091CD02A091CE02B0911A
:102CE000CF028A019B01082B192B2A2B3B2B09832E
:102CF0001A832B833C83C901B8010F900F900F906A
:102D00000F90DF91CF911F910F910C9420160F938C
:102D10001F93CF93DF9300D000D0CDB7DEB741E053
:102D200050E060E070E004C0440F551F661F771F3D
:102D30008A95D2F740955095609570958091CC0218
:102D40009091CD02A091CE02B091CF028A019B0159
:102D5000082319232A233B2309831A832B833C83CB
:102D6000C901B8010F900F900F900F90DF91CF9194
:102D70001F910F910C9420160F931F93CF93DF9305
:102D800000D000D0CDB7DEB741E050E060E070E0A9
:102D900004C0440F551F661F771F8A95D2F7809194
:102DA000CC029091CD02A091CE02B091CF028A01C7
:102DB0009B01082719272A273B2709831A832B837E
:102DC0003C83C901B8010F900F900F900F90DF91D5
:102DD000CF911F910F910C942016CF93DF9300D0C9
:102DE00000D0CDB7DEB769837A838B839C838091D3
:102DF000CC029091CD02A091CE02B091CF02298158
:102E00003A814B815C81282B392B4A2B5B2B298300
:102E10003A834B835C83CA01B9010F900F900F90E6
:102E20000F90DF91CF910C942016CF93DF9300D0B9
:102E300000D0CDB7DEB769837A838B839C83809182
:102E4000CC029091CD02A091CE02B091CF02298107
:102E50003A814B815C81282339234A235B232983D0
:102E60003A834B835C83CA01B9010F900F900F9096
:102E70000F90DF91CF910C942016CF93DF9300D069
:102E800000D0CDB7DEB769837A838B839C83809132
:102E9000CC029091CD02A091CE02B091CF022981B7
:102EA0003A814B815C81282739274A275B27298370
:102EB0003A834B835C83CA01B9010F900F900F9046
:102EC0000F90DF91CF910C9420160895292F220F97
:102ED000E22FE90FEE0FE80F8E2F877041E001C05F
:102EE000440F8A95EAF7E695E695E69585E0E89F32
:102EF000F0011124EB56FD4F30E020E070E05191DD
:102F0000DF011197CB01022E02C0969587950A9496
:102F1000E2F7817081958527842385278C932F5F25
:102F20003F4F2530310559F70895292F220FE22F01
:102F3000E90FEE0FE80F9E2F9770E695E695E69560
:102F400085E0E89FF0011124EB56FD4F50E040E092
:102F500080E0219130E0092E02C0369527950A9431
:102F6000E2F721703327042E01C0220F0A94EAF7FA
:102F7000822B4F5F5F4F4530510559F70895BF923F
:102F8000CF92DF92EF92FF920F931F93CF93DF9335
:102F90008C01C090CC02D090CD02E090CE02F09097
:102FA000CF028091D0029091D102A091D202B09133
:102FB000D302C82AD92AEA2AFB2ACFE1D0E0BC2EC4
:102FC000D701C6010C2E04C0B695A7959795879595
:102FD0000A94D2F780FD0EC0219788F7B12C8B2D73
:102FE000DF91CF911F910F91FF90EF90DF90CF90E5
:102FF000BF900895B8018C2F0E947906019761F364
:10300000EECFCF93DF93D82FC92F0E94BF176D2F1C
:103010007C2FDF91CF910C9479061F93CF93DF9390
:10302000162FD72F90915A02992339F0862F972F78
:10303000DF91CF911F910C940118882391F0862F76
:10304000972F0E94BF17C82F682F812F9D2F0E9496
:103050006617612F7D2F8C2FDF91CF911F910C94DC
:103060007906862F972F0E949517C82FF2CF682FC9
:1030700080910801909109010C94B41A682F8091F5
:103080000801909109010C94BF1A80910801909158
:1030900009010C94CA1A8091D5028595859585956C
:1030A00008958091D5028770089582E08093D402BC
:1030B00081E080935C0208951092D40210925C0229
:1030C00008958091D402823021F481E08093D4026B
:1030D0000895833011F40C945C1808958091D40203
:1030E000823021F483E08093D4020895813011F47A
:1030F0000C945C1808959091D502977081E009F4C2
:1031000080E008958091F90208959091F902982B3A
:103110009093F9020895982F90958091F902892350
:103120008093F90208958093F90208951092F902AC
:1031300008959091F802982B9093F8020895982F93
:1031400090958091F80289238093F8020895109257
:10315000F80208951092F70208958091D60208951A
:1031600008950C94B0189091D602981721F080938E
:10317000D6020C94B11808958091D602882329F0C4
:103180001092D60280E00C94B1180895E0910801E5
:10319000F09109018091F9028083E0910801F0919A
:1031A000090180819091F802892B8083E0910801C8
:1031B000F091090180819091F702892B8083909191
:1031C000D602992381F0E0910801F09109018081F4
:1031D000892B808380910801909109010E941C1A1B
:1031E00081110E94BC1880910801909109010C94F2
:1031F000B30C08950C94F91898E0899F900111245C
:10320000622B6093D5020E9456168091D502859557
:10321000859585950C94FA181092D50280E00C944F
:10322000FA189091D502809589238093D502282F92
:10323000277071F4282F082E000C330B92171306F9
:1032400039F08595859585950E9487160C940C1903
:1032500008950F931F93462F572FBC01CB01AA2728
:10326000BB270097A105B105E9F1AC01BD0180E1E3
:10327000052F162F272F332701151105210531059D
:1032800019F0885FB901A8018A019B01F4E0369525
:10329000279517950795FA95D1F701151105210581
:1032A000310519F08C5FB901A8018A019B01E2E0A8
:1032B0003695279517950795EA95D1F701151105CC
:1032C0002105310519F08E5FB901A8017695679542
:1032D00057954795452B462B472B09F08F5F1F913C
:1032E0000F91089580E0C4CF90E080E00E94B02864
:1032F0009C0181E02C3E3E4F09F080E0089582E081
:1033000090E00C94A22883E090E00C94A228CF9344
:1033100084E090E00E94A228C82F81E290E00E9401
:10332000A228982F8C2FCF910895CF93682FC92F63
:1033300084E090E00E94B6286C2F81E290E0CF916B
:103340000C94B6288FE090E00C94AA28AB01BC0145
:103350008FE090E00C94C828AB01BC0183E190E0C1
:103360000C94C82860E070E0CB010C94AC196CEEB2
:103370007EEF90E080E00E94D42860E082E090E060
:103380000E94B62860E083E090E00E94B628109288
:10339000D0021092D1021092D2021092D30260E0B9
:1033A00084E090E00E94B62860E081E290E00E9414
:1033B000B62860E085E090E00E94B62860E086E0F4
:1033C00090E00E94B6286FEF87E090E00E94B62858
:1033D00040E050E0BA0188E090E00E94C82860E038
:1033E0008DE090E00E94B62840E050E0BA0188E10C
:1033F00090E00E94C82860E087E190E00E94B62833
:1034000040E050E0BA018CE190E00E94C82860E002
:1034100080E290E00E94B62840E050E0BA0188E1E6
:1034200090E00E94C8280C94BB040C94B719682F34
:103430008EE090E00C94B628FC01329680911A013F
:10344000882321F0809159039EE187FF96E080E078
:10345000915008F4089521912223D1F38F5FF8CF82
:103460009C01662301F180911A018823F1F080917B
:10347000590387FF1AC0462F469546954695603FEB
:1034800090F4677081E090E002C0880F991F6A9500
:10349000E2F7240F311DF901228130E0282339237E
:1034A00081E0232B71F480E00895F9013296285FC2
:1034B0003F4F8191861721F0E217F307D1F7F3CF41
:1034C00081E008959C01FC0132968FEF90E04191DC
:1034D000461751F08F3F19F4411101C0892F9F5FAA
:1034E0009630A9F78F3F09F40895280F311D87FD05
:1034F0003A95F901628308959C01FC013296285F98
:103500003F4F8191861303C0DF0111971C92E21790
:10351000F307B9F70895E62FE695E695E695603F3F
:1035200068F4E80FF92FF11D677021E030E001C069
:10353000220F6A95EAF78281822B82830895E62F13
:10354000E695E695E695603F70F4E80FF92FF11DDA
:10355000677081E090E001C0880F6A95EAF7809576
:10356000928189238283089520911A01222329F0D0
:103570002091590327FD0C948B1A0C94621A209108
:103580001A01222329F02091590327FD0C949F1A38
:103590000C947C1AFC01329680911A01882351F018
:1035A0008091590387FF06C08EE1DF011D928A9545
:1035B000E9F7089586E0F9CF08950C94DC1A0E948B
:1035C000DD1A80915F03843049F11092FB0288E19B
:1035D00090E020E40FB6F894A895809360000FBEA9
:1035E0002093600080E00E945D060E94DD1A83B790
:1035F000817F846083BF83B7816083BF789488951F
:1036000083B78E7F83BF0FB6F894A8958091600032
:10361000886180936000109260000FBE0895089545
:10362000CF930E949B030E9470080E940F1BC0E072
:103630008C2F0E945808811105C0CF5FCE30C1F792
:10364000CF91089581E0FCCF08950C94241B0E9433
:103650008F120E949A0C0E945D060C94251B1F92EB
:103660001FB61F9211248F939F93AF93BF938091A6
:10367000FB02811113C08091550390915603A091D4
:103680005703B09158034196A11DB11D8093550376
:1036900090935603A0935703B0935803BF91AF91F3
:1036A0009F918F911F901FBE1F90189582E084BD3F
:1036B00093E095BD9AEF97BD80936E0008952FB764
:1036C000F8948091550390915603A0915703B091BF
:1036D00058032FBF08959C014FB7F894809155036C
:1036E00090915603A0915703B09158034FBF821B8E
:1036F000930B089578941F921FB61F9211248F93F5
:103700009F93AF93BF938091550390915603A091DF
:103710005703B09158030196A11DB11D8093550325
:1037200090935603A0935703B0935803BF91AF9162
:103730009F918F911F901FBE1F901895F89481E064
:103740008093E00080E28093D800E9ECF0E0108202
:103750008FE19EE40197F1F700C000001DBA1092BE
:1037600068001CBC10BE1FBA10927A0010926E0046
:1037700010926F0010927100109272001082ECEBA8
:10378000F0E0108214B817B81AB81DB810BA108239
:1037900015B818B81BB81EB811BA0C94003F08959C
:1037A000CF93DF9300D000D0CDB7DEB70E9474195D
:1037B000811102C00E94151A0E947F198093FA029B
:1037C0000E94871990935A03809359030E9483198A
:1037D000282F30E050E040E0CA01B9010E94A21554
:1037E0008091CC029091CD02A091CE02B091CF02F7
:1037F00089839A83AB83BC83BC01CD010F900F906A
:103800000F900F90DF91CF910C941E1680910403BE
:1038100080FF12C060910E0185E0689FB001112405
:10382000759567957595679560387105A8F561156B
:103830007105A1F1862F089581FF09C060910E01E5
:1038400085E0689FB001112475956795EDCF609173
:103850000E0182FD0AC0809103038823D1F090916C
:103860000D0160910E01891728F085E0689FB00175
:103870001124DACF869FB001112485E0869F900144
:10388000879F300D1124692F70E0C9010E946027C5
:10389000CBCF65E070E0CECF8FE7089581E008954B
:1038A0008091040380FF0CC060910B0170E075955E
:1038B0006795759567956115710549F1862F08958E
:1038C00081FF06C060910B0170E075956795F3CF9D
:1038D00060910B0182FD0BC0909102039923A1F02E
:1038E00060910A0180910B01961738F0682F70E003
:1038F0006038710500F38FE70895899FC001112496
:1039000070E00E946027F4CF61E070E0D7CF81E0E3
:103910000895803F31F40E94061C8195809308032E
:103920000895813F19F40E94061CF8CF823F31F4BC
:103930000E94061C8195809307030895833F19F424
:103940000E94061CF8CF893F29F40E94501C8093E6
:10395000090308958A3F21F40E94501C8195F7CFF6
:103960008B3F31F40E94501C819580930A03089587
:103970008C3F19F40E94501CF8CF843F31F48091A1
:1039800006038160809306030895853F21F48091AA
:1039900006038260F7CF863F21F48091060384609E
:1039A000F1CF873F21F4809106038860EBCF883FF9
:1039B00021F4809106038061E5CF8D3F31F4809141
:1039C000040381608093040308958E3F21F4809165
:1039D00004038260F7CF8F3FB9F7809104038460BE
:1039E000F1CF90910703803F59F48091080387FF3E
:1039F0000DC01092080391110BC01092030308C070
:103A0000813F81F48091080318169CF3992381F07B
:103A10008091090390910A03892B09F064C01092E8
:103A200002030895823F49F497FFF0CF10920703F5
:103A3000809108038111ECCFE0CF833F19F4191670
:103A4000ACF3E4CF20910903893F29F41216F4F670
:103A500010920903DBCF8A3F19F427FFD7CFF8CFA5
:103A600020910A038B3F29F427FFD0CF10920A033D
:103A7000CDCF8C3F19F41216CCF3C8CF843F31F46C
:103A8000809106038E7F80930603C0CF853F21F48B
:103A9000809106038D7FF7CF863F21F48091060346
:103AA0008B7FF1CF873F21F480910603877FEBCF97
:103AB000883F21F4809106038F7EE5CF8D3F31F45E
:103AC000809104038E7F80930403A0CF8E3F21F466
:103AD000809104038D7FF7CF8F3F09F097CF8091BE
:103AE00004038B7FF0CF08950E945F1B2091070392
:103AF00030910803232B21F080930003909301035E
:103B00002091090330910A03232B21F08093FE02B8
:103B10009093FF0285E093E00C94CE0CEF92FF921D
:103B20000F931F93CF93DF9300D000D000D0CDB779
:103B3000DEB786E0E5E0F3E0DE01119601900D923C
:103B40008A95E1F7E0900703F090080300910903DC
:103B500010910A03109207031092080310920903B0
:103B600010920A038F2D8E2991F08091000390917D
:103B700001030E946B1B9C0180910303882309F4BD
:103B800043C090910F019217130608F44BC0802F89
:103B9000812B91F08091FE029091FF020E946B1B9D
:103BA0009C0180910203882309F47BC090910C0151
:103BB0009217130608F483C08091070390910803BD
:103BC000892B90910903892B90910A03892B11F07D
:103BD0000E94741DEB82FC820D831E8386E0FE0131
:103BE0003196A5E0B3E001900D928A95E1F7269613
:103BF0000FB6F894DEBF0FBECDBFDF91CF911F91FE
:103C00000F91FF90EF9008954091FD029AE0499F37
:103C1000A00111244217530708F0B9CF8F5F80939A
:103C2000030302C08F3FD1F7EE2059F00E94061C1B
:103C30009FEF1E140CF491E0899F802D1124809336
:103C40000703FF2059F00E94061C9FEF1F140CF47D
:103C500091E0899F802D1124809308033091070300
:103C6000332309F494CF20910803222309F48FCF42
:103C700045EB3403C0011124992359F090930703B5
:103C800045EB240390011124332339F030930803CA
:103C90007ECF81E080930703F3CF81E08093080318
:103CA00076CF4091FC029AE0499FA001112442176F
:103CB000530708F081CF8F5F8093020302C08F3FCC
:103CC000D1F7002359F00E94501C9FEF10160CF4FE
:103CD00091E0899F802D112480930903112359F0CD
:103CE0000E94501C9FEF11160CF491E0899F802DCB
:103CF000112480930A0330910903332309F45CCF24
:103D000020910A03222309F457CF45EB3403C00165
:103D10001124992359F09093090345EB2403900152
:103D20001124332339F030930A0346CF81E0809386
:103D30000903F3CF81E080930A033ECF86E0E5E0FC
:103D4000F3E0DF011D928A95E9F7109203031092C8
:103D50000203109204030895843009F442C038F439
:103D60008230E9F0833061F1813041F0089585308F
:103D700009F448C0863009F456C008958091FD02C8
:103D8000482F460F5527551F4F3F510524F4680F04
:103D90006093FD0208958FEF8093FD020895809156
:103DA0000F01482F460F5527551F4F3F510524F44B
:103DB000680F60930F0108958FEF80930F010895AE
:103DC00080910E01482F460F5527551F4F3F510533
:103DD00024F4680F60930E0108958FEF80930E0115
:103DE000089580910D01482F460F5527551F4F3FCD
:103DF000510524F4680F60930D0108958FEF8093AF
:103E00000D01089580910B01482F460F5527551F2E
:103E10004F3F510524F4680F60930B0108958FEF15
:103E200080930B01089580910A01482F460F552772
:103E3000551F4F3F510524F4680F60930A01089500
:103E40008FEF80930A010895843071F138F4823045
:103E5000A9F08330F1F0813031F00895853079F1A7
:103E60008630C1F108958091FD02681720F4861B09
:103E70008093FD0208951092FD02089580910F0134
:103E8000681720F4861B80930F01089510920F018C
:103E9000089580910E01681720F4861B80930E010F
:103EA000089510920E01089580910D01681720F475
:103EB000861B80930D01089510920D010895809145
:103EC0000B01681720F4861B80930B010895109254
:103ED0000B01089580910A01681720F4861B8093D6
:103EE0000A01089510920A0108950F931F93CF932A
:103EF000DF9300D000D0CDB7DEB741E050E060E006
:103F000070E08A019B0104C0000F111F221F331FA4
:103F10008A95D2F709831A832B833C83C901B801A0
:103F20000E94A2150F900F900F900F90DF91CF91EC
:103F30001F910F910C948F12EBEFE80FEF3308F005
:103F40005AC0F0E0E55EF64D0C9474270E94151AF5
:103F500081E008958091FA02807F8093FA0281E0E7
:103F600080930C0308950E940506F2CF9091FA0207
:103F7000892F8E7F90FF81608093FA0280FDE8CFC9
:103F8000817F8093FA02E4CF9091FA02892F8D7F8E
:103F900091FF82608093FA0281FFDACF8091FA026A
:103FA0008160EFCF9091FA02892F8B7F92FF84601E
:103FB0008093FA0282FDF2CFCBCF9091FA02892F43
:103FC000877F93FF88608093FA0283FDE7CFC0CF9D
:103FD0000E948F1290915903892F97FB87F980587F
:103FE00080935903B5CF80E00E94751FB1CF8953EC
:103FF000FBCF8D51F9CF80E0089580E008950C94B7
:10400000FD1F8E518A3030F4E82FF0E0E15EFD4F65
:104010008081089580E00895CF93C82F80910C038C
:104020008130C9F08230E9F1811181C00E9482188B
:10403000813159F48C2F0E94FD1F811125C08C2FD6
:104040000E949C1F8170CF9108950E948218823235
:1040500089F380E0F8CF0E948218813159F30E94E1
:104060008218823239F38C2F0E94FF1F81110AC0FF
:10407000C431A1F060F4CB3029F0C03119F782E0EF
:1040800080930C0381E0DECF81E090E0DBCFC9328A
:1040900029F081E0C833B1F280E0D4CF10920C0354
:1040A000FBCFCB3469F198F4C43240F4CE3100F543
:1040B000C73061F1C43121F081E0C5CFC932E1F7E9
:1040C00080910B03882381F010920B03F5CFC1354B
:1040D000A9F061E0C235A9F06AE0CE3469F78091B9
:1040E0000B030E94241FE8CF81E080930C03ABCF29
:1040F0008C2F0E94012080930B03DECF61E0EFCF75
:104100006AE080910B030E94AC1ED6CF1092FD0294
:1041100084E180930F01C0930E018CE380930D0125
:1041200088E080930B0188E280930A01C5CF10924A
:104130000C038FCF80912D030895CF93DF9300D090
:104140000F92CDB7DEB790915F03943019F5898354
:104150006A837B8382E08093E9008FEF9091E8008F
:10416000815095FD06C095ED9A95F1F700008111FB
:10417000F5CF8091E80085FF0DC050E040E063E09E
:1041800070E0CE0101960E94C4228091E8008E77F3
:104190008093E8000F900F900F90DF91CF910895DA
:1041A000BC0184E00C949D20BC0183E00C949D2014
:1041B00022E02093E9002FEF3091E800215035FDF7
:1041C00006C035ED3A95F1F700002111F5CF2091A9
:1041D000E80025FF0BC050E040E066E070E00E9480
:1041E000C4228091E8008E778093E8000895CF93F1
:1041F000DF93D82FC92F80911A018823C1F18091B4
:10420000590387FF34C060E282E08093E9008FEFBA
:104210009091E800815095FD06C095ED9A95F1F7D3
:1042200000008111F5CF8091E80085FF1DC08091CD
:104230001A0170E050E040E0811104C050E040E01D
:1042400068E070E08D2F9C2F0E94C4228091E800CE
:104250008E778093E80080E2ED2FFC2FADE0B3E095
:1042600001900D928A95E1F7DF91CF91089568E072
:1042700081E0CBCF80915E03811109C00E944C2464
:104280000E94A9248091E20084608093E200089556
:1042900010925E030895089508950C94271B42E040
:1042A00061EC81E00E94C82342E261EC82E00C9460
:1042B000C82380916103893089F148F4823009F480
:1042C0009DC0833009F458C0813041F008958A3090
:1042D00009F484C08B3009F46AC0089580916003AA
:1042E000813A09F048C08091E800877F8093E80018
:1042F0008091640390916503892B61F460E28DE005
:1043000093E070E00E9413238091E8008B77809304
:10431000E800089560E090E080E0F3CF80916003D2
:10432000813249F58091640390916503029718F5F5
:104330008091E800877F8093E8008091E80082FF09
:1043400016C09091F3008091F200029729F48091B9
:10435000F1008B7F813021F48091F10080932D0357
:104360008091E8008B778093E8000C94FC23809187
:104370005F038111E2CF089580916003813AD9F7FC
:104380008091640390916503892BA9F78091E800DF
:10439000877F8093E8008091E80080FFFCCF8091C8
:1043A0001A018093F1008091E8008E77DCCF809134
:1043B0006003813201F78091640390916503892B3A
:1043C000D1F68091E800877F8093E8000E94FC236B
:1043D0008091620380931A010C948F128091600384
:1043E000813249F68091E800877F8093E8000E943F
:1043F000FC238091630380932E03089580916003D2
:10440000813A09F0B8CF8091E800877F8093E80077
:104410008091E80080FFFCCF80912E03C2CF84B74B
:10442000877F84BF0FB6F894A8958091600088615B
:1044300080936000109260000FBE80E890E00FB69D
:10444000F89480936100909361000FBE0E94170D55
:104450000E944C240E94A9248091E20084608093F1
:10446000E20078940E9431270E94230D80E191E0C0
:104470000E94950C80915F03853039F00E942B0DCE
:104480000E94210D0E94220DF5CF0E94DF1A80911B
:104490005D03882379F30E94101B882359F30E943F
:1044A000AE22E8CF0C945422FC01CB01DA012F2F6D
:1044B000332723303105D1F070F42130310509F470
:1044C0003EC02230310569F48BE390E022E933E00D
:1044D0002D933C93089521323105E9F022323105C4
:1044E00021F190E080E030E020E0F2CFCF01992789
:1044F000E13059F08230910559F0EEE8F3E0892B74
:1045000081F7849190E09F01E3CFE4E6F3E0F9CFF7
:10451000ECE4F3E0F6CF892BB9F06130710509F7CF
:1045200089E090E02DEB33E0D3CF892B91F061301F
:104530007105B9F68CEB90E02FED33E0C9CF82E145
:1045400090E02DEC33E0C4CF89E090E024EA33E042
:10455000BFCF80E490E02BE934E0BACF80E189BDA1
:1045600082E189BD09B400FEFDCF8091D8008F7D26
:104570008093D8008091E00082608093E000809179
:10458000E00081FDFCCF0895AF92BF92CF92DF9201
:10459000FF920F931F93CF93DF936C01EB018A017E
:1045A0000E941B24F82E811123C00115110539F03A
:1045B000F80180819181C81BD90BC80ED91EB12C7E
:1045C000A12C2097A9F08091E80085FD22C0809160
:1045D000E8008E778093E80001151105A1F0F8013D
:1045E00080819181A80EB91EB182A08285E0F82E4B
:1045F0008F2DDF91CF911F910F91FF90DF90CF9082
:10460000BF90AF9008950E941B248823D1F2F82E0A
:10461000EFCFF60181916F018093F1002197FFEFB9
:10462000AF1ABF0ACECFFC01CB01209166033091B7
:1046300067032617370790F0009729F42091E800C8
:104640002E772093E80040E0009751F4411108C014
:104650008091E80082FF31C080E00895C901F3CF66
:1046600020915F032223A9F12530A9F12091E800D0
:1046700023FD2DC02091E80022FDEACF2091E80023
:1046800020FFE2CF3091F3002091F200009719F063
:104690002830310558F041E02830310509F040E07C
:1046A0002091E8002E772093E800CECF41914093EF
:1046B000F10001972F5F3F4FE9CF80915F0388237F
:1046C00041F0853041F08091E80083FFC1CF81E067
:1046D000089582E0089583E00895FC01CB012091C4
:1046E0006603309167032617370790F0009729F487
:1046F0002091E8002E772093E80040E0009751F4E5
:10470000411108C08091E80082FF32C080E0089526
:10471000C901F3CF20915F032223B1F12530B1F11C
:104720002091E80023FD2EC02091E80022FDEACF71
:104730002091E80020FFE2CF3091F3002091F200B9
:10474000009719F02830310558F041E02830310544
:1047500009F040E02091E8002E772093E800CECFCA
:1047600044914093F100319601972F5F3F4FE8CF7E
:1047700080915F03882341F0853041F08091E8000B
:1047800083FFC0CF81E0089582E0089583E008951B
:10479000982F973028F08F708093E90081E008957A
:1047A0009093E900242F762F50E0981731F0709104
:1047B000EC002091ED005091F00021FD02C09F5FC0
:1047C000E8CF3091EB003E7F3093EB003091ED006D
:1047D0003D7F3093ED003091EB0031603093EB0082
:1047E0007093EC002093ED005093F0002091EE00C8
:1047F00027FDE5CF80E008958091600387FF13C017
:104800008091E80082FF06C08091E8008B7780935A
:10481000E80004C080915F038111F2CF0895809178
:104820005F038823D9F38091E80080FFF8CF80915F
:10483000E8008E77ECCF2091E4003091E50095E61A
:10484000A9012091EC00822F817020FF06C0809189
:10485000E80080FF06C080E008952091E80022FD76
:104860001AC080915F03882389F0853089F0809198
:10487000EB0085FD0FC02091E4003091E500421768
:104880005307F9F29150E1F684E0089582E008952B
:1048900083E0089581E008950E94BA240E94C22412
:1048A000E0EEF0E0808181608083E8EDF0E08081DF
:1048B0008F77808319BCA7EDB0E08C918E7F8C93AD
:1048C00080818F7E808310925E0308950F931F93E3
:1048D000CF93DF930E94BA240E94C224C8EDD0E097
:1048E00088818F77888388818068888388818F7D9D
:1048F000888319BC10925F0310925B0310925D03D2
:1049000010925C0300EE10E0F80180818B7F8083C1
:1049100088818160888342E060E080E00E94C82353
:10492000E1EEF0E080818E7F8083E2EEF0E0808136
:1049300081608083808188608083F80180818E7FA0
:104940008083888180618883DF91CF911F910F914F
:104950000895E8EDF0E080818F7E8083E7EDF0E060
:1049600080818160808384E082BF81E080935E03E8
:104970000C946624E8EDF0E080818E7F80831092B5
:10498000E20008951092DA001092E10008951F925B
:104990000F920FB60F9211242F933F934F935F9373
:1049A0006F937F938F939F93AF93BF93EF93FF93F7
:1049B0008091E10082FF0BC08091E20082FF07C07E
:1049C0008091E1008B7F8093E1000E9430278091ED
:1049D000DA0080FF19C08091D80080FF15C0809157
:1049E000DA008E7F8093DA008091D90080FF94C036
:1049F00080E189BD82E189BD09B400FEFDCF81E07F
:104A000080935F030E943A218091E10080FF19C0EA
:104A10008091E20080FF15C08091E2008E7F80933C
:104A2000E2008091E20080618093E2008091D800F2
:104A300080628093D80019BC85E080935F030E9458
:104A40004C218091E10084FF29C08091E20084FF25
:104A500025C080E189BD82E189BD09B400FEFDCF9A
:104A60008091D8008F7D8093D8008091E1008F7E67
:104A70008093E1008091E2008F7E8093E20080913C
:104A8000E20081608093E20080915B03882309F457
:104A900049C084E080935F030E944D218091E10032
:104AA00083FF29C08091E20083FF25C08091E1004F
:104AB000877F8093E10082E080935F0310925B0325
:104AC0008091E1008E7F8093E1008091E2008E7FF3
:104AD0008093E2008091E20080618093E20042E0F6
:104AE00060E080E00E94C8238091F000886080939D
:104AF000F0000E944B21FF91EF91BF91AF919F91E8
:104B00008F917F916F915F914F913F912F910F9076
:104B10000FBE0F901F90189519BC10925F030E9452
:104B2000482172CF8091E30087FD02C081E0B2CFBF
:104B300083E0B0CF1F920F920FB60F9211242F93E4
:104B40003F934F935F936F937F938F939F93AF9315
:104B5000BF93CF93DF93EF93FF93D091E900DF7082
:104B60008091EC00C82FC17080FDC0E81092E90070
:104B70008091F000877F8093F00078940E94DE257A
:104B80001092E9008091F00088608093F000CD2BB6
:104B9000CF70C093E900FF91EF91DF91CF91BF916A
:104BA000AF919F918F917F916F915F914F913F91C5
:104BB0002F910F900FBE0F901F9018951F93CF93BA
:104BC000DF93CDB7DEB7AA970FB6F894DEBF0FBE5E
:104BD000CDBF80E693E0FC0101962091F100208397
:104BE00023E088369207B9F70E9459218091E800A6
:104BF00083FF1EC180916003909161039A3008F099
:104C000017C1E92FF0E0E65AF64D0C94742780386E
:104C100099F0823809F00CC1809164038F7087305D
:104C200008F006C18093E9008091EB0085FB88279E
:104C300080F91092E90006C080915C0390915D03B9
:104C4000911182609091E800977F9093E8008093A3
:104C5000F1001092F1008091E8008E77E5C0882382
:104C600009F4D3C0823009F0E3C08091620381115E
:104C7000D6C0809164038F702FEF280F263008F084
:104C8000D7C08093E9002091EB0020FFC8C093308B
:104C900031F48091EB0080628093EB00C0C0909172
:104CA000EB0090619093EB0021E030E001C0220F17
:104CB0008A95EAF72093EA001092EA008091EB00CF
:104CC0008860EACF8111B4C0109162031F77809190
:104CD000E3008078812B8093E3008091E800877F58
:104CE0008093E8000E94FC238091E80080FFFCCFC5
:104CF0008091E30080688093E30082E0111183E0FB
:104D000080935F0395C08058823008F091C08091F5
:104D10006203909163038C3D23E09207A1F583E049
:104D20008A838AE289834FB7F894DE01139620E0E4
:104D30003EE051E2E32FF0E050935700E49120FF72
:104D400003C0E295EF703F5FEF708E2F90E0EA3086
:104D5000C0F0C7968D939D932F5F243159F74FBFB5
:104D60008091E800877F8093E8006AE270E0CE01DE
:104D700001960E9413238091E8008B778093E800CE
:104D800057C0C096E7CF6091640370916503AE0190
:104D90004F5F5F4F0E945222BC01892B09F448C02B
:104DA0008091E800877F8093E80089819A810E9442
:104DB0006D23E1CF8038E1F58091E800877F809313
:104DC000E80080915B038093F10045CF811130C0F2
:104DD00090916203923060F58091E800877F809324
:104DE000E80090935B030E94FC2380915B0388237F
:104DF00011F084E005C08091E30087FDFACF81E0E7
:104E000080935F030E944F2113C080916203813021
:104E100079F481E0933009F080E080935D03109293
:104E2000E9008091E800877F8093E8000E94FC23DE
:104E30008091E80083FF0AC08091E800877F80931B
:104E4000E8008091EB0080628093EB00AA960FB699
:104E5000F894DEBF0FBECDBFDF91CF911F910895B3
:104E60000895CF9380915F038823A1F0C091E9005A
:104E7000CF709091EC00892F817090FD80E8C82B55
:104E80001092E9008091E80083FD0E94DE25CF703A
:104E9000C093E900CF910895AA1BBB1B51E107C045
:104EA000AA1FBB1FA617B70710F0A61BB70B881FBA
:104EB000991F5A95A9F780959095BC01CD01089549
:104EC00097FB072E16F4009407D077FD09D00E94B7
:104ED0004C2707FC05D03EF4909581959F4F08958F
:104EE000709561957F4F0895EE0FFF1F0590F49127
:104EF000E02D09940F931F93CF93DF939C010297AA
:104F000010F422E030E0E0916A03F0916B0390E04E
:104F100080E0B0E0A0E0309791F4009709F445C03C
:104F2000821B930B84309105B8F58A819B816115B2
:104F3000710569F1FB0193838283FE0111C04081F9
:104F400051810281138142175307F0F04217530732
:104F500099F4109761F012960C93129713961C9384
:104F60003296CF01DF91CF911F910F910895009359
:104F70006A0310936B03F4CF009719F04817590791
:104F800018F4CA01BD01EF01DF01F801C4CF90930D
:104F90006B0380936A03D1CFFE01E80FF91F2193C1
:104FA0003193029799838883DCCF80916803909135
:104FB0006903892B41F48091020190910301909340
:104FC000690380936803809100019091010100972B
:104FD00041F48DB79EB74091040150910501841BA7
:104FE000950B40916803509169034817590708F0E1
:104FF000B8CF841B950B8217930708F4B2CFB90181
:105000006E5F7F4F8617970708F4ABCF640F751F4D
:105010007093690360936803FA0121933193A1CFE0
:10502000CF93DF939C010097E9F0FC013297138244
:105030001282C0916A03D0916B03DE0190E080E0A0
:105040002097A1F480819181280F391F80916803F6
:10505000909169038217930709F067C0F093690381
:10506000E0936803DF91CF910895DA01AE17BF078F
:1050700008F041C012964D915C911397CD014115F6
:10508000510599F7DC011396FC93EE9312974D911D
:105090005D91A40FB51FEA17FB0781F420813181D0
:1050A0002E5F3F4F240F351FDC0111963C932E934A
:1050B0002281338113963C932E931297B0E0A0E0A7
:1050C0008A819B810097B1F5FE0181919191E80F52
:1050D000F91F80916803909169038E179F0711F65D
:1050E000109759F510926B0310926A03D0936903DD
:1050F000C0936803B7CFB383A28340815181240F4B
:10510000351FA217B30771F44E5F5F4F2D913C918D
:105110001197420F531F5183408312962D913C915A
:1051200033832283009709F0ADCFF0936B03E093B4
:105130006A0398CFDE01EC01C3CF13961C921E9236
:105140001297D4CFF999FECF92BD81BDF89A9927D5
:1051500080B50895A6E1B0E044E050E00C94DC286E
:10516000A8E1B0E042E050E00C94DC28262FF99949
:10517000FECF92BD81BDF89A019700B4021639F0B6
:105180001FBA20BD0FB6F894FA9AF99A0FBE089587
:105190000396272F0E94B7280E94B628252F0E9429
:1051A000B728242F0C94B7280196272F0E94B728E0
:1051B0000C94B628DC01CB01FC01F999FECF06C0A6
:1051C000F2BDE1BDF89A319600B40D9241505040C5
:1051D000B8F70895F894FFCF270B2D0B310B3F0B39
:1051E000430B470B4B0B510B590B5D0B610B650BC5
:1051F000710B750B790B7D0B830BA10B8B0B350B97
:105200003B0B690B6D0B550B870B970BAA0BAE0B6A
:105210009E0F9E0F1110111063108110B311CF0F4C
:105220008D1049115A115A11BC11E311C711CB113C
:10523000D411CF11DA11B31FAA1FB61FA81FFB1F6D
:10524000FB1FA81FFB1FFB1FD21FFB1FDD1FE81F3B
:10525000FB1FFB1FFB1FFB1FA81FFB1FFB1FA81F24
:10526000FB1FC41FFB1FFB1FF91FF91FF91FF91FAD
:10527000F91FF91FF91FF91FF91FF31FFB1FB31FB8
:10528000A61FFB1FFB1FFB1FFB1FFB1FFB1FFB1FA3
:10529000FB1FFB1FFB1FF31FFB1FFB1FA81FFB1F99
:1052A000F71FF71FF71FF71FF71FF71FF71FF71F4E
:1052B000F71FF31F07262F2618272F2618276226E9
:0852C00083261827DA26E626F2
:1052C80000006C0320002000D7022808643C071463
:1052D8009A20F720D820D420D02001000D010D02FB
:1052E8000D030D040D050D000C010C020C030C043C
:1052F8000C050C000B010B020B030B040B050B0038
:105308000A010A020A030A040A050A000901090235
:10531800090309040905090008010802080308042B
:105328000805080007010702070307040705070027
:105338000601060206030604060506000501050225
:10534800050305040505050004010402040304041B
:105358000405040003010302030303040305030017
:105368000201020202030204020502000101010215
:10537800010301040105010000010002000300040B
:10538800000500E200E900EA00B500B600B700CD6C
:10539800008301CC008A0192019401210223022496
:1053A800022502260227022A02B300B4006F007009
:1053B80000E200E900EA00B500B600B700CD0083BE
:1053C80001CC008A019201940121022302240225C2
:1053D80002260227022A02B300B4006F00700001FF
:0A53E800020304050607080900008F
:00000001FF
