:1000000077C2000092C2000090C200008EC20000C1
:100010008CC200008AC2000088C2000086C20000B4
:1000200084C2000082C200000C9482200C944E21F5
:100030000C94431A7AC2000078C2000076C2000015
:1000400074C2000072C2000070C200006EC20000E4
:100050006CC200000C94CB1A68C2000066C200009B
:1000600064C2000062C2000060C200005EC2000004
:100070005CC200005AC2000058C2000056C2000014
:1000800054C2000052C2000050C200004EC2000024
:100090004CC200004AC2000048C2000046C2000034
:1000A00044C2000042C2000040C2000029002B00F0
:1000B000E000E100E20000001E00140004001D004A
:1000C000000000001F001A0016001B000000E300E3
:1000D0002000080007000600225229002100150018
:1000E0000900190021520000220017000A00050033
:1000F0000000000000002C0400001E0100000000B1
:10010000660C835200001F010000000023001C0049
:100110000B00110000000000240018000D0010006A
:100120002152000025000C000E00360022522C0047
:10013000260012000F0037000000E7002700130020
:10014000330038000000000000002A002800E5000D
:10015000E6000000000001000100010001000000B5
:1001600000001E002B0000000000010000001F0026
:1001700035000000000001000000200031002F01C8
:100180000000010000002100340000000000010018
:10019000000022002A0000000000010000001014EE
:1001A000000000000000010000000000000000004E
:1001B000000001000000230000000000000001001A
:1001C000000024002D0000000100010000002500B7
:1001D0002E00010001000100000026002F00010098
:1001E00001000100000027003000010001000100B3
:1001F00001000100010001000100000000000000FA
:1002000000000000007C000000003A00AA0000008E
:100210000000010000003B00A900000000000100F8
:1002200000003C00A80000000000010000003D00AC
:10023000000000000000010000003E002A00000055
:1002400000000100000000000000000000000100AC
:1002500000000000000000000000010000003F005E
:10026000CF0000000000010000004000CE00D100DF
:100270000000010000004100CD00D200000001009C
:1002800000004200D0000000000001000000430018
:1002900044004500000001000000000000000000D4
:1002A000000000000000000000000000000000004E
:1002B000000000000000000000000000000000003E
:1002C00016140000000000000000000000000614EA
:1002D0000000050000000000000000000000000019
:1002E000000017140A1400000000000000000000C5
:1002F000000000000000000000002052000000008C
:1003000000000000000000000000000000000000ED
:1003100000000000000000000000000000000C14BD
:100320000000000000000000000000000F140000AA
:1003300000000000000000000000000000000000BD
:10034000000000000000000000000000160345004F
:10035000720067006F0044006F00780020004500C5
:100360005A00000028035A005300410020005400A6
:100370006500630068006E006F006C006F0067002E
:10038000790020004C00610062007300000004034B
:10039000090409025400030100A0FA090400000145
:1003A0000301010009211101000122440007058118
:1003B00003080001090401000103010200092111E1
:1003C0000100012247000705820310000109040211
:1003D000000103000000092111010001226D000746
:1003E000058303200001120100020000000897327B
:1003F000744901000102000105010980A101850382
:1004000019012AB700150126B70095017510810062
:10041000C0050C0901A101850419012AA0021501DA
:1004200026A002950175108100C005010906A101F1
:100430008506050719E029E71500250195087501CE
:1004400081020507190029EF1500250195F07501B6
:10045000810205081901290595057501910295018B
:1004600075039101C005010902A1010901A100055F
:100470000919012908150025019508750181020552
:1004800001093009311581257F950275088106091A
:10049000381581257F950175088106050C0A3802FB
:1004A0001581257F950175088106C0C005010906E3
:1004B000A101050719E029E7150025019508750137
:1004C00081029501750881010507190029FF1500B2
:1004D00026FF0095067508810005081901290515F4
:1004E000002501950575019102950175039101C0E3
:1004F00011241FBECFEFDAE0DEBFCDBF11E0A0E0D8
:10050000B1E0E4E0FAE402C005900D92AC39B10725
:10051000D9F722E0ACE9B1E001C01D92AB3EB207D1
:10052000E1F70E949F130C94C1246ACD8098889AA9
:100530008198899A84988C9A85988D9A86988E9AB3
:1005400087988F9A0895209828982198299822981A
:100550002A9823982B9852985A9853985B983E98CB
:1005600046980895A1E0B0E0E8EBF2E00C94232374
:10057000873010F52091060130910701232BC1F43B
:1005800021E030E0A90102C0440F551F8A95E2F72F
:10059000CA018095898304E610E0AE014F5F5F4F8A
:1005A00062E180E40E945E1C909307018093060143
:1005B0002196E4E00C943F238B30C1F048F489305D
:1005C00079F08A3081F0883041F0209A2898F0CF75
:1005D0008C3079F4539A5B98EBCF219A2998E8CF25
:1005E000229A2A98E5CF239A2B98E2CF529A5A98CA
:1005F000DFCF3E9A4698DCCFA1E0B0E0E2E0F3E046
:100600000C9425238730D8F480910601909107013E
:10061000892BE9F4198224E630E041E050E0BE0184
:100620006F5F7F4F80E40E94F61B909307018093D9
:100630000601898180952196E2E00C9441239FB1C7
:100640008FB1869586958C739370892BF3CF80E05C
:10065000F2CFE9D090E0909307018093060173DF19
:1006600065CFA3E0B0E0E7E3F3E00C9422238091B0
:10067000060190910701892B81F080919E018F5F87
:1006800080939E01811109C0CED090E09093070124
:1006900080930601892B09F469D00AEB12E01A82D3
:1006A0001B828A81895F89838A815CDF89815ADF25
:1006B0008A81A2DF8F73F80191918F01F12C891744
:1006C00021F031978083FF24F394898195DF8F7324
:1006D000F8019681891789F0868381E08F29FB8153
:1006E000F82BFB8330DF8A818F5F8A838730C9F6DE
:1006F0008B812396E5E00C943E2380E0EFCF93D0EE
:1007000090E090930701809306011DDF0FDFE8EC76
:10071000F2E0119282E0E63DF807D9F70895259AB4
:100720002D9A0895269A2E9A0895279A2F9A089519
:1007300056985E98089525982D98089526982E9895
:10074000089527982F980895F3DFF5DFF7DFF9CFA5
:1007500090E0909389008093880090938B00809321
:100760008A0090938D0080938C000895EDDF8FEFC9
:10077000EFDFD5DF2FEF80E792E0215080409040FF
:10078000E1F700C00000CEDF2FEF80E792E02150BC
:1007900080409040E1F700C00000C7DF2FEF80E706
:1007A00092E0215080409040E1F700C00000C3DF9C
:1007B0002FEF80E792E0215080409040E1F700C0A9
:1007C0000000BCDF2FEF80E792E021508040904096
:1007D000E1F700C00000B5DFB7CF89EA8093800061
:1007E00089E08093810024982C983F98479A5498E8
:1007F0005C9A55985D9A6E98769A0E947E0F6093E7
:10080000B4027093B5028093B6029093B7026770FA
:100810002FEF629FC0011124959587959595879537
:1008200097DFA4DF6CC0A2E0B0E0E9E1F4E00C9453
:10083000232380E290E0909307018093060180914A
:100840009F0181110EC00E947C1B81E080939F015B
:100850002FEF83ED90E3215080409040E1F700C0FE
:10086000000080E09FE39A83898304E610E022E0A1
:1008700030E0AE014F5F5F4F60E080E40E945E1C9D
:100880009093070180930601892B69F422E030E000
:10089000AE014F5F5F4F6CE080E40E945E1C90935E
:1008A000070180930601809106012296E4E00C94F2
:1008B0003F23A4E0B0E0EFE5F4E00C942523109290
:1008C000B4021092B5021092B6021092B70284E000
:1008D00080618093B4028091B4029091B502A0919E
:1008E000B602B091B702BC01CD010E94800F0E94F8
:1008F000490F2496E2E00C94412302C00895089524
:10090000A4E0B0E0E6E8F4E00C9425238091DA015D
:100910009091DB019C0150E040E0CA01B901D3D1C4
:10092000898306DF08DF0ADF0CDF3981323049F0C6
:10093000333049F0313009F4F2DE2496E2E00C94D1
:100940004123F0DEFACFF1DEF8CF0F931F93CF9360
:100950008B018932910541F18C9709F457C0809140
:10096000A701882369F08091A401811109C0FB01CE
:100970008581882329F081EE5FD281E08093A401F4
:100980008091A301C1E0882341F1C091A001C11170
:1009900024C0F801C581CC2309F465C080EE4CD297
:1009A00081E08093A00119C0FB01C581CC2359F0DF
:1009B00081E08093A701828193819093A601809327
:1009C000A501C0E00AC08091A401882359F081EEFE
:1009D000B9D21092A7011092A4018C2FCF911F9130
:1009E0000F910895828193812091A5013091A601F4
:1009F000821B930B883C910560F789E21DD289E246
:100A0000A1D28091A401882321F3E1CFFB01C5810C
:100A1000CC2351F081E08093A30182819381909354
:100A2000A2018093A101CDCF8091A001882339F04C
:100A300080EE88D21092A3011092A001CECF8281C5
:100A400093812091A1013091A201821B930B883CDC
:100A5000910580F78CE2F0D18CE274D28091A001F4
:100A6000882341F3E5CFC82FB8CF8430B8F46E3077
:100A7000A8F4463098F4E42FF0E096E0699FE00D8A
:100A8000F11D112494E5899FE00DF11D1124EE0F55
:100A9000FF1FE455FF4F85919491089581E090E008
:100AA0000895E3CF089581E00895FDCF0895FBCF29
:100AB000089581E00895F7CF089547CF08950895E8
:100AC0000895FDCF089508950895A6E0B0E0EBE6FF
:100AD000F5E00C94242349835A839E833091AD0121
:100AE00089819A81311117C03E81332389F02223F5
:100AF00079F0DFD5182F682F89819A81B9D569815E
:100B00007A81812F0E9463112696E3E00C944023A2
:100B1000C0D5182FF4CFCDD569817A81F3CFFC01F0
:100B2000262F408151816281738184819581CDCF4F
:100B3000CF93DF93D82FC92F61E0F1DF6D2F7C2F8A
:100B4000B4DF882359F061E08D2F9C2FE8DF6D2FF3
:100B50007C2FADDF8170DF91CF91089580E0FACFD7
:100B60000F931F93CF93DF93D82FC92F60E0D7DF68
:100B70008C016D2F7C2FA4DF6D2F7C2FC801A1DF8E
:100B8000DF91CF911F910F91089521E030E0A901ED
:100B900002C0440F551F8A95E2F7CA01A1C4CF9342
:100BA000C82F81E090E00C2E02C0880F991F0A9494
:100BB000E2F70E94780F8C2FE8DFCF91089581E053
:100BC0000895FDCF0895FBCF0895CF93C82F3DD44E
:100BD0008C2FF7DF8C2FF7DF2FEF84E39CE0215081
:100BE00080409040E1F700C00000CF91089581E07F
:100BF000ECDF0C94EF1A80E0E8DF0C94211B0F93DC
:100C00001F93CF93DF938C0161E089DFEC01B80182
:100C100052DF811106C080E0DF91CF911F910F91CB
:100C20000895B801CE0149DF8823A9F3B801CE01A8
:100C30000E947B17882379F3B801CE010E94DA1352
:100C4000882349F3B801CE010E94B413882319F315
:100C5000B801CE010E9463128823E9F2F801858170
:100C6000882381F0CA35FCE7DF07F9F070F4C13062
:100C7000ECE7DE07C1F0C330FCE7DF0791F0C115F8
:100C8000DC4769F0C80115DFC7CFCB35ECE7DE07DD
:100C900079F0CC35DC47B1F70E943D0FF3CFA7DFE9
:100CA000BACF0E94700FA7DFB6CF0E94450FEACFE0
:100CB0000E94470FE7CF07DF0E941D1A62C063D072
:100CC00003DF0C94201A0F931F93462F572FBC015C
:100CD000CB01AA27BB270097A105B105E9F1AC011B
:100CE000BD0180E1052F162F272F33270115110590
:100CF0002105310519F0885FB901A8018A019B011E
:100D0000F4E03695279517950795FA95D1F70115D3
:100D100011052105310519F08C5FB901A8018A017F
:100D20009B01E2E03695279517950795EA95D1F74F
:100D3000011511052105310519F08E5FB901A801D2
:100D40007695679557954795452B462B472B09F088
:100D50008F5F1F910F91089580E0C4CF81E00895C7
:100D60000895CF93DF93D82FF9DFC82F882311F090
:100D70008D2FF6DF8C2FDF91CF9108950895F1CF5D
:100D8000089580E0FCCF0E94C917F9CFCF930E944D
:100D9000C917C82F8091A8018C1771F0C093A801C2
:100DA0000E94AE1A6093A9017093AA018093AB01CF
:100DB0009093AC018C2FE3DFCF910895ADE0B0E0CC
:100DC000E4EEF6E00C942523488759876A877B87F1
:100DD0008C879D8791117CD71F8286E0FE01389613
:100DE000DE01119601900D928A95E1F78D818111B6
:100DF0000CC029813A814B815C816D817E818F811C
:100E0000B4D62D96E2E00C944123CE01019690DEFB
:100E10008111EFCFF6CFFC018481813019F48081FC
:100E2000918178C40895662321F00E9434150C94B2
:100E3000FF150E948615FBCFCF93C82F8823B9F0EA
:100E40008238B9F40E94D81781FD11C089E30E944D
:100E50000419C9D72FEF37EE83E02150304080408E
:100E6000E1F700C0000089E30E941B19BCD7CF91B5
:100E70000895833899F40E94D81780FDF8CF83E550
:100E80000E940419B0D79FEF21EE34E0915020402A
:100E90003040E1F700C0000083E5E6CF843899F4E4
:100EA0000E94D81782FDE3CF87E40E9404199BD7E4
:100EB0008FEF91EE24E0815090402040E1F700C098
:100EC000000087E4D1CF8CEF8C0F813A68F48C2F2F
:100ED0000E947818882321F08C2F0E941B1983D739
:100EE0008C2F0E940419C2CF80E28C0F883040F40E
:100EF000C77081E001C0880FCA95EAF7CAD6B6CF9D
:100F00008BE58C0F833038F42C2F2452330BC9011E
:100F10000E940718ACCFE8E5EC0FEB3150F4F0E09D
:100F2000EE0FFF1FEF5DFE4F808191810E942F1811
:100F30009ECF83E38C0F833108F099CF61E08C2F33
:100F400072DF95CF882309F44DC0823861F40E9486
:100F5000D81781FF47C089E30E94041944D789E369
:100F60000E941B1940C7833851F40E94D81780FF94
:100F700039C083E50E94041936D783E5F1CF843860
:100F800051F40E94D81782FF2DC087E40E940419F3
:100F90002AD787E4E5CF9CEF980F913A08F390E2C7
:100FA000980F983048F4877091E001C0990F8A95A6
:100FB000EAF7892F74D6D6CF9BE5980F933020F4AB
:100FC00090E080E00C94071898E5980F9B3120F48E
:100FD00090E080E00C942F1893E3980F933110F475
:100FE00060E021CF08951F93CF93DF93182FEB017B
:100FF00023DF209731F4812FA5DFDF91CF911F915F
:1010000008958FE99FE00197F1F700C00000219754
:10101000F0CF70E060E0893311F460E570E0E3CF79
:10102000882311F036D6DFC60895882311F037D60D
:10103000DAC60895B0E0A0E0E0E2F8E00C941D23E9
:101040006C01D62FC72FFC011581068102950F7008
:1010500016D6E82E8823E9F0E12E1123D1F08C2F4B
:10106000807F803461F080E28D0F8830F0F08C2F2B
:10107000807E803221F4D230C0F00023B1F0809124
:10108000B90282FF12C082E0D2D6F9D591E0E82EF3
:10109000E9268C2F82958F70A82EB12C8C3078F594
:1010A000F501ED53FB4D0C940F23E12CF2CF0C2FE7
:1010B0000F70C07F11F00295007F112381F0002393
:1010C00049F080E28D0F883010F0D11105C0802FDB
:1010D000E0D589D68D2F42C0802FECD5FACF8D2F49
:1010E00031DF002361F080E28D0F883010F0D111E4
:1010F00003C0802FD4D502C0802FE2D574D688E0FB
:10110000A81AB10894E0A916B10408F04CC10E94D5
:10111000C91735DECDB7DEB7EAE00C943923FC2FD2
:10112000FF70FF2EC07FC03219F0F29480EFF822DA
:10113000DD2341F0D13081F1112309F438C00023BF
:10114000C9F0C8CF8091B90282FD10C0112341F0CF
:10115000FF2019F08F2D9DD546D680E06DDECFCFD4
:1011600080E0F0DEFF2059F28F2DC4CF112359F01B
:10117000011103C08F2D54DFC2CF013009F0BFCF62
:101180008F2DBAD5BCCF0111BACF8F2D4EDF8F2D49
:10119000BED58F2DA3D5B3CF112321F0023008F097
:1011A000AECFE8CF0111ABCF8F2D3FDFA8CF00230B
:1011B000D9F3D93349F42FEF87EE93E021508040E3
:1011C0009040E1F700C000008D2FBCDE98CF8C2F3F
:1011D00086958695837069F0813009F090CF8D2FC8
:1011E0009C2F9370111102C080E090E00E942F1894
:1011F00086CF8D2F9C2F9370111102C080E090E05C
:101200000E9407187CCF612F8D2F0DDE78CF8C2F99
:10121000837089F5111173CF4D2F42954695477014
:10122000440F440F2D2F2F7030E0042E02C0220FE8
:10123000331F0A94E2F790E080E0D4FF09C08FE00A
:1012400090E002C0880F991F4A95E2F7809590952B
:10125000C695C695C370822B932BC23041F0C33024
:1012600041F0C13011F045D14ACF3CD148CF48D1EF
:1012700046CF36D144CF8695112311F08C2F817043
:10128000882309F43CCF4D2F429546954770440F73
:10129000440F2D2F2F7030E0042E02C0220F331F79
:1012A0000A94E2F790E080E0D4FF09C08FE090E07C
:1012B00002C0880F991F4A95E2F780959095C695D0
:1012C000C695C370822B932BC23041F0C33041F0DE
:1012D000C13011F069D113CF60D111CF6CD10FCFD4
:1012E0001CD10DCFCF70112321F08C2F2AD18D2F3F
:1012F00042CF8D2F9ADE8C2F32D101CFD23F31F1E8
:1013000060F4D03FB9F0D13F81F0112309F43BC024
:101310000111E0CE8C2F8F711DC0D33FE9F0D43F77
:10132000A1F78091B90282FD1FC08C2F8F7111230C
:1013300019F310C0112331F00111E1CE8C2F8F7100
:101340001ED1DDCE023008F0DACEF8CF8C2F8F71AF
:101350001111D2CFF6D0D3CE112321F08C2F8F7163
:10136000E6D0CDCEE1D0CBCE112329F063E08C2F97
:101370008F7146D5C4CE81E05AD5023008F4BFCE75
:1013800082E055D5BCCE002359F0D93309F01CCFEB
:10139000EFEFF7EE23E0E150F0402040E1F712CF0D
:1013A0008C2F8F71A9CFEE2009F4B4CE64D480FDC8
:1013B000B1CEF601158259D4C4D0C60117D055D488
:1013C000CED0A8CE0F931F93CF93DF93EC0168810B
:1013D00079818D81AAD18C01F5D081D0B801CE015F
:1013E00029DEDF91CF911F910F910895CF93DF9365
:1013F000EC018C81882381F0CE0101DC81110FC0CA
:101400003ED4882349F08D81882331F08091B90240
:1014100082FF02C082E00BD5DF91CF910895CE010B
:10142000D1DFCE019DDBF8CF90E080E00E9407186D
:1014300090E080E00E942F184BD4D5D40E9417165C
:101440000C94FF150E943219EFCF31D4FBCF282F17
:1014500092959F70963091F060F4925F9F709230F9
:1014600030F481E0203F81F030F4283E30F080E01D
:1014700008959A5FF3CF243FD1F7089581E0283E85
:10148000E0F3213FA1F7F9CF0895FC01848188237F
:1014900021F0808191813ED1DACF80E00895A6E0ED
:1014A000B0E0E5E5FAE00C9425232696E2E00C9402
:1014B0004123A7E0B0E0EFE5FAE00C94252327965E
:1014C000E2E00C9441230895FECF0895FDCF0895E6
:1014D000FADFFCDF9093DD018093DC01089508952D
:1014E000F7CF08952091DC013091DD01822B932B01
:1014F000EFCF2091DC013091DD0182239323E8CFEF
:101500002091DC013091DD0182279327E1CFDBCFF1
:101510000895FDCF0895D7CF0895FDDFFADF9093AA
:10152000DB018093DA01089590E080E0F6CF21E0BE
:1015300030E0A90102C0440F551F8A95E2F7CA01A5
:10154000ECCF21E030E002C0220F331F8A95E2F792
:101550008091DA019091DB01822B932BDECF21E089
:1015600030E002C0220F331F8A95E2F720953095B4
:101570008091DA019091DB0182239323CECF21E089
:1015800030E002C0220F331F8A95E2F78091DA0122
:101590009091DB0182279327C0CF2091DA0130910F
:1015A000DB01822B932BB9CF2091DA013091DB0143
:1015B00082239323B2CF2091DA013091DB0182277D
:1015C0009327ABCF08959B01677091E001C0990FFD
:1015D0006A95EAF763E0369527956A95E1F7220F59
:1015E000331F220F331FFA01E20FF31F50E040E0D8
:1015F000682F70E08191DF0111979B01042E02C0DA
:10160000369527950A94E2F72170219528272923FA
:1016100028272C934F5F5F4F4430510559F70895A9
:101620009C01982F977083E0369527958A95E1F76E
:10163000220F331F220F331FFB01E20FF31F50E075
:1016400040E080E0219130E0092E02C036952795D8
:101650000A94E2F721703327042E01C0220F0A9466
:10166000EAF7822B4F5F5F4F4430510559F70895D9
:10167000282F862F9E3060F4263050F4622F70E0C1
:1016800026E0929F600D711D11244EEA51E09BCF20
:101690000895292F9E3058F4863048F490E06EEA81
:1016A00071E036E0239F800D911D1124B9CF80E0B9
:1016B0000895B0E0A0E0EFE5FBE00C941E238C0160
:1016C000E090DA01F090DB018091DC019091DD0186
:1016D000E82AF92ACFE0D0E0CC24C394D12CBC2E48
:1016E000C6010C2E02C0880F991F0A94E2F78E21C2
:1016F0009F21892B49F4219790F7B12C8B2DCDB7E1
:10170000DEB7E9E00C943A23B8018C2FE7D50197B6
:1017100091F3F4CFCF93DF93D82FC92FCADF6D2F6A
:101720007C2FDCD5DF91CF9108951F93CF93DF936A
:10173000162FD72F9091AD01992339F0862F972F2F
:10174000E9DFDF91CF911F910895882369F0862FFB
:10175000972FAFDFC82F682F812F9D2F89DF612F33
:101760007D2F8C2FBBD5EDCF862F972F92DFC82FE3
:10177000F6CF1F93CF93DF93E091DE0117E08091C6
:10178000DF018E1304C0DF91CF911F910895CE2FFA
:10179000D0E01E9FF0011124E052FE4F20813181E4
:1017A0004281538164817581868183DEFE01319699
:1017B000E770E5CF209118023091190240911A028A
:1017C00050911B0260911C0270911D0280911E02BB
:1017D00070CECF93DF9380911E02807F09F04BC0C3
:1017E00080911D02882309F446C0E091DE015091EA
:1017F000DF01C0911902D091180260911A02709114
:101800001B0247E05E17B9F18E2F90E0E49FF001D4
:101810001124E052FE4F2481222381F1489FF001E0
:10182000499FF00D1124DF01A052BE4F11962C915B
:1018300011972C1323C02C912D1320C015962C9199
:10184000159721111BC012962D913C91261B370B29
:10185000283C310598F480911E028F70806180933E
:101860001E02EA51FE4F80818F708061808388E183
:1018700092E0BCDD7EDFDF91CF910895FC013196CF
:10188000E770C0CF982FE091DE014091DF0157E073
:10189000E41302C080E008952E2F30E05E9FF00137
:1018A0001124E052FE4F8181681306C08081981395
:1018B00003C085818111EFCFF9013196E770E8CF40
:1018C000ADE0B0E0E6E6FCE00C941B238C0186E082
:1018D000F801DE01189601900D928A95E1F7F80162
:1018E0008481E58098E1A92E92E0B92E90911C02A6
:1018F00091111AC08823A9F0EE2089F0C801C5DD36
:10190000F82E882361F087E0F801D50101900D924F
:101910008A95E1F7C5017FDA5CDF4CDF59C0C80169
:1019200065DDFF24F39454C0C080D1808280938011
:10193000F0901D0220911A0230911B02A401421B5B
:10194000530BFF2009F4CCC0483C510508F09CC063
:10195000882309F43DC09091190280911E02282F1E
:10196000207F09F056C0D91214C090911802C912F4
:1019700010C0E11048C08F70806180931E021ADF92
:1019800088E192E033DD80911E02F8018683F12C1C
:101990001FC0E11038C06D2D8C2D74DF6D2D8C2D86
:1019A00071DFE82E8111F3CFC886D98688859985A5
:1019B000B1DE292F22952F70903478F49F70223059
:1019C000A0F09923B1F0F8019681907F91F4FE2C5C
:1019D0008F2D2D96ECE00C9437232A5F2F70223048
:1019E00060F0C80103DDEF2CF2CF992311F08823BA
:1019F00071F3805E883058F3F4CF803F40F3815F0D
:101A0000833028F3EECF80911E02816080931E0206
:101A1000BECFD91212C090911802C9120EC0E110A7
:101A20000CC08683C801E2DC87E0F801A8E1B2E0DF
:101A300001900D928A95E1F770CFC80126DD8823C9
:101A400009F46DCFEE2009F46ACF80911E02803236
:101A500080F020911802309119023A8329839C82E8
:101A60008B8290911C029D831E828F83CE010196F2
:101A7000BDDC87E0F801A8E1B2E001900D928A9503
:101A8000E1F7A7DE97DE4DCF90911E02292F207F30
:101A900089F4682D9B868A86A6017B859E2DFFDCB6
:101AA00088E192E0A3DC87E0F50111928A95E9F7DD
:101AB00081DE6DCF882309F48BCF809119028D11BF
:101AC000BCCF80911802C812B8CFE110B6CF968370
:101AD000C8018CDC87E0F50111928A95E9F778CF8F
:101AE000483C5105A8F5882309F41BCFFE2CEE20B5
:101AF00009F415CF809119028D111EC08091180232
:101B0000C8121AC080911E0280FD0DC0982F907FD0
:101B100051F08683903F09F485CF982F907F905F96
:101B20008F70892B7ECF87E0F801A8E1B2E00190A9
:101B30000D928A95E1F74CCFC801A7DC811199CFAE
:101B400080911E02816080931E02C8014FDC40CF4D
:101B5000682D9B868A86A6017B859E2DA0DC87E06A
:101B6000F50111928A95E9F7D8CEAEE0B0E0EBEB43
:101B7000FDE00C942423288739874A875B876C878C
:101B80007D878E87CE0108969BDE8823A9F06C8521
:101B9000662339F0288539854A855B857D858E8564
:101BA00088DC17E08091DE019091DF0189133CC051
:101BB0002E96E3E00C94402387E0FE013896DE0188
:101BC000119601900D928A95E1F74C85442349F3D3
:101BD0002091DF0130E0C90101968770992750916B
:101BE000DE015817190699F04D8397E0929FD001B6
:101BF000939FB00D1124A052BE4FFE01319601906B
:101C00000D929A95E1F78093DF01B3DDCACF1DDC19
:101C10001092DF011092DE0187E0E8E1F2E0DF01DF
:101C20001D928A95E9F7BDCF819FC0011124805292
:101C30009E4F46DE882309F4BBCFE091DE011E9F54
:101C4000F0011124E052FE4F208131814281538105
:101C50006481758186812DDC8091DE0190E00196A2
:101C6000877099278093DE019DCF809147028695EA
:101C70008695869508958091470287700895909182
:101C80004702977081E009F480E008958091730223
:101C9000089590917302982B909373020895982F52
:101CA0009095809173028923809373020895109216
:101CB0007302089590917202982B90937202089586
:101CC000982F9095809172028923809372020895D3
:101CD0001092720208950895FECF089590914802DF
:101CE000292F282329F08095892380934802F4CF57
:101CF00008950895FECF089590914902292F282331
:101D0000281721F0982B90934902F4CF08959091D1
:101D10004902292F282329F080958923809349029D
:101D2000E9CF089580914902882321F01092490259
:101D300080E0E0CF0895CF93C0917302809172024A
:101D4000C82B80914902882329F0C82B0E9457187C
:101D50008111E8DF8C2FCF910895CF93DF93C0914D
:101D60000A01D0910B01E7DF8883C0910A01D0916D
:101D70000B0148E050E06FE372E0CE010E94742452
:101D8000892B59F088E0FE01AFE3B2E001900D929B
:101D90008A95E1F7CE010E94DA17DF91CF9108957D
:101DA000CF93DF93C0910801D0910901C4DF8983EB
:101DB000C0910801D091090140E250E06FE172E06A
:101DC000CE010E947424892B59F080E2FE01AFE11C
:101DD000B2E001900D928A95E1F7CE010E94E717DB
:101DE000DF91CF9108950E94C217882329F0809136
:101DF000B80287FF01C0D4CFB0CF0895FECF0895B9
:101E00009091B90292FF0EC098E0899F9001112431
:101E1000622B6093470295DB8091470286958695F9
:101E20008695ECCF8ECB1092470280E0E7CF909161
:101E300047028095892380934702282F277059F401
:101E4000891749F09091B90292FF05C08695869551
:101E5000869585DBE8CF08959091B90292FB222701
:101E600020F9281749F080FB92F99093B90288EB8A
:101E700092E042D082E0DBCF08958091B90282FBEC
:101E8000882780F991E08927E7CF81E0E5CF80E0DE
:101E9000E3CF60E070E0CB0179C3A3E0B0E0E3E51D
:101EA000FFE00C94252321D32CD31B82CE01039673
:101EB0003FD381E090E09093DD018093DC0144D337
:101EC0001A8219828A8184618A83CE0101964DD358
:101ED0000E9459042396E2E00C944123DECF08953A
:101EE00016C3089503C3089518C3089527C308951A
:101EF0002BC308952EC3089538C308953DC3089594
:101F00003FC3089549C30895A6E0B0E0EAE8FFE0C2
:101F10000C9423230E94A21A8C0180917402909148
:101F200075028017910781F019821A820E94A21A05
:101F3000682F49815A81792F80E090E00E94DE0667
:101F400010937502009374022696E4E00C943F23EC
:101F50000E94AE1A609388027093890280938A026D
:101F600090938B0260938402709385028093860223
:101F700090938702089508950895FDCF08950895D8
:101F8000FEDFFBCF0895FECF08950895FEDFFBCF5F
:101F900081E692E1E4D3F0DFF3CF81E00895FDCF55
:101FA0000895FBCF0895089508950895FCDFFCDFA0
:101FB000FCCF98DF811101C091DF8CE892E094DFC3
:101FC00088EB92E097DF92DF8BDA8091DA019091D3
:101FD000DB019FCA0E94991AEBD2EBDF0E94BE067A
:101FE000D5CFA6E0B0E0E7EFFFE00C941C23D7DFED
:101FF000811108C089DF3CD60E94C6062696EBE018
:102000000C943823E5D286E7A82E82E0B82E75011D
:1020100010E0F70101917F01812FC3D21F5F1E30B5
:1020200009F43DC00817A9F380918C0281FDBFD24D
:10203000B8DFC82E00E099249394802FB2D2182FD5
:10204000F50191915F01891729F1D82ED926F12C3C
:10205000EE24E3948D2D8E21A9F0CC2099F0F98205
:102060000A830E94A21A9C838B839D8291E0812F18
:102070008E2109F490E049815A816B817C818D81A8
:102080000E94DE06F394EE0CF6E0FF12E3CFF501BA
:10209000319710830F5F0E3081F65ADFACCF0813F3
:1020A000C3CFA8CF1F93CF93DF931AD1EC01811533
:1020B000924508F05CC0C11580E5D80708F0D9C08A
:1020C000C03ED10538F5CD3CD10508F0ABC0C83ACB
:1020D000D10580F4C53AD10508F0A1C0C130D105C1
:1020E00009F440C0CE010497813A9105D8F1D0E0BF
:1020F000C0E038C0CE01885A91094B97C0F7C85A42
:10210000D0E0CC0FDD1FC95ADE4F0990D881C02D19
:10211000D46428C0C11590E4D907E0F4C11520E2C9
:10212000D20708F0C0C0C83ED105E0F0CE019A95B4
:1021300081159F41E0F68D2F75D1182FCE0199277B
:10214000CFD0C12FD0E0DC2FCC27CC27DF71C82B1C
:10215000D92B08C0CE019927C3D0CC27DF70C82B5C
:10216000D92BD06ACE01DF91CF911F910895C0384D
:1021700082E5D807B8F5C03692E5D90708F05BC00C
:10218000C03422E5D207C8F4C03282E5D80708F08F
:102190004BC02C2F2695269590E2299F9001112463
:1021A0008C2F8370C1E0D0E002C0CC0FDD1F8A9578
:1021B000E2F7C22BD32BDD68D5CF2C2F26952695A1
:1021C000277080E2289F900111248C2F8370C1E03A
:1021D000D0E002C0CC0FDD1F8A95E2F7C22BD32BD3
:1021E000DC68C0CFC03C92E5D90760F48C2F8F71BA
:1021F000C03AD245A8F5C82FD0E0DC2FCC27C46F59
:10220000D06AB0CFCE01805C9245809708F06FCF46
:10221000DC2FCC27CC27DF71C06FD06AA3CFA49767
:10222000D064A0CFD0659ECFCF71D0E0DC2FCC277B
:10223000C16FD06A97CF2C2F26952695277080E204
:10224000289F900111248C2F8370C1E0D0E002C040
:10225000CC0FDD1F8A95E2F7C22BD32BDA6882CF31
:10226000E1D0C82FD0E0DC2FCC27CC27DF71D062A3
:1022700079CF8C2F8F71D6D055E0D695C7955A95CA
:10228000E1F7CF70D0E0DC2FCC27282F30E084FF9F
:1022900006C044E0220F331F4A95E1F73327C22BD3
:1022A000D32BD0695FCF8D2F8F71BCD0182FCE016B
:1022B000992716D0C12FD0E0DC2FCC27CC27DF7197
:1022C000C82BD92BD4CF462F672F7E3020F4463031
:1022D00010F40C94510580E090E00895F4DFE2CE14
:1022E000803E9105C1F1C8F48133910509F47DC0A8
:1022F00048F48932910509F46DC08A32910509F4D8
:102300007BC0089589339105D1F082389105B9F0E9
:102310008533910509F459C00895843E9105C1F1B2
:1023200038F4823E910521F1833E910531F1089503
:10233000863E9105C1F1873E9105E1F10895209116
:10234000B802237009F065C02091B90223FF14C0C0
:1023500089E290E008952091B80220FD43C03091B9
:10236000B90230FF09C024FF4EC090E080E008951C
:102370002091B80222FDF7CF08952091B80222FDE6
:1023800045C03091B90230FD44C024FFF5CFEDCFF8
:102390002091B90221FFF0CF8091B80284FDE5CFF2
:1023A00087EE90E008952091B80223FFE5CF24FD49
:1023B000DCCFF6CF2091B80223FD2EC03091B902B8
:1023C00031FFE3CF84EE90E008952091B80225FF1D
:1023D000D3CFBECF2091B80225FD21C02091B902F4
:1023E00023FFCACF89E390E0C7CF2091B80226FF30
:1023F000C3CF8AE290E008952091B80226FFBCCFB7
:1024000081E390E0089583EE90E0089582EE90E0FD
:10241000089580EE90E0089586EE90E0089585E3BB
:1024200090E008959091B80292FF10C041E0282FEB
:102430002471243009F040E031E0282F2871283041
:1024400009F030E0431711F02CE0822793FF10C011
:1024500041E0282F2471243109F040E031E0282F99
:102460002871283109F030E0431711F02CE0822761
:102470003091B90230FF10C051E0282F2171213076
:1024800009F050E041E0282F2871283009F040E0A1
:10249000541711F029E0822731FF10C041E0282FA6
:1024A0002171213109F040E031E0282F28712831D5
:1024B00009F030E0431711F029E0822794FD877E70
:1024C000089580E00895CF939C01FB01805E9245C2
:1024D000C1E0809738F4C581C11104C0822F8F718B
:1024E0000E94CF058C2FCF910895089590E080E051
:1024F0000E948E249C0181E0233E3E4F09F080E043
:10250000089563EE7EEF90E080E00C94AD246FEFD1
:102510007FEF90E080E00C94AD24CF93DF93EC014B
:1025200082E090E00E9481248883DF91CF9108951A
:10253000FC01608182E090E00C94932483E090E0C1
:102540000E94812490E00895682F83E090E00C942D
:102550009324CF93DF93EC0184E090E00E948E24DB
:1025600099838883DF91CF910895FC016081718107
:1025700084E090E00C94AD248FE090E00C948924EA
:10258000AB01BC018FE090E00C94A524AB01BC0131
:1025900083E190E00C94A524682F8EE090E00C94E9
:1025A0009324E82FF0E0E853FD4F808108950895CB
:1025B0000E942903EAEBF2E0A8ECB2E011921D922E
:1025C00082E0E83CF807D1F78EE014D00C94ED03DC
:1025D000CF938AEB92E00E943103282F4EE068EC03
:1025E00072E08AEB92E019D0C82F0E947D048C2FF4
:1025F000CF910895CF93C82F90E00E944C238093F1
:10260000910290939202282FFC018E2F821B8C172F
:1026100010F0CF9108951192F8CFB0E0A0E0E3E17F
:10262000F3E10C942023082FF92EE62ED72E142F39
:10263000C22F10928D02D0918E02DD2309F451C079
:1026400081D79C0180918F0290919002F901E81B43
:10265000F90B3093900220938F02EF3FF10509F0C0
:10266000D0F43097A1F03E2F10928E021092930278
:1026700040919102E42FF091920280E090E02E2FA1
:10268000241B211758F090938E0280939302C1115E
:1026900035C0CD2F28C0EFEFF0E0E5CF2081222319
:1026A00021F0321720F010828D2F3196E8CF231BB6
:1026B00020839D2FFACF89914C91481779F0408162
:1026C00041110CC060839C919827422F50E0492B08
:1026D00021E0452B09F420E08C9391E0319611968E
:1026E0001DC0211106C0809193028823F9F0C11109
:1026F00005C028D79093900280938F021092930286
:102700003091910220918D0290918E02AE2DBD2DBF
:10271000C02FDF2DE32FF09192026EE18E2F831BED
:10272000811748F220938D0290938E0280918D0242
:10273000CDB7DEB7E7E00C943C2353CC08959CD68C
:102740000E94D71D25DC0E94EF1D44DC0E94F81D6D
:102750000E94FB1DF2DF0E94111E28DCF9CF90932E
:102760009D0180939C010895CF93DF93EB01863107
:102770009C47F1F48BDA9D81992389F08A7A91E064
:1027800009F490E090939402811107C089E23CD54E
:102790002ADB80E0DF91CF91089585E3F8CF809127
:1027A0009402811103C089E246D5F2CF85E3FCCFC4
:1027B00081E0F0CFCF93DF93EC01FB01858188238B
:1027C00009F4CBC09E0130572332310508F0ABC06D
:1027D00088EB92E08FDBFE01E150F047E232F10539
:1027E00020F4E153FB4D0C940F238091B8028160DB
:1027F0008093B80292C08091B90288608093B90238
:102800008CC08091B8028260F3CF8091B80284605E
:10281000EFCF8091B8028860EBCF8091B9028160E0
:10282000EDCF8091B9028260E9CF8091B8028061DA
:10283000DFCF8091B8028062DBCF8091B8028064E4
:10284000D7CF0E94250A8091B8028068D1CF8091AD
:10285000B8028C60CDCF8091B9028360CFCF8091D8
:10286000B8028E7FC5CF8091B902877FC7CF809194
:10287000B8028D7FBDCF8091B8028B7FB9CF809198
:10288000B802877FB5CF8091B9028E7FB7CF809194
:10289000B9028D7FB3CF8091B8028F7EA9CF80918E
:1028A000B8028F7DA5CF8091B8028F7BA1CF0E9407
:1028B000250A8091B8028F779BCF8091B802837FE1
:1028C00097CF8091B9028C7F99CF8091B80282FB1B
:1028D000992790F921E0922790FB82F990FB83F9E8
:1028E00087CF8091B902982F909591708E7F892B18
:1028F00090FB81F983CF9091B802892F8F7B96FF4F
:10290000806476CF0E94250A9091B802892F97FBA8
:1029100087F980586DCF81E0F5DA88EB92E0ECDA48
:102920000E94250A80E0DF91CF91089580E0F4CFE6
:102930009091B802892F8F7E94FF806159CF90913A
:10294000B802892F8E7F90FF816052CF9091B9029B
:10295000892F877F93FF886051CF81E0E4CF282FB4
:1029600035EB2303C001112497FF04C0805891095F
:10297000892F089580589F4FFBCF80919C0280FF44
:102980000DC06091110170E0660F771F603871050E
:1029900070F56115710569F1862F089581FF07C0F3
:1029A0006091110184E0689FB0011124EFCF609124
:1029B000110182FD0AC080919B028823A9F0209119
:1029C000100160911101821710F088E0ECCF869F12
:1029D000C001112433E0880F991F3A95E1F7622F67
:1029E00070E00E94FC22D2CF68E070E0D5CF8FE784
:1029F000089581E0089580919C0280FF0CC0609151
:102A00000D0170E075956795759567956115710570
:102A100049F1862F089581FF06C060910D0170E095
:102A200075956795F3CF60910D0182FD0BC0909174
:102A30009A029923A1F060910C0180910D019617E3
:102A400038F0682F70E06038710500F38FE7089563
:102A5000899FC001112470E00E94FC22F4CF61E044
:102A600070E0D7CF81E008958D3C29F486DF819511
:102A700080939F0208958E3C11F47FDFF9CF8F3C45
:102A800029F47BDF819580939E020895803D11F4A7
:102A900074DFF9CF893D21F4AEDF8093A002089561
:102AA0008A3D19F4A8DF8195F8CF8B3D29F4A3DF87
:102AB00081958093A10208958C3D11F49CDFF9CF9C
:102AC0009FE2980F983070F4815D990B21E030E01F
:102AD00001C0220F8A95EAF780919D02822B809394
:102AE0009D0208958D3D31F480919C028160809318
:102AF0009C0208958E3D21F480919C028260F7CF64
:102B00008F3DB9F780919C028460F1CF40919E0285
:102B10008D3C59F480919F0287FF0DC010929F0257
:102B200041110BC010929B0208C08E3C81F4809131
:102B30009F0218169CF3442381F08091A00290918B
:102B4000A102892B09F05AC010929A0208958F3C75
:102B500049F447FFF0CF10929E0280919F028111AD
:102B6000ECCFE0CF803D19F41416ACF3E4CF909194
:102B7000A002893D29F41916F4F61092A002DBCFC9
:102B80008A3D19F497FFD7CFF8CF9091A1028B3DE2
:102B900029F497FFD0CF1092A102CDCF8C3D19F42C
:102BA0001916CCF3C8CF9FE2980F983090F4815D4E
:102BB000990B21E030E0B90102C0660F771F8A95BA
:102BC000E2F7CB01809590919D02892380939D022D
:102BD000B2CF8D3D31F480919C028E7F80939C0218
:102BE000AACF8E3D21F480919C028D7FF7CF8F3D3F
:102BF00009F0A1CF80919C028B7FF0CF0895A2D4E1
:102C000020919E0230919F02232B21F08093980205
:102C1000909399022091A0023091A102232B21F0E0
:102C200080939602909397028DE992E0E3C185E04C
:102C3000EDE9F2E0DF011D928A95E9F710929B021F
:102C400010929A0210929C020895FC0181818111D8
:102C50000DC0828181110AC08381811107C081E08A
:102C60009481911101C080E08170089581E0FCCFD2
:102C7000A5E0B0E0EEE3F6E10C94242385E0EDE975
:102C8000F2E0DE01119601900D928A95E1F7109223
:102C90009E0210929F021092A0021092A1028A81BD
:102CA0009B81892B81F08091980290919902DBD3CE
:102CB0009C0180919B028823A9F1909112019217A7
:102CC000130608F43CC08C819D81892B89F080918A
:102CD000960290919702C7D39C0180919A02882313
:102CE00009F463C090910E019217130608F46BC0AB
:102CF000BE016F5F7F4F8DE992E0CDD2811104C09C
:102D00008DE992E0A2DF81117ADF85E0FE01319644
:102D1000ADE9B2E001900D928A95E1F72596E3E0E6
:102D20000C944023409195029AE0499FA001112400
:102D30004217530740F68F5F80939B0202C08F3F7C
:102D4000D1F71A81112351F018DE9FEF11160CF400
:102D500091E0899F802D112480939E021B81112375
:102D600051F00BDE9FEF11160CF491E0899F802D3E
:102D7000112480939F0280919E02882309F4A3CF9F
:102D800010919F02112309F49ECFE9DD882349F0B9
:102D900080939E02812FE3DD882329F080939F0298
:102DA00092CF81E0F5CF81E0F9CF40910F019AE019
:102DB000499FA00111244217530708F099CF8F5F54
:102DC00080939A0202C08F3FD1F71C81112351F0EA
:102DD00012DE9FEF11160CF491E0899F802D1124D3
:102DE0008093A0021D81112351F005DE9FEF111683
:102DF0000CF491E0899F802D11248093A102809191
:102E0000A002882309F474CF1091A102112309F4C0
:102E10006FCFA5DD882349F08093A002812F9FDD2D
:102E2000882329F08093A10263CF81E0F5CF81E070
:102E3000F9CF0F931F93CF93DF93C42FD22FFC01B1
:102E400085818823C1F04093A4027CD39093A30290
:102E50008093A20280E28C0F883040F4C77081E03A
:102E600001C0880FCA95EAF70E941008DF91CF9140
:102E70001F910F9108951091A402141331C08091F5
:102E8000A2029091A302EFD2883C910548F5C0E2DE
:102E9000CD0F1D17B9F080E2810F883040F4177014
:102EA00081E001C0880F1A95EAF70E941508C83022
:102EB00048F481E09D2F977001C0880F9A95EAF73A
:102EC0000E941008802F0E940908C83078F6D77039
:102ED00081E001C0880FDA95EAF70E941508C6CF95
:102EE00080E28C0F883010F6C77081E001C0880F37
:102EF000CA95EAF7F2CF0F93FC01CB01E851FC47EA
:102F0000E730F10588F5EF50FB4D0C940F2306E2F6
:102F100021EE41EE6AE17CE78CDF80E00F910895BD
:102F200007E225EE45EE6BE17CE7F6CF06E221EE07
:102F300040EE68E17CE7F0CF07E225EE44EE69E180
:102F40007CE7EACF06E221EE42EE6CE17CE7E4CFDB
:102F500007E225EE46EE6DE17CE7DECF08E221E0F8
:102F600045EE6EE17CE7D8CFFB018581882319F01F
:102F70001092A402D3CF81E0D1CF9093AA02809384
:102F8000A902089521D2982F81E0913009F080E0C4
:102F90000895E091A902F091AA02309739F00190CA
:102FA000F081E02D309711F00995089580E00895A3
:102FB000F0CF0895E091A902F091AA02309731F084
:102FC0000280F381E02D309709F009950895DC0126
:102FD000E091A902F091AA02309759F0848195817D
:102FE000892B39F086E08C930480F581E02DCD01AA
:102FF00009950895E091A902F091AA02309731F065
:103000000680F781E02D309709F009950895A3E037
:10301000B0E0EDE0F8E10C9425239C018091A7023B
:103020009091A80282179307B1F03093A8022093E1
:10303000A702E091A902F091AA02309761F0008402
:10304000F185E02D309739F083E089833B832A8333
:10305000CE01019609952396E2E00C944123A3E06A
:10306000B0E0E5E3F8E10C9425239C018091A502F2
:103070009091A60282179307B1F03093A602209395
:10308000A502E091A902F091AA02309761F00084B4
:10309000F185E02D309739F084E089833B832A83E2
:1030A000CE01019609952396E2E00C944123CF933B
:1030B000DF93C0910A01D0910B01229663DF882330
:1030C00081F08091B80287FF0CC0C0910801D091B7
:1030D000090122969EE180E0915028F4DF91CF9182
:1030E000089596E0F8CF29912223B1F38F5FF4CFB2
:1030F000CF93C82F882319F145DF882319F18091D8
:10310000B80287FF1FC0EC2FE695E695E695C03F15
:10311000B0F48091080190910901E80FF92FF11D99
:10312000228130E0C77081E090E002C0880F991FD3
:10313000CA95E2F72823392381E0232B09F480E0A4
:10314000CF91089580910A0190910B01FC01329674
:10315000089621912C1721F0E817F907D1F7EFCF46
:1031600081E0EECF9C01FC0132968FEF90E041911F
:10317000461751F08F3F19F4411101C0892F9F5F0D
:103180009630A9F78F3F09F40895280F311D87FD68
:103190003A95F901628308959C01FC013296285FFB
:1031A0003F4F8191861303C0DF0111971C92E217F4
:1031B000F307B9F70895E62FE695E695E695603FA3
:1031C00068F4E80FF92FF11D677021E030E001C0CD
:1031D000220F6A95EAF78281822B82830895E62F77
:1031E000E695E695E695603F70F4E80FF92FF11D3E
:1031F000677081E090E001C0880F6A95EAF78095DA
:103200009281892382830895CF93C82FBBDE6C2FD0
:10321000882359F08091B80287FF07C08091080188
:1032200090910901C8DFCF91089580910A01909192
:103230000B0198DFF8CFCF93C82FA4DE6C2F882323
:1032400059F08091B80287FF07C0809108019091E2
:103250000901C5DFCF91089580910A0190910B017A
:103260009BDFF8CF8FDE882379F08091B80287FF4B
:103270000BC0E0910801F091090132968EE1DF0167
:103280001D928A95E9F70895E0910A01F0910B01EA
:10329000329686E0F4CFDC01FB019C91808198138B
:1032A00022C011968C911197882319F0918189136E
:1032B0001AC012968C911297882319F09281891363
:1032C00012C014968C911497882319F09481891355
:1032D0000AC013969C91992321F081E02381291340
:1032E00003C080E001C081E0817008950895FECFA1
:1032F0000895A4E0B0E0EFE7F9E10C9425238111F3
:1033000012C081E080931601809113019091140105
:10331000A0911501B0911601BC01CD01E8DF249602
:10332000E2E00C94412382E0EDCFA4E0B0E0EBE9D1
:10333000F9E10C94252383E0809316018091130119
:1033400090911401A0911501B0911601BC01CD011D
:10335000CEDF2496E2E00C944123CBCF0895A4E085
:10336000B0E0E5EBF9E10C94252381E080931601B0
:103370008091130190911401A0911501B091160153
:10338000BC01CD01B4DF2496E2E00C944123E7CFE9
:103390000895A4E0B0E0EFECF9E10C94252391E06E
:1033A000811101C090E090931501809113019091DB
:1033B0001401A0911501B0911601BC01CD0197DF58
:1033C0002496E2E00C944123809115010895A4E035
:1033D000B0E0EDEEF9E10C94252380931401809187
:1033E000130190911401A0911501B0911601BC0137
:1033F000CD017DDF2496E2E00C94412380911401FD
:103400000895A4E0B0E0E7E0FAE10C94252380936E
:1034100013018091130190911401A0911501B091B5
:103420001601BC01CD0163DF2496E2E00C94412338
:1034300080911301089508950895FECF0895089589
:10344000FACF0895CF930E947F03C2D8F8DFC0E07F
:103450008C2FA7D8811105C0CF5FCE30C9F7CF918F
:10346000089581E0FCCFCF93DF93EC016BD08C1BF0
:103470009D0BDF91CF91089585B7806885BF85B793
:10348000806885BF08951F921FB61F9211248F93E5
:103490009F93AF93BF938091AB02811113C0809132
:1034A000D6029091D702A091D802B091D90241964C
:1034B000A11DB11D8093D6029093D702A093D8028C
:1034C000B093D902BF91AF919F918F911F901FBE72
:1034D0001F9018958091DE02843031F10E945B06C6
:1034E0001092AB0288E190E020E40FB6F894A89522
:1034F000809360000FBE2093600083B7817F84605B
:1035000083BF83B7816083BF7894889583B78E7FAC
:1035100083BF0FB6F894A89580916000886180936E
:103520006000109260000FBE08950E94250A0C945E
:103530005F0682E084BD93E095BD9AEF97BD8093CE
:103540006E0008952FB7F8948091D6029091D7021B
:10355000A091D802B091D9022FBF0895A4E0B0E0A5
:10356000E4EBFAE10C9425238FB7F8942091D6026E
:103570003091D7024091D8025091D90229833A83E1
:103580004B835C838FBF69817A818B819C81249678
:10359000E2E00C94412378941F921FB61F921124ED
:1035A0008F939F93AF93BF938091D6029091D70250
:1035B000A091D802B091D9020196A11DB11D8093AE
:1035C000D6029093D702A093D802B093D902BF91AC
:1035D000AF919F918F911F901FBE1F901895F894E7
:1035E00081E08093E00080E28093D800E9ECF0E095
:1035F00010828FE19EE40197F1F700C000001DBA30
:10360000109268001CBC10BE1FBA10927A00109273
:103610006E0010926F001092710010927200108272
:10362000ECEBF0E0108214B817B81AB81DB810BA55
:10363000108215B818B81BB81EB811BA0C94003F08
:10364000089588E19AE00FB6F894A89580936000F9
:103650000FBE90936000FFCFFF920F931F93CF9305
:10366000DF93182FEB011092BC0084EA8093BC001A
:1036700069DF082FF92E8091BC0087FF27C0809159
:10368000B900887F883029F08091B900887F803127
:1036900081F51093BB0084E88093BC0053DF182FA2
:1036A000092F8091BC0087FF1DC02091B900287FA1
:1036B00090E080E0283191F081E090E0203411F436
:1036C00090E080E091958195910908C0802F9F2D11
:1036D000CADEC817D90778F68EEF9FEFCDB7DEB7F1
:1036E000E5E0CCC7812F902FBEDEC817D907C8F6FA
:1036F000F3CF8FEF9FEFF2CF1092B9008CE0809361
:10370000B80008950F931F93CF93DF93EB0180933D
:10371000BB0084E88093BC0015DF182F092F80912F
:10372000BC0087FF11C02091B900287F81E090E0A4
:10373000283211F490E080E0919581959109DF9114
:10374000CF911F910F910895CF3FDC0741F3812F57
:10375000902F89DEC817D90710F78EEF9FEFEFCFB4
:103760000F931F93CF93DF93EC0184EC8093BC0005
:10377000E9DE182F092F8091BC0087FF08C08091D7
:10378000BB0090E0DF91CF911F910F910895CF3F43
:10379000DC0789F3812F902F66DEC817D90758F709
:1037A0008EEF9FEFEFCF0F931F93CF93DF93EC013B
:1037B00084E88093BC00C6DE182F092F8091BC00DE
:1037C00087FF08C08091BB0090E0DF91CF911F91EF
:1037D0000F910895CF3FDC0789F3812F902F43DEAF
:1037E000C817D90758F78EEF9FEFEFCFA3E0B0E0EF
:1037F000EBEFFBE120C77B016A01890181608983CE
:10380000A1DE5C0188248394912C0431110558F0C9
:1038100085E0882E912C0F3F100729F0C80164E144
:1038200070E0D6D64B01B401898116DF8A839B8371
:10383000EA81FB81F7FF08C00F3F1007A1F3C50124
:1038400012DE0817190778F7B12CA12C81E0C81AED
:10385000D108AC14BD0408F5EA81FB81F7FF0DC067
:1038600084E98093BC008A819B811816190614F4A0
:1038700090E080E02396ECE0FAC6C80171DF8A830D
:103880009B83EA81FB81F7FD04C0F701EA0DFB1D74
:1038900080839FEFA91AB90ADCCF8A819B8197FDAB
:1038A000DFCFC80180DF8A839B83EA81FB81F7FD3C
:1038B000D7CFEC0CFD1CF7018083D2CFB0E0A0E0A5
:1038C000E3E6FCE1B6C6682E962E5A01690178013E
:1038D00039DE782E892E01E010E084E1E816F1044B
:1038E00058F005E010E0EFEFEE16FE0629F0C701F4
:1038F00064E170E06DD68B01B801862DADDEEC0180
:1039000097FF1EC0FFEFEF16FF06B1F3872D982D2E
:10391000AADDE816F90680F784E98093BC00CE01A1
:10392000CDB7DEB7EEE0A1C6B701F80181918F01F6
:10393000E9DEEC01C016D10679F3D7FFF5CFECCF65
:10394000B701892DDFDEEC018501CA0CDB1CF2CF4B
:10395000282FCB01BA013091DE023430D9F42F7018
:103960002093E9002FEF3091E800215035FD06C08B
:1039700035ED3A95F1F700002111F5CF2091E800DF
:1039800025FF08C050E040E0C2D18091E8008E776A
:103990008093E8000895BC0143E050E083E0D8CF75
:1039A000BC0145E050E082E0D3CFBC0140E250E0F2
:1039B00083E0CECFCF93DF93D82FC92F05DD48E02A
:1039C00050E06D2F7C2F81E0C3DF88E0ED2FFC2FCE
:1039D000ACEAB2E001900D928A95E1F7DF91CF91C8
:1039E00008958091DD02811107C017D36ED38091B5
:1039F000E20084608093E20008951092DD02089551
:103A0000AEDC81E0C6CC6091DA0281E0611101C0D8
:103A100080E08BCC9091DE0281E0943009F080E070
:103A20006091DA029ACC42E061EC81E072D242E12C
:103A300061EC82E06ED242E261EC83E06AD2909166
:103A4000DE0281E0943009F080E06091DA0251CC2E
:103A50008091E002893081F148F4823009F497C006
:103A6000833009F458C0813041F008958A3009F458
:103A700081C08B3009F469C008958091DF02813ADA
:103A800009F048C08091E800877F8093E80080912A
:103A9000E3029091E402892B59F468E08CEA92E009
:103AA00070E082D18091E8008B778093E8000895E0
:103AB00060E090E080E0F4CF8091DF02813251F548
:103AC0008091E3029091E4028D7F892B19F580911A
:103AD000E800877F8093E8008091E80082FF16C0AD
:103AE0009091F3008091F200029731F48091F100FF
:103AF000813011F0863019F48091F10068DC8091FA
:103B0000E8008B778093E80038D204C08091DE0211
:103B10008111E2CF08958091DF02813AD9F7809137
:103B2000E3029091E402892BA9F78091E800877F56
:103B30008093E8008091E80080FFFCCF45DC809313
:103B4000F1008091E8008E77DDCF8091DF02813235
:103B500009F78091E3029091E402892BD9F68091D4
:103B6000E800877F8093E80008D28091E10211DCB1
:103B70000C94250A8091DF02813261F68091E80081
:103B8000877F8093E800F9D18091E2023ACC80915E
:103B9000DF02813A09F0BECF8091E800877F8093F1
:103BA000E8008091E80080FFFCCF42DCC8CF84B7FA
:103BB000877F84BF0FB6F894A895809160008861D4
:103BC00080936000109260000FBE80E890E00FB616
:103BD000F89480936100909361000FBED8CB1DD202
:103BE00074D2E2EEF0E08081846080837894D6C461
:103BF00087E191E0C2C98091DE02853029F480918D
:103C0000DE02853011F091CC089564DC1BDC882342
:103C1000B1F38091DC02882391F363D00E94250ADE
:103C2000EECF08959A014091E5025091E60200C05E
:103C3000AC01CB01D901252F332723303105D1F039
:103C400070F42130310509F447C02230310569F4A0
:103C500084E590E022E933E02D933C9308952132EE
:103C60003105E9F02232310539F190E080E030E0B1
:103C700020E0F2CFCA019927413059F082309105F6
:103C800059F0EEE8F3E0892B81F7849190E09F01F1
:103C9000E3CFE4E6F3E0F9CFECE4F3E0F6CF8330F2
:103CA000910518F7880F991FFC01EA56FE4F2081F5
:103CB000318189E090E0D0CF83309105B0F6FC01EE
:103CC000EE0FFF1FE057FE4F2081318183579E4F3B
:103CD000FC01808190E0C0CF82E190E026EE33E0ED
:103CE000BBCF80E189BD82E189BD09B400FEFDCF73
:103CF0008091D8008F7D8093D8008091E000826011
:103D00008093E0008091E00081FDFCCF0895AF92A8
:103D1000BF92CF92DF92FF920F931F93CF93DF93C7
:103D20006C01EB018A0148D1F82E811123C00115E5
:103D3000110539F0F80180819181C81BD90BC80E9B
:103D4000D91EB12CA12C2097A9F08091E80085FD07
:103D500021C08091E8008E778093E800011511055D
:103D6000A1F0F80180819181A80EB91EB182A082D4
:103D700085E0F82E8F2DDF91CF911F910F91FF904D
:103D8000DF90CF90BF90AF90089516D18823D9F2DD
:103D9000F82EF0CFF60181916F018093F100219709
:103DA000FFEFAF1ABF0ACFCFFC01CB012091E50294
:103DB0003091E6022617370790F0009729F42091FA
:103DC000E8002E772093E80040E0009751F441117D
:103DD00008C08091E80082FF31C080E00895C901E9
:103DE000F3CF2091DE022223A9F12530A9F1209101
:103DF000E80023FD2DC02091E80022FDEACF2091AC
:103E0000E80020FFE2CF3091F3002091F20000970C
:103E100019F02830310558F041E02830310509F01B
:103E200040E02091E8002E772093E800CECF41912A
:103E30004093F10001972F5F3F4FE9CF8091DE0261
:103E4000882341F0853041F08091E80083FFC1CFA5
:103E500081E0089582E0089583E00895FC01CB019C
:103E60002091E5023091E6022617370790F000977F
:103E700029F42091E8002E772093E80040E0009795
:103E800051F4411108C08091E80082FF32C080E007
:103E90000895C901F3CF2091DE022223B1F125302C
:103EA000B1F12091E80023FD2EC02091E80022FD11
:103EB000EACF2091E80020FFE2CF3091F30020917B
:103EC000F200009719F02830310558F041E0283011
:103ED000310509F040E02091E8002E772093E800BA
:103EE000CECF44914093F100319601972F5F3F4F21
:103EF000E8CF8091DE02882341F0853041F0809147
:103F0000E80083FFC0CF81E0089582E0089583E058
:103F10000895982F973028F08F708093E90081E002
:103F200008959093E900242F762F50E0981731F0F0
:103F30007091EC002091ED005091F00021FD02C045
:103F40009F5FE8CF3091EB003E7F3093EB003091E4
:103F5000ED003D7F3093ED003091EB003160309308
:103F6000EB007093EC002093ED005093F000209153
:103F7000EE0027FDE5CF80E008958091DF0287FF06
:103F800013C08091E80082FF06C08091E8008B7723
:103F90008093E80004C08091DE028111F2CF089581
:103FA0008091DE028823D9F38091E80080FFF8CF6A
:103FB0008091E8008E77ECCF2091E4003091E5000D
:103FC00095E6A9012091EC00822F817020FF06C0A8
:103FD0008091E80080FF06C080E008952091E8000D
:103FE00022FD1AC08091DE02882389F0853089F095
:103FF0008091EB0085FD0FC02091E4003091E50039
:1040000042175307F9F29150E1F684E0089582E0F7
:10401000089583E0089581E0089567D06ED0E0EEC2
:10402000F0E0808181608083E8EDF0E080818F772F
:10403000808319BCA7EDB0E08C918E7F8C9380813A
:104040008F7E80831092DD0208950F931F93CF938C
:10405000DF934BD052D0C8EDD0E088818F77888332
:1040600088818068888388818F7D888319BC1092BD
:10407000DE021092DA021092DC021092DB0200EEF5
:1040800010E0F80180818B7F808388818160888344
:1040900042E060E080E03DDFE1EEF0E080818E7F95
:1040A0008083E2EEF0E0808181608083808188609F
:1040B0008083F80180818E7F8083888180618883FE
:1040C000DF91CF911F910F910895E8EDF0E080818D
:1040D0008F7E8083E7EDF0E080818160808384E0E3
:1040E00082BF81E08093DD02B0CFE8EDF0E0808117
:1040F0008E7F80831092E20008951092DA00109271
:10410000E10008951F920F920FB60F9211242F9382
:104110003F934F935F936F937F938F939F93AF934F
:10412000BF93EF93FF938091E10082FF0AC08091DB
:10413000E20082FF06C08091E1008B7F8093E10066
:104140002CD28091DA0080FF18C08091D80080FFC7
:1041500014C08091DA008E7F8093DA008091D900BC
:1041600080FF8FC080E189BD82E189BD09B400FE76
:10417000FDCF81E08093DE0234DC8091E10080FF9E
:1041800018C08091E20080FF14C08091E2008E7F11
:104190008093E2008091E20080618093E200809150
:1041A000D80080628093D80019BC85E08093DE023D
:1041B0002ADC8091E10084FF28C08091E20084FF26
:1041C00024C080E189BD82E189BD09B400FEFDCF34
:1041D0008091D8008F7D8093D8008091E1008F7E00
:1041E0008093E1008091E2008F7E8093E2008091D5
:1041F000E20081608093E2008091DA02882309F472
:1042000045C084E08093DE0205DC8091E10083FFFD
:1042100027C08091E20083FF23C08091E100877F67
:104220008093E10082E08093DE021092DA028091B6
:10423000E1008E7F8093E1008091E2008E7F809389
:10424000E2008091E20080618093E20042E060E061
:1042500080E05FDE8091F00088608093F000D0DB2A
:10426000FF91EF91BF91AF919F918F917F916F914E
:104270005F914F913F912F910F900FBE0F901F9024
:10428000189519BC1092DE02B8DB77CF8091E3005D
:1042900087FD02C081E0B6CF83E0B4CF1F920F92BA
:1042A0000FB60F9211242F933F934F935F936F9309
:1042B0007F938F939F93AF93BF93CF93DF93EF93AE
:1042C000FF93D091E900DF708091EC00C82FC1709E
:1042D00080FDC0E81092E9008091F000877F809314
:1042E000F00078941ED01092E9008091F000886070
:1042F0008093F000CD2BCF70C093E900FF91EF9138
:10430000DF91CF91BF91AF919F918F917F916F91ED
:104310005F914F913F912F910F900FBE0F901F9083
:104320001895AAE2B0E0E6E9F1E28EC18FED92E0E5
:10433000FC0101962091F100208322E0873E920744
:10434000B9F786DB8091E80083FF16C18091DF0218
:104350009091E0029A3008F00FC1E92FF0E0E850A8
:10436000FB4D5DC1803899F0823809F005C180911C
:10437000E3028F70873008F0FFC08093E9008091DE
:10438000EB0085FB882780F91092E90006C0809138
:10439000DB029091DC02911182609091E800977F9E
:1043A0009093E8008093F1001092F1008091E80072
:1043B0008E77DFC0882309F4CDC0823009F0DCC0DD
:1043C0008091E1028111D0C08091E3028F702FEFC4
:1043D000280F263008F0D0C08093E9002091EB0030
:1043E00020FFC2C0933031F48091EB008062809353
:1043F000EB00BAC09091EB0090619093EB0021E04C
:1044000030E001C0220F8A95EAF72093EA0010926B
:10441000EA008091EB008860EACF8111ADC0109175
:10442000E1021F778091E3008078812B8093E30085
:104430008091E800877F8093E8009FDD8091E8000D
:1044400080FFFCCF8091E30080688093E30082E0EE
:10445000111183E08093DE028FC08058823008F013
:104460008BC08091E1029091E2028C3D23E09207A3
:1044700099F583E08A838AE289834FB7F894DE0155
:10448000139620E03EE051E2E32FF0E05093570016
:10449000E49120FF03C0E295EF703F5FEF708E2F35
:1044A00090E0EA30B8F0C7968D939D932F5F24314A
:1044B00059F74FBF8091E800877F8093E8006AE258
:1044C00070E0CE01019670DC8091E8008B778093DC
:1044D000E80052C0C096E8CF6091E3027091E40218
:1044E000AE014F5F5F4F9EDBBC01892B09F444C0D6
:1044F0008091E800877F8093E80089819A81AEDC13
:10450000E3CF8038C9F58091E800877F8093E80089
:104510008091DA028093F10049CF81112DC09091F2
:10452000E102923048F58091E800877F8093E800AF
:104530009093DA0222DD8091DA02882311F084E080
:1045400005C08091E30087FDFACF81E08093DE0211
:104550006ADA12C08091E102813071F481E0933017
:1045600009F080E08093DC021092E9008091E8007D
:10457000877F8093E80001DD8091E80083FF0AC017
:104580008091E800877F8093E8008091EB00806253
:104590008093EB00AA96E3E073C00895CF938091D7
:1045A000DE02882399F0C091E900CF709091EC0071
:1045B000892F817090FD80E8C82B1092E9008091CE
:1045C000E80083FDAEDECF70C093E900CF9108957F
:1045D000AA1BBB1B51E107C0AA1FBB1FA617B70729
:1045E00010F0A61BB70B881F991F5A95A9F7809545
:1045F0009095BC01CD01089597FB072E16F4009409
:1046000006D077FD08D0E4DF07FC05D03EF4909596
:1046100081959F4F0895709561957F4F0895EE0F96
:10462000FF1F0590F491E02D09942F923F924F9235
:104630005F926F927F928F929F92AF92BF92CF9232
:10464000DF92EF92FF920F931F93CF93DF93CDB73B
:10465000DEB7CA1BDB0B0FB6F894DEBF0FBECDBFB3
:1046600009942A88398848885F846E847D848C8484
:104670009B84AA84B984C884DF80EE80FD800C818D
:104680001B81AA81B981CE0FD11D0FB6F894DEBF70
:104690000FBECDBFED0108950F931F93CF93DF930E
:1046A0009C01029710F422E030E0E091E902F091E1
:1046B000EA0290E080E0B0E0A0E0309791F400974B
:1046C00009F445C0821B930B84309105B8F58A81AB
:1046D0009B816115710569F1FB0193838283FE0162
:1046E00011C0408151810281138142175307F0F0BC
:1046F0004217530799F4109761F012960C93129792
:1047000013961C933296CF01DF91CF911F910F9199
:1047100008950093E9021093EA02F4CF009719F08C
:104720004817590718F4CA01BD01EF01DF01F8016C
:10473000C4CF9093EA028093E902D1CFFE01E80F43
:10474000F91F21933193029799838883DCCF80915D
:10475000E7029091E802892B41F480910201909147
:1047600003019093E8028093E70280910001909109
:104770000101009741F48DB79EB74091040150911B
:104780000501841B950B4091E7025091E802481700
:10479000590708F0B8CF841B950B8217930708F4CC
:1047A000B2CFB9016E5F7F4F8617970708F4ABCF82
:1047B000640F751F7093E8026093E702FA0121937A
:1047C0003193A1CFCF93DF939C010097E9F0FC01D7
:1047D000329713821282C091E902D091EA02DE017F
:1047E00090E080E02097A1F480819181280F391F0B
:1047F0008091E7029091E8028217930709F067C061
:10480000F093E802E093E702DF91CF910895DA0197
:10481000AE17BF0708F041C012964D915C911397F7
:10482000CD014115510599F7DC011396FC93EE93E8
:1048300012974D915D91A40FB51FEA17FB0781F404
:10484000208131812E5F3F4F240F351FDC011196EF
:104850003C932E932281338113963C932E9312978F
:10486000B0E0A0E08A819B810097B1F5FE018191C3
:104870009191E80FF91F8091E7029091E8028E175D
:104880009F0711F6109759F51092EA021092E9026B
:10489000D093E802C093E702B7CFB383A2834081ED
:1048A0005181240F351FA217B30771F44E5F5F4F7C
:1048B0002D913C911197420F531F518340831296C3
:1048C0002D913C9133832283009709F0ADCFF09373
:1048D000EA02E093E90298CFDE01EC01C3CF139620
:1048E0001C921E921297D4CFFB01DC0104C08D9163
:1048F0000190801921F441505040C8F7881B990B52
:104900000895F999FECF92BD81BDF89A992780B597
:104910000895A6E1B0E044E050E025C0A8E1B0E091
:1049200042E050E020C0262FF999FECF92BD81BD14
:10493000F89A019700B4021639F01FBA20BD0FB6DD
:10494000F894FA9AF99A0FBE08950396272FECDF90
:10495000EADF252FE9DF242FE7CF0196272FE4DFB9
:10496000E2CFDC01CB01FC01F999FECF06C0F2BD1C
:10497000E1BDF89A319600B40D9241505040B8F71D
:104980000895F894FFCF570857088F088F08E70855
:1049900003097F087F08070972097E097E092F1421
:1049A0009F143714011405143B1409143F144B14BD
:1049B0001514981419144F141D1453147B14211436
:1049C0005714821427145D1465140D144314111424
:1049D00047142B14611471148B149614FB133314A5
:1049E000A61496179C1787179017A217A817AE172B
:1049F000B221DA21BC22DA21BC220D222D22BC22D6
:044A000081228D2260
:104A04000000EB02200020004A026A023C0714283E
:104A14003C071400000100FE19DA1CD51CD01CCB85
:104A24001CE200E900EA00B500B600B700CD00833F
:104A340001CC008A0192019401210223022402255F
:104A440002260227022A02B300B4006F0070009FFE
:104A540001CB019F02A002E200E900EA00B500B622
:104A640000B700CD008301CC008A0192019401219A
:104A740002230224022502260227022A02B300B4DA
:104A8400006F0070009F01CB019F02A00244476D9C
:0C4A9400AC046504F803A403BD03D603C2
:00000001FF
