:100000000C94DF020C94FC020C94FC020C94FC0295
:100010000C94FC020C94FC020C94FC020C94FC0268
:100020000C94FC020C94FC020C948C290C945F2A16
:100030000C94F71F0C94FC020C94FC020C94FC0230
:100040000C94FC020C94FC020C94FC020C94FC0238
:100050000C94FC020C945F200C94FC020C94FC02A7
:100060000C94FC020C94FC020C94FC020C94FC0218
:100070000C94FC020C94FC020C94FC020C94FC0208
:100080000C94FC020C94FC020C94FC020C94FC02F8
:100090000C94FC020C94FC020C94FC020C94FC02E8
:1000A0000C94FC020C94FC020C94FC020763423694
:1000B000B79BD8A71A39685618AEBAAB558C1D3CF9
:1000C000B7CC5763BD6DEDFD753EF6177231BF00BD
:1000D0000000803F05A84CCDB2D44EB93836A902F5
:1000E0000C50B9918688083CA6AAAA2ABE00000036
:1000F000803F0000F0A129002B00E000E100E200B9
:1001000000001E00140004001D00000001511F002B
:100110001A0016001B003500E3002000080007004D
:100120000600310029622100150009001900340081
:100130000000220017000A00050000000000025322
:100140002C04000000000000000000002C0800004B
:1001500000000000000023001C000B001100000044
:100160000000240018000D0010002D0000002500E4
:100170000C000E0036002E002C61260012000F002D
:1001800037002F00E700270013003300380030004D
:10019000E00035002A002800E500E60000000030FD
:1001A0003A0801000100010000003A0000002F0A97
:1001B0000000000001003B000000300A00000000C9
:1001C00001003C00000045040000000001003D006B
:1001D0000000450A190E005C01003E00000000000E
:1001E000000000000100000000000000000000000E
:1001F00001000000000000000000000001003F00BE
:10020000000050000000000001004000000051000C
:100210000000010001004100000052000000010048
:100220000100420000004F000000010001004300F7
:100230004400450000000100010001000100010030
:1002400001000100000000000000000000000000AC
:10025000000000000000AA000000000001000000F3
:100260000000A9000000000001000000F000A8004C
:10027000000000000100000000000000000000007D
:10028000010000000000000000000000010001006B
:10029000AC0000000000000001000000AB00000006
:1002A000000000000100000000000000000000004D
:1002B00001000000F400F200000000000100000056
:1002C000F000F10000000000B6000000F500F300AF
:1002D000000000000100000000000000000000001D
:1002E000010000000000AE000000000000006801F6
:1002F000F000B40078005A007F3F1F64321464326B
:1003000014783C1E1E140A050000000000010101C3
:1003100001010101010102020202020202020203C2
:100320000303030303030304040404040405050591
:100330000505060606060607070707080808080950
:1003400009090A0A0A0A0B0B0B0C0C0C0D0D0D0EF9
:100350000E0F0F0F10101111111212131314141588
:100360001516161717181819191A1A1B1C1C1D1DFB
:100370001E1F1F202021222223242525262727284F
:10038000292A2B2B2C2D2E2F2F303132333435367A
:10039000363738393A3B3C3D3E3F40414243444684
:1003A0004748494A4B4C4D4F505152535556575858
:1003B0005A5B5C5E5F606263646667696A6C6D6EFF
:1003C000707173747678797B7C7E80818384868873
:1003D0008A8B8D8F91929496989A9B9D9FA1A3A5AD
:1003E000A7A9ABADAFB1B3B5B7B9BBBDBFC1C4C6AB
:1003F000C8CACCCFD1D3D6D8DADCDFE1E4E6E8EB6B
:10040000EDF0F2F5F7FAFCFF0403300000001603EC
:100410004500720067006F0044006F007800200004
:1004200045005A00000016034500720067006F0087
:1004300044006F007800200045005A0000000403CB
:10044000090409026D00040100A0FA09040000017A
:10045000030101000921110100012240000705816B
:100460000308000A09040100010301020009211127
:10047000010001224D000705820308000A09040259
:1004800000010300000009211101000122360007CC
:1004900005830308000A09040300010300000009A2
:1004A00021110100012239000705840320000112F7
:1004B00001100100000008EDFE0713010001020316
:1004C0000105010906A101050719E029E715002525
:1004D0000195087501810205081901290595057521
:1004E0000191029501750391010507190029F7157E
:1004F00000250195F875018102C005010980A1015F
:1005000085021601002603001A81002A8300751057
:1005100095018100C0050C0901A1018503160100A8
:10052000269C021A01002A9C02751095018100C0C8
:1005300005010902A1010901A10005091901290507
:10054000150025019505750181029501750381014D
:100550000501093009311581257F9502750881064D
:1005600009381581257F950175088106050C0A3823
:10057000021581257F950175088106C0C005010916
:1005800006A101050719E029E71500250195087561
:100590000181029501750881010508190129059558
:1005A000057501910295017503910105071900294F
:1005B000FF150026FF00950675088100C000112474
:1005C0001FBECFEFDAE0DEBFCDBF11E0A0E0B1E0AB
:1005D000E8EAFFE502C005900D92AC3DB107D9F7FE
:1005E00023E0ACEDB1E001C01D92AA3BB207E1F7F8
:1005F0000E94B9260C94D22F0C9400001092B900DE
:100600008AE08093B800089594EA9093BC0090919A
:10061000BC0097FFFCCF9091B900987F983021F0F3
:10062000903111F081E008958093BB0084E88093BD
:10063000BC008091BC0087FFFCCF8091B900887F0F
:10064000883111F0803471F780E0089584E9809357
:10065000BC008091BC0084FDFCCF08958093BB005A
:1006600084E88093BC008091BC0087FFFCCF909110
:10067000B900987F81E0983209F480E0089584E819
:100680008093BC008091BC0087FFFCCF8091BB00B1
:10069000089580B38C7080BB81B3836F81BB089554
:1006A00084B1807F84B985B1807F85B98AB1837F29
:1006B0008AB98BB1837F8BB93E9846980895CF93C2
:1006C000C82F873000F580910001811125C080E49A
:1006D0000E94040380930001811112C082E10E94F4
:1006E0002E038093000181110BC081E090E001C0D6
:1006F000880FCA95EAF780950E942E038093000127
:10070000CF910C9426038A30B9F040F4883071F010
:10071000893079F0209A2898CF9108958C3091F003
:1007200070F08D30B9F73E9A4698F6CF219A299805
:10073000F3CF229A2A98F0CF239A2B98EDCF529A92
:100740005B98EACF539AFCCFCF93873010F5C091D6
:100750000001C11127C080E40E94040380930001BE
:10076000811112C083E10E942E0380930001811148
:100770000BC081E40E94040380930001811104C036
:100780000E943F03C82FC0950E9426038C2FCF9153
:1007900008958FB1CFB1C695C695CC738370C82B21
:1007A000C095F4CFC0E0F2CF0C9484050E942405DC
:1007B000809300010E9450030E944903E1E3F2E0AC
:1007C0008DED91E01192DC0126E01D922150E9F7B8
:1007D000069622E0EF33F207A9F70C948E080E94E8
:1007E0002405809300010E9450030E944903E1E325
:1007F000F2E0119282E0EF33F807D9F7089596E01E
:10080000899FF0011124E352FE4F30E020E080E0A8
:1008100041E050E09191992351F0DF0111979150FF
:100820009C932F5F3F4F26303105A1F70895BA0101
:10083000022E01C0660F0A94EAF7862BF2CF96E0EB
:10084000699FB001112430E020E090E045E0FC0118
:10085000022E02C0F595E7950A94E2F7E0FF06C084
:10086000F901E60FF71FE352FE4F40832F5F3F4F22
:100870002630310561F70895EF92FF920F931F9391
:10088000CF93DF9380910001882379F08091DC0180
:100890008F5F8093DC01811108C00E942405809342
:1008A0000001811102C00E94CE0401E312E0C0E009
:1008B0008C2F0E945F0387E0F82EFC0E8F2D0E9484
:1008C0005F038C2F0E94FF03E82E8C2F0E94A4034D
:1008D000F80191918F01DE2DD095D9238E21D82B4F
:1008E0006C2F892F8D270E941F04F8013197D08328
:1008F0008F2D0E94FF03E82E8F2D0E94A403F80184
:100900009681DE2DD095D9238E21D82B6F2D892F5E
:100910008D270E941F04F801D6830E945003CF5FE9
:10092000C73031F60E94900881E0DF91CF911F918E
:100930000F91FF90EF900895E82FF0E0EF5CFD4FEE
:10094000808108950895259A2D9A0895269A2E9AC1
:100950000895279A2F9A089556985E980895259895
:100960002D98089526982E98089527982F980895E1
:100970000E94AC040E94AF040E94B2040C94B5041F
:1009800090E0909389008093880090938B008093EF
:100990008A0090938D0080938C0008950E94B80483
:1009A0008FEF0E94C0040E94A3042FEF80E792E023
:1009B000215080409040E1F700C000000E94A60452
:1009C0002FEF80E792E0215080409040E1F700C097
:1009D00000000E94A9042FEF80E792E021508040A0
:1009E0009040E1F700C000000E94AF042FEF80E7C5
:1009F00092E0215080409040E1F700C000000E944A
:100A0000B2042FEF80E792E0215080409040E1F760
:100A100000C000000E94B5040C94B80489EA8093D9
:100A2000800089E08093810024982C983F988AB1B7
:100A30008F7C8AB96E98479A8BB180638BB9769A0E
:100A40000E94CE040C94830580E280930001809183
:100A50003F0281110EC00E94FE0281E080933F029E
:100A60002FEF83ED90E3215080409040E1F700C0EC
:100A7000000080E40E9404038093000181112EC0D5
:100A80000E942E0380930001811128C00E942E0332
:100A900080930001811122C08FE30E942E03809376
:100AA000000181111BC00E94260380E40E94040300
:100AB00080930001811112C08CE00E942E0380936C
:100AC000000181110BC00E942E038093000181114F
:100AD00005C08FE30E942E03809300010E9426032D
:100AE000809100010895611107C0FC018281882373
:100AF00031F085EE0E94241490E080E0089585EEA8
:100B00000E94FF14F9CF0895CF9360910203709172
:100B1000030380910403909105030E94AB1EC82F2C
:100B20000E94AC040E94AF040E94B2040E94B5046B
:100B3000C13021F0C23029F0CF910895CF910C94AB
:100B4000A304CF910C94A60481E0089581E0089558
:100B50000C94A6050E944D182FEF84E39CE02150D1
:100B600080409040E1F700C000000C948520FF9287
:100B70000F931F93CF93DF938C01FC01C081D18130
:100B800080919102811156C08281882309F44DC061
:100B9000CE010E94881DF82E682FCE010E942C1DC8
:100BA000BE018F2D0E94A608EC01B8010E94A80585
:100BB000882309F411C1B801CE010E94080B8823D3
:100BC00009F40AC1B801CE010E94570B882309F429
:100BD00003C1C23CFCE5DF0709F436C108F064C07C
:100BE000CB3B9CE5D90709F408C1C8F5C531FCE544
:100BF000DF0728F5C2308CE5D80708F09FC1C11582
:100C00009CE5D90709F4E3C0C130DC4509F4EBC029
:100C100081E08093450280934602C801DF91CF9125
:100C20001F910F91FF900C94A405CE010E945C1DB2
:100C3000F82EB6CFCE010E94881DBE01B3CFC531BC
:100C4000FCE5DF0709F44AC2CA3BDC4509F7F801B5
:100C50008281882309F4C0C00E94820FBDC0CE3BB0
:100C60009CE5D90709F4DFC080F4CC3BFCE5DF0745
:100C700009F4CEC0CD3BDC4559F6F80182818823CA
:100C800009F4AAC00E94350EA7C0F8018281C03CB9
:100C9000FCE5DF0709F4D3C008F4CCC0882309F4CD
:100CA0009BC00E94900E98C0C93CECE5DE0709F499
:100CB00018C108F042C0C53C8CE5D80709F4D4C07F
:100CC000F8F4C33CECE5DE0709F4C5C0C43CDC45E0
:100CD00009F09ECFF8018281882309F47DC00E942B
:100CE000050D623071058105910540F00E94050DEA
:100CF000653071058105910508F492C082E0B1C0AC
:100D0000F8018281C73CFCE5DF0709F4D6C008F48E
:100D1000C0C0882309F460C00E94050D65317105CB
:100D20008105910540F00E94050D6731710581052F
:100D3000910508F475C085E194C0CC3CECE5DE0774
:100D400009F4A0C1D0F4CA3C8CE5D80709F4D0C09E
:100D5000CB3CDC4509F05CCFF8018281882309F4A3
:100D600071C1109245020E94292090934202809303
:100D7000410282E00E944E152FC0C03DECE5DE0727
:100D800009F4CCC0C13DFCE5DF0709F4D0C0CD3C7F
:100D9000DC4509F03DCFF8018281811177C1809156
:100DA0004602811199C180914302909144020E94B0
:100DB0003520883C910508F08FC180E20E945515CE
:100DC00088E20E94241488E20E94FF1405C0F80102
:100DD000828181110E94AA0580E0DF91CF911F914D
:100DE0000F91FF900895F80182818823A9F38091E3
:100DF0002F03816080932F03EFCFF8018281882336
:100E000059F30E946F1E827259F00E94450FE4CF81
:100E1000F8018281882301F30E946F1E8272A9F378
:100E20000E943B0FD9CFF80182818823A9F20E944A
:100E30004D0ED2CF882381F20E946C0ECDCF882335
:100E400059F20E947E0EC8CFF8018281882321F2D8
:100E50000E94A80EC1CFF8018281882309F4BCCF7B
:100E600081E00E94C00EB8CFF8018281882309F486
:100E7000B3CF0E94050D663071058105910538F0EC
:100E80000E94050D683071058105910548F286E0E4
:100E9000E8CF882309F4A0CF0E94050D69307105C1
:100EA0008105910540F00E94050D6E3071058105A8
:100EB000910508F4B5CF89E0D4CF882309F48CCF0D
:100EC0000E94050D6F3071058105910540F00E946B
:100ED000050D643171058105910508F4A1CF8FE0FE
:100EE000C0CFF8018281882309F476CF88E1B9CF99
:100EF000F8018281882309F46FCF0E94050D6931C2
:100F000071058105910540F00E94050D6232710561
:100F10008105910508F484CF89E1A3CFF80182818E
:100F2000882309F459CF80E00E94542755CFF80157
:100F30008281882309F450CF82E0F6CFF8018281C4
:100F4000882309F46ACE0E94191F811102C00E94F1
:100F5000F81E0E942C1F90E09093AC038093AB038B
:100F6000FE01E350FC458091AB038160E231F10565
:100F7000C8F4E354F84F0C94842FCF07DB07DF0746
:100F8000E307E707EB07EF07F307F707FB07FF07A1
:100F9000030807080B080F08130817081B0880919F
:100FA000AB0382608093AB038091AB030E94301F40
:100FB0000E944D1811CF8091AB038460F3CF8091D4
:100FC000AB038860EFCF8091AB038061EBCF809162
:100FD000AB038062E7CF8091AB038064E3CF809165
:100FE000AB038068DFCF8091AB038460EACF809150
:100FF000AB038E7FD7CF8091AB038D7FD3CF809112
:10100000AB038B7FCFCF8091AB03877FCBCF80911A
:10101000AB038F7EC7CF8091AB038F7DC3CF809111
:10102000AB038F7BBFCF8091AB038F77BBCF80911A
:10103000AB038B7FEACF9091AB03892F97FB87F9A6
:101040008058B0CF0E946F1E85FF05C081E080935D
:101050004502809346028091450281110FC0809124
:101060004102909142020E943520883C910530F463
:1010700086E20E94241486E20E94FF1482E00E940D
:101080005515AACEF8018281882351F010924602AC
:101090000E942920909344028093430280E26ACE0A
:1010A0000E946F1E81FF05C081E0809345028093FE
:1010B00046028091460281110FC0809143029091B7
:1010C00044020E943520883C910530F487E20E945A
:1010D000241487E20E94FF1480E2D1CF0E946F1E89
:1010E000F8019281992381F08A7A91E009F490E0E5
:1010F00090934002811106C089E20E94F81D0E946F
:101100003C1E6ACE85E3F9CF80914002811104C074
:1011100089E20E94FF1DF3CF85E3FBCF0C940E05FF
:101120000C94D403282F2F7041F0822F90E02A30A6
:1011300010F44D9608950697089587E290E008957B
:1011400008950C94A0080C94A1080895972F70E0BE
:1011500026E0929F600D711D1124FB0194E5899F8B
:10116000E00DF11D1124EE0FFF1FEA50FF4F859196
:1011700094910895FC01EE0FFF1FEE50FF4F8591F3
:1011800094910895CF93DF930E94A6080E945A0A73
:10119000EC018115904408F094C0C11580E3D80794
:1011A00008F005C1C03ED10508F071C0C03CD105B2
:1011B00008F0ECC0C83AD10580F4C53AD10508F072
:1011C000E9C0C130D10509F46EC020F0C430D105AA
:1011D00008F069C0D0E0C0E066C0CD3BD105D0F7D3
:1011E000C83AD10509F427C1C93AD10509F426C185
:1011F000CA3AD10509F425C1CB3AD10509F424C175
:10120000CC3AD10509F423C1CB3BD10509F422C165
:10121000CC3BD10509F421C1CD3AD10509F420C157
:10122000C03BD10509F41FC1CE3AD10509F41EC156
:10123000CF3AD10509F41DC1C13BD10509F41CC148
:10124000C23BD10509F41BC1C33BD10509F41AC146
:10125000C43BD10509F419C1C53BD10509F418C136
:10126000C63BD10509F417C1C73BD10509F416C126
:10127000C83BD10509F415C1C93BD10509F414C116
:10128000CA3BD10509F013C1CAE2D6E40CC0CF3F76
:10129000D10509F060F4C03FD10508F086C0C83E12
:1012A000D10508F097CFCE01DF91CF910895CE01FF
:1012B0009F70C11520E2D207B0F30E94BA08EC017A
:1012C000F2CFC11584E5D807A0F5C11523E5D207F3
:1012D00008F08EC0C11581E5D80708F5C11520E5D5
:1012E000D20708F46EC0CE0154E0969587955A95C2
:1012F000E1F783709C2F937021E030E002C0220F51
:10130000331F9A95E2F73C68382BC695C695C37093
:1013100080E2C89FE0011124C22BD32BC4CFC1159A
:1013200082E5D80708F050C0DC2FCC27C16FD06A07
:10133000BACFC11526E5D20758F49C2F8827C115CE
:10134000D54508F469C0EC01CC27DF71D062ABCF82
:10135000C11588E5D80708F43DCFC11529E5D207A6
:1013600008F45EC0CE0190568115904208F032CF4D
:101370008D2F8F710E94DA0ADD27D06290E0982FBE
:10138000882788279F71C82BD92B8DCFCE01805CF1
:10139000910993CFC53AD10509F447C0C63AD105A2
:1013A00009F446C0C3E8D0E47ECFD0657CCFCE013F
:1013B0009927D3FF03C0EC01D86C75CFEC01D06C3A
:1013C00072CFDF70D06A6FCFCE018370992721E092
:1013D00030E002C0220F331F8A95E2F7C695C6950A
:1013E00080E2C89FE0011124C22BD32BDC685BCFC5
:1013F000CE018370992721E030E002C0220F331F15
:101400008A95E2F7C695C69580E2C89FE00111244F
:10141000C22BD32BDA6847CFEC01C46FD06A43CF1D
:10142000DC2FCC27C06FD06A3ECFC1E8D0E43BCFE1
:10143000C2E8D0E438CFC2EED4E435CFC9EED4E46C
:1014400032CFCAEED4E42FCFC5EBD4E42CCFC6EB19
:10145000D4E429CFC3EBD4E426CFC4EBD4E423CF28
:10146000C7EBD4E420CFCCECD4E41DCFCDECD4E456
:101470001ACFC3E8D5E417CFCAE8D5E414CFC2E940
:10148000D5E411CFC4E9D5E40ECFC1E2D6E40BCF49
:10149000C3E2D6E408CFC4E2D6E405CFC5E2D6E481
:1014A00002CFC6E2D6E4FFCEC7E2D6E4FCCEC0E06F
:1014B000D4E4F9CE8238910549F1B0F48133910535
:1014C00009F45CC048F48932910509F452C08A32AB
:1014D000910509F458C008958533910509F444C075
:1014E0008933910599F00895833E910531F138F4DF
:1014F000803E910591F0823E9105B1F00895863EBF
:10150000910511F1873E910541F108952091AB03BA
:101510002370C9F080EE90E008952091AB0320FF86
:1015200012C089E390E008952091AB0322FF0BC025
:1015300024FF2EC090E080E008952091AB0322FDAF
:101540002AC024FDF7CF08952091AB0323FFFBCFE2
:1015500024FDF0CF87EE90E008952091AB0323FFA8
:10156000F0CF86EE90E008952091AB0325FD16C0E4
:1015700008952091AB0325FD14C008952091AB037D
:1015800026FD12C008952091AB0326FD10C00895DA
:1015900083EE90E0089582EE90E0089589E290E075
:1015A000089585E390E008958AE290E0089581E34C
:1015B00090E0C9CFCF93C82F0E942C1F282F30E076
:1015C0003093AC032093AB0382FF06C09C2F98712D
:1015D000983079F4C77FC46083FF06C09C2F987150
:1015E000983171F4C77EC46184FDC77E8C2FCF9182
:1015F00008959C2F9471943079F7CB7FC860ECCF1D
:101600009C2F9471943181F7CB7EC861EDCF089502
:101610000F931F93CF938C01FB018281811106C030
:10162000C1E08C2FCF911F910F910895C09154026A
:10163000C11125C006311C4599F70E94070B81E0B6
:10164000809354020E942920909353028093520267
:1016500010924702109249021092480210924B02D7
:1016600010924A0210924D0210924C0210924F02B8
:1016700010924E021092510210925002D2CF8091DD
:101680005202909153020E943520883C910540F609
:1016900080914702E82FF0E0EE0FFF1FE85BFD4F5F
:1016A000118300838F5F80934702C0E0BACFCF934E
:1016B000DF93EC01C13080E8D807C8F0FB018281DC
:1016C0008823A9F080915502811109C08CE090E037
:1016D0000E948A2F0E947B0B81E0809355020E941A
:1016E000820BCE019F770E944D0C0E94FF0B81E080
:1016F000DF91CF91089580935602682F8CE090E09F
:101700000C949E2FE0910301F0910401808180935D
:10171000600381FF03C081EE0E94FF14809160038B
:1017200085FF03C085EE0E94FF148091600380FF57
:1017300003C080EE0E94FF148091600384FF03C009
:1017400084EE0E94FF148091600382FF03C082EE4A
:101750000E94FF148091600386FF03C086EE0E9402
:10176000FF148091600383FF03C083EE0E94FF1487
:101770008091600387FF03C087EE0E94FF14809171
:101780005602823049F158F4882379F0813089F08B
:101790008FE39CE90197F1F700C0000008958430C1
:1017A00019F18530A9F786EE01C082EE0E9424145B
:1017B000EFCF80EE0E94241481EE0E94241488E171
:1017C0000E94241488E10E94FF1481EE0E94FF14FD
:1017D00080EE0E94FF14DCCF82EE0E94241487E585
:1017E0000E94241487E5F5CF86EE0E94241486EE2D
:1017F0000E94FF1488E10E94241488E1EACF8091BE
:101800005602813009F443C0E0F18230D1F18530D5
:10181000E1F18091600381FF03C081EE0E942414F6
:101820008091600385FF03C085EE0E94241480919F
:10183000600380FF03C080EE0E9424148091600347
:1018400084FF03C084EE0E9424148091600382FF11
:1018500003C082EE0E9424148091600386FF03C0BF
:1018600086EE0E9424148091600383FF03C083EE00
:101870000E9424148091600387FF0EC087EE0C94B1
:10188000241482EE0E94FF14C4CF86EEFBCF8CE2BC
:101890000E9424148CE2F6CF0895EF92FF921F93DA
:1018A000CF93DF937C01CCE0D0E0C7010C2E02C0C7
:1018B000969587950A94E2F7182F1F70812F0E9442
:1018C00092080E942414812F0E9492080E94FF1403
:1018D0002497CC3F8FEFD80741F7DF91CF911F912D
:1018E000FF90EF900895CF92DF92EF92FF920F93C7
:1018F0001F93CF93DF93E901662309F466C0E42EBA
:10190000F12CEFEFF0E0E61BF109EE9D8001EF9D79
:10191000100DFE9D100D1124212FE12FFF27EE1A2F
:10192000FF0A5CE3C52ED12CB6010E945C2FFB019F
:10193000BC01E69EC001E79E900DF69E900D11241D
:10194000B6010E945C2FE230F10589F168F4812F25
:10195000262F210F309781F0242F461B319761F0FD
:1019600080E020E040E008C0E430F10551F128F1CA
:10197000842F861B3597A1F7E42FF0E0E85FFC4F3A
:101980004491E22FF0E0E85FFC4F9491E82FF0E003
:10199000E85FFC4FE49149839883EA83DF91CF911C
:1019A0001F910F91FF90EF90DF90CF900895862FB9
:1019B000810FE42F412F2E2FDFCFE42FE61B842F42
:1019C000F9CF842F462F410FD7CF842F242FD4CF88
:1019D00088E090E00C94922FAB01BC0188E090E08D
:1019E0000C94B02FE1E6F3E083E080831092620371
:1019F0008FEF828383836091610370916203809192
:101A00006303909164030C94EC0C6091610360FF9C
:101A100006C066956F7370E090E080E0089560E026
:101A200070E0CB01089580916103E9E6F3E080FF67
:101A300006C06FE070E089E693E00C9462121182B8
:101A400010821282349683E0E53AF807C1F7F1CFAD
:101A50009091610390FF0CC0E9E6F3E0818360831D
:101A60004283349693E0E53AF907C1F70C94130DDD
:101A70000895EF92FF920F931F93CF93DF9300D0BF
:101A800000D0CDB7DEB7182FE92EF62E042F8091A7
:101A9000610390916203A0916303B091640380930A
:101AA000650390936603A0936703B09368038091E6
:101AB000610380FF1FC09E012F5F3F4F812F9E2D2E
:101AC0000E94730C8091650310FB87F98093650376
:101AD0001695809166038078812BE0FA87F98093D0
:101AE0006603F0926703009368034B8169818A81E2
:101AF0000E94280D0F900F900F900F90DF91CF91C3
:101B00001F910F91FF90EF9008956F927F928F92A7
:101B10009F92AF92BF92CF92DF92EF92FF920F937C
:101B20001F93CF93DF93EC01662E742E8091610397
:101B300080FF8CC0982F9E77923079F5CE010E945D
:101B4000390D809161039C2FC0FB87F9809361035D
:101B50009695809162038078892BD0FB87F98093DA
:101B600062036092630370926403609161037091F9
:101B700062038091630390916403DF91CF911F9181
:101B80000F91FF90EF90DF90CF90BF90AF909F901C
:101B90008F907F906F900C94EC0CE82FE695EF738C
:101BA0009EE39E0F9F73943018F470906403C9CF26
:101BB0009AE39E0F9F73993070F4881F8827881FBF
:101BC00090916203292F220FC22FC82B97FB9927D0
:101BD00090F9D92FB6CF87E28E0F8F738A3008F035
:101BE000B0CFE951FF0B2FEFE0FF21E0EE7FE25194
:101BF000FD4F859194916FE070E00E945C2F260369
:101C00005001279FB00C11247E0188E9E81A8EEF5D
:101C1000F80A09E613E085EAC82E83E0D82E98E694
:101C2000892E99249394C701B4010E945C2F9801D6
:101C3000472D662D0E94730CEA0CFB1C0C5F1F4F96
:101C4000C016D10681F70E94130D7BCFDF91CF9193
:101C50001F910F91FF90EF90DF90CF90BF90AF90CA
:101C60009F908F907F906F900895E1E6F3E0208140
:101C7000221F2227221F30916203432F440F842FFB
:101C8000822B37FB992790F90C9668E671E00E9449
:101C9000702F438162810C94850D20916103221F76
:101CA0002227221F30916203432F440F842F822B5F
:101CB00037FB992790F98C30910540F4845A9E4F58
:101CC00040916403609163030C94850D0C9768E662
:101CD00071E00E94702FF4CFE1E6F3E08081881F6D
:101CE0008827881F90916203292F220F97FB99273D
:101CF00090F943816FEF822B0C94850DE1E6F3E0C0
:101D00008081881F8827881F90916203292F220FC6
:101D100097FB992790F9438160E0822B0C94850D05
:101D200040916403443F90F4445F80916103881FB5
:101D30008827881F90916203292F220F97FB9927EC
:101D400090F960916303822B0C94850D4FEFEDCFDA
:101D5000409164034C3090F04C5080916103881F97
:101D60008827881F90916203292F220F97FB9927BC
:101D700090F960916303822B0C94850D40E0EDCFC8
:101D80009091610390FF42C09178811126C09260CA
:101D9000909361036091610370916203809163038A
:101DA000909164030E94EC0C80916103982F9E77C0
:101DB0009230D9F410926C02881F8827881F909166
:101DC0006203292F220F97FB992790F94091640312
:101DD00060916303822B0C94850D833210F0946420
:101DE000D7CF8F73880F982BD3CF982F96959F734B
:101DF0002EE3290F2F73273120F491E090936C028A
:101E0000DBCF995D9F739A30B8F6D4CF0895809157
:101E10002F03816080932F0381E080936D020E94E5
:101E2000191F811104C00E94F81E0E94F20C0E942A
:101E3000E80C609361037093620380936303909353
:101E400064036E7761F40E94F20C0E94E80C6093C8
:101E5000610370936203809363039093640381E052
:101E600080936C028091610380FF04C086958F731C
:101E70000C94C00E08958091610386958F738F5FD7
:101E8000833208F081E00C94C00E80916103869546
:101E90008F73815009F482E20C94C00ECF93DF93CC
:101EA000C1E6D3E08881816088836091610370918D
:101EB000620380916303909164030E94EC0C88811B
:101EC00086958F73DF91CF910C94C00EE1E6F3E01D
:101ED00080818E7F80836091610370916203809125
:101EE0006303909164030E94EC0C10926C022FEF3C
:101EF00080E792E0215080409040E1F700C0000070
:101F00000C94130D8091610380FD0C94660F0C946A
:101F10004E0FCF93C82F80916A0290916B020E945E
:101F20003520EC2FF0E0EC5FFC4FE491E817190648
:101F300011F008F042C00E94292090936B02809318
:101F40006A026091690270E090E080E00E945D2D7D
:101F500020E030E04FE753E40E94802C2BED3FE07F
:101F600049E450E40E94862E0E94F32E0E94FA2C2F
:101F70002BE43AE34EE25FE30E94132C20EF3BEFA9
:101F800048ED52E40E94862E0E942C2D462F80910F
:101F90006103881F8827881F90916203292F220FD1
:101FA00097FB992790F960916303822B0E94390D6A
:101FB000809169028F5F80936902CF910895CF93DA
:101FC000C82F80916702909168020E943520EC2F03
:101FD000F0E0EF5FFC4FE491E817190609F0E8F430
:101FE0000E942920909368028093670240916403C5
:101FF0006091630380916502909166020E94390DA1
:102000008091650290916602019668E671E00E94F7
:102010005C2F9093660280936502CF910895CF92D2
:10202000DF92FF920F931F93CF93DF93F82E80914F
:102030006302909164020E943520EF2DE695F0E056
:10204000E250FD4FE491E817190609F0A8F50E9447
:102050002920909364028093630209E613E0D0E0A4
:10206000C0E088E6C82EDD24D3948091610290916F
:1020700062028C0F9D1FB6010E945C2F9801409157
:102080006403609163030E94730C68960C5F1F4F9A
:10209000C83681E0D80749F70E94130D809161028C
:1020A00090916202F0FE10C00196BE010E945C2F6A
:1020B0009093620280936102DF91CF911F910F9103
:1020C000FF90DF90CF9008950197F2CFCF92DF92EB
:1020D000EF92FF920F931F93CF93DF93C82FFF24AC
:1020E000FA9480FD02C0FF24F39480915F029091E6
:1020F00060020E943520C695EC2FF0E0E550FD4FC0
:10210000E491E817190611F008F051C00E94292047
:102110009093600280935F0209E613E0D0E0C0E094
:10212000F80111821082128294E0C92ED12CE12C88
:1021300080915E028E0D87FD815F082E000C990B49
:10214000C817D907E9F4809164038C9DA0018D9D87
:10215000500D1124559547955595479580916103EC
:10216000881F8827881F90916203592F550F97FB6E
:10217000992790F9980160916303852B0E94730C55
:10218000EF0CF1E0CF1AD10899F621960C5F1F4FA2
:10219000CF30D10529F60E94130D80915E0291E0A7
:1021A000F91210C081110CC08EE080935E02DF91A5
:1021B000CF911F910F91FF90EF90DF90CF900895F6
:1021C0008150F3CF90E00196BE010E94702FEDCFB9
:1021D0000F931F93CF93DF93C82F80915C02909150
:1021E0005D020E943520EC2FF0E0E850FD4FE491B5
:1021F000E817190611F008F052C00E9429209093A8
:102200005D0280935C02C9E6D3E0FE011182108278
:102210001282349683E0E53AF807C1F710E000E057
:1022200080915B02082E000C990B08171907E4F146
:1022300080910201082E000C990B80179107A4F1E0
:1022400080916103881F8827881F90916203592F0E
:10225000550F97FB992790F99E0140916403609177
:102260006303852B0E94730C0F5F1F4F24960F3062
:102270001105B1F60E94130D8091010190915B024E
:10228000980F90935B0220910201280F2093020186
:10229000121614F49E301CF0819580930101DF9199
:1022A000CF911F910F910895198218821A82DCCF65
:1022B000EF92FF920F931F93CF93DF938091590278
:1022C00090915A020E943520883E9340C8F10E94A6
:1022D000292090935A0280935902C0915702D091BD
:1022E00058022196C170DD27D0935802C09357023F
:1022F00089E6E82E83E0F82E10E008E7812F869526
:102300008C0F9D2F911D8170992797014091640337
:1023100060916303FC010E9FC0010F9F900D11247B
:102320000E94730C1F5FF4E0EF0EF11C1F3031F7B9
:10233000DF91CF911F910F91FF90EF900C94130DAF
:10234000DF91CF911F910F91FF90EF9008958091B1
:102350006C02882391F190916103892F86958F7388
:102360002EE3280F2F73243018F482500C94890F19
:102370002AE3280F2F73233018F486500C94DF0FB4
:1023800027E3280F2F73263018F489500C940F1070
:1023900021E3280F2F73263018F48F500C94661009
:1023A0002BE2280F2F73233018F485510C94E8107A
:1023B0009E77903311F40C94581108958823B9F046
:1023C0005198599A5098589A95E09A95F1F70000CB
:1023D000509A589895E09A95F1F70000882311F0EB
:1023E000519A599885E08A95F1F700000895519A1D
:1023F0005998E8CF8BB18C7F8BB95098589A5198E7
:10240000599A85E08A95F1F7000008958AB18C7F8A
:102410008AB985E08A95F1F70000519A599885E0CC
:102420008A95F1F70000509A589885E08A95F1F75F
:10243000000008955098589A85E08A95F1F70000B9
:102440005198599A85E08A95F1F700000895CF9345
:10245000DF93D82FC8E08D2F80780E94DE11DD0F2A
:10246000C150C9F780E00E94DE1185E08A95F1F73E
:10247000000085E08A95F1F7000080E0DF91CF91C0
:1024800008953BB1242F209523233BB1432B3FB725
:10249000F894FC01680F791FE617F70711F43FBFA6
:1024A0000895819198E04BB9000000C087FF2BB9D7
:1024B000880F000000C000C000C02BB900C09A9572
:1024C00091F7EACFAF92BF92CF92DF92EF92FF9255
:1024D0000F931F93CF93DF938C01EB01CFB6D09076
:1024E000BC00F8948091BC008B7F8093BC000E945C
:1024F000FA110E94061284E80E942712CC0FDD1FF9
:10250000CC0FDD1F78015E01A00EB11EEA14FB04A2
:10251000A9F40E941A12CFBED092BC00579A40E88C
:10252000BE01C801DF91CF911F910F91FF90EF90F5
:10253000DF90CF90BF90AF900C944112F701819142
:102540007F010E942712E2CF909373028093720260
:102550000895E0917202F0917302309721F001909A
:10256000F081E02D099480E00895E0917202F091ED
:102570007302309721F00280F381E02D09940895D1
:10258000E0917202F0917302309721F00480F5819E
:10259000E02D09940895209170023091710228175E
:1025A000390771F09093710280937002E09172028A
:1025B000F0917302309721F00680F781E02D0994A5
:1025C000089520916E0230916F022817390771F03B
:1025D00090936F0280936E02E0917202F091730209
:1025E000309721F00084F185E02D09940895089535
:1025F0000C94F71281E008950E9420200E94D603D7
:102600000E94B7200C94070FBF92CF92DF92EF92F7
:10261000FF920F931F93CF93DF93CDB7DEB72A9727
:102620000FB6F894DEBF0FBECDBF0E943C040E94DF
:10263000FA12882309F471C085E7C82E82E0D82EEB
:1026400010E000E0B02E802F0E949C04E82EF601DE
:10265000F1906F01F81609F45AC080912F0381FDA3
:102660000E94A20490E080E0FE242F2D30E0482F4D
:10267000B901082E02C0759567950A94E2F760FFCC
:1026800041C08E83BF8281E090E06C0102C0CC0C1F
:10269000DD1C4A95E2F72E2D30E02C213D21232B25
:1026A00009F480E088870E9429208160782F9A872A
:1026B00089874E815F8168858A850E94E613F801CB
:1026C000EB58FD4F80818C2580830E944A220E9416
:1026D000A91290917402891789F10E94A91280931E
:1026E00074022A960FB6F894DEBF0FBECDBFDF91FD
:1026F000CF911F910F91FF90EF90DF90CF90BF90FF
:102700000C94A30801968630910509F0B0CF0F5FB5
:102710001F4F0E30110509F095CF8FEF89838A8303
:102720001B820E9429208160782F9D838C834981A0
:102730005A816B818D810E94E613C7CF2A960FB60E
:10274000F894DEBF0FBECDBFDF91CF911F910F91E7
:10275000FF90EF90DF90CF90BF900895CF93DF93DD
:10276000DC018C91682F70E021E030E001C0220F85
:102770008A95EAF711964C91119750E0EA01CD57EE
:10278000DD4F988112968C9112978823C9F0809121
:1027900092028823C1F086E0849FF001859FF00DAE
:1027A0001124E60FF71FEE0FFF1FEB5EFE4F408177
:1027B00051814D935C93292B2883DF91CF9108950C
:1027C000892F8223E6CF20952923F6CFCF93DF935D
:1027D000CDB7DEB72B970FB6F894DEBF0FBECDBFD7
:1027E000942F4F83252F588769877A878B874A854F
:1027F0005B8581E0452B31F02F3F19F481E09F3F4D
:1028000009F080E080FD04C0CE0107960E94AE135F
:102810001E821D8285E0FE013796DE011196019031
:102820000D928A95E1F749815A816B817C818D8176
:102830009E810E94FF1A2B960FB6F894DEBF0FBE42
:10284000CDBFDF91CF910895CF93C82F882309F48E
:10285000D4C08238C1F40E94A91281FDCEC089E3A0
:102860000E94F81D0E943C1E2FEF81EE94E0215043
:1028700080409040E1F700C0000089E30E94FF1D06
:10288000CF910C943C1E8338A1F40E94A91280FDC4
:10289000B4C083E50E94F81D0E943C1E2FEF81EE1C
:1028A00094E0215080409040E1F700C0000083E5B3
:1028B000E5CF8438A1F40E94A91282FD9EC087E46E
:1028C0000E94F81D0E943C1E2FEF81EE94E02150E3
:1028D00080409040E1F700C0000087E4CFCF8CEF4C
:1028E0008C0F813A48F48C2F0E946024811185C09E
:1028F0008C2F0E94F81DC4CF80E28C0F883048F4E2
:10290000C77081E001C0880FCA95EAF70E94721E65
:10291000B7CF8BE58C0F833068F481E890E0C53A3F
:1029200031F083E890E0C63A11F482E890E0CF916C
:102930000C94CB1288E58C0F853108F05EC082EED6
:1029400090E0C83A09F456C089EE90E0C93A09F41B
:1029500051C08AEE90E0CA3A09F44CC085EB90E091
:10296000CB3A09F447C086EB90E0CC3A09F442C078
:1029700083EB90E0CB3BF1F184EB90E0CC3BD1F1E9
:1029800087EB90E0CD3AB1F18CEC90E0C03B91F157
:102990008DEC90E0CE3A71F183E891E0CF3A51F1BD
:1029A0008AE891E0C13B31F182E991E0C23B11F14B
:1029B00084E991E0C33BF1F081E292E0C43BD1F0C5
:1029C00083E292E0C53BB1F084E292E0C63B91F035
:1029D00085E292E0C73B71F086E292E0C83B51F09D
:1029E00087E292E0C93B31F090E080E0CA3B11F40D
:1029F0008AE292E0CF910C94E112CF91089588235E
:102A000009F44BC0823871F40E94A91281FF45C0BD
:102A100089E30E94F81D0E943C1E89E30E94FF1D6D
:102A20000C943C1E833859F40E94A91280FF35C0D3
:102A300083E50E94F81D0E943C1E83E5EFCF843899
:102A400059F40E94A91282FF28C087E40E94F81D51
:102A50000E943C1E87E4E2CF9CEF980F913AF0F27F
:102A600090E2980F983050F4877091E001C0990F70
:102A70008A95EAF7892F0E94781ED2CF9BE5980F9E
:102A8000933020F490E080E00C94CB12885A85318A
:102A900020F490E080E00C94E1120895882321F066
:102AA0000E94721E0C943C1E0895882321F00E94FF
:102AB000781E0C943C1E08958F929F92AF92BF9205
:102AC000DF92EF92FF920F931F93CF93DF937C01DE
:102AD000D62FC72FFC01058102950F7012811111AD
:102AE0000E94911E0E94351ED82E882371F011235A
:102AF00031F180E28D0F883010F182E00E941F1EBC
:102B00000E94351E91E0D82ED926BC2EB2949FE0AB
:102B1000B922EB2DF0E0E157FA4E0C94842FA11569
:102B2000A115F115F1152C165416C3173316961668
:102B3000331631173117BA1733163316E317D12C62
:102B4000E4CF0C2F0F70C07F11F00295007F11238E
:102B5000A9F0002359F080E28D0F883010F0D111D8
:102B600009C0802F0E94721E0E943C1E8D2F0E9461
:102B7000241414C0802F0E94831EF6CF8D2F0E9434
:102B8000FF14002359F080E28D0F883010F0D1112E
:102B900024C0802F0E94781E0E943C1EDD2009F474
:102BA0002BC20E94121E80FD27C2F70112820E94D2
:102BB0000C1E0E94901CC7010E9408180E940C1E47
:102BC000DF91CF911F910F91FF90EF90DF90BF9019
:102BD000AF909F908F900C94B11C802F0E94891E03
:102BE000DBCFFC2FFF70BF2EC07FC03219F0B29434
:102BF00080EFB822DD2339F0D130F9F0112331F123
:102C0000002329F0B3CF112361F0011104C08B2DF3
:102C10000E944E15C3CF8B2D0130D1F70E94A51E07
:102C2000BDCF011106C00E94A81E8B2D0E94551514
:102C3000B5CF013009F4B2CFF6CF112321F0023025
:102C400008F0ACCFE4CF0111A9CFEFCF002369F397
:102C50008D2F0E94FF14A2CF8C2F869586958370AE
:102C600079F08130B9F0E8E0BE1609F49BC0BE16D9
:102C700008F494CF86EF8B0D823008F493C08ECF8A
:102C80008D2F9C2F9370111102C090E080E00E9464
:102C9000CB1284CF8D2F9C2F9370111102C090E026
:102CA00080E00E94E1127ACF112309F1D53F99F01B
:102CB000D63FB9F0D43F49F48091A5039091A60383
:102CC00081609093A6038093A5038D2F0E945321CA
:102CD0000E943F2263CF8091A5039091A60382605A
:102CE000F0CF8091A5039091A6038460EACFD53FF1
:102CF00089F0D63FA9F0D43F49F48091A503909183
:102D0000A6038E7F9093A6038093A5038D2F0E9428
:102D1000BB21DECF8091A5039091A6038D7FF2CFDA
:102D20008091A5039091A6038B7FECCF8C2F8370AD
:102D300009F04BC0111136C02D2F22952695277012
:102D4000220F220F6D2F6F70862E912CB12CA12C8B
:102D5000022E04C0880C991CAA1CBB1C0A94D2F732
:102D600060E070E0CB01D4FF0FC06FE070E080E066
:102D700090E004C0660F771F881F991F2A95D2F72D
:102D80006095709580959095C695C695C370C23034
:102D900071F0A0F4682979298A299B29C13091F022
:102DA0000E94421C0E94A9120E94A308F7CE682923
:102DB00079298A299B290E94541CF4CF0E94421C25
:102DC000C501B4010E94301CEDCF8695112311F08E
:102DD0008C2F8170882331F32D2F22952695277013
:102DE000220F220F6D2F6F70862E912CB12CA12CEB
:102DF000022E04C0880C991CAA1CBB1C0A94D2F792
:102E000060E070E0CB01D4FF0FC06FE070E080E0C5
:102E100090E004C0660F771F881F991F2A95D2F78C
:102E20006095709580959095C695C695C370C23093
:102E300051F080F4682979298A299B29C13071F0E1
:102E40000E94071DAFCF682979298A299B290E94F2
:102E5000191DA8CF0E94071DC501B4010E94F51CD1
:102E6000A1CFE0E2ED0FE53108F065C0F0E0E55CF0
:102E7000F84E0C94842F50175017501750175017B6
:102E8000501750175017501750175017501750170A
:102E900050175017501761176E1775177C17861744
:102EA000DF708C2F8F71112331F00E94901C8D2FB9
:102EB0000E944E15D8CE0E94B11C8D2F0E94551530
:102EC000D2CE112339F00111CECE8C2F8F710E94FA
:102ED000D41CC9CE023008F0C6CEF7CF8C2F8F712C
:102EE000112339F00E94901CBECE8C2F8F711123BC
:102EF000C9F30E94B11CB7CE112329F08C2F8F711A
:102F00000E947B1CB0CE0E94761CADCE112349F0EE
:102F1000CF718C2F0E94901C63E08C2F0E94161E94
:102F2000A2CE81E00E941F1E023008F49CCE82E0F7
:102F30000E941F1E98CE112349F0002321F08D2FEF
:102F40000E94241490CE8C2F8F71CCCF002379F067
:102F5000D93349F42FEF87EE93E021508040904021
:102F6000E1F700C000008D2F0E94FF147CCE8C2F53
:102F70008F71BFCF4C2F4F706D2FC7010E9473050B
:102F80000E94A81B0BCED23F39F160F4D03F99F0DC
:102F9000D13F51F1002301F18D2F112351F10E94F6
:102FA000241411C0D43FD9F0A8F0D53F99F71111DE
:102FB0000AC081E006C0112331F08091920291E0B5
:102FC0008927809392024C2F4F706D2FC7010E946A
:102FD000A50849CE81E0182710939202F4CF111171
:102FE000F2CF10929202EFCF0023B1F31111EBCF89
:102FF000E4CF0E94FF14E7CFDF91CF911F910F9193
:10300000FF90EF90DF90BF90AF909F908F900895CA
:103010000F931F93CF93DF93EC01988189812B81CC
:103020003C81232B39F08F3F19F481E09F3F19F049
:1030300080E001C081E080FD17C0CE010E94B7058D
:10304000882391F0688179818A810E94D41D8C0146
:103050000E942B1D0E942D1CB801CE01DF91CF9143
:103060001F910F910C945C15DF91CF911F910F91DF
:1030700008950E94911E0E94A21E0E94061E0E9498
:103080003C1E0E94D5220E943F2290E080E00E94D8
:10309000CB1290E080E00C94E1120E94801E0C9410
:1030A00039180E94CA1DE92FE295EF70E250EE3008
:1030B000E0F4F0E0E25AF74E0C94842F6C186C1890
:1030C0007518751877187518751875186C186C18A8
:1030D0007C18751875187C18803F19F020F4803E14
:1030E00020F481E00895843FE1F380E00895803E7C
:1030F000C0F3813FD1F7F5CF93FB882780F908957E
:10310000CF93DF9300D000D01F92CDB7DEB70F90E2
:103110000F900F900F900F90DF91CF910895CF9364
:10312000DF9300D000D000D0CDB7DEB726960FB623
:10313000F894DEBF0FBECDBFDF91CF9108951F93EE
:10314000CF93DF93C091930216E0809194028C1389
:1031500004C0DF91CF911F910895D0E01C9FF00132
:103160001D9FF00D1124EB56FD4F4081518162816E
:103170007381848195810E948F182196C770E5CF55
:103180004091C5025091C6026091C7027091C80279
:103190008091C9029091CA020C948F181F93CF930B
:1031A000DF938091CA02807FD1F48091C702882387
:1031B000B1F080919302D0919402B091C502C09178
:1031C000C6024091C8025091C902A1E0BF3F09F078
:1031D000A0E0BA016095709516E0D81304C0DF91A5
:1031E000CF911F91089521E04115510521F02A2F1B
:1031F000CF3F09F020E090E020FD38C0189FF0019B
:10320000199FF00D1124EB56FD4F21812C132EC078
:1032100020812B132BC02281211128C023813481CE
:103220002417350700F1241B350B283C3105F0F439
:103230002091CA022F7020612093CA0226E0289FA5
:10324000F001299FF00D1124E656FD4F80818F700B
:103250008061808385EC92E00E940818DF91CF9115
:103260001F910C949F18260F371FDFCF0196877090
:10327000B4CFAF92BF92CF92DF92EF92FF920F93B3
:103280001F93CF93DF93CDB7DEB761970FB6F89456
:10329000DEBF0FBECDBF8C0185E0F801DE011D96BB
:1032A00001900D928A95E1F7D8014C9111965C91AD
:1032B00011971296EC903091C5026091C6028091F0
:1032C000C8029091C90221E0009731F06F3F19F4D4
:1032D00021E03F3F09F020E0B22FB170BB2E20FD6E
:1032E00080C1F801C380D480A090C702AA2009F44D
:1032F00027C1C816D906D0F1D601A81BB90BCD013C
:10330000FF24F394883C910508F0F12C8091CA02C7
:10331000982F907FFF2009F4CAC0911187C0FE2C1E
:10332000651329C0341327C0E11025C08F70806158
:103330008093CA020E94C01885EC92E00E9408188F
:103340008091CA02F80185838F2D61960FB6F8949B
:10335000DEBF0FBECDBFDF91CF911F910F91FF90C8
:10336000EF90DF90CF90BF90AF90089580959095AB
:103370008C0D9D1DC5CF81E0CD2831F05F3F19F444
:1033800081E04F3F09F080E080FD24C081E08E2580
:10339000F82FF170DF2E80FF3FC0809193022091C3
:1033A000940236E0821318C04D875E878D859E8516
:1033B0000E94CA1D292F22952F70223008F1243037
:1033C00030F59F7009F1D80115969C91907FE1F43A
:1033D000FB2CBACF80E0DCCF90E0389FF001399F22
:1033E000F00D1124EB56FD4F6181561306C060812C
:1033F000461303C062816E110FC001968770D2CF51
:103400009F7011F0882321F3805E883008F3C80193
:103410000E940818BD2CDCCFEE2009F495CF8091D6
:10342000CA0281608093CA02F12C8ECF651312C04C
:10343000341310C0E1100EC0F8018583C8010E944A
:10344000081886E0F801A5ECB2E001900D928A958B
:10345000E1F741C04D875E878D859E850E9451189A
:10346000882309F4C8C0EE2009F4C5C08091CA02BF
:10347000803270F02091C5023091C60238872F83C8
:103480001986DB86CA868C87CE0107960E940818AB
:1034900086E0F801A5ECB2E001900D928A95E1F783
:1034A0000E94CE180E94C018FF24F3944DCF9111B2
:1034B00015C07C2DD98AC88A6E2D89890E948018F2
:1034C00085EC92E00E94081886E0E5ECF2E0DF016E
:1034D0001D928A95E9F70E94C01836CF651312C075
:1034E000341310C0E1100EC0F8018583C8010E949A
:1034F0000818E5ECF2E086E0DF011D928A95E9F715
:10350000FA2C22CF4D875E878D859E850E945118AB
:10351000882309F470C0EE2009F46DC08091CA02BE
:10352000803208F4B5CF2091C5023091C6023A83AB
:1035300029831B82DD82CC828E83CE010196A6CFA9
:10354000C816D90638F1F601E81BF90BCF01F12CAA
:10355000883C910508F03DC0FE2CEE2009F44BC0DC
:10356000651326C0341324C08091CA0280FD17C0A1
:10357000982F907FA1F0D80115968C931597903FC6
:1035800009F45CCF982F907F905F8F70892B1596F0
:103590008C9354CF809590958C0D9D1DD8CF86E04F
:1035A000F801A5ECB2E001900D928A95E1F7CCCE3E
:1035B0004D875E878D859E850E945118811168CF49
:1035C0008091CA0281608093CA02C8010E940818D3
:1035D000BBCE7C2DD98AC88A6E2D89890E9480181D
:1035E00073CFEE2041F04D875E878D859E850E94CA
:1035F000511881114DCFC8010E94081855CF1F9353
:10360000CF93DF93CDB7DEB72C970FB6F894DEBF1C
:103610000FBECDBF4F83588769877A878B879C877A
:10362000CE0107960E943919882309F442C09F8170
:1036300088852A853B85232B39F08F3F19F481E05B
:103640009F3F19F080E001C081E080FD08C04F81FC
:10365000588569857A858B859C850E948F1816E030
:103660008091930290919402891709F467C0819F19
:10367000C00111248B569D4F0E943919882309F4EB
:103680005DC0E09193021E9FF0011124EB56FD4FA7
:103690004081518162817381848195810E948F185C
:1036A0008091930290E0019687709927809393020E
:1036B000D7CF86E0FE013796DE01119601900D927C
:1036C0008A95E1F79F8188852A853B85232B39F0F0
:1036D0008F3F19F481E09F3F19F080E001C081E045
:1036E00080FDBDCF2091940230E0C9010196877022
:1036F0009927409193024817190699F096E0929FF6
:10370000D001939FB00D1124AB56BD4FFE013196F1
:1037100001900D929A95E1F7809394020E949F1870
:103720009ECF0E944D18109294021092930286E050
:10373000E5ECF2E0DF011D928A95E9F72C960FB6D1
:10374000F894DEBF0FBECDBFDF91CF911F910895DA
:10375000EF92FF920F931F93CF93DF938C01892BEE
:1037600081F0F12CEE24E394E8012196F801849194
:10377000843770F4843008F05FC08130B1F082305B
:10378000A1F1DF91CF911F910F91FF90EF900895DC
:10379000853709F44CC008F43DC09CE7980F90377A
:1037A00080F78F770E94FF1449C00E5F1F4FFE0104
:1037B000849190E2980F983060F48770FE2D01C0DC
:1037C000FF0F8A95EAF78F2F0E94941E0E943C1EDD
:1037D00002C00E9424148F2D815030F2EFE9FFE0E7
:1037E0003197F1F700C00000F7CF0E5F1F4FFE01C9
:1037F000849190E2980F983050F48770FE2D01C0AC
:10380000FF0F8A95EAF78F2F0E949A1EDFCF0E9442
:10381000FF14E1CF0E5F1F4FFE01C491C150D8F2DB
:103820008FE99FE00197F1F700C00000F7CF0E5F2E
:103830001F4FFE01F490CFCF0E9424148E01CBCFF6
:1038400008950E94201C60930603709307038093E1
:103850000803909309030C94391808950C94211CC3
:103860000F931F9300910603109107032091080303
:1038700030910903602B712B822B932B1F910F9199
:103880000C94211C0F931F930091060310910703C2
:10389000209108033091090360237123822393232D
:1038A0001F910F910C94211C0F931F9300910603FD
:1038B00010910703209108033091090360277127B5
:1038C000822793271F910F910C94211C0C94201C8C
:1038D0000C94661C0E94681C60930203709303039F
:1038E00080930403909305030C94391860E070E012
:1038F000CB010C946A1C0F931F9341E050E060E0F1
:1039000070E08A019B0104C0000F111F221F331FAA
:103910008A95D2F7C901B8011F910F910C946A1CC6
:103920000F931F9341E050E060E070E004C0440F4B
:10393000551F661F771F8A95D2F7809102039091D9
:103940000303A0910403B09105038A019B01082B96
:10395000192B2A2B3B2BC901B8011F910F910C94F5
:103960006A1C0F931F9341E050E060E070E004C0D8
:10397000440F551F661F771F8A95D2F7CB01BA01F6
:1039800060957095809590950091020310910303C6
:103990002091040330910503602371238223932334
:1039A0001F910F910C946A1C0F931F9341E050E0FC
:1039B00060E070E004C0440F551F661F771F8A95B2
:1039C000D2F78091020390910303A0910403B09178
:1039D00005038A019B01082719272A273B27C901CC
:1039E000B8011F910F910C946A1C0F931F930091C3
:1039F0000203109103032091040330910503602B0F
:103A0000712B822B932B1F910F910C946A1C0F9397
:103A10001F9300910203109103032091040330913E
:103A2000050360237123822393231F910F910C942C
:103A30006A1C0F931F9300910203109103032091BE
:103A400004033091050360277127822793271F9174
:103A50000F910C946A1C0895292F220F920F990F31
:103A6000890F982F977071E001C0770F9A95EAF748
:103A700086958695869525E0829FC001112450E0A9
:103A800040E0A62FB0E0FC01E40FF51FE553FD4F29
:103A900060819D01042E02C0369527950A94E2F7B5
:103AA0002170219526272723262720834F5F5F4FEC
:103AB0004530510541F70895292F220F290F220F74
:103AC000820F982F977086958695869545E0849FFE
:103AD0009001112470E060E080E0F901E60FF71F2B
:103AE000E553FD4F408150E0092E02C056954795A1
:103AF0000A94E2F741705527062E01C0440F0A943C
:103B0000EAF7842B6F5F7F4F6530710531F70895B9
:103B1000BF92CF92DF92EF92FF920F931F93CF93BA
:103B2000DF938C01C0900203D0900303E090040364
:103B3000F09005038091060390910703A09108037C
:103B4000B0910903C82AD92AEA2AFB2ACFE1D0E09A
:103B5000BC2ED701C6010C2E04C0B695A79597952B
:103B600087950A94D2F780FD0EC0219788F7B12C73
:103B70008B2DDF91CF911F910F91FF90EF90DF90F0
:103B8000CF90BF900895B8018C2F0E94C208019772
:103B900061F3EECFCF93DF93EC010E94881DBE014D
:103BA000DF91CF910C94C2081F93CF93DF93EB0169
:103BB00090919102992331F0CB01DF91CF911F9128
:103BC0000C94CA1D882379F0CB010E94881D182F00
:103BD000682FCE010E942C1DBE01812FDF91CF9155
:103BE0001F910C94C208CB010E945C1D182FF4CFCA
:103BF000682F80910301909104010C94921F682F0B
:103C000080910301909104010C949D1F8091030108
:103C1000909104010C94A81F80910A0385958595C5
:103C20008595089580910A038770089598E0899F8B
:103C300090011124622B60930A030C94901C9091C4
:103C40000A038095892380930A03282F277061F443
:103C5000282F082E000C330B9217130629F0859598
:103C6000859585950C94B11C089590910A039770E1
:103C700081E009F480E00895E0910301F0910401EE
:103C800080912E038083E0910301F09104018081F3
:103C900090912D03892B8083E0910301F091040121
:103CA000808190912C03892B808390910B03992321
:103CB00081F0E0910301F09104018081892B8083E0
:103CC00080910301909104010E94351F811110928F
:103CD0000B0380910301909104010C94B512809123
:103CE0002E03089590912E03892B80932E0308951F
:103CF000982F909580912E03892380932E03089509
:103D000010922E03089590912D03892B80932D03FB
:103D10000895982F909580912D03892380932D03EA
:103D2000089510922D03089590912C03892B809370
:103D30002C030895982F909580912C0389238093CC
:103D40002C03089510922C03089580930B0308957B
:103D500010920B030895CF92DF92EF92FF926C01C5
:103D6000EE24FF2420E0C114D104E104F10419F091
:103D7000C701B60120E1C72ED82EE92EFF24C114B9
:103D8000D104E104F10419F0285FC701B6016B0109
:103D90007C0154E0F694E794D794C7945A95D1F7F0
:103DA000C114D104E104F10419F02C5FC701B6017C
:103DB0006B017C0142E0F694E794D794C7944A954E
:103DC000D1F7C114D104E104F10419F02E5FC70149
:103DD000B6019695879577956795672B682B692B24
:103DE00009F02F5F822FFF90EF90DF90CF90089522
:103DF0006DEE7EEF90E080E00E94BC2F60E082E0FC
:103E000090E00E949E2F60E083E090E00E949E2F51
:103E100060E084E090E00E949E2F60E085E090E00A
:103E20000E949E2F40E050E0BA0188E090E00C94A0
:103E3000B02F90E080E00E94982F21E08D3E9E4FB1
:103E400009F020E0822F089582E090E00C948A2F00
:103E500083E090E00C948A2F84E090E00C948A2F09
:103E6000682F84E090E00C949E2FFC0131969C0119
:103E7000205E3F4F80E0919191118F5FE217F30731
:103E8000D1F708959C01FC0132969FEF80E04191AB
:103E9000461751F09F3F19F4411101C0982F8F5FD1
:103EA0008E31A9F79F3F09F40895290F311D97FD21
:103EB0003A95F90162830895FC013296809621912A
:103EC000261303C0DF0111971C92E817F907B9F711
:103ED0000895E62FE695E695E695EF3169F0E80F4F
:103EE000F92FF11D677021E030E001C0220F6A95C3
:103EF000EAF78181822B81830895E62FE695E69586
:103F0000E695EF3171F0E80FF92FF11D677021E0B0
:103F100030E001C0220F6A95EAF7209581812823BD
:103F20002183089520911401222329F02091AB03CD
:103F300027FD0C94691F0C94421F20911401222329
:103F400029F02091AB0327FD0C947D1F0C945C1F7E
:103F5000FC01319680961192E817F907E1F7089570
:103F60008091B103843039F11092300388E190E000
:103F700020E40FB6F894A895809360000FBE2093BC
:103F8000600080E00E94A30883B7817F846083BFC4
:103F900083B7816083BF7894889583B78E7F83BF12
:103FA0000FB6F894A89580916000886180936000B6
:103FB000109260000FBE08950895CF930E94EF0302
:103FC0000E943C040E94DC1FC0E08C2F0E949C04D5
:103FD000811105C0CF5FCE30C1F7CF91089581E048
:103FE000FCCF0E944D180E94A9120C94A3081F92A6
:103FF0000F920FB60F9211248F939F93AF93BF939D
:1040000080913003811113C08091A7039091A80380
:10401000A091A903B091AA034196A11DB11D80935F
:10402000A7039093A803A093A903B093AA03BF91F9
:10403000AF919F918F910F900FBE0F901F90189589
:1040400082E084BD93E095BD9AEF97BD80936E00AA
:1040500008952FB7F8948091A7039091A803A09199
:10406000A903B091AA032FBF0895CF92DF92EF92D8
:10407000FF920F931F932FB7F8944091A70350918D
:10408000A8036091A9037091AA032FBF6A017B0165
:10409000EE24FF248C0130E020E0C016D106E206B9
:1040A000F30650F0481B590BCA011F910F91FF9066
:1040B000EF90DF90CF90089541505109F3CF78945D
:1040C0001F920F920FB60F9211248F939F93AF936D
:1040D000BF938091A7039091A803A091A903B091E9
:1040E000AA030196A11DB11D8093A7039093A80375
:1040F000A093A903B093AA03BF91AF919F918F9111
:104100000F900FBE0F901F901895F89481E0809348
:10411000E00080E28093D800E9ECF0E010828FE1CB
:104120009EE40197F1F700C000001DBA10926800EC
:104130001CBC10BE1FBA10927A0010926E00109232
:104140006F0010927100109272001082ECEBF0E0A0
:10415000108214B817B81AB81DB810BA108215B862
:1041600018B81BB81EB811BA0C94003F08950E94ED
:10417000191F811102C00E94F81E0E94241F809303
:104180002F030E942C1F90E09093AC038093AB030D
:104190000E94281F682F70E090E080E00C942E1C95
:1041A0008091340380FF12C06091080185E0689F10
:1041B000B0011124759567957595679560387105FF
:1041C000A8F561157105A1F1862F089581FF09C039
:1041D0006091080185E0689FB0011124759567958D
:1041E000EDCF82FF07C06091080185E0689FB001B4
:1041F0001124E4CF209135032223A9F090910701E7
:104200006091080185E0689FB00111242917B0F67C
:10421000269FA001279F500D1124692F70E0CA012D
:104220000E94702FCBCF65E070E0CECF8FE708956E
:1042300081E008958091340380FF0CC060910601F5
:1042400070E075956795759567956115710549F1EC
:10425000862F089581FF06C06091060170E0759574
:104260006795F3CF6091060182FD0BC090913503F5
:104270009923A1F06091050180910601961738F00D
:10428000682F70E06038710500F38FE70895899F0B
:10429000C001112470E00E94702FF4CF61E070E043
:1042A000D7CF81E00895803F31F40E94D0208195DE
:1042B000809338030895813F19F40E94D020F8CFED
:1042C000823F31F40E94D020819580933703089576
:1042D000833F19F40E94D020F8CF893F29F40E942F
:1042E0001A218093390308958A3F21F40E941A21EC
:1042F0008195F7CF8B3F31F40E941A2181958093ED
:104300003A0308958C3F19F40E941A21F8CF843F94
:1043100031F4809136038160809336030895853FA0
:1043200021F4809136038260F7CF863F21F480919B
:1043300036038460F1CF873F21F480913603886093
:10434000EBCF883F21F4809136038061E5CF8D3F2C
:1043500031F48091340381608093340308958E3F5B
:1043600021F4809134038260F7CF8F3FB9F78091B9
:1043700034038460F1CF803FC1F48091380387FD1E
:10438000109238038091370381110EC08091380359
:1043900081110AC080913903811106C080913A03CE
:1043A000811102C0109235030895813F29F4809154
:1043B000380318162CF3E6CF90913703823F29F487
:1043C00097FFE0CF10923703DDCF833F19F4191622
:1043D000CCF3D8CF893F39F480913903181694F67D
:1043E00010923903CFCF8A3F29F48091390387FF98
:1043F000C9CFF6CF8B3F39F480913A0387FFC2CF04
:1044000010923A03BFCF8C3F29F480913A031816DB
:10441000BCF3B8CF843F31F4809136038E7F809314
:104420003603B0CF853F21F4809136038D7FF7CFDF
:10443000863F21F4809136038B7FF1CF873F21F4B3
:1044400080913603877FEBCF883F21F4809136033C
:104450008F7EE5CF8D3F31F4809134038E7F809342
:10446000340390CF8E3F21F4809134038D7FF7CFBA
:104470008F3F09F087CF809134038B7FF0CF86E3A5
:1044800093E00E94C0120E942920909332038093EF
:10449000310308951F93CF93DF938091310390915F
:1044A00032030E943520AC0190913503209109011F
:1044B00030E0911106C0209133038AE0289F9001DB
:1044C00011244217530780F080913703109138036D
:1044D000D0913903C0913A0381110AC0111161C012
:1044E000D1115FC0C1115DC0DF91CF911F910895BF
:1044F0009F3F19F09F5F90933503181624F40E9494
:10450000D020809337038091370387FF05C00E9436
:10451000D020819580933703111624F40E94D02077
:10452000809338038091380387FF05C00E94D02014
:1045300081958093380340913703442379F030917B
:104540003803332359F025EB4203A0011124509383
:104550003703320390011124309338031D1624F4DD
:104560000E941A21809339038091390387FF05C087
:104570000E941A218195809339031C1624F40E940D
:104580001A2180933A0380913A0387FF05C00E9465
:104590001A21819580933A03DF91CF911F910C945A
:1045A0003F229F3F09F0A6CFB7CF85E0E6E3F3E0D7
:1045B000DF011D928A95E9F71092350310923403BA
:1045C0000895833081F128F4813059F08230D1F0A0
:1045D0000895853009F449C0B8F1863009F456C011
:1045E000089580913303482F460F5527551F4F3F9D
:1045F000510524F4680F6093330308958FEF80937F
:104600003303089580910901482F460F5527551F00
:104610004F3F510524F4680F6093090108958FEF0F
:1046200080930901089580910801482F460F55276E
:10463000551F4F3F510524F4680F609308010895FA
:104640008FEF80930801089580910701482F460F4E
:104650005527551F4F3F510524F4680F60930701FC
:1046600008958FEF80930701089580910601482FE8
:10467000460F5527551F4F3F510524F4680F60938F
:10468000060108958FEF809306010895809105013A
:10469000482F460F5527551F4F3F510524F4680FEB
:1046A0006093050108958FEF80930501089583308D
:1046B00011F128F4813049F0823091F0089585306D
:1046C00081F120F18630C1F108958091330368179C
:1046D00020F4861B809333030895109233030895CA
:1046E00080910901681720F4861B809309010895C1
:1046F00010920901089580910801681720F4861B23
:10470000809308010895109208010895809107018F
:10471000681720F4861B8093070108951092070103
:10472000089580910601681720F4861B8093060186
:10473000089510920601089580910501681720F4EC
:10474000861B8093050108951092050108950F932B
:104750001F9341E050E060E070E08A019B0104C0DB
:10476000000F111F221F331F8A95D2F7C901B8010C
:104770000E942E1C1F910F910C944D18873208F047
:1047800043C08E3108F08BC0803109F47DC0C8F47D
:10479000873009F46AC028F4863009F45CC080E0F0
:1047A00008958B3009F455C08E30C9F790912F03CE
:1047B000892F8B7F92FF846080932F0382FD20C01E
:1047C00048C0863109F445C068F4813141F70E9440
:1047D0004D189091AB03892F97FB87F980588093F0
:1047E000AB0337C08931A9F18B31C9F690912F0302
:1047F000892F8D7F91FF826080932F0381FF29C0D5
:1048000080912F0381603DC0883319F150F48932C3
:1048100021F0853311F0873211F680E00E94A72342
:1048200018C08334D1F328F48A3308F4B8CF8953FD
:10483000F5CF883409F0B3CF0E944D182FEF83EDE8
:1048400090E3215080409040E1F700C000000E94BA
:10485000852081E0089580912F03817F8E7F809352
:104860002F0381E080933C03089590912F03892FBB
:104870008E7F90FF816080932F0380FDEACF897F38
:10488000877F80932F03E5CF90912F03892F877F18
:1048900093FF886080932F0383FDB2CFDACF8D51D1
:1048A000BDCF80E008950C9451248E518A3030F4AD
:1048B000E82FF0E0E354FE4F8081089580E00895F2
:1048C000CF93C82F80913C038130E1F038F08230E3
:1048D00009F43FC010923C0380E012C0E091030154
:1048E000F09104018081813111F08232A9F78C2F7F
:1048F0000E94512481111DC08C2F0E94BE23817003
:10490000CF910895E0910301F091040180818131FC
:1049100071F3823261F38C2F0E945324811110C0F5
:10492000C43181F048F4CB3059F0C03171F080E0EF
:10493000E6CF81E090E0E3CFC93221F0C833B9F788
:1049400081E0DDCF10923C03F2CF82E080933C0304
:10495000F7CFC93219F188F4C43101F120F4C7301E
:1049600081F181E0CDCF82EE8C0F8630D0F78C2F95
:104970000E94552480933B03F4CFCE3401F140F4E0
:104980006AE0CB3471F780913B030E94E122E9CFCA
:10499000C13579F061E0C235B1F3E3CF80913B03DB
:1049A000882319F010923B03DCCF81E080933C0315
:1049B000A7CF61E080913B030E945723D2CF6AE0EA
:1049C000F9CF1092330384E180930901C093080169
:1049D0008CE38093070188E08093060188E280934E
:1049E0000501BFCF80915D0308950F931F93CF936F
:1049F000DF9300D01F92CDB7DEB78C010E946427F1
:104A0000823011F0843019F583E089831B830A8397
:104A10008093E9008FEF9091E800815095FD06C0EA
:104A200095ED9A95F1F700008111F5CF8091E8009E
:104A300085FF0DC050E040E063E070E0CE010196DC
:104A40000E9481278091E8008E778093E8000F9084
:104A50000F900F90DF91CF911F910F910895CF93F9
:104A6000DF9300D01F92CDB7DEB72091B103243081
:104A700031F522E02983805891099B838A8383E062
:104A80008093E9008FEF9091E800815095FD06C07A
:104A900095ED9A95F1F700008111F5CF8091E8002E
:104AA00085FF0DC050E040E063E070E0CE0101966C
:104AB0000E9481278091E8008E778093E8000F9014
:104AC0000F900F90DF91CF910895CF93DF93EC017A
:104AD0000E946427823011F08430F9F482E08093E0
:104AE000E9008FEF9091E800815095FD06C095EDAB
:104AF0009A95F1F700008111F5CF8091E80085FFCC
:104B00000CC050E040E065E070E0CE010E948127DB
:104B10008091E8008E778093E800DF91CF9108952F
:104B2000CF93DF93EC010E946427823011F0843030
:104B3000F9F4809114018823F1F08091AB0387FF91
:104B40001AC084E08093E9008FEF9091E8008150D3
:104B500095FD06C095E19A95F1F700008111F5CF1A
:104B60008091E80050E040E060E270E085FD1AC00E
:104B7000DF91CF91089581E08093E9008FEF9091CC
:104B8000E800815095FD06C095ED9A95F1F700007B
:104B90008111F5CF8091E80085FFEACF50E040E039
:104BA00068E070E0CE010E9481278091E8008E7756
:104BB0008093E80080E2FE01ADE3B3E001900D9246
:104BC0008A95E1F7D5CF8091B003811109C00E9489
:104BD00011290E946E298091E20084608093E20096
:104BE00008951092B0030895089508950C94F11F4C
:104BF00042E061EC81E00E948F2842E061EC82E0BB
:104C00000E948F2842E061EC83E00E948F2842E2FC
:104C100061EC84E00C948F288091B303833009F415
:104C200055C030F4813071F1823009F491C008959B
:104C30008A3009F47DC08B3009F463C0893009F0F3
:104C400044C08091B203813209F03FC08091B60325
:104C50009091B703009711F00397B9F58091E800A0
:104C6000877F8093E8008091E80082FF2AC08091CE
:104C7000F10080935D038091E8008B778093E800DA
:104C80000C94C3288091B203813AF9F48091E80032
:104C9000877F8093E8008091B6039091B703892BBA
:104CA00061F460E28DE393E070E00E94D027809190
:104CB000E8008B778093E800089560E090E080E062
:104CC000F3CF8091B1038111CECF08958091B203CB
:104CD000813AD9F78091B6039091B703892BA9F750
:104CE0008091E800877F8093E8008091E80080FF52
:104CF000FCCF809114018093F1008091E8008E77C1
:104D0000BDCF8091B203813201F78091B6039091BB
:104D1000B703892BD1F68091E800877F8093E80064
:104D20000E94C3288091B403809314010C944D1801
:104D30008091B203813249F68091E800877F8093A9
:104D4000E8000E94C3288091B50380935E03089514
:104D50008091B203813A09F0B8CF8091E800877F53
:104D60008093E8008091E80080FFFCCF80915E0393
:104D7000C2CF84B7877F84BF0FB6F894A89580917F
:104D80006000886180936000109260000FBE80E830
:104D900080936100109261000E94F8120E94112914
:104DA0000E946E298091E20084608093E2007894F2
:104DB0000E94F72B0E94FC128AE091E00E94A4124C
:104DC0008091B103853029F00E9404130E94A7113D
:104DD000F7CF0E94B01F8091AF03882389F30E9410
:104DE000DD1F882369F30E946B27EACF0C94F82615
:104DF000292F33272330310579F158F4213031053B
:104E0000F1F02230310519F190E080E030E020E04F
:104E10001AC021323105C9F122323105A9F76430B7
:104E2000710590F7FB01EE0FFF1FE553FE4F208148
:104E3000318169537E4FFB01808190E004C082E1A3
:104E400090E02FEA34E0FA013183208308958DE663
:104E500090E022E434E0F7CF99278130910579F092
:104E600040F08230910571F0039771F6E8E0F4E0CC
:104E700002C0EEE3F4E0849190E09F01E4CFE6E22B
:104E8000F4E0F9CFEEE0F4E0F6CF6430710508F01D
:104E9000BBCF660F771FFB01ED52FE4F20813181A2
:104EA00089E090E0D0CF0895CF93C82F0E94532778
:104EB000C0935F03CF9108958091B103843011F0C6
:104EC00081E0089582E0089580915F03811102C01E
:104ED0000C945C27089580E189BD82E189BD09B405
:104EE00000FEFDCF8091D8008F7D8093D800809107
:104EF000E00082608093E0008091E00081FDFCCFC3
:104F00000895AF92BF92CF92DF92FF920F931F93BB
:104F1000CF93DF936C01EB018A010E94E228F82E07
:104F2000811123C00115110539F0F80180819181AB
:104F3000C81BD90BC80ED91EB12CA12C2097A9F0E3
:104F40008091E80085FD22C08091E8008E778093F3
:104F5000E80001151105A1F0F80180819181A80EEA
:104F6000B91EB182A08285E0F82E8F2DDF91CF91FE
:104F70001F910F91FF90DF90CF90BF90AF90089559
:104F80000E94E2288823D1F2F82EEFCFF60181911A
:104F90006F018093F1002197FFEFAF1ABF0ACECFC8
:104FA000FC018091B8039091B90386179707A0F090
:104FB0006115710529F49091E8009E779093E800BF
:104FC00090E06115710551F4911108C08091E800DD
:104FD00082FF35C080E00895BC01F2CF8091B1031B
:104FE0008823C9F18530C9F18091E80083FD31C083
:104FF0008091E80082FDEACF8091E80080FFE1CF58
:105000002091F3008091F200322F282F6115710555
:1050100019F02830310558F091E02830310509F0B9
:1050200090E02091E8002E772093E800CACF81918C
:105030008093F100615071092F5F3F4FE7CF80915E
:10504000B103882341F0853041F08091E80083FF6F
:10505000BDCF81E0089582E0089583E00895FC01CA
:105060008091B8039091B90386179707A0F0611556
:10507000710529F48091E8008E778093E80090E034
:105080006115710551F4911108C08091E80082FF0B
:1050900036C080E00895BC01F2CF8091B10388232F
:1050A000D1F18530D1F18091E80083FD32C080914B
:1050B000E80082FDEACF8091E80080FFE1CF2091F7
:1050C000F3008091F200322F282F6115710519F03D
:1050D0002830310558F091E02830310509F090E092
:1050E0008091E8008E778093E800CACF8491809306
:1050F000F1003196615071092F5F3F4FE6CF8091EB
:10510000B103882341F0853041F08091E80083FFAE
:10511000BCCF81E0089582E0089583E00895982F40
:10512000973028F08F708093E90081E00895909384
:10513000E900242F762F50E0981731F07091EC00A1
:105140002091ED005091F00021FD02C09F5FE8CF5B
:105150003091EB003E7F3093EB003091ED003D7FCE
:105160003093ED003091EB0031603093EB007093A1
:10517000EC002093ED005093F0002091EE0027FD0D
:10518000E5CF80E008958091B20387FF13C080913E
:10519000E80082FF06C08091E8008B778093E800EA
:1051A00004C08091B1038111F2CF08958091B103C1
:1051B0008823D9F38091E80080FFF8CF8091E80040
:1051C0008E77ECCF2091E4003091E50085E6909158
:1051D000EC0090FF06C09091E80090FF06C080E0D0
:1051E00008959091E80092FDFACF9091B103992330
:1051F00091F0953091F09091EB0095FD10C04091A9
:10520000E4005091E5002417350709F381509A0115
:10521000F1F684E0089582E0089583E0089581E046
:1052200008950E947F290E948729E0EEF0E08081A6
:1052300081608083E8EDF0E080818F77808319BC06
:10524000A7EDB0E08C918E7F8C9380818F7E8083E0
:105250001092B00308950F931F93CF93DF930E9492
:105260007F290E948729C8EDD0E088818F778883C5
:1052700088818068888388818F7D888319BC10929B
:10528000B1031092AD031092AF031092AE0300EE83
:1052900010E0F80180818B7F808388818160888322
:1052A00042E060E080E00E948F28E1EEF0E0808143
:1052B0008E7F8083E2EEF0E0808181608083808158
:1052C00088608083F80180818E7F808388818061FF
:1052D0008883DF91CF911F910F910895E8EDF0E061
:1052E00080818F7E8083E7EDF0E080818160808324
:1052F00084E082BF81E08093B0030C942B29E8ED19
:10530000F0E080818E7F80831092E20008951092F9
:10531000DA001092E10008951F920F920FB60F92DB
:1053200011242F933F934F935F936F937F938F93AA
:105330009F93AF93BF93EF93FF938091E10082FF20
:105340000BC08091E20082FF07C08091E1008B7F5B
:105350008093E1000E94F62B8091DA0080FF19C053
:105360008091D80080FF15C08091DA008E7F8093F5
:10537000DA008091D90080FF94C080E189BD82E18C
:1053800089BD09B400FEFDCF81E08093B1030E9486
:10539000E3258091E10080FF19C08091E20080FF49
:1053A00015C08091E2008E7F8093E2008091E20040
:1053B00080618093E2008091D80080628093D80061
:1053C00019BC85E08093B1030E94F5258091E1002E
:1053D00084FF29C08091E20084FF25C080E189BD5F
:1053E00082E189BD09B400FEFDCF8091D8008F7D98
:1053F0008093D8008091E1008F7E8093E1008091BE
:10540000E2008F7E8093E2008091E20081608093D1
:10541000E2008091AD03882309F449C084E08093C1
:10542000B1030E94F6258091E10083FF29C080919D
:10543000E20083FF25C08091E100877F8093E10037
:1054400082E08093B1031092AD038091E1008E7FE2
:105450008093E1008091E2008E7F8093E200809152
:10546000E20080618093E20042E060E080E00E9420
:105470008F288091F00088608093F0000E94F425CE
:10548000FF91EF91BF91AF919F918F917F916F911C
:105490005F914F913F912F910F900FBE0F901F90F2
:1054A000189519BC1092B1030E94F12572CF80911A
:1054B000E30087FD02C081E0B2CF83E0B0CF1F924E
:1054C0000F920FB60F9211242F933F934F935F9338
:1054D0006F937F938F939F93AF93BF93CF93EF93EC
:1054E000FF93C091E900CF708091EC001092E90029
:1054F0008091F000877F8093F00078940E949B2A2F
:105500001092E9008091F00088608093F000C093D1
:10551000E900FF91EF91CF91BF91AF919F918F9152
:105520007F916F915F914F913F912F910F900FBE9F
:105530000F901F9018951F93CF93DF93CDB7DEB7D1
:10554000AA970FB6F894DEBF0FBECDBFE2EBF3E033
:105550008091F100819323E0EA3BF207C9F70E94B2
:105560000C268091E80083FF44C08091B2039091A3
:10557000B3039A3008F03DC0E92FF0E0EE53F54D4B
:105580000C94842FCC2AF22AF92AF22AF92A502BD9
:10559000722BF92AC92BD62B803889F0823849F52D
:1055A0008091B6038F70873020F58093E900809159
:1055B000EB0085FB882780F91092E90006C08091F6
:1055C000AE039091AF03911182609091E800977FB4
:1055D0009093E8008093F1001092F1008091E80030
:1055E0008E772DC0282F2D7F21F48823D1F0823093
:1055F00059F18091E80083FF0AC08091E800877F1D
:105600008093E8008091EB0080628093EB00AA9683
:105610000FB6F894DEBF0FBECDBFDF91CF911F91C3
:1056200008958091B403813021F7933009F080E030
:105630008093AF031092E9008091E800877F809308
:10564000E8000E94C328D5CF8091B4038111F2CF26
:105650008091B6038F702FEF280F263050F680937D
:10566000E9002091EB0020FFE5CF933031F48091E9
:10567000EB0080628093EB00DDCF9091EB009061B6
:105680009093EB0021E030E001C0220F8A95EAF709
:105690002093EA001092EA008091EB008860EACF44
:1056A0008111A7CF1091B4031F778091E300807818
:1056B000812B8093E3008091E800877F8093E8004E
:1056C0000E94C3288091E80080FFFCCF8091E30016
:1056D00080688093E30083E0111101C082E0809331
:1056E000B10387CF8058823008F083CF8091B40314
:1056F0009091B5038C3D23E09207A1F583E08A8366
:105700008AE289834FB7F894DE01139620E03EE0E9
:1057100051E2E32FF0E050935700E49120FF03C0E3
:10572000E295EF703F5FEF708E2F90E0EA30C0F0AF
:10573000C7968D939D932F5F243159F74FBF80916A
:10574000E800877F8093E8006AE270E0CE0101966E
:105750000E94D0278091E8008B778093E80049CFA2
:10576000C096E7CF6091B6037091B703AE014F5F6B
:105770005F4F0E94F626BC01892B09F43ACF909125
:10578000E800977F9093E80089819A810E942F28F2
:10579000E1CF803809F02DCF8091E800877F80939A
:1057A000E8008091AD038093F10018CF811121CFE3
:1057B0009091B403923008F01CCF8091E800877F6D
:1057C0008093E8009093AD030E94C3288091AD03BD
:1057D000882331F084E08093B1030E94F82509CF3B
:1057E0008091E30087FDF6CF81E0F5CF0895CF9358
:1057F0008091B103882399F0C091E900CF70809126
:10580000EC0080FD0EC080E0C82B1092E900809172
:10581000E80083FD0E949B2ACF70C093E900CF91DE
:10582000089580E8F1CF5058BB27AA270E942B2C5F
:105830000C94D62D0E94C82D38F00E94CF2D20F058
:1058400039F49F3F19F426F40C949E2D0EF4E09544
:10585000E7FB0C94982DE92F0E94E72D58F3BA1717
:10586000620773078407950720F079F4A6F50C9476
:10587000092E0EF4E0950B2EBA2FA02D0B01B901C5
:1058800090010C01CA01A0011124FF27591B99F0B6
:10589000593F50F4503E68F11A16F040A22F232FC2
:1058A000342F4427585FF3CF469537952795A79512
:1058B000F0405395C9F77EF41F16BA0B620B730BB9
:1058C000840BBAF09150A1F0FF0FBB1F661F771F2A
:1058D000881FC2F70EC0BA0F621F731F841F48F4DF
:1058E000879577956795B795F7959E3F08F0B0CF68
:1058F0009395880F08F09927EE0F9795879508954F
:105900000E94942C0C94D62D0E94CF2D58F00E940A
:10591000C82D40F029F45F3F29F00C94982D5111C7
:105920000C940A2E0C949E2D0E94E72D68F3992367
:10593000B1F3552391F3951B550BBB27AA2762178B
:105940007307840738F09F5F5F4F220F331F441F98
:10595000AA1FA9F335D00E2E3AF0E0E832D09150CC
:105960005040E695001CCAF72BD0FE2F29D0660FB9
:10597000771F881FBB1F261737074807AB07B0E8FC
:1059800009F0BB0B802DBF01FF2793585F4F3AF002
:105990009E3F510578F00C94982D0C940A2E5F3F91
:1059A000E4F3983ED4F3869577956795B795F79588
:1059B0009F5FC9F7880F911D9695879597F9089570
:1059C000E1E0660F771F881FBB1F6217730784070C
:1059D000BA0720F0621B730B840BBA0BEE1F88F71B
:1059E000E095089529F416F00C94982D0C94092E46
:1059F0000C949E2D0E94EF2DA8F39638A0F707F87F
:105A00000F92E8942BE33AEA48EB5FE70E949C2E62
:105A10000F920F920F924DB75EB70F920E94522EC7
:105A2000ECEAF0E00E94A12D4F915F91EF91FF9180
:105A3000E595EE1FFF1F49F0FE57E0684427EE0F83
:105A4000441FFA95E1F74195550B0E941C2E0F90CB
:105A500007FE0C94102E08950E94EF2D88F09F579A
:105A600098F0B92F9927B751B0F0E1F0660F771F82
:105A7000881F991F1AF0BA95C9F714C0B13091F078
:105A80000E94092EB1E008950C94092E672F782FFB
:105A90008827B85F39F0B93FCCF38695779567953D
:105AA000B395D9F73EF490958095709561957F4FA9
:105AB0008F4F9F4F0895E89409C097FB3EF490954F
:105AC0008095709561957F4F8F4F9F4F9923A9F0D7
:105AD000F92F96E9BB279395F69587957795679566
