:100000000C946E020C948B020C948B020C948B0259
:100010000C948B020C948B020C948B020C948B022C
:100020000C948B020C948B020C945E250C9431265C
:100030000C94C61B0C948B020C948B020C948B02B8
:100040000C948B020C948B020C948B020C948B02FC
:100050000C948B020C94111C0C948B020C948B024C
:100060000C948B020C948B020C948B020C948B02DC
:100070000C948B020C948B020C948B020C948B02CC
:100080000C948B020C948B020C948B020C948B02BC
:100090000C948B020C948B020C948B020C948B02AC
:1000A0000C948B020C948B020C948B0229002B0075
:1000B000E000E100E20000001E00140004001D004A
:1000C000000000001F001A0016001B000000E300E3
:1000D00020000800070006000000E10021001500D4
:1000E0000900190002510000220017000A00050053
:1000F0000000000000002C0400001E0100000000B1
:10010000660C035400001F010000000023001C00C7
:100110000B00110000000000240018000D0010006A
:100120000151000025000C000E00360000002C00DC
:10013000260012000F0037000000E7002700130020
:10014000330038000000000000002A002800E5000D
:10015000E600000000300100010001000100000085
:1001600000001E002B0000000000010000001F0026
:1001700035000000000001000000200031002900CF
:100180000000010000002100340000000000010018
:10019000000022002A0000000000010000001014EE
:1001A000000000000000010000000000000000004E
:1001B000000001000000230000000000000001001A
:1001C000000024002D0000000100010000002500B7
:1001D0002E00010001000100000026002F00010098
:1001E00001000100000027003000010001000100B3
:1001F00001000100010001000100000000000000FA
:1002000000000000005C00003A00AA0000000000AE
:10021000000001003B00A9000000000000000100F8
:100220003C00A80000000000000001003D000000AC
:1002300000000000000001003E000000000000007F
:1002400000000100000000000000000000000100AC
:100250000000000000000000000001003F0000005E
:10026000F2000000000001004000F400F100000076
:10027000000001004100F500F00000000000010056
:1002800042000000F30000000000010043004400B1
:100290004500000000000100000000000000000018
:1002A000000000000000000000000000000000004E
:1002B000000000000000000000000000000000003E
:1002C00016140000000000000000000000000614EA
:1002D0000000050000000000000000000000000019
:1002E000000017140A1400000000000000000000C5
:1002F00000000000000000000000005100000000AD
:1003000000000000000000000000000000000000ED
:1003100000000000000000000000000000000C14BD
:100320000000000000000000000000000F140000AA
:1003300000000000000000000000000000000000BD
:10034000000000000000000000000000160345004F
:10035000720067006F0044006F00780020004500C5
:100360005A00000028035A005300410020005400A6
:100370006500630068006E006F006C006F0067002E
:10038000790020004C00610062007300000004034B
:10039000090409023B00020100A0FA09040000015F
:1003A000030101000921110100012240000705811C
:1003B0000308000A090401000103000000092111DB
:1003C00001000122BC000705820320000A1201106F
:1003D0000100000008973274490100010200010584
:1003E000010902A10185020901A1000509190129DC
:1003F000051500250195057501810295017503819B
:10040000010501093009311581257F9502750881A3
:100410000609381581257F950175088106050C0AA6
:1004200038021581257F950175088106C0C0050138
:100430000980A101850319012AB700150126B7001B
:10044000950175108100C0050C0901A101850419F1
:10045000012AA002150126A002950175108100C095
:1004600005010906A1018505050719E029E7150021
:1004700025019508750181020507190029EF15006E
:10048000250195F0750181020508190129059505D9
:1004900075019102950175039101C005010906A13D
:1004A00001050719E029E715002501950875018167
:1004B000029501750881010507190029FF1500261D
:1004C000FF009506750881000508190129059505A5
:1004D00075019102950175039101C00011241FBEA1
:1004E000CFEFDAE0DEBFCDBF12E0A0E0B1E0E6EF93
:1004F000F3E502C005900D92AA32B107D9F723E0C7
:10050000AAE2B2E001C01D92A437B207E1F70E944F
:10051000A6220C9481290C9400008098889A8198D6
:10052000899A84988C9A85988D9A86988E9A8798BD
:100530008F9A0895209828982198299822982A9887
:1005400023982B9852985A9853985B983E984698BF
:100550000895CF93C82F873070F580910601909150
:100560000701892B99F564E670E080E40E94790C1C
:100570009093070180930601892BD1F464E670E023
:1005800082E10E94D50C9093070180930601892B8C
:1005900079F481E090E001C0880FCA95EAF764E63B
:1005A00070E080950E94D50C90930701809306011E
:1005B000CF910C94280D8B30C9F050F4893081F024
:1005C0008A3089F0883049F0209A2898CF91089590
:1005D0008C3079F4539A5B98F9CF219A2998F6CF09
:1005E000229A2A98F3CF239A2B98F0CF529A5A98AE
:1005F000EDCF3E9A4698EACFCF93DF93873058F5F8
:100600008091060190910701C0E0892B71F464E6A6
:1006100070E081E40E94790C9093070180930601B9
:10062000892B39F0C0E00E94280D8C2FDF91CF91EB
:10063000089584E690E00E94040DEC0197FF05C048
:100640009093070180930601EDCFC09510920701AA
:1006500010920601E8CFCFB12FB1269526952C73C5
:10066000C3702C2BC22FC095E0CF0E94440490E0B1
:1006700090930701809306010E949A020C948D02C8
:10068000FF920F931F93CF93DF9300D00F92CDB7BC
:10069000DEB78091060190910701892B91F080913E
:1006A0002A028F5F80932A0281110BC00E944404AA
:1006B00090E09093070180930601892B11F40E942A
:1006C000D9030BE313E01A821B828A81895F898335
:1006D0008A810E94A90289810E94A9028A810E94BE
:1006E000FC02F80191918F01F12C891721F03197CB
:1006F0008083FF24F39489810E94FC02F801968193
:100700008917B9F0868381E08F29FB81F82BFB8361
:100710000E949A028A818F5F8A838730B1F68B812B
:100720000F900F900F90DF91CF911F910F91FF903D
:10073000089580E0E9CF0E94440490E0909307017F
:10074000809306010E949A020E948D02E9E4F3E080
:10075000119283E0E735F807D9F70895259A2D9A85
:100760000895269A2E9A0895279A2F9A08955698B2
:100770005E98089525982D98089526982E980895A6
:1007800027982F9808950E94B7030E94BA030E94E9
:10079000BD030C94C00390E090938900809388007F
:1007A00090938B0080938A0090938D0080938C00AF
:1007B00008950E94C3038FEF0E94CB030E94AE03F3
:1007C0002FEF80E792E0215080409040E1F700C099
:1007D00000000E94B1032FEF80E792E0215080409B
:1007E0009040E1F700C000000E94B4032FEF80E7C3
:1007F00092E0215080409040E1F700C000000E944C
:10080000BA032FEF80E792E0215080409040E1F75B
:1008100000C000000E94BD032FEF80E792E021504E
:1008200080409040E1F700C000000E94C0030C949B
:10083000C30389EA8093800089E080938100249833
:100840002C983F988AB18F7C8AB96E98479A8BB161
:1008500080638BB9769A0E94391A6093370370933C
:1008600038038093390390933A0367702FEF629FA8
:10087000C001112495958795959587950E94CB0386
:100880000E94D9030C94E50480E290E09093070164
:100890008093060180912B0281110EC00E94730C7F
:1008A00081E080932B022FEF83ED90E32150804075
:1008B0009040E1F700C0000064E670E080E40E9430
:1008C000790C9093070180930601892B09F04EC0A3
:1008D00064E670E080E00E94D50C9093070180935D
:1008E0000601892B09F042C064E670E080E00E94B6
:1008F000D50C9093070180930601892BB9F564E626
:1009000070E08FE30E94D50C90930701809306015D
:10091000892B61F50E94280D64E670E080E40E9456
:10092000790C9093070180930601892BF9F464E612
:1009300070E08CE00E94D50C909307018093060133
:10094000892BA1F464E670E080E00E94D50C9093BE
:10095000070180930601892B49F464E670E08FE378
:100960000E94D50C90930701809306010E94280DE8
:10097000809106010895CF93DF9300D000D0CDB7CA
:10098000DEB7109237031092380310923903109299
:100990003A0384E08061809337038091370390911C
:1009A0003803A0913903B0913A0389839A83AB83CA
:1009B000BC83BC01CD010E943D1A0F900F900F9097
:1009C0000F90DF91CF910C94491A0895CF93DF9344
:1009D00000D000D0CDB7DEB78091D4029091D5027F
:1009E000A091D602B091D70289839A83AB83BC834E
:1009F000BC01CD010E94C01989830E94B7030E94E7
:100A0000BA030E94BD030E94C0039981923061F035
:100A1000933091F09130C1F40F900F900F900F90A0
:100A2000DF91CF910C94AE030F900F900F900F9029
:100A3000DF91CF910C94B1030F900F900F900F9016
:100A4000DF91CF910C94B4030F900F900F900F9003
:100A5000DF91CF9108950F931F93CF938B018C3229
:100A60009105C9F1813E910509F065C0FB01C28184
:100A7000CC2359F081E08093330283819481909359
:100A8000320280933102C0E00BC080913002882393
:100A900061F081EE0E94740F1092330210923002C6
:100AA0008C2FCF911F910F91089583819481209174
:100AB000310230913202821B930B883C910560F722
:100AC00089E20E94DE0E89E20E94740F809130025A
:100AD000882311F3DECFFB01C281CC2351F081E0EA
:100AE00080932F028381948190932E0280932D0214
:100AF000CACF80912C02882341F080EE0E94740FAF
:100B000010922F0210922C02CBCF838194812091DE
:100B10002D0230912E02821B930B883C910580F7A9
:100B20008CE20E94DE0E8CE20E94740F80912C02F7
:100B3000882331F3E2CF80913302882371F08091D2
:100B4000300281110AC0FB018281882331F081EEDD
:100B50000E94DE0E81E08093300280912F02C1E07E
:100B6000882309F49DCFC0912C02C11199CFF801BF
:100B7000C281CC2339F080EE0E94DE0E81E08093AA
:100B80002C028ECFC82F8CCFCF93DF939C01FB011B
:100B90009A9581159F4160F5E901CC27D170D90163
:100BA000AA27B270B90166277470A901442758704A
:100BB00034FF10C080E1CD2B09F480E0AB2B09F0AD
:100BC0008062672B09F08064452B09F08068DF9113
:100BD000CF91099481E0CD2B09F480E0AB2B09F093
:100BE0008260672B09F08460452B89F38860EFCF22
:100BF000DF91CF910895CF93DF93EC01805E91094F
:100C0000089720F062E073E1209711F46DED7FE02A
:100C1000CE010E94C4058C2FDF91CF910C94DE0E83
:100C2000CF93DF93EC010E94740FCE01805E910997
:100C3000089720F069E073E1209711F464EE7FE0FB
:100C4000CE01DF91CF910C94C405CF93DF93D82FC1
:100C5000C92F0E94FB058D2F9C2FDF91CF910C9403
:100C6000100681E008950C942B0508950C94350628
:100C70001F93CF93DF9300D000D00F92CDB7DEB794
:100C800049835A836B833091620289819A81311141
:100C90001DC06623B9F02223A9F00E945618182F10
:100CA000682F89819A810E94FD1769817A81812F3D
:100CB0000F900F900F900F900F90DF91CF911F9199
:100CC0000C94FC060E942C18182FEFCF0E94561887
:100CD00069817A81EDCFFC01262F408151816281AB
:100CE000738184810C943806CF93DF93D82FC92F5A
:100CF00060E00E946B066D2F7C2FDF91CF910C94EA
:100D000036060E940B1A811102C00E94AC1A0E9482
:100D10000C0A0C9419040C94ED08282F2F7041F044
:100D2000822F90E02A3010F44D960895069708958A
:100D300087E290E0089508950E9426130E949B0682
:100D40002FEF84E39CE0215080409040E1F700C009
:100D500000000C94351C0F931F93CF93DF93EC018D
:100D600061E00E946B068C01BE010E94330688235D
:100D700059F1BE01C8010E94970A882329F1BE01DA
:100D8000C8010E94210B8823F9F0BE01C8010E940E
:100D9000760B8823C9F0BE01C8010E94490C882344
:100DA00099F08A81882339F001158CE5180751F0F4
:100DB0000F3D1C4579F0CE01DF91CF911F910F912E
:100DC0000C9431060E949C0680E0DF91CF911F9128
:100DD0000F9108950E94AC1AF7CF08950C94ED0678
:100DE00081E008950C94F006CF93C82F0E94EE0680
:100DF0008C2FCF910C94F206972F70E026E0929FF3
:100E0000600D711D1124FB0194E5899FE00DF11D1A
:100E10001124EE0FFF1FE455FF4F85919491089523
:100E2000CF93DF930E94FC060E941208EC0181150B
:100E300022E5920708F062C0811531E5930708F0BA
:100E4000D1C0883E910518F5803E9105B8F5883AE5
:100E5000910570F4853A910508F0BEC08130910586
:100E600069F10497813A910548F1D0E0C0E026C0CD
:100E7000885A91094797C8F7C85AD0E0CC0FDD1FB0
:100E8000CD53DE4F0990D881C02DD46417C0811591
:100E900040E59407B8F4C11580E4D80708F09FC076
:100EA000CF3FD10509F028F4C03FD105F0F2D0655D
:100EB00005C0CE019A9581159F41B8F6CE01DF910C
:100EC000CF910895F4E096958795FA95E1F78370B0
:100ED0002C2F26952695237040E2249F9001112403
:100EE000382B8C2F8370C1E0D0E002C0CC0FDD1F07
:100EF0008A95E2F7C22BD32BDC68E0CFC11589E5D8
:100F0000D807C8F5C11598E5D90708F083C0C11501
:100F100025E5D207F0F4C11534E5D30708F075C014
:100F20009C2F969596959E0123703327C115D34526
:100F300008F45DC0C1E0D0E002C0CC0FDD1F2A95EF
:100F4000E2F720E2929FC0011124C82BD92BDA6866
:100F5000B5CFCE0195558F3F910511F008F085CFA3
:100F60008C2F0E94AA08C82FD0E0DC2FCC27CC27DA
:100F7000DF71D062A3CFC1153CE5D307D0F4C11512
:100F80004BE5D40708F04BC0CE0199558F3F910532
:100F900011F008F06ACF8C2F8F700E94AA0834E0FD
:100FA000D695C7953A95E1F7CF70DC2FC82FD06959
:100FB00085CFCE0190568115904208F056CF8D2FE7
:100FC0008F710E94AA0890E0982F882788279F7128
:100FD0009C012C2BE901CDCFA497D0646FCFDF709B
:100FE000D06A6CCFD82FCC27C16FD06A67CFC1E051
:100FF000D0E002C0CC0FDD1F2A95E2F730E2939FCC
:10100000C0011124C82BD92B77CFDC2FCC27C46F7C
:10101000D06A54CFDC2FCC27C06FD06A4FCFDD27EA
:10102000D0664CCF803E910599F1C8F4813391058B
:1010300009F476C048F48932910509F46AC08A320D
:10104000910509F474C0089589339105D1F082386F
:101050009105B9F08533910509F454C00895843E93
:10106000910599F138F4823E9105F9F0833E91059E
:1010700009F10895863E910599F1873E9105B9F1F0
:101080000895209161032370A1F080EE90E008950F
:101090002091610320FD52C03091620330FF09C0EE
:1010A00024FF4FC090E080E004C02091610322FD46
:1010B000F7CF08952091610322FD46C0309162036D
:1010C00030FDE3CF24FFF5CFEDCF2091620321FF68
:1010D000F0CF8091610384FDE5CF87EE90E0089525
:1010E0002091610323FFE5CF24FDDCCFF6CF2091D3
:1010F000610323FD2CC03091620331FFE3CF84EE06
:1011000090E008952091610325FFD3CF89E290E01C
:1011100008952091610325FFCCCF85E390E00895E9
:101120002091610326FFC5CF8AE290E008952091C7
:10113000610326FFBECF81E390E0089589E390E04C
:10114000089583EE90E0089582EE90E0089586EE93
:1011500090E008959091610392FF06C0282F2871B6
:101160002830F9F4877F846093FF06C0282F287108
:101170002831F1F4877E84612091620320FF06C04C
:10118000382F38713830D9F4877F816021FF06C04D
:10119000282F28712831D1F4877E816194FD877EC4
:1011A0000895282F24712430F9F68B7F8860DCCFD6
:1011B000282F2471243101F78B7E8861DDCF382FF1
:1011C0003171313019F78E7F8860E0CF282F21717F
:1011D000213121F78E7E8861E1CF0C94E604E82F5F
:1011E000F0E0E75BFC4F8081089508950E9435038D
:1011F000EBE3F3E0A9E4B3E011921D9283E0E9345C
:10120000F807D1F78EE00E941A090C948106CF935B
:101210008BE393E00E944003C82F282F4EE069E43F
:1012200073E08BE393E00E94A4090E948B068C2F4D
:10123000CF910895CF93C82F90E00E9411288093FA
:10124000380290933902282FFC019BEF8E2F821BCE
:101250008C1710F0CF9108959193F8CF0F931F93AF
:10126000CF93DF93962F1092370210913802E12F1F
:10127000F091390230E0A62FB0E00BEFCBEFD0E0D9
:101280002E2F211B281738F030933702DF91CF9192
:101290001F910F91089520812B3F91F0422F50E034
:1012A000921780F0BD01641B750BAB01052E000C7D
:1012B000660B770B4E3151056105710550F00083C7
:1012C0003196DECFBE01641B750BAB014A0F5B1F6D
:1012D000EDCF31E0F5CFCF92DF92EF92FF920F93F7
:1012E0001F93CF93DF936B0110923A02E090380284
:1012F000F090390250913702FC0190E080E030E03C
:10130000841768F05093370230933A02DF91CF91FF
:101310001F910F91FF90EF90DF90CF900895E6011D
:10132000C80FD91F61917881761751F08701080F96
:10133000191FD8017C917B3F29F42C93688351E0DD
:101340000196DECF31E0FCCFDF92EF92FF920F9358
:101350001F93CF93DF93182F092FF62EE72EC42F5C
:10136000D22F0E94F61BAC016091350270913602BB
:10137000909336028093350230913402832F90E0AF
:10138000861B970B840F951F6BEF70E00E94E3277D
:10139000D82E8093340280913702882329F16D2D55
:1013A0008C2F0E942E09DD2379F02D2D4C2F6F2DCF
:1013B0007E2D812F902FDF91CF911F910F91FF9064
:1013C000EF90DF900C946B0980913702882369F3CA
:1013D00080913A028111E9CFDF91CF911F910F9156
:1013E000FF90EF90DF900895D111DFCFF1CFCF9331
:1013F000DF93EC01FB0197FF0BC08281882341F052
:101400000E94220ACE019F770E947A0A0E945C0AFB
:1014100081E0DF91CF9108958CE090E00E9439291E
:1014200090E0B0E0A0E08093570390935803A0931E
:101430005903B0935A030895609157038CE090E0EC
:101440000C944D290E943D0D8695817080935C031C
:1014500090915703913029F4882319F089E30E9471
:10146000CA0F0E94191980935B030E942D19809165
:1014700057038230A9F030F481110DC082EE0E9432
:10148000DE0E02C0843099F08FE39CE90197F1F7FA
:1014900000C00000089588E193E00E942506F4CF83
:1014A00082EE0E94DE0E87E50E94CA0FEDCF86EE27
:1014B0000E94CA0F88E1F8CF80915703823019F05B
:1014C00030F481110AC082EE0E94740F02C0843091
:1014D00079F080915B030C942A198CE20E94CA0F68
:1014E00080915C038823A9F389E30E94CA0FF1CF9E
:1014F00088E2FBCF0F931F93CF93DF938C01CCE057
:10150000D0E0C8010C2E02C0969587950A94E2F7A8
:101510008F700E948D060E9425062497CC3F8FEF86
:10152000D80779F7DF91CF911F910F9108950F930D
:101530001F93CF93DF93EC018B01FB018281882302
:1015400061F00E941919CE01825E9C45853091059B
:1015500020F4809357030E941C0AB801CE01DF914A
:10156000CF911F910F910C94F7090F931F93CF9375
:10157000DF93C42FD22FFC0182818823C9F04093CE
:101580003D020E94F61B90933C0280933B0280E256
:101590008C0F883008F050C0C77081E001C0880F00
:1015A000CA95EAF7DF91CF911F910F910C94DD0F4F
:1015B00010913D02141335C080913B0290913C0282
:1015C0000E94021C883C910560F5C0E2CD0F1D17FA
:1015D000B9F080E2810F883040F4177081E001C0DB
:1015E000880F1A95EAF70E94E40FC83048F481E0AA
:1015F0009D2F977001C0880F9A95EAF70E94DD0F22
:10160000802F0E94CA0FC830B8F4D77081E001C0A3
:10161000880FDA95EAF7DF91CF911F910F910C9423
:10162000E40F80E28C0F883038F4C77081E001C08D
:10163000880FCA95EAF7EFCFDF91CF911F910F91F5
:1016400008950F939C01CB01243F4CE53407A1F191
:1016500090F4293DFCE53F0749F12A3D4CE534076C
:10166000E9F1283D3C45C1F0FC0182818823E1F18C
:1016700010923D0219C0263FFCE53F0719F1273FB4
:101680004CE5340729F1253F3C4571F707E225EE8B
:1016900044EE65EF7CE505C006E221EE41EE68ED23
:1016A0007CE50E94B50A80E00F91089507E225EEDF
:1016B00045EE69ED7CE5F5CF06E221EE40EE64EF04
:1016C0007CE5EFCF06E221EE42EE66EF7CE5E9CF66
:1016D00007E225EE46EE67EF7CE5E3CF08E221E086
:1016E00045EE6AED7CE5DDCF81E0DECFCF93DF9381
:1016F000EC01FB018281882309F4C9C0C631FCE5F5
:10170000DF07E0F4C2309CE5D907F0F00E941E1A12
:101710009093620380936103C631ECE5DE0720F508
:10172000C230FCE5DF0798F4809161039091620379
:101730000E942C1A0E94261380E006C09E012B5F97
:101740003C452930310510F3DF91CF910895FE011A
:10175000E350FC45809161038160E331F10588F439
:10176000ED57F64D0C940B28CB5FDC45C930D10505
:10177000D8F6CA56D64DFE010C940B288091610311
:10178000826080936103D0CF809161038460F9CF40
:10179000809161038860F5CF8091620381608093BE
:1017A0006203C2CF809162038260F9CF80916103AE
:1017B0008061E7CF809161038062E3CF8091610314
:1017C0008064DFCF0E942613809161038068D9CFA7
:1017D000809161038C60D5CF809162038360DFCFFD
:1017E000809161038E7FCDCF809161038D7FC9CFC2
:1017F000809161038B7FC5CF80916103877FC1CFCB
:10180000809162038E7FCBCF809162038D7FC7CFA3
:10181000809161038F7EB5CF809161038F7DB1CFC1
:10182000809161038F7BADCF0E942613809161036D
:101830008F77A7CF80916103837FA3CF80916203CD
:101840008C7FADCF8091610382FB992790F921E0D5
:10185000922790FB82F990FB83F993CF80916203EA
:10186000982F909591708E7F892B90FB81F997CF5F
:101870000E94261390916103892F97FB87F9805866
:1018800080CF81E00E94AE1A4FCF80E0FBCF81E095
:101890005BCFCF93DF93EB0186319C4511F50E941E
:1018A00019199A81992399F08A7A91E009F490E0C4
:1018B00090933E02811109C089E20E94CE180E94D5
:1018C0005D1980E0DF91CF91089585E3F6CF809197
:1018D0003E02811104C089E20E94D518F0CF85E351
:1018E000FBCF81E0EFCF1092B9008CE08093B8007D
:1018F0000895EF92FF920F931F93CF93DF93182FCA
:10190000EB011092BC0084EA8093BC000E94F61B9D
:101910007C018091BC0087FF27C08091B900887F3F
:10192000883029F08091B900887F8031D9F51093F3
:10193000BB0084E88093BC000E94F61B8C01809160
:10194000BC0087FF24C02091B900287F90E080E090
:101950002831B1F081E090E0203411F490E080E093
:101960009195819591090CC0CF3FDC0791F20E94BF
:10197000F61B8E199F098C179D0758F28EEF9FEF6B
:10198000DF91CF911F910F91FF90EF900895CF3F7E
:10199000DC07A9F20E94F61B801B910B8C179D0798
:1019A00070F2ECCF8FEF9FEFEBCF0F931F93CF939E
:1019B000DF93EB018093BB0084E88093BC000E941E
:1019C000F61B8C018091BC0087FF11C02091B900EB
:1019D000287F81E090E0283211F490E080E091953A
:1019E00081959109DF91CF911F910F910895CF3F7C
:1019F000DC0741F30E94F61B801B910B8C179D079F
:101A000008F38EEF9FEFEECF0F931F93CF93DF93EB
:101A1000EC0184E88093BC000E94F61B8C0180914D
:101A2000BC0087FF08C08091BB0090E0DF91CF91A0
:101A30001F910F910895CF3FDC0789F30E94F61B99
:101A4000801B910B8C179D0750F38EEF9FEFEECF0D
:101A500084E98093BC0008959093440280934302EC
:101A60000895E0914302F0914402309721F00190F3
:101A7000F081E02D099480E00895E0914302F09117
:101A80004402309711F480E008950190F081E02D38
:101A900009950895DC01E0914302F09144023097EA
:101AA00099F080911A01882351F08091610387FF9A
:101AB00006C08C9111968C93119785E08C930280CF
:101AC000F381E02DCD0109940895DC01E0914302FA
:101AD000F0914402309739F082E08C930480F581D4
:101AE000E02DCD01099408952091410230914202E8
:101AF0002817390771F09093420280934102E091D8
:101B00004302F0914402309721F00680F781E02DE6
:101B10000994089520913F02309140022817390717
:101B200071F09093400280933F02E0914302F09164
:101B30004402309721F00084F185E02D0994089546
:101B400085B7806885BF85B7806885BF089508958B
:101B500008950C94A70D08950C94AB0D0E94A00D50
:101B60000E94A80D0C94A90D81E008950C94B40D69
:101B7000089508950E94ED1B0E94F6080E94671CBC
:101B80000C94AC0DBF92CF92DF92EF92FF920F9325
:101B90001F93CF93DF9300D000D00F92CDB7DEB765
:101BA0000E94B80D0E94B90D0E9407090E94B60D4F
:101BB000882309F45DC086E4C82E82E0D82E10E0A8
:101BC00000E0B02E802F0E94EF08F82EF601E19081
:101BD0006F01E81609F446C08091020381FD0E945E
:101BE000F5089E2D9F2580E0EE24E394292F2E21D9
:101BF000A9F18983BA82FE2081E009F480E08B8319
:101C00000E94F61B8160782F9D838C8349815A81C5
:101C10006B818D810E94930EF801EA5BFD4F8081FC
:101C2000E826E0820E94251E0E94310D9091450217
:101C3000891779F10E94310D809345020F900F9022
:101C40000F900F900F90DF91CF911F910F91FF9008
:101C5000EF90DF90CF90BF900C94F4068F5FEE0C66
:101C6000863021F60F5F1F4F0E30110509F0A9CF06
:101C70008FEF89838A831B820E94F61B8160782FF5
:101C80009D838C8349815A816B818D810E94930E43
:101C9000C9CF0F900F900F900F900F90DF91CF91C1
:101CA0001F910F91FF90EF90DF90CF90BF9008951C
:101CB000CF93DF93DC019C91692F70E021E030E04D
:101CC000A90102C0440F551F9A95E2F7CA01119667
:101CD0004C91119750E0EA01CC5ADD4F28811296C1
:101CE0003C9112973323C9F0309164023323C1F041
:101CF00096E0949FF001959FF00D1124E60FF71FD9
:101D0000EE0FFF1FE55EFE4F408151814D935C93C6
:101D1000822B8883DF91CF910895322F3823E6CF2D
:101D200080958223F6CFCF93DF93CDB7DEB72B9785
:101D30000FB6F894DEBF0FBECDBF4F8358876987BB
:101D40007A878B878A859B85892B21F0CA01892315
:101D50008F3FD9F41E8285E0FE013796DE01119691
:101D600001900D928A95E1F749815A816B817C81BE
:101D70008D819E810E9489152B960FB6F894DEBF47
:101D80000FBECDBFDF91CF910895CE0107960E947F
:101D9000580EE0CFFC01808191810E9498189295A5
:101DA0009F70963051F4863F41F08091640291E03B
:101DB000892780936402909363020895CF93C82F7C
:101DC000882309F48FC08238C1F40E94310D81FD4F
:101DD00089C089E30E94CE180E945D192FEF31EE71
:101DE00084E0215030408040E1F700C0000089E3EA
:101DF0000E94D518CF910C945D198338A1F40E94EC
:101E0000310D80FD6FC083E50E94CE180E945D19E0
:101E10009FEF21EE34E0915020403040E1F700C0C8
:101E2000000083E5E5CF8438A1F40E94310D82FDE6
:101E300059C087E40E94CE180E945D198FEF91EE81
:101E400024E0815090402040E1F700C0000087E48A
:101E5000CFCF8CEF8C0F813AB8F48C2F0E94A32047
:101E6000811140C06C2F80910801909109010E945E
:101E7000C71A882329F08C2F0E94D5180E945D195B
:101E80008C2F0E94CE18B6CF80E28C0F883048F499
:101E9000C77081E001C0880FCA95EAF70E941C193B
:101EA000A9CF8BE58C0F833038F42C2F2452330BC1
:101EB000C901CF910C94740DE8E5EC0FE73150F4B3
:101EC000F0E0EE0FFF1FEF50FE4F80819181CF9128
:101ED0000C948A0DC03F30F08C2F0E94201DCF91B2
:101EE0000C940B1ECF910895882309F452C08238B8
:101EF00071F40E94310D81FF4CC089E30E94CE181D
:101F00000E945D1989E30E94D5180C945D198338ED
:101F100059F40E94310D80FF3CC083E50E94CE1829
:101F20000E945D1983E5EFCF843859F40E94310D8A
:101F300082FF2FC087E40E94CE180E945D1987E4BB
:101F4000E2CF9CEF980F913AF0F290E2980F983020
:101F500050F4877091E001C0990F8A95EAF7892FB4
:101F60000E942219D2CF9BE5980F933020F490E085
:101F700080E00C94740D98E5980F973120F490E070
:101F800080E00C948A0D803F20F00E94881D0C9404
:101F90000B1E0895CF93C82F0E94DE0EC93349F45B
:101FA0002FEF87EE93E0215080409040E1F700C092
:101FB00000008C2FCF910C94740F882321F00E9485
:101FC0001C190C945D190895882321F00E94221990
:101FD0000C945D1908956F927F928F929F92AF92A9
:101FE000BF92CF92DF92EF92FF920F931F93CF9306
:101FF000DF9300D000D000D0CDB7DEB76C016D8389
:10200000172FFC01058102950F7062806E826110AE
:102010000E943E190E941219E82E8823C1F07E808A
:10202000772009F1812F807F803449F09D81905E77
:102030009830C8F0803619F42D81263FA1F082E057
:102040000E94A8190E94121991E0E82EE926812F1A
:1020500082958F70A82EB12C8C30C0F5F501E15619
:10206000F64D0C940B28E12CF2CF012F0F70812F2D
:10207000807F11F00295007F6E806620B1F0002312
:1020800061F08D81805E883018F07D80711009C00C
:10209000802F0E941C190E945D198D810E94DE0E06
:1020A00015C0802F0E943019F6CF8D810E94740FC9
:1020B000002361F08D81805E883018F08D80811062
:1020C00043C0802F0E9422190E945D1928E0A21AA5
:1020D000B10884E0A816B10420F40E94310D0E94DA
:1020E000F4066E80662041F0107F103619F42D81C1
:1020F000263F11F00E940519EE2009F42FC20E941C
:10210000E81880FD2BC2F60112820E94E2180E949C
:10211000ED16C6010E94DA120E94E21826960FB64A
:10212000F894DEBF0FBECDBFDF91CF911F910F910D
:10213000FF90EF90DF90CF90BF90AF909F908F90E7
:102140007F906F900C941E17802F0E943619BCCF81
:10215000212F2F70F22E812F807F803219F0F29480
:1021600080EFF8226D80662049F0262D213029F17C
:102170008E80882069F1002331F18FCF6E80662038
:1021800081F0011106C00E9444198F290E94DD0FC1
:102190009DCF0130C1F70E9444198F290E944A192E
:1021A00095CF011106C00E9453198F2D0E94E40F94
:1021B0008DCF013009F48ACFF6CF7E80772029F0C9
:1021C000023008F083CF8F2DE1CF01117FCFEDCF0B
:1021D000002359F32D81293349F48FEF97EEE3E083
:1021E00081509040E040E1F700C000008D810E94E6
:1021F000740F6CCF812F86958695837071F0813036
:1022000009F064CF7E808D81912F9370711002C090
:1022100090E080E00E948A0D59CF6E808D81912FD1
:102220009370611002C090E080E00E94740D4ECF68
:102230008E808D81882029F00E94201D0E940B1E17
:1022400045CF0E94881DFACF812F837009F059C0B5
:102250009E8091103BCF2D81229526952770220FCD
:10226000220F4D814F7050E070E060E0022E04C0FC
:10227000440F551F661F771F0A94D2F76D8080E0C8
:1022800090E0DC0164FE0FC08FE090E0A0E0B0E0E1
:1022900004C0880F991FAA1FBB1F2A95D2F78095EB
:1022A0009095A095B095212F2695269523703C01F9
:1022B0004D01642A752A862A972A69827A828B823E
:1022C0009C82223081F02330A9F0213029F0C40112
:1022D000B3010E946316FACE69817A818B819C8159
:1022E0000E943B16F3CE69817A818B819C810E948A
:1022F0008B16ECCE69817A818B819C810E94391684
:10230000E5CE7E808695772011F0812F817088231D
:1023100009F4DCCE2D81229526952770220F220FFD
:102320004D814F7050E070E060E0022E04C0440F19
:10233000551F661F771F0A94D2F78D8080E090E0CA
:10234000DC0184FE0FC08FE090E0A0E0B0E004C0AC
:10235000880F991FAA1FBB1F2A95D2F780959095C9
:10236000A095B095212F2695269523703C014D010F
:10237000642A752A862A972A69827A828B829C82AD
:10238000223081F02330A9F0213029F0C401B301BB
:102390000E94AC179BCE69817A818B819C810E94BF
:1023A000841794CE69817A818B819C810E94D41795
:1023B0008DCE69817A818B819C810E94B71686CEF1
:1023C000012F0F707E80772029F0802F0E94ED165C
:1023D0008D81DCCE8D810E94E40F802F0E941E171C
:1023E00075CE2D81223FB1F168F4203FE9F0213F05
:1023F00049F17E80772009F448C001114ECE812F2B
:102400008F7125C08D81833F59F1843F91F76E8094
:10241000662089F1012F0F71802F0E94ED1663E075
:10242000802F0E94931952CE6E80662039F00111E0
:102430004DCE812F8F710E94531748CE023008F085
:1024400045CEF7CF812F8F717E80772039F20E94A1
:10245000ED163CCE812F8F718E808820C1F3BECFC8
:102460009E80992029F0812F8F710E94C8162ECE50
:102470000E94C3162BCE81E00E94A819023008F4F6
:1024800025CE82E00E94A81921CE0111A3CE812F72
:102490008F71A4CFED81E05FE730C8F5F0E0E5553E
:1024A000F64D0C940B286E80662009F40FCE8091B7
:1024B000640291E089278093640208CE7E80709246
:1024C000640204CE81E08E808825F5CF9E80911035
:1024D000FDCD81E0F0CF6E806110F8CD10926402E6
:1024E000F5CD7E80772019F00E94EC18EFCD0E9488
:1024F000F818ECCD8E80882039F080916302882313
:10250000B1F210926302E2CD002389F2DFCD809117
:1025100063020023B1F0882341F08091640291E0CE
:10252000892780936402109263029E808D819110AE
:10253000B5CD0E94740F86E0F60111928A95E9F7F5
:10254000C5CD882309F4C2CD6E806110BFCD8091C6
:10255000640291E0892780936402D3CF26960FB658
:10256000F894DEBF0FBECDBFDF91CF911F910F91C9
:10257000FF90EF90DF90CF90BF90AF909F908F90A3
:102580007F906F9008950F931F93CF93DF93EC018B
:10259000688179818A810E94A4188C010E94FC17AD
:1025A0000E943816B801CE01DF91CF911F910F9193
:1025B0000C94EB0FCF93DF93EC018B819C81892BE3
:1025C00029F08881998189238F3F59F4DF91CF9138
:1025D0000895CE010E94C312CE01DF91CF910C94D9
:1025E0007406CE010E94AB068111F3CF0E9412192E
:1025F000882361F38A81882349F382E0DF91CF91B8
:102600000C94A819882321F00E9430190C945D19AC
:102610000895882321F00E9436190C945D190895BD
:102620000E943E190E9441190E945D190E94351FA7
:102630000E940B1E90E080E00E94740D90E080E00C
:102640000C948A0D0E94DC180C9410130E942D1912
:102650000C942213282F892F82958F70903C80F440
:102660008A30B0F4843020F4823090F480E0089511
:102670008630E1F781E0283E88F0213FB9F70EC0AF
:102680008C3011F08F3091F793FB882780F90895F3
:1026900081E0203F39F018F4283E40F70895243FA8
:1026A00029F7FCCF08950E9498180C942A13CF9311
:1026B000DF9300D000D00F92CDB7DEB70F900F9010
:1026C0000F900F900F90DF91CF910895CF93DF93EC
:1026D00000D000D000D0CDB7DEB726960FB6F89464
:1026E000DEBF0FBECDBFDF91CF9108951F93CF9373
:1026F000DF93E091650216E0809166028E1304C0BC
:10270000DF91CF911F910895CE2FD0E01E9FF00151
:102710001124E959FD4F4081518162817381848187
:1027200095810E946613FE013196E770E5CF4091D6
:102730009702509198026091990270919A0280914B
:102740009B0290919C020C9466131F93CF93DF938E
:1027500080919C02807FA9F480919902882389F05E
:1027600080916502C0916602609197027091980213
:10277000A0919A02B0919B02D62FD72316E0C813DE
:1027800004C0DF91CF911F91089590E0109711F050
:10279000DF3F19F401968770F2CF189F9001199FBF
:1027A000300D1124F901E959FD4F41814713F2CF52
:1027B00040814613EFCF42814111ECCF43815481D8
:1027C0004A1B5B0B483C510528F780919C028F7097
:1027D000806180939C02F901E459FD4F80818F70E4
:1027E0008061808387E992E00E94DA12DF91CF91C5
:1027F0001F910C947613AF92BF92CF92DF92EF921B
:10280000FF920F931F93CF93DF93CDB7DEB72B9734
:102810000FB6F894DEBF0FBECDBF8C0185E0F80186
:10282000DE01179601900D928A95E1F7F80140813B
:102830005181E28087E9C82E82E0D82E60919A0209
:1028400070919B026115710509F444C19091970242
:1028500020919802822F89238F3F09F43BC1A380E6
:10286000B480F0909902F501E61BF70BFF2009F404
:10287000E0C080919C02382F307FE83CF10508F0E1
:10288000B2C0311179C0FE2C251323C0941321C08E
:10289000E1101FC08F70806180939C020E9497138B
:1028A000C6010E94DA1280919C02F80185838F2D67
:1028B0002B960FB6F894DEBF0FBECDBFDF91CF9140
:1028C0001F910F91FF90EF90DF90CF90BF90AF904E
:1028D0000895AB2829F0842F85238F3F09F016C176
:1028E00080E0F82FF170DF2EE09165022091660202
:1028F00036E080FD1CC0EE20D1F280919C02816008
:1029000080939C02F12CD3CF8E2F90E03E9FF0015C
:102910001124E959FD4F6181651306C0608164137C
:1029200003C06281E612E7CFFC013196E770E21343
:10293000EBCF4F8358878F8198850E949818292F55
:1029400022952F70903260F0225F2F70223078F441
:102950009F7051F0F8019581907F31F4D12C0AC01D
:102960009F7011F08823D1F3805E8830B8F3C801DE
:102970000E94DA12FD2C9BCF251306C0941304C0CD
:10298000F801EE2009F470C04F8358878F81988535
:102990000E945313882319F1EE2009F180919C02C3
:1029A000803270F020919702309198023A83298307
:1029B0001B82BD82AC828E83CE0101960E94DA1208
:1029C00086E0F801A7E9B2E001900D928A95E1F75F
:1029D0000E94A5130E949713FF24F39468CFC801A7
:1029E0000E94DA12F9CF311113C07A2DBB86AA8664
:1029F0006E2D8B850E94571387E992E00E94DA12B0
:102A000086E0F60111928A95E9F70E9497137ACF32
:102A10002513BACF9413B8CFE110B6CFF801858350
:102A2000C8010E94DA1286E0F60111928A95E9F750
:102A30003ECFE83CF10508F040C0FE2CEE2079F2D4
:102A400025132AC0941328C080919C0280FD1BC0CE
:102A5000982F907FC1F0F8018583903F31F0982F37
:102A6000907F905F8F70892B8583C8010E94DA1256
:102A700086E0F801A7E9B2E001900D928A95E1F7AE
:102A80000E94971314CF86E0F801A7E9B2E0019005
:102A90000D928A95E1F70BCF4F8358878F819885E8
:102AA0000E94531381118CCF80919C02816080938E
:102AB0009C02C8010E94DA12FACE7A2DBB86AA8641
:102AC0006E2D8B850E94571386E0F60111928A9530
:102AD000E9F7D6CFEE2009F482CF4F8358878F8154
:102AE00098850E945313F82E882309F478CF86E046
:102AF000F801A7E9B2E001900D928A95E1F787E924
:102B000092E00E94CA0E0E94A513BACF81E08E25E2
:102B1000E8CE1F93CF93DF93CDB7DEB72C970FB6D8
:102B2000F894DEBF0FBECDBF4F83588769877A8781
:102B30008B879C87CE0107960E94FB13882369F040
:102B40008A859B85892B39F04F815885842F852371
:102B50008F3F09F077C016E065C086E0FE0137962A
:102B6000DE01119601900D928A95E1F76A857B85C9
:102B70006115710581F35F814885842F85238F3F1F
:102B800051F32091660230E0C901019687709927C0
:102B9000E0916502E817190671F40E94261310925D
:102BA00066021092650286E0E7E9F2E0DF011D921D
:102BB0008A95E9F7D0CF59834A837D836C8396E069
:102BC000929FD001939FB00D1124A959BD4FFE01D2
:102BD000319601900D929A95E1F7809366020E94DA
:102BE0007613B9CF819FC001112489599D4F0E944E
:102BF000FB138823E9F0E09165021E9FF001112488
:102C0000E959FD4F408151816281738184819581B1
:102C10000E9466138091650290E001968770992763
:102C20008093650280916502909166028913DACFE4
:102C30002C960FB6F894DEBF0FBECDBFDF91CF91BB
:102C40001F91089569857A858B859C850E946613FE
:102C500082CF08950C9429160E942A166093D802F8
:102C60007093D9028093DA029093DB020C941013D4
:102C700008950C942C16CF93DF9300D000D0CDB7DD
:102C8000DEB769837A838B839C838091D80290918D
:102C9000D902A091DA02B091DB0229813A814B81FD
:102CA0005C81282B392B4A2B5B2B29833A834B835E
:102CB0005C83CA01B9010F900F900F900F90DF91C4
:102CC000CF910C942C16CF93DF9300D000D0CDB7CA
:102CD000DEB769837A838B839C838091D80290913D
:102CE000D902A091DA02B091DB0229813A814B81AD
:102CF0005C81282339234A235B2329833A834B832E
:102D00005C83CA01B9010F900F900F900F90DF9173
:102D1000CF910C942C16CF93DF9300D000D0CDB779
:102D2000DEB769837A838B839C838091D8029091EC
:102D3000D902A091DA02B091DB0229813A814B815C
:102D40005C81282739274A275B2729833A834B83CD
:102D50005C83CA01B9010F900F900F900F90DF9123
:102D6000CF910C942C160C9429160C94B3160E9437
:102D7000B5166093D4027093D5028093D6029093D7
:102D8000D7020C94101360E070E0CB010C94B716DE
:102D90000F931F93CF93DF9300D000D0CDB7DEB752
:102DA00041E050E060E070E08A019B0104C0000F48
:102DB000111F221F331F8A95D2F709831A832B8391
:102DC0003C83C901B8010F900F900F900F90DF91D5
:102DD000CF911F910F910C94B7160F931F93CF9320
:102DE000DF9300D000D0CDB7DEB741E050E060E027
:102DF00070E004C0440F551F661F771F8A95D2F7F5
:102E00008091D4029091D502A091D602B091D702C0
:102E10008A019B01082B192B2A2B3B2B09831A8330
:102E20002B833C83C901B8010F900F900F900F9036
:102E3000DF91CF911F910F910C94B7160F931F93B1
:102E4000CF93DF9300D000D0CDB7DEB741E050E0A4
:102E500060E070E004C0440F551F661F771F8A951D
:102E6000D2F740955095609570958091D4029091DD
:102E7000D502A091D602B091D7028A019B01082306
:102E800019232A233B2309831A832B833C83C901FB
:102E9000B8010F900F900F900F90DF91CF911F917D
:102EA0000F910C94B7160F931F93CF93DF9300D01D
:102EB00000D0CDB7DEB741E050E060E070E004C084
:102EC000440F551F661F771F8A95D2F78091D40251
:102ED0009091D502A091D602B091D7028A019B01B0
:102EE000082719272A273B2709831A832B833C832A
:102EF000C901B8010F900F900F900F90DF91CF9103
:102F00001F910F910C94B716CF93DF9300D000D090
:102F1000CDB7DEB769837A838B839C838091D4029B
:102F20009091D502A091D602B091D70229813A8121
:102F30004B815C81282B392B4A2B5B2B29833A83CD
:102F40004B835C83CA01B9010F900F900F900F90D3
:102F5000DF91CF910C94B716CF93DF9300D000D0C0
:102F6000CDB7DEB769837A838B839C838091D4024B
:102F70009091D502A091D602B091D70229813A81D1
:102F80004B815C81282339234A235B2329833A839D
:102F90004B835C83CA01B9010F900F900F900F9083
:102FA000DF91CF910C94B716CF93DF9300D000D070
:102FB000CDB7DEB769837A838B839C838091D402FB
:102FC0009091D502A091D602B091D70229813A8181
:102FD0004B815C81282739274A275B2729833A833D
:102FE0004B835C83CA01B9010F900F900F900F9033
:102FF000DF91CF910C94B7160895292F220FE22F5D
:10300000E90FEE0FE80F8E2F877041E001C0440FEB
:103010008A95EAF7E695E695E69585E0E89FF00162
:103020001124E356FD4F30E020E070E05191DF01C4
:103030001197CB01022E02C0969587950A94E2F76C
:10304000817081958527842385278C932F5F3F4F3F
:103050002530310559F70895292F220FE22FE90F66
:10306000EE0FE80F9E2F9770E695E695E69585E0C2
:10307000E89FF0011124E356FD4F50E040E080E06E
:10308000219130E0092E02C0369527950A94E2F787
:1030900021703327042E01C0220F0A94EAF7822BF5
:1030A0004F5F5F4F4530510559F70895BF92CF925A
:1030B000DF92EF92FF920F931F93CF93DF938C01D8
:1030C000C090D402D090D502E090D602F090D70202
:1030D0008091D8029091D902A091DA02B091DB02DE
:1030E000C82AD92AEA2AFB2ACFE1D0E0BC2ED70190
:1030F000C6010C2E04C0B695A795979587950A949E
:10310000D2F780FD0EC0219788F7B12C8B2DDF916F
:10311000CF911F910F91FF90EF90DF90CF90BF90D4
:103120000895B8018C2F0E941007019761F3EECF2C
:10313000CF93DF93D82FC92F0E9456186D2F7C2F65
:10314000DF91CF910C9410071F93CF93DF93162F2D
:10315000D72F90916202992339F0862F972FDF9114
:10316000CF911F910C949818882391F0862F972F58
:103170000E945618C82F682F812F9D2F0E94FD177F
:10318000612F7D2F8C2FDF91CF911F910C94100711
:10319000862F972F0E942C18C82FF2CF682F80916E
:1031A0000801909109010C944B1B682F8091080134
:1031B000909109010C94561B80910801909109018E
:1031C0000C94611B8091DD02859585958595089508
:1031D0008091DD028770089582E08093DC0281E0B7
:1031E0008093640208951092DC02109264020895A4
:1031F0008091DC02823021F481E08093DC0208952A
:10320000833011F40C94F31808958091DC0282301D
:1032100021F483E08093DC020895813011F40C9452
:10322000F31808959091DD02977081E009F480E031
:10323000089580910103089590910103982B909334
:1032400001030895982F909580910103892380931D
:1032500001030895809301030895109201030895D6
:1032600090910003982B909300030895982F9095C8
:103270008091000389238093000308951092000336
:1032800008951092FF0208958091DE020895089536
:103290000C9447199091DE02981721F08093DE027A
:1032A0000C94481908958091DE02882329F0109229
:1032B000DE0280E00C9448190895E0910801F09135
:1032C0000901809101038083E0910801F0910901D7
:1032D000808190910003892B8083E0910801F09117
:1032E000090180819091FF02892B80839091DE02F9
:1032F000992381F0E0910801F09109018081892BE7
:10330000808380910801909109010E94B31A811174
:103310000E94531980910801909109010C944A0D63
:1033200008950C94901998E0899F90011124622BC4
:103330006093DD020E94ED168091DD0285958595F2
:1033400085950C9491191092DD0280E00C949119EE
:103350009091DD02809589238093DD02282F2770CC
:1033600071F4282F082E000C330B9217130639F036
:103370008595859585950E941E170C94A31908952F
:103380000F931F93462F572FBC01CB01AA27BB27B2
:103390000097A105B105E9F1AC01BD0180E1052F60
:1033A000162F272F3327011511052105310519F097
:1033B000885FB901A8018A019B01F4E03695279541
:1033C00017950795FA95D1F70115110521053105D6
:1033D00019F08C5FB901A8018A019B01E2E03695E2
:1033E000279517950795EA95D1F701151105210540
:1033F000310519F08E5FB901A8017695679557954B
:103400004795452B462B472B09F08F5F1F910F9156
:10341000089580E0C4CF90E080E00E9447299C019D
:1034200081E02C3E3E4F09F080E0089582E090E07C
:103430000C94392983E090E00C943929CF9384E0EF
:1034400090E00E943929C82F81E290E00E9439293A
:10345000982F8C2FCF910895CF93682FC92F84E098
:1034600090E00E944D296C2F81E290E0CF910C9466
:103470004D298FE090E00C944129AB01BC018FE015
:1034800090E00C945F29AB01BC0183E190E00C94C7
:103490005F2960E070E0CB010C94431A6CEE7EEF84
:1034A00090E080E00E946B2960E082E090E00E9462
:1034B0004D2960E083E090E00E944D291092D802EF
:1034C0001092D9021092DA021092DB0260E084E0DE
:1034D00090E00E944D2960E081E290E00E944D2939
:1034E00060E085E090E00E944D2960E086E090E099
:1034F0000E944D296FEF87E090E00E944D2940E047
:1035000050E0BA0188E090E00E945F2960E08DE021
:1035100090E00E944D2940E050E0BA0188E190E03F
:103520000E945F2960E087E190E00E944D2940E021
:1035300050E0BA018CE190E00E945F2960E080E2F7
:1035400090E00E944D2940E050E0BA0188E190E00F
:103550000E945F290C94BB040C944E1A682F8EE0D5
:1035600090E00C944D29FC01329680911A01882339
:1035700021F0809161039EE187FF96E080E0915009
:1035800008F4089521912223D1F38F5FF8CF9C0195
:10359000662301F180911A018823F1F08091610383
:1035A00087FF1AC0462F469546954695603F90F492
:1035B000677081E090E002C0880F991F6A95E2F77A
:1035C000240F311DF901228130E02823392381E0C5
:1035D000232B71F480E00895F9013296285F3F4F64
:1035E0008191861721F0E217F307D1F7F3CF81E03D
:1035F00008959C01FC0132968FEF90E041914617AF
:1036000051F08F3F19F4411101C0892F9F5F96300F
:10361000A9F78F3F09F40895280F311D87FD3A95CA
:10362000F901628308959C01FC013296285F3F4FA7
:103630008191861303C0DF0111971C92E217F307F3
:10364000B9F70895E62FE695E695E695603F68F4AC
:10365000E80FF92FF11D677021E030E001C0220F63
:103660006A95EAF78281822B82830895E62FE69598
:10367000E695E695603F70F4E80FF92FF11D67704D
:1036800081E090E001C0880F6A95EAF78095928109
:1036900089238283089520911A01222329F0209101
:1036A000610327FD0C94221B0C94F91A20911A0136
:1036B000222329F02091610327FD0C94361B0C94E2
:1036C000131BFC01329680911A01882351F08091DE
:1036D000610387FF06C08EE1DF011D928A95E9F73D
:1036E000089586E0F9CF08950C94731B0E94741B13
:1036F00080916703843049F11092030388E190E0E0
:1037000020E40FB6F894A895809360000FBE209334
:10371000600080E00E94F4060E94741B83B7817FE2
:10372000846083BF83B7816083BF7894889583B7B3
:103730008E7F83BF0FB6F894A89580916000886152
:1037400080936000109260000FBE08950895CF939B
:103750000E949B030E9407090E94A61BC0E08C2FB9
:103760000E94EF08811105C0CF5FCE30C1F7CF9125
:10377000089581E0FCCF08950C94BB1B0E94261392
:103780000E94310D0E94F4060C94BC1B1F921FB6C0
:103790001F9211248F939F93AF93BF938091030344
:1037A000811113C080915D0390915E03A0915F032E
:1037B000B09160034196A11DB11D80935D0390936C
:1037C0005E03A0935F03B0936003BF91AF919F919D
:1037D0008F911F901FBE1F90189582E084BD93E0CB
:1037E00095BD9AEF97BD80936E0008952FB7F8941A
:1037F00080915D0390915E03A0915F03B09160039F
:103800002FBF08959C014FB7F89480915D0390916C
:103810005E03A0915F03B09160034FBF821B930BC7
:10382000089578941F921FB61F9211248F939F932F
:10383000AF93BF9380915D0390915E03A0915F036E
:10384000B09160030196A11DB11D80935D0390931B
:103850005E03A0935F03B0936003BF91AF919F910C
:103860008F911F901FBE1F901895F89481E0809350
:10387000E00080E28093D800E9ECF0E010828FE174
:103880009EE40197F1F700C000001DBA1092680095
:103890001CBC10BE1FBA10927A0010926E001092DB
:1038A0006F0010927100109272001082ECEBF0E049
:1038B000108214B817B81AB81DB810BA108215B80B
:1038C00018B81BB81EB811BA0C94003F0895CF93D6
:1038D000DF9300D000D0CDB7DEB70E940B1A811164
:1038E00002C00E94AC1A0E94161A809302030E9422
:1038F0001E1A90936203809361030E941A1A282F64
:1039000030E050E040E0CA01B9010E9439168091D0
:10391000D4029091D502A091D602B091D7028983AA
:103920009A83AB83BC83BC01CD010F900F900F90A5
:103930000F90DF91CF910C94B51680910C0380FF0E
:1039400012C060910E0185E0689FB0011124759549
:1039500067957595679560387105A8F561157105CE
:10396000A1F1862F089581FF09C060910E0185E0C5
:10397000689FB001112475956795EDCF60910E0198
:1039800082FD0AC080910B038823D1F090910D0134
:1039900060910E01891728F085E0689FB00111241D
:1039A000DACF869FB001112485E0869F9001879F22
:1039B000300D1124692F70E0C9010E94F727CBCF89
:1039C00065E070E0CECF8FE7089581E008958091A3
:1039D0000C0380FF0CC060910B0170E0759567953A
:1039E000759567956115710549F1862F089581FFD9
:1039F00006C060910B0170E075956795F3CF6091FB
:103A00000B0182FD0BC090910A039923A1F06091F4
:103A10000A0180910B01961738F0682F70E060382A
:103A2000710500F38FE70895899FC001112470E0AC
:103A30000E94F727F4CF61E070E0D7CF81E00895CE
:103A4000803F31F40E949D1C81958093100308955E
:103A5000813F19F40E949D1CF8CF823F31F40E94EF
:103A60009D1C819580930F030895833F19F40E9454
:103A70009D1CF8CF893F29F40E94E71C8093110315
:103A800008958A3F21F40E94E71C8195F7CF8B3F70
:103A900031F40E94E71C81958093120308958C3FB6
:103AA00019F40E94E71CF8CF843F31F480910E0393
:103AB000816080930E030895853F21F480910E0369
:103AC0008260F7CF863F21F480910E038460F1CFAE
:103AD000873F21F480910E038860EBCF883F21F46B
:103AE00080910E038061E5CF8D3F31F480910C030E
:103AF000816080930C0308958E3F21F480910C0324
:103B00008260F7CF8F3FB9F780910C038460F1CFCB
:103B100090910F03803F59F48091100387FF0DC0EF
:103B20001092100391110BC010920B0308C0813F3B
:103B300081F48091100318169CF3992381F08091F1
:103B4000110390911203892B09F064C010920A03AB
:103B50000895823F49F497FFF0CF10920F038091B0
:103B600010038111ECCFE0CF833F19F41916ACF3A9
:103B7000E4CF20911103893F29F41216F4F6109234
:103B80001103DBCF8A3F19F427FFD7CFF8CF20915D
:103B900012038B3F29F427FFD0CF10921203CDCF11
:103BA0008C3F19F41216CCF3C8CF843F31F48091C6
:103BB0000E038E7F80930E03C0CF853F21F480914A
:103BC0000E038D7FF7CF863F21F480910E038B7F0C
:103BD000F1CF873F21F480910E03877FEBCF883FA1
:103BE00021F480910E038F7EE5CF8D3F31F48091DB
:103BF0000C038E7F80930C03A0CF8E3F21F4809125
:103C00000C038D7FF7CF8F3F09F097CF80910C0386
:103C10008B7FF0CF08950E94F61B20910F03309107
:103C20001003232B21F08093080390930903209124
:103C3000110330911203232B21F0809306039093FC
:103C400007038DE093E00C94650DEF92FF920F93C4
:103C50001F93CF93DF9300D000D000D0CDB7DEB755
:103C600086E0EDE0F3E0DE01119601900D928A9579
:103C7000E1F7E0900F03F090100300911103109111
:103C8000120310920F03109210031092110310925E
:103C900012038F2D8E2991F08091080390910903D2
:103CA0000E94021C9C0180910B03882309F443C0ED
:103CB00090910F019217130608F44BC0802F812BAF
:103CC00091F080910603909107030E94021C9C01D1
:103CD00080910A03882309F47BC090910C0192170C
:103CE000130608F483C080910F0390911003892B71
:103CF00090911103892B90911203892B11F00E944E
:103D00000B1EEB82FC820D831E8386E0FE01319642
:103D1000ADE0B3E001900D928A95E1F726960FB6DB
:103D2000F894DEBF0FBECDBFDF91CF911F910F91F1
:103D3000FF90EF900895409105039AE0499FA001FC
:103D400011244217530708F0B9CF8F5F80930B03FC
:103D500002C08F3FD1F7EE2059F00E949D1C9FEFCB
:103D60001E140CF491E0899F802D112480930F0381
:103D7000FF2059F00E949D1C9FEF1F140CF491E04E
:103D8000899F802D11248093100330910F033323DA
:103D900009F494CF20911003222309F48FCF45EB2F
:103DA0003403C0011124992359F090930F0345EB7C
:103DB000240390011124332339F0309310037ECF74
:103DC00081E080930F03F3CF81E08093100376CFDF
:103DD000409104039AE0499FA00111244217530720
:103DE00008F081CF8F5F80930A0302C08F3FD1F725
:103DF000002359F00E94E71C9FEF10160CF491E08D
:103E0000899F802D112480931103112359F00E9462
:103E1000E71C9FEF11160CF491E0899F802D11246F
:103E20008093120330911103332309F45CCF209166
:103E30001203222309F457CF45EB3403C0011124A8
:103E4000992359F09093110345EB24039001112419
:103E5000332339F03093120346CF81E0809311036E
:103E6000F3CF81E0809312033ECF86E0EDE0F3E0F4
:103E7000DF011D928A95E9F710920B0310920A0355
:103E800010920C030895843009F442C038F4823053
:103E9000E9F0833061F1813041F00895853009F413
:103EA00048C0863009F456C0089580910503482F14
:103EB000460F5527551F4F3F510524F4680F609357
:103EC000050308958FEF80930503089580910F01F6
:103ED000482F460F5527551F4F3F510524F4680FB3
:103EE00060930F0108958FEF80930F0108958091E3
:103EF0000E01482F460F5527551F4F3F510524F4FB
:103F0000680F60930E0108958FEF80930E0108955E
:103F100080910D01482F460F5527551F4F3F5105E2
:103F200024F4680F60930D0108958FEF80930D01C5
:103F3000089580910B01482F460F5527551F4F3F7D
:103F4000510524F4680F60930B0108958FEF80935F
:103F50000B01089580910A01482F460F5527551FE0
:103F60004F3F510524F4680F60930A0108958FEFC5
:103F700080930A010895843071F138F48230A9F0F9
:103F80008330F1F0813031F00895853079F1863059
:103F9000C1F1089580910503681720F4861B809372
:103FA0000503089510920503089580910F01681785
:103FB00020F4861B80930F01089510920F0108953D
:103FC00080910E01681720F4861B80930E010895DE
:103FD00010920E01089580910D01681720F4861B40
:103FE00080930D01089510920D01089580910B01A9
:103FF000681720F4861B80930B01089510920B0123
:10400000089580910A01681720F4861B80930A01A5
:10401000089510920A0108950F931F93CF93DF9391
:1040200000D000D0CDB7DEB741E050E060E070E0F6
:104030008A019B0104C0000F111F221F331F8A95A4
:10404000D2F709831A832B833C83C901B8010E94EC
:1040500039160F900F900F900F90DF91CF911F9115
:104060000F910C942613EBEFE80FEF3308F05AC0D2
:10407000F0E0EE54F64D0C940B280E94AC1A81E04F
:10408000089580910203807F8093020381E08093F2
:10409000140308950E949C06F2CF90910203892F89
:1040A0008E7F90FF81608093020380FDE8CF817F47
:1040B00080930203E4CF90910203892F8D7F91FFBB
:1040C00082608093020381FFDACF809102038160D6
:1040D000EFCF90910203892F8B7F92FF84608093B2
:1040E000020382FDF2CFCBCF90910203892F877F0D
:1040F00093FF88608093020383FDE7CFC0CF0E94C7
:10410000261390916103892F97FB87F9805880933C
:104110006103B5CF80E00E940C20B1CF8953FBCF63
:104120008D51F9CF80E0089580E008950C9494209B
:104130008E518A3030F4E82FF0E0E15EFD4F80814F
:10414000089580E00895CF93C82F809114038130A3
:10415000C9F08230E9F1811181C00E9419198131C1
:1041600059F48C2F0E949420811125C08C2F0E941D
:1041700033208170CF9108950E941919823289F3FA
:1041800080E0F8CF0E941919813159F30E94191962
:10419000823239F38C2F0E94962081110AC0C431DB
:1041A000A1F060F4CB3029F0C03119F782E08093A0
:1041B000140381E0DECF81E090E0DBCFC93229F04B
:1041C00081E0C833B1F280E0D4CF10921403FBCF6A
:1041D000CB3469F198F4C43240F4CE3100F5C730E5
:1041E00061F1C43121F081E0C5CFC932E1F780919E
:1041F0001303882381F010921303F5CFC135A9F082
:1042000061E0C235A9F06AE0CE3469F7809113030A
:104210000E94BB1FE8CF81E080931403ABCF8C2FAB
:104220000E94982080931303DECF61E0EFCF6AE015
:10423000809113030E94431FD6CF1092050384E19F
:1042400080930F01C0930E018CE380930D0188E0F1
:1042500080930B0188E280930A01C5CF109214036A
:104260008FCF809135030895CF93DF9300D00F92C5
:10427000CDB7DEB790916703943019F589836A83CF
:104280007B8382E08093E9008FEF9091E80081507A
:1042900095FD06C095ED9A95F1F700008111F5CFD7
:1042A0008091E80085FF0DC050E040E063E070E0E1
:1042B000CE0101960E945B238091E8008E77809367
:1042C000E8000F900F900F90DF91CF910895BC01FF
:1042D00084E00C943421BC0183E00C94342122E06E
:1042E0002093E9002FEF3091E800215035FD06C002
:1042F00035ED3A95F1F700002111F5CF2091E80056
:1043000025FF0BC050E040E066E070E00E945B23B8
:104310008091E8008E778093E8000895CF93DF9333
:10432000D82FC92F80911A018823C1F18091610390
:1043300087FF34C060E282E08093E9008FEF9091C4
:10434000E800815095FD06C095ED9A95F1F70000C3
:104350008111F5CF8091E80085FF1DC080911A0181
:1043600070E050E040E0811104C050E040E068E0BF
:1043700070E08D2F9C2F0E945B238091E8008E7748
:104380008093E80080E2ED2FFC2FA5E1B3E00190DF
:104390000D928A95E1F7DF91CF91089568E081E071
:1043A000CBCF80916603811109C00E94E3240E9453
:1043B00040258091E20084608093E200089510928D
:1043C00066030895089508950C94BE1B42E061ECC5
:1043D00081E00E945F2442E261EC82E00C945F2461
:1043E00080916903893089F148F4823009F49DC0D5
:1043F000833009F458C0813041F008958A3009F4BF
:1044000084C08B3009F46AC0089580916803813AB2
:1044100009F048C08091E800877F8093E800809190
:104420006C0390916D03892B61F460E285E193E068
:1044300070E00E94AA238091E8008B778093E800C7
:10444000089560E090E080E0F3CF809168038132CE
:1044500049F580916C0390916D03029718F5809156
:10446000E800877F8093E8008091E80082FF16C013
:104470009091F3008091F200029729F48091F1006D
:104480008B7F813021F48091F100809335038091FE
:10449000E8008B778093E8000C9493248091670365
:1044A0008111E2CF089580916803813AD9F7809114
:1044B0006C0390916D03892BA9F78091E800877FA9
:1044C0008093E8008091E80080FFFCCF80911A0182
:1044D0008093F1008091E8008E77DCCF80916803B3
:1044E000813201F780916C0390916D03892BD1F695
:1044F0008091E800877F8093E8000E949324809158
:104500006A0380931A010C94261380916803813208
:1045100049F68091E800877F8093E8000E94932409
:1045200080916B0380933603089580916803813AEC
:1045300009F0B8CF8091E800877F8093E8008091F0
:10454000E80080FFFCCF80913603C2CF84B7877F1D
:1045500084BF0FB6F894A89580916000886180931D
:104560006000109260000FBE80E890E00FB6F894F3
:1045700080936100909361000FBE0E94AE0D0E9477
:10458000E3240E9440258091E20084608093E20051
:1045900078940E94C8270E94BA0D80E191E00E94A1
:1045A0002C0D80916703853039F00E94C20D0E9466
:1045B000B80D0E94B90DF5CF0E94761B809165035E
:1045C000882379F30E94A71B882359F30E9445236F
:1045D000E8CF0C94EB22FC01CB01DA012F2F33271B
:1045E00023303105D1F070F42130310509F43EC09B
:1045F0002230310569F48BE390E022E933E02D931A
:104600003C93089521323105E9F02232310521F140
:1046100090E080E030E020E0F2CFCF019927E13058
:1046200059F08230910559F0EEE8F3E0892B81F7DB
:10463000849190E09F01E3CFE4E6F3E0F9CFECE46E
:10464000F3E0F6CF892BB9F06130710509F789E005
:1046500090E02DEB33E0D3CF892B91F061307105E1
:10466000B9F68CEB90E02FED33E0C9CF82E190E01A
:104670002DEC33E0C4CF89E090E024EA33E0BFCFF3
:1046800080E490E02BE934E0BACF80E189BD82E19B
:1046900089BD09B400FEFDCF8091D8008F7D809345
:1046A000D8008091E00082608093E0008091E0007B
:1046B00081FDFCCF0895AF92BF92CF92DF92FF921F
:1046C0000F931F93CF93DF936C01EB018A010E943C
:1046D000B224F82E811123C00115110539F0F8011B
:1046E00080819181C81BD90BC80ED91EB12CA12C79
:1046F0002097A9F08091E80085FD22C08091E80014
:104700008E778093E80001151105A1F0F8018081F2
:104710009181A80EB91EB182A08285E0F82E8F2D5E
:10472000DF91CF911F910F91FF90DF90CF90BF90BD
:10473000AF9008950E94B2248823D1F2F82EEFCFD3
:10474000F60181916F018093F1002197FFEFAF1A7D
:10475000BF0ACECFFC01CB0120916E0330916F03D5
:104760002617370790F0009729F42091E8002E775C
:104770002093E80040E0009751F4411108C0809177
:10478000E80082FF31C080E00895C901F3CF209195
:1047900067032223A9F12530A9F12091E80023FD28
:1047A0002DC02091E80022FDEACF2091E80020FFF3
:1047B000E2CF3091F3002091F200009719F02830F9
:1047C000310558F041E02830310509F040E02091F2
:1047D000E8002E772093E800CECF41914093F1007E
:1047E00001972F5F3F4FE9CF80916703882341F006
:1047F000853041F08091E80083FFC1CF81E00895CA
:1048000082E0089583E00895FC01CB0120916E03BE
:1048100030916F032617370790F0009729F4209105
:10482000E8002E772093E80040E0009751F4411112
:1048300008C08091E80082FF32C080E00895C9017D
:10484000F3CF209167032223B1F12530B1F12091FC
:10485000E80023FD2EC02091E80022FDEACF209140
:10486000E80020FFE2CF3091F3002091F2000097A2
:1048700019F02830310558F041E02830310509F0B1
:1048800040E02091E8002E772093E800CECF4491BD
:104890004093F100319601972F5F3F4FE8CF809111
:1048A0006703882341F0853041F08091E80083FF61
:1048B000C0CF81E0089582E0089583E00895982FA5
:1048C000973028F08F708093E90081E008959093ED
:1048D000E900242F762F50E0981731F07091EC000A
:1048E0002091ED005091F00021FD02C09F5FE8CFC4
:1048F0003091EB003E7F3093EB003091ED003D7F37
:104900003093ED003091EB0031603093EB00709309
:10491000EC002093ED005093F0002091EE0027FD75
:10492000E5CF80E008958091680387FF13C08091F0
:10493000E80082FF06C08091E8008B778093E80052
:1049400004C0809167038111F2CF089580916703BD
:104950008823D9F38091E80080FFF8CF8091E800A8
:104960008E77ECCF2091E4003091E50095E6A90127
:104970002091EC00822F817020FF06C08091E8001A
:1049800080FF06C080E008952091E80022FD1AC053
:1049900080916703882389F0853089F08091EB004E
:1049A00085FD0FC02091E4003091E50042175307C8
:1049B000F9F29150E1F684E0089582E0089583E0F1
:1049C000089581E008950E9451250E945925E0EE46
:1049D000F0E0808181608083E8EDF0E080818F7776
:1049E000808319BCA7EDB0E08C918E7F8C93808181
:1049F0008F7E80831092660308950F931F93CF9349
:104A0000DF930E9451250E945925C8EDD0E088818E
:104A10008F77888388818068888388818F7D888369
:104A200019BC1092670310926303109265031092F1
:104A3000640300EE10E0F80180818B7F8083888121
:104A40008160888342E060E080E00E945F24E1EEC4
:104A5000F0E080818E7F8083E2EEF0E080818160F3
:104A60008083808188608083F80180818E7F80834D
:104A7000888180618883DF91CF911F910F91089584
:104A8000E8EDF0E080818F7E8083E7EDF0E08081CB
:104A90008160808384E082BF81E0809366030C9410
:104AA000FD24E8EDF0E080818E7F80831092E200AB
:104AB00008951092DA001092E10008951F920F926B
:104AC0000FB60F9211242F933F934F935F936F93E1
:104AD0007F938F939F93AF93BF93EF93FF938091B7
:104AE000E10082FF0BC08091E20082FF07C080914D
:104AF000E1008B7F8093E1000E94C7278091DA005C
:104B000080FF19C08091D80080FF15C08091DA0025
:104B10008E7F8093DA008091D90080FF94C080E17D
:104B200089BD82E189BD09B400FEFDCF81E080939B
:104B300067030E94D1218091E10080FF19C080911C
:104B4000E20080FF15C08091E2008E7F8093E2003A
:104B50008091E20080618093E2008091D8008062C1
:104B60008093D80019BC85E0809367030E94E321FD
:104B70008091E10084FF29C08091E20084FF25C07C
:104B800080E189BD82E189BD09B400FEFDCF80913D
:104B9000D8008F7D8093D8008091E1008F7E809334
:104BA000E1008091E2008F7E8093E2008091E2003C
:104BB00081608093E20080916303882309F449C0F7
:104BC00084E0809367030E94E4218091E10083FFE9
:104BD00029C08091E20083FF25C08091E100877F9A
:104BE0008093E10082E080936703109263038091D9
:104BF000E1008E7F8093E1008091E2008E7F8093C0
:104C0000E2008091E20080618093E20042E060E097
:104C100080E00E945F248091F00088608093F00023
:104C20000E94E221FF91EF91BF91AF919F918F91EF
:104C30007F916F915F914F913F912F910F900FBE98
:104C40000F901F90189519BC109267030E94DF21E6
:104C500072CF8091E30087FD02C081E0B2CF83E094
:104C6000B0CF1F920F920FB60F9211242F933F9344
:104C70004F935F936F937F938F939F93AF93BF9364
:104C8000CF93DF93EF93FF93D091E900DF70809192
:104C9000EC00C82FC17080FDC0E81092E90080913F
:104CA000F000877F8093F00078940E947526109220
:104CB000E9008091F00088608093F000CD2BCF70E8
:104CC000C093E900FF91EF91DF91CF91BF91AF9138
:104CD0009F918F917F916F915F914F913F912F9114
:104CE0000F900FBE0F901F9018951F93CF93DF93D7
:104CF000CDB7DEB7AA970FB6F894DEBF0FBECDBF13
:104D000088E693E0FC0101962091F100208323E0E6
:104D100080379207B9F70E94F0218091E80083FF65
:104D20001EC180916803909169039A3008F017C101
:104D3000E92FF0E0EF50F64D0C940B28803899F0F5
:104D4000823809F00CC180916C038F70873008F0B5
:104D500006C18093E9008091EB0085FB882780F9EC
:104D60001092E90006C0809164039091650391114F
:104D700082609091E800977F9093E8008093F10023
:104D80001092F1008091E8008E77E5C0882309F445
:104D9000D3C0823009F0E3C080916A038111D6C08C
:104DA00080916C038F702FEF280F263008F0D7C04A
:104DB0008093E9002091EB0020FFC8C0933031F4CC
:104DC0008091EB0080628093EB00C0C09091EB007B
:104DD00090619093EB0021E030E001C0220F8A95B2
:104DE000EAF72093EA001092EA008091EB008860D5
:104DF000EACF8111B4C010916A031F778091E3005C
:104E00008078812B8093E3008091E800877F8093F6
:104E1000E8000E9493248091E80080FFFCCF8091FD
:104E2000E30080688093E30082E0111183E08093C7
:104E3000670395C08058823008F091C080916A0362
:104E400090916B038C3D23E09207A1F583E08A8368
:104E50008AE289834FB7F894DE01139620E03EE0A2
:104E600051E2E32FF0E050935700E49120FF03C09C
:104E7000E295EF703F5FEF708E2F90E0EA30C0F068
:104E8000C7968D939D932F5F243159F74FBF809123
:104E9000E800877F8093E8006AE270E0CE01019627
:104EA0000E94AA238091E8008B778093E80057C086
:104EB000C096E7CF60916C0370916D03AE014F5FB8
:104EC0005F4F0E94E922BC01892B09F448C0809100
:104ED000E800877F8093E80089819A810E940424FA
:104EE000E1CF8038E1F58091E800877F8093E8008A
:104EF000809163038093F10045CF811130C0909180
:104F00006A03923060F58091E800877F8093E80023
:104F1000909363030E94932480916303882311F08C
:104F200084E005C08091E30087FDFACF81E08093A3
:104F300067030E94E62113C080916A03813079F4EF
:104F400081E0933009F080E0809365031092E900DE
:104F50008091E800877F8093E8000E9493248091ED
:104F6000E80083FF0AC08091E800877F8093E80013
:104F70008091EB0080628093EB00AA960FB6F894C4
:104F8000DEBF0FBECDBFDF91CF911F910895089571
:104F9000CF93809167038823A1F0C091E900CF707F
:104FA0009091EC00892F817090FD80E8C82B1092C1
:104FB000E9008091E80083FD0E947526CF70C093C0
:104FC000E900CF910895AA1BBB1B51E107C0AA1F9E
:104FD000BB1FA617B70710F0A61BB70B881F991F9A
:104FE0005A95A9F780959095BC01CD01089597FB3E
:104FF000072E16F4009407D077FD09D00E94E3270E
:1050000007FC05D03EF4909581959F4F08957095CB
:1050100061957F4F0895EE0FFF1F0590F491E02DED
:1050200009940F931F93CF93DF939C01029710F481
:1050300022E030E0E0917203F091730390E080E0B1
:10504000B0E0A0E0309791F4009709F445C0821BCE
:10505000930B84309105B8F58A819B8161157105A8
:1050600069F1FB0193838283FE0111C0408151816C
:105070000281138142175307F0F04217530799F446
:10508000109761F012960C93129713961C93329618
:10509000CF01DF91CF911F910F910895009372037B
:1050A00010937303F4CF009719F04817590718F4B9
:1050B000CA01BD01EF01DF01F801C4CF9093730372
:1050C00080937203D1CFFE01E80FF91F2193319332
:1050D000029799838883DCCF80917003909171034C
:1050E000892B41F480910201909103019093710307
:1050F000809370038091000190910101009741F429
:105100008DB79EB74091040150910501841B950B0A
:1051100040917003509171034817590708F0B8CFB8
:10512000841B950B8217930708F4B2CFB9016E5F09
:105130007F4F8617970708F4ABCF640F751F7093E6
:10514000710360937003FA0121933193A1CFCF9340
:10515000DF939C010097E9F0FC01329713821282E1
:10516000C0917203D0917303DE0190E080E020973C
:10517000A1F480819181280F391F80917003909153
:1051800071038217930709F067C0F0937103E093EE
:105190007003DF91CF910895DA01AE17BF0708F0D1
:1051A00041C012964D915C911397CD014115510567
:1051B00099F7DC011396FC93EE9312974D915D9154
:1051C000A40FB51FEA17FB0781F4208131812E5F00
:1051D0003F4F240F351FDC0111963C932E93228103
:1051E000338113963C932E931297B0E0A0E08A810E
:1051F0009B810097B1F5FE0181919191E80FF91F14
:1052000080917003909171038E179F0711F610978C
:1052100059F51092730310927203D0937103C093E7
:105220007003B7CFB383A28340815181240F351F10
:10523000A217B30771F44E5F5F4F2D913C91119708
:10524000420F531F5183408312962D913C9133831B
:105250002283009709F0ADCFF0937303E0937203BC
:1052600098CFDE01EC01C3CF13961C921E921297C9
:10527000D4CFF999FECF92BD81BDF89A992780B518
:105280000895A6E1B0E044E050E00C947329A8E151
:10529000B0E042E050E00C947329262FF999FECF3C
:1052A00092BD81BDF89A019700B4021639F01FBA79
:1052B00020BD0FB6F894FA9AF99A0FBE0895039696
:1052C000272F0E944E290E944D29252F0E944E29EA
:1052D000242F0C944E290196272F0E944E290C94BE
:1052E0004D29DC01CB01FC01F999FECF06C0F2BDCE
:1052F000E1BDF89A319600B40D9241505040B8F794
:105300000895F894FFCFBE0BC40BC80BD60BDA0B75
:10531000DE0BE20BE80BF00BF40BF80BFC0B080CAC
:105320000C0C100C140C1A0C380C220CCC0BD20BDD
:10533000000C040CEC0B1E0C2E0C410C450C351013
:105340003510A810A810FA1018114A12661024116E
:10535000E011F111F11153127A125E1262126B1206
:10536000661271124A2041204D203F209220922047
:105370003F20922092206920922074207F2092204A
:105380009220922092203F20922092203F20922033
:105390005B209220922090209020902090209020BE
:1053A00090209020902090208A2092204A203D201A
:1053B000922092209220922092209220922092205D
:1053C000922092208A20922092203F2092208E20AC
:1053D0008E208E208E208E208E208E208E208E205D
:1053E0008A209E26C626AF27C626AF27F9261A276B
:0653F000AF2771277D27A5
:1053F6000000740320002000DF022808643C071424
:1054060031218E216F216B21672101000D010D02D3
:105416000D030D040D050D000C010C020C030C040C
:105426000C050C000B010B020B030B040B050B0008
:105436000A010A020A030A040A050A000901090206
:1054460009030904090509000801080208030804FC
:1054560008050800070107020703070407050700F8
:1054660006010602060306040605060005010502F6
:1054760005030504050505000401040204030404EC
:1054860004050400030103020303030403050300E8
:1054960002010202020302040205020001010102E6
:1054A60001030104010501000001000200030004DC
:1054B600000500E200E900EA00B500B600B700CD3D
:1054C600008301CC008A0192019401210223022467
:1054D600022502260227022A02B300B4006F0070DA
:1054E60000E200E900EA00B500B600B700CD00838F
:1054F60001CC008A01920194012102230224022593
:1055060002260227022A02B300B4006F00700001CF
:0A551600020304050607080900005F
:00000001FF
