:100000000C9419040C9460040C9460040C94600427
:100010000C9460040C9460040C9460040C946004D0
:100020000C9460040C9460040C94FD280C94CF296B
:100030000C94401F0C9460040C9460040C946004B5
:100040000C9460040C9460040C9460040C946004A0
:100050000C9460040C94A81F0C9460040C9460042D
:100060000C9460040C9460040C9460040C94600480
:100070000C9460040C9460040C9460040C94600470
:100080000C9460040C9460040C9460040C94600460
:100090000C9460040C9460040C9460040C94600450
:1000A0000C9460040C9460040C946004D106D30694
:1000B000DE06D506D706D906DB06DD06E006E20633
:1000C000E406EF06E606E806EA06EC06EE06F106AA
:1000D000BB15BB15F515F5152A164A167517B11778
:1000E0005516B117051705176D17B117B117AC17CE
:1000F00012171217121712171217121712171217B8
:1001000012171217121712171217121712171217A7
:100110002417311738173F1749173C183C184E1849
:100120004E1845184E184E184E183C183C184A18D0
:100130004E184E184A183C2A5E2A4C2B5E2A4C2B2D
:10014000A32AC62A4C2B1B2B2E2B6572676F646F5C
:10015000782F6F6B6C61686F6D6572204020302E58
:10016000352E34352D31392D676532336339300002
:100170000000F0A129002B00E000E100E2000000F7
:100180001E00140004001D00000002511F001A0090
:1001900016001B000000E300200008000700060016
:1001A0003100290021001500090019003400000069
:1001B000220017000A0005000000000000002C04C7
:1001C000000000000000000000002C0800000000FB
:1001D0000000000023001C000B00110000000000C4
:1001E000240018000D0010002D00000025000C0058
:1001F0000E0036002E002C00260012000F003700E3
:100200002F00015127001300330038003000350063
:1002100035002A002800E500E6000000003001005B
:1002200001000100010000003A0000002F0A000058
:10023000000001003B000000300A00000000010047
:100240003C00000045040000000001003D000000EB
:100250000000190E005C01003E00000000000000DC
:10026000000001000000000000000000000001008C
:100270000000000000000000000001003F0000003E
:10028000500000000000010040000000510000008C
:1002900001000100410000005200000001000100C7
:1002A000420000004F000000010001004300440034
:1002B00045000000010001000100010001000100F3
:1002C000010000000000000000000000000000002D
:1002D00000000000AA000000000001000000000073
:1002E000A9000000000001000000F000A8000000CC
:1002F000F40001000000000000000000F500010013
:1003000000000000000000000000010000000000EC
:1003100000000000000001000000000000000000DC
:100320000000010000000000F200000000000100D9
:1003300000000000F10000000000010000000000CB
:10034000F000AC000000B60000000000F300AB00BD
:10035000000001000000000000000000000001009B
:1003600000000000AE0000000000000000000000DF
:10037000000000002A2B2800000000000000000000
:100380000000000000000029000000002C1E3420A6
:10039000212224342627252E362D3738271E1F20CC
:1003A0002122232425263333362E37381F04050611
:1003B0000708090A0B0C0D0E0F1011121314151655
:1003C0001718191A1B1C1D2F3130232D3504050653
:1003D0000708090A0B0C0D0E0F1011121314151635
:1003E0001718191A1B1C1D2F3130354C0000000046
:1003F00000000000000000000000000000000000FD
:1004000000000000000000000000000000010101E9
:1004100001010100010101010000000000000000D5
:1004200000000000000001000100010101010101C4
:1004300001010101010101010101010101010101AC
:1004400001010101010101000000010100000000A3
:10045000000000000000000000000000000000009C
:100460000000000000000001010101006801F0002F
:10047000B40078005A00643214643214783C1E1EB2
:10048000140A050000000001010102020304050531
:100490000607090A0B0C0E0F1112141517191B1D54
:1004A0001F212325282A2C2F313436393B3E414346
:1004B00046494C4F5255585A5D6164676A6D707376
:1004C00076797C7F8386898C8F9295989B9EA2A556
:1004D000A7AAADB0B3B6B9BCBEC1C4C6C9CBCED055
:1004E000D3D5D7DADCDEE0E2E4E6E8EAEBEDEEF0E5
:1004F000F1F3F4F5F6F8F9FAFAFBFCFDFDFEFEFE69
:10050000FFFFFFFFFFFFFFFEFEFEFDFDFCFBFAFA13
:10051000F9F8F6F5F4F3F1F0EEEDEBEAE8E6E4E2F3
:10052000E0DEDCDAD7D5D3D0CECBC9C6C4C1BEBCE1
:10053000B9B6B3B0ADAAA7A5A29E9B9895928F8C91
:10054000898683807C797673706D6A6764615D5A91
:100550005855524F4C494643413E3B393634312F72
:100560002C2A282523211F1D1B1917151412110FC2
:100570000E0C0B0A0907060505040302020101011E
:100580000000000000000000010101010101010163
:100590000102020202020202020203030303030336
:1005A0000303040404040404050505050506060602
:1005B000060607070707080808080909090A0A0ABA
:1005C0000A0B0B0B0C0C0C0D0D0D0E0E0F0F0F105C
:1005D00010111111121213131414151516161717E2
:1005E000181819191A1A1B1C1C1D1D1E1F1F20204C
:1005F0002122222324252526272728292A2B2B2C94
:100600002D2E2F2F30313233343536363738393AB4
:100610003B3C3D3E3F4041424344464748494A4BAC
:100620004C4D4F50515253555657585A5B5C5E5F74
:10063000606263646667696A6C6D6E70717374760C
:1006400078797B7C7E8081838486888A8B8D8F916C
:10065000929496989A9B9D9FA1A3A5A7A9ABADAF95
:10066000B1B3B5B7B9BBBDBFC1C4C6C8CACCCFD181
:10067000D3D6D8DADCDFE1E4E6E8EBEDF0F2F5F72B
:10068000FAFCFF16034500720067006F0044006F1C
:10069000007800200045005A000000160345007253
:1006A0000067006F0044006F007800200045005A8A
:1006B0000000000403090409026D00040100A0FA0F
:1006C00009040000010301010009211101000122B8
:1006D00040000705810308000A0904010001030125
:1006E0000200092111010001224D000705820308C3
:1006F000000A0904020001030000000921110100A1
:10070000012236000705830308000A0904030001DB
:1007100003000000092111010001223900070584AE
:10072000032000011201100100000008EDFE071374
:1007300001000102000105010906A101050719E0F8
:1007400029E71500250195087501810205081901A1
:10075000290595057501910295017503910105071C
:10076000190029F71500250195F875018102C005CA
:10077000010980A10185021601002603001A8100EB
:100780002A8300751095018100C0050C0901A101A3
:100790008503160100269C021A01002A9C0275108E
:1007A00095018100C005010902A1010901A100050F
:1007B0000919012905150025019505750181029585
:1007C00001750381010501093009311581257F95E6
:1007D000027508810609381581257F950175088104
:1007E00006050C0A38021581257F950175088106DA
:1007F000C0C005010906A101050719E029E7150098
:10080000250195087501810295017508810105088A
:10081000190129059505750191029501750391014D
:100820000507190029FF150026FF009506750881A8
:1008300000C011241FBECFEFDAE0DEBFCDBF04B68B
:1008400003FE27C080917D0390917E03A0917F03DA
:10085000B09180038730904BA740B04BD1F41092F9
:100860007D0310927E0310927F031092800314BECA
:1008700084B7877F84BF0FB6F894A89580916000F5
:10088000886180936000109260000FBEE0E0FFE39B
:10089000099511E0A0E0B1E0E0E5FAE502C00590BD
:1008A0000D92AA3DB107D9F713E0AAEDB1E001C05E
:1008B0001D92AD37B107E1F70E942A260C94262D30
:1008C0000C9400001092B9008AE08093B80008955B
:1008D00094EA9093BC009091BC0097FFFCCF90915C
:1008E000B900987F983021F0903111F081E008959F
:1008F0008093BB0084E88093BC008091BC0087FF9C
:10090000FCCF8091B900887F883111F0803471F775
:1009100080E0089584E98093BC008091BC0084FD50
:10092000FCCF08958093BB0084E88093BC00809145
:10093000BC0087FFFCCF9091B900987F81E098328E
:1009400009F480E0089584E88093BC008091BC00A5
:1009500087FFFCCF8091BB00089580B38C7080BB73
:1009600081B3836F81BB089580910001811115C00F
:1009700080E40E9468048093000181110CC082E130
:100980000E94920480930001811105C08FEF0E94A4
:100990009204809300010E948A0484B1807F84B90C
:1009A00085B1807F85B98AB1837F8AB98BB1837F16
:1009B0008BB93E98469808950C9441060E94190BF5
:1009C000809300010E94B4040E94AD042BED31E03D
:1009D000EFE2F2E04EE04E0F119280E090E0D9019C
:1009E000A80FB91F1C92019686309105C1F72A5FA6
:1009F0003F4F4E13F1CF0C941F080E94190B8093A8
:100A000000010E94B4040E94AD04EFE2F2E08EE027
:100A10008E0F11928E13FDCF089526E0829FC001A4
:100A20001124FC01E552FE4F20E030E080E041E07F
:100A300050E09081992319F09150908307C0BA013A
:100A4000022E01C0660F0A94EAF7862B2F5F3F4FF4
:100A500031962630310569F7089596E0699FB00117
:100A6000112420E030E090E04FE0FC01022E02C0B3
:100A7000F595E7950A94E2F7E0FF06C0F901E60F65
:100A8000F71FE552FE4F40832F5F3F4F2630310561
:100A900061F70895AF92BF92CF92DF92EF92FF92EB
:100AA0000F931F93CF93DF9380910001882379F0F8
:100AB0008091DA018F5F8093DA01811108C00E9472
:100AC000190B80930001811102C00E94AB0A8FE2D2
:100AD000E82E82E0F82E00E010E0CC24C394D12C64
:100AE000AA24A394C02F0730110500F580910001BE
:100AF00081113CC080E40E94680480930001811150
:100B000012C082E10E9492048093000181110BC007
:100B1000C601002E01C0880F0A94EAF780950E9452
:100B20009204809300010E948A0420C00A30A1F040
:100B300028F4083059F0093061F005C00C3089F014
:100B400070F00D3089F0209A289810C0219A2998C9
:100B50000DC0229A2A980AC0239A2B9807C0529A4D
:100B600001C0539A5B9802C03E9A469880EA8A95E3
:100B7000F1F78C2F0E940D05D82F0730110518F5BD
:100B800080910001811144C080E40E946804809338
:100B90000001882311F0B12C12C083E10E9492045D
:100BA000809300018111F7CF81E40E946804809353
:100BB00000018111F0CF0E94A304B82EB0940E94CE
:100BC0008A049B2D26C08FB181708A25799902C035
:100BD00092E001C090E0892B7C9902C094E001C0B2
:100BE00090E0982B7D9902C038E001C030E0932B53
:100BF0007E9902C020E101C020E0922B2FB1209508
:100C0000221F2227221F2295220F207E922B01C015
:100C100090E0F70180819D23D095D823D92B6C2FAC
:100C20008D270E942D05F701D1937F010E94B40406
:100C30000F5F1F4F0E30110509F054CF0E9421089D
:100C400081E0DF91CF911F910F91FF90EF90DF90A6
:100C5000CF90BF90AF900895E82FF0E0E15DFD4F99
:100C6000808108950895611108C0FC018281882364
:100C700021F08AE491E00E94F40780E090E008957A
:100C800008956091C7027091C8028091C902909145
:100C9000CA020E946C1E56985E9825982D98269838
:100CA0002E9827982F98813019F0823021F00895DE
:100CB000259A2D9A0895269A2E9A089581E00895EE
:100CC00081E008950C9460060E942A182FEF84E3B7
:100CD0009CE0215080409040E1F700C000000C945F
:100CE000CE1F0F931F93CF93DF938C01FC01C08124
:100CF000D181CE010E94EE1CBE010E943608EC019B
:100D0000B8010E946206882309F468C1B801CE01C7
:100D10000E945C0A882309F461C1B801CE010E94D7
:100D2000680B882309F45AC1C13CFCE5DF0741F494
:100D3000F8018281882309F451C10E94020F4EC13B
:100D4000C23C8CE5D80708F0A5C0C5319CE5D907A1
:100D500008F07DC0C230ECE5DE0708F452C0F801AF
:100D60008281882309F459C00E94DD1E811102C0CE
:100D70000E94BC1E0E94F01E90E090936F0380932F
:100D80006E03FE01E350FC45E231F10530F4EA5A0E
:100D9000FF4F80916E030C94D92C80916E0381607B
:100DA00027C0826025C0846023C0806121C080622A
:100DB0001FC080641DC080681BC08460886018C02C
:100DC0008E7F16C08D7F14C08B7F12C08F7E10C0A7
:100DD0008F7D0EC08F7B0CC08F770AC08B7F877F83
:100DE00007C087FB222720F991E0922790FB87F923
:100DF00080936E0380916E030E94F41E0E942A1855
:100E0000EDC0C115FCE5DF0779F0C130DC45A1F08C
:100E100081E08093410280934202C801DF91CF912B
:100E20001F910F910C945E06F8018281882309F4CA
:100E3000D5C00E946406D2C0F8018281882309F4DB
:100E4000CDC08091F40281608093F402C7C0CF3B93
:100E50009CE5D90741F4F8018281882309F4BEC0DA
:100E60000E94F50FBBC0C03CECE5DE0740F0F80186
:100E70008281882309F4B2C00E94EA0EAFC0CE3B43
:100E8000DC4531F6F8018281882309F4A7C00E946D
:100E9000FF0FA4C0C53C8CE5D80741F4F80182815E
:100EA000882309F49BC00E94600F98C0C63C9CE553
:100EB000D907D8F4F8018281C33CFCE5DF0731F49F
:100EC000882309F48BC00E94330F88C0C43CDC45E2
:100ED00030F4882309F482C00E94210F7FC0882348
:100EE00009F47CC00E94450F79C0C73CECE5DE07E1
:100EF00081F5F8018281882361F0109242020E94FC
:100F0000721F9093400280933F0280E20E9470150E
:100F100065C00E94F31D81FF05C081E080934102FE
:100F2000809342028091420281110FC080913F0262
:100F3000909140020E947E1F883C910530F487E228
:100F40000E944E1487E20E94211580E20E947715CC
:100F500045C0C73CFCE5DF0760F5F80182818823C6
:100F600051F0109241020E94721F90933E028093B2
:100F70003D0282E0CBCF0E94F31D85FF05C081E0DA
:100F800080934102809342028091410281110FC0FF
:100F900080913D0290913E020E947E1F883C910507
:100FA00030F486E20E944E1486E20E94211582E00F
:100FB000CDCFCA3C8CE5D80731F4F8018281882373
:100FC00069F080E009C0CB3CDC4509F021CFF80195
:100FD0008281882319F082E00E94C02680E0DF91A0
:100FE000CF911F910F9108950F931F93CF938C0171
:100FF000F80124912223F9F030E0F901E459FC4F83
:10100000C491F901E451FC4F2491222359F081EE5F
:101010000E944E148C2F0E944E148C2F0E9421157A
:1010200081EE04C08C2F0E944E148C2F0E9421153B
:101030000F5F1F4FDDCFCF911F910F9108950C943B
:10104000030B0C94DC04282F882339F090E02A301D
:1010500010F44D9608950697089587E290E008955C
:1010600008950C9430080C943108089596E0799F07
:10107000F001112494E5899FE00DF11D1124E60F84
:10108000F11DEE0FFF1FEC58FE4F859194910895CE
:10109000880F991FFC01E059FE4F859194910895A6
:1010A0000E9436080E94DE09811520E49207B0F5FF
:1010B000811540E3940708F0DBC0803E9105D8F429
:1010C000803C910508F069C0883A910578F4853A2A
:1010D000910508F065C08130910509F46EC108F4EE
:1010E00025C18430910508F068C120C18D3B910570
:1010F00008F461C01BC18F3F910509F048F4803F9F
:10110000910508F0AFC0883E910508F456C10EC1A4
:10111000811560E2960708F0A7C00895811574E56F
:101120009707D8F4811523E5920708F0DDC08115F3
:1011300041E5940740F4811560E5960708F0A2C0E8
:101140009F70906A0895811572E5970708F0B6C000
:10115000982F8827816F906A0895811526E5920758
:1011600050F4811545E5940708F0D4C0982F8827DE
:10117000846F906A0895811568E5960708F4D6C0D3
:10118000811579E5970708F4CAC09C0130562115EE
:10119000304208F0CBC09F71C7C0805C910965C028
:1011A000853A910509F4C5C0863A910509F0C4C095
:1011B00082E890E40895883A910509F4C0C0893A1C
:1011C000910509F4BFC08A3A910509F4BEC08B3A73
:1011D000910509F4BDC08C3A910509F4BCC08B3B64
:1011E000910509F4BBC08C3B910509F4BAC08D3A56
:1011F000910509F4B9C0803B910509F4B8C08E3A55
:10120000910509F4B7C08F3A910509F4B6C0813B46
:10121000910509F4B5C0823B910509F4B4C0833B44
:10122000910509F4B3C0843B910509F4B2C0853B34
:10123000910509F4B1C0863B910509F4B0C0873B24
:10124000910509F4AFC0883B910509F4AEC0893B14
:10125000910509F4ADC08A3B910509F4ACC080E06A
:1012600094E40895906508959F700E944808089539
:101270009C01332793FF03C0C901986C0895C901ED
:10128000906C0895482F437021E030E002C0220F97
:10129000331F4A95E2F73C68AC0164E056954795E8
:1012A0006A95E1F74370342B8F708695869560E2DE
:1012B000869FC0011124822B932B0895482F4695B9
:1012C000469570E2479FA00111248370992721E081
:1012D00030E0B90102C0660F771F8A95E2F7CB01B3
:1012E000842B952B9C680895482F4695469570E26F
:1012F000479FA00111248370992721E030E0B901B4
:1013000002C0660F771F8A95E2F7CB01842B952BDD
:101310009A6808958F719927982F882705C0982F6C
:101320008827806F906A08959062089580E090E029
:10133000089581E890E4089583E890E4089582EEAA
:1013400094E4089589EE94E408958AEE94E408956F
:1013500085EB94E4089586EB94E4089583EB94E49C
:10136000089584EB94E4089587EB94E408958CEC5D
:1013700094E408958DEC94E4089583E895E4089549
:101380008AE895E4089582E995E4089584E995E46E
:10139000089581E296E4089583E296E4089584E254
:1013A00096E4089585E296E4089586E296E4089529
:1013B00087E296E408958AE296E4089582389105DA
:1013C00049F1B0F48133910509F458C048F48932E9
:1013D000910509F44EC08A32910509F454C008956C
:1013E0008533910509F440C08933910599F008953A
:1013F000833E910529F138F4803E910591F0823EBB
:101400009105A1F00895863E9105F9F0873E91057A
:1014100031F1089520916E0320FD3AC021FD38C0BE
:10142000089580916E0380FD35C032C080916E03B7
:1014300082FF32C080916E0384FD30C083EE39C0DC
:1014400080916E0382FD28C0F5CF80916E0383FFEB
:1014500027C080916E0384FD21C087EE2AC0809151
:101460006E0383FD1DC0F5CF80916E0385FD1AC00C
:101470001BC080916E0385FD17C014C080916E0360
:1014800086FD14C015C080916E0386FD11C00EC08C
:1014900080EE0FC089E30DC082EE0BC080E009C072
:1014A00086EE07C089E205C085E303C08AE201C079
:1014B00081E390E0089508950F931F93CF93FB016C
:1014C0002281211102C0C1E041C08C01C0915002B3
:1014D000C11125C085319C45B1F70E945B0A81E0AE
:1014E000809350020E94721F90934F0280934E028D
:1014F0001092430210924502109244021092470249
:1015000010924602109249021092480210924B0229
:1015100010924A0210924D0210924C0217C0809114
:101520004E0290914F020E947E1F883C910558F612
:1015300090914302E92FF0E0EE0FFF1FEC5BFD4FAF
:10154000118300839F5F90934302C0E08C2FCF9163
:101550001F910F91089556985E9825982D9826987A
:101560002E9827982F988FEF90E090938900809382
:10157000880090938B0080938A0090938D008093D5
:101580008C00259A2D9A2FEF80E792E02150804021
:101590009040E1F700C00000269A2E9A2FEF80E7D6
:1015A00092E0215080409040E1F700C00000279A6F
:1015B0002F9A2FEF80E792E0215080409040E1F792
:1015C00000C0000025982D982FEF80E792E0215071
:1015D00080409040E1F700C0000026982E982FEF41
:1015E00080E792E0215080409040E1F700C0000089
:1015F00027982F9856985E9825982D9826982E987B
:1016000027982F98089589EA8093800089E0809335
:10161000810024982C983F988AB18F7C8AB96E9863
:10162000479A8BB180638BB9769A0E94AB0A0C946F
:10163000400680E2809300018091510281110EC02A
:101640000E94620481E0809351022FEF83ED90E3CA
:10165000215080409040E1F700C0000080E40E94EB
:1016600068048093000181112EC00E94920480932F
:101670000001811128C00E94920480930001811111
:1016800022C08FE30E9492048093000181111BC04D
:101690000E948A0480E40E94680480930001811102
:1016A00012C08CE00E9492048093000181110BC053
:1016B0000E94920480930001811105C08FE30E9473
:1016C0009204809300010E948A0480910001089591
:1016D000CF93DF93813020E89207D0F0FB01228185
:1016E0002223B1F0EC0180915202811109C08CE0FB
:1016F00090E00E94DF2C0E948C0B81E080935202CC
:101700000E94930BCE019F770E94510C0E94090CFE
:1017100081E0DF91CF91089580935302682F8CE090
:1017200090E00C94F32CE0910201F0910301808190
:101730008093250381FF03C081EE0E9421158091D3
:10174000250385FF03C085EE0E94211580912503A6
:1017500080FF03C080EE0E9421158091250384FF45
:1017600003C084EE0E9421158091250382FF03C0EF
:1017700082EE0E9421158091250386FF03C086EE2C
:101780000E9421158091250383FF03C083EE0E94F0
:1017900021158091250387FF03C087EE0E94211544
:1017A000809153028130A1F078F0823011F18430C1
:1017B00049F586EE0E944E1486EE0E94211588E1BE
:1017C0000E944E1488E11CC082EE0E944E141AC082
:1017D00080EE0E944E1481EE0E944E1488E10E9419
:1017E0004E1488E10E94211581EE0E94211580EEA1
:1017F00007C082EE0E944E1487E50E944E1487E5D2
:101800000E9421158FE39CE90197F1F700C00000C9
:10181000089580915302813029F010F0823041F414
:1018200082EE04C08CE20E944E148CE20E942115CC
:101830008091250381FF03C081EE0E944E148091A8
:10184000250385FF03C085EE0E944E148091250379
:1018500080FF03C080EE0E944E148091250384FF18
:1018600003C084EE0E944E148091250382FF03C0C2
:1018700082EE0E944E148091250386FF03C086EEFF
:101880000E944E148091250383FF03C083EE0E94C3
:101890004E148091250387FF03C087EE0C944E14ED
:1018A0000895EF92FF921F93CF93DF937C01CCE0DA
:1018B000D0E097010C2E02C0369527950A94E2F7E6
:1018C000122F1F70812F0E9423080E944E14812F17
:1018D0000E9423080E9421152497CC3F8FEFD80740
:1018E00041F7DF91CF911F91FF90EF9008958823EA
:1018F00019F05198599A02C0519A59985098589A8B
:1019000095E09A95F1F70000509A589895E09A95CD
:10191000F1F70000882311F0519A599885E08A95D3
:10192000F1F7000008958BB18C7F8BB95098589ACD
:101930005198599A85E08A95F1F7000008958AB187
:101940008C7F8AB985E08A95F1F70000519A599801
:1019500085E08A95F1F70000509A589885E08A95BD
:10196000F1F7000008955098589A85E08A95F1F7AC
:1019700000005198599A85E08A95F1F70000089582
:10198000CF93DF93D82FC8E08D2F80780E94770CFB
:10199000DD0FC150C9F780E00E94770C85E08A9581
:1019A000F1F7000085E08A95F1F7000080E0DF9113
:1019B000CF9108952BB1342F309523233BB1432B86
:1019C0003FB7F894FC01680F791FE617F70789F015
:1019D000819198E04BB9000000C087FF2BB9880FB8
:1019E000000000C000C000C02BB900C09A9591F75C
:1019F000ECCF3FBF0895AF92BF92CF92DF92EF92AC
:101A0000FF920F931F93CF93DF938C01EB01CFB61F
:101A1000D090BC00F8948091BC008B7F8093BC0078
:101A20000E94930C0E949F0C84E80E94C00CCC0F73
:101A3000DD1FCC0FDD1F78015801AC0EBD1EEA146E
:101A4000FB0431F0F70181917F010E94C00CF7CFB8
:101A50000E94B30CCFBED092BC00579A40E8BE01A2
:101A6000C801DF91CF911F910F91FF90EF90DF9010
:101A7000CF90BF90AF900C94DA0CEF92FF920F933F
:101A80001F93CF93DF93E901662309F44BC0242F02
:101A900030E0EFEFF0E0E61BF109B901E69F9001BD
:101AA000E79F300DF69F300D1124232F8B01031B70
:101AB00011095CE3E52EF12CB7010E94B12CFB016A
:101AC000BC01069FC001079F900D169F900D112429
:101AD000B7010E94B12CE230F105B1F040F430972B
:101AE00079F0319711F5832F242F461B21C0E43064
:101AF000F105A1F068F03597C1F4842F861B18C05A
:101B0000832F262F230F14C0862F830FE42F03C0AB
:101B1000E42FE61B842F432F2E2F0AC0842F462F3D
:101B2000430F06C0842F242F03C080E020E040E054
:101B3000E42FF0E0ED57FA4F4491E22FF0E0ED573B
:101B4000FA4F9491E82FF0E0ED57FA4FE491498372
:101B50009883EA83DF91CF911F910F91FF90EF90CF
:101B6000089588E090E00C94E72CAB01BC0188E07C
:101B700090E00C94042DE6E2F3E083E08083109281
:101B800027038FEF8283838360912603709127035D
:101B900080912803909129030C94B50D8091260320
:101BA00080FF06C06FE070E08EE293E00C94FB0CC7
:101BB00080E090E0FC01E25DFC4F11821082128215
:101BC00004968C339105B1F7EDCF20E030E0F901B8
:101BD000E25DFC4F8183608342832C5F3F4F2C3357
:101BE0003105A9F70C94CE0DEF92FF920F931F933E
:101BF000CF93DF9300D000D0CDB7DEB7009126039E
:101C000010912703209128033091290300932A0380
:101C100010932B0320932C0330932D032091260344
:101C200020FF21C0042FF62EE92E182F9E012F5FD2
:101C30003F4F0E943D0D80912A0310FB87F980934E
:101C40002A03169580912B038078182BE0FA17F958
:101C500010932B03F0922C0300932D034B81698189
:101C60008A810E94E50D0F900F900F900F90DF91E9
:101C7000CF911F910F91FF90EF9008958F929F92B7
:101C8000AF92BF92CF92DF92EF92FF920F931F938A
:101C9000CF93DF93EC01062F142F8091260380FF52
:101CA0008CC0982F9E77923021F4CE010E94F40DC3
:101CB0005AC0E82FE695EF739EE39E0F9F73943012
:101CC00018F4109129034FC09AE39E0F9F73993027
:101CD00070F4881F8827881F90912703292F220FCF
:101CE000C22FC82B97FB992790F9D92F3CC087E2C8
:101CF0008E0F8F738A30B8F5F0E07997E0FD02C05F
:101D000021E001C02FEFEE7FE459FB4F85919491C4
:101D10006FE070E00E94B12C26036001279FD00C79
:101D200011244E0188E9881A8EEF980A8EE2E82E77
:101D300083E0F82E98E6A92EBB24B394C401B50124
:101D40000E94B12C9701412F602F0E943D0D8C0CF9
:101D50009D1C94E0E90EF11C8AE6E81683E0F80683
:101D600069F70E94CE0D809126039C2FC0FB87F956
:101D7000809326039695809127038078892BD0FB4A
:101D800087F9809327030093280310932903609118
:101D90002603709127038091280390912903DF91F6
:101DA000CF911F910F91FF90EF90DF90CF90BF9058
:101DB000AF909F908F900C94B50DDF91CF911F91B4
:101DC0000F91FF90EF90DF90CF90BF90AF909F90DA
:101DD0008F900895E6E2F3E02081221F2227221F40
:101DE00030912703432F440F842F822B37FB9927F1
:101DF00090F90C9668E671E00E94C52C43816281DF
:101E00000C943E0E20912603221F2227221F309180
:101E10002703432F440F842F822B37FB992790F9F8
:101E20008C3091051CF4845A9E4F01C00C9768E6D3
:101E300071E00E94C52C40912903609128030C9405
:101E40003E0EE6E2F3E08081881F8827881F90918C
:101E50002703292F220F97FB992790F943816FEFD2
:101E6000822B0C943E0EE6E2F3E08081881F8827E7
:101E7000881F90912703292F220F97FB992790F90C
:101E8000438160E0822B0C943E0E40912903842F05
:101E900090E0843F910514F4445F01C04FEF8091BE
:101EA0002603881F8827881F90912703292F220F38
:101EB00097FB992790F960912803822B0C943E0E92
:101EC00040912903842F90E00C9714F04C5001C0EE
:101ED00040E080912603881F8827881F9091270360
:101EE000292F220F97FB992790F960912803822BC5
:101EF0000C943E0E9091260390FF42C09178811180
:101F000002C0926007C0833210F0946403C08F73E4
:101F1000880F982B909326036091260370912703D6
:101F200080912803909129030E94B50D809126038A
:101F3000982F9E77923019F41092690210C0982F52
:101F400096959F732EE3290F2F73273120F491E08C
:101F50009093690204C0995D9F739A3068F3881F5B
:101F60008827881F90912703292F220F97FB9927F5
:101F700090F94091290360912803822B0C943E0E26
:101F800008958091F40281608093F40281E080934F
:101F90006A020E94DD1E811104C00E94BC1E0E94C4
:101FA000BB0D0E94B10D60932603709327038093AD
:101FB0002803909329036E7761F40E94BB0D0E9461
:101FC000B10D6093260370932703809328039093A9
:101FD000290381E0809369028091260380FF04C079
:101FE00086958F730C947A0F0895809126038695B9
:101FF0008F738F5F833208F081E00C947A0F8091A9
:102000002603982F909590FB80F98093260360918A
:1020100026037091270380912803909129030E9441
:10202000B50D8091260380FF04C086958F730C94B4
:102030007A0F109269022FEF80E792E021508040E2
:102040009040E1F700C000000C94CE0DCF93C82F54
:1020500080916702909168020E947E1FEC2FF0E051
:10206000E158FB4FE491F0E08E179F0718F10E94B2
:10207000721F9093680280936702E0916602F0E01D
:10208000ED57FB4F449180912603881F8827881FB6
:1020900090912703292F220F97FB992790F96091A0
:1020A0002803822B0E94F40D8091660290E0019635
:1020B00080936602CF910895CF93C82F80916402D8
:1020C000909165020E947E1FEC2FF0E0E458FB4FD8
:1020D000E491F0E08E179F07E8F00E94721F909342
:1020E00065028093640240912903609128038091E6
:1020F0006202909163020E94F40D809162029091BD
:102100006302019668E671E00E94B12C909363022D
:1021100080936202CF910895CF92DF92FF920F9346
:102120001F93CF93DF93F82E80916002909161020C
:102130000E947E1FEF2DE695F0E0E458FB4FE491FE
:10214000F0E08E179F07E8F10E94721F90936102E2
:10215000809360020EE213E0C0E0D0E088E6C82E73
:10216000DD24D39480915E0290915F028C0F9D1FBD
:10217000B6010E94B12C9801409129036091280377
:102180000E943D0D68960C5F1F4FC83681E0D8074E
:1021900049F70E94CE0D20915E0230915F02F0FE61
:1021A0000AC0C9010196BE010E94B12C90935F0242
:1021B00080935E0206C02150310930935F02209364
:1021C0005E02DF91CF911F910F91FF90DF90CF9032
:1021D00008958F929F92AF92BF92CF92DF92EF922B
:1021E000FF920F931F93CF93DF93C82F80FF03C0FD
:1021F000DD24DA9402C0DD24D39480915C029091B6
:102200005D020E947E1FC695EC2FF0E0E758FB4F61
:10221000E491F0E08E179F0708F467C00E94721FD8
:1022200090935D0280935C029EE2E92E93E0F92E8A
:1022300000E313E0C0E0D0E027E0822E912CF8010B
:1022400031971082F7011082F801108287E0A82EE2
:10225000B12CC12C80915B028C0D87FD815F992789
:1022600087FD9095C817D907E9F4209129032A9D85
:10227000C0012B9D900D1124B4010E94C52C462F46
:1022800080912603881F8827881F90912703592F44
:10229000550F97FB992790F9970160912803852B9B
:1022A0000E943D0DCD0CF1E0AF1AB10899F62196D0
:1022B00084E0E80EF11C0C5F1F4FCF30D10509F010
:1022C000BECF0E94CE0D80915B0291E0D91206C074
:1022D000811102C08EE007C0815005C090E00196D8
:1022E000BE010E94C52C80935B02DF91CF911F91AC
:1022F0000F91FF90EF90DF90CF90BF90AF909F90A5
:102300008F9008959F92AF92BF92CF92DF92EF92FB
:10231000FF920F931F93CF93DF93CDB7DEB7EC9768
:102320000FB6F894DEBF0FBECDBF182F80915902B3
:1023300090915A020E947E1FE12FF0E0EA58FB4F75
:10234000E491F0E08E179F0708F495C00E94721F79
:1023500090935A0280935902CE0101967C015E014E
:1023600093E0A90EB11CC12CD12C8701F501319746
:102370001082F7011082F5011082912C90910101D9
:1023800080915802999E800D112487FD04C08F30E2
:102390001CF08EE001C080E0992787FD9095C8165B
:1023A000D906A1F480912603881F8827881F909161
:1023B0002703592F550F97FB992790F997014091C3
:1023C000290360912803852B0E943D0D9394F7E02B
:1023D0009F12D4CF8FEFC81AD80A94E0E90EF11CEF
:1023E000E4E0AE0EB11CFFE0CF16D10409F0BECF81
:1023F00020E333E099E0E92EF12C4FE0C42ED12CFC
:10240000C701B6010E94C52CD9011197FC01EE0F3E
:10241000FF1FEE0FFF1FE00FF11F81818C931197BB
:1024200080818C938281F9018083FFEFEF1AFF0A8C
:102430002C5F3F4F88E1E816F10411F70E94CE0DA2
:102440009091010180915802913049F48A3F2CF417
:1024500089EF809358028FEF08C081500AC08631FF
:102460003CF085E18093580281E08093010103C034
:102470008F5F80935802EC960FB6F894DEBF0FBEC4
:10248000CDBFDF91CF911F910F91FF90EF90DF9023
:10249000CF90BF90AF909F900895EF92FF920F93CF
:1024A0001F93CF93DF9380915602909157020E9421
:1024B0007E1F883E9340D0F10E94721F9093570276
:1024C00080935602C0915402D09155022196C1705A
:1024D000DD27D0935502C09354028EE2E82E83E0AC
:1024E000F82E10E008E7812F8695FE01E80FF11D18
:1024F000CF018170992797014091290360912803AA
:10250000FC010E9FC0010F9F900D11240E943D0DF4
:102510001F5FF4E0EF0EF11C1F3029F7DF91CF9120
:102520001F910F91FF90EF900C94CE0DDF91CF9102
:102530001F910F91FF90EF90089580916902882379
:1025400091F190912603892F86958F732EE3280FA2
:102550002F73243018F482500C9426102AE3280F8D
:102560002F73233018F486500C945C1027E3280F47
:102570002F73263018F489500C948C1021E3280F07
:102580002F73263018F48F500C94E9102BE2280F8B
:102590002F73233018F485510C9482119E77903359
:1025A00011F40C944D1208959093700280936F0271
:1025B0000895E0916F02F0917002309721F0019040
:1025C000F081E02D099480E00895E0916F02F09190
:1025D0007002309721F00280F381E02D0994089574
:1025E000E0916F02F0917002309721F00480F58144
:1025F000E02D0994089520916D0230916E028217AA
:10260000930771F090936E0280936D02E0916F02D8
:10261000F0917002309721F00680F781E02D099447
:10262000089520916B0230916C028217930771F02C
:1026300090936C0280936B02E0916F02F0917002B4
:10264000309721F00084F185E02D099408950895D4
:102650000C9427130E94691F0E94DE040E94F01F41
:102660000C94C10FCF92DF92EF92FF920F931F93C2
:10267000CF93DF93CDB7DEB72B970FB6F894DEBFBD
:102680000FBECDBF0E944A0582E7C82E82E0D82E39
:1026900000E010E0E02E802F0E942C06F601419110
:1026A0006F01F42EF826B1F40F5F1F4F0E301105A5
:1026B00089F78FEF89838A831B820E94721F816052
:1026C000782F9D838C8349815A816B818D810E94F3
:1026D000111440C09091F40291FF04C08B870E94B6
:1026E00032068B8520E030E04F2D50E0922FBA016A
:1026F000022E02C0759567950A94E2F760FF24C028
:102700002E83EF8221E030E0690102C0CC0CDD1C99
:102710009A95E2F790E08C219D21892B09F420E025
:1027200028870E94721F8160782F9A8789874E813F
:102730005F8168858A850E941114F801EE58FD4F6B
:102740008081C826C08206C02F5F3F4F26303105EA
:1027500069F6AACF0E948321109171020E94D912BA
:102760001817A1F00E94D912809371022B960FB610
:10277000F894DEBF0FBECDBFDF91CF911F910F91B7
:10278000FF90EF90DF90CF900C9433082B960FB60C
:10279000F894DEBF0FBECDBFDF91CF911F910F9197
:1027A000FF90EF90DF90CF900895DC0111962C916F
:1027B00011978C91682F70E041E050E001C0440F08
:1027C0008A95EAF712968C91129730E0882329F0C7
:1027D00080918E028823E9F006C0F901E058FD4F90
:1027E00090819423B1F086E0829FF001839FF00DE9
:1027F0001124E60FF71FEE0FFF1FEC5EFE4F8081E6
:1028000091818D939C93F901E058FD4F8081482B75
:1028100006C0F901E058FD4F409580814823408370
:102820000895CF93DF93CDB7DEB72B970FB6F8940B
:10283000DEBF0FBECDBF942F4F83252F58876987EA
:102840007A878B874A855B85452B21F02F3F09F5D9
:102850009F3FF9F4DE01119686E0FD0111928A9501
:10286000E9F785E0FE01379601900D928A95E1F730
:1028700049815A816B817C818D819E810E94C21A1F
:102880002B960FB6F894DEBF0FBECDBFDF91CF9170
:102890000895CE0107960E94D513DCCFCF938823ED
:1028A00009F4CDC0C82F823859F40E94D91281FD95
:1028B000C6C089E30E946D1D0E943D1E89E30CC0C5
:1028C000833879F40E94D91280FDB9C083E50E9453
:1028D0006D1D0E943D1E83E50E94AF1DCF910C949B
:1028E0003D1E843859F40E94D91282FDA8C087E4A5
:1028F0000E946D1D0E943D1E87E4EECF8CEF8C0F71
:10290000813A48F48C2F0E94C423811198C08C2FE7
:102910000E946D1DE3CF80E28C0F883048F4C770B1
:1029200081E001C0880FCA95EAF70E94F61DD6CF54
:102930008BE58C0F833078F4C53A29F0C63A31F034
:1029400083E890E005C081E890E002C082E890E072
:10295000CF910C94FB1288E58C0F853108F06FC085
:10296000C83A61F1C93A69F1CA3A71F1CB3A79F1E1
:10297000CC3A81F1CB3B89F1CC3B91F1CD3A99F145
:10298000C03BA1F1CE3AA9F1CF3AB1F1C13BB9F1C7
:10299000C23BC1F1C33BC9F1C43BD1F1C53BD9F145
:1029A000C63BE1F1C73BE9F1C83BF1F1C93BF9F1A5
:1029B000CA3B09F43FC080E090E03EC082EE90E068
:1029C0003BC089EE90E038C08AEE90E035C085EBE0
:1029D00090E032C086EB90E02FC083EB90E02CC0FB
:1029E00084EB90E029C087EB90E026C08CEC90E06F
:1029F00023C08DEC90E020C083E891E01DC08AE800
:102A000091E01AC082E991E017C084E991E014C016
:102A100081E292E011C083E292E00EC084E292E093
:102A20000BC085E292E008C086E292E005C087E232
:102A300092E002C08AE292E0CF910C941113CF9100
:102A40000895882309F44BC0823859F40E94D912A2
:102A500081FF45C089E30E946D1D0E943D1E89E3F0
:102A60000CC0833871F40E94D91280FF38C083E50E
:102A70000E946D1D0E943D1E83E50E94AF1D0C94B7
:102A80003D1E843859F40E94D91282FF28C087E481
:102A90000E946D1D0E943D1E87E4EFCF9CEF980FB2
:102AA000913A58F390E2980F983050F4877091E083
:102AB00001C0990F8A95EAF7892F0E94FC1DDFCF8C
:102AC0009BE5980F933020F480E090E00C94FB128B
:102AD000885A853120F480E090E00C941113089519
:102AE000882321F00E94F61D0C943D1E0895882332
:102AF00021F00E94FC1D0C943D1E08958F929F9220
:102B0000AF92BF92CF92DF92EF92FF920F931F93FB
:102B1000CF93DF931F92CDB7DEB77C01C72EFC01A8
:102B2000058102950F701281112321F069830E94A3
:102B3000131E698169830E94661D6981882381F063
:102B4000112371F080E2860F883050F082E00E94FD
:102B50004F1D0E94661D91E0D82ED926698101C0C3
:102B6000D12CAC2CA2948FE0A822B12CF501E8590D
:102B7000FF4F0C94D92C8C2D807F0C2D0F70882347
:102B800011F00295007F1123C1F0002309F49BC1CD
:102B900080E2860F883010F0611105C0802F6983B4
:102BA0000E94F61D04C0802F69830E94061E698161
:102BB00069830E943D1E698186C1862F69830E94B8
:102BC00021156981002309F4CCC180E2860F883089
:102BD00010F0611104C0802F0E94FC1D03C0802FE3
:102BE0000E940C1E0E943D1EBCC19C2D907F8C2D0E
:102BF0008F70903211F08295807F662319F06130DA
:102C0000B1F01EC0112349F0002309F414C10130B2
:102C100009F011C10E94261EA4C1002319F0013041
:102C200009F49FC189830E94291E89810AC1112349
:102C300021F0023008F095C1FEC0011192C101C11E
:102C4000112321F0002309F4F6C03DC1002309F44B
:102C5000F8C03FC18C2D86958695837090E00097D3
:102C600019F0019761F07DC1112321F0862F9C2D71
:102C7000937002C080E090E00E94FB1282C1112399
:102C800021F0862F9C2D937002C080E090E00E947E
:102C9000111377C1862F112319F00E948B2002C0D7
:102CA0000E94F3200E9478216CC18C2D837009F062
:102CB00052C0111162C1862F829586958770880F48
:102CC000880F962F9F70892E912CA12CB12C082E45
:102CD00004C0880C991CAA1CBB1C0A94D2F764FF80
:102CE00014C00FE010E020E030E0B901A80104C0FA
:102CF000440F551F661F771F8A95D2F7CB01BA0183
:102D0000609570958095909503C060E070E0CB0170
:102D10002C2D26952695237030E02230310569F060
:102D20002330310589F0682979298A299B292130A6
:102D3000310571F00E94051C20C1682979298A2972
:102D40009B290E94171C19C10E94051CC501B401D2
:102D50000E94F31B12C1112319F08C2D817001C048
:102D60008695882309F409C1862F829586958770F8
:102D7000880F880F962F9F70892E912CA12CB12C33
:102D8000082E04C0880C991CAA1CBB1C0A94D2F7FC
:102D900064FF14C00FE010E020E030E0B901A801AA
:102DA00004C0440F551F661F771F8A95D2F7CB01C9
:102DB000BA01609570958095909503C060E070E0D1
:102DC000CB012C2D269526952370422F50E04230C2
:102DD000510569F04330510589F0682979298A291C
:102DE0009B294130510571F00E94C91CC6C0682959
:102DF00079298A299B290E94DB1CBFC00E94C91C1B
:102E0000C501B4010E94B71CB8C0862F90E0FC0138
:102E1000E05EF109E531F10508F051C0E858FF4FD7
:102E20000C94D92C062F0F708C2D8F71112331F03B
:102E30000E94501C802F0E94701593C00E94711C2C
:102E4000802F0E9477158DC0112339F0011189C0A0
:102E50008C2D8F710E94961C84C0023008F081C0B6
:102E6000F7CF112339F08C2D8F710E94501C79C03F
:102E70001123C9F38C2D8F710E94711C72C0112314
:102E800029F08C2D8F710E943B1C6BC00E94361C58
:102E900068C0112351F01C2D1F71812F0E94501CFE
:102EA00063E0812F0E94461D5CC081E00E944F1D9F
:102EB000023008F456C082E00E944F1D52C0112318
:102EC00031F0002381F2862F0E944E144AC0002365
:102ED00089F2862F0E94211544C04C2D4F70C701E6
:102EE0000E9433060E94661B4CC0623F99F128F491
:102EF000603F49F0613FE1F020C0643FA1F050F035
:102F0000653F59F01AC0112339F190918E0281E08A
:102F1000892706C081E018271DC011111DC081E05E
:102F200080938E0219C0111117C010928E0214C026
:102F3000002381F0111110C0E8CF002359F0862F33
:102F40006983112319F00E944E1402C00E942115BA
:102F5000698102C010938E024C2D4F70C7010E94F0
:102F6000350858E0A516B10441F05CF07AE0A71AE4
:102F7000B10882E0A816B10420F40E94D9120E9480
:102F80003308DD20F1F00E94421D80FD1AC0F701D8
:102F900012820E943C1D0E94501CC7010E94EF1724
:102FA0000E943C1D0F90DF91CF911F910F91FF90D8
:102FB000EF90DF90CF90BF90AF909F908F900C9448
:102FC000711C0F90DF91CF911F910F91FF90EF90A7
:102FD000DF90CF90BF90AF909F908F9008950F9308
:102FE0001F93CF93DF93EC01888199812B813C81E2
:102FF000232BB9F09F3F11F48F3F99F0CE010E942F
:103000007106882371F0688179818A810E94381D58
:103010008C010E94ED1C0E94F01BB801CE010E94A1
:103020007E15DF91CF911F910F9108950E94131E7D
:103030000E94231E0E94E51D0E943D1E0E9429221F
:103040000E94782180E090E00E94FB1280E090E0F6
:103050000C9411130E94031E0C9416180E942D1D2F
:10306000E92FE295EF70F0E03297EE30F105B0F421
:10307000E357FF4F0C94D92C803F91F018F4803E19
:1030800068F40EC0843F51F40BC0803E48F0813F8D
:1030900029F406C093FB882780F9089580E00895FD
:1030A00081E00895CF93DF9300D000D01F92CDB779
:1030B000DEB70F900F900F900F900F90DF91CF9190
:1030C0000895CF93DF9300D000D000D0CDB7DEB706
:1030D00026960FB6F894DEBF0FBECDBFDF91CF911D
:1030E00008951F93CF93DF93C0918F0216E08091D4
:1030F0009002C81799F0D0E01C9FF0011D9FF00DC1
:103100001124EF56FD4F408151816281738184818A
:1031100095810E9461182196C770E9CFDF91CF9108
:103120001F9108954091C1025091C2026091C30263
:103130007091C4028091C5029091C6020C946118EE
:103140008091C60282958F7009F054C08091C302AD
:10315000882309F44FC080918F02A0919002609162
:10316000C1027091C2024091C4025091C502B6E002
:103170008A1709F43FC090E041155105C1F17F3F26
:1031800011F46F3FA1F1B89FF001B99FF00D112428
:10319000EF56FD4F218172132AC02081621327C090
:1031A0002281211124C0238134812417350710F492
:1031B00021503109241B350B283C3105C0F42091E6
:1031C000C6022F7020612093C60226E0289FF001DE
:1031D000299FF00D1124EA56FD4F80818F70806188
:1031E000808381EC92E00E94EF170C947118019695
:1031F0008770BECF0895CF92DF92EF92FF920F9328
:103200001F93CF93DF93CDB7DEB762970FB6F894D5
:10321000DEBF0FBECDBF8C0185E0F801DE011D963B
:1032200001900D928A95E1F7D8014C9111965C912D
:10323000119712966C9112971396CD90DC9014977B
:103240003091C1027091C2028091C4029091C50276
:10325000009709F46BC17F3F19F43F3F09F466C141
:10326000E090C302EE2009F4C0C02091C602C81647
:10327000D90628F0F601E81BF90BCF0104C08095B0
:1032800090958C0D9D1DFF24F394883C910578F05A
:10329000F12C207F09F0C6C07C2DD98AC88A898983
:1032A0000E94521881EC92E00E94EF17B1C0822F69
:1032B000807F09F046C0751314C0341312C0611129
:1032C00010C02F7020612093C6020E94921881ECDA
:1032D00092E00E94EF178091C602D80115968C9358
:1032E0002EC0CD2819F15F3F11F44F3FF9F0F62EB3
:1032F00061111CC080918F022091900236E08217EC
:1033000009F45AC090E0389FF001399FF00D112464
:10331000EF56FD4F7181571306C07081471303C0EC
:103320007281711103C001968770E9CFF62E662372
:1033300009F418C18091C60281608093C602F12C05
:1033400011C1751308C0341306C0611104C0809107
:10335000C602D801C3C04D875E878D859E856A8B66
:103360000E942E186A898823E1F16623D1F1209109
:10337000C602822F82958F7090E0029774F0809140
:10338000C1029091C20298878F831986DB86CA8614
:103390002C87CE0107960E94EF1786E0F801A1EC7A
:1033A000B2E001900D928A95E1F70E94A0180E9468
:1033B0009218FF24F394D6C04D875E878D859E8535
:1033C0000E942D1D292F22952F7030E022303105CB
:1033D0000CF0BCC09F7009F0B6C0805E883008F465
:1033E000C1C0C8010E94EF17E4CFC816D90608F47F
:1033F00053C0F601E81BF90BCF01883C910508F496
:1034000050C0F12C7C2DD98AC88A89890E94521813
:10341000E1ECF2E086E0DF011D928A95E9F70E9477
:103420009218A0C0751314C0341312C0611110C0DB
:103430008091C602F8018583C8010E94EF1786E0DB
:10344000E1ECF2E0DF011D928A95E9F7FE2C8AC0DB
:103450004D875E878D859E856A8B0E942E186A89AE
:10346000882309F4BECF662309F4BBCF2091C6029E
:10347000822F82958F7090E002970CF48ECF80910E
:10348000C1029091C2029A8389831B82DD82CC8221
:103490002E83CE0101967FCF809590958C0D9D1D3A
:1034A000ACCFF62E662309F49CCF75132EC03413CF
:1034B0002CC02091C60220FD1FC0822F82958F70E4
:1034C000D9F0D80115962C9315978F3049F08F5F5E
:1034D000982F9295907F822F8F70892B15968C93C1
:1034E000C8010E94EF1786E0F801A1ECB2E001905C
:1034F0000D928A95E1F793CF86E0F801A1ECB2E056
:1035000001900D928A95E1F72DC04D875E878D85DC
:103510009E850E942E18811140CF8091C602816045
:103520008093C602C8010E94EF171CC0662309F4ED
:1035300058CF4D875E878D859E850E942E188823E3
:1035400009F44FCF2ACF811148CF0CC02430310568
:103550000CF047CF9F7009F440CFF8019581907F20
:1035600009F03BCF8F2D62960FB6F894DEBF0FBEE9
:10357000CDBFDF91CF911F910F91FF90EF90DF9022
:10358000CF9008951F93CF93DF93CDB7DEB72C97DD
:103590000FB6F894DEBF0FBECDBF4F835887698743
:1035A0007A878B879C87CE0107960E94FB18882319
:1035B00069F08F8198852A853B85232BF1F19F3F08
:1035C00009F063C08F3F09F060C037C086E0FE019C
:1035D0003796DE01119601900D928A95E1F76F8181
:1035E0007885EA85FB85309741F17F3F11F46F3F85
:1035F00021F12091900230E0C9010196877099274E
:1036000040918F0250E08417950709F447C0698301
:103610007A83FD83EC8396E0929FD001939FB00D57
:103620001124AF56BD4FFE01319601900D929A952F
:10363000E1F7809390020E94711816E080918F024A
:10364000909190028917C1F1189FC00111248F56E3
:103650009D4F0E94FB18882379F1E0918F021E9FF5
:10366000F0011124EF56FD4F408151816281738139
:10367000848195810E94611880918F0290E001966B
:103680008770992780938F02D9CF4F81588569859C
:103690007A858B859C850E946118CFCF0E942A185D
:1036A0001092900210928F02E1ECF2E086E0DF01CE
:1036B0001D928A95E9F7C1CF2C960FB6F894DEBF1C
:1036C0000FBECDBFDF91CF911F910895EF92FF9272
:1036D0000F931F93CF93DF938C01892B09F46CC058
:1036E000F12CEE24E394E8012196F80184918437CB
:1036F00040F4843008F051C0813081F0823019F1FB
:103700005BC0853709F444C0A8F19CE7980F903757
:1037100008F052C08F770E94211541C00E5F1F4FE5
:10372000FE01C49180E28C0F883048F4C7708E2D62
:1037300001C0880FCA95EAF70E94161E14C08C2F8C
:103740000E944E142DC00E5F1F4FFE01C49180E2F7
:103750008C0F883058F4C7708E2D01C0880FCA9521
:10376000EAF70E941C1E0E943D1E1AC08C2F0E9468
:10377000211516C00E5F1F4FFE01C491CC2381F0AE
:103780008FE99FE00197F1F700C00000C150F6CF2C
:103790000E5F1F4FFE01F49003C00E944E148E0175
:1037A0008F2D882309F49FCFEFE9FFE03197F1F7E0
:1037B00000C000008150F5CFDF91CF911F910F9194
:1037C000FF90EF90089508950E94E31B6093CB0251
:1037D0007093CC028093CD029093CE020C94161875
:1037E00008950C94E41B0F931F930091CB0210914A
:1037F000CC022091CD023091CE02602B712B822B16
:10380000932B1F910F910C94E41B0F931F93009126
:10381000CB021091CC022091CD023091CE026023D8
:103820007123822393231F910F910C94E41B0F9318
:103830001F930091CB021091CC022091CD023091C8
:10384000CE0260277127822793271F910F910C9436
:10385000E41B08950E94291C6093C7027093C8025C
:103860008093C9029093CA020C94161860E070E02D
:10387000CB010C942A1C0F931F9341E050E060E0B1
:1038800070E08A019B0104C0000F111F221F331F2B
:103890008A95D2F7C901B8011F910F910C942A1C87
:1038A0000F931F9341E050E060E070E004C0440FCC
:1038B000551F661F771F8A95D2F78091C702909196
:1038C000C802A091C902B091CA028A019B01082BCB
:1038D000192B2A2B3B2BC901B8011F910F910C9476
:1038E0002A1C0F931F9341E050E060E070E004C099
:1038F000440F551F661F771F8A95D2F74095509544
:10390000609570958091C7029091C802A091C902FC
:10391000B091CA028A019B01082319232A233B2361
:10392000C901B8011F910F910C942A1C0F931F938A
:1039300041E050E060E070E004C0440F551F661F96
:10394000771F8A95D2F78091C7029091C802A09103
:10395000C902B091CA028A019B01082719272A27A8
:103960003B27C901B8011F910F910C942A1C0F939A
:103970001F930091C7021091C8022091C902309193
:10398000CA02602B712B822B932B1F910F910C94E9
:103990002A1C0F931F930091C7021091C802209117
:1039A000C9023091CA0260237123822393231F919D
:1039B0000F910C942A1C0F931F930091C702109132
:1039C000C8022091C9023091CA026027712782275C
:1039D00093271F910F910C942A1C0895CF92DF9288
:1039E000EF92FF920F931F93CF93DF938C01C090C0
:1039F000CB02D090CC02E090CD02F090CE0280912C
:103A0000C7029091C802A091C902B091CA02C82A07
:103A1000D92AEA2AFB2ACFE1D0E0D701C6010C2E31
:103A200004C0B695A795979587950A94D2F780FF1D
:103A300006C0B8018C2F0E945008019721F42197ED
:103A400060F780E001C08C2FDF91CF911F910F9123
:103A5000FF90EF90DF90CF900895CF93DF93EC012C
:103A60000E94EE1CBE010E945008DF91CF91089584
:103A7000CB010E942D1D08958091CF0285958595DB
:103A8000859508958091CF028770089598E0899F69
:103A900090011124262B2093CF020C94501C2091CE
:103AA000CF02809582238093CF02982F977069F47C
:103AB00030E0482F552747FD50952417350729F04A
:103AC0008595859585950C94711C08959091CF02EC
:103AD000977081E009F480E0089590911301992393
:103AE00021F090916E0397FD09C020910201309161
:103AF0000301F90132969FEF40E01FC0982F969581
:103B0000969596959F3150F5E0910201F091030151
:103B1000E90FF11D877021E030E0A90102C0440FD8
:103B2000551F8A95E2F7CA019181892B81830895F7
:103B30009F3F39F04F5F4E3141F051915813F8CF0C
:103B40000DC05111F7CF942FF5CF9F3F39F0F901F8
:103B5000E90FF11D97FDFA958283089508959091DC
:103B60001301992321F090916E0397FD09C02091D4
:103B7000020130910301F9013296205E3F4F1FC0D0
:103B8000982F9695969596959F31F0F4E0910201C5
:103B9000F0910301E90FF11D877021E030E0A901E8
:103BA00002C0440F551F8A95E2F7CA0180959181A2
:103BB0008923818308953196E217F30729F09081D4
:103BC0009813F9CF1082F7CF089581E090E0E0914B
:103BD0000201F0910301E80FF91F10820196803273
:103BE0009105A9F708958091F30208959091F30249
:103BF000892B8093F302089580959091F302892395
:103C00008093F30208951092F30208959091F202C6
:103C1000892B8093F202089580959091F202892376
:103C20008093F20208951092F20208959091F102A9
:103C3000892B8093F102089580959091F102892358
:103C40008093F10208951092F10208958093D002BA
:103C500008951092D002089580910201909103017D
:103C6000FC0131969C01205E3F4F80E091919111C3
:103C70008F5FE217F307D1F70895E0910201F09109
:103C800003018091F3028083E0910201F09103012E
:103C900090818091F202892B8083E0910201F09162
:103CA000030190818091F102892B80838091D00261
:103CB000882361F0E0910201F09103019081892B4A
:103CC00080830E942C1E81111092D00280910201EB
:103CD000909103010C94E512CF92DF92EF92FF9244
:103CE0006C01EE24FF24C114D104E104F10421F09D
:103CF000C701B60120E101C020E0C72ED82EE92E71
:103D0000FF24C114D104E104F10419F0285FC701B4
:103D1000B6016B017C0154E0F694E794D794C79404
:103D20005A95D1F7C114D104E104F10419F02C5FC4
:103D3000C701B6016B017C0142E0F694E794D79489
:103D4000C7944A95D1F7C114D104E104F10419F0E4
:103D50002E5FC701B601DC01CB01B695A7959795FB
:103D60008795892B8A2B8B2B09F02F5F822FFF9051
:103D7000EF90DF90CF9008956DEE7EEF80E090E0C1
:103D80000E94102D60E082E090E00E94F32C60E041
:103D900083E090E00E94F32C60E084E090E00E94D9
:103DA000F32C60E085E090E00E94F32C40E050E0CE
:103DB000BA0188E090E00C94042D80E090E00E942D
:103DC000ED2C21E08D3E9E4F09F020E0822F0895DA
:103DD00082E090E00C94DF2C83E090E00C94DF2CE8
:103DE00084E090E00C94DF2C682F84E090E00C9449
:103DF000F32C80917403843039F11092F50220E4A1
:103E000088E190E00FB6F894A895809360000FBE0B
:103E10002093600080E00E94330883B7817F846034
:103E200083BF83B7816083BF7894889583B78E7F83
:103E300083BF0FB6F894A895809160008861809345
:103E40006000109260000FBE08950895CF930E9405
:103E5000FD040E944A050E94251FC0E08C2F0E948D
:103E60002C06811104C0CF5FCE30C1F701C081E0C4
:103E7000CF9108950E942A180E94D9120C943308F9
:103E80001F920F920FB60F9211248F939F93AF93AF
:103E9000BF938091F502811113C080916A039091C4
:103EA0006B03A0916C03B0916D034196A11DB11DF0
:103EB00080936A0390936B03A0936C03B0936D039C
:103EC000BF91AF919F918F910F900FBE0F901F9058
:103ED000189582E084BD93E095BD9AEF97BD8093DD
:103EE0006E0008952FB7F89480916A0390916B0348
:103EF000A0916C03B0916D032FBF0895CF92DF9214
:103F0000EF92FF920F931F932FB7F89440916A039B
:103F100050916B0360916C0370916D032FBF6A0128
:103F20007B01EE24FF248C0120E030E0C016D10696
:103F3000E206F30610F4415051099A01281B390B8F
:103F4000C9011F910F91FF90EF90DF90CF900895DE
:103F500078941F920F920FB60F9211248F939F9314
:103F6000AF93BF9380916A0390916B03A0916C0310
:103F7000B0916D030196A11DB11D80936A039093CA
:103F80006B03A0936C03B0936D03BF91AF919F91AE
:103F90008F910F900FBE0F901F9018950E9482284E
:103FA000F8942FEF87EA91E6215080409040E1F7A6
:103FB00000C0000087E090EBDC0180937D039093CC
:103FC0007E03A0937F03B09380039CE088E10FB64B
:103FD000F894A895809360000FBE90936000FFCF87
:103FE0000E94DD1E811102C00E94BC1E0E94E81EBC
:103FF0008093F4020E94F01E90E090936F038093F0
:104000006E030E94EC1E682F70E080E090E00C943C
:10401000F11B8091F90280FF0BC06091070185E0E0
:10402000689FB001112475956795759567952BC0AC
:1040300081FF09C06091070185E0689FB0011124EC
:104040007595679520C082FF07C06091070185E0E4
:10405000689FB001112417C09091FA029923D1F002
:1040600060910601961788F72091070185E0289F47
:1040700090011124929FA001939F500D112470E094
:10408000CA010E94C52C6038710540F461157105A4
:1040900039F002C065E070E0862F08958FE708953B
:1040A00081E008958091F90280FF08C060910501C8
:1040B00070E0759567957595679521C081FF06C07D
:1040C0006091050170E07595679519C082FF04C085
:1040D0006091050170E010C09091FA029923C1F03F
:1040E000609104019617A0F780910501899FC00196
:1040F000112470E00E94C52C6038710528F4611508
:10410000710521F0862F08958FE7089581E00895C5
:1041100061E070E0F4CF803F21F40E940920819596
:1041200004C0813F29F40E9409208093FD02089574
:10413000823F21F40E940920819504C0833F29F425
:104140000E9409208093FC020895893F19F40E947F
:10415000522005C08A3F31F40E94522081958093FD
:10416000FE0208958B3F21F40E945220819504C0E5
:104170008C3F29F40E9452208093FF020895843FCF
:1041800021F48091FB02816017C0853F21F480916A
:10419000FB02826011C0863F21F48091FB028460A3
:1041A0000BC0873F21F48091FB02886005C0883FE7
:1041B00031F48091FB0280618093FB0208958D3F72
:1041C00021F48091F90281600BC08E3F21F480912F
:1041D000F902826005C08F3F29F48091F902846062
:1041E0008093F9020895803F39F48091FD0287FFA2
:1041F0006CC01092FD0269C0813F29F48091FD02DC
:104200001816BCF362C09091FC02823F29F497FF1C
:104210005CC01092FC0259C0833F19F41916CCF30C
:1042200054C0893F41F48091FE0218160CF04DC035
:104230001092FE024AC08A3F29F48091FE0287FF55
:1042400044C0F6CF8B3F39F48091FF0287FF3DC019
:104250001092FF023AC08C3F29F48091FF02181699
:10426000BCF333C0843F21F48091FB028E7F17C0E2
:10427000853F21F48091FB028D7F11C0863F21F4A0
:104280008091FB028B7F0BC0873F21F48091FB0262
:10429000877F05C0883F31F48091FB028F7E809339
:1042A000FB0213C08D3F21F48091F9028E7F0BC079
:1042B0008E3F21F48091F9028D7F05C08F3F29F454
:1042C0008091F9028B7F8093F9028091FC02811129
:1042D0000EC08091FD0281110AC08091FE02811101
:1042E00006C08091FF02811102C01092FA02089567
:1042F0008BEF92E00E94F0120E94721F9093F702DF
:104300008093F60208951F93CF93DF938091F60276
:104310009091F7020E947E1FAC019091FA029923BE
:1043200021F02091080130E006C02091F8028AE0D7
:10433000289F900111244217530708F486C08091EA
:10434000FC02C091FD02D091FE021091FF0281118A
:1043500007C0C11176C0D11174C0111172C075C0EF
:104360009F3F19F09F5F9093FA02181624F40E9461
:1043700009208093FC028091FC0287FF05C00E9407
:10438000092081958093FC021C1624F40E940920C8
:104390008093FD028091FD0287FF05C00E940920E5
:1043A00081958093FD026091FC02662339F1C091F2
:1043B000FD02CC2319F1772767FD7095872F972F82
:1043C0000E94B82B23E333E343E35FE30E941C2CFA
:1043D0000E94802B6093FC026C2F772767FD7095FD
:1043E000872F972F0E94B82B23E333E343E35FE348
:1043F0000E941C2C0E94802B6093FD021D1624F449
:104400000E9452208093FE028091FE0287FF05C029
:104410000E94522081958093FE02111624F40E947E
:1044200052208093FF028091FF0287FF05C00E9407
:10443000522081958093FF02DF91CF911F910C94C0
:1044400078219F3F09F08ECF96CFDF91CF911F91BA
:104450000895EBEFF2E085E0DF011D928A95E9F720
:104460001092FA021092F9020895833081F128F433
:10447000813059F08230D1F00895853009F449C077
:10448000B8F1863009F456C008958091F802262FBD
:1044900030E0280F311D2F3F310524F4680F609361
:1044A000F80208958FEF8093F80208958091080133
:1044B000262F30E0280F311D2F3F310524F4680FDF
:1044C0006093080108958FEF80930801089580910B
:1044D0000701262F30E0280F311D2F3F310524F42E
:1044E000680F6093070108958FEF80930701089587
:1044F00080910601262F30E0280F311D2F3F310516
:1045000024F4680F6093060108958FEF80930601ED
:10451000089580910501262F30E0280F311D2F3F8F
:10452000310524F4680F6093050108958FEF80939F
:104530000501089580910401262F30E0280F311DD8
:104540002F3F310524F4680F6093040108958FEF25
:10455000809304010895833011F128F4813049F0EB
:10456000823091F00895853081F120F18630C1F1DB
:1045700008958091F802681720F4861B8093F80252
:1045800008951092F802089580910801681720F4A8
:10459000861B809308010895109208010895809168
:1045A0000701681720F4861B809307010895109275
:1045B0000701089580910601681720F4861B8093F7
:1045C000060108951092060108958091050168176B
:1045D00020F4861B8093050108951092050108952B
:1045E00080910401681720F4861B809304010895CC
:1045F0001092040108950F931F93873208F04DC065
:104600008E3108F093C0803109F47DC008F5873001
:1046100009F46BC068F4863009F0A3C08091F402FD
:10462000817F8E7F8093F40281E0809301039AC0A2
:104630008B3009F48FC08E3009F093C08091F40262
:1046400082FB222720F991E0922790FB82F964C037
:10465000863109F47FC088F4813109F082C00E945C
:104660002A1880916E0387FB222720F991E0922778
:1046700090FB87F980936E036DC0893109F46AC09D
:104680008B3109F06EC08091F40281FB222720F962
:1046900091E0922790FB81F93FC0883309F45AC01A
:1046A00050F4893209F458C0853309F455C0873273
:1046B00009F452C056C0833409F44EC028F48A333A
:1046C00008F44FC0895333C0883409F04AC00E94AF
:1046D0002A180FEF13ED20E3015010402040E1F7BE
:1046E00000C000000E94CE1F35C08091F402982FB8
:1046F0009095917090FB80F98093F40291112AC0FB
:10470000897F877F10C08091F40283FB222720F9E4
:1047100091E0922790FB83F98093F4029923D1F0E2
:104720008091F40281608093F40214C08D5141E0C5
:1047300050E060E070E08A019B0104C0000F111F8F
:10474000221F331F8A95D2F7C901B8010E94F11BBD
:104750000E942A1881E006C061E070E080E090E0ED
:10476000F5CF80E01F910F91089580E0089580E0DB
:1047700008958E518A3030F4E82FF0E0E454FE4F73
:104780008081089580E00895CF93C82F8091010320
:10479000813079F018F08230E9F185C0E0910201B2
:1047A000F09103018081813169F0823209F07DC08E
:1047B00009C0E0910201F09103018081813111F083
:1047C000823261F48C2F0E94B523811104C08C2F9A
:1047D0000E94FB221DC081E090E01AC08C2F0E9435
:1047E000B723811114C0C43179F048F4CB3079F08B
:1047F000C03109F05EC082E08093010308C0C93275
:1048000019F0C83321F055C01092010352C081E065
:10481000817051C0C93279F108F5C43161F1A0F459
:10482000C73009F044C01092F80294E19093080157
:104830008093070185E08093060188E0809305015D
:1048400088E28093040133C082EE8C0F863078F5C5
:104850008C2F0E94B9238093000329C0CE34E9F045
:1048600020F4CB3421F56AE013C0C13579F0C235AC
:10487000F1F461E00DC080910003882319F01092DB
:10488000000315C081E08093010315C061E006C0FC
:10489000809100030E9435220AC06AE080910003E3
:1048A0000E94AB2204C01092010380E004C081E0AA
:1048B00002C080E0ADCFCF9108958091220308958A
:1048C0000F931F93CF93DF9300D01F92CDB7DEB726
:1048D0008C010E94D026823011F0843019F593E0CB
:1048E00099831B830A839093E9008FEF9091E800EE
:1048F000815095FD06C095ED9A95F1F70000811164
:10490000F5CF8091E80085FF0DC040E050E063E006
:1049100070E0CE0101960E94ED268091E8008E772E
:104920008093E8000F900F900F90DF91CF911F912F
:104930000F910895CF93DF9300D01F92CDB7DEB7CC
:1049400020917403243031F522E0298380589109A5
:104950009B838A8383E08093E9008FEF9091E80046
:10496000815095FD06C095ED9A95F1F700008111F3
:10497000F5CF8091E80085FF0DC040E050E063E096
:1049800070E0CE0101960E94ED268091E8008E77BE
:104990008093E8000F900F900F90DF91CF910895D2
:1049A000CF93DF93EC010E94D026823011F0843047
:1049B000F9F482E08093E9009FEF8091E800915044
:1049C00085FD06C085ED8A95F1F700009111F5CFC0
:1049D0008091E80085FF0CC040E050E065E070E0A9
:1049E000CE010E94ED268091E8008E778093E8004A
:1049F000DF91CF910895CF93DF93EC010E94D026F1
:104A0000823019F0843009F047C080911301882367
:104A1000E1F080916E0387FF18C084E08093E90085
:104A20008FEF9091E800815095FD06C095E19A9531
:104A3000F1F700008111F5CF8091E80085FF2CC0CF
:104A400040E050E060E270E017C081E08093E90050
:104A50008FEF9091E800815095FD06C095ED9A95F5
:104A6000F1F700008111F5CF8091E80085FF14C0B7
:104A700040E050E068E070E0CE010E94ED268091B9
:104A8000E8008E778093E80080E2FE01A2E0B3E0C8
:104A900001900D928A95E1F7DF91CF910895809171
:104AA0007303811109C00E9482280E94DF2880912F
:104AB000E20084608093E2000895109273030895E9
:104AC000089508950C943A1F42E061EC81E00E9441
:104AD000FC2742E061EC82E00E94FC2742E061ECAE
:104AE00083E00E94FC2742E261EC84E00C94FC2706
:104AF00080917603833009F455C030F4813071F031
:104B0000823009F48EC008958A3009F47AC08B305F
:104B100009F460C0893009F09CC020C08091750301
:104B2000813A09F096C08091E800877F8093E80081
:104B30008091790390917A03892B21F460E282E0DD
:104B400093E003C060E080E090E070E00E943827CE
:104B50008091E8008B778093E80008958091750339
:104B6000813209F076C08091790390917A030097A1
:104B700019F0039709F06DC08091E800877F80935A
:104B8000E8008091E80082FD05C0809174038111E6
:104B9000F8CF5FC08091F100809322038091E800FC
:104BA0008B7753C080917503813A09F052C0809190
:104BB000790390917A03892B09F04BC08091E8002A
:104BC000877F8093E8008091E80080FFFCCF809190
:104BD000130136C0809175038132D9F58091790334
:104BE00090917A03892BA9F58091E800877F8093C3
:104BF000E8000E94312880917703809313010C9480
:104C00002A1880917503813221F58091E800877F11
:104C10008093E8000E9431288091780380932303D9
:104C2000089580917503813AA1F48091E800877F0F
:104C30008093E8008091E80080FFFCCF80912303FF
:104C40008093F1008091E8008E778093E8000C94C7
:104C50003128089584B7877F84BF0FB6F894A8954C
:104C600080916000886180936000109260000FBEA8
:104C700080E880936100109261000E9428130E94D6
:104C800082280E94DF288091E20084608093E20005
:104C900078940E94652B0E942A1389E091E00E947B
:104CA000D41280917403853069F40E94F91E8091BA
:104CB00072038823B1F30E94261F882391F30E9478
:104CC000D726EFCF0E9432130E949D12EACF292FE0
:104CD000332723303105C9F064F42130310581F0E8
:104CE0002230310509F043C08DE690E027EB36E035
:104CF00042C021323105F1F02232310541F137C095
:104D000082E190E024E237E036C0992781309105B6
:104D100041F08230910541F0892B49F5E3EBF6E053
:104D200005C0EBE9F6E002C0E3E8F6E0849190E02C
:104D30009F0121C06430D8F4E62FF0E0EE0FFF1F92
:104D4000EE52FE4F2081318189E090E014C0643042
:104D500070F470E0FB01EE0FFF1FE653FE4F208161
:104D60003181FB01EA53FE4F808190E004C080E076
:104D700090E020E030E0FA01318320830895089527
:104D8000CF93C82F0E94BF26C0932403CF910895CC
:104D900080917403843011F081E0089582E00895D9
:104DA00080912403811102C00C94C826089580E1EB
:104DB00089BD82E189BD09B400FEFDCF8091D80094
:104DC0008F7D8093D8008091E00082608093E00026
:104DD0008091E00081FDFCCF0895CF92DF92EF92A9
:104DE000FF920F931F93CF93DF93EC018B016A0126
:104DF0000E945028811133C0C114D10439F0F6014A
:104E000080819181081B190BC80FD91FE12CF12C4F
:104E10000115110519F18091E80085FD16C08091FA
:104E2000E8008E778093E800C114D10449F0F601C0
:104E300080819181E80EF91EF182E08285E00FC049
:104E40000E945028882321F30AC089918093F100A1
:104E500001501109FFEFEF1AFF0ADACF80E0DF916E
:104E6000CF911F910F91FF90EF90DF90CF90089519
:104E700020917B0330917C032617370748F061159A
:104E8000710539F42091E8002E772093E80001C0E5
:104E9000B90140E061157105A9F120917403222345
:104EA00009F443C0253009F442C02091E80023FDF5
:104EB00040C02091E80022FD32C02091E80020FF90
:104EC000E9CF4091F3002091F20030E0342BFC0157
:104ED000CF016115710559F02830310540F48191F9
:104EE0008093F100615071092F5F3F4FF1CF41E096
:104EF0002830310509F040E02091E8002E7720931A
:104F0000E800C8CF4111C9CF0AC08091740388233B
:104F100061F0853061F08091E80083FD0AC08091E6
:104F2000E80082FFF2CF80E0089582E0089583E0F8
:104F3000089581E0089520917B0330917C0326172A
:104F4000370748F06115710539F42091E8002E7794
:104F50002093E80001C0B901FC0120E06115710552
:104F600091F180917403882309F440C0853009F4DD
:104F70003FC08091E80083FD3DC08091E80082FD44
:104F80002FC08091E80080FFE9CF2091F30080914D
:104F9000F20090E0922B6115710559F0883091056F
:104FA00040F424912093F1003196615071090196EB
:104FB000F2CF21E0089709F020E08091E8008E7799
:104FC0008093E800CBCF2111CCCF0AC0809174032D
:104FD000882361F0853061F08091E80083FD0AC08C
:104FE0008091E80082FFF2CF80E0089582E008958A
:104FF00083E0089581E00895982F973058F59093B5
:10500000E900981739F07091EC002091ED00509173
:10501000F00003C0242F762F50E021FF19C03091FB
:10502000EB003E7F3093EB003091ED003D7F3093FD
:10503000ED003091EB0031603093EB007093EC00A9
:105040002093ED005093F0002091EE0027FF07C061
:105050009F5FD3CF8F708093E90081E0089580E057
:1050600008958091750387FF11C08091E80082FD4B
:1050700005C0809174038111F8CF11C08091E800C0
:105080008B770BC080917403882349F08091E800EE
:1050900080FFF8CF8091E8008E778093E800089534
:1050A0002091E4003091E50095E64091EC00842FDA
:1050B000817040FF22C08091E80080FD1CC080917B
:1050C0007403882391F0853091F08091EB0085FD89
:1050D00010C04091E4005091E5004217530729F3B6
:1050E0009A01915011F784E0089582E0089583E0D9
:1050F000089581E0089580E008954091E80042FF1E
:10510000DECF08950E94F0280E94F828E0EEF0E03B
:10511000808181608083E8EDF0E080818F778083FB
:1051200019BCA7EDB0E08C918E7F8C9380818F7E2F
:1051300080831092730308950F931F93CF93DF938F
:105140000E94F0280E94F828C8EDD0E088818F776F
:10515000888388818068888388818F7D888319BC53
:1051600010927403109270031092720310927103E4
:1051700000EE10E0F80180818B7F80838881816060
:10518000888342E060E080E00E94FC27E1EEF0E0EE
:1051900080818E7F8083E2EEF0E080818160808379
:1051A000808188608083F80180818E7F8083888100
:1051B00080618883DF91CF911F910F910895E8ED71
:1051C000F0E080818F7E8083E7EDF0E08081816078
:1051D000808384E082BF81E0809373030C949C28D9
:1051E000E8EDF0E080818E7F80831092E2000895E8
:1051F0001092DA001092E10008951F920F920FB6FC
:105200000F9211242F933F934F935F936F937F934C
:105210008F939F93AF93BF93EF93FF938091E100A0
:1052200082FF0BC08091E20082FF07C08091E10005
:105230008B7F8093E1000E94642B8091DA0080FFD5
:105240001FC08091D80080FF1BC08091DA008E7F44
:105250008093DA008091D90080FF0DC080E189BD84
:1052600082E189BD09B400FEFDCF81E08093740323
:105270000E944F2505C019BC109274030E945D2541
:105280008091E10080FF19C08091E20080FF15C08D
:105290008091E2008E7F8093E2008091E200806145
:1052A0008093E2008091D80080628093D80019BC7E
:1052B00085E0809374030E9461258091E10084FF62
:1052C00030C08091E20084FF2CC080E189BD82E182
:1052D00089BD09B400FEFDCF8091D8008F7D8093F9
:1052E000D8008091E1008F7E8093E1008091E20000
:1052F0008F7E8093E2008091E20081608093E200E3
:1053000080917003882311F084E007C08091E3004E
:1053100087FD02C081E001C083E0809374030E9496
:1053200062258091E10083FF29C08091E20083FF24
:1053300025C08091E100877F8093E10082E0809327
:105340007403109270038091E1008E7F8093E100DE
:105350008091E2008E7F8093E2008091E200806184
:105360008093E20042E060E080E00E94FC278091B0
:10537000F00088608093F0000E946025FF91EF911B
:10538000BF91AF919F918F917F916F915F914F915D
:105390003F912F910F900FBE0F901F9018951F9265
:1053A0000F920FB60F9211242F933F934F935F9359
:1053B0006F937F938F939F93AF93BF93CF93DF931D
:1053C000EF93FF93C091E900CF708091EC00D82F4C
:1053D000D17080FDD0E81092E9008091F000877FC5
:1053E0008093F00078940E94132A1092E900809133
:1053F000F00088608093F000CD2BCF70C093E9005F
:10540000FF91EF91DF91CF91BF91AF919F918F91DC
:105410007F916F915F914F913F912F910F900FBEB0
:105420000F901F9018951F93CF93DF93CDB7DEB7E2
:10543000AA970FB6F894DEBF0FBECDBFE5E7F3E045
:1054400088E08E0F9091F10091938E13FBCF0E9414
:1054500078258091E80083FF1FC1809175039091AA
:105460007603492F50E04A30510508F015C1FA0182
:10547000E556FF4F0C94D92C803881F0823809F022
:105480000BC1809179038F708093E9008091EB00CC
:1054900085FB882780F91092E90006C0809171038E
:1054A00090917203911182609091E800977F9093A0
:1054B000E8008093F1001092F100C8C0282F2D7FE2
:1054C00009F0EAC0882319F0823061F0E5C08091CC
:1054D0007703813009F0E0C0933009F080E08093D9
:1054E00072032BC080917703811127C080917903CB
:1054F0008F7009F4D1C08093E9002091EB0020FF68
:105500001CC0933021F48091EB00806214C0909114
:10551000EB0090619093EB0021E030E0A90102C024
:10552000440F551F8A95E2F74093EA001092EA0073
:105530008091EB0088608093EB001092E9008091ED
:10554000E800877F86C08111A7C0109177031F777D
:105550008091E3008078812B8093E3008091E800C4
:10556000877F8093E8000E9431288091E80080FFC7
:10557000FCCF8091E30080688093E300111102C0AA
:1055800082E001C083E08093740386C0805882303B
:1055900008F082C080917703909178038C3D53E0AE
:1055A000950779F583E08A838AE289834FB7F89477
:1055B000DE01139620E03EE051E2E32FF0E050934D
:1055C0005700E49120FF03C0E295EF703F5FEF705A
:1055D0008E2F90E0EA3010F0C79601C0C0968D93F0
:1055E0009D932F5F243149F74FBF8091E800877F5B
:1055F0008093E8006AE270E0CE0101960E943827AD
:1056000014C0AE014F5F5F4F609179030E9467261F
:10561000BC01892B09F440C09091E800977F9093DA
:10562000E80089819A810E949B278091E8008B770E
:105630008093E80031C0803879F58091E800877F59
:105640008093E800809170038093F1008091E800DE
:105650008E778093E8000E9431281EC081111CC003
:10566000909177039230C0F48091E800877F809317
:10567000E800909370030E9431288091700381119B
:1056800006C08091E30087FD02C081E001C084E094
:10569000809374030E9464258091E80083FF0AC010
:1056A0008091E800877F8093E8008091EB00806222
:1056B0008093EB00AA960FB6F894DEBF0FBECDBF65
:1056C000DF91CF911F9108950895CF938091740336
:1056D0008823A1F0C091E900CF709091EC00892F50
:1056E000817090FD80E8C82B1092E9008091E8005D
:1056F00083FD0E94132ACF70C093E900CF910895D3
:105700000E94872B6894B1110C94162C08950E9466
:10571000FB2B88F09F5798F0B92F9927B751B0F01D
:10572000E1F0660F771F881F991F1AF0BA95C9F725
:1057300014C0B13091F00E94152CB1E008950C9482
:10574000152C672F782F8827B85F39F0B93FCCF335
:10575000869577956795B395D9F73EF490958095A2
:10576000709561957F4F8F4F9F4F0895E89409C0C2
:1057700097FB3EF490958095709561957F4F8F4F84
:105780009F4F9923A9F0F92F96E9BB279395F6959A
:10579000879577956795B795F111F8CFFAF4BB0F18
:1057A00011F460FF1BC06F5F7F4F8F4F9F4F16C07C
:1057B000882311F096E911C0772321F09EE8872F06
:1057C000762F05C0662371F096E8862F70E060E0C2
:1057D0002AF09A95660F771F881FDAF7880F96953B
:1057E000879597F9089557FD9058440F551F59F024
:1057F0005F3F71F04795880F97FB991F61F09F3FBE
:1058000079F087950895121613061406551FF2CFE6
:105810004695F1DF08C0161617061806991FF1CF36
:1058200086957105610508940895E894BB2766275D
:105830007727CB0197F908950E942F2C0C94A02C68
:105840000E94922C38F00E94992C20F0952311F0A0
:105850000C94892C0C948F2C11240C94162C0E94DF
:10586000F32B70F3959FC1F3950F50E0551F629F86
:10587000F001729FBB27F00DB11D639FAA27F00DA9
:10588000B11DAA1F649F6627B00DA11D661F829FD0
:105890002227B00DA11D621F739FB00DA11D621FB5
:1058A000839FA00D611D221F749F3327A00D611DD2
:1058B000231F849F600D211D822F762F6A2F1124B4
:1058C0009F5750409AF0F1F088234AF0EE0FFF1FE7
:1058D000BB1F661F771F881F91505040A9F79E3F3E
:1058E000510580F00C94892C0C94162C5F3FE4F346
:1058F000983ED4F3869577956795B795F795E79594
:105900009F5FC1F7FE2B880F911D9695879597F99C
:10591000089597F99F6780E870E060E008959FEF31
:1059200080EC089500240A94161617061806090636
:10593000089500240A941216130614060506089505
:10594000092E0394000C11F4882352F0BB0F40F48D
:10595000BF2B11F460FF04C06F5F7F4F8F4F9F4FCD
:105960000895AA1BBB1B51E107C0AA1FBB1FA617A6
:10597000B70710F0A61BB70B881F991F5A95A9F7F8
:1059800080959095BC01CD01089597FB072E16F4E4
:10599000009407D077FD09D00E94B12C07FC05D0F8
:1059A0003EF4909581959F4F0895709561957F4F36
:1059B0000895EE0FFF1F0590F491E02D0994F999D9
:1059C000FECF92BD81BDF89A992780B50895A6E1D2
:1059D000B0E044E050E00C94182DA8E1B0E042E0C3
:1059E00050E00C94182D262FF999FECF92BD81BD61
:1059F000F89A019700B4021631F020BD0FB6F89462
:105A0000FA9AF99A0FBE08950396272F0E94F42C54
:105A10000E94F32C252F0E94F42C242F0C94F42C9C
:105A20000196272F0E94F42C0C94F32CDC01CB015F
:105A3000FC01F999FECF06C0F2BDE1BDF89A31969E
:105A400000B40D9241505040B8F70895F894FFCF3C
:105A500020FFD10228080502145D24FB24D0249ADB
:105A600024602401000D010D020D030D040D050D30
:105A7000000C010C020C030C040C050C000B010BB8
:105A8000020B030B040B050B000A010A020A030AAE
:105A9000040A050A000901090209030904090509A4
:105AA00000080108020803080408050800070107A8
:105AB000020703070407050700060106020603069E
:105AC0000406050600050105020503050405050594
:105AD0000004010402040304040405040003010398
