:100000000C941D040C9464040C9464040C94640417
:100010000C9464040C9464040C9464040C946404C0
:100020000C9464040C9464040C94622A0C94342B95
:100030000C94BD200C9464040C9464040C9464042B
:100040000C9464040C9464040C9464040C94640490
:100050000C9464040C9425210C9464040C946404A2
:100060000C9464040C9464040C9464040C94640470
:100070000C9464040C9464040C9464040C94640460
:100080000C9464040C9464040C9464040C94640450
:100090000C9464040C9464040C9464040C94640440
:1000A0000C9464040C9464040C946404ED06EF0650
:1000B000FA06F106F306F506F706F906FC06FE0653
:1000C00000070B0702070407060708070A070D07C2
:1000D0008F168F16C916C916FE161E178B18C7184D
:1000E0006017C718101810188318C718C718C21837
:1000F0001D181D181D181D181D181D181D181D1858
:100100001D181D181D181D181D181D181D181D1847
:100110002F183C1843184A185418561956196819BC
:1001200068195F19681968196819561956196419F8
:10013000681968196419A12BC82BBA2CC82BBA2CC2
:10014000142C372CBA2C8D2C9C2C6572676F646F25
:10015000782F6F6B6C61686F6D6572204020302E58
:10016000352E34352D313434332D67363434333431
:10017000662D6469727479000000F0A129002B00DB
:10018000E000E100E20000001E00140004001D0079
:10019000000002511F001A0016001B000000E300BF
:1001A000200008000700060031002900210015008A
:1001B0000900190034000000220017000A000500A1
:1001C0000000000000002C040000000000000000FF
:1001D00000002C08000000000000000023001C00AC
:1001E0000B00110000000000240018000D0010009A
:1001F0002D00000025000C000E0036002E002C0003
:10020000260012000F0037002F00015127001300B5
:10021000330038003000350035002A002800E500A2
:10022000E6000000003001000100010001000000B4
:100230003A0000002F0A0000000001003B0000000F
:10024000300A0000000001003C00000045040000EE
:10025000000001003D000000450A190E005C01008D
:100260003E0000000000000000000100000000004F
:10027000000000000000010000000000000000007D
:10028000000001003F0000005000000000000100DD
:10029000400000005100000001000100410000008A
:1002A0005200000001000100420000004F00000069
:1002B000010001004300440045000000010001006E
:1002C0000100010001000100010000000000000029
:1002D000000000000000000000000000AA00000074
:1002E0000000010000000000A90000000000010063
:1002F0000000F000A8000000F40001000000000071
:1003000000000000F50001000000000000000000F7
:1003100000000100000000000000000000000100DB
:1003200000000000000000000000010000000000CC
:10033000F20000000000010000000000F1000000D9
:100340000000010000000000F000AC000000B6005A
:1003500000000000F300AB000000010000000000FE
:10036000000000000000010000000000AE000000DE
:100370000000000000000000000000002A2B280000
:100380000000000000000000000000000000002944
:10039000000000002C1E3420212224342627252E84
:1003A000362D3738271E1F202122232425263333BC
:1003B000362E37381F0405060708090A0B0C0D0EE8
:1003C0000F101112131415161718191A1B1C1D2FB4
:1003D0003130232D350405060708090A0B0C0D0ED4
:1003E0000F101112131415161718191A1B1C1D2F94
:1003F0003130354C0000000000000000000000001B
:1004000000000000000000000000000000000000EC
:1004100000000000000101010101010001010101D2
:1004200000000000000000000000000000000100CB
:1004300001000101010101010101010101010101AD
:10044000010101010101010101010101010101009D
:10045000000001010000000000000000000000009A
:10046000000000000000000000000000000000018B
:10047000010101006801F000B40078005A00643204
:1004800014643214783C1E1E140A0500000000019A
:1004900001010202030405050607090A0B0C0E0FF1
:1004A0001112141517191B1D1F212325282A2C2F63
:1004B000313436393B3E414346494C4F5255585AE8
:1004C0005D6164676A6D707376797C7F8386898CE1
:1004D0008F9295989B9EA2A5A7AAADB0B3B6B9BCC2
:1004E000BEC1C4C6C9CBCED0D3D5D7DADCDEE0E2FC
:1004F000E4E6E8EAEBEDEEF0F1F3F4F5F6F8F9FAFC
:10050000FAFBFCFDFDFEFEFEFFFFFFFFFFFFFFFE0F
:10051000FEFEFDFDFCFBFAFAF9F8F6F5F4F3F1F056
:10052000EEEDEBEAE8E6E4E2E0DEDCDAD7D5D3D0C4
:10053000CECBC9C6C4C1BEBCB9B6B3B0ADAAA7A51F
:10054000A29E9B9895928F8C898683807C79767306
:10055000706D6A6764615D5A5855524F4C49464305
:10056000413E3B393634312F2C2A282523211F1DAB
:100570001B1917151412110F0E0C0B0A090706058B
:100580000504030202010101000000000000000058
:100590000101010101010101010202020202020244
:1005A0000202030303030303030304040404040417
:1005B00005050505050606060606070707070808D8
:1005C00008080909090A0A0A0A0B0B0B0C0C0C0D86
:1005D0000D0D0E0E0F0F0F1010111111121213131B
:1005E0001414151516161717181819191A1A1B1C92
:1005F0001C1D1D1E1F1F20202122222324252526ED
:10060000272728292A2B2B2C2D2E2F2F3031323320
:10061000343536363738393A3B3C3D3E3F4041422F
:100620004344464748494A4B4C4D4F50515253550D
:100630005657585A5B5C5E5F606263646667696ABE
:100640006C6D6E707173747678797B7C7E8081833B
:100650008486888A8B8D8F91929496989A9B9D9F81
:10066000A1A3A5A7A9ABADAFB1B3B5B7B9BBBDBF8A
:10067000C1C4C6C8CACCCFD1D3D6D8DADCDFE1E456
:10068000E6E8EBEDF0F2F5F7FAFCFF160345007231
:100690000067006F0044006F007800200045005A9A
:1006A00000000016034500720067006F0044006FF1
:1006B000007800200045005A0000000403090409E6
:1006C000026D00040100A0FA090400000103010109
:1006D00000092111010001224000070581030800E3
:1006E0000A090401000103010200092111010001AE
:1006F000224D000705820308000A090402000103D5
:1007000000000009211101000122360007058303C2
:1007100008000A0904030001030000000921110177
:100720000001223900070584032000011201100195
:1007300000000008EDFE07130100010200010501A1
:100740000906A101050719E029E71500250195080B
:1007500075018102050819012905950575019102A8
:100760009501750391010507190029F71500250169
:1007700095F875018102C005010980A10185021665
:1007800001002603001A81002A830075109501815B
:1007900000C0050C0901A1018503160100269C0279
:1007A0001A01002A9C02751095018100C0050109FB
:1007B00002A1010901A1000509190129051500255A
:1007C00001950575018102950175038101050109F6
:1007D0003009311581257F95027508810609381584
:1007E00081257F950175088106050C0A380215815F
:1007F000257F950175088106C0C005010906A10184
:10080000050719E029E71500250195087501810202
:1008100095017508810105081901290595057501DE
:1008200091029501750391010507190029FF150033
:1008300026FF00950675088100C011241FBECFEF6A
:10084000DAE0DEBFCDBF04B603FE27C08091B80357
:100850009091B903A091BA03B091BB038730904B3C
:10086000A740B04BD1F41092B8031092B903109284
:10087000BA031092BB0314BE84B7877F84BF0FB640
:10088000F894A89580916000886180936000109230
:1008900060000FBEE0E0FFE3099511E0A0E0B1E0E9
:1008A000EAECFAE502C005900D92AA3DB107D9F72E
:1008B00013E0AAEDB1E001C01D92A83BB107E1F73A
:1008C0000E948F270C94632D0C9400001092B900A5
:1008D0008AE08093B800089594EA9093BC009091C8
:1008E000BC0097FFFCCF9091B900987F983021F021
:1008F000903111F081E008958093BB0084E88093EB
:10090000BC008091BC0087FFFCCF8091B900887F3C
:10091000883111F0803471F780E0089584E9809384
:10092000BC008091BC0084FDFCCF08958093BB0087
:1009300084E88093BC008091BC0087FFFCCF90913D
:10094000B900987F81E0983209F480E0089584E846
:100950008093BC008091BC0087FFFCCF8091BB00DE
:10096000089580B38C7080BB81B3836F81BB089581
:1009700080910001811115C080E40E946C04809375
:10098000000181110CC082E10E9496048093000155
:10099000811105C08FEF0E949604809300010E9490
:1009A0008E0484B1807F84B985B1807F85B98AB196
:1009B000837F8AB98BB1837F8BB93E98469808951F
:1009C0000C9445060E94BC0B809300010E94B80461
:1009D0000E94B1042BED31E0EFE2F2E04EE04E0F69
:1009E000119280E090E0D901A80FB91F1C920196E6
:1009F00086309105C1F72A5F3F4F4E13F1CF0C941B
:100A00007B080E94BC0B809300010E94B8040E94E6
:100A1000B104EFE2F2E08EE08E0F11928E13FDCF63
:100A2000089526E0829FC0011124FC01E552FE4F8B
:100A300020E030E080E041E050E09081992319F01F
:100A40009150908307C0BA01022E01C0660F0A942C
:100A5000EAF7862B2F5F3F4F31962630310569F735
:100A6000089596E0699FB001112420E030E090E005
:100A70004FE0FC01022E02C0F595E7950A94E2F7DB
:100A8000E0FF06C0F901E60FF71FE552FE4F408375
:100A90002F5F3F4F2630310561F70895AF92BF9227
:100AA000CF92DF92EF92FF920F931F93CF93DF933A
:100AB00080910001882379F08091DA018F5F809323
:100AC000DA01811108C00E94BC0B809300018111E2
:100AD00002C00E944E0B8FE2E82E82E0F82E00E06A
:100AE00010E0CC24C394D12CAA24A394C02F0730A7
:100AF000110500F58091000181113CC080E40E9445
:100B00006C0480930001811112C082E10E9496045E
:100B10008093000181110BC0C601002E01C0880F17
:100B20000A94EAF780950E949604809300010E943F
:100B30008E0420C00A30A1F028F4083059F00930A2
:100B400061F005C00C3089F070F00D3089F0209A0A
:100B5000289810C0219A29980DC0229A2A980AC074
:100B6000239A2B9807C0529A01C0539A5B9802C0EF
:100B70003E9A469880EA8A95F1F78C2F0E941105DB
:100B8000D82F0730110518F580910001811144C05C
:100B900080E40E946C0480930001882311F0B12C42
:100BA00012C083E10E949604809300018111F7CF67
:100BB00081E40E946C04809300018111F0CF0E94B7
:100BC000A704B82EB0940E948E049B2D26C08FB12E
:100BD00081708A25799902C092E001C090E0892B4A
:100BE0007C9902C094E001C090E0982B7D9902C0EE
:100BF00038E001C030E0932B7E9902C020E101C0B3
:100C000020E0922B2FB12095221F2227221F229510
:100C1000220F207E922B01C090E0F70180819D235E
:100C2000D095D823D92B6C2F8D270E943105F70141
:100C3000D1937F010E94B8040F5F1F4F0E30110542
:100C400009F054CF0E947D0881E0DF91CF911F9180
:100C50000F91FF90EF90DF90CF90BF90AF900895ED
:100C6000E82FF0E0E15DFD4F808108950895611166
:100C700008C0FC018281882321F08AE491E00E946F
:100C8000780880E090E008950895609100037091E5
:100C9000010380910203909103030E946F1F5698F5
:100CA0005E9825982D9826982E9827982F98813011
:100CB00019F0823021F00895259A2D9A0895269AE8
:100CC0002E9A089581E0089581E008950C946406B9
:100CD0000E9444192FEF84E39CE021508040904013
:100CE000E1F700C000000C944B21FF920F931F937B
:100CF000CF93DF938C01FC01C081D18180918F0261
:100D0000811113C08281882349F0CE010E94651EA3
:100D1000F82E682FCE010E94081E04C0CE010E944A
:100D2000381EF82EBE018F2D04C0CE010E94651E14
:100D3000BE010E949208EC01B8010E946606882359
:100D400009F497C1B801CE010E94FF0A882309F473
:100D500090C1B801CE010E940B0C882309F489C10F
:100D6000C33CFCE5DF0741F4F8018281882309F4E4
:100D700080C10E94A50F7DC1C43C8CE5D80708F056
:100D8000D4C0C5319CE5D90708F057C0C230ECE5A6
:100D9000DE0708F483C0F8018281882309F476C055
:100DA0000E94E01F811102C00E94BF1F0E94F31F1A
:100DB00090E09093AA038093A903FE01E350FC45C1
:100DC000E231F10530F4EA5AFF4F8091A9030C9407
:100DD000162D8091A903816027C0826025C08460A0
:100DE00023C0806121C080621FC080641DC08068F4
:100DF0001BC08460886018C08E7F16C08D7F14C0B1
:100E00008B7F12C08F7E10C08F7D0EC08F7B0CC079
:100E10008F770AC08B7F877F07C087FB222720F947
:100E200091E0922790FB87F98093A9038091A90311
:100E30000E94F71F0E9444191CC1C03C9CE5D907C1
:100E400009F446C008F059C0C531DC45D1F40E9410
:100E5000361F282FF8018281409102015091030131
:100E6000882309F43FC02A7A91E009F490E0909336
:100E70003D02911135C069E2CA010E9458200E94CA
:100E8000031F81E08093420280934302C801DF91F7
:100E9000CF911F910F91FF900C946206C115FCE554
:100EA000DF0741F4F8018281882309F4E2C00E943F
:100EB0006806DFC0C130DC4521F7F8018281882354
:100EC00009F4D7C080912D03816080932D03D1C098
:100ED000F8018281882309F4CCC00E94A210C9C005
:100EE00065E3CACF80913D02811102C069E201C071
:100EF00065E3CA010E946320C2CFC13C8CE5D807DC
:100F000041F4F8018281882309F4B3C00E9498104B
:100F1000B0C0C23CDC4509F0B4CFF801828188231F
:100F200009F4A7C00E948D0FA4C0C73CECE5DE0702
:100F300041F4F8018281882309F49BC00E940310C8
:100F400098C0C83CFCE5DF07D8F4F8018281C53CB5
:100F5000FCE5DF0731F4882309F48BC00E94D60F2B
:100F600088C0C63CDC4530F4882309F482C00E9466
:100F7000C40F7FC0882309F47CC00E94E80F79C0A9
:100F8000C93CECE5DE0781F5F8018281882361F038
:100F9000109243020E94EF209093410280934002FE
:100FA00080E20E94441665C00E94361F81FF05C082
:100FB00081E0809342028093430280914302811139
:100FC0000FC080914002909141020E94FB20883C1A
:100FD000910530F487E20E94F11487E20E94E51542
:100FE00080E20E944B1645C0C93CFCE5DF0760F576
:100FF000F8018281882351F0109242020E94EF2072
:1010000090933F0280933E0282E0CBCF0E94361F36
:1010100085FF05C081E08093420280934302809166
:10102000420281110FC080913E0290913F020E94C6
:10103000FB20883C910530F486E20E94F11486E2A0
:101040000E94E51582E0CDCFCC3C8CE5D80731F489
:10105000F8018281882369F080E009C0CD3CDC453D
:1010600009F00FCFF8018281882319F082E00E94F5
:10107000252880E0DF91CF911F910F91FF90089577
:101080000F931F93CF93DF938C01D62FF8012491F8
:10109000222349F130E0F901EC58FC4FC491F901E9
:1010A000EC50FC4F2491222359F081EE0E94F11460
:1010B0008C2F0E94F1148C2F0E94E51581EE04C044
:1010C0008C2F0E94F1148C2F0E94E5150F5F1F4F8B
:1010D0008D2F8823D9F2EFE9FFE03197F1F700C0B7
:1010E00000008150F6CFDF91CF911F910F910895AD
:1010F00060E00C9440080C94A60B0C94E004282F9C
:10110000882339F090E02A3010F44D960895069720
:10111000089587E290E0089508950C948C080C944B
:101120008D08089596E0799FF001112494E5899F38
:10113000E00DF11D1124E60FF11DEE0FFF1FE45825
:10114000FE4F859194910895880F991FFC01E858EE
:10115000FE4F859194910895CF93DF9326E0729F7F
:10116000F001112444E5849FE00DF11D1124E60FE8
:10117000F11DEE0FFF1FE458FE4F859194910E94E0
:10118000550AEC01811550E49507B8F5811560E327
:10119000960708F0E3C0803E9105D0F4803C9105AD
:1011A00008F071C0883A910570F4853A910508F00D
:1011B0006DC08130910509F474C108F42BC1049706
:1011C00008F06FC127C18D3B910508F46AC022C1A8
:1011D0008F3F910509F048F4803F910508F0B8C0B1
:1011E000883E910508F45DC115C1C11580E2D8079C
:1011F00008F457C1CE019F70ADC0C11594E5D90761
:10120000D8F4C11523E5D20708F0E3C0C11541E5C4
:10121000D40740F4C11550E5D50708F0A8C0DF7029
:10122000D06A3FC1C11562E5D60708F0BCC0DC2F0B
:10123000CC27C16FD06A35C1C11586E5D80750F4F7
:10124000C11595E5D90708F0DAC0DC2FCC27C46FAB
:10125000D06A27C1C11528E5D20708F4DBC0C11543
:1012600049E5D40708F4D1C0CE01905681159042CB
:1012700008F0D0C08D2F8F710E94D20ADD27D06276
:101280008F71D82B0EC1805C910964C0853A91059D
:1012900009F4C3C0863A910509F0C2C0C2E8D0E49F
:1012A00000C1883A910509F4BEC0893A910509F454
:1012B000BDC08A3A910509F4BCC08B3A910509F486
:1012C000BBC08C3A910509F4BAC08B3B910509F477
:1012D000B9C08C3B910509F4B8C08D3A910509F469
:1012E000B7C0803B910509F4B6C08E3A910509F468
:1012F000B5C08F3A910509F4B4C0813B910509F45A
:10130000B3C0823B910509F4B2C0833B910509F457
:10131000B1C0843B910509F4B0C0853B910509F447
:10132000AFC0863B910509F4AEC0873B910509F437
:10133000ADC0883B910509F4ACC0893B910509F427
:10134000ABC08A3B910509F4AAC0C0E0D4E4A9C0AF
:10135000D065A7C00E94A408EC01A3C09927D3FFC1
:1013600003C0EC01D86C9DC0EC01D06C9AC02C2F4E
:10137000237081E090E002C0880F991F2A95E2F760
:101380009C689E0144E0369527954A95E1F72370C5
:10139000922BCF70C695C69560E2C69FE0011124DE
:1013A000C82BD92B7EC02C2F2695269580E2289F0E
:1013B00090011124C370DD2781E090E0AC0102C0F0
:1013C000440F551FCA95E2F7EA01C22BD32BDC6804
:1013D00068C02C2F2695269580E2289F9001112425
:1013E000C370DD2781E090E0AC0102C0440F551FBF
:1013F000CA95E2F7EA01C22BD32BDA6852C0CF714B
:10140000DD27DC2FCC27D0624CC0DC2FCC27C06F6F
:10141000D06A47C0C0E0D0E044C0C1E8D0E441C0D9
:10142000C3E8D0E43EC0C2EED4E43BC0C9EED4E48D
:1014300038C0CAEED4E435C0C5EBD4E432C0C6EB44
:10144000D4E42FC0C3EBD4E42CC0C4EBD4E429C053
:10145000C7EBD4E426C0CCECD4E423C0CDECD4E478
:1014600020C0C3E8D5E41DC0CAE8D5E41AC0C2E96B
:10147000D5E417C0C4E9D5E414C0C1E2D6E411C074
:10148000C3E2D6E40EC0C4E2D6E40BC0C5E2D6E4A3
:1014900008C0C6E2D6E405C0C7E2D6E402C0CAE28C
:1014A000D6E4CE01DF91CF9108958238910549F1BC
:1014B000B0F48133910509F458C048F4893291059C
:1014C00009F44EC08A32910509F454C00895853359
:1014D000910509F440C08933910599F00895833E40
:1014E000910529F138F4803E910591F0823E9105F5
:1014F000A1F00895863E9105F9F0873E910531F1FE
:1015000008952091A90320FD3AC021FD38C0089517
:101510008091A90380FD35C032C08091A90382FF6C
:1015200032C08091A90384FD30C083EE39C0809120
:10153000A90382FD28C0F5CF8091A90383FF27C0AE
:101540008091A90384FD21C087EE2AC08091A90360
:1015500083FD1DC0F5CF8091A90385FD1AC01BC076
:101560008091A90385FD17C014C08091A90386FD51
:1015700014C015C08091A90386FD11C00EC080EE75
:101580000FC089E30DC082EE0BC080E009C086EE7B
:1015900007C089E205C085E303C08AE201C081E398
:1015A00090E00895CF93C82F0E94F31F90E090938E
:1015B000AA038093A90382FF0DC09C2F98719830D5
:1015C00019F4C77FC46006C09C2F9471943011F445
:1015D000CB7FC86083FF0DC09C2F9871983119F4A0
:1015E000C77EC46106C09C2F9471943111F4CB7EE8
:1015F000C86184FDC77E8C2FCF91089508950F9305
:101600001F93CF93FB012281211102C0C1E041C091
:101610008C01C0915102C11125C086319C45B1F7A2
:101620000E94FE0A81E0809351020E94EF20909375
:10163000500280934F021092440210924602109280
:101640004502109248021092470210924A021092EC
:10165000490210924C0210924B0210924E021092CC
:101660004D0217C080914F02909150020E94FB20C2
:10167000883C910558F690914402E92FF0E0EE0F76
:10168000FF1FEB5BFD4F118300839F5F909344022C
:10169000C0E08C2FCF911F910F91089556985E98BE
:1016A00025982D9826982E9827982F988FEF90E0C0
:1016B000909389008093880090938B0080938A0098
:1016C00090938D0080938C00259A2D9A2FEF80E7C0
:1016D00092E0215080409040E1F700C00000269A3F
:1016E0002E9A2FEF80E792E0215080409040E1F762
:1016F00000C00000279A2F9A2FEF80E792E0215038
:1017000080409040E1F700C0000025982D982FEF11
:1017100080E792E0215080409040E1F700C0000057
:1017200026982E982FEF80E792E02150804090403D
:10173000E1F700C0000027982F9856985E982598EA
:101740002D9826982E9827982F98089589EA8093A7
:10175000800089E08093810024982C983F988AB17A
:101760008F7C8AB96E98479A8BB180638BB9769AD1
:101770000E944E0B0C94440680E2809300018091FD
:10178000520281110EC00E94660481E080935202D1
:101790002FEF83ED90E3215080409040E1F700C0AF
:1017A000000080E40E946C048093000181112EC02F
:1017B0000E94960480930001811128C00E94960423
:1017C00080930001811122C08FE30E9496048093D0
:1017D000000181111BC00E948E0480E40E946C04F1
:1017E00080930001811112C08CE00E9496048093C6
:1017F000000181110BC00E949604809300018111A9
:1018000005C08FE30E949604809300010E948E041D
:10181000809100010895CF93DF93813020E89207F3
:10182000D0F0FB0122812223B1F0EC018091530220
:10183000811109C08CE090E00E941C2D0E942F0CA9
:1018400081E0809353020E94360CCE019F770E9464
:10185000F40C0E94AC0C81E0DF91CF91089580934D
:101860005402682F8CE090E00C94302DE09102013E
:10187000F0910301808180935E0381FF03C081EEBC
:101880000E94E51580915E0385FF03C085EE0E94EE
:10189000E51580915E0380FF03C080EE0E94E51590
:1018A00080915E0384FF03C084EE0E94E515809161
:1018B0005E0382FF03C082EE0E94E51580915E0305
:1018C00086FF03C086EE0E94E51580915E0383FFCC
:1018D00003C083EE0E94E51580915E0387FF03C07D
:1018E00087EE0E94E515809154028130A1F078F0D6
:1018F000823011F1843049F586EE0E94F11486EEB3
:101900000E94E51588E10E94F11488E11CC082EE76
:101910000E94F1141AC080EE0E94F11481EE0E9420
:10192000F11488E10E94F11488E10E94E51581EE2E
:101930000E94E51580EE07C082EE0E94F11487E553
:101940000E94F11487E50E94E5158FE39CE9019759
:10195000F1F700C00000089580915402813029F011
:1019600010F0823041F482EE04C08CE20E94F11447
:101970008CE20E94E51580915E0381FF03C081EE39
:101980000E94F11480915E0385FF03C085EE0E94E2
:10199000F11480915E0380FF03C080EE0E94F11479
:1019A00080915E0384FF03C084EE0E94F114809155
:1019B0005E0382FF03C082EE0E94F11480915E03F9
:1019C00086FF03C086EE0E94F11480915E0383FFC0
:1019D00003C083EE0E94F11480915E0387FF03C071
:1019E00087EE0C94F1140895EF92FF921F93CF931A
:1019F000DF937C01CCE0D0E097010C2E02C036953D
:101A000027950A94E2F7122F1F70812F0E947F08FA
:101A10000E94F114812F0E947F080E94E5152497EF
:101A2000CC3F8FEFD80741F7DF91CF911F91FF9007
:101A3000EF900895882319F05198599A02C0519A4D
:101A400059985098589A95E09A95F1F70000509A55
:101A5000589895E09A95F1F70000882311F0519A73
:101A6000599885E08A95F1F7000008958BB18C7F35
:101A70008BB95098589A5198599A85E08A95F1F700
:101A8000000008958AB18C7F8AB985E08A95F1F7C4
:101A90000000519A599885E08A95F1F70000509A14
:101AA000589885E08A95F1F7000008955098589A63
:101AB00085E08A95F1F700005198599A85E08A955A
:101AC000F1F700000895CF93DF93D82FC8E08D2F52
:101AD00080780E941A0DDD0FC150C9F780E00E9486
:101AE0001A0D85E08A95F1F7000085E08A95F1F7F7
:101AF000000080E0DF91CF9108952BB1342F309515
:101B000023233BB1432B3FB7F894FC01680F791FA7
:101B1000E617F70789F0819198E04BB9000000C003
:101B200087FF2BB9880F000000C000C000C02BB990
:101B300000C09A9591F7ECCF3FBF0895AF92BF9246
:101B4000CF92DF92EF92FF920F931F93CF93DF9389
:101B50008C01EB01CFB6D090BC00F8948091BC0012
:101B60008B7F8093BC000E94360D0E94420D84E85A
:101B70000E94630DCC0FDD1FCC0FDD1F78015801D3
:101B8000AC0EBD1EEA14FB0431F0F70181917F0118
:101B90000E94630DF7CF0E94560DCFBED092BC00BD
:101BA000579A40E8BE01C801DF91CF911F910F9174
:101BB000FF90EF90DF90CF90BF90AF900C947D0D91
:101BC000EF92FF920F931F93CF93DF93E901662368
:101BD00009F44BC0242F30E0EFEFF0E0E61BF109F1
:101BE000B901E69F9001E79F300DF69F300D11245B
:101BF000232F8B01031B11095CE3E52EF12CB701A8
:101C00000E94EE2CFB01BC01069FC001079F900DB6
:101C1000169F900D1124B7010E94EE2CE230F105C1
:101C2000B1F040F4309779F0319711F5832F242FDC
:101C3000461B21C0E430F105A1F068F03597C1F4EE
:101C4000842F861B18C0832F262F230F14C0862FA6
:101C5000830FE42F03C0E42FE61B842F432F2E2F86
:101C60000AC0842F462F430F06C0842F242F03C0A1
:101C700080E020E040E0E42FF0E0E557FA4F4491A7
:101C8000E22FF0E0E557FA4F9491E82FF0E0E557A6
:101C9000FA4FE49149839883EA83DF91CF911F91B2
:101CA0000F91FF90EF90089588E090E00C94242D20
:101CB000AB01BC0188E090E00C94412DEFE5F3E02E
:101CC00083E08083109260038FEF8283838360912F
:101CD0005F037091600380916103909162030C94A3
:101CE000580E80915F0380FF06C06FE070E087E6CA
:101CF00093E00C949E0D80E090E0FC01E959FC4FCC
:101D000011821082128204968C339105B1F7EDCFC7
:101D100020E030E0F901E959FC4F81836083428380
:101D20002C5F3F4F2C333105A9F70C94710EEF92C5
:101D3000FF920F931F93CF93DF9300D000D0CDB7C6
:101D4000DEB700915F031091600320916103309131
:101D5000620300936303109364032093650330933D
:101D6000660320915F0320FF21C0042FF62EE92E89
:101D7000182F9E012F5F3F4F0E94E00D809163035B
:101D800010FB87F980936303169580916403807834
:101D9000182BE0FA17F910936403F092650300938F
:101DA00066034B8169818A810E94880E0F900F9093
:101DB0000F900F90DF91CF911F910F91FF90EF90B7
:101DC00008958F929F92AF92BF92CF92DF92EF923F
:101DD000FF920F931F93CF93DF93EC01062F142FE5
:101DE00080915F0380FF8CC0982F9E77923021F402
:101DF000CE010E94970E5AC0E82FE695EF739EE33E
:101E00009E0F9F73943018F4109162034FC09AE3B1
:101E10009E0F9F73993070F4881F8827881F9091B8
:101E20006003292F220FC22FC82B97FB992790F907
:101E3000D92F3CC087E28E0F8F738A30B8F5F0E05F
:101E40007997E0FD02C021E001C02FEFEE7FEC5852
:101E5000FB4F859194916FE070E00E94EE2C260379
:101E60006001279FD00C11244E0188E9881A8EEF5B
:101E7000980A87E6E82E83E0F82E98E6A92EBB2480
:101E8000B394C401B5010E94EE2C9701412F602F3D
:101E90000E94E00D8C0C9D1C94E0E90EF11C83EA7D
:101EA000E81683E0F80669F70E94710E80915F03DF
:101EB0009C2FC0FB87F980935F0396958091600308
:101EC0008078892BD0FB87F98093600300936103AE
:101ED0001093620360915F037091600380916103CE
:101EE00090916203DF91CF911F910F91FF90EF903E
:101EF000DF90CF90BF90AF909F908F900C94580E32
:101F0000DF91CF911F910F91FF90EF90DF90CF90D5
:101F1000BF90AF909F908F900895EFE5F3E0208100
:101F2000221F2227221F30916003432F440F842F4A
:101F3000822B37FB992790F90C9668E671E00E9496
:101F4000022D438162810C94E10E20915F03221FD8
:101F50002227221F30916003432F440F842F822BAE
:101F600037FB992790F98C3091051CF4845A9E4FC9
:101F700001C00C9768E671E00E94022D4091620357
:101F8000609161030C94E10EEFE5F3E08081881F1E
:101F90008827881F90916003292F220F97FB99278C
:101FA00090F943816FEF822B0C94E10EEFE5F3E0A3
:101FB0008081881F8827881F90916003292F220F16
:101FC00097FB992790F9438160E0822B0C94E10EF6
:101FD00040916203842F90E0843F910514F4445FA4
:101FE00001C04FEF80915F03881F8827881F909161
:101FF0006003292F220F97FB992790F960916103C5
:10200000822B0C94E10E40916203842F90E00C9798
:1020100014F04C5001C040E080915F03881F882776
:10202000881F90916003292F220F97FB992790F921
:1020300060916103822B0C94E10E90915F0390FFFD
:1020400042C09178811102C0926007C0833210F0C3
:10205000946403C08F73880F982B90935F036091F3
:102060005F037091600380916103909162030E940D
:10207000580E80915F03982F9E77923019F410923A
:102080006A0210C0982F96959F732EE3290F2F7325
:10209000273120F491E090936A0204C0995D9F7308
:1020A0009A3068F3881F8827881F90916003292F32
:1020B000220F97FB992790F9409162036091610389
:1020C000822B0C94E10E089580912D038160809302
:1020D0002D0381E080936B020E94E01F811104C0F8
:1020E0000E94BF1F0E945E0E0E94540E60935F0309
:1020F0007093600380936103909362036E7761F441
:102100000E945E0E0E94540E60935F037093600302
:10211000809361039093620381E080936A028091CF
:102120005F0380FF04C086958F730C941D10089583
:1021300080915F0386958F738F5F833208F081E013
:102140000C941D1080915F03982F909590FB80F95F
:1021500080935F0360915F037091600380916103DE
:10216000909162030E94580E80915F0380FF04C02B
:1021700086958F730C941D1010926A022FEF80E7E2
:1021800092E0215080409040E1F700C000000C94A4
:10219000710ECF93C82F80916802909169020E94BE
:1021A000FB20EC2FF0E0E957FB4FE491F0E08E17B5
:1021B0009F0718F10E94EF209093690280936802B4
:1021C000E0916702F0E0E557FB4F449180915F0397
:1021D000881F8827881F90916003292F220F97FB63
:1021E000992790F960916103822B0E94970E80914C
:1021F000670290E0019680936702CF910895CF9394
:10220000C82F80916502909166020E94FB20EC2FFE
:10221000F0E0EC57FB4FE491F0E08E179F07E8F0F9
:102220000E94EF20909366028093650240916203C2
:102230006091610380916302909164020E94970E05
:102240008091630290916402019668E671E00E94B9
:10225000EE2C9093640280936302CF910895CF9205
:10226000DF92FF920F931F93CF93DF93F82E80910D
:102270006102909162020E94FB20EF2DE695F0E052
:10228000EC57FB4FE491F0E08E179F07E8F10E94B6
:10229000EF20909362028093610207E613E0C0E0B2
:1022A000D0E088E6C82EDD24D39480915F0290911F
:1022B00060028C0F9D1FB6010E94EE2C9801409188
:1022C0006203609161030E94E00D68960C5F1F4FEE
:1022D000C83681E0D80749F70E94710E20915F024D
:1022E00030916002F0FE0AC0C9010196BE010E9451
:1022F000EE2C9093600280935F0206C0215031095A
:102300003093600220935F02DF91CF911F910F9174
:10231000FF90DF90CF9008958F929F92AF92BF92DF
:10232000CF92DF92EF92FF920F931F93CF93DF93A1
:10233000C82F80FF03C0DD24DA9402C0DD24D394CB
:1023400080915D0290915E020E94FB20C695EC2F69
:10235000F0E0EF57FB4FE491F0E08E179F0708F491
:1023600067C00E94EF2090935E0280935D0297E623
:10237000E92E93E0F92E09E613E0C0E0D0E027E073
:10238000822E912CF80131971082F7011082F8010A
:10239000108287E0A82EB12CC12C80915C028C0D9C
:1023A00087FD815F992787FD9095C817D907E9F4C4
:1023B000209162032A9DC0012B9D900D1124B40130
:1023C0000E94022D462F80915F03881F8827881F57
:1023D00090916003592F550F97FB992790F997011A
:1023E00060916103852B0E94E00DCD0CF1E0AF1AE6
:1023F000B10899F6219684E0E80EF11C0C5F1F4F9E
:10240000CF30D10509F0BECF0E94710E80915C02E1
:1024100091E0D91206C0811102C08EE007C0815040
:1024200005C090E00196BE010E94022D80935C02DF
:10243000DF91CF911F910F91FF90EF90DF90CF90A0
:10244000BF90AF909F908F9008959F92AF92BF9250
:10245000CF92DF92EF92FF920F931F93CF93DF9370
:10246000CDB7DEB7EC970FB6F894DEBF0FBECDBF89
:10247000182F80915A0290915B020E94FB20E12F5D
:10248000F0E0E258FB4FE491F0E08E179F0708F46C
:1024900095C00E94EF2090935B0280935A02CE0178
:1024A00001967C015E0193E0A90EB11CC12CD12CD8
:1024B0008701F50131971082F7011082F501108232
:1024C000912C9091010180915902999E800D1124C7
:1024D00087FD04C08F301CF08EE001C080E099279A
:1024E00087FD9095C816D906A1F480915F03881FD7
:1024F0008827881F90916003592F550F97FB9927C4
:1025000090F997014091620360916103852B0E94CD
:10251000E00D9394F7E09F12D4CF8FEFC81AD80A3A
:1025200094E0E90EF11CE4E0AE0EB11CFFE0CF1622
:10253000D10409F0BECF29E633E099E0E92EF12C71
:102540004FE0C42ED12CC701B6010E94022DD90143
:102550001197FC01EE0FFF1FEE0FFF1FE00FF11FA1
:1025600081818C93119780818C938281F901808382
:10257000FFEFEF1AFF0A2C5F3F4F88E1E816F104E6
:1025800011F70E94710E90910101809159029130D2
:1025900049F48A3F2CF489EF809359028FEF08C0E9
:1025A00081500AC086313CF085E18093590281E078
:1025B0008093010103C08F5F80935902EC960FB6A0
:1025C000F894DEBF0FBECDBFDF91CF911F910F9169
:1025D000FF90EF90DF90CF90BF90AF909F900895C5
:1025E000EF92FF920F931F93CF93DF938091570247
:1025F000909158020E94FB20883E9340D0F10E94A7
:10260000EF209093580280935702C0915502D091C9
:1026100056022196C170DD27D0935602C093550211
:1026200087E6E82E83E0F82E10E008E7812F8695F4
:10263000FE01E80FF11DCF018170992797014091AC
:10264000620360916103FC010E9FC0010F9F900D1A
:1026500011240E94E00D1F5FF4E0EF0EF11C1F300B
:1026600029F7DF91CF911F910F91FF90EF900C947C
:10267000710EDF91CF911F910F91FF90EF90089510
:1026800080916A02882391F190915F03892F86954A
:102690008F732EE3280F2F73243018F482500C947C
:1026A000C9102AE3280F2F73233018F486500C9496
:1026B000FF1027E3280F2F73263018F489500C944D
:1026C0002F1121E3280F2F73263018F48F500C940C
:1026D0008C112BE2280F2F73233018F485510C94A2
:1026E00025129E77903311F40C94F0120895909374
:1026F0007102809370020895E0917002F09171026E
:10270000309721F00190F081E02D099480E0089548
:10271000E0917002F0917102309721F00280F38114
:10272000E02D09940895E0917002F09171023097C4
:1027300021F00480F581E02D0994089520916E0226
:1027400030916F028217930771F090936F0280931C
:102750006E02E0917002F0917102309721F00680D4
:10276000F781E02D0994089520916C0230916D025B
:102770008217930771F090936D0280936C02E09141
:102780007002F0917102309721F00084F185E02D04
:102790000994089508950C94CA130E94E6200E949B
:1027A000E2040E946D210C946410CF92DF92EF92AC
:1027B000FF920F931F93CF93DF93CDB7DEB72B9785
:1027C0000FB6F894DEBF0FBECDBF0E944E0583E763
:1027D000C82E82E0D82E00E010E0E02E802F0E946C
:1027E0003006F60141916F01F42EF826B1F40F5F27
:1027F0001F4F0E30110589F78FEF89838A831B8263
:102800000E94EF208160782F9D838C8349815A81BB
:102810006B818D810E94B41440C090912D0391FF73
:1028200004C08B870E9436068B8520E030E04F2D58
:1028300050E0922FBA01022E02C0759567950A9456
:10284000E2F760FF24C02E83EF8221E030E06901CF
:1028500002C0CC0CDD1C9A95E2F790E08C219D2102
:10286000892B09F420E028870E94EF208160782FCF
:102870009A8789874E815F8168858A850E94B41412
:10288000F801ED58FD4F8081C826C08206C02F5F39
:102890003F4F2630310569F6AACF0E9400231091E0
:1028A00072020E947C131817A1F00E947C1380937F
:1028B00072022B960FB6F894DEBF0FBECDBFDF912C
:1028C000CF911F910F91FF90EF90DF90CF900C94DC
:1028D0008F082B960FB6F894DEBF0FBECDBFDF91E9
:1028E000CF911F910F91FF90EF90DF90CF900895BF
:1028F000DC0111962C9111978C91682F70E041E0CA
:1029000050E001C0440F8A95EAF712968C91129715
:1029100030E0882329F0809190028823E9F006C0F6
:10292000F901EF57FD4F90819423B1F086E0829F2B
:10293000F001839FF00D1124E60FF71FEE0FFF1F2C
:10294000EC5EFE4F808191818D939C93F901EF574E
:10295000FD4F8081482B06C0F901EF57FD4F409590
:102960008081482340830895CF93DF93CDB7DEB7AE
:102970002B970FB6F894DEBF0FBECDBF942F4F83B9
:10298000252F588769877A878B874A855B85452BF2
:1029900021F02F3F09F59F3FF9F4DE01119686E003
:1029A000FD0111928A95E9F785E0FE0137960190C5
:1029B0000D928A95E1F749815A816B817C818D81E5
:1029C0009E810E94DC1B2B960FB6F894DEBF0FBED3
:1029D000CDBFDF91CF910895CE0107960E94781464
:1029E000DCCFCF93DF931F92CDB7DEB7882309F4F6
:1029F000E8C0682F823879F40E947C1381FDE1C021
:102A000069E380910201909103010E9458200E9485
:102A1000031F69E310C08338C9F40E947C1380FD52
:102A2000D0C063E580910201909103010E9458207B
:102A30000E94031F63E580910201909103010E94AF
:102A400063200F90DF91CF910C94031F843879F4A9
:102A50000E947C1382FDB5C067E4809102019091D1
:102A600003010E9458200E94031F67E4E4CF8CEF0B
:102A7000860F813A70F4862F69830E942925698127
:102A800081119FC080910201909103010E94582002
:102A9000D8CF80E2860F883048F4677081E001C0AB
:102AA000880F6A95EAF70E94391FCBCF8BE5860F16
:102AB000833088F4653A29F0663A31F083E890E093
:102AC00005C081E890E002C082E890E00F90DF91BD
:102AD000CF910C949E1388E5860F853108F071C064
:102AE000683A61F1693A69F16A3A71F16B3A79F1E0
:102AF0006C3A81F16B3B89F16C3B91F16D3A99F144
:102B0000603BA1F16E3AA9F16F3AB1F1613BB9F1C5
:102B1000623BC1F1633BC9F1643BD1F1653BD9F143
:102B2000663BE1F1673BE9F1683BF1F1693BF9F1A3
:102B30006A3B09F43FC080E090E03EC082EE90E046
:102B40003BC089EE90E038C08AEE90E035C085EB5E
:102B500090E032C086EB90E02FC083EB90E02CC079
:102B600084EB90E029C087EB90E026C08CEC90E0ED
:102B700023C08DEC90E020C083E891E01DC08AE87E
:102B800091E01AC082E991E017C084E991E014C095
:102B900081E292E011C083E292E00EC084E292E012
:102BA0000BC085E292E008C086E292E005C087E2B1
:102BB00092E002C08AE292E00F90DF91CF910C94F4
:102BC000B4130F90DF91CF910895882309F45BC06F
:102BD000682F823879F40E947C1381FF54C069E326
:102BE00080910201909103010E9458200E94031FCE
:102BF00069E310C08338B1F40E947C1380FF43C0A6
:102C000063E580910201909103010E9458200E9487
:102C1000031F63E580910201909103010E946320EC
:102C20000C94031F843879F40E947C1382FF2BC01C
:102C300067E480910201909103010E9458200E9454
:102C4000031F67E4E7CF8CEF860F813A18F380E229
:102C5000860F883048F4677081E001C0880F6A955C
:102C6000EAF70E943F1FDCCF8BE5860F833020F40C
:102C700080E090E00C949E13685A653120F480E067
:102C800090E00C94B4130895882321F00E94391F1A
:102C90000C94031F0895882321F00E943F1F0C9479
:102CA000031F08958F929F92AF92BF92CF92DF92AF
:102CB000EF92FF920F931F93CF93DF931F92CDB7A5
:102CC000DEB77C01C72EFC01058102950F701281D1
:102CD000112321F069830E94561F698169830E9434
:102CE000FC1E6981882381F0112371F080E2860F38
:102CF000883050F082E00E94E51E0E94FC1E91E0A8
:102D0000D82ED926698101C0D12CAC2CA2948FE099
:102D1000A822B12CF501E859FF4F0C94162D8C2DEB
:102D2000807F0C2D0F70882311F00295007F1123F6
:102D3000C1F0002309F4D2C180E2860F883010F080
:102D4000611105C0802F69830E94391F04C0802F44
:102D500069830E94491F698169830E94031F6981F9
:102D6000BDC1862F69830E94E5156981002309F49E
:102D70000EC280E2860F883010F0611104C0802FEF
:102D80000E943F1F03C0802F0E944F1F0E94031FFD
:102D9000FEC19C2D907F8C2D8F70903211F082950A
:102DA000807F662319F06130B1F01EC0112349F015
:102DB000002309F44BC1013009F048C10E94691F8A
:102DC000E6C1002319F0013009F4E1C189830E94B2
:102DD0006C1F898141C1112321F0023008F0D7C155
:102DE00035C10111D4C138C1112321F0002309F4E8
:102DF0002DC174C1002309F42FC181C18C2D86958A
:102E00008695837090E0009719F0019761F0BFC13B
:102E1000112321F0862F9C2D937002C080E090E05A
:102E20000E949E13C4C1112321F0862F9C2D937004
:102E300002C080E090E00E94B413B9C11123F9F000
:102E4000653F51F0663F71F0643FA9F48091A303A0
:102E50009091A40381600BC08091A3039091A4037F
:102E6000826005C08091A3039091A4038460909335
:102E7000A4038093A303862F0E9408221EC0653FEF
:102E800051F0663F71F0643FA9F48091A3039091E3
:102E9000A4038E7F0BC08091A3039091A4038D7F28
:102EA00005C08091A3039091A4038B7F9093A4030A
:102EB0008093A303862F0E9470220E94F52277C17F
:102EC0008C2D837009F052C011116DC1862F82952F
:102ED00086958770880F880F962F9F70892E912C6A
:102EE000A12CB12C082E04C0880C991CAA1CBB1C58
:102EF0000A94D2F764FF14C00FE010E020E030E045
:102F0000B901A80104C0440F551F661F771F8A9599
:102F1000D2F7CB01BA01609570958095909503C06A
:102F200060E070E0CB012C2D26952695237030E0D3
:102F30002230310569F02330310589F0682979297B
:102F40008A299B292130310571F00E941F1D2BC158
:102F5000682979298A299B290E94311D24C10E9450
:102F60001F1DC501B4010E940D1D1DC1112319F0C3
:102F70008C2D817001C08695882309F414C1862F99
:102F8000829586958770880F880F962F9F70892E5F
:102F9000912CA12CB12C082E04C0880C991CAA1CC1
:102FA000BB1C0A94D2F764FF14C00FE010E020E0CD
:102FB00030E0B901A80104C0440F551F661F771FF8
:102FC0008A95D2F7CB01BA0160957095809590955E
:102FD00003C060E070E0CB012C2D26952695237070
:102FE000422F50E04230510569F04330510589F0DD
:102FF000682979298A299B294130510571F00E945D
:10300000E31DD1C0682979298A299B290E94F51DD1
:10301000CAC00E94E31DC501B4010E94D11DC3C0F6
:10302000862F90E0FC01E05EF109E531F10508F042
:1030300051C0E858FF4F0C94162D062F0F708C2DA1
:103040008F71112331F00E946A1D802F0E94441657
:103050009EC00E948B1D802F0E944B1698C011238A
:1030600039F0011194C08C2D8F710E94B01D8FC05A
:10307000023008F08CC0F7CF112339F08C2D8F71FE
:103080000E946A1D84C01123C9F38C2D8F710E9488
:103090008B1D7DC0112329F08C2D8F710E94551D31
:1030A00076C00E94501D73C0112351F01C2D1F715A
:1030B000812F0E946A1D63E0812F0E94DC1E67C081
:1030C00081E00E94E51E023008F461C082E00E94A7
:1030D000E51E5DC0112331F0002381F2862F0E948E
:1030E000F11455C0002389F2693349F45FEF77EE9C
:1030F00083E0515070408040E1F700C00000862F0F
:103100000E94E51544C04C2D4F70C7010E94370640
:103110000E94801C4CC0623F99F128F4603F49F046
:10312000613FE1F020C0643FA1F050F0653F59F0ED
:103130001AC0112339F19091900281E0892706C0CD
:1031400081E018271DC011111DC081E080939002FD
:1031500019C0111117C01092900214C0002381F001
:10316000111110C0E8CF002359F0862F6983112375
:1031700019F00E94F11402C00E94E515698102C095
:10318000109390024C2D4F70C7010E94910898E057
:10319000A916B10441F05CF0FAE0AF1AB10822E0E0
:1031A000A216B10420F40E947C130E948F08DD2037
:1031B000F1F00E94D81E80FD1AC0F70112820E9411
:1031C000D21E0E946A1DC7010E9405190E94D21ECC
:1031D0000F90DF91CF911F910F91FF90EF90DF90B3
:1031E000CF90BF90AF909F908F900C948B1D0F90BD
:1031F000DF91CF911F910F91FF90EF90DF90CF90D3
:10320000BF90AF909F908F9008950F931F93CF938F
:10321000DF93EC01888199812B813C81232BB9F0CC
:103220009F3F11F48F3F99F0CE010E9475068823CD
:1032300071F0688179818A810E94AF1E8C010E94A1
:10324000071E0E940A1DB801CE010E945216DF918E
:10325000CF911F910F9108950E94561F0E94661FE3
:1032600080910201909103010E946E200E94031F31
:103270000E948E230E94F52280E090E00E949E131F
:1032800080E090E00C94B4130E94461F0C942C191B
:103290000E94A41EE92FE295EF70F0E03297EE3025
:1032A000F105B0F4E357FF4F0C94162D803F91F0D9
:1032B00018F4803E68F40EC0843F51F40BC0803E89
:1032C00048F0813F29F406C093FB882780F90895D0
:1032D00080E0089581E00895CF93DF9300D000D07F
:1032E0001F92CDB7DEB70F900F900F900F900F90F9
:1032F000DF91CF910895CF93DF9300D000D000D01D
:10330000CDB7DEB726960FB6F894DEBF0FBECDBFA1
:10331000DF91CF9108951F93CF93DF93C0919102D6
:1033200016E080919202C81799F0D0E01C9FF0013E
:103330001D9FF00D1124ED56FD4F4081518162819A
:103340007381848195810E947B192196C770E9CF92
:10335000DF91CF911F9108954091C3025091C40213
:103360006091C5027091C6028091C7029091C80217
:103370000C947B198091C80282958F7009F054C01B
:103380008091C502882309F44FC080919102A091D9
:1033900092026091C3027091C4024091C6025091A2
:1033A000C702B6E08A1709F43FC090E04115510505
:1033B000C1F17F3F11F46F3FA1F1B89FF001B99FB8
:1033C000F00D1124ED56FD4F218172132AC020818A
:1033D000621327C02281211124C023813481241744
:1033E000350710F421503109241B350B283C3105D9
:1033F000C0F42091C8022F7020612093C80226E0FB
:10340000289FF001299FF00D1124E856FD4F80817F
:103410008F708061808383EC92E00E9405190C9488
:103420008B1901968770BECF0895CF92DF92EF92ED
:10343000FF920F931F93CF93DF93CDB7DEB76297C1
:103440000FB6F894DEBF0FBECDBF8C0185E0F8014A
:10345000DE011D9601900D928A95E1F7D8014C91FD
:1034600011965C91119712966C9112971396CD90CC
:10347000DC9014973091C3027091C4028091C6020F
:103480009091C702009709F46BC17F3F19F43F3F49
:1034900009F466C1E090C502EE2009F4C0C0209195
:1034A000C802C816D90628F0F601E81BF90BCF01AF
:1034B00004C0809590958C0D9D1DFF24F394883C4D
:1034C000910578F0F12C207F09F0C6C07C2DD98AB7
:1034D000C88A89890E946C1983EC92E00E940519C0
:1034E000B1C0822F807F09F046C0751314C0341319
:1034F00012C0611110C02F7020612093C8020E9479
:10350000AC1983EC92E00E9405198091C802D801A1
:1035100015968C932EC0CD2819F15F3F11F44F3FC3
:10352000F9F0F62E61111CC0809191022091920257
:1035300036E0821709F45AC090E0389FF001399FB5
:10354000F00D1124ED56FD4F7181571306C07081A7
:10355000471303C07281711103C001968770E9CFD0
:10356000F62E662309F418C18091C8028160809309
:10357000C802F12C11C1751308C0341306C06111C3
:1035800004C08091C802D801C3C04D875E878D8575
:103590009E856A8B0E9448196A898823E1F1662317
:1035A000D1F12091C802822F82958F7090E002970E
:1035B00074F08091C3029091C40298878F8319861A
:1035C000DB86CA862C87CE0107960E94051986E005
:1035D000F801A3ECB2E001900D928A95E1F70E9408
:1035E000BA190E94AC19FF24F394D6C04D875E87A8
:1035F0008D859E850E94A41E292F22952F7030E074
:10360000223031050CF0BCC09F7009F0B6C0805E5E
:10361000883008F4C1C0C8010E940519E4CFC8165B
:10362000D90608F453C0F601E81BF90BCF01883C1A
:10363000910508F450C0F12C7C2DD98AC88A89895B
:103640000E946C19E3ECF2E086E0DF011D928A959E
:10365000E9F70E94AC19A0C0751314C0341312C04E
:10366000611110C08091C802F8018583C8010E94D1
:10367000051986E0E3ECF2E0DF011D928A95E9F797
:10368000FE2C8AC04D875E878D859E856A8B0E9441
:1036900048196A89882309F4BECF662309F4BBCF91
:1036A0002091C802822F82958F7090E002970CF4CF
:1036B0008ECF8091C3029091C4029A8389831B822A
:1036C000DD82CC822E83CE0101967FCF80959095AE
:1036D0008C0D9D1DACCFF62E662309F49CCF75137F
:1036E0002EC034132CC02091C80220FD1FC0822F91
:1036F00082958F70D9F0D80115962C9315978F303D
:1037000049F08F5F982F9295907F822F8F70892B31
:1037100015968C93C8010E94051986E0F801A3EC68
:10372000B2E001900D928A95E1F793CF86E0F8011F
:10373000A3ECB2E001900D928A95E1F72DC04D8780
:103740005E878D859E850E944819811140CF8091AA
:10375000C80281608093C802C8010E9405191CC07C
:10376000662309F458CF4D875E878D859E850E941C
:103770004819882309F44FCF2ACF811148CF0CC0B4
:10378000243031050CF047CF9F7009F440CFF80189
:103790009581907F09F03BCF8F2D62960FB6F894FC
:1037A000DEBF0FBECDBFDF91CF911F910F91FF9074
:1037B000EF90DF90CF9008951F93CF93DF93CDB715
:1037C000DEB72C970FB6F894DEBF0FBECDBF4F8388
:1037D000588769877A878B879C87CE0107960E94D6
:1037E000151A882369F08F8198852A853B85232BBC
:1037F000F1F19F3F09F063C08F3F09F060C037C00F
:1038000086E0FE013796DE01119601900D928A95B1
:10381000E1F76F817885EA85FB85309741F17F3F3D
:1038200011F46F3F21F12091920230E0C90101961D
:10383000877099274091910250E08417950709F409
:1038400047C069837A83FD83EC8396E0929FD00121
:10385000939FB00D1124AD56BD4FFE0131960190DE
:103860000D929A95E1F7809392020E948B1916E0CF
:1038700080919102909192028917C1F1189FC00125
:1038800011248D569D4F0E94151A882379F1E091DD
:1038900091021E9FF0011124ED56FD4F4081518190
:1038A00062817381848195810E947B19809191024C
:1038B00090E001968770992780939102D9CF4F812C
:1038C000588569857A858B859C850E947B19CFCF29
:1038D0000E9444191092920210929102E3ECF2E0DD
:1038E00086E0DF011D928A95E9F7C1CF2C960FB6CD
:1038F000F894DEBF0FBECDBFDF91CF911F91089529
:10390000EF92FF920F931F93CF93DF938C01892B3C
:1039100009F46CC0F12CEE24E394E8012196F8013F
:103920008491843740F4843008F051C0813081F0B4
:10393000823019F15BC0853709F444C0A8F19CE7D7
:10394000980F903708F052C08F770E94E51541C05C
:103950000E5F1F4FFE01C49180E28C0F883048F447
:10396000C7708E2D01C0880FCA95EAF70E94591FB3
:1039700014C08C2F0E94F1142DC00E5F1F4FFE014A
:10398000C49180E28C0F883058F4C7708E2D01C02E
:10399000880FCA95EAF70E945F1F0E94031F1AC092
:1039A0008C2F0E94E51516C00E5F1F4FFE01C491BB
:1039B000CC2381F08FE99FE00197F1F700C0000070
:1039C000C150F6CF0E5F1F4FFE01F49003C00E945E
:1039D000F1148E018F2D882309F49FCFEFE9FFE0CA
:1039E0003197F1F700C000008150F5CFDF91CF9102
:1039F0001F910F91FF90EF90089508950E94FD1C74
:103A00006093040370930503809306039093070368
:103A10000C942C1908950C94FE1C0F931F93009185
:103A20000403109105032091060330910703602BD6
:103A3000712B822B932B1F910F910C94FE1C0F93D3
:103A40001F93009104031091050320910603309108
:103A5000070360237123822393231F910F910C94FA
:103A6000FE1C0F931F9300910403109105032091F6
:103A700006033091070360277127822793271F9140
:103A80000F910C94FE1C08950E94431D6093000347
:103A90007093010380930203909303030C942C19F9
:103AA00060E070E0CB010C94441D0F931F9341E044
:103AB00050E060E070E08A019B0104C0000F111F1C
:103AC000221F331F8A95D2F7C901B8011F910F91A8
:103AD0000C94441D0F931F9341E050E060E070E0B0
:103AE00004C0440F551F661F771F8A95D2F7809137
:103AF000000390910103A0910203B09103038A0196
:103B00009B01082B192B2A2B3B2BC901B8011F91B4
:103B10000F910C94441D0F931F9341E050E060E01F
:103B200070E004C0440F551F661F771F8A95D2F7B7
:103B30004095509560957095809100039091010398
:103B4000A0910203B09103038A019B01082319236A
:103B50002A233B23C901B8011F910F910C94441DE6
:103B60000F931F9341E050E060E070E004C0440F09
:103B7000551F661F771F8A95D2F780910003909199
:103B80000103A0910203B09103038A019B0108275E
:103B900019272A273B27C901B8011F910F910C94BF
:103BA000441D0F931F930091000310910103209176
:103BB000020330910303602B712B822B932B1F91F7
:103BC0000F910C94441D0F931F93009100031091CB
:103BD00001032091020330910303602371238223A8
:103BE00093231F910F910C94441D0F931F930091E9
:103BF0000003109101032091020330910303602719
:103C00007127822793271F910F910C94441D0895CB
:103C1000292F220F920F990F890FA82FA695A695ED
:103C2000A695877051E001C0550F8A95EAF785E0A7
:103C3000A89FD001112420E030E070E0F901EA0FE4
:103C4000FB1FE753FD4F4081CB01022E02C096952A
:103C500087950A94E2F781709927819584278523B7
:103C6000842780832F5F3F4F2530310539F7089532
:103C7000292F220F920F990F890F682F669566954D
:103C80006695982F977085E0689FB001112440E0F9
:103C900050E080E0FA01E60FF71FE753FD4F208167
:103CA00030E0092E02C0369527950A94E2F721707C
:103CB0003327042E01C0220F0A94EAF7822B4F5FAC
:103CC0005F4F4530510531F70895CF92DF92EF9263
:103CD000FF920F931F93CF93DF938C01C090040347
:103CE000D0900503E0900603F09007038091000355
:103CF00090910103A0910203B0910303C82AD92A2D
:103D0000EA2AFB2ACFE1D0E0D701C6010C2E04C07D
:103D1000B695A795979587950A94D2F780FF06C028
:103D2000B8018C2F0E94AC08019721F4219760F70D
:103D300080E001C08C2FDF91CF911F910F91FF90F8
:103D4000EF90DF90CF900895CF93DF93EC010E9426
:103D5000651EBE010E94AC08DF91CF9108951F93AC
:103D6000CF93DF93EB0190918F02992321F0CB0148
:103D70000E94A41E13C0882349F0CB010E94651E37
:103D8000182F682FCE010E94081E04C0CB010E948C
:103D9000381E182FBE01812F0E94AC08DF91CF91F1
:103DA0001F910895809108038595859585950895BF
:103DB000809108038770089598E0899F90011124ED
:103DC000262B209308030C946A1D209108038095EC
:103DD000822380930803982F977069F430E0482F6E
:103DE000552747FD50952417350729F0859585956A
:103DF00085950C948B1D089590910803977081E030
:103E000009F480E00895E0910201F09103018091AE
:103E10002C038083E0910201F09103019081809155
:103E20002B03892B8083E0910201F09103019081A3
:103E300080912A03892B808380910903882381F054
:103E4000E0910201F09103019081892B80838091A0
:103E50000201909103010E94FC1F8111109209033D
:103E600080910201909103010C94881380912C039E
:103E7000089590912C03892B80932C0308958095AD
:103E800090912C03892380932C03089510922C0386
:103E9000089590912B03892B80932B03089580958F
:103EA00090912B03892380932B03089510922B0369
:103EB000089590912A03892B80932A030895809571
:103EC00090912A03892380932A03089510922A034C
:103ED0000895809309030895109209030895CF92DD
:103EE000DF92EF92FF926C01EE24FF24C114D10403
:103EF000E104F10421F0C701B60120E101C020E096
:103F0000C72ED82EE92EFF24C114D104E104F104F8
:103F100019F0285FC701B6016B017C0154E0F694EB
:103F2000E794D794C7945A95D1F7C114D104E1040A
:103F3000F10419F02C5FC701B6016B017C0142E06E
:103F4000F694E794D794C7944A95D1F7C114D10455
:103F5000E104F10419F02E5FC701B601DC01CB01C9
:103F6000B695A79597958795892B8A2B8B2B09F06A
:103F70002F5F822FFF90EF90DF90CF9008956DEE2E
:103F80007EEF80E090E00E944D2D60E082E090E0C6
:103F90000E94302D60E083E090E00E94302D60E0D0
:103FA00084E090E00E94302D60E085E090E00E9487
:103FB000302D40E050E0BA0188E090E00C94412DB3
:103FC00080E090E00E942A2D21E08D3E9E4F09F076
:103FD00020E0822F089582E090E00C941C2D83E075
:103FE00090E00C941C2D84E090E00C941C2D682F24
:103FF00084E090E00C94302DFC0131969C01205E11
:104000003F4F80E0919191118F5FE217F307D1F755
:1040100008959C01FC0132969FEF80E04191461784
:1040200089F09F3F19F4411101C0982F8F5F8E31A5
:10403000A9F79F3F39F0F901E90FF11D97FDFA95B6
:10404000628308950895FC0132968096208126139C
:1040500001C010823196E817F907C1F70895262F9D
:104060002695269526952F3168F4FC01E20FF11D67
:10407000677021E030E001C0220F6A95EAF7818184
:10408000282B21830895262F2695269526952F31B6
:1040900070F4FC01E20FF11D677021E030E001C017
:1040A000220F6A95EAF720958181282321830895BC
:1040B00020911301222329F02091A90327FD0C94BC
:1040C0002F200C94092020911301222329F0209104
:1040D000A90327FD0C9443200C942320FC01319666
:1040E00080961192E817F907E1F708958091AF03E0
:1040F000843039F110922E0320E488E190E00FB66D
:10410000F894A895809360000FBE2093600080E033
:104110000E948F0883B7817F846083BF83B78160EB
:1041200083BF7894889583B78E7F83BF0FB6F8944A
:10413000A895809160008861809360001092600073
:104140000FBE08950895CF930E9401050E944E0569
:104150000E94A220C0E08C2F0E943006811104C072
:10416000CF5FCE30C1F701C081E0CF9108950E94AA
:1041700044190E947C130C948F081F920F920FB663
:104180000F9211248F939F93AF93BF9380912E032F
:10419000811113C08091A5039091A603A091A7035C
:1041A000B091A8034196A11DB11D8093A5039093E2
:1041B000A603A093A703B093A803BF91AF919F91CB
:1041C0008F910F900FBE0F901F90189582E084BDC5
:1041D00093E095BD9AEF97BD80936E0008952FB739
:1041E000F8948091A5039091A603A091A703B091A4
:1041F000A8032FBF0895CF92DF92EF92FF920F9303
:104200001F932FB7F8944091A5035091A603609196
:10421000A7037091A8032FBF6A017B01EE24FF243E
:104220008C0120E030E0C016D106E206F30610F45F
:10423000415051099A01281B390BC9011F910F9157
:10424000FF90EF90DF90CF90089578941F920F9297
:104250000FB60F9211248F939F93AF93BF938091CA
:10426000A5039091A603A091A703B091A80301967E
:10427000A11DB11D8093A5039093A603A093A7034E
:10428000B093A803BF91AF919F918F910F900FBEF4
:104290000F901F9018950E94E729F8942FEF87EA56
:1042A00091E6215080409040E1F700C0000087E097
:1042B00090EBDC018093B8039093B903A093BA0309
:1042C000B093BB039CE088E10FB6F894A895809367
:1042D00060000FBE90936000FFCF0E94E01F81112D
:1042E00002C00E94BF1F0E94EB1F80932D030E94FB
:1042F000F31F90E09093AA038093A9030E94EF1FFD
:10430000682F70E080E090E00C940B1D80913203E8
:1043100080FF0BC06091070185E0689FB001112408
:1043200075956795759567952BC081FF09C060915C
:10433000070185E0689FB00111247595679520C03D
:1043400082FF07C06091070185E0689FB0011124DA
:1043500017C0909133039923D1F06091060196170D
:1043600088F72091070185E0289F90011124929FF2
:10437000A001939F500D112470E0CA010E94022DEC
:104380006038710540F46115710539F002C065E0CF
:1043900070E0862F08958FE7089581E00895809159
:1043A000320380FF08C06091050170E07595679544
:1043B0007595679521C081FF06C06091050170E089
:1043C0007595679519C082FF04C06091050170E082
:1043D00010C0909133039923C1F0609104019617A6
:1043E000A0F780910501899FC001112470E00E940F
:1043F000022D6038710528F46115710521F0862FB2
:1044000008958FE7089581E0089561E070E0F4CFAA
:10441000803F21F40E948621819504C0813F29F4C8
:104420000E948621809336030895823F21F40E94E2
:104430008621819504C0833F29F40E9486218093C0
:1044400035030895893F19F40E94CF2105C08A3FA2
:1044500031F40E94CF2181958093370308958B3FDB
:1044600021F40E94CF21819504C08C3F29F40E9441
:10447000CF21809338030895843F21F48091340341
:10448000816017C0853F21F480913403826011C0A0
:10449000863F21F48091340384600BC0873F21F470
:1044A00080913403886005C0883F31F480913403E3
:1044B00080618093340308958D3F21F4809132030D
:1044C00081600BC08E3F21F480913203826005C071
:1044D0008F3F29F4809132038460809332030895E2
:1044E000803F39F48091360387FF6CC01092360309
:1044F00069C0813F29F4809136031816BCF362C06D
:1045000090913503823F29F497FF5CC010923503E8
:1045100059C0833F19F41916CCF354C0893F41F4B4
:104520008091370318160CF04DC0109237034AC023
:104530008A3F29F48091370387FF44C0F6CF8B3F31
:1045400039F48091380387FF3DC0109238033AC098
:104550008C3F29F4809138031816BCF333C0843F94
:1045600021F4809134038E7F17C0853F21F4809120
:1045700034038D7F11C0863F21F4809134038B7FFB
:104580000BC0873F21F480913403877F05C0883FAB
:1045900031F4809134038F7E8093340313C08D3FB8
:1045A00021F4809132038E7F0BC08E3F21F48091E5
:1045B00032038D7F05C08F3F29F4809132038B7FBA
:1045C000809332038091350381110EC080913603B0
:1045D00081110AC080913703811106C08091380390
:1045E000811102C010923303089584E393E00E9486
:1045F00093130E94EF209093300380932F0308952C
:104600001F93CF93DF9380912F03909130030E94EB
:10461000FB20AC0190913303992321F020910801F4
:1046200030E006C0209131038AE0289F90011124D8
:104630004217530708F46EC080913503C0913603CA
:10464000D091370310913803811107C0C1115EC0AA
:10465000D1115CC011115AC05DC09F3F19F09F5F1E
:1046600090933303181624F40E9486218093350317
:104670008091350387FF05C00E9486218195809334
:1046800035031C1624F40E94862180933603809102
:10469000360387FF05C00E948621819580933603EB
:1046A00040913503442379F030913603332359F098
:1046B00025EB4203A0011124509335033203C001BE
:1046C0001124909336031D1624F40E94CF21809369
:1046D00037038091370387FF05C00E94CF21819562
:1046E00080933703111624F40E94CF21809338035E
:1046F0008091380387FF05C00E94CF218195809368
:104700003803DF91CF911F910C94F5229F3F09F060
:10471000A6CFAECFDF91CF911F910895E4E3F3E0F0
:1047200085E0DF011D928A95E9F71092330310921C
:1047300032030895833081F128F4813059F08230BA
:10474000D1F00895853009F449C0B8F1863009F4F4
:1047500056C0089580913103262F30E0280F311D77
:104760002F3F310524F4680F6093310308958FEFD4
:1047700080933103089580910801262F30E0280F9F
:10478000311D2F3F310524F4680F6093080108950F
:104790008FEF80930801089580910701262F30E064
:1047A000280F311D2F3F310524F4680F6093070156
:1047B00008958FEF80930701089580910601262FB9
:1047C00030E0280F311D2F3F310524F4680F60932E
:1047D000060108958FEF80930601089580910501E9
:1047E000262F30E0280F311D2F3F310524F4680FAC
:1047F0006093050108958FEF8093050108958091DE
:104800000401262F30E0280F311D2F3F310524F4FD
:10481000680F6093040108958FEF80930401089559
:10482000833011F128F4813049F0823091F00895FD
:10483000853081F120F18630C1F1089580913103F6
:10484000681720F4861B809331030895109231037A
:10485000089580910801681720F4861B8093080151
:10486000089510920801089580910701681720F4B7
:10487000861B809307010895109207010895809187
:104880000601681720F4861B809306010895109294
:104890000601089580910501681720F4861B809316
:1048A000050108951092050108958091040168178B
:1048B00020F4861B8093040108951092040108954A
:1048C0000F931F93873208F04DC08E3108F093C0CC
:1048D000803109F47DC008F5873009F46BC068F4B5
:1048E000863009F0A3C080912D03817F8E7F809355
:1048F0002D0381E080933A039AC08B3009F48FC076
:104900008E3009F093C080912D0382FB222720F97D
:1049100091E0922790FB82F964C0863109F47FC050
:1049200088F4813109F082C00E9444198091A90362
:1049300087FB222720F991E0922790FB87F980934B
:10494000A9036DC0893109F46AC08B3109F06EC0CA
:1049500080912D0381FB222720F991E0922790FB83
:1049600081F93FC0883309F45AC050F4893209F400
:1049700058C0853309F455C0873209F452C056C077
:10498000833409F44EC028F48A3308F44FC08953A5
:1049900033C0883409F04AC00E9444190FEF13ED68
:1049A00020E3015010402040E1F700C000000E94C9
:1049B0004B2135C080912D03982F9095917090FBDD
:1049C00080F980932D0391112AC0897F877F10C0C1
:1049D00080912D0383FB222720F991E0922790FB01
:1049E00083F980932D039923D1F080912D03816069
:1049F00080932D0314C08D5141E050E060E070E0E1
:104A00008A019B0104C0000F111F221F331F8A95CA
:104A1000D2F7C901B8010E940B1D0E94441981E020
:104A200006C061E070E080E090E0F5CF80E01F918B
:104A30000F91089580E0089580E008958E518A30A6
:104A400030F4E82FF0E0E454FE4F8081089580E0D8
:104A50000895CF93C82F80913A03813079F018F0F0
:104A60008230E9F185C0E0910201F091030180817B
:104A7000813169F0823209F07DC009C0E091020104
:104A8000F09103018081813111F0823261F48C2F29
:104A90000E941A25811104C08C2F0E9460241DC021
:104AA00081E090E01AC08C2F0E941C25811114C057
:104AB000C43179F048F4CB3079F0C03109F05EC0F0
:104AC00082E080933A0308C0C93219F0C83321F05C
:104AD00055C010923A0352C081E0817051C0C93272
:104AE00079F108F5C43161F1A0F4C73009F044C090
:104AF0001092310384E180930801C09307018CE395
:104B00008093060188E08093050188E28093040188
:104B100033C082EE8C0F863078F58C2F0E941E25D4
:104B20008093390329C0CE34E9F020F4CB3421F549
:104B30006AE013C0C13579F0C235F1F461E00DC00F
:104B400080913903882319F01092390315C081E050
:104B500080933A0315C061E006C0809139030E943A
:104B60009A230AC06AE0809139030E94102404C08D
:104B700010923A0380E004C081E002C080E0ADCF33
:104B8000CF91089580915B0308950F931F93CF9366
:104B9000DF9300D01F92CDB7DEB78C010E9435287D
:104BA000823011F0843019F593E099831B830A83D6
:104BB0009093E9008FEF9091E800815095FD06C039
:104BC00095ED9A95F1F700008111F5CF8091E800FD
:104BD00085FF0DC040E050E063E070E0CE0101963B
:104BE0000E9452288091E8008E778093E8000F9011
:104BF0000F900F90DF91CF911F910F910895CF9358
:104C0000DF9300D01F92CDB7DEB72091AF032430E1
:104C100031F522E02983805891099B838A8383E0C0
:104C20008093E9008FEF9091E800815095FD06C0D8
:104C300095ED9A95F1F700008111F5CF8091E8008C
:104C400085FF0DC040E050E063E070E0CE010196CA
:104C50000E9452288091E8008E778093E8000F90A0
:104C60000F900F90DF91CF910895CF93DF93EC01D8
:104C70000E943528823011F08430F9F482E080936C
:104C8000E9009FEF8091E800915085FD06C085ED19
:104C90008A95F1F700009111F5CF8091E80085FF2A
:104CA0000CC040E050E065E070E0CE010E94522868
:104CB0008091E8008E778093E800DF91CF9108958E
:104CC000CF93DF93EC010E943528823019F08430B5
:104CD00009F047C0809113018823E1F08091A90376
:104CE00087FF18C084E08093E9008FEF9091E8007F
:104CF000815095FD06C095E19A95F1F7000081116C
:104D0000F5CF8091E80085FF2CC040E050E060E2E4
:104D100070E017C081E08093E9008FEF9091E80088
:104D2000815095FD06C095ED9A95F1F7000081112F
:104D3000F5CF8091E80085FF14C040E050E068E0C6
:104D400070E0CE010E9452288091E8008E77809317
:104D5000E80080E2FE01ABE3B3E001900D928A959A
:104D6000E1F7DF91CF9108958091AE03811109C0E1
:104D70000E94E7290E94442A8091E2008460809387
:104D8000E20008951092AE030895089508950C94DA
:104D9000B72042E061EC81E00E94612942E061ECD1
:104DA00082E00E94612942E061EC83E00E94612977
:104DB00042E261EC84E00C9461298091B10383307C
:104DC00009F455C030F4813071F0823009F48EC09E
:104DD00008958A3009F47AC08B3009F460C08930B4
:104DE00009F09CC020C08091B003813A09F096C0C0
:104DF0008091E800877F8093E8008091B4039091D0
:104E0000B503892B21F460E28BE393E003C060E0FB
:104E100080E090E070E00E949D288091E8008B7710
:104E20008093E80008958091B003813209F076C044
:104E30008091B4039091B503009719F0039709F09E
:104E40006DC08091E800877F8093E8008091E80042
:104E500082FD05C08091AF038111F8CF5FC08091C2
:104E6000F10080935B038091E8008B7753C08091C1
:104E7000B003813A09F052C08091B4039091B50318
:104E8000892B09F04BC08091E800877F8093E80070
:104E90008091E80080FFFCCF8091130136C08091A3
:104EA000B0038132D9F58091B4039091B503892B79
:104EB000A9F58091E800877F8093E8000E949629F9
:104EC0008091B203809313010C9444198091B00334
:104ED000813221F58091E800877F8093E8000E946D
:104EE00096298091B30380935C0308958091B00369
:104EF000813AA1F48091E800877F8093E800809157
:104F0000E80080FFFCCF80915C038093F1008091EA
:104F1000E8008E778093E8000C949629089584B772
:104F2000877F84BF0FB6F894A89580916000886150
:104F300080936000109260000FBE80E88093610053
:104F4000109261000E94CB130E94E7290E94442A1C
:104F50008091E20084608093E20078940E94D32CD8
:104F60000E94CD1389E091E00E9477138091AF03F6
:104F7000853069F40E9476208091AD038823B1F3D7
:104F80000E94A320882391F30E943C28EFCF0E9427
:104F9000D5130E944013EACF292F33272330310540
:104FA000C9F064F42130310581F02230310509F077
:104FB00043C08DE690E02FEB36E042C02132310550
:104FC000F1F02232310541F137C082E190E02CE26C
:104FD00037E036C099278130910541F08230910544
:104FE00041F0892B49F5EBEBF6E005C0E3EAF6E08A
:104FF00002C0EBE8F6E0849190E09F0121C06430AC
:105000007105D0F4660F771FFB01EE52FE4F208131
:10501000318189E090E014C06430710568F4FB01CF
:10502000EE0FFF1FE653FE4F20813181FB01EA5353
:10503000FE4F808190E004C080E090E020E030E00E
:10504000FA013183208308950895CF93C82F0E94D9
:105050002428C0935D03CF9108958091AF038430DD
:1050600011F081E0089582E0089580915D0381113F
:1050700002C00C942D28089580E189BD82E189BD8C
:1050800009B400FEFDCF8091D8008F7D8093D800B9
:105090008091E00082608093E0008091E00081FDDB
:1050A000FCCF0895CF92DF92EF92FF920F931F9360
:1050B000CF93DF93EC018B016A010E94B529811126
:1050C00033C0C114D10439F0F60180819181081BED
:1050D000190BC80FD91FE12CF12C0115110519F17D
:1050E0008091E80085FD16C08091E8008E7780935E
:1050F000E800C114D10449F0F60180819181E80EE5
:10510000F91EF182E08285E00FC00E94B529882354
:1051100021F30AC089918093F10001501109FFEF3A
:10512000EF1AFF0ADACF80E0DF91CF911F910F9144
:10513000FF90EF90DF90CF9008952091B6033091CB
:10514000B7032617370748F06115710539F4209128
:10515000E8002E772093E80001C0B90140E0611516
:105160007105A9F12091AF03222309F443C0253032
:1051700009F442C02091E80023FD40C02091E800DE
:1051800022FD32C02091E80020FFE9CF4091F300DA
:105190002091F20030E0342BFC01CF016115710544
:1051A00059F02830310540F481918093F10061502D
:1051B00071092F5F3F4FF1CF41E02830310509F0F1
:1051C00040E02091E8002E772093E800C8CF4111FD
:1051D000C9CF0AC08091AF03882361F0853061F0A8
:1051E0008091E80083FD0AC08091E80082FFF2CF41
:1051F00080E0089582E0089583E0089581E00895B5
:105200002091B6033091B7032617370748F0611590
:10521000710539F42091E8002E772093E80001C051
:10522000B901FC0120E06115710591F18091AF0396
:10523000882309F440C0853009F43FC08091E8001C
:1052400083FD3DC08091E80082FD2FC08091E80081
:1052500080FFE9CF2091F3008091F20090E0922B43
:105260006115710559F08830910540F4249120931F
:10527000F1003196615071090196F2CF21E0089753
:1052800009F020E08091E8008E778093E800CBCF92
:105290002111CCCF0AC08091AF03882361F0853003
:1052A00061F08091E80083FD0AC08091E80082FFF0
:1052B000F2CF80E0089582E0089583E0089581E0D0
:1052C0000895982F973058F59093E900981739F082
:1052D0007091EC002091ED005091F00003C0242F5C
:1052E000762F50E021FF19C03091EB003E7F3093C4
:1052F000EB003091ED003D7F3093ED003091EB00FD
:1053000031603093EB007093EC002093ED005093EC
:10531000F0002091EE0027FF07C09F5FD3CF8F7072
:105320008093E90081E0089580E008958091B003C2
:1053300087FF11C08091E80082FD05C08091AF0316
:105340008111F8CF11C08091E8008B770BC080915C
:10535000AF03882349F08091E80080FFF8CF809167
:10536000E8008E778093E80008952091E400309162
:10537000E50095E64091EC00842F817040FF22C04B
:105380008091E80080FD1CC08091AF03882391F0DC
:10539000853091F08091EB0085FD10C04091E400D4
:1053A0005091E5004217530729F39A01915011F7E4
:1053B00084E0089582E0089583E0089581E00895EF
:1053C00080E008954091E80042FFDECF08950E94FA
:1053D000552A0E945D2AE0EEF0E0808181608083A2
:1053E000E8EDF0E080818F77808319BCA7EDB0E015
:1053F0008C918E7F8C9380818F7E80831092AE0300
:1054000008950F931F93CF93DF930E94552A0E9414
:105410005D2AC8EDD0E088818F7788838881806895
:10542000888388818F7D888319BC1092AF03109286
:10543000AB031092AD031092AC0300EE10E0F80144
:1054400080818B7F808388818160888342E060E0F7
:1054500080E00E946129E1EEF0E080818E7F808310
:10546000E2EEF0E0808181608083808188608083CB
:10547000F80180818E7F8083888180618883DF91BD
:10548000CF911F910F910895E8EDF0E080818F7E1C
:105490008083E7EDF0E080818160808384E082BFDB
:1054A00081E08093AE030C94012AE8EDF0E0808166
:1054B0008E7F80831092E20008951092DA0010929D
:1054C000E10008951F920F920FB60F9211242F93AF
:1054D0003F934F935F936F937F938F939F93AF937C
:1054E000BF93EF93FF938091E10082FF0BC0809107
:1054F000E20082FF07C08091E1008B7F8093E10092
:105500000E94D22C8091DA0080FF1FC08091D800C9
:1055100080FF1BC08091DA008E7F8093DA0080913B
:10552000D90080FF0DC080E189BD82E189BD09B449
:1055300000FEFDCF81E08093AF030E94B42605C03A
:1055400019BC1092AF030E94C2268091E10080FF37
:1055500019C08091E20080FF15C08091E2008E7F2B
:105560008093E2008091E20080618093E20080916C
:10557000D80080628093D80019BC85E08093AF0387
:105580000E94C6268091E10084FF30C08091E20035
:1055900084FF2CC080E189BD82E189BD09B400FE91
:1055A000FDCF8091D8008F7D8093D8008091E1005D
:1055B0008F7E8093E1008091E2008F7E8093E200F5
:1055C0008091E20081608093E2008091AB038823A8
:1055D00011F084E007C08091E30087FD02C081E004
:1055E00001C083E08093AF030E94C7268091E10051
:1055F00083FF29C08091E20083FF25C08091E100F4
:10560000877F8093E10082E08093AF031092AB0329
:105610008091E1008E7F8093E1008091E2008E7F97
:105620008093E2008091E20080618093E20042E09A
:1056300060E080E00E9461298091F00088608093A2
:10564000F0000E94C526FF91EF91BF91AF919F910D
:105650008F917F916F915F914F913F912F910F901B
:105660000FBE0F901F9018951F920F920FB60F92BA
:1056700011242F933F934F935F936F937F938F9357
:105680009F93AF93BF93CF93DF93EF93FF93C0911B
:10569000E900CF708091EC00D82FD17080FDD0E868
:1056A0001092E9008091F000877F8093F000789459
:1056B0000E94782B1092E9008091F000886080931E
:1056C000F000CD2BCF70C093E900FF91EF91DF91F7
:1056D000CF91BF91AF919F918F917F916F915F918A
:1056E0004F913F912F910F900FBE0F901F901895E3
:1056F0001F93CF93DF93CDB7DEB7AA970FB6F89479
:10570000DEBF0FBECDBFE0EBF3E088E08E0F9091DF
:10571000F10091938E13FBCF0E94DD268091E8006B
:1057200083FF28C18091B0039091B103492F50E0CD
:105730004A30510508F01EC1FA01E556FF4F0C949E
:10574000162D803821F0823809F014C108C08091EC
:10575000AC039091AD03992389F082600FC08091D2
:10576000B4038F70873008F005C18093E900809101
:10577000EB0085FB882780F91092E9009091E80002
:10578000977F9093E8008093F1001092F100D0C0D1
:10579000282F2D7F09F0EEC0882319F0823061F0A8
:1057A000E9C08091B203813009F0E4C0933009F080
:1057B00080E08093AD032EC08091B20381112AC096
:1057C0008091B4038F702FEF280F263008F0D2C0DD
:1057D0008093E9002091EB0020FF1CC0933021F45E
:1057E0008091EB00806214C09091EB0090619093E7
:1057F000EB0021E030E0A90102C0440F551F8A955B
:10580000E2F74093EA001092EA008091EB00886092
:105810008093EB001092E9008091E800877F8093ED
:10582000E8000E949629A6C08111A4C01091B2037D
:105830001F778091E3008078812B8093E300809133
:10584000E800877F8093E8000E9496298091E80015
:1058500080FFFCCF8091E30080688093E30011110A
:1058600002C082E001C083E08093AF0383C0805810
:10587000823008F07FC08091B2039091B3038C3DD9
:1058800053E0950779F583E08A838AE289834FB7ED
:10589000F894DE01139620E03EE051E2E32FF0E0C1
:1058A00050935700E49120FF03C0E295EF703F5FF3
:1058B000EF708E2F90E0EA3010F0C79601C0C096CE
:1058C0008D939D932F5F243149F74FBF8091E8005E
:1058D000877F8093E8006AE270E0CE0101960E9423
:1058E0009D2815C06091B4037091B503AE014F5F60
:1058F0005F4F0E94CC27BC01892BE1F19091E80019
:10590000977F9093E80089819A810E940029809175
:10591000E8008B778093E8002DC0803859F580919E
:10592000E800877F8093E8008091AB038093F100CB
:105930008091E8008E7773CF81111CC09091B203E3
:105940009230C0F48091E800877F8093E8009093C4
:10595000AB030E9496298091AB03811106C0809110
:10596000E30087FD02C081E001C084E08093AF03C3
:105970000E94C9268091E80083FF0AC08091E80058
:10598000877F8093E8008091EB0080628093EB003A
:10599000AA960FB6F894DEBF0FBECDBFDF91CF91B0
:1059A0001F9108950895CF938091AF038823A1F0AC
:1059B000C091E900CF709091EC00892F817090FD2B
:1059C00080E8C82B1092E9008091E80083FD0E94D6
:1059D000782BCF70C093E900CF910895AA1BBB1B11
:1059E00051E107C0AA1FBB1FA617B70710F0A61BDF
:1059F000B70B881F991F5A95A9F780959095BC0100
:105A0000CD01089597FB072E16F4009407D077FD7B
:105A100009D00E94EE2C07FC05D03EF490958195AC
:105A20009F4F0895709561957F4F0895EE0FFF1F6A
:105A30000590F491E02D0994F999FECF92BD81BDB6
:105A4000F89A992780B50895A6E1B0E044E050E0C7
:105A50000C94552DA8E1B0E042E050E00C94552D97
:105A6000262FF999FECF92BD81BDF89A019700B417
:105A7000021631F020BD0FB6F894FA9AF99A0FBECB
:105A800008950396272F0E94312D0E94302D252F37
:105A90000E94312D242F0C94312D0196272F0E9426
:105AA000312D0C94302DDC01CB01FC01F999FECF96
:105AB00006C0F2BDE1BDF89A319600B40D92415096
:0A5AC0005040B8F70895F894FFCFA6
:105ACA0020FF0A0328083C0714C22560263526FF52
