:100000000C9411030C9458030C9458030C9458034B
:100010000C9458030C9458030C9458030C945803F4
:100020000C9458030C9458030C94FE1F0C94D0208D
:100030000C9458030C9458030C9458030C945803D4
:100040000C9458030C94431B0C9458030C945803C1
:100050000C9458030C945B160C9458030C9458039E
:100060000C9458030C9458030C9458030C945803A4
:100070000C9458030C9458030C9458030C94580394
:100080000C9458030C9458030C9458030C94580384
:100090000C9458030C9458030C9458030C94580374
:1000A0000C9458030C9458030C945803BA0CBA0CD3
:1000B000E90CE90C1F0D3F0D700E700E4A0D700E0D
:1000C000FA0DFA0D610E700E700E6A0E070E070E15
:1000D000070E070E070E070E070E070E070E070E78
:1000E000070E070E070E070E070E070E190E260E37
:1000F0002D0E340E3E0E3D215F214D225F214D22FB
:10010000A421C7214D221C222F226572676F646FC4
:10011000782F6F6B6C61686F6D6572204020707214
:10012000656F6E69632D312E302D3834372D676140
:100130006362323665000000F0A129002B00E00068
:10014000E100E20000001E00140004001D00000099
:1001500002511F001A0016001B000000E3002000DF
:1001600008000700060031002900210015000900E1
:10017000190034000000220017000A0005000000EA
:10018000000000002C04000000000000000000003F
:100190002C08000000000000000023001C000B00E1
:1001A000110000000000240018000D0010002D00B8
:1001B000000025000C000E0036002E002C0026004A
:1001C00012000F0037002F000151270013003300E9
:1001D00038003000350035002A002800E500E60030
:1001E00000000030010001000100010000003A00A1
:1001F00000002F0A0000000001003B000000300A50
:100200000000000001003C00000045040000000068
:1002100001003D0000000000190E007001003E00CA
:1002200000000000000000000100000000000000CD
:1002300000000000010000000000000000000000BD
:1002400001003F00000050000000000001004000DD
:1002500000005100000001000100410000005200B8
:10026000000001000100420000004F0000000100FA
:1002700001004300440045000000010001000100AE
:10028000010001000100010000000000000000006A
:1002900000000000000000000000AA0000000000B4
:1002A000010000000000A9000000000001000000A3
:1002B000F000A8000000F4000100000000000000B1
:1002C0000000F50001000000000000000000000038
:1002D000010000000000000000000000010000001C
:1002E0000000000000000000010000000000F2001B
:1002F00000000000010000000000F100000000000C
:10030000010000000000F000AC000000B60000009A
:100310000000F300AB00000001000000000000003E
:1003200000000000010000000000AE00000000001E
:10033000000000000000000000002A2B2800000040
:100340000000000000000000000000000029000084
:1003500000002C1E3420212224342627252E362D61
:100360003738271E1F202122232425263333362EFB
:1003700037381F0405060708090A0B0C0D0E0F106D
:100380001112131415161718191A1B1C1D2F3130B2
:10039000232D350405060708090A0B0C0D0E0F1056
:1003A0001112131415161718191A1B1C1D2F313092
:1003B000354C0000000000000000000000000000BC
:1003C000000000000000000000000000000000002D
:1003D0000000000101010101010001010101000013
:1003E000000000000000000000000000010001000B
:1003F00001010101010101010101010101010101ED
:1004000001010101010101010101010101000000DF
:1004100001010000000000000000000000000000DA
:1004200000000000000000000000000000010101C9
:1004300001000000000000000000000000010204B4
:10044000060A0F17202C3A4A5D71879DB3C7DAE977
:10045000F5FCFFFCF5E9DAC7B39D87715D4A3A2CDC
:1004600020170F0A0604020100000000000000002F
:10047000000016034500720067006F0044006F0023
:100480007800200045005A00000016034500720065
:1004900067006F0044006F007800200045005A009C
:1004A00000000403090409026D00040100A0FA0918
:1004B0000400000103010100092111010001224093
:1004C000000705810308000A090401000103010275
:1004D00000092111010001224D00070582030800D7
:1004E0000A090402000103000000092111010001B2
:1004F0002236000705830308000A090403000103EC
:1005000000000009211101000122390007058403C0
:100510001000011201100100000008EDFE07130198
:10052000000102000105010906A101050719E029E2
:10053000E7150025019508750181020508190129B3
:10054000059505750191029501750391010507193E
:1005500000297715002501957875018102C00501F4
:100560000980A101850216810026B7001A81002AA0
:10057000B700751095018100C0050C0901A1018526
:1005800003160100269C021A01002A9C0275109590
:10059000018100C005010902A1010901A1000509AD
:1005A000190129051500250195057501810295019F
:1005B000750381010501093009311581257F9502F7
:1005C0007508810609381581257F95017508810612
:1005D000050C0A38021581257F950175088106C032
:1005E000C005010906A101050719E029E715002545
:1005F00001950875018102950175088101050819A9
:100600000129059505750191029501750391010573
:1006100007190029FF150026FF00950675088100BF
:10062000C00011241FBECFEFDAE0DEBFCDBF04B69D
:1006300003FE27C08091010290910202A091030263
:10064000B09104028730904BA740B04BD1F4109288
:10065000010210920202109203021092040214BED0
:1006600084B7877F84BF0FB6F894A8958091600007
:10067000886180936000109260000FBEE0E0FFE3AD
:10068000099511E0A0E0B1E0EEE2F8E402C00590C7
:100690000D92A433B107D9F712E0A4E3B1E001C091
:1006A0001D92A130B107E1F70E94431D0C9415245F
:1006B0000C9400001092B9008AE08093B80008956D
:1006C00094EA9093BC009091BC0097FFFCCF90916E
:1006D000B900987F983021F0903111F081E00895B1
:1006E0008093BB0084E88093BC008091BC0087FFAE
:1006F000FCCF8091B900887F883111F0803471F788
:1007000080E0089584E98093BC008091BC0084FD62
:10071000FCCF08958093BB0084E88093BC00809157
:10072000BC0087FFFCCF9091B900987F81E09832A0
:1007300009F480E0089584E88093BC008091BC00B7
:1007400087FFFCCF8091BB00089580B38C7080BB85
:1007500081B3836F81BB089580910101811115C020
:1007600080E40E9460038093010181110CC082E14A
:100770000E948A0380930101811105C08FEF0E94BE
:100780008A03809301010E94820384B1807F84B92F
:1007900085B1807F85B98AB1837F8AB98BB1837F28
:1007A0008BB93E98469808950C9400050E946C09F8
:1007B000809301010E94AC030E94A503A5E3B1E070
:1007C000E3E4F1E08EE08E0F11921D928E13FCCFC8
:1007D0000C9456090E946C09809301010E94AC039D
:1007E0000E94A503A5E3B1E0E3E4F1E08EE08E0F03
:1007F00011921D928E13FCCF0895BF92CF92DF927B
:10080000EF92FF920F931F93CF93DF93809101019B
:10081000882379F0809134018F5F809334018111B6
:1008200008C00E946C0980930101811102C00E94DE
:10083000FE0805E311E0C0E0D0E0EE24E394F12CE3
:10084000DD24D39495E0C92EC730D10500F5809101
:10085000010181113CC080E40E946003809301018A
:10086000811112C082E10E948A03809301018111EB
:100870000BC0C7010C2E01C0880F0A94EAF78095BF
:100880000E948A03809301010E94820320C0CA3023
:10089000A1F028F4C83059F0C93061F005C0CC305F
:1008A00089F070F0CD3089F0209A289810C0219AF4
:1008B00029980DC0229A2A980AC0239A2B9807C01B
:1008C000529A01C0539A5B9802C03E9A469880EAB9
:1008D0008A95F1F7C730D10518F580910101811192
:1008E00044C080E40E94600380930101882311F0DA
:1008F000B12C12C083E10E948A038093010181110F
:10090000F7CF81E40E946003809301018111F0CF51
:100910000E949B03B82EB0940E9482038B2D26C0A8
:100920008FB181708D25799902C092E001C090E06D
:10093000892B7C9902C024E001C020E0822B7D99A4
:1009400002C028E001C020E0822B7E9902C090E125
:1009500001C090E0892B9FB19095991F9927991F0D
:100960009295990F907E892B01C080E0F8019081CB
:10097000981719F08083C09200010E94AC03219661
:100980000F5F1F4FCE30D10509F05ECF809100017F
:100990008823A1F0815080930001882329F0F5E09D
:1009A000FA95F1F700000AC0A3E4B1E0E5E3F1E055
:1009B000CF01825F91919D938E13FCCF0E94880698
:1009C00081E0DF91CF911F910F91FF90EF90DF9029
:1009D000CF90BF900895E82FF0E0ED5BFE4F80814F
:1009E00008950895611108C0FC018281882321F0D7
:1009F0008AE091E00E945D0680E090E0089508950D
:100A00006091B0017091B1018091B2019091B301F8
:100A10000E944F1556985E9825982D9826982E98E6
:100A200027982F98813019F0823021F00895259A67
:100A30002D9A0895269A2E9A089581E0089581E0CE
:100A400008950C941F050E94DB0E2FEF84E39CE0B9
:100A5000215080409040E1F700C000000C948016C7
:100A60000F931F93CF93DF938C01FC01C081D18141
:100A7000CE010E94D413BE010E941F08EC01B801F0
:100A80000E942105882309F412C1B801CE010E94F9
:100A9000AF08882309F40BC1B801CE010E94C80930
:100AA000882309F404C1C431F0E7DF0708F0CDC0A2
:100AB000C23080E7D80708F4A3C0F80182818823F8
:100AC00009F4AAC00E94B915811102C00E949F15A5
:100AD0000E94CC1590E09093F3018093F201C23014
:100AE000F0E7DF0721F48091F201816082C0C3301A
:100AF00080E7D80721F48091F20182607AC0C43087
:100B0000E0E7DE0721F48091F201846072C0C53015
:100B1000F0E7DF0719F48091F20127C0C63080E7C3
:100B2000D80721F48091F201806163C0C730E0E70B
:100B3000DE0721F48091F20180625BC0C830F0E7EB
:100B4000DF0721F48091F201806453C0C93080E74F
:100B5000D80721F48091F20180684BC0CA30E0E7E9
:100B6000DE0729F48091F2018460886042C0CB30B6
:100B7000F0E7DF0721F48091F2018E7F3AC0CC309C
:100B800080E7D80721F48091F2018D7F32C0CD300B
:100B9000E0E7DE0721F48091F2018B7F2AC0CE309E
:100BA000F0E7DF0719F48091F20122C0CF3080E72F
:100BB000D80721F48091F2018F7E1BC0C031E0E79D
:100BC000DE0721F48091F2018F7D13C0C131F0E77F
:100BD000DF0721F48091F2018F7B0BC0C231D04737
:100BE00021F48091F2018F7704C08091F2018B7F14
:100BF000877F8093F2018091F2010E94D01557C047
:100C0000C115E0E7DE0779F0C130D047A1F081E0FF
:100C10008093510180935201C801DF91CF911F91C0
:100C20000F910C941D05F8018281882309F43FC0BF
:100C30000E9423053CC0F80182818823C1F1809184
:100C4000CD0181608093CD0132C0CB3380E7D807DE
:100C5000A1F4F8018281882321F01092510182E0F1
:100C600016C080915101811106C086E20E94530B8B
:100C700086E20E94260C82E018C0CC33D04739F6B9
:100C8000F8018281882331F01092520180E20E94A3
:100C9000750C0DC080915201811106C087E20E943F
:100CA000530B87E20E94260C80E20E947C0C80E0BD
:100CB000DF91CF911F910F9108950F931F93CF93C1
:100CC0008C01F80124912223F9F030E0F901EE5C67
:100CD000FC4FC491F901EE54FC4F2491222359F0AA
:100CE00081EE0E94530B8C2F0E94530B8C2F0E947D
:100CF000260C81EE04C08C2F0E94530B8C2F0E9477
:100D0000260C0F5F1F4FDDCFCF911F910F910895DC
:100D10000C94D40308950C948A060C948B0626E058
:100D2000729FF001112444E5849FE00DF11D112410
:100D3000E60FF11DEE0FFF1FE65CFE4F85919491CB
:100D40000E943108811560E49607B0F5811570E3C3
:100D5000970708F0E6C0803E9105D8F4803C9105E5
:100D600008F06CC0883A910578F4853A910508F04E
:100D70006BC08130910509F460C108F417C184305B
:100D8000910508F05AC112C18D3B910508F467C066
:100D90000DC18F3F910509F048F4803F910508F09F
:100DA000B5C0883E910508F448C100C1811520E214
:100DB000920708F0ADC00895811543E5940790F4BB
:100DC000811562E5960708F0D0C0811571E5970797
:100DD00008F0C6C0811520E5920708F0A5C09F70F5
:100DE000906A0895811545E59407D8F4811564E566
:100DF000960708F0D0C0482F4695469570E2479F69
:100E0000A00111248370992721E030E0B90102C0CC
:100E1000660F771F8A95E2F7CB01842B952B9A6892
:100E20000895811576E5970708F4BAC09C013056FD
:100E30002115304108F0BAC09F70B6C0FC01EE0F1A
:100E4000FF1FEA54F0406AC0853A910509F4B1C029
:100E5000863A910509F0B0C082E890E40895883A96
:100E6000910509F4ACC0893A910509F4ABC08A3AFE
:100E7000910509F4AAC08B3A910509F4A9C08C3AEE
:100E8000910509F4A8C08B3B910509F4A7C08C3BE0
:100E9000910509F4A6C08D3A910509F4A5C0803BDF
:100EA000910509F4A4C08E3A910509F4A3C08F3AC4
:100EB000910509F4A2C0813B910509F4A1C0823BD0
:100EC000910509F4A0C0833B910509F49FC0843BC0
:100ED000910509F49EC0853B910509F49DC0863BB0
:100EE000910509F49CC0873B910509F49BC0883BA0
:100EF000910509F49AC0893B910509F499C08A3B90
:100F0000910509F498C080E094E4089590650895EF
:100F1000FC01FF70EE0FFF1FEA5CFE4F859194917C
:100F200008959927906C0895482F437021E030E090
:100F300002C0220F331F4A95E2F73C68AC0164E01F
:100F4000569547956A95E1F74370342B8F708695D7
:100F5000869560E2869FC0011124822B932B089511
:100F6000982F8827816F906A0895482F4695469557
:100F700070E2479FA00111248370992721E030E09F
:100F8000B90102C0660F771F8A95E2F7CB01842B67
:100F9000952B9C680895982F8827846F906A0895F0
:100FA0008F719927982F88279062089580E090E0AC
:100FB000089581E890E4089583E890E4089582EE2E
:100FC00094E4089589EE94E408958AEE94E40895F3
:100FD00085EB94E4089586EB94E4089583EB94E420
:100FE000089584EB94E4089587EB94E408958CECE1
:100FF00094E408958DEC94E4089583E895E40895CD
:101000008AE895E4089582E995E4089584E995E4F1
:10101000089581E296E4089583E296E4089584E2D7
:1010200096E4089585E296E4089586E296E40895AC
:1010300087E296E408958AE296E40895089596E09A
:10104000799FF001112494E5899FE00DF11D112491
:10105000E60FF11DEE0FFF1FE65CFE4F85919491A8
:1010600008958238910549F1B0F48133910509F46E
:1010700058C048F48932910509F44EC08A3291056E
:1010800009F454C008958533910509F440C08933AB
:10109000910599F00895833E910529F138F4803E39
:1010A000910591F0823E9105A1F00895863E91054B
:1010B000F9F0873E910531F108952091F20120FD6C
:1010C0003AC021FD38C008958091F20180FD35C0FD
:1010D00032C08091F20182FF32C08091F20184FD22
:1010E00030C083EE39C08091F20182FD28C0F5CF77
:1010F0008091F20183FF27C08091F20184FD21C01D
:1011000087EE2AC08091F20183FD1DC0F5CF80914A
:10111000F20185FD1AC01BC08091F20185FD17C048
:1011200014C08091F20186FD14C015C08091F201B7
:1011300086FD11C00EC080EE0FC089E30DC082EEA7
:101140000BC080E009C086EE07C089E205C085E3D8
:1011500003C08AE201C081E390E0089508950F93EF
:101160001F93CF93FB012281211102C0C1E041C036
:101170008C01C0916001C11125C084319047B1F745
:101180000E94AE0881E0809360010E942516909332
:101190005F0180935E0110925301109255011092ED
:1011A0005401109257011092560110925901109259
:1011B000580110925B0110925A0110925D01109239
:1011C0005C0117C080915E0190915F010E94311611
:1011D000883C910558F690915301E92FF0E0EE0F0D
:1011E000FF1FEC5AFE4F118300839F5F90935301C2
:1011F000C0E08C2FCF911F910F91089556985E9863
:1012000025982D9826982E9827982F988FEF90E064
:10121000909389008093880090938B0080938A003C
:1012200090938D0080938C00259A2D9A2FEF80E764
:1012300092E0215080409040E1F700C00000269AE3
:101240002E9A2FEF80E792E0215080409040E1F706
:1012500000C00000279A2F9A2FEF80E792E02150DC
:1012600080409040E1F700C0000025982D982FEFB6
:1012700080E792E0215080409040E1F700C00000FC
:1012800026982E982FEF80E792E0215080409040E2
:10129000E1F700C0000027982F9856985E9825988F
:1012A0002D9826982E9827982F98089589EA80934C
:1012B000800089E08093810024982C983F988AB11F
:1012C0008F748AB96E98479A8BB1806B8BB9769A76
:1012D0000E94FE080C94FF0480E28093010180913B
:1012E000610181110EC00E945A0381E08093610167
:1012F0002FEF83ED90E3215080409040E1F700C054
:10130000000080E40E9460038093010181112EC0DF
:101310000E948A0380930101811128C00E948A03E0
:1013200080930101811122C08FE30E948A03809380
:10133000010181111BC00E94820380E40E946003AE
:1013400080930101811112C08CE00E948A03809376
:10135000010181110BC00E948A0380930101811158
:1013600005C08FE30E948A03809301010E948203DB
:10137000809101010895282F882339F090E02A30C8
:1013800010F44D9608950697089587E290E0089529
:10139000FF920F931F93CF93DF93813020E8920742
:1013A00008F44DC0FB012281222309F448C0EC015E
:1013B000DF7780916201813079F050F08230C1F4A2
:1013C00082EE0E94530B87E50E94530B87E50EC007
:1013D00082EE0E94530B0CC080EE0E94530B81EEF4
:1013E0000E94530B88E10E94530B88E10E94260C57
:1013F0000CE010E0CE01002E02C0969587950A946D
:10140000E2F78F700E94BB09F82E0E94530B8F2DBC
:101410000E94260C045011090C3FFFEF1F0751F7E3
:1014200080916201813029F010F0823041F482EE27
:1014300004C080EE0E94260C81EE0E94260C81E002
:10144000DF91CF911F910F91FF90089590936801C4
:10145000809367010895E0916701F09168013097EA
:1014600021F00190F081E02D099480E00895E09151
:101470006701F0916801309721F00280F381E02D3F
:1014800009940895E0916701F0916801309721F087
:101490000480F581E02D0994089520916501309133
:1014A00066018217930771F090936601809365013E
:1014B000E0916701F0916801309721F00680F78193
:1014C000E02D099408952091630130916401821701
:1014D000930771F09093640180936301E091670139
:1014E000F0916801309721F00084F185E02D099496
:1014F000089508950C94790A0E941C160E94D60340
:101500000C94A216CF92DF92EF92FF920F931F934B
:10151000CF93DF93CDB7DEB72B970FB6F894DEBF2E
:101520000FBECDBF0E94FD038AE6C82E81E0D82EF3
:1015300000E010E0E02E802F0E94EB04F6014191C4
:101540006F01F42EF826B1F40F5F1F4F0E30110516
:1015500089F78FEF89838A831B820E942516816019
:10156000782F9D838C8349815A816B818D810E9464
:10157000250B40C09091CD0191FF04C08B870E9444
:10158000F1048B8520E030E04F2D50E0922FBA011E
:10159000022E02C0759567950A94E2F760FF24C099
:1015A0002E83EF8221E030E0690102C0CC0CDD1C0B
:1015B0009A95E2F790E08C219D21892B09F420E097
:1015C00028870E9425168160782F9A8789874E8107
:1015D0005F8168858A850E94250BF801E659FE4FD8
:1015E0008081C826C08206C02F5F3F4F263031055C
:1015F00069F6AACF0E943A18109169010E942B0A3D
:101600001817A1F00E942B0A809369012B960FB640
:10161000F894DEBF0FBECDBFDF91CF911F910F9128
:10162000FF90EF90DF90CF900C948D062B960FB625
:10163000F894DEBF0FBECDBFDF91CF911F910F9108
:10164000FF90EF90DF90CF900895CF93DF93CDB7C9
:10165000DEB72B970FB6F894DEBF0FBECDBF4F831A
:10166000588769877A878B87DE01119686E0FD01AE
:1016700011928A95E9F785E0FE01379601900D9267
:101680008A95E1F749815A816B817C818D819E81A8
:101690000E9479112B960FB6F894DEBF0FBECDBF16
:1016A000DF91CF910895CF93882309F4CDC0C82F3F
:1016B000823859F40E942B0A81FDC6C089E30E943A
:1016C00053140E94201589E30CC0833879F40E94DA
:1016D0002B0A80FDB9C083E50E9453140E94201597
:1016E00083E50E949514CF910C942015843859F409
:1016F0000E942B0A82FDA8C087E40E9453140E9416
:10170000201587E4EECF8CEF8C0F813A48F48C2FB4
:101710000E94841A811198C08C2F0E945314E3CF29
:1017200080E28C0F883048F4C77081E001C0880FD8
:10173000CA95EAF70E94D914D6CF8BE58C0F833077
:1017400078F4C53A29F0C63A31F083E890E005C054
:1017500081E890E002C082E890E0CF910C944D0ABD
:1017600088E58C0F853108F06FC0C83A61F1C93A3D
:1017700069F1CA3A71F1CB3A79F1CC3A81F1CB3BBC
:1017800089F1CC3B91F1CD3A99F1C03BA1F1CE3A30
:10179000A9F1CF3AB1F1C13BB9F1C23BC1F1C33BB1
:1017A000C9F1C43BD1F1C53BD9F1C63BE1F1C73B1F
:1017B000E9F1C83BF1F1C93BF9F1CA3B09F43FC07B
:1017C00080E090E03EC082EE90E03BC089EE90E089
:1017D00038C08AEE90E035C085EB90E032C086EBF1
:1017E00090E02FC083EB90E02CC084EB90E029C008
:1017F00087EB90E026C08CEC90E023C08DEC90E06D
:1018000020C083E891E01DC08AE891E01AC082E917
:1018100091E017C084E991E014C081E292E011C028
:1018200083E292E00EC084E292E00BC085E292E097
:1018300008C086E292E005C087E292E002C08AE238
:1018400092E0CF910C94630ACF910895882309F414
:101850004BC0823859F40E942B0A81FF45C089E3AE
:101860000E9453140E94201589E30CC0833871F440
:101870000E942B0A80FF38C083E50E9453140E9407
:10188000201583E50E9495140C942015843859F492
:101890000E942B0A82FF28C087E40E9453140E94F2
:1018A000201587E4EFCF9CEF980F913A58F390E220
:1018B000980F983050F4877091E001C0990F8A9585
:1018C000EAF7892F0E94DF14DFCF9BE5980F933052
:1018D00020F480E090E00C944D0A885A853120F481
:1018E00080E090E00C94630A0895882321F00E9420
:1018F000D9140C9420150895882321F00E94DF1438
:101900000C94201508957F928F929F92AF92BF9270
:10191000CF92DF92EF92FF920F931F93CF93DF93BB
:101920001F92CDB7DEB77C01C62E772EFC01058154
:1019300002950F70128111110E94F6140E944C142E
:10194000882379F0112369F080E28C0D883048F00B
:1019500082E00E9435140E944C1491E0D82ED926C2
:1019600001C0D12CE72DE295EF70F0E0EA5AFF4F6D
:101970000C94C623872D807F072D0F70882311F0CC
:101980000295007F112389F0002309F490C180E2C1
:101990008C0D883020F4802F0E94D91403C0802F32
:1019A0000E94E9140E94201582C18C2D0E94260CF1
:1019B000002309F495C180E28C0D883020F4802F3B
:1019C0000E94DF1403C0802F0E94EF140E94201594
:1019D00087C1972D907F872D8F70903211F082955F
:1019E000807FCC2021F0F1E0CF16B1F01EC0112392
:1019F00049F0002309F414C1013009F011C10E941B
:101A000009156EC1002319F0013009F469C18983F9
:101A10000E940C1589810AC1112321F0023008F0BF
:101A20005FC1FEC001115CC101C1112321F000237F
:101A300009F4F6C03CC1002309F4F8C03EC1872D6B
:101A400086958695837090E0009719F0019761F074
:101A500047C1112321F08C2D972D937002C080E097
:101A600090E00E944D0A3CC1112321F08C2D972D4E
:101A7000937002C080E090E00E94630A31C18C2D17
:101A8000112319F00E94421702C00E94AA170E9457
:101A90002F1826C1872D837009F052C0111120C163
:101AA0008C2D829586958770880F880F9C2D9F704E
:101AB000892E912CA12CB12C082E04C0880C991CC5
:101AC000AA1CBB1C0A94D2F7C4FE14C00FE010E09D
:101AD00020E030E0B901A80104C0440F551F661F83
:101AE000771F8A95D2F7CB01BA01609570958095E2
:101AF000909503C060E070E0CB01272D26952695D8
:101B0000237030E02230310569F02330310589F04F
:101B1000682979298A299B292130310571F00E9491
:101B2000C112DEC0682979298A299B290E94DD1209
:101B3000D7C00E94C112C501B4010E94A512D0C035
:101B4000112319F0872D817001C08695882309F42F
:101B5000C7C08C2D829586958770880F880F9C2D25
:101B60009F70892E912CA12CB12C082E04C0880CBA
:101B7000991CAA1CBB1C0A94D2F7C4FE14C00FE027
:101B800010E020E030E0B901A80104C0440F551F67
:101B9000661F771F8A95D2F7CB01BA0160957095C1
:101BA0008095909503C060E070E0CB01272D2695CD
:101BB00026952370422F50E04230510569F04330A2
:101BC000510589F0682979298A299B2941305105D5
:101BD00071F00E949B1384C0682979298A299B2966
:101BE0000E94B7137DC00E949B13C501B4010E94DF
:101BF0007F1376C08C2D90E0FC01E05EF109E531A9
:101C0000F10508F050C0EA59FF4F0C94C6230C2D83
:101C10000F70872D8F71112331F00E941813802FC0
:101C20000E94750C5DC00E943913802F0E947C0CAD
:101C300057C0112339F0011153C0872D8F710E94B5
:101C40005E134EC0023008F04BC0F7CF112339F0BD
:101C5000872D8F710E94181343C01123C9F3872D5C
:101C60008F710E9439133CC0112329F0872D8F7189
:101C70000E94031335C00E94F91232C0112351F0A3
:101C8000172D1F71812F0E94181363E0812F0E946E
:101C90002C1426C081E00E943514023008F182E045
:101CA0000E9435141DC0112331F0002389F28C2DC0
:101CB0000E94530B15C0002391F28C2D0E94260C1C
:101CC0000FC0472D4F706C2DC7010E94F2040E9477
:101CD0001D1206C0472D4F706C2DC7010E941E08B3
:101CE000DD20F9F00E94281480FD1BC0F70112824C
:101CF0000E9422140E941813C7010E94A00E0E9485
:101D000022140F90DF91CF911F910F91FF90EF90D0
:101D1000DF90CF90BF90AF909F908F907F900C946A
:101D200039130F90DF91CF911F910F91FF90EF909A
:101D3000DF90CF90BF90AF909F908F907F9008954D
:101D40000F931F93CF93DF93EC01888199812B81AF
:101D50003C81232BB9F09F3F11F48F3F99F0CE01C6
:101D60000E943005882371F0688179818A810E9400
:101D70001E148C010E94D3130E949A12B801CE0146
:101D80000E94830CDF91CF911F910F9108950E94C3
:101D9000F6140E9406150E94CB140E9420150E9482
:101DA000E0180E942F1880E090E00E944D0A80E029
:101DB00090E00C94630A0E94E6140C94C70E0E94F3
:101DC0001314292F22952F7030E02C3031054CF45C
:101DD0002A3031056CF42250310922303105A8F443
:101DE00007C02C30310569F02F30310551F00DC09E
:101DF000803F69F018F4803E40F409C0843F29F424
:101E000006C093FB882780F9089580E0089581E05B
:101E10000895CF93DF9300D000D01F92CDB7DEB7E7
:101E20000F900F900F900F900F90DF91CF9108952A
:101E3000CF93DF9300D000D000D0CDB7DEB7269689
:101E40000FB6F894DEBF0FBECDBFDF91CF910895DE
:101E50001F93CF93DF93C091780116E080917901B1
:101E6000C81799F0D0E01C9FF0011D9FF00D1124C0
:101E7000E658FE4F40815181628173818481958152
:101E80000E94180F2196C770E9CFDF91CF911F9163
:101E900008954091AA015091AB016091AC017091FD
:101EA000AD018091AE019091AF010C94180F80911B
:101EB000AF0182958F7009F054C08091AC018823E6
:101EC00009F44FC080917801A09179016091AA0135
:101ED0007091AB014091AD015091AE01B6E08A170F
:101EE00009F43FC090E041155105C1F17F3F11F465
:101EF0006F3FA1F1B89FF001B99FF00D1124E65892
:101F0000FE4F218172132AC02081621327C02281D3
:101F1000211124C0238134812417350710F4215066
:101F20003109241B350B283C3105C0F42091AF0149
:101F30002F7020612093AF0126E0289FF001299F98
:101F4000F00D1124E158FE4F80818F7080618083F5
:101F50008AEA91E00E94A00E0C94280F01968770E7
:101F6000BECF0895CF92DF92EF92FF920F931F930F
:101F7000CF93DF93CDB7DEB762970FB6F894DEBF8D
:101F80000FBECDBF8C0185E0F801DE011D960190EA
:101F90000D928A95E1F7D8014C9111965C911197B9
:101FA00012966C9112971396CD90DC901497309105
:101FB000AA017091AB018091AD019091AE010097A3
:101FC00009F46BC17F3F19F43F3F09F466C1E0900B
:101FD000AC01EE2009F4C0C02091AF01C816D906AB
:101FE00028F0F601E81BF90BCF0104C0809590950D
:101FF0008C0D9D1DFF24F394883C910578F0F12C05
:10200000207F09F0C6C07C2DD98AC88A89890E94A0
:10201000090F8AEA91E00E94A00EB1C0822F807F52
:1020200009F046C0751314C0341312C0611110C0FA
:102030002F7020612093AF010E94490F8AEA91E03E
:102040000E94A00E8091AF01D80115968C932EC0EE
:10205000CD2819F15F3F11F44F3FF9F0F62E6111D1
:102060001CC0809178012091790136E0821709F433
:102070005AC090E0389FF001399FF00D1124E658C6
:10208000FE4F7181571306C07081471303C07281E0
:10209000711103C001968770E9CFF62E662309F40B
:1020A00018C18091AF0181608093AF01F12C11C103
:1020B000751308C0341306C0611104C08091AF01CC
:1020C000D801C3C04D875E878D859E856A8B0E942F
:1020D000DF0E6A898823E1F16623D1F12091AF01F7
:1020E000822F82958F7090E0029774F08091AA0100
:1020F0009091AB0198878F831986DB86CA862C87DF
:10210000CE0107960E94A00E86E0F801AAEAB1E08F
:1021100001900D928A95E1F70E94570F0E94490F96
:10212000FF24F394D6C04D875E878D859E850E94DF
:102130001314292F22952F7030E0223031050CF036
:10214000BCC09F7009F0B6C0805E883008F4C1C082
:10215000C8010E94A00EE4CFC816D90608F453C0E7
:10216000F601E81BF90BCF01883C910508F450C03B
:10217000F12C7C2DD98AC88A89890E94090FEAEA44
:10218000F1E086E0DF011D928A95E9F70E94490F90
:10219000A0C0751314C0341312C0611110C0809117
:1021A000AF01F8018583C8010E94A00E86E0EAEA2B
:1021B000F1E0DF011D928A95E9F7FE2C8AC04D8778
:1021C0005E878D859E856A8B0E94DF0E6A898823D3
:1021D00009F4BECF662309F4BBCF2091AF01822F53
:1021E00082958F7090E002970CF48ECF8091AA01B7
:1021F0009091AB019A8389831B82DD82CC822E83EE
:10220000CE0101967FCF809590958C0D9D1DACCF12
:10221000F62E662309F49CCF75132EC034132CC000
:102220002091AF0120FD1FC0822F82958F70D9F0C1
:10223000D80115962C9315978F3049F08F5F982F02
:102240009295907F822F8F70892B15968C93C80161
:102250000E94A00E86E0F801AAEAB1E001900D927A
:102260008A95E1F793CF86E0F801AAEAB1E0019000
:102270000D928A95E1F72DC04D875E878D859E85ED
:102280000E94DF0E811140CF8091AF018160809369
:10229000AF01C8010E94A00E1CC0662309F458CFEC
:1022A0004D875E878D859E850E94DF0E882309F409
:1022B0004FCF2ACF811148CF0CC0243031050CF00C
:1022C00047CF9F7009F440CFF8019581907F09F0C6
:1022D0003BCF8F2D62960FB6F894DEBF0FBECDBFF9
:1022E000DF91CF911F910F91FF90EF90DF90CF90F2
:1022F00008951F93CF93DF93CDB7DEB72C970FB61A
:10230000F894DEBF0FBECDBF4F83588769877A87A9
:102310008B879C87CE0107960E94B20F882369F0B5
:102320008F8198852A853B85232BF1F19F3F09F00A
:1023300063C08F3F09F060C037C086E0FE0137966A
:10234000DE01119601900D928A95E1F76F817885F3
:10235000EA85FB85309741F17F3F11F46F3F21F112
:102360002091790130E0C901019687709927409149
:10237000780150E08417950709F447C069837A8390
:10238000FD83EC8396E0929FD001939FB00D1124C2
:10239000A658BE4FFE01319601900D929A95E1F735
:1023A000809379010E94280F16E080917801909126
:1023B00079018917C1F1189FC001112486589E4FD9
:1023C0000E94B20F882379F1E09178011E9FF001FD
:1023D0001124E658FE4F40815181628173818481CE
:1023E00095810E94180F8091780190E00196877086
:1023F000992780937801D9CF4F81588569857A854F
:102400008B859C850E94180FCFCF0E94DB0E109207
:10241000790110927801EAEAF1E086E0DF011D928D
:102420008A95E9F7C1CF2C960FB6F894DEBF0FBEA0
:10243000CDBFDF91CF911F910895EF92FF920F933F
:102440001F93CF93DF938C01892B09F46CC0F12C7F
:10245000EE24E394E8012196F8018491843740F456
:10246000843008F051C0813081F0823019F15BC0B6
:10247000853709F444C0A8F19CE7980F903708F01D
:1024800052C08F770E94260C41C00E5F1F4FFE0185
:10249000C49180E28C0F883048F4C7708E2D01C043
:1024A000880FCA95EAF70E94F91414C08C2F0E9475
:1024B000530B2DC00E5F1F4FFE01C49180E28C0FA5
:1024C000883058F4C7708E2D01C0880FCA95EAF77E
:1024D0000E94FF140E9420151AC08C2F0E94260C07
:1024E00016C00E5F1F4FFE01C491CC2381F08FE90F
:1024F0009FE00197F1F700C00000C150F6CF0E5FDA
:102500001F4FFE01F49003C00E94530B8E018F2DCC
:10251000882309F49FCFEFE9FFE03197F1F700C07E
:1025200000008150F5CFDF91CF911F910F91FF9067
:10253000EF90089508956093B4017093B50180936E
:10254000B6019093B7010C94C70E0F931F9300919F
:10255000B4011091B5012091B6013091B701DC01B1
:10256000CB01802B912BA22BB32B8093B4019093A2
:10257000B501A093B601B093B7011F910F910C94D0
:10258000C70E0F931F930091B4011091B5012091D4
:10259000B6013091B701DC01CB0180239123A22346
:1025A000B3238093B4019093B501A093B601B09387
:1025B000B7011F910F910C94C70E0F931F930091B9
:1025C000B4011091B5012091B6013091B701DC0141
:1025D000CB0180279127A227B3278093B401909342
:1025E000B501A093B601B093B7011F910F910C9460
:1025F000C70E1092B0011092B1011092B201109268
:10260000B3010C94C70E41E050E060E070E004C0FC
:10261000440F551F661F771F8A95D2F74093B0016C
:102620005093B1016093B2017093B3010C94C70E43
:1026300041E050E060E070E004C0440F551F661FA9
:10264000771F8A95D2F78091B0019091B101A09146
:10265000B201B091B301482B592B6A2B7B2B4093CD
:10266000B0015093B1016093B2017093B3010C9427
:10267000C70E41E050E060E070E004C0440F551F19
:10268000661F771F8A95D2F7409550956095709593
:102690008091B0019091B101A091B201B091B301CC
:1026A000482359236A237B234093B0015093B101FF
:1026B0006093B2017093B3010C94C70E41E050E0F7
:1026C00060E070E004C0440F551F661F771F8A95B5
:1026D000D2F78091B0019091B101A091B201B09177
:1026E000B301482759276A277B274093B0015093AD
:1026F000B1016093B2017093B3010C94C70E0F93B4
:102700001F930091B0011091B1012091B20130915D
:10271000B301DC01CB01802B912BA22BB32B809337
:10272000B0019093B101A093B201B093B3011F9196
:102730000F910C94C70E0F931F930091B00110914D
:10274000B1012091B2013091B301DC01CB018023B2
:102750009123A223B3238093B0019093B101A0935E
:10276000B201B093B3011F910F910C94C70E0F9358
:102770001F930091B0011091B1012091B2013091ED
:10278000B301DC01CB0180279127A227B3278093D7
:10279000B0019093B101A093B201B093B3011F9126
:1027A0000F910C94C70E0895CF92DF92EF92FF9293
:1027B0000F931F93CF93DF938C01C090B401D090FF
:1027C000B501E090B601F090B7018091B001909111
:1027D000B101A091B201B091B301C82AD92AEA2A65
:1027E000FB2ACFE1D0E0D701C6010C2E04C0B6957C
:1027F000A795979587950A94D2F780FF06C0B801F0
:102800008C2F0E948F06019721F4219760F780E0BA
:1028100001C08C2FDF91CF911F910F91FF90EF900E
:10282000DF90CF900895CF93DF93EC010E94D413F3
:10283000BE010E948F06DF91CF910895CB010E94C7
:10284000131408958091B80185958595859508950F
:102850008091B8018770089598E0899F90011124B4
:10286000262B2093B8010C9418132091B801809561
:1028700082238093B801982F977069F430E0482F35
:10288000552747FD50952417350729F085958595DF
:1028900085950C94391308959091B801977081E053
:1028A00009F480E0089590911501992321F0909109
:1028B0000201911109C02091030130910401F90135
:1028C00032969FEF40E01FC0982F9695969596956B
:1028D0009F3050F5E0910301F0910401E90FF11DE3
:1028E000877021E030E0A90102C0440F551F8A958E
:1028F000E2F7CA019181892B818308959F3F39F0C6
:102900004F5F4E3041F051915813F8CF0DC0511127
:10291000F7CF942FF5CF9F3F39F0F901E90FF11D63
:1029200097FDFA9582830895089590911501992352
:1029300021F090910201911109C020910301309181
:102940000401F9013296205F3F4F1FC0982F9695E2
:10295000969596959F30F0F4E0910301F091040173
:10296000E90FF11D877021E030E0A90102C0440F9A
:10297000551F8A95E2F7CA01809591818923818349
:1029800008953196E217F30729F090819813F9CF53
:102990001082F7CF089581E090E0E0910301F0917B
:1029A0000401E80FF91F1082019680319105A9F703
:1029B00008959091CC01892B8093CC010895809546
:1029C0009091CC0189238093CC0108951092CC0181
:1029D00008959091CB01892B8093CB010895809528
:1029E0009091CB0189238093CB0108951092CB0164
:1029F00008959091CA01892B8093CA01089580950A
:102A00009091CA0189238093CA0108951092CA0146
:102A100008958093B90108951092B90108958091A5
:102A2000030190910401FC0131969C01205F3F4F0E
:102A300080E0919191118F5FE217F307D1F708952C
:102A4000E0910301F09104018091CC018083E09139
:102A50000301F091040190818091CB01892B808347
:102A6000E0910301F091040190818091CA01892BCA
:102A700080838091B901882361F0E0910301F09196
:102A800004019081892B80830E940F15811110927F
:102A9000B90180910301909104010C94370ACF92FF
:102AA000DF92EF92FF926C01EE24FF24C114D10457
:102AB000E104F10421F0C701B60120E101C020E0EA
:102AC000C72ED82EE92EFF24C114D104E104F1044D
:102AD00019F0285FC701B6016B017C0154E0F69440
:102AE000E794D794C7945A95D1F7C114D104E1045F
:102AF000F10419F02C5FC701B6016B017C0142E0C3
:102B0000F694E794D794C7944A95D1F7C114D104A9
:102B1000E104F10419F02E5FC701B601DC01CB011D
:102B2000B695A79597958795892B8A2B8B2B09F0BE
:102B30002F5F822FFF90EF90DF90CF9008956DEE82
:102B40007EEF80E090E00E94FF2360E082E090E072
:102B50000E94EE2360E083E090E00E94EE2360E0BC
:102B600084E090E00E94EE2360E085E090E00C9429
:102B7000EE2380E090E00E94E82321E08D3E9E4F0E
:102B800009F020E0822F089582E090E00C94E02389
:102B900083E090E00C94E02384E090E00C94E02348
:102BA000682F84E090E00C94EE238091F80184304B
:102BB00039F11092CE0120E488E190E00FB6F8944C
:102BC000A895809360000FBE2093600080E00E9473
:102BD0008D0683B7817F846083BF83B7816083BFA5
:102BE0007894889583B78E7F83BF0FB6F894A895A5
:102BF00080916000886180936000109260000FBE39
:102C000008950895CF930E94EA030E94FD030E9455
:102C10000116C0E08C2F0E94EB04811104C0CF5F2D
:102C2000CE30C1F701C081E0CF9108950E94DB0E44
:102C30000E942B0A0C948D0682E084BD93E095BD22
:102C40009AEF97BD80936E0008952FB7F894809106
:102C5000CF019091D001A091D101B091D2012FBFAD
:102C60000895CF92DF92EF92FF920F931F932FB7A9
:102C7000F8944091CF015091D0016091D1017091B1
:102C8000D2012FBF6A017B01EE24FF248C0120E0DA
:102C900030E0C016D106E206F30610F441505109A7
:102CA0009A01281B390BC9011F910F91FF90EF90DA
:102CB000DF90CF9008951F920F920FB60F921124BC
:102CC0008F939F93AF93BF938091CF019091D00149
:102CD000A091D101B091D2010196A11DB11D8093A7
:102CE000CF019093D001A093D101B093D201BF91B5
:102CF000AF919F918F910F900FBE0F901F901895DD
:102D00000E94831FF8942FEF87EA91E621508040BC
:102D10009040E1F700C0000087E090EBDC01809379
:102D2000010290930202A0930302B09304029CE07C
:102D300088E10FB6F894A895809360000FBE909339
:102D40006000FFCF0E94B915811102C00E949F153B
:102D50000E94C4158093CD010E94CC1590E0909301
:102D6000F3018093F20187FB882780F980930201A9
:102D70000E94C815682F70E080E090E00C949B12D0
:102D80008091D50180FF0BC06091080185E0689FAC
:102D9000B001112475956795759567952BC081FFD6
:102DA00009C06091080185E0689FB0011124759504
:102DB000679520C082FF07C06091080185E0689F89
:102DC000B001112417C09091D6019923D1F06091E0
:102DD0000701961788F72091080185E0289F900148
:102DE0001124929FA001939F500D112470E0CA01FD
:102DF0000E94B2236038710540F46115710539F005
:102E000002C065E070E0862F08958FE7089581E0A5
:102E100008958091D50180FF08C06091060170E09F
:102E2000759567957595679521C081FF06C060917E
:102E3000060170E07595679519C082FF04C0609126
:102E4000060170E010C09091D6019923C1F0609105
:102E500005019617A0F780910601899FC0011124F2
:102E600070E00E94B2236038710528F46115710585
:102E700021F0862F08958FE7089581E0089561E09D
:102E800070E0F4CF803F21F40E94C016819504C009
:102E9000813F29F40E94C0168093D9010895823F92
:102EA00021F40E94C016819504C0833F29F40E943A
:102EB000C0168093D8010895893F19F40E9409171C
:102EC00005C08A3F31F40E94091781958093DA0189
:102ED00008958B3F21F40E940917819504C08C3F0F
:102EE00029F40E9409178093DB010895843F21F49F
:102EF0008091D701816017C0853F21F48091D7016F
:102F0000826011C0863F21F48091D70184600BC09C
:102F1000873F21F48091D701886005C0883F31F454
:102F20008091D70180618093D70108958D3F21F46E
:102F30008091D50181600BC08E3F21F48091D50135
:102F4000826005C08F3F29F48091D5018460809311
:102F5000D5010895803F39F48091D90187FF6CC075
:102F60001092D90169C0813F29F48091D9011816C6
:102F7000BCF362C09091D801823F29F497FF5CC0F6
:102F80001092D80159C0833F19F41916CCF354C0DC
:102F9000893F41F48091DA0118160CF04DC010926F
:102FA000DA014AC08A3F29F48091DA0187FF44C0E0
:102FB000F6CF8B3F39F48091DB0187FF3DC0109243
:102FC000DB013AC08C3F29F48091DB011816BCF379
:102FD00033C0843F21F48091D7018E7F17C0853F95
:102FE00021F48091D7018D7F11C0863F21F480911B
:102FF000D7018B7F0BC0873F21F48091D701877F5A
:1030000005C0883F31F48091D7018F7E8093D7012E
:1030100013C08D3F21F48091D5018E7F0BC08E3F70
:1030200021F48091D5018D7F05C08F3F29F48091D7
:10303000D5018B7F8093D5018091D80181110EC07D
:103040008091D90181110AC08091DA01811106C0F5
:103050008091DB01811102C01092D601089587EDA5
:1030600091E00E94420A0E9425169093D401809319
:10307000D30108951F93CF93DF938091D301909153
:10308000D4010E943116AC019091D601992321F010
:103090002091090130E006C020910A018AE0289FB2
:1030A000900111244217530708F486C08091D8017B
:1030B000C091D901D091DA011091DB01811107C0D3
:1030C000C11176C0D11174C0111172C075C09F3F7B
:1030D00019F09F5F9093D601181624F40E94C01631
:1030E0008093D8018091D80187FF05C00E94C01647
:1030F00081958093D8011C1624F40E94C0168093F9
:10310000D9018091D90187FF05C00E94C016819521
:103110008093D9016091D801662339F1C091D9011A
:10312000CC2319F1772767FD7095872F972F0E9481
:10313000B92223E333E343E35FE30E941D230E94AC
:1031400081226093D8016C2F772767FD7095872FB8
:10315000972F0E94B92223E333E343E35FE30E9406
:103160001D230E9481226093D9011D1624F40E9420
:1031700009178093DA018091DA0187FF05C00E9468
:10318000091781958093DA01111624F40E9409171A
:103190008093DB018091DB0187FF05C00E94091746
:1031A00081958093DB01DF91CF911F910C942F18B3
:1031B0009F3F09F08ECF96CFDF91CF911F91089559
:1031C000E7EDF1E085E0DF011D928A95E9F71092C5
:1031D000D6011092D5010895833081F128F4813011
:1031E00059F08230D1F00895853009F449C0B8F122
:1031F000863009F456C0089580910A01262F30E0E8
:10320000280F311D2F3F310524F4680F60930A0108
:1032100008958FEF80930A01089580910901262F68
:1032200030E0280F311D2F3F310524F4680F6093E3
:10323000090108958FEF8093090108958091080195
:10324000262F30E0280F311D2F3F310524F4680F61
:103250006093080108958FEF80930801089580918D
:103260000701262F30E0280F311D2F3F310524F4B0
:10327000680F6093070108958FEF80930701089509
:1032800080910601262F30E0280F311D2F3F310598
:1032900024F4680F6093060108958FEF8093060170
:1032A000089580910501262F30E0280F311D2F3F12
:1032B000310524F4680F6093050108958FEF809322
:1032C00005010895833011F128F4813049F08230EE
:1032D00091F00895853081F120F18630C1F1089593
:1032E00080910A01681720F4861B80930A010895D3
:1032F00010920A01089580910901681720F4861B35
:1033000080930901089510920901089580910801A0
:10331000681720F4861B8093080108951092080115
:10332000089580910701681720F4861B8093070198
:10333000089510920701089580910601681720F4FE
:10334000861B8093060108951092060108958091CE
:103350000501681720F4861B8093050108951092DB
:10336000050108950F931F938D3109F471C008F082
:1033700045C0803109F485C008F5873009F46FC075
:1033800068F4863009F0ADC08091CD01817F8E7FD9
:103390008093CD0181E08093DD01A4C08B3009F4DE
:1033A0009EC08E3009F09DC08091CD0182FB222706
:1033B00020F991E0922790FB82F96CC0863109F4E4
:1033C0008EC060F4813109F08CC00E94DB0E9091B8
:1033D000020181E089278093020181C0893109F4CB
:1033E0007EC08B3109F07DC08091CD0181FB222709
:1033F00020F991E0922790FB81F94CC0853309F4C4
:1034000066C048F4873209F462C008F44FC08932BC
:1034100009F45DC066C0833438F48A3308F044C0D0
:10342000883309F45CC05DC0833409F450C088342B
:1034300009F057C00E94DB0E0FEF13ED20E301509F
:1034400010402040E1F700C000000E94801647C0F5
:103450000E943C1B0E942B0A0E948D0640C0909146
:10346000CD01892F8095817080FB90F929F09660BD
:1034700098609093CD0136C0997F977F9093CD014E
:103480002EC08091CD0183FB222720F991E0922765
:1034900090FB83F98093CD01992309F18091CD01AF
:1034A00081608093CD011BC0895301C08D5141E0E3
:1034B00050E060E070E08A019B0104C0000F111F22
:1034C000221F331F8A95D2F7C901B80104C061E0F9
:1034D00070E080E090E00E949B120E94DB0E81E091
:1034E00001C080E01F910F91089580E0089580E071
:1034F00008958E518A3030F4E82FF0E0EA5EFE4FF6
:103500008081089580E00895CF93C82F8091DD01D8
:10351000813079F018F08230E9F186C0E091030142
:10352000F09104018081813169F0823209F07EC01E
:1035300009C0E0910301F09104018081813111F013
:10354000823261F48C2F0E94751A811104C08C2F75
:103550000E94B2191DC081E090E01AC08C2F0E9419
:10356000771A811114C0C43179F048F4CB3079F066
:10357000C03109F05FC082E08093DD0108C0C9322C
:1035800019F0C83321F056C01092DD0153C081E01C
:10359000817052C0C93281F110F5C43169F1A8F4CB
:1035A000C73009F045C08AE080930A0194E1909306
:1035B000090193E0909308018093070188E08093CC
:1035C000060188E28093050133C082EE8C0F8630BD
:1035D00078F58C2F0E94791A8093DC0129C0CE34B3
:1035E000E9F020F4CB3421F56AE013C0C13579F05D
:1035F000C235F1F461E00DC08091DC01882319F03F
:103600001092DC0115C081E08093DD0115C061E0FE
:1036100006C08091DC010E94EC180AC06AE080912B
:10362000DC010E94621904C01092DD0180E004C038
:1036300081E002C080E0ACCFCF910895E1E8F0E0F6
:103640008081886080838081816080838FB7F894D7
:1036500093E09093890090ED909388008FBF089538
:10366000EFE6F0E08081826080830895EFE6F0E08D
:1036700080818D7F80830895EFE6F0E0908182E085
:103680008927808308951F920F920FB60F921124FD
:103690002F933F934F935F936F937F938F939F935A
:1036A000AF93BF93EF93FF938091DE019091DF0181
:1036B00001969093DF018093DE01811103C082E0C7
:1036C0000E948D06E091DF01E695E695F0E0EE5C64
:1036D000FB4FE4918091DE018E1303C080E00E94D5
:1036E0008D06FF91EF91BF91AF919F918F917F9147
:1036F0006F915F914F913F912F910F900FBE0F905F
:103700001F9018958091F0010895CF93DF9300D01A
:103710001F92CDB7DEB79C018091F801843019F576
:1037200093E099833B832A839093E9008FEF9091F4
:10373000E800815095FD06C095ED9A95F1F70000DF
:103740008111F5CF8091E80085FF0DC040E050E089
:1037500063E070E0CE0101960E94EE1D8091E800CA
:103760008E778093E8000F900F900F90DF91CF91AC
:103770000895CF93DF9300D01F92CDB7DEB720918D
:10378000F801243021F522E029839B838A8383E09A
:103790008093E9008FEF9091E800815095FD06C07D
:1037A00095ED9A95F1F700008111F5CF8091E80031
:1037B00085FF0DC040E050E063E070E0CE0101966F
:1037C0000E94EE1D8091E8008E778093E8000F90B4
:1037D0000F900F90DF91CF9108952091F801243040
:1037E000F1F422E02093E9002FEF3091E80021501E
:1037F00035FD06C035ED3A95F1F700002111F5CF02
:103800002091E80025FF0BC040E050E065E070E04B
:103810000E94EE1D8091E8008E778093E800089565
:10382000CF93DF93EC019091F801943009F046C0FA
:10383000809115018823D9F0809102018823B9F085
:103840009093E9008FEF9091E800815095FD06C0BC
:1038500095E19A95F1F700008111F5CF8091E8008C
:1038600085FF2CC040E050E060E170E017C081E0CF
:103870008093E9008FEF9091E800815095FD06C09C
:1038800095ED9A95F1F700008111F5CF8091E80050
:1038900085FF14C040E050E068E070E0CE010E9477
:1038A000EE1D8091E8008E778093E80080E1FE01B4
:1038B000A0EEB1E001900D928A95E1F7DF91CF91F2
:1038C00008958091F701811109C00E94831F0E9411
:1038D000E01F8091E20084608093E20008951092DE
:1038E000F701089508950C94301B0E9416160E944B
:1038F000361B0E942B0A0C948D0642E061EC81E09D
:103900000E94FD1E42E061EC82E00E94FD1E42E04A
:1039100061EC83E00E94FD1E42E161EC84E00C94C6
:10392000FD1E8091FA01833009F455C030F48130D6
:1039300071F0823009F48EC008958A3009F47AC09B
:103940008B3009F460C0893009F09CC020C08091A0
:10395000F901813A09F096C08091E800877F809351
:10396000E8008091FD019091FE01892B21F460E136
:1039700080EE91E003C060E080E090E070E00E94A3
:10398000391E8091E8008B778093E800089580913C
:10399000F901813209F076C08091FD019091FE011C
:1039A000009719F0039709F06DC08091E800877FB8
:1039B0008093E8008091E80082FD05C08091F801C5
:1039C0008111F8CF5FC08091F1008093F001809168
:1039D000E8008B7753C08091F901813A09F052C019
:1039E0008091FD019091FE01892B09F04BC08091DF
:1039F000E800877F8093E8008091E80080FFFCCF9B
:103A00008091150136C08091F9018132D9F58091FC
:103A1000FD019091FE01892BA9F58091E800877F37
:103A20008093E8000E94321F8091FB018093150172
:103A30000C94DB0E8091F901813221F58091E80030
:103A4000877F8093E8000E94321F8091FC01809361
:103A5000F10108958091F901813AA1F48091E80083
:103A6000877F8093E8008091E80080FFFCCF809101
:103A7000F1018093F1008091E8008E778093E80057
:103A80000C94321F089584B7877F84BF0FB6F894D3
:103A9000A89580916000886180936000109260001A
:103AA0000FBE80E880936100109261000E947A0A44
:103AB0000E94831F0E94E01F8091E2008460809337
:103AC000E20078940E9466220E947C0A8BE091E0DA
:103AD0000E94260A0E941E1B8091F801853069F41D
:103AE0000E94D5158091F6018823B1F30E94021639
:103AF000882391F30E94D81DEFCF0E94820AECCF59
:103B0000292F332723303105C9F064F421303105E2
:103B100081F02230310509F043C08DE690E026EABD
:103B200034E042C021323105F1F02232310541F159
:103B300037C082E190E023E135E036C0992781303B
:103B4000910541F08230910541F0892B49F5E2EA77
:103B5000F4E005C0EAE8F4E002C0E2E7F4E08491B2
:103B600090E09F0121C06430D8F4E62FF0E0EE0F22
:103B7000FF1FE45DFE4F2081318189E090E014C099
:103B8000643070F470E0FB01EE0FFF1FEC5DFE4F40
:103B900020813181FB01E05EFE4F808190E004C016
:103BA00080E090E020E030E0FA0131832083089546
:103BB00080E189BD82E189BD09B400FEFDCF80911D
:103BC000D8008F7D8093D8008091E0008260809340
:103BD000E0008091E00081FDFCCF0895CF92DF925C
:103BE000EF92FF920F931F93CF93DF93EC018B0122
:103BF0006A010E94511F811133C0C114D10439F0F0
:103C0000F60180819181081B190BC80FD91FE12C87
:103C1000F12C0115110519F18091E80085FD16C000
:103C20008091E8008E778093E800C114D10449F0B8
:103C3000F60180819181E80EF91EF182E08285E033
:103C40000FC00E94511F882321F30AC089918093DD
:103C5000F10001501109FFEFEF1AFF0ADACF80E0FF
:103C6000DF91CF911F910F91FF90EF90DF90CF9058
:103C700008952091FF01309100022617370748F080
:103C80006115710539F42091E8002E772093E80042
:103C900001C0B90140E061157105A9F12091F80159
:103CA000222309F443C0253009F442C02091E800E2
:103CB00023FD40C02091E80022FD32C02091E800A1
:103CC00020FFE9CF4091F3002091F20030E0342B47
:103CD000FC01CF016115710559F02830310540F420
:103CE00081918093F100615071092F5F3F4FF1CFB7
:103CF00041E02830310509F040E02091E8002E77BE
:103D00002093E800C8CF4111C9CF0AC08091F801C3
:103D1000882361F0853061F08091E80083FD0AC05E
:103D20008091E80082FFF2CF80E0089582E008955C
:103D300083E0089581E008952091FF013091000211
:103D40002617370748F06115710539F42091E8000E
:103D50002E772093E80001C0B901FC0120E0611535
:103D6000710591F18091F801882309F440C08530F4
:103D700009F43FC08091E80083FD3DC08091E800D8
:103D800082FD2FC08091E80080FFE9CF2091F300F1
:103D90008091F20090E0922B6115710559F0883006
:103DA000910540F424912093F100319661507109FE
:103DB0000196F2CF21E0089709F020E08091E80019
:103DC0008E778093E800CBCF2111CCCF0AC08091B1
:103DD000F801882361F0853061F08091E80083FD6F
:103DE0000AC08091E80082FFF2CF80E0089582E06F
:103DF000089583E0089581E00895982F973058F54D
:103E00009093E900981739F07091EC002091ED0043
:103E10005091F00003C0242F762F50E021FF19C0ED
:103E20003091EB003E7F3093EB003091ED003D7F11
:103E30003093ED003091EB0031603093EB007093E4
:103E4000EC002093ED005093F0002091EE0027FF4E
:103E500007C09F5FD3CF8F708093E90081E0089502
:103E600080E008958091F90187FF11C08091E800FA
:103E700082FD05C08091F8018111F8CF11C08091B9
:103E8000E8008B770BC08091F801882349F080917E
:103E9000E80080FFF8CF8091E8008E778093E800FB
:103EA00008952091E4003091E50095E64091EC0002
:103EB000842F817040FF22C08091E80080FD1CC0EB
:103EC0008091F801882391F0853091F08091EB008A
:103ED00085FD10C04091E4005091E5004217530762
:103EE00029F39A01915011F784E0089582E0089532
:103EF00083E0089581E0089580E008954091E8000E
:103F000042FFDECF08950E94F11F0E94F91FE0EEEC
:103F1000F0E0808181608083E8EDF0E080818F7740
:103F2000808319BCA7EDB0E08C918E7F8C9380814B
:103F30008F7E80831092F70108950F931F93CF9384
:103F4000DF930E94F11F0E94F91FC8EDD0E0888125
:103F50008F77888388818068888388818F7D888334
:103F600019BC1092F8011092F4011092F60110920F
:103F7000F50100EE10E0F80180818B7F808388815D
:103F80008160888342E060E080E00E94FD1EE1EEF7
:103F9000F0E080818E7F8083E2EEF0E080818160BE
:103FA0008083808188608083F80180818E7F808318
:103FB000888180618883DF91CF911F910F9108954F
:103FC000E8EDF0E080818F7E8083E7EDF0E0808196
:103FD0008160808384E082BF81E08093F7010C944C
:103FE0009D1FE8EDF0E080818E7F80831092E200DB
:103FF00008951092DA001092E10008951F920F9236
:104000000FB60F9211242F933F934F935F936F93AB
:104010007F938F939F93AF93BF93EF93FF93809181
:10402000E10082FF0BC08091E20082FF07C0809117
:10403000E1008B7F8093E1000E9465228091DA008D
:1040400080FF1FC08091D80080FF1BC08091DA00E4
:104050008E7F8093DA008091D90080FF0DC080E1CF
:1040600089BD82E189BD09B400FEFDCF81E0809366
:10407000F8010E94611C05C019BC1092F8010E9451
:104080006F1C8091E10080FF19C08091E20080FFE9
:1040900015C08091E2008E7F8093E2008091E20063
:1040A00080618093E2008091D80080628093D80084
:1040B00019BC85E08093F8010E94731C8091E10097
:1040C00084FF30C08091E20084FF2CC080E189BD74
:1040D00082E189BD09B400FEFDCF8091D8008F7DBB
:1040E0008093D8008091E1008F7E8093E1008091E1
:1040F000E2008F7E8093E2008091E20081608093F5
:10410000E2008091F401882311F084E007C08091DF
:10411000E30087FD02C081E001C083E08093F801E5
:104120000E94751C8091E10083FF29C08091E2000C
:1041300083FF25C08091E100877F8093E10082E0CA
:104140008093F8011092F4018091E1008E7F8093BA
:10415000E1008091E2008E7F8093E2008091E20096
:1041600080618093E20042E060E080E00E94FD1EFA
:104170008091F00088608093F0000E94721CFF9193
:10418000EF91BF91AF919F918F917F916F915F91CF
:104190004F913F912F910F900FBE0F901F90189548
:1041A0001F920F920FB60F9211242F933F934F93AC
:1041B0005F936F937F938F939F93AF93BF93CF93AF
:1041C000DF93EF93FF93C091E900CF708091EC00F3
:1041D000D82FD17080FDD0E81092E9008091F000D6
:1041E000877F8093F00078940E9414211092E90058
:1041F0008091F00088608093F000CD2BCF70C09349
:10420000E900FF91EF91DF91CF91BF91AF919F9125
:104210008F917F916F915F914F913F912F910F906F
:104220000FBE0F901F9018951F93CF93DF93CDB7BC
:10423000DEB7AA970FB6F894DEBF0FBECDBFE9EF89
:10424000F1E088E08E0F9091F10091938E13FBCFF7
:104250000E94911C8091E80083FF1FC18091F901A9
:104260009091FA01492F50E04A30510508F015C1EC
:10427000FA01E558FF4F0C94C623803881F082384C
:1042800009F00BC18091FD018F708093E90080914E
:10429000EB0085FB882780F91092E90006C0809129
:1042A000F5019091F601911182609091E800977F5D
:1042B0009093E8008093F1001092F100C8C0282F7D
:1042C0002D7F09F0EAC0882319F0823061F0E5C043
:1042D0008091FB01813009F0E0C0933009F080E06B
:1042E0008093F6012BC08091FB01811127C0809142
:1042F000FD018F7009F4D1C08093E9002091EB009B
:1043000020FF1CC0933021F48091EB00806214C028
:104310009091EB0090619093EB0021E030E0A901D7
:1043200002C0440F551F8A95E2F74093EA001092AD
:10433000EA008091EB0088608093EB001092E90026
:104340008091E800877F86C08111A7C01091FB0192
:104350001F778091E3008078812B8093E300809128
:10436000E800877F8093E8000E94321F8091E80078
:1043700080FFFCCF8091E30080688093E3001111FF
:1043800002C082E001C083E08093F80186C08058BB
:10439000823008F082C08091FB019091FC018C3D3D
:1043A00053E0950779F583E08A838AE289834FB7E2
:1043B000F894DE01139620E03EE051E2E32FF0E0B6
:1043C00050935700E49120FF03C0E295EF703F5FE8
:1043D000EF708E2F90E0EA3010F0C79601C0C096C3
:1043E0008D939D932F5F243149F74FBF8091E80053
:1043F000877F8093E8006AE270E0CE0101960E9418
:10440000391E14C0AE014F5F5F4F6091FD010E94E5
:10441000801DBC01892B09F440C09091E800977F72
:104420009093E80089819A810E949C1E8091E80007
:104430008B778093E80031C0803879F58091E8006F
:10444000877F8093E8008091F4018093F100809150
:10445000E8008E778093E8000E94321F1EC0811111
:104460001CC09091FB019230C0F48091E800877FDE
:104470008093E8009093F4010E94321F8091F40130
:10448000811106C08091E30087FD02C081E001C078
:1044900084E08093F8010E947D1C8091E80083FFF6
:1044A0000AC08091E800877F8093E8008091EB004C
:1044B00080628093EB00AA960FB6F894DEBF0FBE21
:1044C000CDBFDF91CF911F9108950895CF93809133
:1044D000F8018823A1F0C091E900CF709091EC0021
:1044E000892F817090FD80E8C82B1092E90080919F
:1044F000E80083FD0E941421CF70C093E900CF91A2
:1045000008950E9488226894B1110C94172308958D
:104510000E94FC2288F09F5798F0B92F9927B75135
:10452000B0F0E1F0660F771F881F991F1AF0BA9557
:10453000C9F714C0B13091F00E941623B1E008957C
:104540000C941623672F782F8827B85F39F0B93F6E
:10455000CCF3869577956795B395D9F73EF490950A
:104560008095709561957F4F8F4F9F4F0895E89488
:1045700009C097FB3EF490958095709561957F4FAB
:104580008F4F9F4F9923A9F0F92F96E9BB27939559
:10459000F695879577956795B795F111F8CFFAF469
:1045A000BB0F11F460FF1BC06F5F7F4F8F4F9F4F9A
:1045B00016C0882311F096E911C0772321F09EE8F8
:1045C000872F762F05C0662371F096E8862F70E05E
:1045D00060E02AF09A95660F771F881FDAF7880F38
:1045E0009695879597F9089557FD9058440F551F54
:1045F00059F05F3F71F04795880F97FB991F61F065
:104600009F3F79F087950895121613061406551FDB
:10461000F2CF4695F1DF08C0161617061806991F47
:10462000F1CF86957105610508940895E894BB273C
:1046300066277727CB0197F908950E9430230C94C1
:10464000A1230E94932338F00E949A2320F09523FF
:1046500011F00C948A230C94902311240C941723AA
:104660000E94F42270F3959FC1F3950F50E0551FFF
:10467000629FF001729FBB27F00DB11D639FAA27B7
:10468000F00DB11DAA1F649F6627B00DA11D661F06
:10469000829F2227B00DA11D621F739FB00DA11D27
:1046A000621F839FA00D611D221F749F3327A00DE1
:1046B000611D231F849F600D211D822F762F6A2F7D
:1046C00011249F5750409AF0F1F088234AF0EE0FE2
:1046D000FF1FBB1F661F771F881F91505040A9F70F
:1046E0009E3F510580F00C948A230C9417235F3F62
:1046F000E4F3983ED4F3869577956795B795F7954B
:10470000E7959F5FC1F7FE2B880F911D96958795C2
:1047100097F9089597F99F6780E870E060E0089541
:104720009FEF80EC089500240A94161617061806C9
:104730000906089500240A941216130614060506A5
:104740000895092E0394000C11F4882352F0BB0F36
:1047500040F4BF2B11F460FF04C06F5F7F4F8F4F99
:104760009F4F089597FB072E16F4009407D077FD0E
:1047700009D00E94CC2307FC05D03EF4909581958A
:104780009F4F0895709561957F4F0895EE0FFF1F1D
:104790000590F491E02D0994AA1BBB1B51E107C0C1
:1047A000AA1FBB1FA617B70710F0A61BB70B881FC1
:1047B000991F5A95A9F780959095BC01CD01089550
:1047C000F999FECF92BD81BDF89A992780B50895D9
:1047D000A8E1B0E042E050E00C940724262FF999BC
:1047E000FECF92BD81BDF89A019700B4021631F058
:1047F00020BD0FB6F894FA9AF99A0FBE0895019663
:10480000272F0E94EF230C94EE23DC01CB01FC0147
:10481000F999FECF06C0F2BDE1BDF89A319600B419
:0E4820000D9241505040B8F70895F894FFCF24
:10482E00052001BA0128080A03140A821B101CED88
:10483E001BB91B851B0101020304050607080900AD
:10484E00404D3639E10594055E052505B804D104C1
:04485E00EA04030560
:00000001FF
